{
	"_format": "sphinx-sol-ct-artifact-1",
	"merkleRoot": "0xff1422b9d97155c99166ddcd8c34faf3675b7c7689e6ec7bc74a5a1fc3cbfb3f",
	"contractName": "Oracle",
	"address": "0x8d8a2Bd991c1d900C59a82a2EEb0DF44e0671aaB",
	"abi": [
		{
			"type": "constructor",
			"inputs": [
				{
					"name": "dao",
					"type": "address",
					"internalType": "address"
				},
				{
					"name": "ormp",
					"type": "address",
					"internalType": "address"
				}
			],
			"stateMutability": "nonpayable"
		},
		{
			"type": "receive",
			"stateMutability": "payable"
		},
		{
			"type": "function",
			"name": "PROTOCOL",
			"inputs": [],
			"outputs": [
				{
					"name": "",
					"type": "address",
					"internalType": "address"
				}
			],
			"stateMutability": "view"
		},
		{
			"type": "function",
			"name": "approvedOf",
			"inputs": [
				{
					"name": "",
					"type": "address",
					"internalType": "address"
				}
			],
			"outputs": [
				{
					"name": "",
					"type": "bool",
					"internalType": "bool"
				}
			],
			"stateMutability": "view"
		},
		{
			"type": "function",
			"name": "changeOwner",
			"inputs": [
				{
					"name": "newOwner",
					"type": "address",
					"internalType": "address"
				}
			],
			"outputs": [],
			"stateMutability": "nonpayable"
		},
		{
			"type": "function",
			"name": "fee",
			"inputs": [
				{
					"name": "toChainId",
					"type": "uint256",
					"internalType": "uint256"
				},
				{
					"name": "",
					"type": "address",
					"internalType": "address"
				}
			],
			"outputs": [
				{
					"name": "",
					"type": "uint256",
					"internalType": "uint256"
				}
			],
			"stateMutability": "view"
		},
		{
			"type": "function",
			"name": "feeOf",
			"inputs": [
				{
					"name": "",
					"type": "uint256",
					"internalType": "uint256"
				}
			],
			"outputs": [
				{
					"name": "",
					"type": "uint256",
					"internalType": "uint256"
				}
			],
			"stateMutability": "view"
		},
		{
			"type": "function",
			"name": "hashOf",
			"inputs": [
				{
					"name": "chainId",
					"type": "uint256",
					"internalType": "uint256"
				},
				{
					"name": "channel",
					"type": "address",
					"internalType": "address"
				},
				{
					"name": "msgIndex",
					"type": "uint256",
					"internalType": "uint256"
				}
			],
			"outputs": [
				{
					"name": "",
					"type": "bytes32",
					"internalType": "bytes32"
				}
			],
			"stateMutability": "view"
		},
		{
			"type": "function",
			"name": "importMessageHash",
			"inputs": [
				{
					"name": "chainId",
					"type": "uint256",
					"internalType": "uint256"
				},
				{
					"name": "channel",
					"type": "address",
					"internalType": "address"
				},
				{
					"name": "msgIndex",
					"type": "uint256",
					"internalType": "uint256"
				},
				{
					"name": "msgHash",
					"type": "bytes32",
					"internalType": "bytes32"
				}
			],
			"outputs": [],
			"stateMutability": "nonpayable"
		},
		{
			"type": "function",
			"name": "isApproved",
			"inputs": [
				{
					"name": "operator",
					"type": "address",
					"internalType": "address"
				}
			],
			"outputs": [
				{
					"name": "",
					"type": "bool",
					"internalType": "bool"
				}
			],
			"stateMutability": "view"
		},
		{
			"type": "function",
			"name": "owner",
			"inputs": [],
			"outputs": [
				{
					"name": "",
					"type": "address",
					"internalType": "address"
				}
			],
			"stateMutability": "view"
		},
		{
			"type": "function",
			"name": "setApproved",
			"inputs": [
				{
					"name": "operator",
					"type": "address",
					"internalType": "address"
				},
				{
					"name": "approve",
					"type": "bool",
					"internalType": "bool"
				}
			],
			"outputs": [],
			"stateMutability": "nonpayable"
		},
		{
			"type": "function",
			"name": "setFee",
			"inputs": [
				{
					"name": "chainId",
					"type": "uint256",
					"internalType": "uint256"
				},
				{
					"name": "fee_",
					"type": "uint256",
					"internalType": "uint256"
				}
			],
			"outputs": [],
			"stateMutability": "nonpayable"
		},
		{
			"type": "function",
			"name": "verifyMessageProof",
			"inputs": [
				{
					"name": "message",
					"type": "tuple",
					"internalType": "struct Message",
					"components": [
						{
							"name": "channel",
							"type": "address",
							"internalType": "address"
						},
						{
							"name": "index",
							"type": "uint256",
							"internalType": "uint256"
						},
						{
							"name": "fromChainId",
							"type": "uint256",
							"internalType": "uint256"
						},
						{
							"name": "from",
							"type": "address",
							"internalType": "address"
						},
						{
							"name": "toChainId",
							"type": "uint256",
							"internalType": "uint256"
						},
						{
							"name": "to",
							"type": "address",
							"internalType": "address"
						},
						{
							"name": "gasLimit",
							"type": "uint256",
							"internalType": "uint256"
						},
						{
							"name": "encoded",
							"type": "bytes",
							"internalType": "bytes"
						}
					]
				},
				{
					"name": "",
					"type": "bytes",
					"internalType": "bytes"
				}
			],
			"outputs": [
				{
					"name": "",
					"type": "bool",
					"internalType": "bool"
				}
			],
			"stateMutability": "view"
		},
		{
			"type": "function",
			"name": "version",
			"inputs": [],
			"outputs": [
				{
					"name": "",
					"type": "string",
					"internalType": "string"
				}
			],
			"stateMutability": "pure"
		},
		{
			"type": "function",
			"name": "withdraw",
			"inputs": [
				{
					"name": "to",
					"type": "address",
					"internalType": "address"
				},
				{
					"name": "amount",
					"type": "uint256",
					"internalType": "uint256"
				}
			],
			"outputs": [],
			"stateMutability": "nonpayable"
		},
		{
			"type": "event",
			"name": "OwnershipTransferred",
			"inputs": [
				{
					"name": "previousOwner",
					"type": "address",
					"indexed": true,
					"internalType": "address"
				},
				{
					"name": "newOwner",
					"type": "address",
					"indexed": true,
					"internalType": "address"
				}
			],
			"anonymous": false
		},
		{
			"type": "event",
			"name": "SetApproved",
			"inputs": [
				{
					"name": "operator",
					"type": "address",
					"indexed": false,
					"internalType": "address"
				},
				{
					"name": "approve",
					"type": "bool",
					"indexed": false,
					"internalType": "bool"
				}
			],
			"anonymous": false
		},
		{
			"type": "event",
			"name": "SetFee",
			"inputs": [
				{
					"name": "chainId",
					"type": "uint256",
					"indexed": true,
					"internalType": "uint256"
				},
				{
					"name": "fee",
					"type": "uint256",
					"indexed": false,
					"internalType": "uint256"
				}
			],
			"anonymous": false
		},
		{
			"type": "event",
			"name": "Withdrawal",
			"inputs": [
				{
					"name": "to",
					"type": "address",
					"indexed": true,
					"internalType": "address"
				},
				{
					"name": "amt",
					"type": "uint256",
					"indexed": false,
					"internalType": "uint256"
				}
			],
			"anonymous": false
		}
	],
	"solcInputHash": "8b60ba290fd74edea2ea16776d177253",
	"args": [
		"0x040f331774Ed6BB161412B4cEDb1358B382aF3A5",
		"0x13b2211a7cA45Db2808F6dB05557ce5347e3634e"
	],
	"bytecode": "0x60a060405234801561001057600080fd5b5060405161113038038061113083398101604081905261002f91610076565b6001600160a01b03908116608052600080546001600160a01b031916929091169190911790556100a9565b80516001600160a01b038116811461007157600080fd5b919050565b6000806040838503121561008957600080fd5b6100928361005a565b91506100a06020840161005a565b90509250929050565b60805161105e6100d2600039600081816102a80152818161046701526104cd015261105e6000f3fe6080604052600436106100e15760003560e01c80638da5cb5b1161007f578063a6f9dae111610059578063a6f9dae1146102ea578063af9e3a361461030a578063b6333d1614610337578063f3fef3a31461036757600080fd5b80638da5cb5b1461024457806391b9b82714610296578063a1dbf432146102ca57600080fd5b806354fd4d50116100bb57806354fd4d5014610162578063651b04a7146101ae578063673448dd146101de57806384cfb6801461022457600080fd5b80630a863e6c146100ed578063506146951461010f57806352f7c9881461014257600080fd5b366100e857005b600080fd5b3480156100f957600080fd5b5061010d610108366004610b5d565b610387565b005b34801561011b57600080fd5b5061012f61012a366004610b98565b6104c9565b6040519081526020015b60405180910390f35b34801561014e57600080fd5b5061010d61015d366004610bcd565b6105e1565b34801561016e57600080fd5b50604080518082018252600581527f322e312e30000000000000000000000000000000000000000000000000000000602082015290516101399190610c53565b3480156101ba57600080fd5b506101ce6101c9366004610c66565b6106ab565b6040519015158152602001610139565b3480156101ea57600080fd5b506101ce6101f9366004610d06565b73ffffffffffffffffffffffffffffffffffffffff1660009081526002602052604090205460ff1690565b34801561023057600080fd5b5061010d61023f366004610d21565b6106e6565b34801561025057600080fd5b506000546102719073ffffffffffffffffffffffffffffffffffffffff1681565b60405173ffffffffffffffffffffffffffffffffffffffff9091168152602001610139565b3480156102a257600080fd5b506102717f000000000000000000000000000000000000000000000000000000000000000081565b3480156102d657600080fd5b5061012f6102e5366004610d5d565b6107f5565b3480156102f657600080fd5b5061010d610305366004610d06565b610876565b34801561031657600080fd5b5061012f610325366004610d89565b60016020526000908152604090205481565b34801561034357600080fd5b506101ce610352366004610d06565b60026020526000908152604090205460ff1681565b34801561037357600080fd5b5061010d610382366004610da2565b61096c565b60005473ffffffffffffffffffffffffffffffffffffffff16331461040d576040517f08c379a000000000000000000000000000000000000000000000000000000000815260206004820152600660248201527f216f776e6572000000000000000000000000000000000000000000000000000060448201526064015b60405180910390fd5b6040517f5f3abe960000000000000000000000000000000000000000000000000000000081526004810185905273ffffffffffffffffffffffffffffffffffffffff848116602483015260448201849052606482018390527f00000000000000000000000000000000000000000000000000000000000000001690635f3abe9690608401600060405180830381600087803b1580156104ab57600080fd5b505af11580156104bf573d6000803e3d6000fd5b5050505050505050565b60007f000000000000000000000000000000000000000000000000000000000000000073ffffffffffffffffffffffffffffffffffffffff1663559e7230308686866040516020016105449392919092835273ffffffffffffffffffffffffffffffffffffffff919091166020830152604082015260600190565b604051602081830303815290604052805190602001206040518363ffffffff1660e01b815260040161059892919073ffffffffffffffffffffffffffffffffffffffff929092168252602082015260400190565b602060405180830381865afa1580156105b5573d6000803e3d6000fd5b505050506040513d601f19601f820116820180604052508101906105d99190610dcc565b949350505050565b3360009081526002602052604090205460ff1661065a576040517f08c379a000000000000000000000000000000000000000000000000000000000815260206004820152600860248201527f21617070726f76650000000000000000000000000000000000000000000000006044820152606401610404565b600082815260016020526040908190208290555182907f032dc6a2d839eb179729a55633fdf1c41a1fc4739394154117005db2b354b9b59061069f9084815260200190565b60405180910390a25050565b60006106be6106b985610ee9565b610b04565b6106dd60408601356106d36020880188610d06565b87602001356104c9565b14949350505050565b60005473ffffffffffffffffffffffffffffffffffffffff163314610767576040517f08c379a000000000000000000000000000000000000000000000000000000000815260206004820152600660248201527f216f776e657200000000000000000000000000000000000000000000000000006044820152606401610404565b73ffffffffffffffffffffffffffffffffffffffff821660008181526002602090815260409182902080547fffffffffffffffffffffffffffffffffffffffffffffffffffffffffffffff00168515159081179091558251938452908301527fd984ea421ae5d2a473199f85e03998a04a12f54d6f1fa183a955b3df1c0c546d910160405180910390a15050565b60008281526001602052604081205480820361086f576040517f08c379a00000000000000000000000000000000000000000000000000000000081526004016104049060208082526004908201527f2166656500000000000000000000000000000000000000000000000000000000604082015260600190565b9392505050565b60005473ffffffffffffffffffffffffffffffffffffffff1633146108f7576040517f08c379a000000000000000000000000000000000000000000000000000000000815260206004820152600660248201527f216f776e657200000000000000000000000000000000000000000000000000006044820152606401610404565b6000805473ffffffffffffffffffffffffffffffffffffffff8381167fffffffffffffffffffffffff0000000000000000000000000000000000000000831681178455604051919092169283917f8be0079c531659141344cd1fd0a4f28419497f9722a3daafe3b4186f6b6457e09190a35050565b3360009081526002602052604090205460ff166109e5576040517f08c379a000000000000000000000000000000000000000000000000000000000815260206004820152600860248201527f21617070726f76650000000000000000000000000000000000000000000000006044820152606401610404565b60008273ffffffffffffffffffffffffffffffffffffffff168260405160006040518083038185875af1925050503d8060008114610a3f576040519150601f19603f3d011682016040523d82523d6000602084013e610a44565b606091505b5050905080610aaf576040517f08c379a000000000000000000000000000000000000000000000000000000000815260206004820152600960248201527f21776974686472617700000000000000000000000000000000000000000000006044820152606401610404565b8273ffffffffffffffffffffffffffffffffffffffff167f7fcf532c15f0a6db0bd6d0e038bea71d30d808c7d98cb3bf7268a95bf5081b6583604051610af791815260200190565b60405180910390a2505050565b600081604051602001610b179190610f8b565b604051602081830303815290604052805190602001209050919050565b803573ffffffffffffffffffffffffffffffffffffffff81168114610b5857600080fd5b919050565b60008060008060808587031215610b7357600080fd5b84359350610b8360208601610b34565b93969395505050506040820135916060013590565b600080600060608486031215610bad57600080fd5b83359250610bbd60208501610b34565b9150604084013590509250925092565b60008060408385031215610be057600080fd5b50508035926020909101359150565b6000815180845260005b81811015610c1557602081850181015186830182015201610bf9565b5060006020828601015260207fffffffffffffffffffffffffffffffffffffffffffffffffffffffffffffffe0601f83011685010191505092915050565b60208152600061086f6020830184610bef565b600080600060408486031215610c7b57600080fd5b833567ffffffffffffffff80821115610c9357600080fd5b908501906101008288031215610ca857600080fd5b90935060208501359080821115610cbe57600080fd5b818601915086601f830112610cd257600080fd5b813581811115610ce157600080fd5b876020828501011115610cf357600080fd5b6020830194508093505050509250925092565b600060208284031215610d1857600080fd5b61086f82610b34565b60008060408385031215610d3457600080fd5b610d3d83610b34565b915060208301358015158114610d5257600080fd5b809150509250929050565b60008060408385031215610d7057600080fd5b82359150610d8060208401610b34565b90509250929050565b600060208284031215610d9b57600080fd5b5035919050565b60008060408385031215610db557600080fd5b610dbe83610b34565b946020939093013593505050565b600060208284031215610dde57600080fd5b5051919050565b7f4e487b7100000000000000000000000000000000000000000000000000000000600052604160045260246000fd5b604051610100810167ffffffffffffffff81118282101715610e3857610e38610de5565b60405290565b600082601f830112610e4f57600080fd5b813567ffffffffffffffff80821115610e6a57610e6a610de5565b604051601f83017fffffffffffffffffffffffffffffffffffffffffffffffffffffffffffffffe0908116603f01168101908282118183101715610eb057610eb0610de5565b81604052838152866020858801011115610ec957600080fd5b836020870160208301376000602085830101528094505050505092915050565b60006101008236031215610efc57600080fd5b610f04610e14565b610f0d83610b34565b81526020830135602082015260408301356040820152610f2f60608401610b34565b606082015260808301356080820152610f4a60a08401610b34565b60a082015260c083013560c082015260e083013567ffffffffffffffff811115610f7357600080fd5b610f7f36828601610e3e565b60e08301525092915050565b60208152600073ffffffffffffffffffffffffffffffffffffffff808451166020840152602084015160408401526040840151606084015280606085015116608084015250608083015160a083015260a083015161100160c084018273ffffffffffffffffffffffffffffffffffffffff169052565b5060c083015160e083015260e08301516101008081850152506105d9610120840182610bef56fea26469706673582212204e15bd44f524a009ddb10dfab169b887e49170106f13f83c120155f154c3b9bc64736f6c63430008110033",
	"deployedBytecode": "0x6080604052600436106100e15760003560e01c80638da5cb5b1161007f578063a6f9dae111610059578063a6f9dae1146102ea578063af9e3a361461030a578063b6333d1614610337578063f3fef3a31461036757600080fd5b80638da5cb5b1461024457806391b9b82714610296578063a1dbf432146102ca57600080fd5b806354fd4d50116100bb57806354fd4d5014610162578063651b04a7146101ae578063673448dd146101de57806384cfb6801461022457600080fd5b80630a863e6c146100ed578063506146951461010f57806352f7c9881461014257600080fd5b366100e857005b600080fd5b3480156100f957600080fd5b5061010d610108366004610b5d565b610387565b005b34801561011b57600080fd5b5061012f61012a366004610b98565b6104c9565b6040519081526020015b60405180910390f35b34801561014e57600080fd5b5061010d61015d366004610bcd565b6105e1565b34801561016e57600080fd5b50604080518082018252600581527f322e312e30000000000000000000000000000000000000000000000000000000602082015290516101399190610c53565b3480156101ba57600080fd5b506101ce6101c9366004610c66565b6106ab565b6040519015158152602001610139565b3480156101ea57600080fd5b506101ce6101f9366004610d06565b73ffffffffffffffffffffffffffffffffffffffff1660009081526002602052604090205460ff1690565b34801561023057600080fd5b5061010d61023f366004610d21565b6106e6565b34801561025057600080fd5b506000546102719073ffffffffffffffffffffffffffffffffffffffff1681565b60405173ffffffffffffffffffffffffffffffffffffffff9091168152602001610139565b3480156102a257600080fd5b506102717f00000000000000000000000013b2211a7ca45db2808f6db05557ce5347e3634e81565b3480156102d657600080fd5b5061012f6102e5366004610d5d565b6107f5565b3480156102f657600080fd5b5061010d610305366004610d06565b610876565b34801561031657600080fd5b5061012f610325366004610d89565b60016020526000908152604090205481565b34801561034357600080fd5b506101ce610352366004610d06565b60026020526000908152604090205460ff1681565b34801561037357600080fd5b5061010d610382366004610da2565b61096c565b60005473ffffffffffffffffffffffffffffffffffffffff16331461040d576040517f08c379a000000000000000000000000000000000000000000000000000000000815260206004820152600660248201527f216f776e6572000000000000000000000000000000000000000000000000000060448201526064015b60405180910390fd5b6040517f5f3abe960000000000000000000000000000000000000000000000000000000081526004810185905273ffffffffffffffffffffffffffffffffffffffff848116602483015260448201849052606482018390527f00000000000000000000000013b2211a7ca45db2808f6db05557ce5347e3634e1690635f3abe9690608401600060405180830381600087803b1580156104ab57600080fd5b505af11580156104bf573d6000803e3d6000fd5b5050505050505050565b60007f00000000000000000000000013b2211a7ca45db2808f6db05557ce5347e3634e73ffffffffffffffffffffffffffffffffffffffff1663559e7230308686866040516020016105449392919092835273ffffffffffffffffffffffffffffffffffffffff919091166020830152604082015260600190565b604051602081830303815290604052805190602001206040518363ffffffff1660e01b815260040161059892919073ffffffffffffffffffffffffffffffffffffffff929092168252602082015260400190565b602060405180830381865afa1580156105b5573d6000803e3d6000fd5b505050506040513d601f19601f820116820180604052508101906105d99190610dcc565b949350505050565b3360009081526002602052604090205460ff1661065a576040517f08c379a000000000000000000000000000000000000000000000000000000000815260206004820152600860248201527f21617070726f76650000000000000000000000000000000000000000000000006044820152606401610404565b600082815260016020526040908190208290555182907f032dc6a2d839eb179729a55633fdf1c41a1fc4739394154117005db2b354b9b59061069f9084815260200190565b60405180910390a25050565b60006106be6106b985610ee9565b610b04565b6106dd60408601356106d36020880188610d06565b87602001356104c9565b14949350505050565b60005473ffffffffffffffffffffffffffffffffffffffff163314610767576040517f08c379a000000000000000000000000000000000000000000000000000000000815260206004820152600660248201527f216f776e657200000000000000000000000000000000000000000000000000006044820152606401610404565b73ffffffffffffffffffffffffffffffffffffffff821660008181526002602090815260409182902080547fffffffffffffffffffffffffffffffffffffffffffffffffffffffffffffff00168515159081179091558251938452908301527fd984ea421ae5d2a473199f85e03998a04a12f54d6f1fa183a955b3df1c0c546d910160405180910390a15050565b60008281526001602052604081205480820361086f576040517f08c379a00000000000000000000000000000000000000000000000000000000081526004016104049060208082526004908201527f2166656500000000000000000000000000000000000000000000000000000000604082015260600190565b9392505050565b60005473ffffffffffffffffffffffffffffffffffffffff1633146108f7576040517f08c379a000000000000000000000000000000000000000000000000000000000815260206004820152600660248201527f216f776e657200000000000000000000000000000000000000000000000000006044820152606401610404565b6000805473ffffffffffffffffffffffffffffffffffffffff8381167fffffffffffffffffffffffff0000000000000000000000000000000000000000831681178455604051919092169283917f8be0079c531659141344cd1fd0a4f28419497f9722a3daafe3b4186f6b6457e09190a35050565b3360009081526002602052604090205460ff166109e5576040517f08c379a000000000000000000000000000000000000000000000000000000000815260206004820152600860248201527f21617070726f76650000000000000000000000000000000000000000000000006044820152606401610404565b60008273ffffffffffffffffffffffffffffffffffffffff168260405160006040518083038185875af1925050503d8060008114610a3f576040519150601f19603f3d011682016040523d82523d6000602084013e610a44565b606091505b5050905080610aaf576040517f08c379a000000000000000000000000000000000000000000000000000000000815260206004820152600960248201527f21776974686472617700000000000000000000000000000000000000000000006044820152606401610404565b8273ffffffffffffffffffffffffffffffffffffffff167f7fcf532c15f0a6db0bd6d0e038bea71d30d808c7d98cb3bf7268a95bf5081b6583604051610af791815260200190565b60405180910390a2505050565b600081604051602001610b179190610f8b565b604051602081830303815290604052805190602001209050919050565b803573ffffffffffffffffffffffffffffffffffffffff81168114610b5857600080fd5b919050565b60008060008060808587031215610b7357600080fd5b84359350610b8360208601610b34565b93969395505050506040820135916060013590565b600080600060608486031215610bad57600080fd5b83359250610bbd60208501610b34565b9150604084013590509250925092565b60008060408385031215610be057600080fd5b50508035926020909101359150565b6000815180845260005b81811015610c1557602081850181015186830182015201610bf9565b5060006020828601015260207fffffffffffffffffffffffffffffffffffffffffffffffffffffffffffffffe0601f83011685010191505092915050565b60208152600061086f6020830184610bef565b600080600060408486031215610c7b57600080fd5b833567ffffffffffffffff80821115610c9357600080fd5b908501906101008288031215610ca857600080fd5b90935060208501359080821115610cbe57600080fd5b818601915086601f830112610cd257600080fd5b813581811115610ce157600080fd5b876020828501011115610cf357600080fd5b6020830194508093505050509250925092565b600060208284031215610d1857600080fd5b61086f82610b34565b60008060408385031215610d3457600080fd5b610d3d83610b34565b915060208301358015158114610d5257600080fd5b809150509250929050565b60008060408385031215610d7057600080fd5b82359150610d8060208401610b34565b90509250929050565b600060208284031215610d9b57600080fd5b5035919050565b60008060408385031215610db557600080fd5b610dbe83610b34565b946020939093013593505050565b600060208284031215610dde57600080fd5b5051919050565b7f4e487b7100000000000000000000000000000000000000000000000000000000600052604160045260246000fd5b604051610100810167ffffffffffffffff81118282101715610e3857610e38610de5565b60405290565b600082601f830112610e4f57600080fd5b813567ffffffffffffffff80821115610e6a57610e6a610de5565b604051601f83017fffffffffffffffffffffffffffffffffffffffffffffffffffffffffffffffe0908116603f01168101908282118183101715610eb057610eb0610de5565b81604052838152866020858801011115610ec957600080fd5b836020870160208301376000602085830101528094505050505092915050565b60006101008236031215610efc57600080fd5b610f04610e14565b610f0d83610b34565b81526020830135602082015260408301356040820152610f2f60608401610b34565b606082015260808301356080820152610f4a60a08401610b34565b60a082015260c083013560c082015260e083013567ffffffffffffffff811115610f7357600080fd5b610f7f36828601610e3e565b60e08301525092915050565b60208152600073ffffffffffffffffffffffffffffffffffffffff808451166020840152602084015160408401526040840151606084015280606085015116608084015250608083015160a083015260a083015161100160c084018273ffffffffffffffffffffffffffffffffffffffff169052565b5060c083015160e083015260e08301516101008081850152506105d9610120840182610bef56fea26469706673582212204e15bd44f524a009ddb10dfab169b887e49170106f13f83c120155f154c3b9bc64736f6c63430008110033",
	"devdoc": {
		"kind": "dev",
		"methods": {
			"hashOf(uint256,address,uint256)": {
				"params": {
					"chainId": "The source chain id.",
					"channel": "The message channel.",
					"msgIndex": "The Message index."
				},
				"returns": {
					"_0": "Message hash in source chain."
				}
			},
			"importMessageHash(uint256,address,uint256,bytes32)": {
				"details": "Only could be called by owner.",
				"params": {
					"chainId": "The source chain id.",
					"channel": "The message channel.",
					"msgHash": "The source chain message hash corresponding to the channel.",
					"msgIndex": "The source chain message index."
				}
			},
			"verifyMessageProof((address,uint256,uint256,address,uint256,address,uint256,bytes),bytes)": {
				"details": "Message proof provided by relayer. Oracle should provide message root of      source chain, and verify the merkle proof of the message hash.",
				"params": {
					"message": "The message info.",
					"proof": "Proof of the message"
				},
				"returns": {
					"_0": "Result of the message verify."
				}
			}
		},
		"version": 1
	},
	"userdoc": {
		"kind": "user",
		"methods": {
			"hashOf(uint256,address,uint256)": {
				"notice": "Fetch message hash."
			},
			"verifyMessageProof((address,uint256,uint256,address,uint256,address,uint256,bytes),bytes)": {
				"notice": "Verify message proof"
			}
		},
		"version": 1
	},
	"gitCommit": "807d6120adeed84bf1790e1db91216103afcf64f",
	"sourceName": "lib/ORMP/src/eco/Oracle.sol",
	"chainId": "1",
	"linkReferences": {},
	"deployedLinkReferences": {},
	"history": [
		{
			"_format": "sphinx-sol-ct-artifact-1",
			"merkleRoot": "0x8ed8ae243a4823b490402b72a5a66bd6367651f42c7ca9d53351953dddb0461a",
			"contractName": "Oracle",
			"address": "0xBE01B76AB454aE2497aE43168b1F70C92Ac1C726",
			"abi": [
				{
					"type": "constructor",
					"inputs": [
						{
							"name": "dao",
							"type": "address",
							"internalType": "address"
						},
						{
							"name": "ormp",
							"type": "address",
							"internalType": "address"
						}
					],
					"stateMutability": "nonpayable"
				},
				{
					"type": "receive",
					"stateMutability": "payable"
				},
				{
					"type": "function",
					"name": "PROTOCOL",
					"inputs": [],
					"outputs": [
						{
							"name": "",
							"type": "address",
							"internalType": "address"
						}
					],
					"stateMutability": "view"
				},
				{
					"type": "function",
					"name": "approvedOf",
					"inputs": [
						{
							"name": "",
							"type": "address",
							"internalType": "address"
						}
					],
					"outputs": [
						{
							"name": "",
							"type": "bool",
							"internalType": "bool"
						}
					],
					"stateMutability": "view"
				},
				{
					"type": "function",
					"name": "changeOwner",
					"inputs": [
						{
							"name": "newOwner",
							"type": "address",
							"internalType": "address"
						}
					],
					"outputs": [],
					"stateMutability": "nonpayable"
				},
				{
					"type": "function",
					"name": "fee",
					"inputs": [
						{
							"name": "toChainId",
							"type": "uint256",
							"internalType": "uint256"
						},
						{
							"name": "",
							"type": "address",
							"internalType": "address"
						}
					],
					"outputs": [
						{
							"name": "",
							"type": "uint256",
							"internalType": "uint256"
						}
					],
					"stateMutability": "view"
				},
				{
					"type": "function",
					"name": "feeOf",
					"inputs": [
						{
							"name": "",
							"type": "uint256",
							"internalType": "uint256"
						}
					],
					"outputs": [
						{
							"name": "",
							"type": "uint256",
							"internalType": "uint256"
						}
					],
					"stateMutability": "view"
				},
				{
					"type": "function",
					"name": "hashOf",
					"inputs": [
						{
							"name": "chainId",
							"type": "uint256",
							"internalType": "uint256"
						},
						{
							"name": "channel",
							"type": "address",
							"internalType": "address"
						},
						{
							"name": "msgIndex",
							"type": "uint256",
							"internalType": "uint256"
						}
					],
					"outputs": [
						{
							"name": "",
							"type": "bytes32",
							"internalType": "bytes32"
						}
					],
					"stateMutability": "view"
				},
				{
					"type": "function",
					"name": "importMessageHash",
					"inputs": [
						{
							"name": "chainId",
							"type": "uint256",
							"internalType": "uint256"
						},
						{
							"name": "channel",
							"type": "address",
							"internalType": "address"
						},
						{
							"name": "msgIndex",
							"type": "uint256",
							"internalType": "uint256"
						},
						{
							"name": "msgHash",
							"type": "bytes32",
							"internalType": "bytes32"
						}
					],
					"outputs": [],
					"stateMutability": "nonpayable"
				},
				{
					"type": "function",
					"name": "isApproved",
					"inputs": [
						{
							"name": "operator",
							"type": "address",
							"internalType": "address"
						}
					],
					"outputs": [
						{
							"name": "",
							"type": "bool",
							"internalType": "bool"
						}
					],
					"stateMutability": "view"
				},
				{
					"type": "function",
					"name": "owner",
					"inputs": [],
					"outputs": [
						{
							"name": "",
							"type": "address",
							"internalType": "address"
						}
					],
					"stateMutability": "view"
				},
				{
					"type": "function",
					"name": "setApproved",
					"inputs": [
						{
							"name": "operator",
							"type": "address",
							"internalType": "address"
						},
						{
							"name": "approve",
							"type": "bool",
							"internalType": "bool"
						}
					],
					"outputs": [],
					"stateMutability": "nonpayable"
				},
				{
					"type": "function",
					"name": "setFee",
					"inputs": [
						{
							"name": "chainId",
							"type": "uint256",
							"internalType": "uint256"
						},
						{
							"name": "fee_",
							"type": "uint256",
							"internalType": "uint256"
						}
					],
					"outputs": [],
					"stateMutability": "nonpayable"
				},
				{
					"type": "function",
					"name": "verifyMessageProof",
					"inputs": [
						{
							"name": "message",
							"type": "tuple",
							"internalType": "struct Message",
							"components": [
								{
									"name": "channel",
									"type": "address",
									"internalType": "address"
								},
								{
									"name": "index",
									"type": "uint256",
									"internalType": "uint256"
								},
								{
									"name": "fromChainId",
									"type": "uint256",
									"internalType": "uint256"
								},
								{
									"name": "from",
									"type": "address",
									"internalType": "address"
								},
								{
									"name": "toChainId",
									"type": "uint256",
									"internalType": "uint256"
								},
								{
									"name": "to",
									"type": "address",
									"internalType": "address"
								},
								{
									"name": "gasLimit",
									"type": "uint256",
									"internalType": "uint256"
								},
								{
									"name": "encoded",
									"type": "bytes",
									"internalType": "bytes"
								}
							]
						},
						{
							"name": "",
							"type": "bytes",
							"internalType": "bytes"
						}
					],
					"outputs": [
						{
							"name": "",
							"type": "bool",
							"internalType": "bool"
						}
					],
					"stateMutability": "view"
				},
				{
					"type": "function",
					"name": "version",
					"inputs": [],
					"outputs": [
						{
							"name": "",
							"type": "string",
							"internalType": "string"
						}
					],
					"stateMutability": "pure"
				},
				{
					"type": "function",
					"name": "withdraw",
					"inputs": [
						{
							"name": "to",
							"type": "address",
							"internalType": "address"
						},
						{
							"name": "amount",
							"type": "uint256",
							"internalType": "uint256"
						}
					],
					"outputs": [],
					"stateMutability": "nonpayable"
				},
				{
					"type": "event",
					"name": "OwnershipTransferred",
					"inputs": [
						{
							"name": "previousOwner",
							"type": "address",
							"indexed": true,
							"internalType": "address"
						},
						{
							"name": "newOwner",
							"type": "address",
							"indexed": true,
							"internalType": "address"
						}
					],
					"anonymous": false
				},
				{
					"type": "event",
					"name": "SetApproved",
					"inputs": [
						{
							"name": "operator",
							"type": "address",
							"indexed": false,
							"internalType": "address"
						},
						{
							"name": "approve",
							"type": "bool",
							"indexed": false,
							"internalType": "bool"
						}
					],
					"anonymous": false
				},
				{
					"type": "event",
					"name": "SetFee",
					"inputs": [
						{
							"name": "chainId",
							"type": "uint256",
							"indexed": true,
							"internalType": "uint256"
						},
						{
							"name": "fee",
							"type": "uint256",
							"indexed": false,
							"internalType": "uint256"
						}
					],
					"anonymous": false
				},
				{
					"type": "event",
					"name": "Withdrawal",
					"inputs": [
						{
							"name": "to",
							"type": "address",
							"indexed": true,
							"internalType": "address"
						},
						{
							"name": "amt",
							"type": "uint256",
							"indexed": false,
							"internalType": "uint256"
						}
					],
					"anonymous": false
				}
			],
			"solcInputHash": "bd281d871188d23306cfa03337a3378b",
			"receipt": {
				"blockHash": "0x0be50e447852056243cf44dca69bc9feffc5bccc811ceb81931f3a38613af483",
				"blockNumber": 20009590,
				"contractAddress": null,
				"cumulativeGasUsed": "26178486",
				"from": "0xD70A2e6eACbdeDA77a5d4bBAE3bC70239A0e088f",
				"gasPrice": "11385638197",
				"gasUsed": "6820262",
				"hash": "0x49851f61e7ae0f0a504fc25b8d4816b5bad8565c705d0353be72ecd08307ba3f",
				"index": 199,
				"logs": [
					{
						"address": "0x7e16116661CA8d66C73612382833153911Fa03B1",
						"blockHash": "0x0be50e447852056243cf44dca69bc9feffc5bccc811ceb81931f3a38613af483",
						"blockNumber": 20009590,
						"data": "0x0000000000000000000000000000000000000000000000000000000000000000",
						"index": 590,
						"topics": [
							"0x572f161235911da04685a68c06adf558fc7e4a36909dca394650e0adc19cc93d",
							"0x000000000000000000000000d70a2e6eacbdeda77a5d4bbae3bc70239a0e088f",
							"0x0000000000000000000000003d75d338b4711f8a33d293a2008f07a712513402",
							"0xc7a516774dfd806e8b8befe0ea54c4c3728826f0ba14d5f96a17823dbacbd730"
						],
						"transactionHash": "0x49851f61e7ae0f0a504fc25b8d4816b5bad8565c705d0353be72ecd08307ba3f",
						"transactionIndex": 199
					},
					{
						"address": "0x040f331774Ed6BB161412B4cEDb1358B382aF3A5",
						"blockHash": "0x0be50e447852056243cf44dca69bc9feffc5bccc811ceb81931f3a38613af483",
						"blockNumber": 20009590,
						"data": "0x",
						"index": 591,
						"topics": [
							"0x6895c13664aa4f67288b25d7a21d7aaa34916e355fb9b6fae0a139a9085becb8",
							"0x0000000000000000000000003d75d338b4711f8a33d293a2008f07a712513402"
						],
						"transactionHash": "0x49851f61e7ae0f0a504fc25b8d4816b5bad8565c705d0353be72ecd08307ba3f",
						"transactionIndex": 199
					},
					{
						"address": "0x3D75d338B4711F8a33d293a2008f07a712513402",
						"blockHash": "0x0be50e447852056243cf44dca69bc9feffc5bccc811ceb81931f3a38613af483",
						"blockNumber": 20009590,
						"data": "0x0000000000000000000000000000000000000000000000000000000000000001",
						"index": 592,
						"topics": [
							"0xa65fb05c5808f5f389d72edeaf719ce38f4cc55c1f69ca3cbfb31c21501caa07",
							"0x8ed8ae243a4823b490402b72a5a66bd6367651f42c7ca9d53351953dddb0461a"
						],
						"transactionHash": "0x49851f61e7ae0f0a504fc25b8d4816b5bad8565c705d0353be72ecd08307ba3f",
						"transactionIndex": 199
					},
					{
						"address": "0x040f331774Ed6BB161412B4cEDb1358B382aF3A5",
						"blockHash": "0x0be50e447852056243cf44dca69bc9feffc5bccc811ceb81931f3a38613af483",
						"blockNumber": 20009590,
						"data": "0x",
						"index": 593,
						"topics": [
							"0x6895c13664aa4f67288b25d7a21d7aaa34916e355fb9b6fae0a139a9085becb8",
							"0x0000000000000000000000003d75d338b4711f8a33d293a2008f07a712513402"
						],
						"transactionHash": "0x49851f61e7ae0f0a504fc25b8d4816b5bad8565c705d0353be72ecd08307ba3f",
						"transactionIndex": 199
					},
					{
						"address": "0x3D75d338B4711F8a33d293a2008f07a712513402",
						"blockHash": "0x0be50e447852056243cf44dca69bc9feffc5bccc811ceb81931f3a38613af483",
						"blockNumber": 20009590,
						"data": "0x0000000000000000000000000000000000000000000000000000000000000002",
						"index": 594,
						"topics": [
							"0xa65fb05c5808f5f389d72edeaf719ce38f4cc55c1f69ca3cbfb31c21501caa07",
							"0x8ed8ae243a4823b490402b72a5a66bd6367651f42c7ca9d53351953dddb0461a"
						],
						"transactionHash": "0x49851f61e7ae0f0a504fc25b8d4816b5bad8565c705d0353be72ecd08307ba3f",
						"transactionIndex": 199
					},
					{
						"address": "0x040f331774Ed6BB161412B4cEDb1358B382aF3A5",
						"blockHash": "0x0be50e447852056243cf44dca69bc9feffc5bccc811ceb81931f3a38613af483",
						"blockNumber": 20009590,
						"data": "0x",
						"index": 595,
						"topics": [
							"0x6895c13664aa4f67288b25d7a21d7aaa34916e355fb9b6fae0a139a9085becb8",
							"0x0000000000000000000000003d75d338b4711f8a33d293a2008f07a712513402"
						],
						"transactionHash": "0x49851f61e7ae0f0a504fc25b8d4816b5bad8565c705d0353be72ecd08307ba3f",
						"transactionIndex": 199
					},
					{
						"address": "0x3D75d338B4711F8a33d293a2008f07a712513402",
						"blockHash": "0x0be50e447852056243cf44dca69bc9feffc5bccc811ceb81931f3a38613af483",
						"blockNumber": 20009590,
						"data": "0x0000000000000000000000000000000000000000000000000000000000000003",
						"index": 596,
						"topics": [
							"0xa65fb05c5808f5f389d72edeaf719ce38f4cc55c1f69ca3cbfb31c21501caa07",
							"0x8ed8ae243a4823b490402b72a5a66bd6367651f42c7ca9d53351953dddb0461a"
						],
						"transactionHash": "0x49851f61e7ae0f0a504fc25b8d4816b5bad8565c705d0353be72ecd08307ba3f",
						"transactionIndex": 199
					},
					{
						"address": "0x2cd1867Fb8016f93710B6386f7f9F1D540A60812",
						"blockHash": "0x0be50e447852056243cf44dca69bc9feffc5bccc811ceb81931f3a38613af483",
						"blockNumber": 20009590,
						"data": "0x",
						"index": 597,
						"topics": [
							"0x8be0079c531659141344cd1fd0a4f28419497f9722a3daafe3b4186f6b6457e0",
							"0x0000000000000000000000000000000000000000000000000000000000000000",
							"0x0000000000000000000000004e59b44847b379578588920ca78fbf26c0b4956c"
						],
						"transactionHash": "0x49851f61e7ae0f0a504fc25b8d4816b5bad8565c705d0353be72ecd08307ba3f",
						"transactionIndex": 199
					},
					{
						"address": "0x2cd1867Fb8016f93710B6386f7f9F1D540A60812",
						"blockHash": "0x0be50e447852056243cf44dca69bc9feffc5bccc811ceb81931f3a38613af483",
						"blockNumber": 20009590,
						"data": "0x",
						"index": 598,
						"topics": [
							"0x8be0079c531659141344cd1fd0a4f28419497f9722a3daafe3b4186f6b6457e0",
							"0x0000000000000000000000004e59b44847b379578588920ca78fbf26c0b4956c",
							"0x000000000000000000000000040f331774ed6bb161412b4cedb1358b382af3a5"
						],
						"transactionHash": "0x49851f61e7ae0f0a504fc25b8d4816b5bad8565c705d0353be72ecd08307ba3f",
						"transactionIndex": 199
					},
					{
						"address": "0x040f331774Ed6BB161412B4cEDb1358B382aF3A5",
						"blockHash": "0x0be50e447852056243cf44dca69bc9feffc5bccc811ceb81931f3a38613af483",
						"blockNumber": 20009590,
						"data": "0x",
						"index": 599,
						"topics": [
							"0x6895c13664aa4f67288b25d7a21d7aaa34916e355fb9b6fae0a139a9085becb8",
							"0x0000000000000000000000003d75d338b4711f8a33d293a2008f07a712513402"
						],
						"transactionHash": "0x49851f61e7ae0f0a504fc25b8d4816b5bad8565c705d0353be72ecd08307ba3f",
						"transactionIndex": 199
					},
					{
						"address": "0x3D75d338B4711F8a33d293a2008f07a712513402",
						"blockHash": "0x0be50e447852056243cf44dca69bc9feffc5bccc811ceb81931f3a38613af483",
						"blockNumber": 20009590,
						"data": "0x0000000000000000000000000000000000000000000000000000000000000004",
						"index": 600,
						"topics": [
							"0xa65fb05c5808f5f389d72edeaf719ce38f4cc55c1f69ca3cbfb31c21501caa07",
							"0x8ed8ae243a4823b490402b72a5a66bd6367651f42c7ca9d53351953dddb0461a"
						],
						"transactionHash": "0x49851f61e7ae0f0a504fc25b8d4816b5bad8565c705d0353be72ecd08307ba3f",
						"transactionIndex": 199
					},
					{
						"address": "0xBE01B76AB454aE2497aE43168b1F70C92Ac1C726",
						"blockHash": "0x0be50e447852056243cf44dca69bc9feffc5bccc811ceb81931f3a38613af483",
						"blockNumber": 20009590,
						"data": "0x000000000000000000000000040f331774ed6bb161412b4cedb1358b382af3a50000000000000000000000000000000000000000000000000000000000000001",
						"index": 601,
						"topics": [
							"0xd984ea421ae5d2a473199f85e03998a04a12f54d6f1fa183a955b3df1c0c546d"
						],
						"transactionHash": "0x49851f61e7ae0f0a504fc25b8d4816b5bad8565c705d0353be72ecd08307ba3f",
						"transactionIndex": 199
					},
					{
						"address": "0x040f331774Ed6BB161412B4cEDb1358B382aF3A5",
						"blockHash": "0x0be50e447852056243cf44dca69bc9feffc5bccc811ceb81931f3a38613af483",
						"blockNumber": 20009590,
						"data": "0x",
						"index": 602,
						"topics": [
							"0x6895c13664aa4f67288b25d7a21d7aaa34916e355fb9b6fae0a139a9085becb8",
							"0x0000000000000000000000003d75d338b4711f8a33d293a2008f07a712513402"
						],
						"transactionHash": "0x49851f61e7ae0f0a504fc25b8d4816b5bad8565c705d0353be72ecd08307ba3f",
						"transactionIndex": 199
					},
					{
						"address": "0x3D75d338B4711F8a33d293a2008f07a712513402",
						"blockHash": "0x0be50e447852056243cf44dca69bc9feffc5bccc811ceb81931f3a38613af483",
						"blockNumber": 20009590,
						"data": "0x0000000000000000000000000000000000000000000000000000000000000005",
						"index": 603,
						"topics": [
							"0xa65fb05c5808f5f389d72edeaf719ce38f4cc55c1f69ca3cbfb31c21501caa07",
							"0x8ed8ae243a4823b490402b72a5a66bd6367651f42c7ca9d53351953dddb0461a"
						],
						"transactionHash": "0x49851f61e7ae0f0a504fc25b8d4816b5bad8565c705d0353be72ecd08307ba3f",
						"transactionIndex": 199
					},
					{
						"address": "0xBE01B76AB454aE2497aE43168b1F70C92Ac1C726",
						"blockHash": "0x0be50e447852056243cf44dca69bc9feffc5bccc811ceb81931f3a38613af483",
						"blockNumber": 20009590,
						"data": "0x0000000000000000000000000f14341a7f464320319025540e8fe48ad0fe5aec0000000000000000000000000000000000000000000000000000000000000001",
						"index": 604,
						"topics": [
							"0xd984ea421ae5d2a473199f85e03998a04a12f54d6f1fa183a955b3df1c0c546d"
						],
						"transactionHash": "0x49851f61e7ae0f0a504fc25b8d4816b5bad8565c705d0353be72ecd08307ba3f",
						"transactionIndex": 199
					},
					{
						"address": "0x040f331774Ed6BB161412B4cEDb1358B382aF3A5",
						"blockHash": "0x0be50e447852056243cf44dca69bc9feffc5bccc811ceb81931f3a38613af483",
						"blockNumber": 20009590,
						"data": "0x",
						"index": 605,
						"topics": [
							"0x6895c13664aa4f67288b25d7a21d7aaa34916e355fb9b6fae0a139a9085becb8",
							"0x0000000000000000000000003d75d338b4711f8a33d293a2008f07a712513402"
						],
						"transactionHash": "0x49851f61e7ae0f0a504fc25b8d4816b5bad8565c705d0353be72ecd08307ba3f",
						"transactionIndex": 199
					},
					{
						"address": "0x3D75d338B4711F8a33d293a2008f07a712513402",
						"blockHash": "0x0be50e447852056243cf44dca69bc9feffc5bccc811ceb81931f3a38613af483",
						"blockNumber": 20009590,
						"data": "0x0000000000000000000000000000000000000000000000000000000000000006",
						"index": 606,
						"topics": [
							"0xa65fb05c5808f5f389d72edeaf719ce38f4cc55c1f69ca3cbfb31c21501caa07",
							"0x8ed8ae243a4823b490402b72a5a66bd6367651f42c7ca9d53351953dddb0461a"
						],
						"transactionHash": "0x49851f61e7ae0f0a504fc25b8d4816b5bad8565c705d0353be72ecd08307ba3f",
						"transactionIndex": 199
					},
					{
						"address": "0xBE01B76AB454aE2497aE43168b1F70C92Ac1C726",
						"blockHash": "0x0be50e447852056243cf44dca69bc9feffc5bccc811ceb81931f3a38613af483",
						"blockNumber": 20009590,
						"data": "0x000000000000000000000000178e699c9a6bb2cd624557fbd85ed219e6faba770000000000000000000000000000000000000000000000000000000000000001",
						"index": 607,
						"topics": [
							"0xd984ea421ae5d2a473199f85e03998a04a12f54d6f1fa183a955b3df1c0c546d"
						],
						"transactionHash": "0x49851f61e7ae0f0a504fc25b8d4816b5bad8565c705d0353be72ecd08307ba3f",
						"transactionIndex": 199
					},
					{
						"address": "0x040f331774Ed6BB161412B4cEDb1358B382aF3A5",
						"blockHash": "0x0be50e447852056243cf44dca69bc9feffc5bccc811ceb81931f3a38613af483",
						"blockNumber": 20009590,
						"data": "0x",
						"index": 608,
						"topics": [
							"0x6895c13664aa4f67288b25d7a21d7aaa34916e355fb9b6fae0a139a9085becb8",
							"0x0000000000000000000000003d75d338b4711f8a33d293a2008f07a712513402"
						],
						"transactionHash": "0x49851f61e7ae0f0a504fc25b8d4816b5bad8565c705d0353be72ecd08307ba3f",
						"transactionIndex": 199
					},
					{
						"address": "0x3D75d338B4711F8a33d293a2008f07a712513402",
						"blockHash": "0x0be50e447852056243cf44dca69bc9feffc5bccc811ceb81931f3a38613af483",
						"blockNumber": 20009590,
						"data": "0x0000000000000000000000000000000000000000000000000000000000000007",
						"index": 609,
						"topics": [
							"0xa65fb05c5808f5f389d72edeaf719ce38f4cc55c1f69ca3cbfb31c21501caa07",
							"0x8ed8ae243a4823b490402b72a5a66bd6367651f42c7ca9d53351953dddb0461a"
						],
						"transactionHash": "0x49851f61e7ae0f0a504fc25b8d4816b5bad8565c705d0353be72ecd08307ba3f",
						"transactionIndex": 199
					},
					{
						"address": "0xBE01B76AB454aE2497aE43168b1F70C92Ac1C726",
						"blockHash": "0x0be50e447852056243cf44dca69bc9feffc5bccc811ceb81931f3a38613af483",
						"blockNumber": 20009590,
						"data": "0x",
						"index": 610,
						"topics": [
							"0x8be0079c531659141344cd1fd0a4f28419497f9722a3daafe3b4186f6b6457e0",
							"0x000000000000000000000000040f331774ed6bb161412b4cedb1358b382af3a5",
							"0x00000000000000000000000022117db68370590c1031f52a6d1ade3dce0ccf9a"
						],
						"transactionHash": "0x49851f61e7ae0f0a504fc25b8d4816b5bad8565c705d0353be72ecd08307ba3f",
						"transactionIndex": 199
					},
					{
						"address": "0x040f331774Ed6BB161412B4cEDb1358B382aF3A5",
						"blockHash": "0x0be50e447852056243cf44dca69bc9feffc5bccc811ceb81931f3a38613af483",
						"blockNumber": 20009590,
						"data": "0x",
						"index": 611,
						"topics": [
							"0x6895c13664aa4f67288b25d7a21d7aaa34916e355fb9b6fae0a139a9085becb8",
							"0x0000000000000000000000003d75d338b4711f8a33d293a2008f07a712513402"
						],
						"transactionHash": "0x49851f61e7ae0f0a504fc25b8d4816b5bad8565c705d0353be72ecd08307ba3f",
						"transactionIndex": 199
					},
					{
						"address": "0x3D75d338B4711F8a33d293a2008f07a712513402",
						"blockHash": "0x0be50e447852056243cf44dca69bc9feffc5bccc811ceb81931f3a38613af483",
						"blockNumber": 20009590,
						"data": "0x0000000000000000000000000000000000000000000000000000000000000008",
						"index": 612,
						"topics": [
							"0xa65fb05c5808f5f389d72edeaf719ce38f4cc55c1f69ca3cbfb31c21501caa07",
							"0x8ed8ae243a4823b490402b72a5a66bd6367651f42c7ca9d53351953dddb0461a"
						],
						"transactionHash": "0x49851f61e7ae0f0a504fc25b8d4816b5bad8565c705d0353be72ecd08307ba3f",
						"transactionIndex": 199
					},
					{
						"address": "0x114890eB7386F94eae410186F20968bFAf66142a",
						"blockHash": "0x0be50e447852056243cf44dca69bc9feffc5bccc811ceb81931f3a38613af483",
						"blockNumber": 20009590,
						"data": "0x000000000000000000000000040f331774ed6bb161412b4cedb1358b382af3a50000000000000000000000000000000000000000000000000000000000000001",
						"index": 613,
						"topics": [
							"0xd984ea421ae5d2a473199f85e03998a04a12f54d6f1fa183a955b3df1c0c546d"
						],
						"transactionHash": "0x49851f61e7ae0f0a504fc25b8d4816b5bad8565c705d0353be72ecd08307ba3f",
						"transactionIndex": 199
					},
					{
						"address": "0x040f331774Ed6BB161412B4cEDb1358B382aF3A5",
						"blockHash": "0x0be50e447852056243cf44dca69bc9feffc5bccc811ceb81931f3a38613af483",
						"blockNumber": 20009590,
						"data": "0x",
						"index": 614,
						"topics": [
							"0x6895c13664aa4f67288b25d7a21d7aaa34916e355fb9b6fae0a139a9085becb8",
							"0x0000000000000000000000003d75d338b4711f8a33d293a2008f07a712513402"
						],
						"transactionHash": "0x49851f61e7ae0f0a504fc25b8d4816b5bad8565c705d0353be72ecd08307ba3f",
						"transactionIndex": 199
					},
					{
						"address": "0x3D75d338B4711F8a33d293a2008f07a712513402",
						"blockHash": "0x0be50e447852056243cf44dca69bc9feffc5bccc811ceb81931f3a38613af483",
						"blockNumber": 20009590,
						"data": "0x0000000000000000000000000000000000000000000000000000000000000009",
						"index": 615,
						"topics": [
							"0xa65fb05c5808f5f389d72edeaf719ce38f4cc55c1f69ca3cbfb31c21501caa07",
							"0x8ed8ae243a4823b490402b72a5a66bd6367651f42c7ca9d53351953dddb0461a"
						],
						"transactionHash": "0x49851f61e7ae0f0a504fc25b8d4816b5bad8565c705d0353be72ecd08307ba3f",
						"transactionIndex": 199
					},
					{
						"address": "0x114890eB7386F94eae410186F20968bFAf66142a",
						"blockHash": "0x0be50e447852056243cf44dca69bc9feffc5bccc811ceb81931f3a38613af483",
						"blockNumber": 20009590,
						"data": "0x0000000000000000000000000f14341a7f464320319025540e8fe48ad0fe5aec0000000000000000000000000000000000000000000000000000000000000001",
						"index": 616,
						"topics": [
							"0xd984ea421ae5d2a473199f85e03998a04a12f54d6f1fa183a955b3df1c0c546d"
						],
						"transactionHash": "0x49851f61e7ae0f0a504fc25b8d4816b5bad8565c705d0353be72ecd08307ba3f",
						"transactionIndex": 199
					},
					{
						"address": "0x040f331774Ed6BB161412B4cEDb1358B382aF3A5",
						"blockHash": "0x0be50e447852056243cf44dca69bc9feffc5bccc811ceb81931f3a38613af483",
						"blockNumber": 20009590,
						"data": "0x",
						"index": 617,
						"topics": [
							"0x6895c13664aa4f67288b25d7a21d7aaa34916e355fb9b6fae0a139a9085becb8",
							"0x0000000000000000000000003d75d338b4711f8a33d293a2008f07a712513402"
						],
						"transactionHash": "0x49851f61e7ae0f0a504fc25b8d4816b5bad8565c705d0353be72ecd08307ba3f",
						"transactionIndex": 199
					},
					{
						"address": "0x3D75d338B4711F8a33d293a2008f07a712513402",
						"blockHash": "0x0be50e447852056243cf44dca69bc9feffc5bccc811ceb81931f3a38613af483",
						"blockNumber": 20009590,
						"data": "0x000000000000000000000000000000000000000000000000000000000000000a",
						"index": 618,
						"topics": [
							"0xa65fb05c5808f5f389d72edeaf719ce38f4cc55c1f69ca3cbfb31c21501caa07",
							"0x8ed8ae243a4823b490402b72a5a66bd6367651f42c7ca9d53351953dddb0461a"
						],
						"transactionHash": "0x49851f61e7ae0f0a504fc25b8d4816b5bad8565c705d0353be72ecd08307ba3f",
						"transactionIndex": 199
					},
					{
						"address": "0x114890eB7386F94eae410186F20968bFAf66142a",
						"blockHash": "0x0be50e447852056243cf44dca69bc9feffc5bccc811ceb81931f3a38613af483",
						"blockNumber": 20009590,
						"data": "0x000000000000000000000000912d7601569cbc2df8a7f0aae50bfd18e8c64d050000000000000000000000000000000000000000000000000000000000000001",
						"index": 619,
						"topics": [
							"0xd984ea421ae5d2a473199f85e03998a04a12f54d6f1fa183a955b3df1c0c546d"
						],
						"transactionHash": "0x49851f61e7ae0f0a504fc25b8d4816b5bad8565c705d0353be72ecd08307ba3f",
						"transactionIndex": 199
					},
					{
						"address": "0x040f331774Ed6BB161412B4cEDb1358B382aF3A5",
						"blockHash": "0x0be50e447852056243cf44dca69bc9feffc5bccc811ceb81931f3a38613af483",
						"blockNumber": 20009590,
						"data": "0x",
						"index": 620,
						"topics": [
							"0x6895c13664aa4f67288b25d7a21d7aaa34916e355fb9b6fae0a139a9085becb8",
							"0x0000000000000000000000003d75d338b4711f8a33d293a2008f07a712513402"
						],
						"transactionHash": "0x49851f61e7ae0f0a504fc25b8d4816b5bad8565c705d0353be72ecd08307ba3f",
						"transactionIndex": 199
					},
					{
						"address": "0x3D75d338B4711F8a33d293a2008f07a712513402",
						"blockHash": "0x0be50e447852056243cf44dca69bc9feffc5bccc811ceb81931f3a38613af483",
						"blockNumber": 20009590,
						"data": "0x000000000000000000000000000000000000000000000000000000000000000b",
						"index": 621,
						"topics": [
							"0xa65fb05c5808f5f389d72edeaf719ce38f4cc55c1f69ca3cbfb31c21501caa07",
							"0x8ed8ae243a4823b490402b72a5a66bd6367651f42c7ca9d53351953dddb0461a"
						],
						"transactionHash": "0x49851f61e7ae0f0a504fc25b8d4816b5bad8565c705d0353be72ecd08307ba3f",
						"transactionIndex": 199
					},
					{
						"address": "0x114890eB7386F94eae410186F20968bFAf66142a",
						"blockHash": "0x0be50e447852056243cf44dca69bc9feffc5bccc811ceb81931f3a38613af483",
						"blockNumber": 20009590,
						"data": "0x0000000000000000000000009f33a4809aa708d7a399fedba514e0a0d15efa850000000000000000000000000000000000000000000000000000000000000001",
						"index": 622,
						"topics": [
							"0xd984ea421ae5d2a473199f85e03998a04a12f54d6f1fa183a955b3df1c0c546d"
						],
						"transactionHash": "0x49851f61e7ae0f0a504fc25b8d4816b5bad8565c705d0353be72ecd08307ba3f",
						"transactionIndex": 199
					},
					{
						"address": "0x040f331774Ed6BB161412B4cEDb1358B382aF3A5",
						"blockHash": "0x0be50e447852056243cf44dca69bc9feffc5bccc811ceb81931f3a38613af483",
						"blockNumber": 20009590,
						"data": "0x",
						"index": 623,
						"topics": [
							"0x6895c13664aa4f67288b25d7a21d7aaa34916e355fb9b6fae0a139a9085becb8",
							"0x0000000000000000000000003d75d338b4711f8a33d293a2008f07a712513402"
						],
						"transactionHash": "0x49851f61e7ae0f0a504fc25b8d4816b5bad8565c705d0353be72ecd08307ba3f",
						"transactionIndex": 199
					},
					{
						"address": "0x3D75d338B4711F8a33d293a2008f07a712513402",
						"blockHash": "0x0be50e447852056243cf44dca69bc9feffc5bccc811ceb81931f3a38613af483",
						"blockNumber": 20009590,
						"data": "0x000000000000000000000000000000000000000000000000000000000000000c",
						"index": 624,
						"topics": [
							"0xa65fb05c5808f5f389d72edeaf719ce38f4cc55c1f69ca3cbfb31c21501caa07",
							"0x8ed8ae243a4823b490402b72a5a66bd6367651f42c7ca9d53351953dddb0461a"
						],
						"transactionHash": "0x49851f61e7ae0f0a504fc25b8d4816b5bad8565c705d0353be72ecd08307ba3f",
						"transactionIndex": 199
					},
					{
						"address": "0x13b2211a7cA45Db2808F6dB05557ce5347e3634e",
						"blockHash": "0x0be50e447852056243cf44dca69bc9feffc5bccc811ceb81931f3a38613af483",
						"blockNumber": 20009590,
						"data": "0x000000000000000000000000be01b76ab454ae2497ae43168b1f70c92ac1c726000000000000000000000000114890eb7386f94eae410186f20968bfaf66142a",
						"index": 625,
						"topics": [
							"0x504f152883e6158786ddfcce63f4d4d95ce8e404b1f6e6365a06f63849b7cb95"
						],
						"transactionHash": "0x49851f61e7ae0f0a504fc25b8d4816b5bad8565c705d0353be72ecd08307ba3f",
						"transactionIndex": 199
					},
					{
						"address": "0x040f331774Ed6BB161412B4cEDb1358B382aF3A5",
						"blockHash": "0x0be50e447852056243cf44dca69bc9feffc5bccc811ceb81931f3a38613af483",
						"blockNumber": 20009590,
						"data": "0x",
						"index": 626,
						"topics": [
							"0x6895c13664aa4f67288b25d7a21d7aaa34916e355fb9b6fae0a139a9085becb8",
							"0x0000000000000000000000003d75d338b4711f8a33d293a2008f07a712513402"
						],
						"transactionHash": "0x49851f61e7ae0f0a504fc25b8d4816b5bad8565c705d0353be72ecd08307ba3f",
						"transactionIndex": 199
					},
					{
						"address": "0x3D75d338B4711F8a33d293a2008f07a712513402",
						"blockHash": "0x0be50e447852056243cf44dca69bc9feffc5bccc811ceb81931f3a38613af483",
						"blockNumber": 20009590,
						"data": "0x000000000000000000000000000000000000000000000000000000000000000d",
						"index": 627,
						"topics": [
							"0xa65fb05c5808f5f389d72edeaf719ce38f4cc55c1f69ca3cbfb31c21501caa07",
							"0x8ed8ae243a4823b490402b72a5a66bd6367651f42c7ca9d53351953dddb0461a"
						],
						"transactionHash": "0x49851f61e7ae0f0a504fc25b8d4816b5bad8565c705d0353be72ecd08307ba3f",
						"transactionIndex": 199
					},
					{
						"address": "0x2cd1867Fb8016f93710B6386f7f9F1D540A60812",
						"blockHash": "0x0be50e447852056243cf44dca69bc9feffc5bccc811ceb81931f3a38613af483",
						"blockNumber": 20009590,
						"data": "0x00000000000000000000000000000000000000000000000000000000000000200000000000000000000000000000000000000000000000000000000000000042697066733a2f2f62616679626569646d66723335376f75686772337a7775706b6c3636756e7a696366366b6b69657334626b71366676356c6d7a35727476726b3565000000000000000000000000000000000000000000000000000000000000",
						"index": 628,
						"topics": [
							"0x3d7a9962f6da134f6896430d6867bd08e3546dbf9570df877e7cec39ba4305f0"
						],
						"transactionHash": "0x49851f61e7ae0f0a504fc25b8d4816b5bad8565c705d0353be72ecd08307ba3f",
						"transactionIndex": 199
					},
					{
						"address": "0x040f331774Ed6BB161412B4cEDb1358B382aF3A5",
						"blockHash": "0x0be50e447852056243cf44dca69bc9feffc5bccc811ceb81931f3a38613af483",
						"blockNumber": 20009590,
						"data": "0x",
						"index": 629,
						"topics": [
							"0x6895c13664aa4f67288b25d7a21d7aaa34916e355fb9b6fae0a139a9085becb8",
							"0x0000000000000000000000003d75d338b4711f8a33d293a2008f07a712513402"
						],
						"transactionHash": "0x49851f61e7ae0f0a504fc25b8d4816b5bad8565c705d0353be72ecd08307ba3f",
						"transactionIndex": 199
					},
					{
						"address": "0x3D75d338B4711F8a33d293a2008f07a712513402",
						"blockHash": "0x0be50e447852056243cf44dca69bc9feffc5bccc811ceb81931f3a38613af483",
						"blockNumber": 20009590,
						"data": "0x000000000000000000000000000000000000000000000000000000000000000e",
						"index": 630,
						"topics": [
							"0xa65fb05c5808f5f389d72edeaf719ce38f4cc55c1f69ca3cbfb31c21501caa07",
							"0x8ed8ae243a4823b490402b72a5a66bd6367651f42c7ca9d53351953dddb0461a"
						],
						"transactionHash": "0x49851f61e7ae0f0a504fc25b8d4816b5bad8565c705d0353be72ecd08307ba3f",
						"transactionIndex": 199
					},
					{
						"address": "0x3D75d338B4711F8a33d293a2008f07a712513402",
						"blockHash": "0x0be50e447852056243cf44dca69bc9feffc5bccc811ceb81931f3a38613af483",
						"blockNumber": 20009590,
						"data": "0x",
						"index": 631,
						"topics": [
							"0x4383d976757d67ca920616be0b6430a681ea9d3dcce8d6d61d4603ca4a9bff63",
							"0x8ed8ae243a4823b490402b72a5a66bd6367651f42c7ca9d53351953dddb0461a"
						],
						"transactionHash": "0x49851f61e7ae0f0a504fc25b8d4816b5bad8565c705d0353be72ecd08307ba3f",
						"transactionIndex": 199
					}
				],
				"logsBloom": "0x0400000000001000000000000008000000000000012000000080000000000400000000000010000000000000004200000010000000000020004000000000000000000000080020020004000000040000000100000100000000000000000900008000400002000040200002001000080400000000000000000000000000080040000000c100004000000100000000000000001000001000000000100000000004004100800009000000080000000040000200000000000000000000001004001000020001000000000001000000000000000000000000000800000000000020000100000000000008000008000a00000280000000000080000000000008100080",
				"status": 1,
				"to": "0x7e16116661CA8d66C73612382833153911Fa03B1"
			},
			"metadata": "{\"compiler\":{\"version\":\"0.8.17+commit.8df45f5f\"},\"language\":\"Solidity\",\"output\":{\"abi\":[{\"inputs\":[{\"internalType\":\"address\",\"name\":\"dao\",\"type\":\"address\"},{\"internalType\":\"address\",\"name\":\"ormp\",\"type\":\"address\"}],\"stateMutability\":\"nonpayable\",\"type\":\"constructor\"},{\"inputs\":[{\"internalType\":\"address\",\"name\":\"previousOwner\",\"type\":\"address\",\"indexed\":true},{\"internalType\":\"address\",\"name\":\"newOwner\",\"type\":\"address\",\"indexed\":true}],\"type\":\"event\",\"name\":\"OwnershipTransferred\",\"anonymous\":false},{\"inputs\":[{\"internalType\":\"address\",\"name\":\"operator\",\"type\":\"address\",\"indexed\":false},{\"internalType\":\"bool\",\"name\":\"approve\",\"type\":\"bool\",\"indexed\":false}],\"type\":\"event\",\"name\":\"SetApproved\",\"anonymous\":false},{\"inputs\":[{\"internalType\":\"uint256\",\"name\":\"chainId\",\"type\":\"uint256\",\"indexed\":true},{\"internalType\":\"uint256\",\"name\":\"fee\",\"type\":\"uint256\",\"indexed\":false}],\"type\":\"event\",\"name\":\"SetFee\",\"anonymous\":false},{\"inputs\":[{\"internalType\":\"address\",\"name\":\"to\",\"type\":\"address\",\"indexed\":true},{\"internalType\":\"uint256\",\"name\":\"amt\",\"type\":\"uint256\",\"indexed\":false}],\"type\":\"event\",\"name\":\"Withdrawal\",\"anonymous\":false},{\"inputs\":[],\"stateMutability\":\"view\",\"type\":\"function\",\"name\":\"PROTOCOL\",\"outputs\":[{\"internalType\":\"address\",\"name\":\"\",\"type\":\"address\"}]},{\"inputs\":[{\"internalType\":\"address\",\"name\":\"\",\"type\":\"address\"}],\"stateMutability\":\"view\",\"type\":\"function\",\"name\":\"approvedOf\",\"outputs\":[{\"internalType\":\"bool\",\"name\":\"\",\"type\":\"bool\"}]},{\"inputs\":[{\"internalType\":\"address\",\"name\":\"newOwner\",\"type\":\"address\"}],\"stateMutability\":\"nonpayable\",\"type\":\"function\",\"name\":\"changeOwner\"},{\"inputs\":[{\"internalType\":\"uint256\",\"name\":\"toChainId\",\"type\":\"uint256\"},{\"internalType\":\"address\",\"name\":\"\",\"type\":\"address\"}],\"stateMutability\":\"view\",\"type\":\"function\",\"name\":\"fee\",\"outputs\":[{\"internalType\":\"uint256\",\"name\":\"\",\"type\":\"uint256\"}]},{\"inputs\":[{\"internalType\":\"uint256\",\"name\":\"\",\"type\":\"uint256\"}],\"stateMutability\":\"view\",\"type\":\"function\",\"name\":\"feeOf\",\"outputs\":[{\"internalType\":\"uint256\",\"name\":\"\",\"type\":\"uint256\"}]},{\"inputs\":[{\"internalType\":\"uint256\",\"name\":\"chainId\",\"type\":\"uint256\"},{\"internalType\":\"address\",\"name\":\"channel\",\"type\":\"address\"},{\"internalType\":\"uint256\",\"name\":\"msgIndex\",\"type\":\"uint256\"}],\"stateMutability\":\"view\",\"type\":\"function\",\"name\":\"hashOf\",\"outputs\":[{\"internalType\":\"bytes32\",\"name\":\"\",\"type\":\"bytes32\"}]},{\"inputs\":[{\"internalType\":\"uint256\",\"name\":\"chainId\",\"type\":\"uint256\"},{\"internalType\":\"address\",\"name\":\"channel\",\"type\":\"address\"},{\"internalType\":\"uint256\",\"name\":\"msgIndex\",\"type\":\"uint256\"},{\"internalType\":\"bytes32\",\"name\":\"msgHash\",\"type\":\"bytes32\"}],\"stateMutability\":\"nonpayable\",\"type\":\"function\",\"name\":\"importMessageHash\"},{\"inputs\":[{\"internalType\":\"address\",\"name\":\"operator\",\"type\":\"address\"}],\"stateMutability\":\"view\",\"type\":\"function\",\"name\":\"isApproved\",\"outputs\":[{\"internalType\":\"bool\",\"name\":\"\",\"type\":\"bool\"}]},{\"inputs\":[],\"stateMutability\":\"view\",\"type\":\"function\",\"name\":\"owner\",\"outputs\":[{\"internalType\":\"address\",\"name\":\"\",\"type\":\"address\"}]},{\"inputs\":[{\"internalType\":\"address\",\"name\":\"operator\",\"type\":\"address\"},{\"internalType\":\"bool\",\"name\":\"approve\",\"type\":\"bool\"}],\"stateMutability\":\"nonpayable\",\"type\":\"function\",\"name\":\"setApproved\"},{\"inputs\":[{\"internalType\":\"uint256\",\"name\":\"chainId\",\"type\":\"uint256\"},{\"internalType\":\"uint256\",\"name\":\"fee_\",\"type\":\"uint256\"}],\"stateMutability\":\"nonpayable\",\"type\":\"function\",\"name\":\"setFee\"},{\"inputs\":[{\"internalType\":\"struct Message\",\"name\":\"message\",\"type\":\"tuple\",\"components\":[{\"internalType\":\"address\",\"name\":\"channel\",\"type\":\"address\"},{\"internalType\":\"uint256\",\"name\":\"index\",\"type\":\"uint256\"},{\"internalType\":\"uint256\",\"name\":\"fromChainId\",\"type\":\"uint256\"},{\"internalType\":\"address\",\"name\":\"from\",\"type\":\"address\"},{\"internalType\":\"uint256\",\"name\":\"toChainId\",\"type\":\"uint256\"},{\"internalType\":\"address\",\"name\":\"to\",\"type\":\"address\"},{\"internalType\":\"uint256\",\"name\":\"gasLimit\",\"type\":\"uint256\"},{\"internalType\":\"bytes\",\"name\":\"encoded\",\"type\":\"bytes\"}]},{\"internalType\":\"bytes\",\"name\":\"\",\"type\":\"bytes\"}],\"stateMutability\":\"view\",\"type\":\"function\",\"name\":\"verifyMessageProof\",\"outputs\":[{\"internalType\":\"bool\",\"name\":\"\",\"type\":\"bool\"}]},{\"inputs\":[],\"stateMutability\":\"pure\",\"type\":\"function\",\"name\":\"version\",\"outputs\":[{\"internalType\":\"string\",\"name\":\"\",\"type\":\"string\"}]},{\"inputs\":[{\"internalType\":\"address\",\"name\":\"to\",\"type\":\"address\"},{\"internalType\":\"uint256\",\"name\":\"amount\",\"type\":\"uint256\"}],\"stateMutability\":\"nonpayable\",\"type\":\"function\",\"name\":\"withdraw\"},{\"inputs\":[],\"stateMutability\":\"payable\",\"type\":\"receive\"}],\"devdoc\":{\"kind\":\"dev\",\"methods\":{\"hashOf(uint256,address,uint256)\":{\"params\":{\"chainId\":\"The source chain id.\",\"channel\":\"The message channel.\",\"msgIndex\":\"The Message index.\"},\"returns\":{\"_0\":\"Message hash in source chain.\"}},\"importMessageHash(uint256,address,uint256,bytes32)\":{\"details\":\"Only could be called by owner.\",\"params\":{\"chainId\":\"The source chain id.\",\"channel\":\"The message channel.\",\"msgHash\":\"The source chain message hash corresponding to the channel.\",\"msgIndex\":\"The source chain message index.\"}},\"verifyMessageProof((address,uint256,uint256,address,uint256,address,uint256,bytes),bytes)\":{\"details\":\"Message proof provided by relayer. Oracle should provide message root of      source chain, and verify the merkle proof of the message hash.\",\"params\":{\"message\":\"The message info.\",\"proof\":\"Proof of the message\"},\"returns\":{\"_0\":\"Result of the message verify.\"}}},\"version\":1},\"userdoc\":{\"kind\":\"user\",\"methods\":{\"hashOf(uint256,address,uint256)\":{\"notice\":\"Fetch message hash.\"},\"verifyMessageProof((address,uint256,uint256,address,uint256,address,uint256,bytes),bytes)\":{\"notice\":\"Verify message proof\"}},\"version\":1}},\"settings\":{\"remappings\":[\"@darwinia-msgport/=lib/darwinia-msgport/\",\"@openzeppelin/contracts/=lib/openzeppelin-contracts/contracts/\",\"@openzeppelin/contracts@4.9.2/=lib/openzeppelin-contracts/contracts/\",\"@safe-smart-account/=lib/subapi/lib/safe-smart-account/contracts/\",\"@sphinx-labs/contracts/=lib/sphinx/packages/contracts/contracts/foundry/\",\"ORMP/=lib/ORMP/\",\"create3-deploy/=lib/create3-deploy/\",\"forge-std/=lib/forge-std/src/\",\"solmate/=lib/darwinia-msgport/lib/solmate/src/\",\"subapi/=lib/subapi/\"],\"optimizer\":{\"enabled\":true,\"runs\":999999},\"metadata\":{\"bytecodeHash\":\"ipfs\"},\"compilationTarget\":{\"lib/ORMP/src/eco/Oracle.sol\":\"Oracle\"},\"evmVersion\":\"london\",\"libraries\":{}},\"sources\":{\"lib/ORMP/src/Common.sol\":{\"keccak256\":\"0x9ac4f4aaea488dcf254d006b290d5e76ca27ddc3d8f8542c916e4f6f713f108b\",\"urls\":[\"bzz-raw://e752ee67412386fc6527e4bce526093797b932bbadab4520130e803a68806d3e\",\"dweb:/ipfs/QmbLNLEAm7MSveSUcRhyuS9LnSSj1CQtn9tmatE1YsLySX\"],\"license\":\"MIT\"},\"lib/ORMP/src/Verifier.sol\":{\"keccak256\":\"0xcbb09be9bd0f62cfaf9c07c46c446c79886118f0870bb1b7967f99470e72920e\",\"urls\":[\"bzz-raw://82b79598f8bc4a31a246e7251e62dbe9d94e56fff387c1de8314540cee931be1\",\"dweb:/ipfs/QmXEEmKkL5oj8XxqTTj6cHBYPPw55gUasM9JCGULhW8Cye\"],\"license\":\"MIT\"},\"lib/ORMP/src/eco/Oracle.sol\":{\"keccak256\":\"0x1a62832fa2a023eedd67502f0eee29f3df5726c3fb3de5587e3fedd95e9042b6\",\"urls\":[\"bzz-raw://8f9d0594eb3e68eba1c4e6812e23b7db9e1418339d89cc24eb31ed05e6e69c80\",\"dweb:/ipfs/QmYwfLBhy8pCGk5bkm12t7tZ9dT32djiqiTKsPGCaVRJPN\"],\"license\":\"MIT\"},\"lib/ORMP/src/interfaces/IORMP.sol\":{\"keccak256\":\"0x687f39c965fd8cdc30047820c0f491d926ae3e9cea4d82dbf832b0646d0ed268\",\"urls\":[\"bzz-raw://8a22e640c9c1a4b24833607a840be9bf779f500e38d84f18b35efe9fb5e53c7a\",\"dweb:/ipfs/QmV17CvqrG7dkNVS1rLJpxzUPK2KFcVkXNjvx9rNwUdUGh\"],\"license\":\"MIT\"},\"lib/ORMP/src/interfaces/IVerifier.sol\":{\"keccak256\":\"0xfa53949a8465c32a0f4dda1c588654643c25cdc242820723db09bfdf39e6c298\",\"urls\":[\"bzz-raw://d88d918b8224292c06a9b120b241e99a3ca87e012b3e01280d77c1dd3e521484\",\"dweb:/ipfs/QmRFMyRg92ssguC3xUGVEdF24VfGnttUpv5vAAnJdwaDKT\"],\"license\":\"MIT\"}},\"version\":1}",
			"args": [
				"0x040f331774Ed6BB161412B4cEDb1358B382aF3A5",
				"0x13b2211a7cA45Db2808F6dB05557ce5347e3634e"
			],
			"bytecode": "0x60a060405234801561001057600080fd5b5060405161113038038061113083398101604081905261002f91610076565b6001600160a01b03908116608052600080546001600160a01b031916929091169190911790556100a9565b80516001600160a01b038116811461007157600080fd5b919050565b6000806040838503121561008957600080fd5b6100928361005a565b91506100a06020840161005a565b90509250929050565b60805161105e6100d2600039600081816102a80152818161046701526104cd015261105e6000f3fe6080604052600436106100e15760003560e01c80638da5cb5b1161007f578063a6f9dae111610059578063a6f9dae1146102ea578063af9e3a361461030a578063b6333d1614610337578063f3fef3a31461036757600080fd5b80638da5cb5b1461024457806391b9b82714610296578063a1dbf432146102ca57600080fd5b806354fd4d50116100bb57806354fd4d5014610162578063651b04a7146101ae578063673448dd146101de57806384cfb6801461022457600080fd5b80630a863e6c146100ed578063506146951461010f57806352f7c9881461014257600080fd5b366100e857005b600080fd5b3480156100f957600080fd5b5061010d610108366004610b5d565b610387565b005b34801561011b57600080fd5b5061012f61012a366004610b98565b6104c9565b6040519081526020015b60405180910390f35b34801561014e57600080fd5b5061010d61015d366004610bcd565b6105e1565b34801561016e57600080fd5b50604080518082018252600581527f322e312e30000000000000000000000000000000000000000000000000000000602082015290516101399190610c53565b3480156101ba57600080fd5b506101ce6101c9366004610c66565b6106ab565b6040519015158152602001610139565b3480156101ea57600080fd5b506101ce6101f9366004610d06565b73ffffffffffffffffffffffffffffffffffffffff1660009081526002602052604090205460ff1690565b34801561023057600080fd5b5061010d61023f366004610d21565b6106e6565b34801561025057600080fd5b506000546102719073ffffffffffffffffffffffffffffffffffffffff1681565b60405173ffffffffffffffffffffffffffffffffffffffff9091168152602001610139565b3480156102a257600080fd5b506102717f000000000000000000000000000000000000000000000000000000000000000081565b3480156102d657600080fd5b5061012f6102e5366004610d5d565b6107f5565b3480156102f657600080fd5b5061010d610305366004610d06565b610876565b34801561031657600080fd5b5061012f610325366004610d89565b60016020526000908152604090205481565b34801561034357600080fd5b506101ce610352366004610d06565b60026020526000908152604090205460ff1681565b34801561037357600080fd5b5061010d610382366004610da2565b61096c565b60005473ffffffffffffffffffffffffffffffffffffffff16331461040d576040517f08c379a000000000000000000000000000000000000000000000000000000000815260206004820152600660248201527f216f776e6572000000000000000000000000000000000000000000000000000060448201526064015b60405180910390fd5b6040517f5f3abe960000000000000000000000000000000000000000000000000000000081526004810185905273ffffffffffffffffffffffffffffffffffffffff848116602483015260448201849052606482018390527f00000000000000000000000000000000000000000000000000000000000000001690635f3abe9690608401600060405180830381600087803b1580156104ab57600080fd5b505af11580156104bf573d6000803e3d6000fd5b5050505050505050565b60007f000000000000000000000000000000000000000000000000000000000000000073ffffffffffffffffffffffffffffffffffffffff1663559e7230308686866040516020016105449392919092835273ffffffffffffffffffffffffffffffffffffffff919091166020830152604082015260600190565b604051602081830303815290604052805190602001206040518363ffffffff1660e01b815260040161059892919073ffffffffffffffffffffffffffffffffffffffff929092168252602082015260400190565b602060405180830381865afa1580156105b5573d6000803e3d6000fd5b505050506040513d601f19601f820116820180604052508101906105d99190610dcc565b949350505050565b3360009081526002602052604090205460ff1661065a576040517f08c379a000000000000000000000000000000000000000000000000000000000815260206004820152600860248201527f21617070726f76650000000000000000000000000000000000000000000000006044820152606401610404565b600082815260016020526040908190208290555182907f032dc6a2d839eb179729a55633fdf1c41a1fc4739394154117005db2b354b9b59061069f9084815260200190565b60405180910390a25050565b60006106be6106b985610ee9565b610b04565b6106dd60408601356106d36020880188610d06565b87602001356104c9565b14949350505050565b60005473ffffffffffffffffffffffffffffffffffffffff163314610767576040517f08c379a000000000000000000000000000000000000000000000000000000000815260206004820152600660248201527f216f776e657200000000000000000000000000000000000000000000000000006044820152606401610404565b73ffffffffffffffffffffffffffffffffffffffff821660008181526002602090815260409182902080547fffffffffffffffffffffffffffffffffffffffffffffffffffffffffffffff00168515159081179091558251938452908301527fd984ea421ae5d2a473199f85e03998a04a12f54d6f1fa183a955b3df1c0c546d910160405180910390a15050565b60008281526001602052604081205480820361086f576040517f08c379a00000000000000000000000000000000000000000000000000000000081526004016104049060208082526004908201527f2166656500000000000000000000000000000000000000000000000000000000604082015260600190565b9392505050565b60005473ffffffffffffffffffffffffffffffffffffffff1633146108f7576040517f08c379a000000000000000000000000000000000000000000000000000000000815260206004820152600660248201527f216f776e657200000000000000000000000000000000000000000000000000006044820152606401610404565b6000805473ffffffffffffffffffffffffffffffffffffffff8381167fffffffffffffffffffffffff0000000000000000000000000000000000000000831681178455604051919092169283917f8be0079c531659141344cd1fd0a4f28419497f9722a3daafe3b4186f6b6457e09190a35050565b3360009081526002602052604090205460ff166109e5576040517f08c379a000000000000000000000000000000000000000000000000000000000815260206004820152600860248201527f21617070726f76650000000000000000000000000000000000000000000000006044820152606401610404565b60008273ffffffffffffffffffffffffffffffffffffffff168260405160006040518083038185875af1925050503d8060008114610a3f576040519150601f19603f3d011682016040523d82523d6000602084013e610a44565b606091505b5050905080610aaf576040517f08c379a000000000000000000000000000000000000000000000000000000000815260206004820152600960248201527f21776974686472617700000000000000000000000000000000000000000000006044820152606401610404565b8273ffffffffffffffffffffffffffffffffffffffff167f7fcf532c15f0a6db0bd6d0e038bea71d30d808c7d98cb3bf7268a95bf5081b6583604051610af791815260200190565b60405180910390a2505050565b600081604051602001610b179190610f8b565b604051602081830303815290604052805190602001209050919050565b803573ffffffffffffffffffffffffffffffffffffffff81168114610b5857600080fd5b919050565b60008060008060808587031215610b7357600080fd5b84359350610b8360208601610b34565b93969395505050506040820135916060013590565b600080600060608486031215610bad57600080fd5b83359250610bbd60208501610b34565b9150604084013590509250925092565b60008060408385031215610be057600080fd5b50508035926020909101359150565b6000815180845260005b81811015610c1557602081850181015186830182015201610bf9565b5060006020828601015260207fffffffffffffffffffffffffffffffffffffffffffffffffffffffffffffffe0601f83011685010191505092915050565b60208152600061086f6020830184610bef565b600080600060408486031215610c7b57600080fd5b833567ffffffffffffffff80821115610c9357600080fd5b908501906101008288031215610ca857600080fd5b90935060208501359080821115610cbe57600080fd5b818601915086601f830112610cd257600080fd5b813581811115610ce157600080fd5b876020828501011115610cf357600080fd5b6020830194508093505050509250925092565b600060208284031215610d1857600080fd5b61086f82610b34565b60008060408385031215610d3457600080fd5b610d3d83610b34565b915060208301358015158114610d5257600080fd5b809150509250929050565b60008060408385031215610d7057600080fd5b82359150610d8060208401610b34565b90509250929050565b600060208284031215610d9b57600080fd5b5035919050565b60008060408385031215610db557600080fd5b610dbe83610b34565b946020939093013593505050565b600060208284031215610dde57600080fd5b5051919050565b7f4e487b7100000000000000000000000000000000000000000000000000000000600052604160045260246000fd5b604051610100810167ffffffffffffffff81118282101715610e3857610e38610de5565b60405290565b600082601f830112610e4f57600080fd5b813567ffffffffffffffff80821115610e6a57610e6a610de5565b604051601f83017fffffffffffffffffffffffffffffffffffffffffffffffffffffffffffffffe0908116603f01168101908282118183101715610eb057610eb0610de5565b81604052838152866020858801011115610ec957600080fd5b836020870160208301376000602085830101528094505050505092915050565b60006101008236031215610efc57600080fd5b610f04610e14565b610f0d83610b34565b81526020830135602082015260408301356040820152610f2f60608401610b34565b606082015260808301356080820152610f4a60a08401610b34565b60a082015260c083013560c082015260e083013567ffffffffffffffff811115610f7357600080fd5b610f7f36828601610e3e565b60e08301525092915050565b60208152600073ffffffffffffffffffffffffffffffffffffffff808451166020840152602084015160408401526040840151606084015280606085015116608084015250608083015160a083015260a083015161100160c084018273ffffffffffffffffffffffffffffffffffffffff169052565b5060c083015160e083015260e08301516101008081850152506105d9610120840182610bef56fea26469706673582212204e15bd44f524a009ddb10dfab169b887e49170106f13f83c120155f154c3b9bc64736f6c63430008110033",
			"deployedBytecode": "0x6080604052600436106100e15760003560e01c80638da5cb5b1161007f578063a6f9dae111610059578063a6f9dae1146102ea578063af9e3a361461030a578063b6333d1614610337578063f3fef3a31461036757600080fd5b80638da5cb5b1461024457806391b9b82714610296578063a1dbf432146102ca57600080fd5b806354fd4d50116100bb57806354fd4d5014610162578063651b04a7146101ae578063673448dd146101de57806384cfb6801461022457600080fd5b80630a863e6c146100ed578063506146951461010f57806352f7c9881461014257600080fd5b366100e857005b600080fd5b3480156100f957600080fd5b5061010d610108366004610b5d565b610387565b005b34801561011b57600080fd5b5061012f61012a366004610b98565b6104c9565b6040519081526020015b60405180910390f35b34801561014e57600080fd5b5061010d61015d366004610bcd565b6105e1565b34801561016e57600080fd5b50604080518082018252600581527f322e312e30000000000000000000000000000000000000000000000000000000602082015290516101399190610c53565b3480156101ba57600080fd5b506101ce6101c9366004610c66565b6106ab565b6040519015158152602001610139565b3480156101ea57600080fd5b506101ce6101f9366004610d06565b73ffffffffffffffffffffffffffffffffffffffff1660009081526002602052604090205460ff1690565b34801561023057600080fd5b5061010d61023f366004610d21565b6106e6565b34801561025057600080fd5b506000546102719073ffffffffffffffffffffffffffffffffffffffff1681565b60405173ffffffffffffffffffffffffffffffffffffffff9091168152602001610139565b3480156102a257600080fd5b506102717f00000000000000000000000013b2211a7ca45db2808f6db05557ce5347e3634e81565b3480156102d657600080fd5b5061012f6102e5366004610d5d565b6107f5565b3480156102f657600080fd5b5061010d610305366004610d06565b610876565b34801561031657600080fd5b5061012f610325366004610d89565b60016020526000908152604090205481565b34801561034357600080fd5b506101ce610352366004610d06565b60026020526000908152604090205460ff1681565b34801561037357600080fd5b5061010d610382366004610da2565b61096c565b60005473ffffffffffffffffffffffffffffffffffffffff16331461040d576040517f08c379a000000000000000000000000000000000000000000000000000000000815260206004820152600660248201527f216f776e6572000000000000000000000000000000000000000000000000000060448201526064015b60405180910390fd5b6040517f5f3abe960000000000000000000000000000000000000000000000000000000081526004810185905273ffffffffffffffffffffffffffffffffffffffff848116602483015260448201849052606482018390527f00000000000000000000000013b2211a7ca45db2808f6db05557ce5347e3634e1690635f3abe9690608401600060405180830381600087803b1580156104ab57600080fd5b505af11580156104bf573d6000803e3d6000fd5b5050505050505050565b60007f00000000000000000000000013b2211a7ca45db2808f6db05557ce5347e3634e73ffffffffffffffffffffffffffffffffffffffff1663559e7230308686866040516020016105449392919092835273ffffffffffffffffffffffffffffffffffffffff919091166020830152604082015260600190565b604051602081830303815290604052805190602001206040518363ffffffff1660e01b815260040161059892919073ffffffffffffffffffffffffffffffffffffffff929092168252602082015260400190565b602060405180830381865afa1580156105b5573d6000803e3d6000fd5b505050506040513d601f19601f820116820180604052508101906105d99190610dcc565b949350505050565b3360009081526002602052604090205460ff1661065a576040517f08c379a000000000000000000000000000000000000000000000000000000000815260206004820152600860248201527f21617070726f76650000000000000000000000000000000000000000000000006044820152606401610404565b600082815260016020526040908190208290555182907f032dc6a2d839eb179729a55633fdf1c41a1fc4739394154117005db2b354b9b59061069f9084815260200190565b60405180910390a25050565b60006106be6106b985610ee9565b610b04565b6106dd60408601356106d36020880188610d06565b87602001356104c9565b14949350505050565b60005473ffffffffffffffffffffffffffffffffffffffff163314610767576040517f08c379a000000000000000000000000000000000000000000000000000000000815260206004820152600660248201527f216f776e657200000000000000000000000000000000000000000000000000006044820152606401610404565b73ffffffffffffffffffffffffffffffffffffffff821660008181526002602090815260409182902080547fffffffffffffffffffffffffffffffffffffffffffffffffffffffffffffff00168515159081179091558251938452908301527fd984ea421ae5d2a473199f85e03998a04a12f54d6f1fa183a955b3df1c0c546d910160405180910390a15050565b60008281526001602052604081205480820361086f576040517f08c379a00000000000000000000000000000000000000000000000000000000081526004016104049060208082526004908201527f2166656500000000000000000000000000000000000000000000000000000000604082015260600190565b9392505050565b60005473ffffffffffffffffffffffffffffffffffffffff1633146108f7576040517f08c379a000000000000000000000000000000000000000000000000000000000815260206004820152600660248201527f216f776e657200000000000000000000000000000000000000000000000000006044820152606401610404565b6000805473ffffffffffffffffffffffffffffffffffffffff8381167fffffffffffffffffffffffff0000000000000000000000000000000000000000831681178455604051919092169283917f8be0079c531659141344cd1fd0a4f28419497f9722a3daafe3b4186f6b6457e09190a35050565b3360009081526002602052604090205460ff166109e5576040517f08c379a000000000000000000000000000000000000000000000000000000000815260206004820152600860248201527f21617070726f76650000000000000000000000000000000000000000000000006044820152606401610404565b60008273ffffffffffffffffffffffffffffffffffffffff168260405160006040518083038185875af1925050503d8060008114610a3f576040519150601f19603f3d011682016040523d82523d6000602084013e610a44565b606091505b5050905080610aaf576040517f08c379a000000000000000000000000000000000000000000000000000000000815260206004820152600960248201527f21776974686472617700000000000000000000000000000000000000000000006044820152606401610404565b8273ffffffffffffffffffffffffffffffffffffffff167f7fcf532c15f0a6db0bd6d0e038bea71d30d808c7d98cb3bf7268a95bf5081b6583604051610af791815260200190565b60405180910390a2505050565b600081604051602001610b179190610f8b565b604051602081830303815290604052805190602001209050919050565b803573ffffffffffffffffffffffffffffffffffffffff81168114610b5857600080fd5b919050565b60008060008060808587031215610b7357600080fd5b84359350610b8360208601610b34565b93969395505050506040820135916060013590565b600080600060608486031215610bad57600080fd5b83359250610bbd60208501610b34565b9150604084013590509250925092565b60008060408385031215610be057600080fd5b50508035926020909101359150565b6000815180845260005b81811015610c1557602081850181015186830182015201610bf9565b5060006020828601015260207fffffffffffffffffffffffffffffffffffffffffffffffffffffffffffffffe0601f83011685010191505092915050565b60208152600061086f6020830184610bef565b600080600060408486031215610c7b57600080fd5b833567ffffffffffffffff80821115610c9357600080fd5b908501906101008288031215610ca857600080fd5b90935060208501359080821115610cbe57600080fd5b818601915086601f830112610cd257600080fd5b813581811115610ce157600080fd5b876020828501011115610cf357600080fd5b6020830194508093505050509250925092565b600060208284031215610d1857600080fd5b61086f82610b34565b60008060408385031215610d3457600080fd5b610d3d83610b34565b915060208301358015158114610d5257600080fd5b809150509250929050565b60008060408385031215610d7057600080fd5b82359150610d8060208401610b34565b90509250929050565b600060208284031215610d9b57600080fd5b5035919050565b60008060408385031215610db557600080fd5b610dbe83610b34565b946020939093013593505050565b600060208284031215610dde57600080fd5b5051919050565b7f4e487b7100000000000000000000000000000000000000000000000000000000600052604160045260246000fd5b604051610100810167ffffffffffffffff81118282101715610e3857610e38610de5565b60405290565b600082601f830112610e4f57600080fd5b813567ffffffffffffffff80821115610e6a57610e6a610de5565b604051601f83017fffffffffffffffffffffffffffffffffffffffffffffffffffffffffffffffe0908116603f01168101908282118183101715610eb057610eb0610de5565b81604052838152866020858801011115610ec957600080fd5b836020870160208301376000602085830101528094505050505092915050565b60006101008236031215610efc57600080fd5b610f04610e14565b610f0d83610b34565b81526020830135602082015260408301356040820152610f2f60608401610b34565b606082015260808301356080820152610f4a60a08401610b34565b60a082015260c083013560c082015260e083013567ffffffffffffffff811115610f7357600080fd5b610f7f36828601610e3e565b60e08301525092915050565b60208152600073ffffffffffffffffffffffffffffffffffffffff808451166020840152602084015160408401526040840151606084015280606085015116608084015250608083015160a083015260a083015161100160c084018273ffffffffffffffffffffffffffffffffffffffff169052565b5060c083015160e083015260e08301516101008081850152506105d9610120840182610bef56fea26469706673582212204e15bd44f524a009ddb10dfab169b887e49170106f13f83c120155f154c3b9bc64736f6c63430008110033",
			"devdoc": {
				"kind": "dev",
				"methods": {
					"hashOf(uint256,address,uint256)": {
						"params": {
							"chainId": "The source chain id.",
							"channel": "The message channel.",
							"msgIndex": "The Message index."
						},
						"returns": {
							"_0": "Message hash in source chain."
						}
					},
					"importMessageHash(uint256,address,uint256,bytes32)": {
						"details": "Only could be called by owner.",
						"params": {
							"chainId": "The source chain id.",
							"channel": "The message channel.",
							"msgHash": "The source chain message hash corresponding to the channel.",
							"msgIndex": "The source chain message index."
						}
					},
					"verifyMessageProof((address,uint256,uint256,address,uint256,address,uint256,bytes),bytes)": {
						"details": "Message proof provided by relayer. Oracle should provide message root of      source chain, and verify the merkle proof of the message hash.",
						"params": {
							"message": "The message info.",
							"proof": "Proof of the message"
						},
						"returns": {
							"_0": "Result of the message verify."
						}
					}
				},
				"version": 1
			},
			"userdoc": {
				"kind": "user",
				"methods": {
					"hashOf(uint256,address,uint256)": {
						"notice": "Fetch message hash."
					},
					"verifyMessageProof((address,uint256,uint256,address,uint256,address,uint256,bytes),bytes)": {
						"notice": "Verify message proof"
					}
				},
				"version": 1
			},
			"gitCommit": "b8c8b8bfc2f87ee2728eea8c3781e155c1988299",
			"sourceName": "lib/ORMP/src/eco/Oracle.sol",
			"chainId": "1",
			"linkReferences": {},
			"deployedLinkReferences": {}
		},
		{
			"_format": "sphinx-sol-ct-artifact-1",
			"merkleRoot": "0x8ed8ae243a4823b490402b72a5a66bd6367651f42c7ca9d53351953dddb0461a",
			"contractName": "Oracle",
			"address": "0xBE01B76AB454aE2497aE43168b1F70C92Ac1C726",
			"abi": [
				{
					"type": "constructor",
					"inputs": [
						{
							"name": "dao",
							"type": "address",
							"internalType": "address"
						},
						{
							"name": "ormp",
							"type": "address",
							"internalType": "address"
						}
					],
					"stateMutability": "nonpayable"
				},
				{
					"type": "receive",
					"stateMutability": "payable"
				},
				{
					"type": "function",
					"name": "PROTOCOL",
					"inputs": [],
					"outputs": [
						{
							"name": "",
							"type": "address",
							"internalType": "address"
						}
					],
					"stateMutability": "view"
				},
				{
					"type": "function",
					"name": "approvedOf",
					"inputs": [
						{
							"name": "",
							"type": "address",
							"internalType": "address"
						}
					],
					"outputs": [
						{
							"name": "",
							"type": "bool",
							"internalType": "bool"
						}
					],
					"stateMutability": "view"
				},
				{
					"type": "function",
					"name": "changeOwner",
					"inputs": [
						{
							"name": "newOwner",
							"type": "address",
							"internalType": "address"
						}
					],
					"outputs": [],
					"stateMutability": "nonpayable"
				},
				{
					"type": "function",
					"name": "fee",
					"inputs": [
						{
							"name": "toChainId",
							"type": "uint256",
							"internalType": "uint256"
						},
						{
							"name": "",
							"type": "address",
							"internalType": "address"
						}
					],
					"outputs": [
						{
							"name": "",
							"type": "uint256",
							"internalType": "uint256"
						}
					],
					"stateMutability": "view"
				},
				{
					"type": "function",
					"name": "feeOf",
					"inputs": [
						{
							"name": "",
							"type": "uint256",
							"internalType": "uint256"
						}
					],
					"outputs": [
						{
							"name": "",
							"type": "uint256",
							"internalType": "uint256"
						}
					],
					"stateMutability": "view"
				},
				{
					"type": "function",
					"name": "hashOf",
					"inputs": [
						{
							"name": "chainId",
							"type": "uint256",
							"internalType": "uint256"
						},
						{
							"name": "channel",
							"type": "address",
							"internalType": "address"
						},
						{
							"name": "msgIndex",
							"type": "uint256",
							"internalType": "uint256"
						}
					],
					"outputs": [
						{
							"name": "",
							"type": "bytes32",
							"internalType": "bytes32"
						}
					],
					"stateMutability": "view"
				},
				{
					"type": "function",
					"name": "importMessageHash",
					"inputs": [
						{
							"name": "chainId",
							"type": "uint256",
							"internalType": "uint256"
						},
						{
							"name": "channel",
							"type": "address",
							"internalType": "address"
						},
						{
							"name": "msgIndex",
							"type": "uint256",
							"internalType": "uint256"
						},
						{
							"name": "msgHash",
							"type": "bytes32",
							"internalType": "bytes32"
						}
					],
					"outputs": [],
					"stateMutability": "nonpayable"
				},
				{
					"type": "function",
					"name": "isApproved",
					"inputs": [
						{
							"name": "operator",
							"type": "address",
							"internalType": "address"
						}
					],
					"outputs": [
						{
							"name": "",
							"type": "bool",
							"internalType": "bool"
						}
					],
					"stateMutability": "view"
				},
				{
					"type": "function",
					"name": "owner",
					"inputs": [],
					"outputs": [
						{
							"name": "",
							"type": "address",
							"internalType": "address"
						}
					],
					"stateMutability": "view"
				},
				{
					"type": "function",
					"name": "setApproved",
					"inputs": [
						{
							"name": "operator",
							"type": "address",
							"internalType": "address"
						},
						{
							"name": "approve",
							"type": "bool",
							"internalType": "bool"
						}
					],
					"outputs": [],
					"stateMutability": "nonpayable"
				},
				{
					"type": "function",
					"name": "setFee",
					"inputs": [
						{
							"name": "chainId",
							"type": "uint256",
							"internalType": "uint256"
						},
						{
							"name": "fee_",
							"type": "uint256",
							"internalType": "uint256"
						}
					],
					"outputs": [],
					"stateMutability": "nonpayable"
				},
				{
					"type": "function",
					"name": "verifyMessageProof",
					"inputs": [
						{
							"name": "message",
							"type": "tuple",
							"internalType": "struct Message",
							"components": [
								{
									"name": "channel",
									"type": "address",
									"internalType": "address"
								},
								{
									"name": "index",
									"type": "uint256",
									"internalType": "uint256"
								},
								{
									"name": "fromChainId",
									"type": "uint256",
									"internalType": "uint256"
								},
								{
									"name": "from",
									"type": "address",
									"internalType": "address"
								},
								{
									"name": "toChainId",
									"type": "uint256",
									"internalType": "uint256"
								},
								{
									"name": "to",
									"type": "address",
									"internalType": "address"
								},
								{
									"name": "gasLimit",
									"type": "uint256",
									"internalType": "uint256"
								},
								{
									"name": "encoded",
									"type": "bytes",
									"internalType": "bytes"
								}
							]
						},
						{
							"name": "",
							"type": "bytes",
							"internalType": "bytes"
						}
					],
					"outputs": [
						{
							"name": "",
							"type": "bool",
							"internalType": "bool"
						}
					],
					"stateMutability": "view"
				},
				{
					"type": "function",
					"name": "version",
					"inputs": [],
					"outputs": [
						{
							"name": "",
							"type": "string",
							"internalType": "string"
						}
					],
					"stateMutability": "pure"
				},
				{
					"type": "function",
					"name": "withdraw",
					"inputs": [
						{
							"name": "to",
							"type": "address",
							"internalType": "address"
						},
						{
							"name": "amount",
							"type": "uint256",
							"internalType": "uint256"
						}
					],
					"outputs": [],
					"stateMutability": "nonpayable"
				},
				{
					"type": "event",
					"name": "OwnershipTransferred",
					"inputs": [
						{
							"name": "previousOwner",
							"type": "address",
							"indexed": true,
							"internalType": "address"
						},
						{
							"name": "newOwner",
							"type": "address",
							"indexed": true,
							"internalType": "address"
						}
					],
					"anonymous": false
				},
				{
					"type": "event",
					"name": "SetApproved",
					"inputs": [
						{
							"name": "operator",
							"type": "address",
							"indexed": false,
							"internalType": "address"
						},
						{
							"name": "approve",
							"type": "bool",
							"indexed": false,
							"internalType": "bool"
						}
					],
					"anonymous": false
				},
				{
					"type": "event",
					"name": "SetFee",
					"inputs": [
						{
							"name": "chainId",
							"type": "uint256",
							"indexed": true,
							"internalType": "uint256"
						},
						{
							"name": "fee",
							"type": "uint256",
							"indexed": false,
							"internalType": "uint256"
						}
					],
					"anonymous": false
				},
				{
					"type": "event",
					"name": "Withdrawal",
					"inputs": [
						{
							"name": "to",
							"type": "address",
							"indexed": true,
							"internalType": "address"
						},
						{
							"name": "amt",
							"type": "uint256",
							"indexed": false,
							"internalType": "uint256"
						}
					],
					"anonymous": false
				}
			],
			"solcInputHash": "bd281d871188d23306cfa03337a3378b",
			"receipt": {
				"blockHash": "0x0be50e447852056243cf44dca69bc9feffc5bccc811ceb81931f3a38613af483",
				"blockNumber": 20009590,
				"contractAddress": null,
				"cumulativeGasUsed": "26178486",
				"from": "0xD70A2e6eACbdeDA77a5d4bBAE3bC70239A0e088f",
				"gasPrice": "11385638197",
				"gasUsed": "6820262",
				"hash": "0x49851f61e7ae0f0a504fc25b8d4816b5bad8565c705d0353be72ecd08307ba3f",
				"index": 199,
				"logs": [
					{
						"address": "0x7e16116661CA8d66C73612382833153911Fa03B1",
						"blockHash": "0x0be50e447852056243cf44dca69bc9feffc5bccc811ceb81931f3a38613af483",
						"blockNumber": 20009590,
						"data": "0x0000000000000000000000000000000000000000000000000000000000000000",
						"index": 590,
						"topics": [
							"0x572f161235911da04685a68c06adf558fc7e4a36909dca394650e0adc19cc93d",
							"0x000000000000000000000000d70a2e6eacbdeda77a5d4bbae3bc70239a0e088f",
							"0x0000000000000000000000003d75d338b4711f8a33d293a2008f07a712513402",
							"0xc7a516774dfd806e8b8befe0ea54c4c3728826f0ba14d5f96a17823dbacbd730"
						],
						"transactionHash": "0x49851f61e7ae0f0a504fc25b8d4816b5bad8565c705d0353be72ecd08307ba3f",
						"transactionIndex": 199
					},
					{
						"address": "0x040f331774Ed6BB161412B4cEDb1358B382aF3A5",
						"blockHash": "0x0be50e447852056243cf44dca69bc9feffc5bccc811ceb81931f3a38613af483",
						"blockNumber": 20009590,
						"data": "0x",
						"index": 591,
						"topics": [
							"0x6895c13664aa4f67288b25d7a21d7aaa34916e355fb9b6fae0a139a9085becb8",
							"0x0000000000000000000000003d75d338b4711f8a33d293a2008f07a712513402"
						],
						"transactionHash": "0x49851f61e7ae0f0a504fc25b8d4816b5bad8565c705d0353be72ecd08307ba3f",
						"transactionIndex": 199
					},
					{
						"address": "0x3D75d338B4711F8a33d293a2008f07a712513402",
						"blockHash": "0x0be50e447852056243cf44dca69bc9feffc5bccc811ceb81931f3a38613af483",
						"blockNumber": 20009590,
						"data": "0x0000000000000000000000000000000000000000000000000000000000000001",
						"index": 592,
						"topics": [
							"0xa65fb05c5808f5f389d72edeaf719ce38f4cc55c1f69ca3cbfb31c21501caa07",
							"0x8ed8ae243a4823b490402b72a5a66bd6367651f42c7ca9d53351953dddb0461a"
						],
						"transactionHash": "0x49851f61e7ae0f0a504fc25b8d4816b5bad8565c705d0353be72ecd08307ba3f",
						"transactionIndex": 199
					},
					{
						"address": "0x040f331774Ed6BB161412B4cEDb1358B382aF3A5",
						"blockHash": "0x0be50e447852056243cf44dca69bc9feffc5bccc811ceb81931f3a38613af483",
						"blockNumber": 20009590,
						"data": "0x",
						"index": 593,
						"topics": [
							"0x6895c13664aa4f67288b25d7a21d7aaa34916e355fb9b6fae0a139a9085becb8",
							"0x0000000000000000000000003d75d338b4711f8a33d293a2008f07a712513402"
						],
						"transactionHash": "0x49851f61e7ae0f0a504fc25b8d4816b5bad8565c705d0353be72ecd08307ba3f",
						"transactionIndex": 199
					},
					{
						"address": "0x3D75d338B4711F8a33d293a2008f07a712513402",
						"blockHash": "0x0be50e447852056243cf44dca69bc9feffc5bccc811ceb81931f3a38613af483",
						"blockNumber": 20009590,
						"data": "0x0000000000000000000000000000000000000000000000000000000000000002",
						"index": 594,
						"topics": [
							"0xa65fb05c5808f5f389d72edeaf719ce38f4cc55c1f69ca3cbfb31c21501caa07",
							"0x8ed8ae243a4823b490402b72a5a66bd6367651f42c7ca9d53351953dddb0461a"
						],
						"transactionHash": "0x49851f61e7ae0f0a504fc25b8d4816b5bad8565c705d0353be72ecd08307ba3f",
						"transactionIndex": 199
					},
					{
						"address": "0x040f331774Ed6BB161412B4cEDb1358B382aF3A5",
						"blockHash": "0x0be50e447852056243cf44dca69bc9feffc5bccc811ceb81931f3a38613af483",
						"blockNumber": 20009590,
						"data": "0x",
						"index": 595,
						"topics": [
							"0x6895c13664aa4f67288b25d7a21d7aaa34916e355fb9b6fae0a139a9085becb8",
							"0x0000000000000000000000003d75d338b4711f8a33d293a2008f07a712513402"
						],
						"transactionHash": "0x49851f61e7ae0f0a504fc25b8d4816b5bad8565c705d0353be72ecd08307ba3f",
						"transactionIndex": 199
					},
					{
						"address": "0x3D75d338B4711F8a33d293a2008f07a712513402",
						"blockHash": "0x0be50e447852056243cf44dca69bc9feffc5bccc811ceb81931f3a38613af483",
						"blockNumber": 20009590,
						"data": "0x0000000000000000000000000000000000000000000000000000000000000003",
						"index": 596,
						"topics": [
							"0xa65fb05c5808f5f389d72edeaf719ce38f4cc55c1f69ca3cbfb31c21501caa07",
							"0x8ed8ae243a4823b490402b72a5a66bd6367651f42c7ca9d53351953dddb0461a"
						],
						"transactionHash": "0x49851f61e7ae0f0a504fc25b8d4816b5bad8565c705d0353be72ecd08307ba3f",
						"transactionIndex": 199
					},
					{
						"address": "0x2cd1867Fb8016f93710B6386f7f9F1D540A60812",
						"blockHash": "0x0be50e447852056243cf44dca69bc9feffc5bccc811ceb81931f3a38613af483",
						"blockNumber": 20009590,
						"data": "0x",
						"index": 597,
						"topics": [
							"0x8be0079c531659141344cd1fd0a4f28419497f9722a3daafe3b4186f6b6457e0",
							"0x0000000000000000000000000000000000000000000000000000000000000000",
							"0x0000000000000000000000004e59b44847b379578588920ca78fbf26c0b4956c"
						],
						"transactionHash": "0x49851f61e7ae0f0a504fc25b8d4816b5bad8565c705d0353be72ecd08307ba3f",
						"transactionIndex": 199
					},
					{
						"address": "0x2cd1867Fb8016f93710B6386f7f9F1D540A60812",
						"blockHash": "0x0be50e447852056243cf44dca69bc9feffc5bccc811ceb81931f3a38613af483",
						"blockNumber": 20009590,
						"data": "0x",
						"index": 598,
						"topics": [
							"0x8be0079c531659141344cd1fd0a4f28419497f9722a3daafe3b4186f6b6457e0",
							"0x0000000000000000000000004e59b44847b379578588920ca78fbf26c0b4956c",
							"0x000000000000000000000000040f331774ed6bb161412b4cedb1358b382af3a5"
						],
						"transactionHash": "0x49851f61e7ae0f0a504fc25b8d4816b5bad8565c705d0353be72ecd08307ba3f",
						"transactionIndex": 199
					},
					{
						"address": "0x040f331774Ed6BB161412B4cEDb1358B382aF3A5",
						"blockHash": "0x0be50e447852056243cf44dca69bc9feffc5bccc811ceb81931f3a38613af483",
						"blockNumber": 20009590,
						"data": "0x",
						"index": 599,
						"topics": [
							"0x6895c13664aa4f67288b25d7a21d7aaa34916e355fb9b6fae0a139a9085becb8",
							"0x0000000000000000000000003d75d338b4711f8a33d293a2008f07a712513402"
						],
						"transactionHash": "0x49851f61e7ae0f0a504fc25b8d4816b5bad8565c705d0353be72ecd08307ba3f",
						"transactionIndex": 199
					},
					{
						"address": "0x3D75d338B4711F8a33d293a2008f07a712513402",
						"blockHash": "0x0be50e447852056243cf44dca69bc9feffc5bccc811ceb81931f3a38613af483",
						"blockNumber": 20009590,
						"data": "0x0000000000000000000000000000000000000000000000000000000000000004",
						"index": 600,
						"topics": [
							"0xa65fb05c5808f5f389d72edeaf719ce38f4cc55c1f69ca3cbfb31c21501caa07",
							"0x8ed8ae243a4823b490402b72a5a66bd6367651f42c7ca9d53351953dddb0461a"
						],
						"transactionHash": "0x49851f61e7ae0f0a504fc25b8d4816b5bad8565c705d0353be72ecd08307ba3f",
						"transactionIndex": 199
					},
					{
						"address": "0xBE01B76AB454aE2497aE43168b1F70C92Ac1C726",
						"blockHash": "0x0be50e447852056243cf44dca69bc9feffc5bccc811ceb81931f3a38613af483",
						"blockNumber": 20009590,
						"data": "0x000000000000000000000000040f331774ed6bb161412b4cedb1358b382af3a50000000000000000000000000000000000000000000000000000000000000001",
						"index": 601,
						"topics": [
							"0xd984ea421ae5d2a473199f85e03998a04a12f54d6f1fa183a955b3df1c0c546d"
						],
						"transactionHash": "0x49851f61e7ae0f0a504fc25b8d4816b5bad8565c705d0353be72ecd08307ba3f",
						"transactionIndex": 199
					},
					{
						"address": "0x040f331774Ed6BB161412B4cEDb1358B382aF3A5",
						"blockHash": "0x0be50e447852056243cf44dca69bc9feffc5bccc811ceb81931f3a38613af483",
						"blockNumber": 20009590,
						"data": "0x",
						"index": 602,
						"topics": [
							"0x6895c13664aa4f67288b25d7a21d7aaa34916e355fb9b6fae0a139a9085becb8",
							"0x0000000000000000000000003d75d338b4711f8a33d293a2008f07a712513402"
						],
						"transactionHash": "0x49851f61e7ae0f0a504fc25b8d4816b5bad8565c705d0353be72ecd08307ba3f",
						"transactionIndex": 199
					},
					{
						"address": "0x3D75d338B4711F8a33d293a2008f07a712513402",
						"blockHash": "0x0be50e447852056243cf44dca69bc9feffc5bccc811ceb81931f3a38613af483",
						"blockNumber": 20009590,
						"data": "0x0000000000000000000000000000000000000000000000000000000000000005",
						"index": 603,
						"topics": [
							"0xa65fb05c5808f5f389d72edeaf719ce38f4cc55c1f69ca3cbfb31c21501caa07",
							"0x8ed8ae243a4823b490402b72a5a66bd6367651f42c7ca9d53351953dddb0461a"
						],
						"transactionHash": "0x49851f61e7ae0f0a504fc25b8d4816b5bad8565c705d0353be72ecd08307ba3f",
						"transactionIndex": 199
					},
					{
						"address": "0xBE01B76AB454aE2497aE43168b1F70C92Ac1C726",
						"blockHash": "0x0be50e447852056243cf44dca69bc9feffc5bccc811ceb81931f3a38613af483",
						"blockNumber": 20009590,
						"data": "0x0000000000000000000000000f14341a7f464320319025540e8fe48ad0fe5aec0000000000000000000000000000000000000000000000000000000000000001",
						"index": 604,
						"topics": [
							"0xd984ea421ae5d2a473199f85e03998a04a12f54d6f1fa183a955b3df1c0c546d"
						],
						"transactionHash": "0x49851f61e7ae0f0a504fc25b8d4816b5bad8565c705d0353be72ecd08307ba3f",
						"transactionIndex": 199
					},
					{
						"address": "0x040f331774Ed6BB161412B4cEDb1358B382aF3A5",
						"blockHash": "0x0be50e447852056243cf44dca69bc9feffc5bccc811ceb81931f3a38613af483",
						"blockNumber": 20009590,
						"data": "0x",
						"index": 605,
						"topics": [
							"0x6895c13664aa4f67288b25d7a21d7aaa34916e355fb9b6fae0a139a9085becb8",
							"0x0000000000000000000000003d75d338b4711f8a33d293a2008f07a712513402"
						],
						"transactionHash": "0x49851f61e7ae0f0a504fc25b8d4816b5bad8565c705d0353be72ecd08307ba3f",
						"transactionIndex": 199
					},
					{
						"address": "0x3D75d338B4711F8a33d293a2008f07a712513402",
						"blockHash": "0x0be50e447852056243cf44dca69bc9feffc5bccc811ceb81931f3a38613af483",
						"blockNumber": 20009590,
						"data": "0x0000000000000000000000000000000000000000000000000000000000000006",
						"index": 606,
						"topics": [
							"0xa65fb05c5808f5f389d72edeaf719ce38f4cc55c1f69ca3cbfb31c21501caa07",
							"0x8ed8ae243a4823b490402b72a5a66bd6367651f42c7ca9d53351953dddb0461a"
						],
						"transactionHash": "0x49851f61e7ae0f0a504fc25b8d4816b5bad8565c705d0353be72ecd08307ba3f",
						"transactionIndex": 199
					},
					{
						"address": "0xBE01B76AB454aE2497aE43168b1F70C92Ac1C726",
						"blockHash": "0x0be50e447852056243cf44dca69bc9feffc5bccc811ceb81931f3a38613af483",
						"blockNumber": 20009590,
						"data": "0x000000000000000000000000178e699c9a6bb2cd624557fbd85ed219e6faba770000000000000000000000000000000000000000000000000000000000000001",
						"index": 607,
						"topics": [
							"0xd984ea421ae5d2a473199f85e03998a04a12f54d6f1fa183a955b3df1c0c546d"
						],
						"transactionHash": "0x49851f61e7ae0f0a504fc25b8d4816b5bad8565c705d0353be72ecd08307ba3f",
						"transactionIndex": 199
					},
					{
						"address": "0x040f331774Ed6BB161412B4cEDb1358B382aF3A5",
						"blockHash": "0x0be50e447852056243cf44dca69bc9feffc5bccc811ceb81931f3a38613af483",
						"blockNumber": 20009590,
						"data": "0x",
						"index": 608,
						"topics": [
							"0x6895c13664aa4f67288b25d7a21d7aaa34916e355fb9b6fae0a139a9085becb8",
							"0x0000000000000000000000003d75d338b4711f8a33d293a2008f07a712513402"
						],
						"transactionHash": "0x49851f61e7ae0f0a504fc25b8d4816b5bad8565c705d0353be72ecd08307ba3f",
						"transactionIndex": 199
					},
					{
						"address": "0x3D75d338B4711F8a33d293a2008f07a712513402",
						"blockHash": "0x0be50e447852056243cf44dca69bc9feffc5bccc811ceb81931f3a38613af483",
						"blockNumber": 20009590,
						"data": "0x0000000000000000000000000000000000000000000000000000000000000007",
						"index": 609,
						"topics": [
							"0xa65fb05c5808f5f389d72edeaf719ce38f4cc55c1f69ca3cbfb31c21501caa07",
							"0x8ed8ae243a4823b490402b72a5a66bd6367651f42c7ca9d53351953dddb0461a"
						],
						"transactionHash": "0x49851f61e7ae0f0a504fc25b8d4816b5bad8565c705d0353be72ecd08307ba3f",
						"transactionIndex": 199
					},
					{
						"address": "0xBE01B76AB454aE2497aE43168b1F70C92Ac1C726",
						"blockHash": "0x0be50e447852056243cf44dca69bc9feffc5bccc811ceb81931f3a38613af483",
						"blockNumber": 20009590,
						"data": "0x",
						"index": 610,
						"topics": [
							"0x8be0079c531659141344cd1fd0a4f28419497f9722a3daafe3b4186f6b6457e0",
							"0x000000000000000000000000040f331774ed6bb161412b4cedb1358b382af3a5",
							"0x00000000000000000000000022117db68370590c1031f52a6d1ade3dce0ccf9a"
						],
						"transactionHash": "0x49851f61e7ae0f0a504fc25b8d4816b5bad8565c705d0353be72ecd08307ba3f",
						"transactionIndex": 199
					},
					{
						"address": "0x040f331774Ed6BB161412B4cEDb1358B382aF3A5",
						"blockHash": "0x0be50e447852056243cf44dca69bc9feffc5bccc811ceb81931f3a38613af483",
						"blockNumber": 20009590,
						"data": "0x",
						"index": 611,
						"topics": [
							"0x6895c13664aa4f67288b25d7a21d7aaa34916e355fb9b6fae0a139a9085becb8",
							"0x0000000000000000000000003d75d338b4711f8a33d293a2008f07a712513402"
						],
						"transactionHash": "0x49851f61e7ae0f0a504fc25b8d4816b5bad8565c705d0353be72ecd08307ba3f",
						"transactionIndex": 199
					},
					{
						"address": "0x3D75d338B4711F8a33d293a2008f07a712513402",
						"blockHash": "0x0be50e447852056243cf44dca69bc9feffc5bccc811ceb81931f3a38613af483",
						"blockNumber": 20009590,
						"data": "0x0000000000000000000000000000000000000000000000000000000000000008",
						"index": 612,
						"topics": [
							"0xa65fb05c5808f5f389d72edeaf719ce38f4cc55c1f69ca3cbfb31c21501caa07",
							"0x8ed8ae243a4823b490402b72a5a66bd6367651f42c7ca9d53351953dddb0461a"
						],
						"transactionHash": "0x49851f61e7ae0f0a504fc25b8d4816b5bad8565c705d0353be72ecd08307ba3f",
						"transactionIndex": 199
					},
					{
						"address": "0x114890eB7386F94eae410186F20968bFAf66142a",
						"blockHash": "0x0be50e447852056243cf44dca69bc9feffc5bccc811ceb81931f3a38613af483",
						"blockNumber": 20009590,
						"data": "0x000000000000000000000000040f331774ed6bb161412b4cedb1358b382af3a50000000000000000000000000000000000000000000000000000000000000001",
						"index": 613,
						"topics": [
							"0xd984ea421ae5d2a473199f85e03998a04a12f54d6f1fa183a955b3df1c0c546d"
						],
						"transactionHash": "0x49851f61e7ae0f0a504fc25b8d4816b5bad8565c705d0353be72ecd08307ba3f",
						"transactionIndex": 199
					},
					{
						"address": "0x040f331774Ed6BB161412B4cEDb1358B382aF3A5",
						"blockHash": "0x0be50e447852056243cf44dca69bc9feffc5bccc811ceb81931f3a38613af483",
						"blockNumber": 20009590,
						"data": "0x",
						"index": 614,
						"topics": [
							"0x6895c13664aa4f67288b25d7a21d7aaa34916e355fb9b6fae0a139a9085becb8",
							"0x0000000000000000000000003d75d338b4711f8a33d293a2008f07a712513402"
						],
						"transactionHash": "0x49851f61e7ae0f0a504fc25b8d4816b5bad8565c705d0353be72ecd08307ba3f",
						"transactionIndex": 199
					},
					{
						"address": "0x3D75d338B4711F8a33d293a2008f07a712513402",
						"blockHash": "0x0be50e447852056243cf44dca69bc9feffc5bccc811ceb81931f3a38613af483",
						"blockNumber": 20009590,
						"data": "0x0000000000000000000000000000000000000000000000000000000000000009",
						"index": 615,
						"topics": [
							"0xa65fb05c5808f5f389d72edeaf719ce38f4cc55c1f69ca3cbfb31c21501caa07",
							"0x8ed8ae243a4823b490402b72a5a66bd6367651f42c7ca9d53351953dddb0461a"
						],
						"transactionHash": "0x49851f61e7ae0f0a504fc25b8d4816b5bad8565c705d0353be72ecd08307ba3f",
						"transactionIndex": 199
					},
					{
						"address": "0x114890eB7386F94eae410186F20968bFAf66142a",
						"blockHash": "0x0be50e447852056243cf44dca69bc9feffc5bccc811ceb81931f3a38613af483",
						"blockNumber": 20009590,
						"data": "0x0000000000000000000000000f14341a7f464320319025540e8fe48ad0fe5aec0000000000000000000000000000000000000000000000000000000000000001",
						"index": 616,
						"topics": [
							"0xd984ea421ae5d2a473199f85e03998a04a12f54d6f1fa183a955b3df1c0c546d"
						],
						"transactionHash": "0x49851f61e7ae0f0a504fc25b8d4816b5bad8565c705d0353be72ecd08307ba3f",
						"transactionIndex": 199
					},
					{
						"address": "0x040f331774Ed6BB161412B4cEDb1358B382aF3A5",
						"blockHash": "0x0be50e447852056243cf44dca69bc9feffc5bccc811ceb81931f3a38613af483",
						"blockNumber": 20009590,
						"data": "0x",
						"index": 617,
						"topics": [
							"0x6895c13664aa4f67288b25d7a21d7aaa34916e355fb9b6fae0a139a9085becb8",
							"0x0000000000000000000000003d75d338b4711f8a33d293a2008f07a712513402"
						],
						"transactionHash": "0x49851f61e7ae0f0a504fc25b8d4816b5bad8565c705d0353be72ecd08307ba3f",
						"transactionIndex": 199
					},
					{
						"address": "0x3D75d338B4711F8a33d293a2008f07a712513402",
						"blockHash": "0x0be50e447852056243cf44dca69bc9feffc5bccc811ceb81931f3a38613af483",
						"blockNumber": 20009590,
						"data": "0x000000000000000000000000000000000000000000000000000000000000000a",
						"index": 618,
						"topics": [
							"0xa65fb05c5808f5f389d72edeaf719ce38f4cc55c1f69ca3cbfb31c21501caa07",
							"0x8ed8ae243a4823b490402b72a5a66bd6367651f42c7ca9d53351953dddb0461a"
						],
						"transactionHash": "0x49851f61e7ae0f0a504fc25b8d4816b5bad8565c705d0353be72ecd08307ba3f",
						"transactionIndex": 199
					},
					{
						"address": "0x114890eB7386F94eae410186F20968bFAf66142a",
						"blockHash": "0x0be50e447852056243cf44dca69bc9feffc5bccc811ceb81931f3a38613af483",
						"blockNumber": 20009590,
						"data": "0x000000000000000000000000912d7601569cbc2df8a7f0aae50bfd18e8c64d050000000000000000000000000000000000000000000000000000000000000001",
						"index": 619,
						"topics": [
							"0xd984ea421ae5d2a473199f85e03998a04a12f54d6f1fa183a955b3df1c0c546d"
						],
						"transactionHash": "0x49851f61e7ae0f0a504fc25b8d4816b5bad8565c705d0353be72ecd08307ba3f",
						"transactionIndex": 199
					},
					{
						"address": "0x040f331774Ed6BB161412B4cEDb1358B382aF3A5",
						"blockHash": "0x0be50e447852056243cf44dca69bc9feffc5bccc811ceb81931f3a38613af483",
						"blockNumber": 20009590,
						"data": "0x",
						"index": 620,
						"topics": [
							"0x6895c13664aa4f67288b25d7a21d7aaa34916e355fb9b6fae0a139a9085becb8",
							"0x0000000000000000000000003d75d338b4711f8a33d293a2008f07a712513402"
						],
						"transactionHash": "0x49851f61e7ae0f0a504fc25b8d4816b5bad8565c705d0353be72ecd08307ba3f",
						"transactionIndex": 199
					},
					{
						"address": "0x3D75d338B4711F8a33d293a2008f07a712513402",
						"blockHash": "0x0be50e447852056243cf44dca69bc9feffc5bccc811ceb81931f3a38613af483",
						"blockNumber": 20009590,
						"data": "0x000000000000000000000000000000000000000000000000000000000000000b",
						"index": 621,
						"topics": [
							"0xa65fb05c5808f5f389d72edeaf719ce38f4cc55c1f69ca3cbfb31c21501caa07",
							"0x8ed8ae243a4823b490402b72a5a66bd6367651f42c7ca9d53351953dddb0461a"
						],
						"transactionHash": "0x49851f61e7ae0f0a504fc25b8d4816b5bad8565c705d0353be72ecd08307ba3f",
						"transactionIndex": 199
					},
					{
						"address": "0x114890eB7386F94eae410186F20968bFAf66142a",
						"blockHash": "0x0be50e447852056243cf44dca69bc9feffc5bccc811ceb81931f3a38613af483",
						"blockNumber": 20009590,
						"data": "0x0000000000000000000000009f33a4809aa708d7a399fedba514e0a0d15efa850000000000000000000000000000000000000000000000000000000000000001",
						"index": 622,
						"topics": [
							"0xd984ea421ae5d2a473199f85e03998a04a12f54d6f1fa183a955b3df1c0c546d"
						],
						"transactionHash": "0x49851f61e7ae0f0a504fc25b8d4816b5bad8565c705d0353be72ecd08307ba3f",
						"transactionIndex": 199
					},
					{
						"address": "0x040f331774Ed6BB161412B4cEDb1358B382aF3A5",
						"blockHash": "0x0be50e447852056243cf44dca69bc9feffc5bccc811ceb81931f3a38613af483",
						"blockNumber": 20009590,
						"data": "0x",
						"index": 623,
						"topics": [
							"0x6895c13664aa4f67288b25d7a21d7aaa34916e355fb9b6fae0a139a9085becb8",
							"0x0000000000000000000000003d75d338b4711f8a33d293a2008f07a712513402"
						],
						"transactionHash": "0x49851f61e7ae0f0a504fc25b8d4816b5bad8565c705d0353be72ecd08307ba3f",
						"transactionIndex": 199
					},
					{
						"address": "0x3D75d338B4711F8a33d293a2008f07a712513402",
						"blockHash": "0x0be50e447852056243cf44dca69bc9feffc5bccc811ceb81931f3a38613af483",
						"blockNumber": 20009590,
						"data": "0x000000000000000000000000000000000000000000000000000000000000000c",
						"index": 624,
						"topics": [
							"0xa65fb05c5808f5f389d72edeaf719ce38f4cc55c1f69ca3cbfb31c21501caa07",
							"0x8ed8ae243a4823b490402b72a5a66bd6367651f42c7ca9d53351953dddb0461a"
						],
						"transactionHash": "0x49851f61e7ae0f0a504fc25b8d4816b5bad8565c705d0353be72ecd08307ba3f",
						"transactionIndex": 199
					},
					{
						"address": "0x13b2211a7cA45Db2808F6dB05557ce5347e3634e",
						"blockHash": "0x0be50e447852056243cf44dca69bc9feffc5bccc811ceb81931f3a38613af483",
						"blockNumber": 20009590,
						"data": "0x000000000000000000000000be01b76ab454ae2497ae43168b1f70c92ac1c726000000000000000000000000114890eb7386f94eae410186f20968bfaf66142a",
						"index": 625,
						"topics": [
							"0x504f152883e6158786ddfcce63f4d4d95ce8e404b1f6e6365a06f63849b7cb95"
						],
						"transactionHash": "0x49851f61e7ae0f0a504fc25b8d4816b5bad8565c705d0353be72ecd08307ba3f",
						"transactionIndex": 199
					},
					{
						"address": "0x040f331774Ed6BB161412B4cEDb1358B382aF3A5",
						"blockHash": "0x0be50e447852056243cf44dca69bc9feffc5bccc811ceb81931f3a38613af483",
						"blockNumber": 20009590,
						"data": "0x",
						"index": 626,
						"topics": [
							"0x6895c13664aa4f67288b25d7a21d7aaa34916e355fb9b6fae0a139a9085becb8",
							"0x0000000000000000000000003d75d338b4711f8a33d293a2008f07a712513402"
						],
						"transactionHash": "0x49851f61e7ae0f0a504fc25b8d4816b5bad8565c705d0353be72ecd08307ba3f",
						"transactionIndex": 199
					},
					{
						"address": "0x3D75d338B4711F8a33d293a2008f07a712513402",
						"blockHash": "0x0be50e447852056243cf44dca69bc9feffc5bccc811ceb81931f3a38613af483",
						"blockNumber": 20009590,
						"data": "0x000000000000000000000000000000000000000000000000000000000000000d",
						"index": 627,
						"topics": [
							"0xa65fb05c5808f5f389d72edeaf719ce38f4cc55c1f69ca3cbfb31c21501caa07",
							"0x8ed8ae243a4823b490402b72a5a66bd6367651f42c7ca9d53351953dddb0461a"
						],
						"transactionHash": "0x49851f61e7ae0f0a504fc25b8d4816b5bad8565c705d0353be72ecd08307ba3f",
						"transactionIndex": 199
					},
					{
						"address": "0x2cd1867Fb8016f93710B6386f7f9F1D540A60812",
						"blockHash": "0x0be50e447852056243cf44dca69bc9feffc5bccc811ceb81931f3a38613af483",
						"blockNumber": 20009590,
						"data": "0x00000000000000000000000000000000000000000000000000000000000000200000000000000000000000000000000000000000000000000000000000000042697066733a2f2f62616679626569646d66723335376f75686772337a7775706b6c3636756e7a696366366b6b69657334626b71366676356c6d7a35727476726b3565000000000000000000000000000000000000000000000000000000000000",
						"index": 628,
						"topics": [
							"0x3d7a9962f6da134f6896430d6867bd08e3546dbf9570df877e7cec39ba4305f0"
						],
						"transactionHash": "0x49851f61e7ae0f0a504fc25b8d4816b5bad8565c705d0353be72ecd08307ba3f",
						"transactionIndex": 199
					},
					{
						"address": "0x040f331774Ed6BB161412B4cEDb1358B382aF3A5",
						"blockHash": "0x0be50e447852056243cf44dca69bc9feffc5bccc811ceb81931f3a38613af483",
						"blockNumber": 20009590,
						"data": "0x",
						"index": 629,
						"topics": [
							"0x6895c13664aa4f67288b25d7a21d7aaa34916e355fb9b6fae0a139a9085becb8",
							"0x0000000000000000000000003d75d338b4711f8a33d293a2008f07a712513402"
						],
						"transactionHash": "0x49851f61e7ae0f0a504fc25b8d4816b5bad8565c705d0353be72ecd08307ba3f",
						"transactionIndex": 199
					},
					{
						"address": "0x3D75d338B4711F8a33d293a2008f07a712513402",
						"blockHash": "0x0be50e447852056243cf44dca69bc9feffc5bccc811ceb81931f3a38613af483",
						"blockNumber": 20009590,
						"data": "0x000000000000000000000000000000000000000000000000000000000000000e",
						"index": 630,
						"topics": [
							"0xa65fb05c5808f5f389d72edeaf719ce38f4cc55c1f69ca3cbfb31c21501caa07",
							"0x8ed8ae243a4823b490402b72a5a66bd6367651f42c7ca9d53351953dddb0461a"
						],
						"transactionHash": "0x49851f61e7ae0f0a504fc25b8d4816b5bad8565c705d0353be72ecd08307ba3f",
						"transactionIndex": 199
					},
					{
						"address": "0x3D75d338B4711F8a33d293a2008f07a712513402",
						"blockHash": "0x0be50e447852056243cf44dca69bc9feffc5bccc811ceb81931f3a38613af483",
						"blockNumber": 20009590,
						"data": "0x",
						"index": 631,
						"topics": [
							"0x4383d976757d67ca920616be0b6430a681ea9d3dcce8d6d61d4603ca4a9bff63",
							"0x8ed8ae243a4823b490402b72a5a66bd6367651f42c7ca9d53351953dddb0461a"
						],
						"transactionHash": "0x49851f61e7ae0f0a504fc25b8d4816b5bad8565c705d0353be72ecd08307ba3f",
						"transactionIndex": 199
					}
				],
				"logsBloom": "0x0400000000001000000000000008000000000000012000000080000000000400000000000010000000000000004200000010000000000020004000000000000000000000080020020004000000040000000100000100000000000000000900008000400002000040200002001000080400000000000000000000000000080040000000c100004000000100000000000000001000001000000000100000000004004100800009000000080000000040000200000000000000000000001004001000020001000000000001000000000000000000000000000800000000000020000100000000000008000008000a00000280000000000080000000000008100080",
				"status": 1,
				"to": "0x7e16116661CA8d66C73612382833153911Fa03B1"
			},
			"metadata": "{\"compiler\":{\"version\":\"0.8.17+commit.8df45f5f\"},\"language\":\"Solidity\",\"output\":{\"abi\":[{\"inputs\":[{\"internalType\":\"address\",\"name\":\"dao\",\"type\":\"address\"},{\"internalType\":\"address\",\"name\":\"ormp\",\"type\":\"address\"}],\"stateMutability\":\"nonpayable\",\"type\":\"constructor\"},{\"inputs\":[{\"internalType\":\"address\",\"name\":\"previousOwner\",\"type\":\"address\",\"indexed\":true},{\"internalType\":\"address\",\"name\":\"newOwner\",\"type\":\"address\",\"indexed\":true}],\"type\":\"event\",\"name\":\"OwnershipTransferred\",\"anonymous\":false},{\"inputs\":[{\"internalType\":\"address\",\"name\":\"operator\",\"type\":\"address\",\"indexed\":false},{\"internalType\":\"bool\",\"name\":\"approve\",\"type\":\"bool\",\"indexed\":false}],\"type\":\"event\",\"name\":\"SetApproved\",\"anonymous\":false},{\"inputs\":[{\"internalType\":\"uint256\",\"name\":\"chainId\",\"type\":\"uint256\",\"indexed\":true},{\"internalType\":\"uint256\",\"name\":\"fee\",\"type\":\"uint256\",\"indexed\":false}],\"type\":\"event\",\"name\":\"SetFee\",\"anonymous\":false},{\"inputs\":[{\"internalType\":\"address\",\"name\":\"to\",\"type\":\"address\",\"indexed\":true},{\"internalType\":\"uint256\",\"name\":\"amt\",\"type\":\"uint256\",\"indexed\":false}],\"type\":\"event\",\"name\":\"Withdrawal\",\"anonymous\":false},{\"inputs\":[],\"stateMutability\":\"view\",\"type\":\"function\",\"name\":\"PROTOCOL\",\"outputs\":[{\"internalType\":\"address\",\"name\":\"\",\"type\":\"address\"}]},{\"inputs\":[{\"internalType\":\"address\",\"name\":\"\",\"type\":\"address\"}],\"stateMutability\":\"view\",\"type\":\"function\",\"name\":\"approvedOf\",\"outputs\":[{\"internalType\":\"bool\",\"name\":\"\",\"type\":\"bool\"}]},{\"inputs\":[{\"internalType\":\"address\",\"name\":\"newOwner\",\"type\":\"address\"}],\"stateMutability\":\"nonpayable\",\"type\":\"function\",\"name\":\"changeOwner\"},{\"inputs\":[{\"internalType\":\"uint256\",\"name\":\"toChainId\",\"type\":\"uint256\"},{\"internalType\":\"address\",\"name\":\"\",\"type\":\"address\"}],\"stateMutability\":\"view\",\"type\":\"function\",\"name\":\"fee\",\"outputs\":[{\"internalType\":\"uint256\",\"name\":\"\",\"type\":\"uint256\"}]},{\"inputs\":[{\"internalType\":\"uint256\",\"name\":\"\",\"type\":\"uint256\"}],\"stateMutability\":\"view\",\"type\":\"function\",\"name\":\"feeOf\",\"outputs\":[{\"internalType\":\"uint256\",\"name\":\"\",\"type\":\"uint256\"}]},{\"inputs\":[{\"internalType\":\"uint256\",\"name\":\"chainId\",\"type\":\"uint256\"},{\"internalType\":\"address\",\"name\":\"channel\",\"type\":\"address\"},{\"internalType\":\"uint256\",\"name\":\"msgIndex\",\"type\":\"uint256\"}],\"stateMutability\":\"view\",\"type\":\"function\",\"name\":\"hashOf\",\"outputs\":[{\"internalType\":\"bytes32\",\"name\":\"\",\"type\":\"bytes32\"}]},{\"inputs\":[{\"internalType\":\"uint256\",\"name\":\"chainId\",\"type\":\"uint256\"},{\"internalType\":\"address\",\"name\":\"channel\",\"type\":\"address\"},{\"internalType\":\"uint256\",\"name\":\"msgIndex\",\"type\":\"uint256\"},{\"internalType\":\"bytes32\",\"name\":\"msgHash\",\"type\":\"bytes32\"}],\"stateMutability\":\"nonpayable\",\"type\":\"function\",\"name\":\"importMessageHash\"},{\"inputs\":[{\"internalType\":\"address\",\"name\":\"operator\",\"type\":\"address\"}],\"stateMutability\":\"view\",\"type\":\"function\",\"name\":\"isApproved\",\"outputs\":[{\"internalType\":\"bool\",\"name\":\"\",\"type\":\"bool\"}]},{\"inputs\":[],\"stateMutability\":\"view\",\"type\":\"function\",\"name\":\"owner\",\"outputs\":[{\"internalType\":\"address\",\"name\":\"\",\"type\":\"address\"}]},{\"inputs\":[{\"internalType\":\"address\",\"name\":\"operator\",\"type\":\"address\"},{\"internalType\":\"bool\",\"name\":\"approve\",\"type\":\"bool\"}],\"stateMutability\":\"nonpayable\",\"type\":\"function\",\"name\":\"setApproved\"},{\"inputs\":[{\"internalType\":\"uint256\",\"name\":\"chainId\",\"type\":\"uint256\"},{\"internalType\":\"uint256\",\"name\":\"fee_\",\"type\":\"uint256\"}],\"stateMutability\":\"nonpayable\",\"type\":\"function\",\"name\":\"setFee\"},{\"inputs\":[{\"internalType\":\"struct Message\",\"name\":\"message\",\"type\":\"tuple\",\"components\":[{\"internalType\":\"address\",\"name\":\"channel\",\"type\":\"address\"},{\"internalType\":\"uint256\",\"name\":\"index\",\"type\":\"uint256\"},{\"internalType\":\"uint256\",\"name\":\"fromChainId\",\"type\":\"uint256\"},{\"internalType\":\"address\",\"name\":\"from\",\"type\":\"address\"},{\"internalType\":\"uint256\",\"name\":\"toChainId\",\"type\":\"uint256\"},{\"internalType\":\"address\",\"name\":\"to\",\"type\":\"address\"},{\"internalType\":\"uint256\",\"name\":\"gasLimit\",\"type\":\"uint256\"},{\"internalType\":\"bytes\",\"name\":\"encoded\",\"type\":\"bytes\"}]},{\"internalType\":\"bytes\",\"name\":\"\",\"type\":\"bytes\"}],\"stateMutability\":\"view\",\"type\":\"function\",\"name\":\"verifyMessageProof\",\"outputs\":[{\"internalType\":\"bool\",\"name\":\"\",\"type\":\"bool\"}]},{\"inputs\":[],\"stateMutability\":\"pure\",\"type\":\"function\",\"name\":\"version\",\"outputs\":[{\"internalType\":\"string\",\"name\":\"\",\"type\":\"string\"}]},{\"inputs\":[{\"internalType\":\"address\",\"name\":\"to\",\"type\":\"address\"},{\"internalType\":\"uint256\",\"name\":\"amount\",\"type\":\"uint256\"}],\"stateMutability\":\"nonpayable\",\"type\":\"function\",\"name\":\"withdraw\"},{\"inputs\":[],\"stateMutability\":\"payable\",\"type\":\"receive\"}],\"devdoc\":{\"kind\":\"dev\",\"methods\":{\"hashOf(uint256,address,uint256)\":{\"params\":{\"chainId\":\"The source chain id.\",\"channel\":\"The message channel.\",\"msgIndex\":\"The Message index.\"},\"returns\":{\"_0\":\"Message hash in source chain.\"}},\"importMessageHash(uint256,address,uint256,bytes32)\":{\"details\":\"Only could be called by owner.\",\"params\":{\"chainId\":\"The source chain id.\",\"channel\":\"The message channel.\",\"msgHash\":\"The source chain message hash corresponding to the channel.\",\"msgIndex\":\"The source chain message index.\"}},\"verifyMessageProof((address,uint256,uint256,address,uint256,address,uint256,bytes),bytes)\":{\"details\":\"Message proof provided by relayer. Oracle should provide message root of      source chain, and verify the merkle proof of the message hash.\",\"params\":{\"message\":\"The message info.\",\"proof\":\"Proof of the message\"},\"returns\":{\"_0\":\"Result of the message verify.\"}}},\"version\":1},\"userdoc\":{\"kind\":\"user\",\"methods\":{\"hashOf(uint256,address,uint256)\":{\"notice\":\"Fetch message hash.\"},\"verifyMessageProof((address,uint256,uint256,address,uint256,address,uint256,bytes),bytes)\":{\"notice\":\"Verify message proof\"}},\"version\":1}},\"settings\":{\"remappings\":[\"@darwinia-msgport/=lib/darwinia-msgport/\",\"@openzeppelin/contracts/=lib/openzeppelin-contracts/contracts/\",\"@openzeppelin/contracts@4.9.2/=lib/openzeppelin-contracts/contracts/\",\"@safe-smart-account/=lib/subapi/lib/safe-smart-account/contracts/\",\"@sphinx-labs/contracts/=lib/sphinx/packages/contracts/contracts/foundry/\",\"ORMP/=lib/ORMP/\",\"create3-deploy/=lib/create3-deploy/\",\"forge-std/=lib/forge-std/src/\",\"solmate/=lib/darwinia-msgport/lib/solmate/src/\",\"subapi/=lib/subapi/\"],\"optimizer\":{\"enabled\":true,\"runs\":999999},\"metadata\":{\"bytecodeHash\":\"ipfs\"},\"compilationTarget\":{\"lib/ORMP/src/eco/Oracle.sol\":\"Oracle\"},\"evmVersion\":\"london\",\"libraries\":{}},\"sources\":{\"lib/ORMP/src/Common.sol\":{\"keccak256\":\"0x9ac4f4aaea488dcf254d006b290d5e76ca27ddc3d8f8542c916e4f6f713f108b\",\"urls\":[\"bzz-raw://e752ee67412386fc6527e4bce526093797b932bbadab4520130e803a68806d3e\",\"dweb:/ipfs/QmbLNLEAm7MSveSUcRhyuS9LnSSj1CQtn9tmatE1YsLySX\"],\"license\":\"MIT\"},\"lib/ORMP/src/Verifier.sol\":{\"keccak256\":\"0xcbb09be9bd0f62cfaf9c07c46c446c79886118f0870bb1b7967f99470e72920e\",\"urls\":[\"bzz-raw://82b79598f8bc4a31a246e7251e62dbe9d94e56fff387c1de8314540cee931be1\",\"dweb:/ipfs/QmXEEmKkL5oj8XxqTTj6cHBYPPw55gUasM9JCGULhW8Cye\"],\"license\":\"MIT\"},\"lib/ORMP/src/eco/Oracle.sol\":{\"keccak256\":\"0x1a62832fa2a023eedd67502f0eee29f3df5726c3fb3de5587e3fedd95e9042b6\",\"urls\":[\"bzz-raw://8f9d0594eb3e68eba1c4e6812e23b7db9e1418339d89cc24eb31ed05e6e69c80\",\"dweb:/ipfs/QmYwfLBhy8pCGk5bkm12t7tZ9dT32djiqiTKsPGCaVRJPN\"],\"license\":\"MIT\"},\"lib/ORMP/src/interfaces/IORMP.sol\":{\"keccak256\":\"0x687f39c965fd8cdc30047820c0f491d926ae3e9cea4d82dbf832b0646d0ed268\",\"urls\":[\"bzz-raw://8a22e640c9c1a4b24833607a840be9bf779f500e38d84f18b35efe9fb5e53c7a\",\"dweb:/ipfs/QmV17CvqrG7dkNVS1rLJpxzUPK2KFcVkXNjvx9rNwUdUGh\"],\"license\":\"MIT\"},\"lib/ORMP/src/interfaces/IVerifier.sol\":{\"keccak256\":\"0xfa53949a8465c32a0f4dda1c588654643c25cdc242820723db09bfdf39e6c298\",\"urls\":[\"bzz-raw://d88d918b8224292c06a9b120b241e99a3ca87e012b3e01280d77c1dd3e521484\",\"dweb:/ipfs/QmRFMyRg92ssguC3xUGVEdF24VfGnttUpv5vAAnJdwaDKT\"],\"license\":\"MIT\"}},\"version\":1}",
			"args": [
				"0x040f331774Ed6BB161412B4cEDb1358B382aF3A5",
				"0x13b2211a7cA45Db2808F6dB05557ce5347e3634e"
			],
			"bytecode": "0x60a060405234801561001057600080fd5b5060405161113038038061113083398101604081905261002f91610076565b6001600160a01b03908116608052600080546001600160a01b031916929091169190911790556100a9565b80516001600160a01b038116811461007157600080fd5b919050565b6000806040838503121561008957600080fd5b6100928361005a565b91506100a06020840161005a565b90509250929050565b60805161105e6100d2600039600081816102a80152818161046701526104cd015261105e6000f3fe6080604052600436106100e15760003560e01c80638da5cb5b1161007f578063a6f9dae111610059578063a6f9dae1146102ea578063af9e3a361461030a578063b6333d1614610337578063f3fef3a31461036757600080fd5b80638da5cb5b1461024457806391b9b82714610296578063a1dbf432146102ca57600080fd5b806354fd4d50116100bb57806354fd4d5014610162578063651b04a7146101ae578063673448dd146101de57806384cfb6801461022457600080fd5b80630a863e6c146100ed578063506146951461010f57806352f7c9881461014257600080fd5b366100e857005b600080fd5b3480156100f957600080fd5b5061010d610108366004610b5d565b610387565b005b34801561011b57600080fd5b5061012f61012a366004610b98565b6104c9565b6040519081526020015b60405180910390f35b34801561014e57600080fd5b5061010d61015d366004610bcd565b6105e1565b34801561016e57600080fd5b50604080518082018252600581527f322e312e30000000000000000000000000000000000000000000000000000000602082015290516101399190610c53565b3480156101ba57600080fd5b506101ce6101c9366004610c66565b6106ab565b6040519015158152602001610139565b3480156101ea57600080fd5b506101ce6101f9366004610d06565b73ffffffffffffffffffffffffffffffffffffffff1660009081526002602052604090205460ff1690565b34801561023057600080fd5b5061010d61023f366004610d21565b6106e6565b34801561025057600080fd5b506000546102719073ffffffffffffffffffffffffffffffffffffffff1681565b60405173ffffffffffffffffffffffffffffffffffffffff9091168152602001610139565b3480156102a257600080fd5b506102717f000000000000000000000000000000000000000000000000000000000000000081565b3480156102d657600080fd5b5061012f6102e5366004610d5d565b6107f5565b3480156102f657600080fd5b5061010d610305366004610d06565b610876565b34801561031657600080fd5b5061012f610325366004610d89565b60016020526000908152604090205481565b34801561034357600080fd5b506101ce610352366004610d06565b60026020526000908152604090205460ff1681565b34801561037357600080fd5b5061010d610382366004610da2565b61096c565b60005473ffffffffffffffffffffffffffffffffffffffff16331461040d576040517f08c379a000000000000000000000000000000000000000000000000000000000815260206004820152600660248201527f216f776e6572000000000000000000000000000000000000000000000000000060448201526064015b60405180910390fd5b6040517f5f3abe960000000000000000000000000000000000000000000000000000000081526004810185905273ffffffffffffffffffffffffffffffffffffffff848116602483015260448201849052606482018390527f00000000000000000000000000000000000000000000000000000000000000001690635f3abe9690608401600060405180830381600087803b1580156104ab57600080fd5b505af11580156104bf573d6000803e3d6000fd5b5050505050505050565b60007f000000000000000000000000000000000000000000000000000000000000000073ffffffffffffffffffffffffffffffffffffffff1663559e7230308686866040516020016105449392919092835273ffffffffffffffffffffffffffffffffffffffff919091166020830152604082015260600190565b604051602081830303815290604052805190602001206040518363ffffffff1660e01b815260040161059892919073ffffffffffffffffffffffffffffffffffffffff929092168252602082015260400190565b602060405180830381865afa1580156105b5573d6000803e3d6000fd5b505050506040513d601f19601f820116820180604052508101906105d99190610dcc565b949350505050565b3360009081526002602052604090205460ff1661065a576040517f08c379a000000000000000000000000000000000000000000000000000000000815260206004820152600860248201527f21617070726f76650000000000000000000000000000000000000000000000006044820152606401610404565b600082815260016020526040908190208290555182907f032dc6a2d839eb179729a55633fdf1c41a1fc4739394154117005db2b354b9b59061069f9084815260200190565b60405180910390a25050565b60006106be6106b985610ee9565b610b04565b6106dd60408601356106d36020880188610d06565b87602001356104c9565b14949350505050565b60005473ffffffffffffffffffffffffffffffffffffffff163314610767576040517f08c379a000000000000000000000000000000000000000000000000000000000815260206004820152600660248201527f216f776e657200000000000000000000000000000000000000000000000000006044820152606401610404565b73ffffffffffffffffffffffffffffffffffffffff821660008181526002602090815260409182902080547fffffffffffffffffffffffffffffffffffffffffffffffffffffffffffffff00168515159081179091558251938452908301527fd984ea421ae5d2a473199f85e03998a04a12f54d6f1fa183a955b3df1c0c546d910160405180910390a15050565b60008281526001602052604081205480820361086f576040517f08c379a00000000000000000000000000000000000000000000000000000000081526004016104049060208082526004908201527f2166656500000000000000000000000000000000000000000000000000000000604082015260600190565b9392505050565b60005473ffffffffffffffffffffffffffffffffffffffff1633146108f7576040517f08c379a000000000000000000000000000000000000000000000000000000000815260206004820152600660248201527f216f776e657200000000000000000000000000000000000000000000000000006044820152606401610404565b6000805473ffffffffffffffffffffffffffffffffffffffff8381167fffffffffffffffffffffffff0000000000000000000000000000000000000000831681178455604051919092169283917f8be0079c531659141344cd1fd0a4f28419497f9722a3daafe3b4186f6b6457e09190a35050565b3360009081526002602052604090205460ff166109e5576040517f08c379a000000000000000000000000000000000000000000000000000000000815260206004820152600860248201527f21617070726f76650000000000000000000000000000000000000000000000006044820152606401610404565b60008273ffffffffffffffffffffffffffffffffffffffff168260405160006040518083038185875af1925050503d8060008114610a3f576040519150601f19603f3d011682016040523d82523d6000602084013e610a44565b606091505b5050905080610aaf576040517f08c379a000000000000000000000000000000000000000000000000000000000815260206004820152600960248201527f21776974686472617700000000000000000000000000000000000000000000006044820152606401610404565b8273ffffffffffffffffffffffffffffffffffffffff167f7fcf532c15f0a6db0bd6d0e038bea71d30d808c7d98cb3bf7268a95bf5081b6583604051610af791815260200190565b60405180910390a2505050565b600081604051602001610b179190610f8b565b604051602081830303815290604052805190602001209050919050565b803573ffffffffffffffffffffffffffffffffffffffff81168114610b5857600080fd5b919050565b60008060008060808587031215610b7357600080fd5b84359350610b8360208601610b34565b93969395505050506040820135916060013590565b600080600060608486031215610bad57600080fd5b83359250610bbd60208501610b34565b9150604084013590509250925092565b60008060408385031215610be057600080fd5b50508035926020909101359150565b6000815180845260005b81811015610c1557602081850181015186830182015201610bf9565b5060006020828601015260207fffffffffffffffffffffffffffffffffffffffffffffffffffffffffffffffe0601f83011685010191505092915050565b60208152600061086f6020830184610bef565b600080600060408486031215610c7b57600080fd5b833567ffffffffffffffff80821115610c9357600080fd5b908501906101008288031215610ca857600080fd5b90935060208501359080821115610cbe57600080fd5b818601915086601f830112610cd257600080fd5b813581811115610ce157600080fd5b876020828501011115610cf357600080fd5b6020830194508093505050509250925092565b600060208284031215610d1857600080fd5b61086f82610b34565b60008060408385031215610d3457600080fd5b610d3d83610b34565b915060208301358015158114610d5257600080fd5b809150509250929050565b60008060408385031215610d7057600080fd5b82359150610d8060208401610b34565b90509250929050565b600060208284031215610d9b57600080fd5b5035919050565b60008060408385031215610db557600080fd5b610dbe83610b34565b946020939093013593505050565b600060208284031215610dde57600080fd5b5051919050565b7f4e487b7100000000000000000000000000000000000000000000000000000000600052604160045260246000fd5b604051610100810167ffffffffffffffff81118282101715610e3857610e38610de5565b60405290565b600082601f830112610e4f57600080fd5b813567ffffffffffffffff80821115610e6a57610e6a610de5565b604051601f83017fffffffffffffffffffffffffffffffffffffffffffffffffffffffffffffffe0908116603f01168101908282118183101715610eb057610eb0610de5565b81604052838152866020858801011115610ec957600080fd5b836020870160208301376000602085830101528094505050505092915050565b60006101008236031215610efc57600080fd5b610f04610e14565b610f0d83610b34565b81526020830135602082015260408301356040820152610f2f60608401610b34565b606082015260808301356080820152610f4a60a08401610b34565b60a082015260c083013560c082015260e083013567ffffffffffffffff811115610f7357600080fd5b610f7f36828601610e3e565b60e08301525092915050565b60208152600073ffffffffffffffffffffffffffffffffffffffff808451166020840152602084015160408401526040840151606084015280606085015116608084015250608083015160a083015260a083015161100160c084018273ffffffffffffffffffffffffffffffffffffffff169052565b5060c083015160e083015260e08301516101008081850152506105d9610120840182610bef56fea26469706673582212204e15bd44f524a009ddb10dfab169b887e49170106f13f83c120155f154c3b9bc64736f6c63430008110033",
			"deployedBytecode": "0x6080604052600436106100e15760003560e01c80638da5cb5b1161007f578063a6f9dae111610059578063a6f9dae1146102ea578063af9e3a361461030a578063b6333d1614610337578063f3fef3a31461036757600080fd5b80638da5cb5b1461024457806391b9b82714610296578063a1dbf432146102ca57600080fd5b806354fd4d50116100bb57806354fd4d5014610162578063651b04a7146101ae578063673448dd146101de57806384cfb6801461022457600080fd5b80630a863e6c146100ed578063506146951461010f57806352f7c9881461014257600080fd5b366100e857005b600080fd5b3480156100f957600080fd5b5061010d610108366004610b5d565b610387565b005b34801561011b57600080fd5b5061012f61012a366004610b98565b6104c9565b6040519081526020015b60405180910390f35b34801561014e57600080fd5b5061010d61015d366004610bcd565b6105e1565b34801561016e57600080fd5b50604080518082018252600581527f322e312e30000000000000000000000000000000000000000000000000000000602082015290516101399190610c53565b3480156101ba57600080fd5b506101ce6101c9366004610c66565b6106ab565b6040519015158152602001610139565b3480156101ea57600080fd5b506101ce6101f9366004610d06565b73ffffffffffffffffffffffffffffffffffffffff1660009081526002602052604090205460ff1690565b34801561023057600080fd5b5061010d61023f366004610d21565b6106e6565b34801561025057600080fd5b506000546102719073ffffffffffffffffffffffffffffffffffffffff1681565b60405173ffffffffffffffffffffffffffffffffffffffff9091168152602001610139565b3480156102a257600080fd5b506102717f00000000000000000000000013b2211a7ca45db2808f6db05557ce5347e3634e81565b3480156102d657600080fd5b5061012f6102e5366004610d5d565b6107f5565b3480156102f657600080fd5b5061010d610305366004610d06565b610876565b34801561031657600080fd5b5061012f610325366004610d89565b60016020526000908152604090205481565b34801561034357600080fd5b506101ce610352366004610d06565b60026020526000908152604090205460ff1681565b34801561037357600080fd5b5061010d610382366004610da2565b61096c565b60005473ffffffffffffffffffffffffffffffffffffffff16331461040d576040517f08c379a000000000000000000000000000000000000000000000000000000000815260206004820152600660248201527f216f776e6572000000000000000000000000000000000000000000000000000060448201526064015b60405180910390fd5b6040517f5f3abe960000000000000000000000000000000000000000000000000000000081526004810185905273ffffffffffffffffffffffffffffffffffffffff848116602483015260448201849052606482018390527f00000000000000000000000013b2211a7ca45db2808f6db05557ce5347e3634e1690635f3abe9690608401600060405180830381600087803b1580156104ab57600080fd5b505af11580156104bf573d6000803e3d6000fd5b5050505050505050565b60007f00000000000000000000000013b2211a7ca45db2808f6db05557ce5347e3634e73ffffffffffffffffffffffffffffffffffffffff1663559e7230308686866040516020016105449392919092835273ffffffffffffffffffffffffffffffffffffffff919091166020830152604082015260600190565b604051602081830303815290604052805190602001206040518363ffffffff1660e01b815260040161059892919073ffffffffffffffffffffffffffffffffffffffff929092168252602082015260400190565b602060405180830381865afa1580156105b5573d6000803e3d6000fd5b505050506040513d601f19601f820116820180604052508101906105d99190610dcc565b949350505050565b3360009081526002602052604090205460ff1661065a576040517f08c379a000000000000000000000000000000000000000000000000000000000815260206004820152600860248201527f21617070726f76650000000000000000000000000000000000000000000000006044820152606401610404565b600082815260016020526040908190208290555182907f032dc6a2d839eb179729a55633fdf1c41a1fc4739394154117005db2b354b9b59061069f9084815260200190565b60405180910390a25050565b60006106be6106b985610ee9565b610b04565b6106dd60408601356106d36020880188610d06565b87602001356104c9565b14949350505050565b60005473ffffffffffffffffffffffffffffffffffffffff163314610767576040517f08c379a000000000000000000000000000000000000000000000000000000000815260206004820152600660248201527f216f776e657200000000000000000000000000000000000000000000000000006044820152606401610404565b73ffffffffffffffffffffffffffffffffffffffff821660008181526002602090815260409182902080547fffffffffffffffffffffffffffffffffffffffffffffffffffffffffffffff00168515159081179091558251938452908301527fd984ea421ae5d2a473199f85e03998a04a12f54d6f1fa183a955b3df1c0c546d910160405180910390a15050565b60008281526001602052604081205480820361086f576040517f08c379a00000000000000000000000000000000000000000000000000000000081526004016104049060208082526004908201527f2166656500000000000000000000000000000000000000000000000000000000604082015260600190565b9392505050565b60005473ffffffffffffffffffffffffffffffffffffffff1633146108f7576040517f08c379a000000000000000000000000000000000000000000000000000000000815260206004820152600660248201527f216f776e657200000000000000000000000000000000000000000000000000006044820152606401610404565b6000805473ffffffffffffffffffffffffffffffffffffffff8381167fffffffffffffffffffffffff0000000000000000000000000000000000000000831681178455604051919092169283917f8be0079c531659141344cd1fd0a4f28419497f9722a3daafe3b4186f6b6457e09190a35050565b3360009081526002602052604090205460ff166109e5576040517f08c379a000000000000000000000000000000000000000000000000000000000815260206004820152600860248201527f21617070726f76650000000000000000000000000000000000000000000000006044820152606401610404565b60008273ffffffffffffffffffffffffffffffffffffffff168260405160006040518083038185875af1925050503d8060008114610a3f576040519150601f19603f3d011682016040523d82523d6000602084013e610a44565b606091505b5050905080610aaf576040517f08c379a000000000000000000000000000000000000000000000000000000000815260206004820152600960248201527f21776974686472617700000000000000000000000000000000000000000000006044820152606401610404565b8273ffffffffffffffffffffffffffffffffffffffff167f7fcf532c15f0a6db0bd6d0e038bea71d30d808c7d98cb3bf7268a95bf5081b6583604051610af791815260200190565b60405180910390a2505050565b600081604051602001610b179190610f8b565b604051602081830303815290604052805190602001209050919050565b803573ffffffffffffffffffffffffffffffffffffffff81168114610b5857600080fd5b919050565b60008060008060808587031215610b7357600080fd5b84359350610b8360208601610b34565b93969395505050506040820135916060013590565b600080600060608486031215610bad57600080fd5b83359250610bbd60208501610b34565b9150604084013590509250925092565b60008060408385031215610be057600080fd5b50508035926020909101359150565b6000815180845260005b81811015610c1557602081850181015186830182015201610bf9565b5060006020828601015260207fffffffffffffffffffffffffffffffffffffffffffffffffffffffffffffffe0601f83011685010191505092915050565b60208152600061086f6020830184610bef565b600080600060408486031215610c7b57600080fd5b833567ffffffffffffffff80821115610c9357600080fd5b908501906101008288031215610ca857600080fd5b90935060208501359080821115610cbe57600080fd5b818601915086601f830112610cd257600080fd5b813581811115610ce157600080fd5b876020828501011115610cf357600080fd5b6020830194508093505050509250925092565b600060208284031215610d1857600080fd5b61086f82610b34565b60008060408385031215610d3457600080fd5b610d3d83610b34565b915060208301358015158114610d5257600080fd5b809150509250929050565b60008060408385031215610d7057600080fd5b82359150610d8060208401610b34565b90509250929050565b600060208284031215610d9b57600080fd5b5035919050565b60008060408385031215610db557600080fd5b610dbe83610b34565b946020939093013593505050565b600060208284031215610dde57600080fd5b5051919050565b7f4e487b7100000000000000000000000000000000000000000000000000000000600052604160045260246000fd5b604051610100810167ffffffffffffffff81118282101715610e3857610e38610de5565b60405290565b600082601f830112610e4f57600080fd5b813567ffffffffffffffff80821115610e6a57610e6a610de5565b604051601f83017fffffffffffffffffffffffffffffffffffffffffffffffffffffffffffffffe0908116603f01168101908282118183101715610eb057610eb0610de5565b81604052838152866020858801011115610ec957600080fd5b836020870160208301376000602085830101528094505050505092915050565b60006101008236031215610efc57600080fd5b610f04610e14565b610f0d83610b34565b81526020830135602082015260408301356040820152610f2f60608401610b34565b606082015260808301356080820152610f4a60a08401610b34565b60a082015260c083013560c082015260e083013567ffffffffffffffff811115610f7357600080fd5b610f7f36828601610e3e565b60e08301525092915050565b60208152600073ffffffffffffffffffffffffffffffffffffffff808451166020840152602084015160408401526040840151606084015280606085015116608084015250608083015160a083015260a083015161100160c084018273ffffffffffffffffffffffffffffffffffffffff169052565b5060c083015160e083015260e08301516101008081850152506105d9610120840182610bef56fea26469706673582212204e15bd44f524a009ddb10dfab169b887e49170106f13f83c120155f154c3b9bc64736f6c63430008110033",
			"devdoc": {
				"kind": "dev",
				"methods": {
					"hashOf(uint256,address,uint256)": {
						"params": {
							"chainId": "The source chain id.",
							"channel": "The message channel.",
							"msgIndex": "The Message index."
						},
						"returns": {
							"_0": "Message hash in source chain."
						}
					},
					"importMessageHash(uint256,address,uint256,bytes32)": {
						"details": "Only could be called by owner.",
						"params": {
							"chainId": "The source chain id.",
							"channel": "The message channel.",
							"msgHash": "The source chain message hash corresponding to the channel.",
							"msgIndex": "The source chain message index."
						}
					},
					"verifyMessageProof((address,uint256,uint256,address,uint256,address,uint256,bytes),bytes)": {
						"details": "Message proof provided by relayer. Oracle should provide message root of      source chain, and verify the merkle proof of the message hash.",
						"params": {
							"message": "The message info.",
							"proof": "Proof of the message"
						},
						"returns": {
							"_0": "Result of the message verify."
						}
					}
				},
				"version": 1
			},
			"userdoc": {
				"kind": "user",
				"methods": {
					"hashOf(uint256,address,uint256)": {
						"notice": "Fetch message hash."
					},
					"verifyMessageProof((address,uint256,uint256,address,uint256,address,uint256,bytes),bytes)": {
						"notice": "Verify message proof"
					}
				},
				"version": 1
			},
			"gitCommit": "b8c8b8bfc2f87ee2728eea8c3781e155c1988299",
			"sourceName": "lib/ORMP/src/eco/Oracle.sol",
			"chainId": "1",
			"linkReferences": {},
			"deployedLinkReferences": {}
		}
	]
}