{
	"_format": "sphinx-sol-ct-artifact-1",
	"merkleRoot": "0x8f2b4c96fcf3ea0be0f9c0876f69c20dea21fd2c4f90e06f54760380d8575809",
	"contractName": "Oracle",
	"address": "0x56CdefD0456D5a487dA552Cb707366BcED5e827b",
	"abi": [
		{
			"type": "constructor",
			"inputs": [
				{
					"name": "dao",
					"type": "address",
					"internalType": "address"
				}
			],
			"stateMutability": "nonpayable"
		},
		{
			"type": "receive",
			"stateMutability": "payable"
		},
		{
			"type": "function",
			"name": "approvedOf",
			"inputs": [
				{
					"name": "",
					"type": "address",
					"internalType": "address"
				}
			],
			"outputs": [
				{
					"name": "",
					"type": "bool",
					"internalType": "bool"
				}
			],
			"stateMutability": "view"
		},
		{
			"type": "function",
			"name": "changeOwner",
			"inputs": [
				{
					"name": "newOwner",
					"type": "address",
					"internalType": "address"
				}
			],
			"outputs": [],
			"stateMutability": "nonpayable"
		},
		{
			"type": "function",
			"name": "fee",
			"inputs": [
				{
					"name": "toChainId",
					"type": "uint256",
					"internalType": "uint256"
				},
				{
					"name": "",
					"type": "address",
					"internalType": "address"
				}
			],
			"outputs": [
				{
					"name": "",
					"type": "uint256",
					"internalType": "uint256"
				}
			],
			"stateMutability": "view"
		},
		{
			"type": "function",
			"name": "feeOf",
			"inputs": [
				{
					"name": "",
					"type": "uint256",
					"internalType": "uint256"
				}
			],
			"outputs": [
				{
					"name": "",
					"type": "uint256",
					"internalType": "uint256"
				}
			],
			"stateMutability": "view"
		},
		{
			"type": "function",
			"name": "importMessageRoot",
			"inputs": [
				{
					"name": "chainId",
					"type": "uint256",
					"internalType": "uint256"
				},
				{
					"name": "blockNumber",
					"type": "uint256",
					"internalType": "uint256"
				},
				{
					"name": "messageRoot",
					"type": "bytes32",
					"internalType": "bytes32"
				}
			],
			"outputs": [],
			"stateMutability": "nonpayable"
		},
		{
			"type": "function",
			"name": "isApproved",
			"inputs": [
				{
					"name": "operator",
					"type": "address",
					"internalType": "address"
				}
			],
			"outputs": [
				{
					"name": "",
					"type": "bool",
					"internalType": "bool"
				}
			],
			"stateMutability": "view"
		},
		{
			"type": "function",
			"name": "merkleRoot",
			"inputs": [
				{
					"name": "chainId",
					"type": "uint256",
					"internalType": "uint256"
				},
				{
					"name": "blockNumber",
					"type": "uint256",
					"internalType": "uint256"
				}
			],
			"outputs": [
				{
					"name": "",
					"type": "bytes32",
					"internalType": "bytes32"
				}
			],
			"stateMutability": "view"
		},
		{
			"type": "function",
			"name": "owner",
			"inputs": [],
			"outputs": [
				{
					"name": "",
					"type": "address",
					"internalType": "address"
				}
			],
			"stateMutability": "view"
		},
		{
			"type": "function",
			"name": "setApproved",
			"inputs": [
				{
					"name": "operator",
					"type": "address",
					"internalType": "address"
				},
				{
					"name": "approve",
					"type": "bool",
					"internalType": "bool"
				}
			],
			"outputs": [],
			"stateMutability": "nonpayable"
		},
		{
			"type": "function",
			"name": "setFee",
			"inputs": [
				{
					"name": "chainId",
					"type": "uint256",
					"internalType": "uint256"
				},
				{
					"name": "fee_",
					"type": "uint256",
					"internalType": "uint256"
				}
			],
			"outputs": [],
			"stateMutability": "nonpayable"
		},
		{
			"type": "function",
			"name": "verifyMessageProof",
			"inputs": [
				{
					"name": "fromChainId",
					"type": "uint256",
					"internalType": "uint256"
				},
				{
					"name": "msgHash",
					"type": "bytes32",
					"internalType": "bytes32"
				},
				{
					"name": "proof",
					"type": "bytes",
					"internalType": "bytes"
				}
			],
			"outputs": [
				{
					"name": "",
					"type": "bool",
					"internalType": "bool"
				}
			],
			"stateMutability": "view"
		},
		{
			"type": "function",
			"name": "version",
			"inputs": [],
			"outputs": [
				{
					"name": "",
					"type": "string",
					"internalType": "string"
				}
			],
			"stateMutability": "pure"
		},
		{
			"type": "function",
			"name": "withdraw",
			"inputs": [
				{
					"name": "to",
					"type": "address",
					"internalType": "address"
				},
				{
					"name": "amount",
					"type": "uint256",
					"internalType": "uint256"
				}
			],
			"outputs": [],
			"stateMutability": "nonpayable"
		},
		{
			"type": "event",
			"name": "ImportedMessageRoot",
			"inputs": [
				{
					"name": "chainId",
					"type": "uint256",
					"indexed": true,
					"internalType": "uint256"
				},
				{
					"name": "blockHeight",
					"type": "uint256",
					"indexed": true,
					"internalType": "uint256"
				},
				{
					"name": "messageRoot",
					"type": "bytes32",
					"indexed": false,
					"internalType": "bytes32"
				}
			],
			"anonymous": false
		},
		{
			"type": "event",
			"name": "OwnershipTransferred",
			"inputs": [
				{
					"name": "previousOwner",
					"type": "address",
					"indexed": true,
					"internalType": "address"
				},
				{
					"name": "newOwner",
					"type": "address",
					"indexed": true,
					"internalType": "address"
				}
			],
			"anonymous": false
		},
		{
			"type": "event",
			"name": "SetApproved",
			"inputs": [
				{
					"name": "operator",
					"type": "address",
					"indexed": false,
					"internalType": "address"
				},
				{
					"name": "approve",
					"type": "bool",
					"indexed": false,
					"internalType": "bool"
				}
			],
			"anonymous": false
		},
		{
			"type": "event",
			"name": "SetFee",
			"inputs": [
				{
					"name": "chainId",
					"type": "uint256",
					"indexed": true,
					"internalType": "uint256"
				},
				{
					"name": "fee",
					"type": "uint256",
					"indexed": false,
					"internalType": "uint256"
				}
			],
			"anonymous": false
		},
		{
			"type": "event",
			"name": "Withdrawal",
			"inputs": [
				{
					"name": "to",
					"type": "address",
					"indexed": true,
					"internalType": "address"
				},
				{
					"name": "amt",
					"type": "uint256",
					"indexed": false,
					"internalType": "uint256"
				}
			],
			"anonymous": false
		}
	],
	"solcInputHash": "5aa3d56c367b9c7ac15bae56c0d3c8d6",
	"args": [
		"0x701609866556Cb9A1FBD6B40201cD5899c9D2d56"
	],
	"bytecode": "0x608060405234801561001057600080fd5b50604051610ea0380380610ea083398101604081905261002f91610054565b600080546001600160a01b0319166001600160a01b0392909216919091179055610084565b60006020828403121561006657600080fd5b81516001600160a01b038116811461007d57600080fd5b9392505050565b610e0d806100936000396000f3fe6080604052600436106100d65760003560e01c806384eb29091161007f578063a6f9dae111610059578063a6f9dae1146102c3578063af9e3a36146102e3578063b6333d1614610310578063f3fef3a31461034057600080fd5b806384eb2909146102315780638da5cb5b14610251578063a1dbf432146102a357600080fd5b8063673448dd116100b0578063673448dd1461018557806378f53aa9146101cb57806384cfb6801461021157600080fd5b8063094f87c5146100e257806352f7c9881461011757806354fd4d501461013957600080fd5b366100dd57005b600080fd5b3480156100ee57600080fd5b506101026100fd366004610a29565b610360565b60405190151581526020015b60405180910390f35b34801561012357600080fd5b50610137610132366004610aa9565b6103b4565b005b34801561014557600080fd5b50604080518082018252600581527f322e302e300000000000000000000000000000000000000000000000000000006020820152905161010e9190610acb565b34801561019157600080fd5b506101026101a0366004610b60565b73ffffffffffffffffffffffffffffffffffffffff1660009081526003602052604090205460ff1690565b3480156101d757600080fd5b506102036101e6366004610aa9565b600091825260026020908152604080842092845291905290205490565b60405190815260200161010e565b34801561021d57600080fd5b5061013761022c366004610b7b565b610483565b34801561023d57600080fd5b5061013761024c366004610bb7565b610592565b34801561025d57600080fd5b5060005461027e9073ffffffffffffffffffffffffffffffffffffffff1681565b60405173ffffffffffffffffffffffffffffffffffffffff909116815260200161010e565b3480156102af57600080fd5b506102036102be366004610be3565b610669565b3480156102cf57600080fd5b506101376102de366004610b60565b6106ea565b3480156102ef57600080fd5b506102036102fe366004610c0f565b60016020526000908152604090205481565b34801561031c57600080fd5b5061010261032b366004610b60565b60036020526000908152604090205460ff1681565b34801561034c57600080fd5b5061013761035b366004610c28565b6107e0565b60008061036f83850185610cab565b80516000888152600260209081526040808320938352929052908120549192505060006103a58784604001518560200151610978565b91909114979650505050505050565b3360009081526003602052604090205460ff16610432576040517f08c379a000000000000000000000000000000000000000000000000000000000815260206004820152600860248201527f21617070726f766500000000000000000000000000000000000000000000000060448201526064015b60405180910390fd5b600082815260016020526040908190208290555182907f032dc6a2d839eb179729a55633fdf1c41a1fc4739394154117005db2b354b9b5906104779084815260200190565b60405180910390a25050565b60005473ffffffffffffffffffffffffffffffffffffffff163314610504576040517f08c379a000000000000000000000000000000000000000000000000000000000815260206004820152600660248201527f216f776e657200000000000000000000000000000000000000000000000000006044820152606401610429565b73ffffffffffffffffffffffffffffffffffffffff821660008181526003602090815260409182902080547fffffffffffffffffffffffffffffffffffffffffffffffffffffffffffffff00168515159081179091558251938452908301527fd984ea421ae5d2a473199f85e03998a04a12f54d6f1fa183a955b3df1c0c546d910160405180910390a15050565b60005473ffffffffffffffffffffffffffffffffffffffff163314610613576040517f08c379a000000000000000000000000000000000000000000000000000000000815260206004820152600660248201527f216f776e657200000000000000000000000000000000000000000000000000006044820152606401610429565b60008381526002602090815260408083208584528252918290208390559051828152839185917fa6b41f61ef8e9987ff2f17d25f9821161e7c2c365b1f7e724875e498847b14c9910160405180910390a3505050565b6000828152600160205260408120548082036106e3576040517f08c379a00000000000000000000000000000000000000000000000000000000081526004016104299060208082526004908201527f2166656500000000000000000000000000000000000000000000000000000000604082015260600190565b9392505050565b60005473ffffffffffffffffffffffffffffffffffffffff16331461076b576040517f08c379a000000000000000000000000000000000000000000000000000000000815260206004820152600660248201527f216f776e657200000000000000000000000000000000000000000000000000006044820152606401610429565b6000805473ffffffffffffffffffffffffffffffffffffffff8381167fffffffffffffffffffffffff0000000000000000000000000000000000000000831681178455604051919092169283917f8be0079c531659141344cd1fd0a4f28419497f9722a3daafe3b4186f6b6457e09190a35050565b3360009081526003602052604090205460ff16610859576040517f08c379a000000000000000000000000000000000000000000000000000000000815260206004820152600860248201527f21617070726f76650000000000000000000000000000000000000000000000006044820152606401610429565b60008273ffffffffffffffffffffffffffffffffffffffff168260405160006040518083038185875af1925050503d80600081146108b3576040519150601f19603f3d011682016040523d82523d6000602084013e6108b8565b606091505b5050905080610923576040517f08c379a000000000000000000000000000000000000000000000000000000000815260206004820152600960248201527f21776974686472617700000000000000000000000000000000000000000000006044820152606401610429565b8273ffffffffffffffffffffffffffffffffffffffff167f7fcf532c15f0a6db0bd6d0e038bea71d30d808c7d98cb3bf7268a95bf5081b658360405161096b91815260200190565b60405180910390a2505050565b8260005b6020811015610a2157600183821c16600085836020811061099f5761099f610d49565b60200201519050816001036109df576040805160208101839052908101859052606001604051602081830303815290604052805190602001209350610a0c565b60408051602081018690529081018290526060016040516020818303038152906040528051906020012093505b50508080610a1990610d78565b91505061097c565b509392505050565b60008060008060608587031215610a3f57600080fd5b8435935060208501359250604085013567ffffffffffffffff80821115610a6557600080fd5b818701915087601f830112610a7957600080fd5b813581811115610a8857600080fd5b886020828501011115610a9a57600080fd5b95989497505060200194505050565b60008060408385031215610abc57600080fd5b50508035926020909101359150565b600060208083528351808285015260005b81811015610af857858101830151858201604001528201610adc565b5060006040828601015260407fffffffffffffffffffffffffffffffffffffffffffffffffffffffffffffffe0601f8301168501019250505092915050565b803573ffffffffffffffffffffffffffffffffffffffff81168114610b5b57600080fd5b919050565b600060208284031215610b7257600080fd5b6106e382610b37565b60008060408385031215610b8e57600080fd5b610b9783610b37565b915060208301358015158114610bac57600080fd5b809150509250929050565b600080600060608486031215610bcc57600080fd5b505081359360208301359350604090920135919050565b60008060408385031215610bf657600080fd5b82359150610c0660208401610b37565b90509250929050565b600060208284031215610c2157600080fd5b5035919050565b60008060408385031215610c3b57600080fd5b610c4483610b37565b946020939093013593505050565b7f4e487b7100000000000000000000000000000000000000000000000000000000600052604160045260246000fd5b604051610400810167ffffffffffffffff81118282101715610ca557610ca5610c52565b60405290565b6000610440808385031215610cbf57600080fd5b6040516060810181811067ffffffffffffffff82111715610ce257610ce2610c52565b6040528335815260208085013581830152605f85018613610d0257600080fd5b610d0a610c81565b928501928087851115610d1c57600080fd5b604087015b85811015610d385780358352918301918301610d21565b506040840152509095945050505050565b7f4e487b7100000000000000000000000000000000000000000000000000000000600052603260045260246000fd5b60007fffffffffffffffffffffffffffffffffffffffffffffffffffffffffffffffff8203610dd0577f4e487b7100000000000000000000000000000000000000000000000000000000600052601160045260246000fd5b506001019056fea264697066735822122011431f2b72c10531350db3f863ad19fec20407c0fc07e157633ab14d49854e5e64736f6c63430008110033",
	"devdoc": {
		"kind": "dev",
		"methods": {
			"importMessageRoot(uint256,uint256,bytes32)": {
				"details": "Only could be called by owner.",
				"params": {
					"blockNumber": "The source chain block number.",
					"chainId": "The source chain id.",
					"messageRoot": "The source chain message root corresponding to the channel."
				}
			},
			"merkleRoot(uint256,uint256)": {
				"params": {
					"blockNumber": "The block number where the message root is located.",
					"chainId": "The destination chain id."
				},
				"returns": {
					"_0": "Message root in destination chain."
				}
			},
			"verifyMessageProof(uint256,bytes32,bytes)": {
				"details": "Message proof provided by relayer. Oracle should provide message root of      source chain, and verify the merkle proof of the message hash.",
				"params": {
					"fromChainId": "Source chain id.",
					"msgHash": "Hash of the message.",
					"proof": "Merkle proof of the message"
				},
				"returns": {
					"_0": "Result of the message verify."
				}
			}
		},
		"version": 1
	},
	"userdoc": {
		"kind": "user",
		"methods": {
			"importMessageRoot(uint256,uint256,bytes32)": {
				"notice": "Each channel has a corresponding oracle, and the message root should match with it."
			},
			"merkleRoot(uint256,uint256)": {
				"notice": "Fetch message root oracle."
			},
			"verifyMessageProof(uint256,bytes32,bytes)": {
				"notice": "Verify message proof"
			}
		},
		"version": 1
	},
	"gitCommit": "0e5bb2880114148d83417b4053cc53fd84efbdbe",
	"sourceName": "lib/ORMP/src/eco/Oracle.sol",
	"chainId": "421614",
	"linkReferences": {},
	"deployedLinkReferences": {},
	"history": [
		{
			"_format": "sphinx-sol-ct-artifact-1",
			"merkleRoot": "0x898f394520bba93e7aa864ad25fe56255e55b3dc37f65c52ab9f6d909d0235ac",
			"contractName": "Oracle",
			"address": "0xC4975f18C730DF51707fE9D236297fDA7e7403bB",
			"abi": [
				{
					"type": "constructor",
					"inputs": [
						{
							"name": "dao",
							"type": "address",
							"internalType": "address"
						}
					],
					"stateMutability": "nonpayable"
				},
				{
					"type": "receive",
					"stateMutability": "payable"
				},
				{
					"type": "function",
					"name": "approvedOf",
					"inputs": [
						{
							"name": "",
							"type": "address",
							"internalType": "address"
						}
					],
					"outputs": [
						{
							"name": "",
							"type": "bool",
							"internalType": "bool"
						}
					],
					"stateMutability": "view"
				},
				{
					"type": "function",
					"name": "changeOwner",
					"inputs": [
						{
							"name": "newOwner",
							"type": "address",
							"internalType": "address"
						}
					],
					"outputs": [],
					"stateMutability": "nonpayable"
				},
				{
					"type": "function",
					"name": "fee",
					"inputs": [
						{
							"name": "toChainId",
							"type": "uint256",
							"internalType": "uint256"
						},
						{
							"name": "",
							"type": "address",
							"internalType": "address"
						}
					],
					"outputs": [
						{
							"name": "",
							"type": "uint256",
							"internalType": "uint256"
						}
					],
					"stateMutability": "view"
				},
				{
					"type": "function",
					"name": "feeOf",
					"inputs": [
						{
							"name": "",
							"type": "uint256",
							"internalType": "uint256"
						}
					],
					"outputs": [
						{
							"name": "",
							"type": "uint256",
							"internalType": "uint256"
						}
					],
					"stateMutability": "view"
				},
				{
					"type": "function",
					"name": "importMessageRoot",
					"inputs": [
						{
							"name": "chainId",
							"type": "uint256",
							"internalType": "uint256"
						},
						{
							"name": "blockNumber",
							"type": "uint256",
							"internalType": "uint256"
						},
						{
							"name": "messageRoot",
							"type": "bytes32",
							"internalType": "bytes32"
						}
					],
					"outputs": [],
					"stateMutability": "nonpayable"
				},
				{
					"type": "function",
					"name": "isApproved",
					"inputs": [
						{
							"name": "operator",
							"type": "address",
							"internalType": "address"
						}
					],
					"outputs": [
						{
							"name": "",
							"type": "bool",
							"internalType": "bool"
						}
					],
					"stateMutability": "view"
				},
				{
					"type": "function",
					"name": "merkleRoot",
					"inputs": [
						{
							"name": "chainId",
							"type": "uint256",
							"internalType": "uint256"
						},
						{
							"name": "blockNumber",
							"type": "uint256",
							"internalType": "uint256"
						}
					],
					"outputs": [
						{
							"name": "",
							"type": "bytes32",
							"internalType": "bytes32"
						}
					],
					"stateMutability": "view"
				},
				{
					"type": "function",
					"name": "owner",
					"inputs": [],
					"outputs": [
						{
							"name": "",
							"type": "address",
							"internalType": "address"
						}
					],
					"stateMutability": "view"
				},
				{
					"type": "function",
					"name": "setApproved",
					"inputs": [
						{
							"name": "operator",
							"type": "address",
							"internalType": "address"
						},
						{
							"name": "approve",
							"type": "bool",
							"internalType": "bool"
						}
					],
					"outputs": [],
					"stateMutability": "nonpayable"
				},
				{
					"type": "function",
					"name": "setFee",
					"inputs": [
						{
							"name": "chainId",
							"type": "uint256",
							"internalType": "uint256"
						},
						{
							"name": "fee_",
							"type": "uint256",
							"internalType": "uint256"
						}
					],
					"outputs": [],
					"stateMutability": "nonpayable"
				},
				{
					"type": "function",
					"name": "verifyMessageProof",
					"inputs": [
						{
							"name": "fromChainId",
							"type": "uint256",
							"internalType": "uint256"
						},
						{
							"name": "msgHash",
							"type": "bytes32",
							"internalType": "bytes32"
						},
						{
							"name": "proof",
							"type": "bytes",
							"internalType": "bytes"
						}
					],
					"outputs": [
						{
							"name": "",
							"type": "bool",
							"internalType": "bool"
						}
					],
					"stateMutability": "view"
				},
				{
					"type": "function",
					"name": "version",
					"inputs": [],
					"outputs": [
						{
							"name": "",
							"type": "string",
							"internalType": "string"
						}
					],
					"stateMutability": "pure"
				},
				{
					"type": "function",
					"name": "withdraw",
					"inputs": [
						{
							"name": "to",
							"type": "address",
							"internalType": "address"
						},
						{
							"name": "amount",
							"type": "uint256",
							"internalType": "uint256"
						}
					],
					"outputs": [],
					"stateMutability": "nonpayable"
				},
				{
					"type": "event",
					"name": "ImportedMessageRoot",
					"inputs": [
						{
							"name": "chainId",
							"type": "uint256",
							"indexed": true,
							"internalType": "uint256"
						},
						{
							"name": "blockHeight",
							"type": "uint256",
							"indexed": true,
							"internalType": "uint256"
						},
						{
							"name": "messageRoot",
							"type": "bytes32",
							"indexed": false,
							"internalType": "bytes32"
						}
					],
					"anonymous": false
				},
				{
					"type": "event",
					"name": "OwnershipTransferred",
					"inputs": [
						{
							"name": "previousOwner",
							"type": "address",
							"indexed": true,
							"internalType": "address"
						},
						{
							"name": "newOwner",
							"type": "address",
							"indexed": true,
							"internalType": "address"
						}
					],
					"anonymous": false
				},
				{
					"type": "event",
					"name": "SetApproved",
					"inputs": [
						{
							"name": "operator",
							"type": "address",
							"indexed": false,
							"internalType": "address"
						},
						{
							"name": "approve",
							"type": "bool",
							"indexed": false,
							"internalType": "bool"
						}
					],
					"anonymous": false
				},
				{
					"type": "event",
					"name": "SetFee",
					"inputs": [
						{
							"name": "chainId",
							"type": "uint256",
							"indexed": true,
							"internalType": "uint256"
						},
						{
							"name": "fee",
							"type": "uint256",
							"indexed": false,
							"internalType": "uint256"
						}
					],
					"anonymous": false
				},
				{
					"type": "event",
					"name": "Withdrawal",
					"inputs": [
						{
							"name": "to",
							"type": "address",
							"indexed": true,
							"internalType": "address"
						},
						{
							"name": "amt",
							"type": "uint256",
							"indexed": false,
							"internalType": "uint256"
						}
					],
					"anonymous": false
				}
			],
			"solcInputHash": "25ab1c6c9160fcca73b123b152ea1387",
			"receipt": {
				"blockHash": "0x4a255dffad57b3e9c90237d9d9337102b6f8464ce355417c712060f68d51ebdf",
				"blockNumber": 27524366,
				"contractAddress": null,
				"cumulativeGasUsed": "2103509",
				"from": "0xD70A2e6eACbdeDA77a5d4bBAE3bC70239A0e088f",
				"gasPrice": "100000000",
				"gasUsed": "2103509",
				"hash": "0x60e623f61a77ae4ac294f7da40d1dcf19d3044768fdf64956cee1d14de7dcd7a",
				"index": 1,
				"logs": [
					{
						"address": "0x701609866556Cb9A1FBD6B40201cD5899c9D2d56",
						"blockHash": "0x4a255dffad57b3e9c90237d9d9337102b6f8464ce355417c712060f68d51ebdf",
						"blockNumber": 27524366,
						"data": "0x",
						"index": 0,
						"topics": [
							"0x6895c13664aa4f67288b25d7a21d7aaa34916e355fb9b6fae0a139a9085becb8",
							"0x00000000000000000000000004678247ac000d74768e5caa72a221a0a7c2ae44"
						],
						"transactionHash": "0x60e623f61a77ae4ac294f7da40d1dcf19d3044768fdf64956cee1d14de7dcd7a",
						"transactionIndex": 1
					},
					{
						"address": "0x04678247aC000d74768E5CAa72a221A0a7C2Ae44",
						"blockHash": "0x4a255dffad57b3e9c90237d9d9337102b6f8464ce355417c712060f68d51ebdf",
						"blockNumber": 27524366,
						"data": "0x0000000000000000000000000000000000000000000000000000000000000001",
						"index": 1,
						"topics": [
							"0xa65fb05c5808f5f389d72edeaf719ce38f4cc55c1f69ca3cbfb31c21501caa07",
							"0x898f394520bba93e7aa864ad25fe56255e55b3dc37f65c52ab9f6d909d0235ac"
						],
						"transactionHash": "0x60e623f61a77ae4ac294f7da40d1dcf19d3044768fdf64956cee1d14de7dcd7a",
						"transactionIndex": 1
					},
					{
						"address": "0x701609866556Cb9A1FBD6B40201cD5899c9D2d56",
						"blockHash": "0x4a255dffad57b3e9c90237d9d9337102b6f8464ce355417c712060f68d51ebdf",
						"blockNumber": 27524366,
						"data": "0x",
						"index": 2,
						"topics": [
							"0x6895c13664aa4f67288b25d7a21d7aaa34916e355fb9b6fae0a139a9085becb8",
							"0x00000000000000000000000004678247ac000d74768e5caa72a221a0a7c2ae44"
						],
						"transactionHash": "0x60e623f61a77ae4ac294f7da40d1dcf19d3044768fdf64956cee1d14de7dcd7a",
						"transactionIndex": 1
					},
					{
						"address": "0x04678247aC000d74768E5CAa72a221A0a7C2Ae44",
						"blockHash": "0x4a255dffad57b3e9c90237d9d9337102b6f8464ce355417c712060f68d51ebdf",
						"blockNumber": 27524366,
						"data": "0x0000000000000000000000000000000000000000000000000000000000000002",
						"index": 3,
						"topics": [
							"0xa65fb05c5808f5f389d72edeaf719ce38f4cc55c1f69ca3cbfb31c21501caa07",
							"0x898f394520bba93e7aa864ad25fe56255e55b3dc37f65c52ab9f6d909d0235ac"
						],
						"transactionHash": "0x60e623f61a77ae4ac294f7da40d1dcf19d3044768fdf64956cee1d14de7dcd7a",
						"transactionIndex": 1
					},
					{
						"address": "0x04678247aC000d74768E5CAa72a221A0a7C2Ae44",
						"blockHash": "0x4a255dffad57b3e9c90237d9d9337102b6f8464ce355417c712060f68d51ebdf",
						"blockNumber": 27524366,
						"data": "0x",
						"index": 4,
						"topics": [
							"0x4383d976757d67ca920616be0b6430a681ea9d3dcce8d6d61d4603ca4a9bff63",
							"0x898f394520bba93e7aa864ad25fe56255e55b3dc37f65c52ab9f6d909d0235ac"
						],
						"transactionHash": "0x60e623f61a77ae4ac294f7da40d1dcf19d3044768fdf64956cee1d14de7dcd7a",
						"transactionIndex": 1
					}
				],
				"logsBloom": "0x00000000000010000000000000080000000000000000000000000000000000000000000000000000000000000000000000000000020000000000000000000000000000000000200000000100000000000000000000000000040000000000000800000000000000000000000000000000000000000800000000000000000000000000000000400000000000000000000000000000000000000020000000000000000000800000000000000000000000000200000080000000000000000004000000000000000000008000000000000008000000000000100000000008000000000000000000000008000000000000000200000000000000000000000008000000",
				"status": 1,
				"to": "0x04678247aC000d74768E5CAa72a221A0a7C2Ae44"
			},
			"metadata": "{\"compiler\":{\"version\":\"0.8.17+commit.8df45f5f\"},\"language\":\"Solidity\",\"output\":{\"abi\":[{\"inputs\":[{\"internalType\":\"address\",\"name\":\"dao\",\"type\":\"address\"}],\"stateMutability\":\"nonpayable\",\"type\":\"constructor\"},{\"inputs\":[{\"internalType\":\"uint256\",\"name\":\"chainId\",\"type\":\"uint256\",\"indexed\":true},{\"internalType\":\"uint256\",\"name\":\"blockHeight\",\"type\":\"uint256\",\"indexed\":true},{\"internalType\":\"bytes32\",\"name\":\"messageRoot\",\"type\":\"bytes32\",\"indexed\":false}],\"type\":\"event\",\"name\":\"ImportedMessageRoot\",\"anonymous\":false},{\"inputs\":[{\"internalType\":\"address\",\"name\":\"previousOwner\",\"type\":\"address\",\"indexed\":true},{\"internalType\":\"address\",\"name\":\"newOwner\",\"type\":\"address\",\"indexed\":true}],\"type\":\"event\",\"name\":\"OwnershipTransferred\",\"anonymous\":false},{\"inputs\":[{\"internalType\":\"address\",\"name\":\"operator\",\"type\":\"address\",\"indexed\":false},{\"internalType\":\"bool\",\"name\":\"approve\",\"type\":\"bool\",\"indexed\":false}],\"type\":\"event\",\"name\":\"SetApproved\",\"anonymous\":false},{\"inputs\":[{\"internalType\":\"uint256\",\"name\":\"chainId\",\"type\":\"uint256\",\"indexed\":true},{\"internalType\":\"uint256\",\"name\":\"fee\",\"type\":\"uint256\",\"indexed\":false}],\"type\":\"event\",\"name\":\"SetFee\",\"anonymous\":false},{\"inputs\":[{\"internalType\":\"address\",\"name\":\"to\",\"type\":\"address\",\"indexed\":true},{\"internalType\":\"uint256\",\"name\":\"amt\",\"type\":\"uint256\",\"indexed\":false}],\"type\":\"event\",\"name\":\"Withdrawal\",\"anonymous\":false},{\"inputs\":[{\"internalType\":\"address\",\"name\":\"\",\"type\":\"address\"}],\"stateMutability\":\"view\",\"type\":\"function\",\"name\":\"approvedOf\",\"outputs\":[{\"internalType\":\"bool\",\"name\":\"\",\"type\":\"bool\"}]},{\"inputs\":[{\"internalType\":\"address\",\"name\":\"newOwner\",\"type\":\"address\"}],\"stateMutability\":\"nonpayable\",\"type\":\"function\",\"name\":\"changeOwner\"},{\"inputs\":[{\"internalType\":\"uint256\",\"name\":\"toChainId\",\"type\":\"uint256\"},{\"internalType\":\"address\",\"name\":\"\",\"type\":\"address\"}],\"stateMutability\":\"view\",\"type\":\"function\",\"name\":\"fee\",\"outputs\":[{\"internalType\":\"uint256\",\"name\":\"\",\"type\":\"uint256\"}]},{\"inputs\":[{\"internalType\":\"uint256\",\"name\":\"\",\"type\":\"uint256\"}],\"stateMutability\":\"view\",\"type\":\"function\",\"name\":\"feeOf\",\"outputs\":[{\"internalType\":\"uint256\",\"name\":\"\",\"type\":\"uint256\"}]},{\"inputs\":[{\"internalType\":\"uint256\",\"name\":\"chainId\",\"type\":\"uint256\"},{\"internalType\":\"uint256\",\"name\":\"blockNumber\",\"type\":\"uint256\"},{\"internalType\":\"bytes32\",\"name\":\"messageRoot\",\"type\":\"bytes32\"}],\"stateMutability\":\"nonpayable\",\"type\":\"function\",\"name\":\"importMessageRoot\"},{\"inputs\":[{\"internalType\":\"address\",\"name\":\"operator\",\"type\":\"address\"}],\"stateMutability\":\"view\",\"type\":\"function\",\"name\":\"isApproved\",\"outputs\":[{\"internalType\":\"bool\",\"name\":\"\",\"type\":\"bool\"}]},{\"inputs\":[{\"internalType\":\"uint256\",\"name\":\"chainId\",\"type\":\"uint256\"},{\"internalType\":\"uint256\",\"name\":\"blockNumber\",\"type\":\"uint256\"}],\"stateMutability\":\"view\",\"type\":\"function\",\"name\":\"merkleRoot\",\"outputs\":[{\"internalType\":\"bytes32\",\"name\":\"\",\"type\":\"bytes32\"}]},{\"inputs\":[],\"stateMutability\":\"view\",\"type\":\"function\",\"name\":\"owner\",\"outputs\":[{\"internalType\":\"address\",\"name\":\"\",\"type\":\"address\"}]},{\"inputs\":[{\"internalType\":\"address\",\"name\":\"operator\",\"type\":\"address\"},{\"internalType\":\"bool\",\"name\":\"approve\",\"type\":\"bool\"}],\"stateMutability\":\"nonpayable\",\"type\":\"function\",\"name\":\"setApproved\"},{\"inputs\":[{\"internalType\":\"uint256\",\"name\":\"chainId\",\"type\":\"uint256\"},{\"internalType\":\"uint256\",\"name\":\"fee_\",\"type\":\"uint256\"}],\"stateMutability\":\"nonpayable\",\"type\":\"function\",\"name\":\"setFee\"},{\"inputs\":[{\"internalType\":\"uint256\",\"name\":\"fromChainId\",\"type\":\"uint256\"},{\"internalType\":\"bytes32\",\"name\":\"msgHash\",\"type\":\"bytes32\"},{\"internalType\":\"bytes\",\"name\":\"proof\",\"type\":\"bytes\"}],\"stateMutability\":\"view\",\"type\":\"function\",\"name\":\"verifyMessageProof\",\"outputs\":[{\"internalType\":\"bool\",\"name\":\"\",\"type\":\"bool\"}]},{\"inputs\":[],\"stateMutability\":\"pure\",\"type\":\"function\",\"name\":\"version\",\"outputs\":[{\"internalType\":\"string\",\"name\":\"\",\"type\":\"string\"}]},{\"inputs\":[{\"internalType\":\"address\",\"name\":\"to\",\"type\":\"address\"},{\"internalType\":\"uint256\",\"name\":\"amount\",\"type\":\"uint256\"}],\"stateMutability\":\"nonpayable\",\"type\":\"function\",\"name\":\"withdraw\"},{\"inputs\":[],\"stateMutability\":\"payable\",\"type\":\"receive\"}],\"devdoc\":{\"kind\":\"dev\",\"methods\":{\"importMessageRoot(uint256,uint256,bytes32)\":{\"details\":\"Only could be called by owner.\",\"params\":{\"blockNumber\":\"The source chain block number.\",\"chainId\":\"The source chain id.\",\"messageRoot\":\"The source chain message root corresponding to the channel.\"}},\"merkleRoot(uint256,uint256)\":{\"params\":{\"blockNumber\":\"The block number where the message root is located.\",\"chainId\":\"The destination chain id.\"},\"returns\":{\"_0\":\"Message root in destination chain.\"}},\"verifyMessageProof(uint256,bytes32,bytes)\":{\"details\":\"Message proof provided by relayer. Oracle should provide message root of      source chain, and verify the merkle proof of the message hash.\",\"params\":{\"fromChainId\":\"Source chain id.\",\"msgHash\":\"Hash of the message.\",\"proof\":\"Merkle proof of the message\"},\"returns\":{\"_0\":\"Result of the message verify.\"}}},\"version\":1},\"userdoc\":{\"kind\":\"user\",\"methods\":{\"importMessageRoot(uint256,uint256,bytes32)\":{\"notice\":\"Each channel has a corresponding oracle, and the message root should match with it.\"},\"merkleRoot(uint256,uint256)\":{\"notice\":\"Fetch message root oracle.\"},\"verifyMessageProof(uint256,bytes32,bytes)\":{\"notice\":\"Verify message proof\"}},\"version\":1}},\"settings\":{\"remappings\":[\"@darwinia-msgport/=lib/darwinia-msgport/\",\"@openzeppelin/contracts/=lib/openzeppelin-contracts/contracts/\",\"@openzeppelin/contracts@4.9.2/=lib/openzeppelin-contracts/contracts/\",\"@sphinx-labs/contracts/=lib/sphinx/packages/contracts/contracts/foundry/\",\"ORMP/=lib/ORMP/\",\"subapi/=lib/subapi/\"],\"optimizer\":{\"enabled\":true,\"runs\":999999},\"metadata\":{\"bytecodeHash\":\"ipfs\"},\"compilationTarget\":{\"lib/ORMP/src/eco/Oracle.sol\":\"Oracle\"},\"evmVersion\":\"london\",\"libraries\":{}},\"sources\":{\"lib/ORMP/src/Verifier.sol\":{\"keccak256\":\"0x3d61b8b81941f72eca88bc91c727de428e79bb512269bb56acab874b6832730e\",\"urls\":[\"bzz-raw://d99d95b732fc86394189b7e020bdeb712503380f829f227380fe5699e1b7c093\",\"dweb:/ipfs/QmS7pRNC1yFeii8RZqVz9KM9WDWVYH3D2MfahBFETxjFDg\"],\"license\":\"GPL-3.0\"},\"lib/ORMP/src/eco/Oracle.sol\":{\"keccak256\":\"0x16fb4a10276589e2ab73749c7782a2197691491fd33cd2d890df6468f89b5ab6\",\"urls\":[\"bzz-raw://6cdc7e81754a49a32ef773df74f3f9358a7e4ae5a01f7bff717b724f71d14b15\",\"dweb:/ipfs/QmfJ84XPAj8Shp9RQ98JcofHtiUBQC4Xj5m7HXp5CqUMLA\"],\"license\":\"GPL-3.0\"},\"lib/ORMP/src/imt/IncrementalMerkleTree.sol\":{\"keccak256\":\"0x535228355f8bd4339f42aa3dfe3cebcbdaad7a92704c4e3eeb0982dce8acf246\",\"urls\":[\"bzz-raw://9830ca0eb4837abdaaba548ea20fe14c67e23a392e09aaaa57b4032f9b81c49f\",\"dweb:/ipfs/QmYDw8c8zgLhxhxt3heCGJu7rYSgmEwKFjMfWrbJNcyPWj\"],\"license\":\"MIT OR Apache-2.0\"},\"lib/ORMP/src/interfaces/IVerifier.sol\":{\"keccak256\":\"0x60ad4dbeb54c04aa1c389a2dab7c9bca361eb2df245b3a29f0851be697876099\",\"urls\":[\"bzz-raw://57f1c8949abccaef95ab207257bfcf7b12f19756e0c90184ad39a8bdb2dc559a\",\"dweb:/ipfs/Qmd1LBiTn3nzfzhGHmdM2YdbWLUkca6wZfPBo1rWqPcoau\"],\"license\":\"GPL-3.0\"}},\"version\":1}",
			"args": [
				"0x701609866556Cb9A1FBD6B40201cD5899c9D2d56"
			],
			"bytecode": "0x608060405234801561001057600080fd5b50604051610ea0380380610ea083398101604081905261002f91610054565b600080546001600160a01b0319166001600160a01b0392909216919091179055610084565b60006020828403121561006657600080fd5b81516001600160a01b038116811461007d57600080fd5b9392505050565b610e0d806100936000396000f3fe6080604052600436106100d65760003560e01c806384eb29091161007f578063a6f9dae111610059578063a6f9dae1146102c3578063af9e3a36146102e3578063b6333d1614610310578063f3fef3a31461034057600080fd5b806384eb2909146102315780638da5cb5b14610251578063a1dbf432146102a357600080fd5b8063673448dd116100b0578063673448dd1461018557806378f53aa9146101cb57806384cfb6801461021157600080fd5b8063094f87c5146100e257806352f7c9881461011757806354fd4d501461013957600080fd5b366100dd57005b600080fd5b3480156100ee57600080fd5b506101026100fd366004610a29565b610360565b60405190151581526020015b60405180910390f35b34801561012357600080fd5b50610137610132366004610aa9565b6103b4565b005b34801561014557600080fd5b50604080518082018252600581527f322e302e300000000000000000000000000000000000000000000000000000006020820152905161010e9190610acb565b34801561019157600080fd5b506101026101a0366004610b60565b73ffffffffffffffffffffffffffffffffffffffff1660009081526003602052604090205460ff1690565b3480156101d757600080fd5b506102036101e6366004610aa9565b600091825260026020908152604080842092845291905290205490565b60405190815260200161010e565b34801561021d57600080fd5b5061013761022c366004610b7b565b610483565b34801561023d57600080fd5b5061013761024c366004610bb7565b610592565b34801561025d57600080fd5b5060005461027e9073ffffffffffffffffffffffffffffffffffffffff1681565b60405173ffffffffffffffffffffffffffffffffffffffff909116815260200161010e565b3480156102af57600080fd5b506102036102be366004610be3565b610669565b3480156102cf57600080fd5b506101376102de366004610b60565b6106ea565b3480156102ef57600080fd5b506102036102fe366004610c0f565b60016020526000908152604090205481565b34801561031c57600080fd5b5061010261032b366004610b60565b60036020526000908152604090205460ff1681565b34801561034c57600080fd5b5061013761035b366004610c28565b6107e0565b60008061036f83850185610cab565b80516000888152600260209081526040808320938352929052908120549192505060006103a58784604001518560200151610978565b91909114979650505050505050565b3360009081526003602052604090205460ff16610432576040517f08c379a000000000000000000000000000000000000000000000000000000000815260206004820152600860248201527f21617070726f766500000000000000000000000000000000000000000000000060448201526064015b60405180910390fd5b600082815260016020526040908190208290555182907f032dc6a2d839eb179729a55633fdf1c41a1fc4739394154117005db2b354b9b5906104779084815260200190565b60405180910390a25050565b60005473ffffffffffffffffffffffffffffffffffffffff163314610504576040517f08c379a000000000000000000000000000000000000000000000000000000000815260206004820152600660248201527f216f776e657200000000000000000000000000000000000000000000000000006044820152606401610429565b73ffffffffffffffffffffffffffffffffffffffff821660008181526003602090815260409182902080547fffffffffffffffffffffffffffffffffffffffffffffffffffffffffffffff00168515159081179091558251938452908301527fd984ea421ae5d2a473199f85e03998a04a12f54d6f1fa183a955b3df1c0c546d910160405180910390a15050565b60005473ffffffffffffffffffffffffffffffffffffffff163314610613576040517f08c379a000000000000000000000000000000000000000000000000000000000815260206004820152600660248201527f216f776e657200000000000000000000000000000000000000000000000000006044820152606401610429565b60008381526002602090815260408083208584528252918290208390559051828152839185917fa6b41f61ef8e9987ff2f17d25f9821161e7c2c365b1f7e724875e498847b14c9910160405180910390a3505050565b6000828152600160205260408120548082036106e3576040517f08c379a00000000000000000000000000000000000000000000000000000000081526004016104299060208082526004908201527f2166656500000000000000000000000000000000000000000000000000000000604082015260600190565b9392505050565b60005473ffffffffffffffffffffffffffffffffffffffff16331461076b576040517f08c379a000000000000000000000000000000000000000000000000000000000815260206004820152600660248201527f216f776e657200000000000000000000000000000000000000000000000000006044820152606401610429565b6000805473ffffffffffffffffffffffffffffffffffffffff8381167fffffffffffffffffffffffff0000000000000000000000000000000000000000831681178455604051919092169283917f8be0079c531659141344cd1fd0a4f28419497f9722a3daafe3b4186f6b6457e09190a35050565b3360009081526003602052604090205460ff16610859576040517f08c379a000000000000000000000000000000000000000000000000000000000815260206004820152600860248201527f21617070726f76650000000000000000000000000000000000000000000000006044820152606401610429565b60008273ffffffffffffffffffffffffffffffffffffffff168260405160006040518083038185875af1925050503d80600081146108b3576040519150601f19603f3d011682016040523d82523d6000602084013e6108b8565b606091505b5050905080610923576040517f08c379a000000000000000000000000000000000000000000000000000000000815260206004820152600960248201527f21776974686472617700000000000000000000000000000000000000000000006044820152606401610429565b8273ffffffffffffffffffffffffffffffffffffffff167f7fcf532c15f0a6db0bd6d0e038bea71d30d808c7d98cb3bf7268a95bf5081b658360405161096b91815260200190565b60405180910390a2505050565b8260005b6020811015610a2157600183821c16600085836020811061099f5761099f610d49565b60200201519050816001036109df576040805160208101839052908101859052606001604051602081830303815290604052805190602001209350610a0c565b60408051602081018690529081018290526060016040516020818303038152906040528051906020012093505b50508080610a1990610d78565b91505061097c565b509392505050565b60008060008060608587031215610a3f57600080fd5b8435935060208501359250604085013567ffffffffffffffff80821115610a6557600080fd5b818701915087601f830112610a7957600080fd5b813581811115610a8857600080fd5b886020828501011115610a9a57600080fd5b95989497505060200194505050565b60008060408385031215610abc57600080fd5b50508035926020909101359150565b600060208083528351808285015260005b81811015610af857858101830151858201604001528201610adc565b5060006040828601015260407fffffffffffffffffffffffffffffffffffffffffffffffffffffffffffffffe0601f8301168501019250505092915050565b803573ffffffffffffffffffffffffffffffffffffffff81168114610b5b57600080fd5b919050565b600060208284031215610b7257600080fd5b6106e382610b37565b60008060408385031215610b8e57600080fd5b610b9783610b37565b915060208301358015158114610bac57600080fd5b809150509250929050565b600080600060608486031215610bcc57600080fd5b505081359360208301359350604090920135919050565b60008060408385031215610bf657600080fd5b82359150610c0660208401610b37565b90509250929050565b600060208284031215610c2157600080fd5b5035919050565b60008060408385031215610c3b57600080fd5b610c4483610b37565b946020939093013593505050565b7f4e487b7100000000000000000000000000000000000000000000000000000000600052604160045260246000fd5b604051610400810167ffffffffffffffff81118282101715610ca557610ca5610c52565b60405290565b6000610440808385031215610cbf57600080fd5b6040516060810181811067ffffffffffffffff82111715610ce257610ce2610c52565b6040528335815260208085013581830152605f85018613610d0257600080fd5b610d0a610c81565b928501928087851115610d1c57600080fd5b604087015b85811015610d385780358352918301918301610d21565b506040840152509095945050505050565b7f4e487b7100000000000000000000000000000000000000000000000000000000600052603260045260246000fd5b60007fffffffffffffffffffffffffffffffffffffffffffffffffffffffffffffffff8203610dd0577f4e487b7100000000000000000000000000000000000000000000000000000000600052601160045260246000fd5b506001019056fea264697066735822122031aa67e505642cf29186a0e5002e076b68d83f1b1d4402036b9a5676358107d264736f6c63430008110033",
			"deployedBytecode": "0x6080604052600436106100d65760003560e01c806384eb29091161007f578063a6f9dae111610059578063a6f9dae1146102c3578063af9e3a36146102e3578063b6333d1614610310578063f3fef3a31461034057600080fd5b806384eb2909146102315780638da5cb5b14610251578063a1dbf432146102a357600080fd5b8063673448dd116100b0578063673448dd1461018557806378f53aa9146101cb57806384cfb6801461021157600080fd5b8063094f87c5146100e257806352f7c9881461011757806354fd4d501461013957600080fd5b366100dd57005b600080fd5b3480156100ee57600080fd5b506101026100fd366004610a29565b610360565b60405190151581526020015b60405180910390f35b34801561012357600080fd5b50610137610132366004610aa9565b6103b4565b005b34801561014557600080fd5b50604080518082018252600581527f322e302e300000000000000000000000000000000000000000000000000000006020820152905161010e9190610acb565b34801561019157600080fd5b506101026101a0366004610b60565b73ffffffffffffffffffffffffffffffffffffffff1660009081526003602052604090205460ff1690565b3480156101d757600080fd5b506102036101e6366004610aa9565b600091825260026020908152604080842092845291905290205490565b60405190815260200161010e565b34801561021d57600080fd5b5061013761022c366004610b7b565b610483565b34801561023d57600080fd5b5061013761024c366004610bb7565b610592565b34801561025d57600080fd5b5060005461027e9073ffffffffffffffffffffffffffffffffffffffff1681565b60405173ffffffffffffffffffffffffffffffffffffffff909116815260200161010e565b3480156102af57600080fd5b506102036102be366004610be3565b610669565b3480156102cf57600080fd5b506101376102de366004610b60565b6106ea565b3480156102ef57600080fd5b506102036102fe366004610c0f565b60016020526000908152604090205481565b34801561031c57600080fd5b5061010261032b366004610b60565b60036020526000908152604090205460ff1681565b34801561034c57600080fd5b5061013761035b366004610c28565b6107e0565b60008061036f83850185610cab565b80516000888152600260209081526040808320938352929052908120549192505060006103a58784604001518560200151610978565b91909114979650505050505050565b3360009081526003602052604090205460ff16610432576040517f08c379a000000000000000000000000000000000000000000000000000000000815260206004820152600860248201527f21617070726f766500000000000000000000000000000000000000000000000060448201526064015b60405180910390fd5b600082815260016020526040908190208290555182907f032dc6a2d839eb179729a55633fdf1c41a1fc4739394154117005db2b354b9b5906104779084815260200190565b60405180910390a25050565b60005473ffffffffffffffffffffffffffffffffffffffff163314610504576040517f08c379a000000000000000000000000000000000000000000000000000000000815260206004820152600660248201527f216f776e657200000000000000000000000000000000000000000000000000006044820152606401610429565b73ffffffffffffffffffffffffffffffffffffffff821660008181526003602090815260409182902080547fffffffffffffffffffffffffffffffffffffffffffffffffffffffffffffff00168515159081179091558251938452908301527fd984ea421ae5d2a473199f85e03998a04a12f54d6f1fa183a955b3df1c0c546d910160405180910390a15050565b60005473ffffffffffffffffffffffffffffffffffffffff163314610613576040517f08c379a000000000000000000000000000000000000000000000000000000000815260206004820152600660248201527f216f776e657200000000000000000000000000000000000000000000000000006044820152606401610429565b60008381526002602090815260408083208584528252918290208390559051828152839185917fa6b41f61ef8e9987ff2f17d25f9821161e7c2c365b1f7e724875e498847b14c9910160405180910390a3505050565b6000828152600160205260408120548082036106e3576040517f08c379a00000000000000000000000000000000000000000000000000000000081526004016104299060208082526004908201527f2166656500000000000000000000000000000000000000000000000000000000604082015260600190565b9392505050565b60005473ffffffffffffffffffffffffffffffffffffffff16331461076b576040517f08c379a000000000000000000000000000000000000000000000000000000000815260206004820152600660248201527f216f776e657200000000000000000000000000000000000000000000000000006044820152606401610429565b6000805473ffffffffffffffffffffffffffffffffffffffff8381167fffffffffffffffffffffffff0000000000000000000000000000000000000000831681178455604051919092169283917f8be0079c531659141344cd1fd0a4f28419497f9722a3daafe3b4186f6b6457e09190a35050565b3360009081526003602052604090205460ff16610859576040517f08c379a000000000000000000000000000000000000000000000000000000000815260206004820152600860248201527f21617070726f76650000000000000000000000000000000000000000000000006044820152606401610429565b60008273ffffffffffffffffffffffffffffffffffffffff168260405160006040518083038185875af1925050503d80600081146108b3576040519150601f19603f3d011682016040523d82523d6000602084013e6108b8565b606091505b5050905080610923576040517f08c379a000000000000000000000000000000000000000000000000000000000815260206004820152600960248201527f21776974686472617700000000000000000000000000000000000000000000006044820152606401610429565b8273ffffffffffffffffffffffffffffffffffffffff167f7fcf532c15f0a6db0bd6d0e038bea71d30d808c7d98cb3bf7268a95bf5081b658360405161096b91815260200190565b60405180910390a2505050565b8260005b6020811015610a2157600183821c16600085836020811061099f5761099f610d49565b60200201519050816001036109df576040805160208101839052908101859052606001604051602081830303815290604052805190602001209350610a0c565b60408051602081018690529081018290526060016040516020818303038152906040528051906020012093505b50508080610a1990610d78565b91505061097c565b509392505050565b60008060008060608587031215610a3f57600080fd5b8435935060208501359250604085013567ffffffffffffffff80821115610a6557600080fd5b818701915087601f830112610a7957600080fd5b813581811115610a8857600080fd5b886020828501011115610a9a57600080fd5b95989497505060200194505050565b60008060408385031215610abc57600080fd5b50508035926020909101359150565b600060208083528351808285015260005b81811015610af857858101830151858201604001528201610adc565b5060006040828601015260407fffffffffffffffffffffffffffffffffffffffffffffffffffffffffffffffe0601f8301168501019250505092915050565b803573ffffffffffffffffffffffffffffffffffffffff81168114610b5b57600080fd5b919050565b600060208284031215610b7257600080fd5b6106e382610b37565b60008060408385031215610b8e57600080fd5b610b9783610b37565b915060208301358015158114610bac57600080fd5b809150509250929050565b600080600060608486031215610bcc57600080fd5b505081359360208301359350604090920135919050565b60008060408385031215610bf657600080fd5b82359150610c0660208401610b37565b90509250929050565b600060208284031215610c2157600080fd5b5035919050565b60008060408385031215610c3b57600080fd5b610c4483610b37565b946020939093013593505050565b7f4e487b7100000000000000000000000000000000000000000000000000000000600052604160045260246000fd5b604051610400810167ffffffffffffffff81118282101715610ca557610ca5610c52565b60405290565b6000610440808385031215610cbf57600080fd5b6040516060810181811067ffffffffffffffff82111715610ce257610ce2610c52565b6040528335815260208085013581830152605f85018613610d0257600080fd5b610d0a610c81565b928501928087851115610d1c57600080fd5b604087015b85811015610d385780358352918301918301610d21565b506040840152509095945050505050565b7f4e487b7100000000000000000000000000000000000000000000000000000000600052603260045260246000fd5b60007fffffffffffffffffffffffffffffffffffffffffffffffffffffffffffffffff8203610dd0577f4e487b7100000000000000000000000000000000000000000000000000000000600052601160045260246000fd5b506001019056fea264697066735822122031aa67e505642cf29186a0e5002e076b68d83f1b1d4402036b9a5676358107d264736f6c63430008110033",
			"devdoc": {
				"kind": "dev",
				"methods": {
					"importMessageRoot(uint256,uint256,bytes32)": {
						"details": "Only could be called by owner.",
						"params": {
							"blockNumber": "The source chain block number.",
							"chainId": "The source chain id.",
							"messageRoot": "The source chain message root corresponding to the channel."
						}
					},
					"merkleRoot(uint256,uint256)": {
						"params": {
							"blockNumber": "The block number where the message root is located.",
							"chainId": "The destination chain id."
						},
						"returns": {
							"_0": "Message root in destination chain."
						}
					},
					"verifyMessageProof(uint256,bytes32,bytes)": {
						"details": "Message proof provided by relayer. Oracle should provide message root of      source chain, and verify the merkle proof of the message hash.",
						"params": {
							"fromChainId": "Source chain id.",
							"msgHash": "Hash of the message.",
							"proof": "Merkle proof of the message"
						},
						"returns": {
							"_0": "Result of the message verify."
						}
					}
				},
				"version": 1
			},
			"userdoc": {
				"kind": "user",
				"methods": {
					"importMessageRoot(uint256,uint256,bytes32)": {
						"notice": "Each channel has a corresponding oracle, and the message root should match with it."
					},
					"merkleRoot(uint256,uint256)": {
						"notice": "Fetch message root oracle."
					},
					"verifyMessageProof(uint256,bytes32,bytes)": {
						"notice": "Verify message proof"
					}
				},
				"version": 1
			},
			"gitCommit": "ea8caff26eeb31c3189033ff62ea530464fdf5ab",
			"sourceName": "lib/ORMP/src/eco/Oracle.sol",
			"chainId": "421614",
			"linkReferences": {},
			"deployedLinkReferences": {}
		}
	]
}