{
	"_format": "sphinx-sol-ct-artifact-1",
	"merkleRoot": "0x1217d5ff5f8a90c2a4e64d21b1b60e9598d59f35dad8476be59d0ac060b25310",
	"contractName": "ORMPUpgradeablePort",
	"address": "0x0E5Cb943B32F812FC4Dac13873715e9d09Da70F4",
	"abi": [
		{
			"type": "constructor",
			"inputs": [
				{
					"name": "dao",
					"type": "address",
					"internalType": "address"
				},
				{
					"name": "ormp_",
					"type": "address",
					"internalType": "address"
				},
				{
					"name": "name",
					"type": "string",
					"internalType": "string"
				}
			],
			"stateMutability": "nonpayable"
		},
		{
			"type": "function",
			"name": "LOCAL_CHAINID",
			"inputs": [],
			"outputs": [
				{
					"name": "",
					"type": "uint256",
					"internalType": "uint256"
				}
			],
			"stateMutability": "view"
		},
		{
			"type": "function",
			"name": "acceptOwnership",
			"inputs": [],
			"outputs": [],
			"stateMutability": "nonpayable"
		},
		{
			"type": "function",
			"name": "delORMP",
			"inputs": [
				{
					"name": "ormp_",
					"type": "address",
					"internalType": "address"
				}
			],
			"outputs": [],
			"stateMutability": "nonpayable"
		},
		{
			"type": "function",
			"name": "fee",
			"inputs": [
				{
					"name": "toChainId",
					"type": "uint256",
					"internalType": "uint256"
				},
				{
					"name": "toDapp",
					"type": "address",
					"internalType": "address"
				},
				{
					"name": "message",
					"type": "bytes",
					"internalType": "bytes"
				},
				{
					"name": "params",
					"type": "bytes",
					"internalType": "bytes"
				}
			],
			"outputs": [
				{
					"name": "",
					"type": "uint256",
					"internalType": "uint256"
				}
			],
			"stateMutability": "view"
		},
		{
			"type": "function",
			"name": "fromPortLookup",
			"inputs": [
				{
					"name": "",
					"type": "uint256",
					"internalType": "uint256"
				}
			],
			"outputs": [
				{
					"name": "",
					"type": "address",
					"internalType": "address"
				}
			],
			"stateMutability": "view"
		},
		{
			"type": "function",
			"name": "historyORMPAt",
			"inputs": [
				{
					"name": "index",
					"type": "uint256",
					"internalType": "uint256"
				}
			],
			"outputs": [
				{
					"name": "",
					"type": "address",
					"internalType": "address"
				}
			],
			"stateMutability": "view"
		},
		{
			"type": "function",
			"name": "historyORMPContains",
			"inputs": [
				{
					"name": "ormp_",
					"type": "address",
					"internalType": "address"
				}
			],
			"outputs": [
				{
					"name": "",
					"type": "bool",
					"internalType": "bool"
				}
			],
			"stateMutability": "view"
		},
		{
			"type": "function",
			"name": "historyORMPLength",
			"inputs": [],
			"outputs": [
				{
					"name": "",
					"type": "uint256",
					"internalType": "uint256"
				}
			],
			"stateMutability": "view"
		},
		{
			"type": "function",
			"name": "historyORMPs",
			"inputs": [],
			"outputs": [
				{
					"name": "",
					"type": "address[]",
					"internalType": "address[]"
				}
			],
			"stateMutability": "view"
		},
		{
			"type": "function",
			"name": "name",
			"inputs": [],
			"outputs": [
				{
					"name": "",
					"type": "string",
					"internalType": "string"
				}
			],
			"stateMutability": "view"
		},
		{
			"type": "function",
			"name": "ormp",
			"inputs": [],
			"outputs": [
				{
					"name": "",
					"type": "address",
					"internalType": "address"
				}
			],
			"stateMutability": "view"
		},
		{
			"type": "function",
			"name": "owner",
			"inputs": [],
			"outputs": [
				{
					"name": "",
					"type": "address",
					"internalType": "address"
				}
			],
			"stateMutability": "view"
		},
		{
			"type": "function",
			"name": "pendingOwner",
			"inputs": [],
			"outputs": [
				{
					"name": "",
					"type": "address",
					"internalType": "address"
				}
			],
			"stateMutability": "view"
		},
		{
			"type": "function",
			"name": "recv",
			"inputs": [
				{
					"name": "fromDapp",
					"type": "address",
					"internalType": "address"
				},
				{
					"name": "toDapp",
					"type": "address",
					"internalType": "address"
				},
				{
					"name": "message",
					"type": "bytes",
					"internalType": "bytes"
				}
			],
			"outputs": [],
			"stateMutability": "payable"
		},
		{
			"type": "function",
			"name": "renounceOwnership",
			"inputs": [],
			"outputs": [],
			"stateMutability": "nonpayable"
		},
		{
			"type": "function",
			"name": "send",
			"inputs": [
				{
					"name": "toChainId",
					"type": "uint256",
					"internalType": "uint256"
				},
				{
					"name": "toDapp",
					"type": "address",
					"internalType": "address"
				},
				{
					"name": "message",
					"type": "bytes",
					"internalType": "bytes"
				},
				{
					"name": "params",
					"type": "bytes",
					"internalType": "bytes"
				}
			],
			"outputs": [],
			"stateMutability": "payable"
		},
		{
			"type": "function",
			"name": "setAppConfig",
			"inputs": [
				{
					"name": "ormp_",
					"type": "address",
					"internalType": "address"
				},
				{
					"name": "oracle",
					"type": "address",
					"internalType": "address"
				},
				{
					"name": "relayer",
					"type": "address",
					"internalType": "address"
				}
			],
			"outputs": [],
			"stateMutability": "nonpayable"
		},
		{
			"type": "function",
			"name": "setFromPort",
			"inputs": [
				{
					"name": "_fromChainId",
					"type": "uint256",
					"internalType": "uint256"
				},
				{
					"name": "_fromPortAddress",
					"type": "address",
					"internalType": "address"
				}
			],
			"outputs": [],
			"stateMutability": "nonpayable"
		},
		{
			"type": "function",
			"name": "setORMP",
			"inputs": [
				{
					"name": "ormp_",
					"type": "address",
					"internalType": "address"
				}
			],
			"outputs": [],
			"stateMutability": "nonpayable"
		},
		{
			"type": "function",
			"name": "setToPort",
			"inputs": [
				{
					"name": "_toChainId",
					"type": "uint256",
					"internalType": "uint256"
				},
				{
					"name": "_toPortAddress",
					"type": "address",
					"internalType": "address"
				}
			],
			"outputs": [],
			"stateMutability": "nonpayable"
		},
		{
			"type": "function",
			"name": "setURI",
			"inputs": [
				{
					"name": "uri",
					"type": "string",
					"internalType": "string"
				}
			],
			"outputs": [],
			"stateMutability": "nonpayable"
		},
		{
			"type": "function",
			"name": "toPortLookup",
			"inputs": [
				{
					"name": "",
					"type": "uint256",
					"internalType": "uint256"
				}
			],
			"outputs": [
				{
					"name": "",
					"type": "address",
					"internalType": "address"
				}
			],
			"stateMutability": "view"
		},
		{
			"type": "function",
			"name": "transferOwnership",
			"inputs": [
				{
					"name": "newOwner",
					"type": "address",
					"internalType": "address"
				}
			],
			"outputs": [],
			"stateMutability": "nonpayable"
		},
		{
			"type": "function",
			"name": "uri",
			"inputs": [],
			"outputs": [
				{
					"name": "",
					"type": "string",
					"internalType": "string"
				}
			],
			"stateMutability": "view"
		},
		{
			"type": "event",
			"name": "HistoryORMPAdded",
			"inputs": [
				{
					"name": "ormp",
					"type": "address",
					"indexed": false,
					"internalType": "address"
				}
			],
			"anonymous": false
		},
		{
			"type": "event",
			"name": "HistoryORMPDeleted",
			"inputs": [
				{
					"name": "ormp",
					"type": "address",
					"indexed": false,
					"internalType": "address"
				}
			],
			"anonymous": false
		},
		{
			"type": "event",
			"name": "OwnershipTransferStarted",
			"inputs": [
				{
					"name": "previousOwner",
					"type": "address",
					"indexed": true,
					"internalType": "address"
				},
				{
					"name": "newOwner",
					"type": "address",
					"indexed": true,
					"internalType": "address"
				}
			],
			"anonymous": false
		},
		{
			"type": "event",
			"name": "OwnershipTransferred",
			"inputs": [
				{
					"name": "previousOwner",
					"type": "address",
					"indexed": true,
					"internalType": "address"
				},
				{
					"name": "newOwner",
					"type": "address",
					"indexed": true,
					"internalType": "address"
				}
			],
			"anonymous": false
		},
		{
			"type": "event",
			"name": "SetFromPort",
			"inputs": [
				{
					"name": "fromChainId",
					"type": "uint256",
					"indexed": false,
					"internalType": "uint256"
				},
				{
					"name": "fromPort",
					"type": "address",
					"indexed": false,
					"internalType": "address"
				}
			],
			"anonymous": false
		},
		{
			"type": "event",
			"name": "SetORMP",
			"inputs": [
				{
					"name": "previousORMP",
					"type": "address",
					"indexed": false,
					"internalType": "address"
				},
				{
					"name": "currentORMP",
					"type": "address",
					"indexed": false,
					"internalType": "address"
				}
			],
			"anonymous": false
		},
		{
			"type": "event",
			"name": "SetToPort",
			"inputs": [
				{
					"name": "toChainId",
					"type": "uint256",
					"indexed": false,
					"internalType": "uint256"
				},
				{
					"name": "toPort",
					"type": "address",
					"indexed": false,
					"internalType": "address"
				}
			],
			"anonymous": false
		},
		{
			"type": "event",
			"name": "URI",
			"inputs": [
				{
					"name": "uri",
					"type": "string",
					"indexed": false,
					"internalType": "string"
				}
			],
			"anonymous": false
		},
		{
			"type": "error",
			"name": "MessageFailure",
			"inputs": [
				{
					"name": "errorData",
					"type": "bytes",
					"internalType": "bytes"
				}
			]
		}
	],
	"solcInputHash": "28e8bfd30f2572aaef5ec007af4b0a0f",
	"args": [
		"0x701609866556Cb9A1FBD6B40201cD5899c9D2d56",
		"0x0000000000000000000000000000000000000000",
		"ORMP-U"
	],
	"bytecode": "0x60806040523480156200001157600080fd5b5060405162002452380380620024528339810160408190526200003491620001c0565b80806200004133620000a1565b60026200004f828262000349565b5050506200006383620000a160201b60201c565b600680546001600160a01b0319166001600160a01b03841617905562000097600783620000cb602090811b62000e4f17901c565b5050505062000415565b600180546001600160a01b0319169055620000c881620000eb602090811b62000e7817901c565b50565b6000620000e2836001600160a01b0384166200013b565b90505b92915050565b600080546001600160a01b038381166001600160a01b0319831681178455604051919092169283917f8be0079c531659141344cd1fd0a4f28419497f9722a3daafe3b4186f6b6457e09190a35050565b60008181526001830160205260408120546200018457508154600181810184556000848152602080822090930184905584548482528286019093526040902091909155620000e5565b506000620000e5565b80516001600160a01b0381168114620001a557600080fd5b919050565b634e487b7160e01b600052604160045260246000fd5b600080600060608486031215620001d657600080fd5b620001e1846200018d565b92506020620001f28186016200018d565b60408601519093506001600160401b03808211156200021057600080fd5b818701915087601f8301126200022557600080fd5b8151818111156200023a576200023a620001aa565b604051601f8201601f19908116603f01168101908382118183101715620002655762000265620001aa565b816040528281528a868487010111156200027e57600080fd5b600093505b82841015620002a2578484018601518185018701529285019262000283565b60008684830101528096505050505050509250925092565b600181811c90821680620002cf57607f821691505b602082108103620002f057634e487b7160e01b600052602260045260246000fd5b50919050565b601f8211156200034457600081815260208120601f850160051c810160208610156200031f5750805b601f850160051c820191505b8181101562000340578281556001016200032b565b5050505b505050565b81516001600160401b03811115620003655762000365620001aa565b6200037d81620003768454620002ba565b84620002f6565b602080601f831160018114620003b557600084156200039c5750858301515b600019600386901b1c1916600185901b17855562000340565b600085815260208120601f198616915b82811015620003e657888601518255948401946001909101908401620003c5565b5085821015620004055787850151600019600388901b60f8161c191681555b5050505050600190811b01905550565b61202d80620004256000396000f3fe60806040526004361061018b5760003560e01c806379ba5097116100d6578063e30c39781161007f578063f2fde38b11610059578063f2fde38b14610496578063fa418ef2146104b6578063fd0d5a19146104d657600080fd5b8063e30c397814610436578063ea3de3d314610461578063eac989f81461048157600080fd5b8063964188a1116100b0578063964188a1146103b0578063968c4441146103f3578063b0ff5e721461042357600080fd5b806379ba5097146103505780637e136c64146103655780638da5cb5b1461038557600080fd5b8063416d69431161013857806366c16c901161011257806366c16c90146103065780636b75f3111461031b578063715018a61461033b57600080fd5b8063416d6943146102835780634d16220d146102c65780634d8464a6146102e657600080fd5b8063376451181161016957806337645118146101f0578063394d1bca146102425780633eac43701461025557600080fd5b806302fe53051461019057806306fdde03146101b257806316fe55ae146101dd575b600080fd5b34801561019c57600080fd5b506101b06101ab366004611804565b6104f8565b005b3480156101be57600080fd5b506101c7610543565b6040516101d491906118b4565b60405180910390f35b6101b06101eb3660046118e9565b6105d5565b3480156101fc57600080fd5b5060065461021d9073ffffffffffffffffffffffffffffffffffffffff1681565b60405173ffffffffffffffffffffffffffffffffffffffff90911681526020016101d4565b6101b0610250366004611975565b6105ec565b34801561026157600080fd5b506102756102703660046118e9565b610754565b6040519081526020016101d4565b34801561028f57600080fd5b5061021d61029e3660046119da565b60046020526000908152604090205473ffffffffffffffffffffffffffffffffffffffff1681565b3480156102d257600080fd5b5061021d6102e13660046119da565b6108b6565b3480156102f257600080fd5b506101b06103013660046119f3565b6108c9565b34801561031257600080fd5b50610275610a26565b34801561032757600080fd5b506101b0610336366004611a10565b610a37565b34801561034757600080fd5b506101b0610a49565b34801561035c57600080fd5b506101b0610a5d565b34801561037157600080fd5b506101b0610380366004611a40565b610b12565b34801561039157600080fd5b5060005473ffffffffffffffffffffffffffffffffffffffff1661021d565b3480156103bc57600080fd5b5061021d6103cb3660046119da565b60056020526000908152604090205473ffffffffffffffffffffffffffffffffffffffff1681565b3480156103ff57600080fd5b5061041361040e3660046119f3565b610c19565b60405190151581526020016101d4565b34801561042f57600080fd5b5046610275565b34801561044257600080fd5b5060015473ffffffffffffffffffffffffffffffffffffffff1661021d565b34801561046d57600080fd5b506101b061047c3660046119f3565b610c26565b34801561048d57600080fd5b506101c7610d72565b3480156104a257600080fd5b506101b06104b13660046119f3565b610d81565b3480156104c257600080fd5b506101b06104d1366004611a10565b610e31565b3480156104e257600080fd5b506104eb610e43565b6040516101d49190611a8b565b610500610eed565b61053f82828080601f016020809104026020016040519081016040528093929190818152602001838380828437600092019190915250610f6e92505050565b5050565b60606002805461055290611ae5565b80601f016020809104026020016040519081016040528092919081815260200182805461057e90611ae5565b80156105cb5780601f106105a0576101008083540402835291602001916105cb565b820191906000526020600020905b8154815290600101906020018083116105ae57829003601f168201915b5050505050905090565b6105e433878787878787610faa565b505050505050565b6105f7600733611100565b610662576040517f08c379a000000000000000000000000000000000000000000000000000000000815260206004820152600660248201527f216f726d7073000000000000000000000000000000000000000000000000000060448201526064015b60405180910390fd5b600061066c61112f565b9050610677816111c4565b73ffffffffffffffffffffffffffffffffffffffff16610695611255565b73ffffffffffffffffffffffffffffffffffffffff1614610712576040517f08c379a000000000000000000000000000000000000000000000000000000000815260206004820152600560248201527f21617574680000000000000000000000000000000000000000000000000000006044820152606401610659565b6105e481868686868080601f0160208091040260200160405190810160405280939291908181526020018383808284376000920191909152506112ed92505050565b6000808061076484860186611b67565b9250509150600063394d1bca60e01b338a8a8a60405160240161078a9493929190611c52565b604080517fffffffffffffffffffffffffffffffffffffffffffffffffffffffffffffffe08184030181529181526020820180517bffffffffffffffffffffffffffffffffffffffffffffffffffffffff167fffffffff000000000000000000000000000000000000000000000000000000009094169390931790925260065491517f1c2b2da600000000000000000000000000000000000000000000000000000000815290925073ffffffffffffffffffffffffffffffffffffffff90911690631c2b2da690610867908d903090889087908990600401611cca565b602060405180830381865afa158015610884573d6000803e3d6000fd5b505050506040513d601f19601f820116820180604052508101906108a89190611d23565b9a9950505050505050505050565b60006108c36007836113e9565b92915050565b6108d1610eed565b6006805473ffffffffffffffffffffffffffffffffffffffff8381167fffffffffffffffffffffffff000000000000000000000000000000000000000083161790925516610920600783610e4f565b610988576040517f08c379a00000000000000000000000000000000000000000000000000000000081526004016106599060208082526004908201527f2161646400000000000000000000000000000000000000000000000000000000604082015260600190565b6040805173ffffffffffffffffffffffffffffffffffffffff8084168252841660208201527f2546b320a5e5d5577ddc36cd3d83b9f37f6c4d73a7d940d473cd72e52c1fd894910160405180910390a160405173ffffffffffffffffffffffffffffffffffffffff831681527f8af9a700c7743999640a0e8ccf8c7a29e0c3100288901cccd7a9a6b371edbab3906020015b60405180910390a15050565b6000610a3260076113f5565b905090565b610a3f610eed565b61053f82826113ff565b610a51610eed565b610a5b6000611483565b565b600154339073ffffffffffffffffffffffffffffffffffffffff168114610b06576040517f08c379a000000000000000000000000000000000000000000000000000000000815260206004820152602960248201527f4f776e61626c6532537465703a2063616c6c6572206973206e6f74207468652060448201527f6e6577206f776e657200000000000000000000000000000000000000000000006064820152608401610659565b610b0f81611483565b50565b610b1a610eed565b610b25600784611100565b610b8b576040517f08c379a000000000000000000000000000000000000000000000000000000000815260206004820152600660248201527f21657869737400000000000000000000000000000000000000000000000000006044820152606401610659565b6040517f8b22909100000000000000000000000000000000000000000000000000000000815273ffffffffffffffffffffffffffffffffffffffff83811660048301528281166024830152841690638b22909190604401600060405180830381600087803b158015610bfc57600080fd5b505af1158015610c10573d6000803e3d6000fd5b50505050505050565b60006108c3600783611100565b610c2e610eed565b60065473ffffffffffffffffffffffffffffffffffffffff808316911603610cb2576040517f08c379a000000000000000000000000000000000000000000000000000000000815260206004820152600660248201527f73656e64657200000000000000000000000000000000000000000000000000006044820152606401610659565b610cbd6007826114b4565b610d25576040517f08c379a00000000000000000000000000000000000000000000000000000000081526004016106599060208082526004908201527f2164656c00000000000000000000000000000000000000000000000000000000604082015260600190565b60405173ffffffffffffffffffffffffffffffffffffffff821681527f933e5878af9aa566b0832891947f17052b71c97fff8a7c8a1553af62bcc2239d906020015b60405180910390a150565b60606003805461055290611ae5565b610d89610eed565b6001805473ffffffffffffffffffffffffffffffffffffffff83167fffffffffffffffffffffffff00000000000000000000000000000000000000009091168117909155610dec60005473ffffffffffffffffffffffffffffffffffffffff1690565b73ffffffffffffffffffffffffffffffffffffffff167f38d16b8cac22d99fc7c124b9cd0de2d3fa1faef420bfe791d8c362d765e2270060405160405180910390a350565b610e39610eed565b61053f82826114d6565b6060610a32600761155a565b6000610e718373ffffffffffffffffffffffffffffffffffffffff8416611567565b9392505050565b6000805473ffffffffffffffffffffffffffffffffffffffff8381167fffffffffffffffffffffffff0000000000000000000000000000000000000000831681178455604051919092169283917f8be0079c531659141344cd1fd0a4f28419497f9722a3daafe3b4186f6b6457e09190a35050565b60005473ffffffffffffffffffffffffffffffffffffffff163314610a5b576040517f08c379a000000000000000000000000000000000000000000000000000000000815260206004820181905260248201527f4f776e61626c653a2063616c6c6572206973206e6f7420746865206f776e65726044820152606401610659565b6003610f7a8282611d87565b507f3d7a9962f6da134f6896430d6867bd08e3546dbf9570df877e7cec39ba4305f081604051610d6791906118b4565b60008080610fba84860186611b67565b925092509250600063394d1bca60e01b8b8a8a8a604051602401610fe19493929190611c52565b604080517fffffffffffffffffffffffffffffffffffffffffffffffffffffffffffffffe08184030181529190526020810180517bffffffffffffffffffffffffffffffffffffffffffffffffffffffff167fffffffff000000000000000000000000000000000000000000000000000000009093169290921790915260065490915073ffffffffffffffffffffffffffffffffffffffff16635e26462c348c61108a816115b6565b888689896040518863ffffffff1660e01b81526004016110af96959493929190611ea1565b60206040518083038185885af11580156110cd573d6000803e3d6000fd5b50505050506040513d601f19601f820116820180604052508101906110f29190611d23565b505050505050505050505050565b73ffffffffffffffffffffffffffffffffffffffff811660009081526001830160205260408120541515610e71565b6000603436101561119c576040517f08c379a000000000000000000000000000000000000000000000000000000000815260206004820152600c60248201527f2166726f6d436861696e496400000000000000000000000000000000000000006044820152606401610659565b507fffffffffffffffffffffffffffffffffffffffffffffffffffffffffffffffcc36013590565b60008181526004602052604090205473ffffffffffffffffffffffffffffffffffffffff1680611250576040517f08c379a000000000000000000000000000000000000000000000000000000000815260206004820152600960248201527f2166726f6d506f727400000000000000000000000000000000000000000000006044820152606401610659565b919050565b600060143610156112c2576040517f08c379a000000000000000000000000000000000000000000000000000000000815260206004820152600b60248201527f21786d736753656e6465720000000000000000000000000000000000000000006044820152606401610659565b507fffffffffffffffffffffffffffffffffffffffffffffffffffffffffffffffec36013560601c90565b60606000808473ffffffffffffffffffffffffffffffffffffffff163485898960405160200161131f93929190611ef7565b604080517fffffffffffffffffffffffffffffffffffffffffffffffffffffffffffffffe08184030181529082905261135791611f43565b60006040518083038185875af1925050503d8060008114611394576040519150601f19603f3d011682016040523d82523d6000602084013e611399565b606091505b509150915081156113ad5791506113e19050565b806040517f36062f3b00000000000000000000000000000000000000000000000000000000815260040161065991906118b4565b949350505050565b6000610e718383611642565b60006108c3825490565b60008281526004602090815260409182902080547fffffffffffffffffffffffff00000000000000000000000000000000000000001673ffffffffffffffffffffffffffffffffffffffff85169081179091558251858152918201527f0af978625e8057086204bc8e9edca58fe4c3a75fa68ff732101b10f0fabb4d539101610a1a565b600180547fffffffffffffffffffffffff0000000000000000000000000000000000000000169055610b0f81610e78565b6000610e718373ffffffffffffffffffffffffffffffffffffffff841661166c565b60008281526005602090815260409182902080547fffffffffffffffffffffffff00000000000000000000000000000000000000001673ffffffffffffffffffffffffffffffffffffffff85169081179091558251858152918201527f3809e7e78b64016949ed1e373600a15f50af589e9e62eff47273a7dfe9bed0aa9101610a1a565b60606000610e718361175f565b60008181526001830160205260408120546115ae575081546001818101845560008481526020808220909301849055845484825282860190935260409020919091556108c3565b5060006108c3565b60008181526005602052604090205473ffffffffffffffffffffffffffffffffffffffff1680611250576040517f08c379a000000000000000000000000000000000000000000000000000000000815260206004820152600760248201527f21746f506f7274000000000000000000000000000000000000000000000000006044820152606401610659565b600082600001828154811061165957611659611f5f565b9060005260206000200154905092915050565b60008181526001830160205260408120548015611755576000611690600183611f8e565b85549091506000906116a490600190611f8e565b90508181146117095760008660000182815481106116c4576116c4611f5f565b90600052602060002001549050808760000184815481106116e7576116e7611f5f565b6000918252602080832090910192909255918252600188019052604090208390555b855486908061171a5761171a611fc8565b6001900381819060005260206000200160009055905585600101600086815260200190815260200160002060009055600193505050506108c3565b60009150506108c3565b6060816000018054806020026020016040519081016040528092919081815260200182805480156117af57602002820191906000526020600020905b81548152602001906001019080831161179b575b50505050509050919050565b60008083601f8401126117cd57600080fd5b50813567ffffffffffffffff8111156117e557600080fd5b6020830191508360208285010111156117fd57600080fd5b9250929050565b6000806020838503121561181757600080fd5b823567ffffffffffffffff81111561182e57600080fd5b61183a858286016117bb565b90969095509350505050565b60005b83811015611861578181015183820152602001611849565b50506000910152565b60008151808452611882816020860160208601611846565b601f017fffffffffffffffffffffffffffffffffffffffffffffffffffffffffffffffe0169290920160200192915050565b602081526000610e71602083018461186a565b73ffffffffffffffffffffffffffffffffffffffff81168114610b0f57600080fd5b6000806000806000806080878903121561190257600080fd5b863595506020870135611914816118c7565b9450604087013567ffffffffffffffff8082111561193157600080fd5b61193d8a838b016117bb565b9096509450606089013591508082111561195657600080fd5b5061196389828a016117bb565b979a9699509497509295939492505050565b6000806000806060858703121561198b57600080fd5b8435611996816118c7565b935060208501356119a6816118c7565b9250604085013567ffffffffffffffff8111156119c257600080fd5b6119ce878288016117bb565b95989497509550505050565b6000602082840312156119ec57600080fd5b5035919050565b600060208284031215611a0557600080fd5b8135610e71816118c7565b60008060408385031215611a2357600080fd5b823591506020830135611a35816118c7565b809150509250929050565b600080600060608486031215611a5557600080fd5b8335611a60816118c7565b92506020840135611a70816118c7565b91506040840135611a80816118c7565b809150509250925092565b6020808252825182820181905260009190848201906040850190845b81811015611ad957835173ffffffffffffffffffffffffffffffffffffffff1683529284019291840191600101611aa7565b50909695505050505050565b600181811c90821680611af957607f821691505b602082108103611b32577f4e487b7100000000000000000000000000000000000000000000000000000000600052602260045260246000fd5b50919050565b7f4e487b7100000000000000000000000000000000000000000000000000000000600052604160045260246000fd5b600080600060608486031215611b7c57600080fd5b833592506020840135611b8e816118c7565b9150604084013567ffffffffffffffff80821115611bab57600080fd5b818601915086601f830112611bbf57600080fd5b813581811115611bd157611bd1611b38565b604051601f82017fffffffffffffffffffffffffffffffffffffffffffffffffffffffffffffffe0908116603f01168101908382118183101715611c1757611c17611b38565b81604052828152896020848701011115611c3057600080fd5b8260208601602083013760006020848301015280955050505050509250925092565b600073ffffffffffffffffffffffffffffffffffffffff8087168352808616602084015250606060408301528260608301528284608084013760006080848401015260807fffffffffffffffffffffffffffffffffffffffffffffffffffffffffffffffe0601f850116830101905095945050505050565b85815273ffffffffffffffffffffffffffffffffffffffff8516602082015283604082015260a060608201526000611d0560a083018561186a565b8281036080840152611d17818561186a565b98975050505050505050565b600060208284031215611d3557600080fd5b5051919050565b601f821115611d8257600081815260208120601f850160051c81016020861015611d635750805b601f850160051c820191505b818110156105e457828155600101611d6f565b505050565b815167ffffffffffffffff811115611da157611da1611b38565b611db581611daf8454611ae5565b84611d3c565b602080601f831160018114611e085760008415611dd25750858301515b7fffffffffffffffffffffffffffffffffffffffffffffffffffffffffffffffff600386901b1c1916600185901b1785556105e4565b6000858152602081207fffffffffffffffffffffffffffffffffffffffffffffffffffffffffffffffe08616915b82811015611e5557888601518255948401946001909101908401611e36565b5085821015611e9157878501517fffffffffffffffffffffffffffffffffffffffffffffffffffffffffffffffff600388901b60f8161c191681555b5050505050600190811b01905550565b868152600073ffffffffffffffffffffffffffffffffffffffff808816602084015286604084015260c06060840152611edd60c084018761186a565b818616608085015283810360a08501526108a8818661186a565b60008451611f09818460208901611846565b919091019283525060601b7fffffffffffffffffffffffffffffffffffffffff000000000000000000000000166020820152603401919050565b60008251611f55818460208701611846565b9190910192915050565b7f4e487b7100000000000000000000000000000000000000000000000000000000600052603260045260246000fd5b818103818111156108c3577f4e487b7100000000000000000000000000000000000000000000000000000000600052601160045260246000fd5b7f4e487b7100000000000000000000000000000000000000000000000000000000600052603160045260246000fdfea2646970667358221220bf3f46aa86f1e193597aadc93dc614ca9f78915744f0db1bd25eeda5e12b05a864736f6c63430008110033",
	"devdoc": {
		"kind": "dev",
		"methods": {
			"acceptOwnership()": {
				"details": "The new owner accepts the ownership transfer."
			},
			"name()": {
				"returns": {
					"_0": "The MessagePort name."
				}
			},
			"owner()": {
				"details": "Returns the address of the current owner."
			},
			"pendingOwner()": {
				"details": "Returns the address of the pending owner."
			},
			"renounceOwnership()": {
				"details": "Leaves the contract without owner. It will not be possible to call `onlyOwner` functions. Can only be called by the current owner. NOTE: Renouncing ownership will leave the contract without an owner, thereby disabling any functionality that is only available to the owner."
			},
			"send(uint256,address,bytes,bytes)": {
				"details": "Send a cross-chain message over the MessagePort.",
				"params": {
					"message": "The calldata which encoded by ABI Encoding.",
					"params": "Extend parameters to adapt to different message protocols.",
					"toChainId": "The message destination chain id. <https://eips.ethereum.org/EIPS/eip-155>",
					"toDapp": "The user application contract address which receive the message."
				}
			},
			"transferOwnership(address)": {
				"details": "Starts the ownership transfer of the contract to a new account. Replaces the pending transfer if there is one. Can only be called by the current owner."
			},
			"uri()": {
				"returns": {
					"_0": "The port metadata uri."
				}
			}
		},
		"version": 1
	},
	"userdoc": {
		"kind": "user",
		"methods": {
			"name()": {
				"notice": "Get the port name, it's globally unique and immutable."
			},
			"send(uint256,address,bytes,bytes)": {
				"notice": "Send a cross-chain message over the MessagePort."
			},
			"setORMP(address)": {
				"notice": "How to migrate to new ORMP contract. 1. setORMP to new ORMP contract. 2. delete previousORMP after relay on-flight message."
			}
		},
		"version": 1
	},
	"gitCommit": "cd62f4985f43eea15749757817df4159cb5b8579",
	"sourceName": "lib/darwinia-msgport/src/ports/ORMPUpgradeablePort.sol",
	"chainId": "421614",
	"linkReferences": {},
	"deployedLinkReferences": {},
	"history": []
}