{
	"_format": "sphinx-sol-ct-artifact-1",
	"merkleRoot": "0x6c5781c95cef2dcb82f0ff8eceac7dd040b05511817aa8d7927becd05f0c41eb",
	"contractName": "ORMP",
	"address": "0x38540e6b6678d32A141fEC10Dd39744bc46DAcC8",
	"abi": [
		{
			"type": "constructor",
			"inputs": [
				{
					"name": "dao",
					"type": "address",
					"internalType": "address"
				}
			],
			"stateMutability": "nonpayable"
		},
		{
			"type": "function",
			"name": "LOCAL_CHAINID",
			"inputs": [],
			"outputs": [
				{
					"name": "chainId",
					"type": "uint256",
					"internalType": "uint256"
				}
			],
			"stateMutability": "view"
		},
		{
			"type": "function",
			"name": "changeSetter",
			"inputs": [
				{
					"name": "newSetter",
					"type": "address",
					"internalType": "address"
				}
			],
			"outputs": [],
			"stateMutability": "nonpayable"
		},
		{
			"type": "function",
			"name": "defaultUC",
			"inputs": [],
			"outputs": [
				{
					"name": "oracle",
					"type": "address",
					"internalType": "address"
				},
				{
					"name": "relayer",
					"type": "address",
					"internalType": "address"
				}
			],
			"stateMutability": "view"
		},
		{
			"type": "function",
			"name": "dones",
			"inputs": [
				{
					"name": "",
					"type": "bytes32",
					"internalType": "bytes32"
				}
			],
			"outputs": [
				{
					"name": "",
					"type": "bool",
					"internalType": "bool"
				}
			],
			"stateMutability": "view"
		},
		{
			"type": "function",
			"name": "fee",
			"inputs": [
				{
					"name": "toChainId",
					"type": "uint256",
					"internalType": "uint256"
				},
				{
					"name": "ua",
					"type": "address",
					"internalType": "address"
				},
				{
					"name": "gasLimit",
					"type": "uint256",
					"internalType": "uint256"
				},
				{
					"name": "encoded",
					"type": "bytes",
					"internalType": "bytes"
				},
				{
					"name": "",
					"type": "bytes",
					"internalType": "bytes"
				}
			],
			"outputs": [
				{
					"name": "",
					"type": "uint256",
					"internalType": "uint256"
				}
			],
			"stateMutability": "view"
		},
		{
			"type": "function",
			"name": "getAppConfig",
			"inputs": [
				{
					"name": "ua",
					"type": "address",
					"internalType": "address"
				}
			],
			"outputs": [
				{
					"name": "",
					"type": "tuple",
					"internalType": "struct UC",
					"components": [
						{
							"name": "oracle",
							"type": "address",
							"internalType": "address"
						},
						{
							"name": "relayer",
							"type": "address",
							"internalType": "address"
						}
					]
				}
			],
			"stateMutability": "view"
		},
		{
			"type": "function",
			"name": "hashLookup",
			"inputs": [
				{
					"name": "",
					"type": "address",
					"internalType": "address"
				},
				{
					"name": "",
					"type": "uint256",
					"internalType": "uint256"
				},
				{
					"name": "",
					"type": "bytes32",
					"internalType": "bytes32"
				}
			],
			"outputs": [
				{
					"name": "",
					"type": "bytes32",
					"internalType": "bytes32"
				}
			],
			"stateMutability": "view"
		},
		{
			"type": "function",
			"name": "importHash",
			"inputs": [
				{
					"name": "srcChainId",
					"type": "uint256",
					"internalType": "uint256"
				},
				{
					"name": "lookupKey",
					"type": "bytes32",
					"internalType": "bytes32"
				},
				{
					"name": "hash_",
					"type": "bytes32",
					"internalType": "bytes32"
				}
			],
			"outputs": [],
			"stateMutability": "nonpayable"
		},
		{
			"type": "function",
			"name": "imtBranch",
			"inputs": [],
			"outputs": [
				{
					"name": "",
					"type": "bytes32[32]",
					"internalType": "bytes32[32]"
				}
			],
			"stateMutability": "view"
		},
		{
			"type": "function",
			"name": "messageCount",
			"inputs": [],
			"outputs": [
				{
					"name": "",
					"type": "uint256",
					"internalType": "uint256"
				}
			],
			"stateMutability": "view"
		},
		{
			"type": "function",
			"name": "prove",
			"inputs": [],
			"outputs": [
				{
					"name": "",
					"type": "bytes32[32]",
					"internalType": "bytes32[32]"
				}
			],
			"stateMutability": "view"
		},
		{
			"type": "function",
			"name": "recv",
			"inputs": [
				{
					"name": "message",
					"type": "tuple",
					"internalType": "struct Message",
					"components": [
						{
							"name": "channel",
							"type": "address",
							"internalType": "address"
						},
						{
							"name": "index",
							"type": "uint256",
							"internalType": "uint256"
						},
						{
							"name": "fromChainId",
							"type": "uint256",
							"internalType": "uint256"
						},
						{
							"name": "from",
							"type": "address",
							"internalType": "address"
						},
						{
							"name": "toChainId",
							"type": "uint256",
							"internalType": "uint256"
						},
						{
							"name": "to",
							"type": "address",
							"internalType": "address"
						},
						{
							"name": "gasLimit",
							"type": "uint256",
							"internalType": "uint256"
						},
						{
							"name": "encoded",
							"type": "bytes",
							"internalType": "bytes"
						}
					]
				},
				{
					"name": "proof",
					"type": "bytes",
					"internalType": "bytes"
				}
			],
			"outputs": [
				{
					"name": "dispatchResult",
					"type": "bool",
					"internalType": "bool"
				}
			],
			"stateMutability": "payable"
		},
		{
			"type": "function",
			"name": "root",
			"inputs": [],
			"outputs": [
				{
					"name": "",
					"type": "bytes32",
					"internalType": "bytes32"
				}
			],
			"stateMutability": "view"
		},
		{
			"type": "function",
			"name": "send",
			"inputs": [
				{
					"name": "toChainId",
					"type": "uint256",
					"internalType": "uint256"
				},
				{
					"name": "to",
					"type": "address",
					"internalType": "address"
				},
				{
					"name": "gasLimit",
					"type": "uint256",
					"internalType": "uint256"
				},
				{
					"name": "encoded",
					"type": "bytes",
					"internalType": "bytes"
				},
				{
					"name": "refund",
					"type": "address",
					"internalType": "address"
				},
				{
					"name": "",
					"type": "bytes",
					"internalType": "bytes"
				}
			],
			"outputs": [
				{
					"name": "",
					"type": "bytes32",
					"internalType": "bytes32"
				}
			],
			"stateMutability": "payable"
		},
		{
			"type": "function",
			"name": "setAppConfig",
			"inputs": [
				{
					"name": "oracle",
					"type": "address",
					"internalType": "address"
				},
				{
					"name": "relayer",
					"type": "address",
					"internalType": "address"
				}
			],
			"outputs": [],
			"stateMutability": "nonpayable"
		},
		{
			"type": "function",
			"name": "setDefaultConfig",
			"inputs": [
				{
					"name": "oracle",
					"type": "address",
					"internalType": "address"
				},
				{
					"name": "relayer",
					"type": "address",
					"internalType": "address"
				}
			],
			"outputs": [],
			"stateMutability": "nonpayable"
		},
		{
			"type": "function",
			"name": "setter",
			"inputs": [],
			"outputs": [
				{
					"name": "",
					"type": "address",
					"internalType": "address"
				}
			],
			"stateMutability": "view"
		},
		{
			"type": "function",
			"name": "ucOf",
			"inputs": [
				{
					"name": "",
					"type": "address",
					"internalType": "address"
				}
			],
			"outputs": [
				{
					"name": "oracle",
					"type": "address",
					"internalType": "address"
				},
				{
					"name": "relayer",
					"type": "address",
					"internalType": "address"
				}
			],
			"stateMutability": "view"
		},
		{
			"type": "function",
			"name": "version",
			"inputs": [],
			"outputs": [
				{
					"name": "",
					"type": "string",
					"internalType": "string"
				}
			],
			"stateMutability": "pure"
		},
		{
			"type": "event",
			"name": "AppConfigUpdated",
			"inputs": [
				{
					"name": "ua",
					"type": "address",
					"indexed": true,
					"internalType": "address"
				},
				{
					"name": "oracle",
					"type": "address",
					"indexed": false,
					"internalType": "address"
				},
				{
					"name": "relayer",
					"type": "address",
					"indexed": false,
					"internalType": "address"
				}
			],
			"anonymous": false
		},
		{
			"type": "event",
			"name": "DefaultConfigUpdated",
			"inputs": [
				{
					"name": "oracle",
					"type": "address",
					"indexed": false,
					"internalType": "address"
				},
				{
					"name": "relayer",
					"type": "address",
					"indexed": false,
					"internalType": "address"
				}
			],
			"anonymous": false
		},
		{
			"type": "event",
			"name": "HashImported",
			"inputs": [
				{
					"name": "srcChainId",
					"type": "uint256",
					"indexed": true,
					"internalType": "uint256"
				},
				{
					"name": "oracle",
					"type": "address",
					"indexed": true,
					"internalType": "address"
				},
				{
					"name": "lookupKey",
					"type": "bytes32",
					"indexed": true,
					"internalType": "bytes32"
				},
				{
					"name": "hash",
					"type": "bytes32",
					"indexed": false,
					"internalType": "bytes32"
				}
			],
			"anonymous": false
		},
		{
			"type": "event",
			"name": "MessageAccepted",
			"inputs": [
				{
					"name": "msgHash",
					"type": "bytes32",
					"indexed": true,
					"internalType": "bytes32"
				},
				{
					"name": "root",
					"type": "bytes32",
					"indexed": false,
					"internalType": "bytes32"
				},
				{
					"name": "message",
					"type": "tuple",
					"indexed": false,
					"internalType": "struct Message",
					"components": [
						{
							"name": "channel",
							"type": "address",
							"internalType": "address"
						},
						{
							"name": "index",
							"type": "uint256",
							"internalType": "uint256"
						},
						{
							"name": "fromChainId",
							"type": "uint256",
							"internalType": "uint256"
						},
						{
							"name": "from",
							"type": "address",
							"internalType": "address"
						},
						{
							"name": "toChainId",
							"type": "uint256",
							"internalType": "uint256"
						},
						{
							"name": "to",
							"type": "address",
							"internalType": "address"
						},
						{
							"name": "gasLimit",
							"type": "uint256",
							"internalType": "uint256"
						},
						{
							"name": "encoded",
							"type": "bytes",
							"internalType": "bytes"
						}
					]
				}
			],
			"anonymous": false
		},
		{
			"type": "event",
			"name": "MessageAssigned",
			"inputs": [
				{
					"name": "msgHash",
					"type": "bytes32",
					"indexed": true,
					"internalType": "bytes32"
				},
				{
					"name": "oracle",
					"type": "address",
					"indexed": true,
					"internalType": "address"
				},
				{
					"name": "relayer",
					"type": "address",
					"indexed": true,
					"internalType": "address"
				},
				{
					"name": "oracleFee",
					"type": "uint256",
					"indexed": false,
					"internalType": "uint256"
				},
				{
					"name": "relayerFee",
					"type": "uint256",
					"indexed": false,
					"internalType": "uint256"
				}
			],
			"anonymous": false
		},
		{
			"type": "event",
			"name": "MessageDispatched",
			"inputs": [
				{
					"name": "msgHash",
					"type": "bytes32",
					"indexed": true,
					"internalType": "bytes32"
				},
				{
					"name": "dispatchResult",
					"type": "bool",
					"indexed": false,
					"internalType": "bool"
				}
			],
			"anonymous": false
		},
		{
			"type": "event",
			"name": "SetterChanged",
			"inputs": [
				{
					"name": "oldSetter",
					"type": "address",
					"indexed": true,
					"internalType": "address"
				},
				{
					"name": "newSetter",
					"type": "address",
					"indexed": true,
					"internalType": "address"
				}
			],
			"anonymous": false
		}
	],
	"solcInputHash": "d5a1a63b6bb5766569e313cc318807ac",
	"args": [
		"0x701609866556Cb9A1FBD6B40201cD5899c9D2d56"
	],
	"bytecode": "0x60a0604052600160008190558055306080523480156200001e57600080fd5b50604051620027423803806200274283398101604081905262000041916200008b565b600280546001600160a01b0319166001600160a01b03929092169190911790557f27ae5ba08d7291c96c8cbddcc148bf48a6d68c7974b94356f53754ef6171d757600655620000bd565b6000602082840312156200009e57600080fd5b81516001600160a01b0381168114620000b657600080fd5b9392505050565b608051612669620000d96000396000610d5601526126696000f3fe6080604052600436106101445760003560e01c80634872824f116100c05780638b22909111610074578063ebf0c71711610059578063ebf0c7171461044f578063ee6ad16714610465578063f67c907c1461048857600080fd5b80638b2290911461041c578063b0ff5e721461043c57600080fd5b806352720be4116100a557806352720be4146103a857806354fd4d50146103bd5780635e26462c1461040957600080fd5b80634872824f146103545780634ea599791461038857600080fd5b80633dbcc8d11161011757806341342249116100fc57806341342249146102be57806344a65c601461031257806345152ae31461033257600080fd5b80633dbcc8d1146102575780633f3108f71461026c57600080fd5b806301f8ecfb146101495780630f988a731461019a5780631c2b2da6146101bc5780633c50e178146101dc575b600080fd5b34801561015557600080fd5b50610187610164366004611cd6565b602960209081526000938452604080852082529284528284209052825290205481565b6040519081526020015b60405180910390f35b3480156101a657600080fd5b506101ba6101b5366004611d09565b6104b8565b005b3480156101c857600080fd5b506101876101d7366004611d74565b6105b5565b3480156101e857600080fd5b5061022a6101f7366004611d09565b6005602052600090815260409020805460019091015473ffffffffffffffffffffffffffffffffffffffff918216911682565b6040805173ffffffffffffffffffffffffffffffffffffffff938416815292909116602083015201610191565b34801561026357600080fd5b50602754610187565b34801561027857600080fd5b506002546102999073ffffffffffffffffffffffffffffffffffffffff1681565b60405173ffffffffffffffffffffffffffffffffffffffff9091168152602001610191565b3480156102ca57600080fd5b506102de6102d9366004611d09565b610706565b60408051825173ffffffffffffffffffffffffffffffffffffffff9081168252602093840151169281019290925201610191565b34801561031e57600080fd5b506101ba61032d366004611e08565b6107bd565b34801561033e57600080fd5b5061034761081d565b6040516101919190611e34565b34801561036057600080fd5b5060035460045461022a9173ffffffffffffffffffffffffffffffffffffffff908116911682565b34801561039457600080fd5b506101ba6103a3366004611e6a565b610834565b3480156103b457600080fd5b50610347610957565b3480156103c957600080fd5b50604080518082018252600581527f322e302e30000000000000000000000000000000000000000000000000000000602082015290516101919190611f0b565b610187610417366004611f1e565b610993565b34801561042857600080fd5b506101ba610437366004611e6a565b610a3c565b34801561044857600080fd5b5046610187565b34801561045b57600080fd5b5061018760065481565b610478610473366004611fc5565b610afb565b6040519015158152602001610191565b34801561049457600080fd5b506104786104a3366004612037565b60286020526000908152604090205460ff1681565b60025473ffffffffffffffffffffffffffffffffffffffff16331461053e576040517f08c379a000000000000000000000000000000000000000000000000000000000815260206004820152600560248201527f216175746800000000000000000000000000000000000000000000000000000060448201526064015b60405180910390fd5b6002805473ffffffffffffffffffffffffffffffffffffffff8381167fffffffffffffffffffffffff0000000000000000000000000000000000000000831681179093556040519116919082907fb0999394a8202229d1e14c6290230863233f18473f7504b3a7b1a27f9b014c9d90600090a35050565b6000806105c188610706565b90506000816020015173ffffffffffffffffffffffffffffffffffffffff166353179a7c8b8b8b8b8b6040518663ffffffff1660e01b815260040161060a959493929190612099565b602060405180830381865afa158015610627573d6000803e3d6000fd5b505050506040513d601f19601f8201168201806040525081019061064b91906120d5565b82516040517fa1dbf432000000000000000000000000000000000000000000000000000000008152600481018d905273ffffffffffffffffffffffffffffffffffffffff8c811660248301529293506000929091169063a1dbf43290604401602060405180830381865afa1580156106c7573d6000803e3d6000fd5b505050506040513d601f19601f820116820180604052508101906106eb91906120d5565b90506106f7818361211d565b9b9a5050505050505050505050565b6040805180820182526000808252602080830182905273ffffffffffffffffffffffffffffffffffffffff8581168352600582529184902084518086019095528054831685526001015490911690830181905290919061077f5760045473ffffffffffffffffffffffffffffffffffffffff1660208201525b805173ffffffffffffffffffffffffffffffffffffffff166107b75760035473ffffffffffffffffffffffffffffffffffffffff1681525b92915050565b3360008181526029602090815260408083208784528252808320868452825291829020849055905183815284929186917fe6e9947183bab032f319f7b5a4386fbd3dd1ab59c2b5f6356d88382bfb7608aa910160405180910390a4505050565b610825611c8e565b61082f6007610bd8565b905090565b60025473ffffffffffffffffffffffffffffffffffffffff1633146108b5576040517f08c379a000000000000000000000000000000000000000000000000000000000815260206004820152600560248201527f21617574680000000000000000000000000000000000000000000000000000006044820152606401610535565b60408051808201825273ffffffffffffffffffffffffffffffffffffffff8481168083529084166020928301819052600380547fffffffffffffffffffffffff0000000000000000000000000000000000000000908116841790915560048054909116821790558351918252918101919091527f504f152883e6158786ddfcce63f4d4d95ce8e404b1f6e6365a06f63849b7cb95910160405180910390a15050565b61095f611c8e565b604080516104008101918290529060079060209082845b815481526020019060010190808311610976575050505050905090565b6000600160005414610a01576040517f08c379a000000000000000000000000000000000000000000000000000000000815260206004820152601060248201527f2173656e642d7265656e7472616e6379000000000000000000000000000000006044820152606401610535565b600260009081553390610a18828c8c8c8c8c610cce565b9050610a298287838e8d8d8d610e91565b60016000559a9950505050505050505050565b60408051808201825273ffffffffffffffffffffffffffffffffffffffff848116808352848216602080850182815233600081815260058452889020965187549087167fffffffffffffffffffffffff000000000000000000000000000000000000000091821617885591516001909701805497909616969091169590951790935584519182529181019190915290917f86b44d92ad94c11b25d0f08d0f55e8e235b4d165e62e541c02e8ee19f551c97b910160405180910390a25050565b60006001805414610b68576040517f08c379a000000000000000000000000000000000000000000000000000000000815260206004820152601060248201527f21726563762d7265656e7472616e6379000000000000000000000000000000006044820152606401610535565b60026001556000610b7a858585610f81565b9050610b8e610b8886612234565b82611249565b9150807f62b1dc20fd6f1518626da5b6f9897e8cd4ebadbad071bb66dc96a37c970087a883604051610bc4911515815260200190565b60405180910390a250600180559392505050565b610be0611c8e565b600060018360200154610bf391906122d6565b6040805161040081019182905291925060009190859060209082845b815481526020019060010190808311610c0f57505050505090506000610c336112d3565b905060005b6020811015610cc557600184821c811690819003610c8357838260208110610c6257610c626122e9565b6020020151868360208110610c7957610c796122e9565b6020020152610cb2565b828260208110610c9557610c956122e9565b6020020151868360208110610cac57610cac6122e9565b60200201525b5080610cbd81612318565b915050610c38565b50505050919050565b6000468603610d39576040517f08c379a000000000000000000000000000000000000000000000000000000000815260206004820152600c60248201527f2163726f73732d636861696e00000000000000000000000000000000000000006044820152606401610535565b6000610d4460275490565b905060006040518061010001604052807f000000000000000000000000000000000000000000000000000000000000000073ffffffffffffffffffffffffffffffffffffffff168152602001838152602001610d9d4690565b81526020018a73ffffffffffffffffffffffffffffffffffffffff1681526020018981526020018873ffffffffffffffffffffffffffffffffffffffff16815260200187815260200186868080601f016020809104026020016040519081016040528093929190818152602001838380828437600092018290525093909452509293509150610e2d905082611794565b9050610e3a6007826117c4565b610e446007611908565b600681905560405182917f327110434bca326d1f70236295f59c8b472ebc683a6549ca9254697564fec4a591610e7c919086906123d1565b60405180910390a29998505050505050505050565b6000610e9c88610706565b90506000610eb28260200151878b88888861191b565b90506000610ec58360000151888c6119b7565b9050826020015173ffffffffffffffffffffffffffffffffffffffff16836000015173ffffffffffffffffffffffffffffffffffffffff16897ff7e134438bf3052b95eaa2f90f4177932297d80eb36186624c2f366cb8944ecf8486604051610f38929190918252602082015260400190565b60405180910390a4610f4a818361211d565b341115610f75576000610f5d828461211d565b610f6790346122d6565b9050610f738a82611a67565b505b50505050505050505050565b600080610f976102d960c0870160a08801611d09565b602081015190915073ffffffffffffffffffffffffffffffffffffffff16331461101d576040517f08c379a000000000000000000000000000000000000000000000000000000000815260206004820152600560248201527f21617574680000000000000000000000000000000000000000000000000000006044820152606401610535565b600061103061102b87612234565b611794565b9050816000015173ffffffffffffffffffffffffffffffffffffffff1663094f87c587604001358388886040518563ffffffff1660e01b815260040161107994939291906123ea565b602060405180830381865afa158015611096573d6000803e3d6000fd5b505050506040513d601f19601f820116820180604052508101906110ba9190612414565b611120576040517f08c379a000000000000000000000000000000000000000000000000000000000815260206004820152600660248201527f2170726f6f6600000000000000000000000000000000000000000000000000006044820152606401610535565b6080860135461461118d576040517f08c379a000000000000000000000000000000000000000000000000000000000815260206004820152600a60248201527f21746f436861696e4964000000000000000000000000000000000000000000006044820152606401610535565b60008181526028602052604090205460ff1615611208576040517f08c379a00000000000000000000000000000000000000000000000000000000081526004016105359060208082526004908201527f646f6e6500000000000000000000000000000000000000000000000000000000604082015260600190565b600081815260286020526040902080547fffffffffffffffffffffffffffffffffffffffffffffffffffffffffffffff001660011790559150509392505050565b60006112cb8360c001513460008660e0015186886040015189606001516040516020016112799493929190612436565b604080517fffffffffffffffffffffffffffffffffffffffffffffffffffffffffffffffe081840301815291905260a088015173ffffffffffffffffffffffffffffffffffffffff1693929190611b31565b509392505050565b6112db611c8e565b600081527fad3228b676f7d3cd4284a5443f17f1962b36e491b30a40b2405849e597ba5fb560208201527fb4c11951957c6f8f642c4af61cd6b24640fec6dc7fc607ee8206a99e92410d3060408201527f21ddb9a356815c3fac1026b6dec5df3124afbadb485c9ba5a3e3398a04b7ba8560608201527fe58769b32a1beaf1ea27375a44095a0d1fb664ce2dd358e7fcbfb78c26a1934460808201527f0eb01ebfc9ed27500cd4dfc979272d1f0913cc9f66540d7e8005811109e1cf2d60a08201527f887c22bd8750d34016ac3c66b5ff102dacdd73f6b014e710b51e8022af9a196860c08201527fffd70157e48063fc33c97a050f7f640233bf646cc98d9524c6b92bcf3ab56f8360e08201527f9867cc5f7f196b93bae1e27e6320742445d290f2263827498b54fec539f756af6101008201527fcefad4e508c098b9a7e1d8feb19955fb02ba9675585078710969d3440f5054e06101208201527ff9dc3e7fe016e050eff260334f18a5d4fe391d82092319f5964f2e2eb7c1c3a56101408201527ff8b13a49e282f609c317a833fb8d976d11517c571d1221a265d25af778ecf8926101608201527f3490c6ceeb450aecdc82e28293031d10c7d73bf85e57bf041a97360aa2c5d99c6101808201527fc1df82d9c4b87413eae2ef048f94b4d3554cea73d92b0f7af96e0271c691e2bb6101a08201527f5c67add7c6caf302256adedf7ab114da0acfe870d449a3a489f781d659e8becc6101c08201527fda7bce9f4e8618b6bd2f4132ce798cdc7a60e7e1460a7299e3c6342a579626d26101e08201527f2733e50f526ec2fa19a22b31e8ed50f23cd1fdf94c9154ed3a7609a2f1ff981f6102008201527fe1d3b5c807b281e4683cc6d6315cf95b9ade8641defcb32372f1c126e398ef7a6102208201527f5a2dce0a8a7f68bb74560f8f71837c2c2ebbcbf7fffb42ae1896f13f7c7479a06102408201527fb46a28b6f55540f89444f63de0378e3d121be09e06cc9ded1c20e65876d36aa06102608201527fc65e9645644786b620e2dd2ad648ddfcbf4a7e5b1a3a4ecfe7f64667a3f0b7e26102808201527ff4418588ed35a2458cffeb39b93d26f18d2ab13bdce6aee58e7b99359ec2dfd96102a08201527f5a9c16dc00d6ef18b7933a6f8dc65ccb55667138776f7dea101070dc8796e3776102c08201527f4df84f40ae0c8229d0d6069e5c8f39a7c299677a09d367fc7b05e3bc380ee6526102e08201527fcdc72595f74c7b1043d0e1ffbab734648c838dfb0527d971b602bc216c9619ef6103008201527f0abf5ac974a1ed57f4050aa510dd9c74f508277b39d7973bb2dfccc5eeb0618d6103208201527fb8cd74046ff337f0a7bf2c8e03e10f642c1886798d71806ab1e888d9e5ee87d06103408201527f838c5655cb21c6cb83313b5a631175dff4963772cce9108188b34ac87c81c41e6103608201527f662ee4dd2dd7b2bc707961b1e646c4047669dcb6584f0d8d770daf5d7e7deb2e6103808201527f388ab20e2573d171a88108e79d820e98f26c0b84aa8b2f4aa4968dbb818ea3226103a08201527f93237c50ba75ee485f4c22adf2f741400bdf8d6a9cc7df7ecae576221665d7356103c08201527f8448818bb4ae4562849e949e17ac16e0be16688e156b5cf15e098c627c0056a96103e082015290565b6000816040516020016117a7919061248a565b604051602081830303815290604052805190602001209050919050565b60016117d2602060026125bd565b6117dc91906122d6565b826020015410611848576040517f08c379a000000000000000000000000000000000000000000000000000000000815260206004820152601060248201527f6d65726b6c6520747265652066756c6c000000000000000000000000000000006044820152606401610535565b600182602001600082825461185d919061211d565b9091555050602082015460005b60208110156118fa57816001166001036118995782848260208110611891576118916122e9565b015550505050565b8381602081106118ab576118ab6122e9565b015460408051602081019290925281018490526060016040516020818303038152906040528051906020012092506002826118e691906125c9565b9150806118f281612318565b91505061186a565b50611903612604565b505050565b60006107b7826119166112d3565b611bbc565b6000808773ffffffffffffffffffffffffffffffffffffffff166353179a7c88888888886040518663ffffffff1660e01b815260040161195f959493929190612099565b602060405180830381865afa15801561197c573d6000803e3d6000fd5b505050506040513d601f19601f820116820180604052508101906119a091906120d5565b90506119ac8882611a67565b979650505050505050565b6040517fa1dbf4320000000000000000000000000000000000000000000000000000000081526004810183905273ffffffffffffffffffffffffffffffffffffffff8281166024830152600091829186169063a1dbf43290604401602060405180830381865afa158015611a2f573d6000803e3d6000fd5b505050506040513d601f19601f82011682018060405250810190611a5391906120d5565b9050611a5f8582611a67565b949350505050565b60008273ffffffffffffffffffffffffffffffffffffffff168260405160006040518083038185875af1925050503d8060008114611ac1576040519150601f19603f3d011682016040523d82523d6000602084013e611ac6565b606091505b5050905080611903576040517f08c379a000000000000000000000000000000000000000000000000000000000815260206004820152600560248201527f2173656e640000000000000000000000000000000000000000000000000000006044820152606401610535565b6000606060008060008661ffff1667ffffffffffffffff811115611b5757611b57612130565b6040519080825280601f01601f191660200182016040528015611b81576020820181803683370190505b5090506000808751602089018b8e8ef191503d925086831115611ba2578692505b828152826000602083013e90999098509650505050505050565b6020820154600090815b6020811015611c8657600182821c166000868360208110611be957611be96122e9565b0154905081600103611c26576040805160208101839052908101869052606001604051602081830303815290604052805190602001209450611c71565b84868460208110611c3957611c396122e9565b6020020151604051602001611c58929190918252602082015260400190565b6040516020818303038152906040528051906020012094505b50508080611c7e90612318565b915050611bc6565b505092915050565b6040518061040001604052806020906020820280368337509192915050565b803573ffffffffffffffffffffffffffffffffffffffff81168114611cd157600080fd5b919050565b600080600060608486031215611ceb57600080fd5b611cf484611cad565b95602085013595506040909401359392505050565b600060208284031215611d1b57600080fd5b611d2482611cad565b9392505050565b60008083601f840112611d3d57600080fd5b50813567ffffffffffffffff811115611d5557600080fd5b602083019150836020828501011115611d6d57600080fd5b9250929050565b600080600080600080600060a0888a031215611d8f57600080fd5b87359650611d9f60208901611cad565b955060408801359450606088013567ffffffffffffffff80821115611dc357600080fd5b611dcf8b838c01611d2b565b909650945060808a0135915080821115611de857600080fd5b50611df58a828b01611d2b565b989b979a50959850939692959293505050565b600080600060608486031215611e1d57600080fd5b505081359360208301359350604090920135919050565b6104008101818360005b6020808210611e4d5750611e61565b825184529283019290910190600101611e3e565b50505092915050565b60008060408385031215611e7d57600080fd5b611e8683611cad565b9150611e9460208401611cad565b90509250929050565b60005b83811015611eb8578181015183820152602001611ea0565b50506000910152565b60008151808452611ed9816020860160208601611e9d565b601f017fffffffffffffffffffffffffffffffffffffffffffffffffffffffffffffffe0169290920160200192915050565b602081526000611d246020830184611ec1565b60008060008060008060008060c0898b031215611f3a57600080fd5b88359750611f4a60208a01611cad565b965060408901359550606089013567ffffffffffffffff80821115611f6e57600080fd5b611f7a8c838d01611d2b565b9097509550859150611f8e60808c01611cad565b945060a08b0135915080821115611fa457600080fd5b50611fb18b828c01611d2b565b999c989b5096995094979396929594505050565b600080600060408486031215611fda57600080fd5b833567ffffffffffffffff80821115611ff257600080fd5b90850190610100828803121561200757600080fd5b9093506020850135908082111561201d57600080fd5b5061202a86828701611d2b565b9497909650939450505050565b60006020828403121561204957600080fd5b5035919050565b8183528181602085013750600060208284010152600060207fffffffffffffffffffffffffffffffffffffffffffffffffffffffffffffffe0601f840116840101905092915050565b85815273ffffffffffffffffffffffffffffffffffffffff851660208201528360408201526080606082015260006119ac608083018486612050565b6000602082840312156120e757600080fd5b5051919050565b7f4e487b7100000000000000000000000000000000000000000000000000000000600052601160045260246000fd5b808201808211156107b7576107b76120ee565b7f4e487b7100000000000000000000000000000000000000000000000000000000600052604160045260246000fd5b604051610100810167ffffffffffffffff8111828210171561218357612183612130565b60405290565b600082601f83011261219a57600080fd5b813567ffffffffffffffff808211156121b5576121b5612130565b604051601f83017fffffffffffffffffffffffffffffffffffffffffffffffffffffffffffffffe0908116603f011681019082821181831017156121fb576121fb612130565b8160405283815286602085880101111561221457600080fd5b836020870160208301376000602085830101528094505050505092915050565b6000610100823603121561224757600080fd5b61224f61215f565b61225883611cad565b8152602083013560208201526040830135604082015261227a60608401611cad565b60608201526080830135608082015261229560a08401611cad565b60a082015260c083013560c082015260e083013567ffffffffffffffff8111156122be57600080fd5b6122ca36828601612189565b60e08301525092915050565b818103818111156107b7576107b76120ee565b7f4e487b7100000000000000000000000000000000000000000000000000000000600052603260045260246000fd5b60007fffffffffffffffffffffffffffffffffffffffffffffffffffffffffffffffff8203612349576123496120ee565b5060010190565b600061010073ffffffffffffffffffffffffffffffffffffffff8084511685526020840151602086015260408401516040860152806060850151166060860152608084015160808601528060a08501511660a08601525060c083015160c085015260e08301518160e08601526123c882860182611ec1565b95945050505050565b828152604060208201526000611a5f6040830184612350565b84815283602082015260606040820152600061240a606083018486612050565b9695505050505050565b60006020828403121561242657600080fd5b81518015158114611d2457600080fd5b60008551612448818460208a01611e9d565b9190910193845250602083019190915260601b7fffffffffffffffffffffffffffffffffffffffff000000000000000000000000166040820152605401919050565b602081526000611d246020830184612350565b600181815b808511156124f657817fffffffffffffffffffffffffffffffffffffffffffffffffffffffffffffffff048211156124dc576124dc6120ee565b808516156124e957918102915b93841c93908002906124a2565b509250929050565b60008261250d575060016107b7565b8161251a575060006107b7565b8160018114612530576002811461253a57612556565b60019150506107b7565b60ff84111561254b5761254b6120ee565b50506001821b6107b7565b5060208310610133831016604e8410600b8410161715612579575081810a6107b7565b612583838361249d565b807fffffffffffffffffffffffffffffffffffffffffffffffffffffffffffffffff048211156125b5576125b56120ee565b029392505050565b6000611d2483836124fe565b6000826125ff577f4e487b7100000000000000000000000000000000000000000000000000000000600052601260045260246000fd5b500490565b7f4e487b7100000000000000000000000000000000000000000000000000000000600052600160045260246000fdfea2646970667358221220089973bcafa3828eae78fd91373e74e7e08e69efa70bedc1bebb1ee4eeedcce864736f6c63430008110033",
	"deployedBytecode": "0x6080604052600436106101445760003560e01c80634872824f116100c05780638b22909111610074578063ebf0c71711610059578063ebf0c7171461044f578063ee6ad16714610465578063f67c907c1461048857600080fd5b80638b2290911461041c578063b0ff5e721461043c57600080fd5b806352720be4116100a557806352720be4146103a857806354fd4d50146103bd5780635e26462c1461040957600080fd5b80634872824f146103545780634ea599791461038857600080fd5b80633dbcc8d11161011757806341342249116100fc57806341342249146102be57806344a65c601461031257806345152ae31461033257600080fd5b80633dbcc8d1146102575780633f3108f71461026c57600080fd5b806301f8ecfb146101495780630f988a731461019a5780631c2b2da6146101bc5780633c50e178146101dc575b600080fd5b34801561015557600080fd5b50610187610164366004611cd6565b602960209081526000938452604080852082529284528284209052825290205481565b6040519081526020015b60405180910390f35b3480156101a657600080fd5b506101ba6101b5366004611d09565b6104b8565b005b3480156101c857600080fd5b506101876101d7366004611d74565b6105b5565b3480156101e857600080fd5b5061022a6101f7366004611d09565b6005602052600090815260409020805460019091015473ffffffffffffffffffffffffffffffffffffffff918216911682565b6040805173ffffffffffffffffffffffffffffffffffffffff938416815292909116602083015201610191565b34801561026357600080fd5b50602754610187565b34801561027857600080fd5b506002546102999073ffffffffffffffffffffffffffffffffffffffff1681565b60405173ffffffffffffffffffffffffffffffffffffffff9091168152602001610191565b3480156102ca57600080fd5b506102de6102d9366004611d09565b610706565b60408051825173ffffffffffffffffffffffffffffffffffffffff9081168252602093840151169281019290925201610191565b34801561031e57600080fd5b506101ba61032d366004611e08565b6107bd565b34801561033e57600080fd5b5061034761081d565b6040516101919190611e34565b34801561036057600080fd5b5060035460045461022a9173ffffffffffffffffffffffffffffffffffffffff908116911682565b34801561039457600080fd5b506101ba6103a3366004611e6a565b610834565b3480156103b457600080fd5b50610347610957565b3480156103c957600080fd5b50604080518082018252600581527f322e302e30000000000000000000000000000000000000000000000000000000602082015290516101919190611f0b565b610187610417366004611f1e565b610993565b34801561042857600080fd5b506101ba610437366004611e6a565b610a3c565b34801561044857600080fd5b5046610187565b34801561045b57600080fd5b5061018760065481565b610478610473366004611fc5565b610afb565b6040519015158152602001610191565b34801561049457600080fd5b506104786104a3366004612037565b60286020526000908152604090205460ff1681565b60025473ffffffffffffffffffffffffffffffffffffffff16331461053e576040517f08c379a000000000000000000000000000000000000000000000000000000000815260206004820152600560248201527f216175746800000000000000000000000000000000000000000000000000000060448201526064015b60405180910390fd5b6002805473ffffffffffffffffffffffffffffffffffffffff8381167fffffffffffffffffffffffff0000000000000000000000000000000000000000831681179093556040519116919082907fb0999394a8202229d1e14c6290230863233f18473f7504b3a7b1a27f9b014c9d90600090a35050565b6000806105c188610706565b90506000816020015173ffffffffffffffffffffffffffffffffffffffff166353179a7c8b8b8b8b8b6040518663ffffffff1660e01b815260040161060a959493929190612099565b602060405180830381865afa158015610627573d6000803e3d6000fd5b505050506040513d601f19601f8201168201806040525081019061064b91906120d5565b82516040517fa1dbf432000000000000000000000000000000000000000000000000000000008152600481018d905273ffffffffffffffffffffffffffffffffffffffff8c811660248301529293506000929091169063a1dbf43290604401602060405180830381865afa1580156106c7573d6000803e3d6000fd5b505050506040513d601f19601f820116820180604052508101906106eb91906120d5565b90506106f7818361211d565b9b9a5050505050505050505050565b6040805180820182526000808252602080830182905273ffffffffffffffffffffffffffffffffffffffff8581168352600582529184902084518086019095528054831685526001015490911690830181905290919061077f5760045473ffffffffffffffffffffffffffffffffffffffff1660208201525b805173ffffffffffffffffffffffffffffffffffffffff166107b75760035473ffffffffffffffffffffffffffffffffffffffff1681525b92915050565b3360008181526029602090815260408083208784528252808320868452825291829020849055905183815284929186917fe6e9947183bab032f319f7b5a4386fbd3dd1ab59c2b5f6356d88382bfb7608aa910160405180910390a4505050565b610825611c8e565b61082f6007610bd8565b905090565b60025473ffffffffffffffffffffffffffffffffffffffff1633146108b5576040517f08c379a000000000000000000000000000000000000000000000000000000000815260206004820152600560248201527f21617574680000000000000000000000000000000000000000000000000000006044820152606401610535565b60408051808201825273ffffffffffffffffffffffffffffffffffffffff8481168083529084166020928301819052600380547fffffffffffffffffffffffff0000000000000000000000000000000000000000908116841790915560048054909116821790558351918252918101919091527f504f152883e6158786ddfcce63f4d4d95ce8e404b1f6e6365a06f63849b7cb95910160405180910390a15050565b61095f611c8e565b604080516104008101918290529060079060209082845b815481526020019060010190808311610976575050505050905090565b6000600160005414610a01576040517f08c379a000000000000000000000000000000000000000000000000000000000815260206004820152601060248201527f2173656e642d7265656e7472616e6379000000000000000000000000000000006044820152606401610535565b600260009081553390610a18828c8c8c8c8c610cce565b9050610a298287838e8d8d8d610e91565b60016000559a9950505050505050505050565b60408051808201825273ffffffffffffffffffffffffffffffffffffffff848116808352848216602080850182815233600081815260058452889020965187549087167fffffffffffffffffffffffff000000000000000000000000000000000000000091821617885591516001909701805497909616969091169590951790935584519182529181019190915290917f86b44d92ad94c11b25d0f08d0f55e8e235b4d165e62e541c02e8ee19f551c97b910160405180910390a25050565b60006001805414610b68576040517f08c379a000000000000000000000000000000000000000000000000000000000815260206004820152601060248201527f21726563762d7265656e7472616e6379000000000000000000000000000000006044820152606401610535565b60026001556000610b7a858585610f81565b9050610b8e610b8886612234565b82611249565b9150807f62b1dc20fd6f1518626da5b6f9897e8cd4ebadbad071bb66dc96a37c970087a883604051610bc4911515815260200190565b60405180910390a250600180559392505050565b610be0611c8e565b600060018360200154610bf391906122d6565b6040805161040081019182905291925060009190859060209082845b815481526020019060010190808311610c0f57505050505090506000610c336112d3565b905060005b6020811015610cc557600184821c811690819003610c8357838260208110610c6257610c626122e9565b6020020151868360208110610c7957610c796122e9565b6020020152610cb2565b828260208110610c9557610c956122e9565b6020020151868360208110610cac57610cac6122e9565b60200201525b5080610cbd81612318565b915050610c38565b50505050919050565b6000468603610d39576040517f08c379a000000000000000000000000000000000000000000000000000000000815260206004820152600c60248201527f2163726f73732d636861696e00000000000000000000000000000000000000006044820152606401610535565b6000610d4460275490565b905060006040518061010001604052807f00000000000000000000000038540e6b6678d32a141fec10dd39744bc46dacc873ffffffffffffffffffffffffffffffffffffffff168152602001838152602001610d9d4690565b81526020018a73ffffffffffffffffffffffffffffffffffffffff1681526020018981526020018873ffffffffffffffffffffffffffffffffffffffff16815260200187815260200186868080601f016020809104026020016040519081016040528093929190818152602001838380828437600092018290525093909452509293509150610e2d905082611794565b9050610e3a6007826117c4565b610e446007611908565b600681905560405182917f327110434bca326d1f70236295f59c8b472ebc683a6549ca9254697564fec4a591610e7c919086906123d1565b60405180910390a29998505050505050505050565b6000610e9c88610706565b90506000610eb28260200151878b88888861191b565b90506000610ec58360000151888c6119b7565b9050826020015173ffffffffffffffffffffffffffffffffffffffff16836000015173ffffffffffffffffffffffffffffffffffffffff16897ff7e134438bf3052b95eaa2f90f4177932297d80eb36186624c2f366cb8944ecf8486604051610f38929190918252602082015260400190565b60405180910390a4610f4a818361211d565b341115610f75576000610f5d828461211d565b610f6790346122d6565b9050610f738a82611a67565b505b50505050505050505050565b600080610f976102d960c0870160a08801611d09565b602081015190915073ffffffffffffffffffffffffffffffffffffffff16331461101d576040517f08c379a000000000000000000000000000000000000000000000000000000000815260206004820152600560248201527f21617574680000000000000000000000000000000000000000000000000000006044820152606401610535565b600061103061102b87612234565b611794565b9050816000015173ffffffffffffffffffffffffffffffffffffffff1663094f87c587604001358388886040518563ffffffff1660e01b815260040161107994939291906123ea565b602060405180830381865afa158015611096573d6000803e3d6000fd5b505050506040513d601f19601f820116820180604052508101906110ba9190612414565b611120576040517f08c379a000000000000000000000000000000000000000000000000000000000815260206004820152600660248201527f2170726f6f6600000000000000000000000000000000000000000000000000006044820152606401610535565b6080860135461461118d576040517f08c379a000000000000000000000000000000000000000000000000000000000815260206004820152600a60248201527f21746f436861696e4964000000000000000000000000000000000000000000006044820152606401610535565b60008181526028602052604090205460ff1615611208576040517f08c379a00000000000000000000000000000000000000000000000000000000081526004016105359060208082526004908201527f646f6e6500000000000000000000000000000000000000000000000000000000604082015260600190565b600081815260286020526040902080547fffffffffffffffffffffffffffffffffffffffffffffffffffffffffffffff001660011790559150509392505050565b60006112cb8360c001513460008660e0015186886040015189606001516040516020016112799493929190612436565b604080517fffffffffffffffffffffffffffffffffffffffffffffffffffffffffffffffe081840301815291905260a088015173ffffffffffffffffffffffffffffffffffffffff1693929190611b31565b509392505050565b6112db611c8e565b600081527fad3228b676f7d3cd4284a5443f17f1962b36e491b30a40b2405849e597ba5fb560208201527fb4c11951957c6f8f642c4af61cd6b24640fec6dc7fc607ee8206a99e92410d3060408201527f21ddb9a356815c3fac1026b6dec5df3124afbadb485c9ba5a3e3398a04b7ba8560608201527fe58769b32a1beaf1ea27375a44095a0d1fb664ce2dd358e7fcbfb78c26a1934460808201527f0eb01ebfc9ed27500cd4dfc979272d1f0913cc9f66540d7e8005811109e1cf2d60a08201527f887c22bd8750d34016ac3c66b5ff102dacdd73f6b014e710b51e8022af9a196860c08201527fffd70157e48063fc33c97a050f7f640233bf646cc98d9524c6b92bcf3ab56f8360e08201527f9867cc5f7f196b93bae1e27e6320742445d290f2263827498b54fec539f756af6101008201527fcefad4e508c098b9a7e1d8feb19955fb02ba9675585078710969d3440f5054e06101208201527ff9dc3e7fe016e050eff260334f18a5d4fe391d82092319f5964f2e2eb7c1c3a56101408201527ff8b13a49e282f609c317a833fb8d976d11517c571d1221a265d25af778ecf8926101608201527f3490c6ceeb450aecdc82e28293031d10c7d73bf85e57bf041a97360aa2c5d99c6101808201527fc1df82d9c4b87413eae2ef048f94b4d3554cea73d92b0f7af96e0271c691e2bb6101a08201527f5c67add7c6caf302256adedf7ab114da0acfe870d449a3a489f781d659e8becc6101c08201527fda7bce9f4e8618b6bd2f4132ce798cdc7a60e7e1460a7299e3c6342a579626d26101e08201527f2733e50f526ec2fa19a22b31e8ed50f23cd1fdf94c9154ed3a7609a2f1ff981f6102008201527fe1d3b5c807b281e4683cc6d6315cf95b9ade8641defcb32372f1c126e398ef7a6102208201527f5a2dce0a8a7f68bb74560f8f71837c2c2ebbcbf7fffb42ae1896f13f7c7479a06102408201527fb46a28b6f55540f89444f63de0378e3d121be09e06cc9ded1c20e65876d36aa06102608201527fc65e9645644786b620e2dd2ad648ddfcbf4a7e5b1a3a4ecfe7f64667a3f0b7e26102808201527ff4418588ed35a2458cffeb39b93d26f18d2ab13bdce6aee58e7b99359ec2dfd96102a08201527f5a9c16dc00d6ef18b7933a6f8dc65ccb55667138776f7dea101070dc8796e3776102c08201527f4df84f40ae0c8229d0d6069e5c8f39a7c299677a09d367fc7b05e3bc380ee6526102e08201527fcdc72595f74c7b1043d0e1ffbab734648c838dfb0527d971b602bc216c9619ef6103008201527f0abf5ac974a1ed57f4050aa510dd9c74f508277b39d7973bb2dfccc5eeb0618d6103208201527fb8cd74046ff337f0a7bf2c8e03e10f642c1886798d71806ab1e888d9e5ee87d06103408201527f838c5655cb21c6cb83313b5a631175dff4963772cce9108188b34ac87c81c41e6103608201527f662ee4dd2dd7b2bc707961b1e646c4047669dcb6584f0d8d770daf5d7e7deb2e6103808201527f388ab20e2573d171a88108e79d820e98f26c0b84aa8b2f4aa4968dbb818ea3226103a08201527f93237c50ba75ee485f4c22adf2f741400bdf8d6a9cc7df7ecae576221665d7356103c08201527f8448818bb4ae4562849e949e17ac16e0be16688e156b5cf15e098c627c0056a96103e082015290565b6000816040516020016117a7919061248a565b604051602081830303815290604052805190602001209050919050565b60016117d2602060026125bd565b6117dc91906122d6565b826020015410611848576040517f08c379a000000000000000000000000000000000000000000000000000000000815260206004820152601060248201527f6d65726b6c6520747265652066756c6c000000000000000000000000000000006044820152606401610535565b600182602001600082825461185d919061211d565b9091555050602082015460005b60208110156118fa57816001166001036118995782848260208110611891576118916122e9565b015550505050565b8381602081106118ab576118ab6122e9565b015460408051602081019290925281018490526060016040516020818303038152906040528051906020012092506002826118e691906125c9565b9150806118f281612318565b91505061186a565b50611903612604565b505050565b60006107b7826119166112d3565b611bbc565b6000808773ffffffffffffffffffffffffffffffffffffffff166353179a7c88888888886040518663ffffffff1660e01b815260040161195f959493929190612099565b602060405180830381865afa15801561197c573d6000803e3d6000fd5b505050506040513d601f19601f820116820180604052508101906119a091906120d5565b90506119ac8882611a67565b979650505050505050565b6040517fa1dbf4320000000000000000000000000000000000000000000000000000000081526004810183905273ffffffffffffffffffffffffffffffffffffffff8281166024830152600091829186169063a1dbf43290604401602060405180830381865afa158015611a2f573d6000803e3d6000fd5b505050506040513d601f19601f82011682018060405250810190611a5391906120d5565b9050611a5f8582611a67565b949350505050565b60008273ffffffffffffffffffffffffffffffffffffffff168260405160006040518083038185875af1925050503d8060008114611ac1576040519150601f19603f3d011682016040523d82523d6000602084013e611ac6565b606091505b5050905080611903576040517f08c379a000000000000000000000000000000000000000000000000000000000815260206004820152600560248201527f2173656e640000000000000000000000000000000000000000000000000000006044820152606401610535565b6000606060008060008661ffff1667ffffffffffffffff811115611b5757611b57612130565b6040519080825280601f01601f191660200182016040528015611b81576020820181803683370190505b5090506000808751602089018b8e8ef191503d925086831115611ba2578692505b828152826000602083013e90999098509650505050505050565b6020820154600090815b6020811015611c8657600182821c166000868360208110611be957611be96122e9565b0154905081600103611c26576040805160208101839052908101869052606001604051602081830303815290604052805190602001209450611c71565b84868460208110611c3957611c396122e9565b6020020151604051602001611c58929190918252602082015260400190565b6040516020818303038152906040528051906020012094505b50508080611c7e90612318565b915050611bc6565b505092915050565b6040518061040001604052806020906020820280368337509192915050565b803573ffffffffffffffffffffffffffffffffffffffff81168114611cd157600080fd5b919050565b600080600060608486031215611ceb57600080fd5b611cf484611cad565b95602085013595506040909401359392505050565b600060208284031215611d1b57600080fd5b611d2482611cad565b9392505050565b60008083601f840112611d3d57600080fd5b50813567ffffffffffffffff811115611d5557600080fd5b602083019150836020828501011115611d6d57600080fd5b9250929050565b600080600080600080600060a0888a031215611d8f57600080fd5b87359650611d9f60208901611cad565b955060408801359450606088013567ffffffffffffffff80821115611dc357600080fd5b611dcf8b838c01611d2b565b909650945060808a0135915080821115611de857600080fd5b50611df58a828b01611d2b565b989b979a50959850939692959293505050565b600080600060608486031215611e1d57600080fd5b505081359360208301359350604090920135919050565b6104008101818360005b6020808210611e4d5750611e61565b825184529283019290910190600101611e3e565b50505092915050565b60008060408385031215611e7d57600080fd5b611e8683611cad565b9150611e9460208401611cad565b90509250929050565b60005b83811015611eb8578181015183820152602001611ea0565b50506000910152565b60008151808452611ed9816020860160208601611e9d565b601f017fffffffffffffffffffffffffffffffffffffffffffffffffffffffffffffffe0169290920160200192915050565b602081526000611d246020830184611ec1565b60008060008060008060008060c0898b031215611f3a57600080fd5b88359750611f4a60208a01611cad565b965060408901359550606089013567ffffffffffffffff80821115611f6e57600080fd5b611f7a8c838d01611d2b565b9097509550859150611f8e60808c01611cad565b945060a08b0135915080821115611fa457600080fd5b50611fb18b828c01611d2b565b999c989b5096995094979396929594505050565b600080600060408486031215611fda57600080fd5b833567ffffffffffffffff80821115611ff257600080fd5b90850190610100828803121561200757600080fd5b9093506020850135908082111561201d57600080fd5b5061202a86828701611d2b565b9497909650939450505050565b60006020828403121561204957600080fd5b5035919050565b8183528181602085013750600060208284010152600060207fffffffffffffffffffffffffffffffffffffffffffffffffffffffffffffffe0601f840116840101905092915050565b85815273ffffffffffffffffffffffffffffffffffffffff851660208201528360408201526080606082015260006119ac608083018486612050565b6000602082840312156120e757600080fd5b5051919050565b7f4e487b7100000000000000000000000000000000000000000000000000000000600052601160045260246000fd5b808201808211156107b7576107b76120ee565b7f4e487b7100000000000000000000000000000000000000000000000000000000600052604160045260246000fd5b604051610100810167ffffffffffffffff8111828210171561218357612183612130565b60405290565b600082601f83011261219a57600080fd5b813567ffffffffffffffff808211156121b5576121b5612130565b604051601f83017fffffffffffffffffffffffffffffffffffffffffffffffffffffffffffffffe0908116603f011681019082821181831017156121fb576121fb612130565b8160405283815286602085880101111561221457600080fd5b836020870160208301376000602085830101528094505050505092915050565b6000610100823603121561224757600080fd5b61224f61215f565b61225883611cad565b8152602083013560208201526040830135604082015261227a60608401611cad565b60608201526080830135608082015261229560a08401611cad565b60a082015260c083013560c082015260e083013567ffffffffffffffff8111156122be57600080fd5b6122ca36828601612189565b60e08301525092915050565b818103818111156107b7576107b76120ee565b7f4e487b7100000000000000000000000000000000000000000000000000000000600052603260045260246000fd5b60007fffffffffffffffffffffffffffffffffffffffffffffffffffffffffffffffff8203612349576123496120ee565b5060010190565b600061010073ffffffffffffffffffffffffffffffffffffffff8084511685526020840151602086015260408401516040860152806060850151166060860152608084015160808601528060a08501511660a08601525060c083015160c085015260e08301518160e08601526123c882860182611ec1565b95945050505050565b828152604060208201526000611a5f6040830184612350565b84815283602082015260606040820152600061240a606083018486612050565b9695505050505050565b60006020828403121561242657600080fd5b81518015158114611d2457600080fd5b60008551612448818460208a01611e9d565b9190910193845250602083019190915260601b7fffffffffffffffffffffffffffffffffffffffff000000000000000000000000166040820152605401919050565b602081526000611d246020830184612350565b600181815b808511156124f657817fffffffffffffffffffffffffffffffffffffffffffffffffffffffffffffffff048211156124dc576124dc6120ee565b808516156124e957918102915b93841c93908002906124a2565b509250929050565b60008261250d575060016107b7565b8161251a575060006107b7565b8160018114612530576002811461253a57612556565b60019150506107b7565b60ff84111561254b5761254b6120ee565b50506001821b6107b7565b5060208310610133831016604e8410600b8410161715612579575081810a6107b7565b612583838361249d565b807fffffffffffffffffffffffffffffffffffffffffffffffffffffffffffffffff048211156125b5576125b56120ee565b029392505050565b6000611d2483836124fe565b6000826125ff577f4e487b7100000000000000000000000000000000000000000000000000000000600052601260045260246000fd5b500490565b7f4e487b7100000000000000000000000000000000000000000000000000000000600052600160045260246000fdfea2646970667358221220089973bcafa3828eae78fd91373e74e7e08e69efa70bedc1bebb1ee4eeedcce864736f6c63430008110033",
	"devdoc": {
		"kind": "dev",
		"methods": {
			"LOCAL_CHAINID()": {
				"details": "Fetch local chain id.",
				"returns": {
					"chainId": "Local chain id."
				}
			},
			"changeSetter(address)": {
				"details": "Change setter.",
				"params": {
					"newSetter": "New setter."
				}
			},
			"fee(uint256,address,uint256,bytes,bytes)": {
				"params": {
					"encoded": "The calldata which encoded by ABI Encoding.",
					"gasLimit": "Gas limit for destination user application used."
				}
			},
			"getAppConfig(address)": {
				"details": "Fetch user application config.",
				"params": {
					"ua": "User application contract address."
				},
				"returns": {
					"_0": "user application config."
				}
			},
			"importHash(uint256,bytes32,bytes32)": {
				"details": "Import hash by any oracle address.",
				"params": {
					"hash_": "The hash to import.",
					"lookupKey": "The key for loop up hash.",
					"srcChainId": "The source chain Id."
				}
			},
			"imtBranch()": {
				"details": "Fetch the branch of incremental merkle tree."
			},
			"messageCount()": {
				"details": "Fetch the messages count of incremental merkle tree."
			},
			"prove()": {
				"details": "Fetch the latest message proof"
			},
			"recv((address,uint256,uint256,address,uint256,address,uint256,bytes),bytes)": {
				"details": "Recv verified message from Channel and dispatch to destination user application address.",
				"params": {
					"message": "Verified receive message info.",
					"proof": "Message proof of this message."
				},
				"returns": {
					"dispatchResult": "Result of the message dispatch."
				}
			},
			"send(uint256,address,uint256,bytes,address,bytes)": {
				"details": "Send a cross-chain message over the endpoint.",
				"params": {
					"encoded": "The calldata which encoded by ABI Encoding.",
					"gasLimit": "Gas limit for destination user application used.",
					"refund": "Return extra fee to refund address.",
					"to": "User application contract address which receive the message.",
					"toChainId": "The Message destination chain id."
				}
			},
			"setAppConfig(address,address)": {
				"params": {
					"oracle": "Oracle which user application.",
					"relayer": "Relayer which user application choose."
				}
			},
			"setDefaultConfig(address,address)": {
				"details": "Set default user config for all user application.",
				"params": {
					"oracle": "Default oracle.",
					"relayer": "Default relayer."
				}
			}
		},
		"version": 1
	},
	"userdoc": {
		"kind": "user",
		"methods": {
			"changeSetter(address)": {
				"notice": "Only current setter could call."
			},
			"getAppConfig(address)": {
				"notice": "If user application has not configured, then the default user config is used."
			},
			"hashLookup(address,uint256,bytes32)": {
				"notice": "oracle => srcChainId => lookupKey => hash"
			},
			"importHash(uint256,bytes32,bytes32)": {
				"notice": "Hash is an abstract of the proof system, it can be a block hash or a message root hash,  \t\tspecifically provided by oracles."
			},
			"recv((address,uint256,uint256,address,uint256,address,uint256,bytes),bytes)": {
				"notice": "Only channel could call this function."
			},
			"send(uint256,address,uint256,bytes,address,bytes)": {
				"notice": "follow https://eips.ethereum.org/EIPS/eip-5750"
			},
			"setAppConfig(address,address)": {
				"notice": "Set user application config."
			},
			"setDefaultConfig(address,address)": {
				"notice": "Only setter could call."
			}
		},
		"version": 1
	},
	"gitCommit": "782465769a0a83ac6a3027dd226870c7e77d7138",
	"sourceName": "lib/ORMP/src/ORMP.sol",
	"chainId": "421614",
	"linkReferences": {},
	"deployedLinkReferences": {},
	"history": []
}