{
	"_format": "sphinx-sol-ct-artifact-1",
	"merkleRoot": "0x8f2b4c96fcf3ea0be0f9c0876f69c20dea21fd2c4f90e06f54760380d8575809",
	"contractName": "ORMP",
	"address": "0x3E77aE9112c017C4d2b9f7110E72FAf4B242dc32",
	"abi": [
		{
			"type": "constructor",
			"inputs": [
				{
					"name": "dao",
					"type": "address",
					"internalType": "address"
				}
			],
			"stateMutability": "nonpayable"
		},
		{
			"type": "function",
			"name": "LOCAL_CHAINID",
			"inputs": [],
			"outputs": [
				{
					"name": "chainId",
					"type": "uint256",
					"internalType": "uint256"
				}
			],
			"stateMutability": "view"
		},
		{
			"type": "function",
			"name": "changeSetter",
			"inputs": [
				{
					"name": "newSetter",
					"type": "address",
					"internalType": "address"
				}
			],
			"outputs": [],
			"stateMutability": "nonpayable"
		},
		{
			"type": "function",
			"name": "defaultUC",
			"inputs": [],
			"outputs": [
				{
					"name": "oracle",
					"type": "address",
					"internalType": "address"
				},
				{
					"name": "relayer",
					"type": "address",
					"internalType": "address"
				}
			],
			"stateMutability": "view"
		},
		{
			"type": "function",
			"name": "dones",
			"inputs": [
				{
					"name": "",
					"type": "bytes32",
					"internalType": "bytes32"
				}
			],
			"outputs": [
				{
					"name": "",
					"type": "bool",
					"internalType": "bool"
				}
			],
			"stateMutability": "view"
		},
		{
			"type": "function",
			"name": "fee",
			"inputs": [
				{
					"name": "toChainId",
					"type": "uint256",
					"internalType": "uint256"
				},
				{
					"name": "ua",
					"type": "address",
					"internalType": "address"
				},
				{
					"name": "gasLimit",
					"type": "uint256",
					"internalType": "uint256"
				},
				{
					"name": "encoded",
					"type": "bytes",
					"internalType": "bytes"
				},
				{
					"name": "",
					"type": "bytes",
					"internalType": "bytes"
				}
			],
			"outputs": [
				{
					"name": "",
					"type": "uint256",
					"internalType": "uint256"
				}
			],
			"stateMutability": "view"
		},
		{
			"type": "function",
			"name": "getAppConfig",
			"inputs": [
				{
					"name": "ua",
					"type": "address",
					"internalType": "address"
				}
			],
			"outputs": [
				{
					"name": "",
					"type": "tuple",
					"internalType": "struct UC",
					"components": [
						{
							"name": "oracle",
							"type": "address",
							"internalType": "address"
						},
						{
							"name": "relayer",
							"type": "address",
							"internalType": "address"
						}
					]
				}
			],
			"stateMutability": "view"
		},
		{
			"type": "function",
			"name": "imtBranch",
			"inputs": [],
			"outputs": [
				{
					"name": "",
					"type": "bytes32[32]",
					"internalType": "bytes32[32]"
				}
			],
			"stateMutability": "view"
		},
		{
			"type": "function",
			"name": "messageCount",
			"inputs": [],
			"outputs": [
				{
					"name": "",
					"type": "uint256",
					"internalType": "uint256"
				}
			],
			"stateMutability": "view"
		},
		{
			"type": "function",
			"name": "prove",
			"inputs": [],
			"outputs": [
				{
					"name": "",
					"type": "bytes32[32]",
					"internalType": "bytes32[32]"
				}
			],
			"stateMutability": "view"
		},
		{
			"type": "function",
			"name": "recv",
			"inputs": [
				{
					"name": "message",
					"type": "tuple",
					"internalType": "struct Message",
					"components": [
						{
							"name": "channel",
							"type": "address",
							"internalType": "address"
						},
						{
							"name": "index",
							"type": "uint256",
							"internalType": "uint256"
						},
						{
							"name": "fromChainId",
							"type": "uint256",
							"internalType": "uint256"
						},
						{
							"name": "from",
							"type": "address",
							"internalType": "address"
						},
						{
							"name": "toChainId",
							"type": "uint256",
							"internalType": "uint256"
						},
						{
							"name": "to",
							"type": "address",
							"internalType": "address"
						},
						{
							"name": "gasLimit",
							"type": "uint256",
							"internalType": "uint256"
						},
						{
							"name": "encoded",
							"type": "bytes",
							"internalType": "bytes"
						}
					]
				},
				{
					"name": "proof",
					"type": "bytes",
					"internalType": "bytes"
				}
			],
			"outputs": [
				{
					"name": "dispatchResult",
					"type": "bool",
					"internalType": "bool"
				}
			],
			"stateMutability": "payable"
		},
		{
			"type": "function",
			"name": "root",
			"inputs": [],
			"outputs": [
				{
					"name": "",
					"type": "bytes32",
					"internalType": "bytes32"
				}
			],
			"stateMutability": "view"
		},
		{
			"type": "function",
			"name": "send",
			"inputs": [
				{
					"name": "toChainId",
					"type": "uint256",
					"internalType": "uint256"
				},
				{
					"name": "to",
					"type": "address",
					"internalType": "address"
				},
				{
					"name": "gasLimit",
					"type": "uint256",
					"internalType": "uint256"
				},
				{
					"name": "encoded",
					"type": "bytes",
					"internalType": "bytes"
				},
				{
					"name": "refund",
					"type": "address",
					"internalType": "address"
				},
				{
					"name": "",
					"type": "bytes",
					"internalType": "bytes"
				}
			],
			"outputs": [
				{
					"name": "",
					"type": "bytes32",
					"internalType": "bytes32"
				}
			],
			"stateMutability": "payable"
		},
		{
			"type": "function",
			"name": "setAppConfig",
			"inputs": [
				{
					"name": "oracle",
					"type": "address",
					"internalType": "address"
				},
				{
					"name": "relayer",
					"type": "address",
					"internalType": "address"
				}
			],
			"outputs": [],
			"stateMutability": "nonpayable"
		},
		{
			"type": "function",
			"name": "setDefaultConfig",
			"inputs": [
				{
					"name": "oracle",
					"type": "address",
					"internalType": "address"
				},
				{
					"name": "relayer",
					"type": "address",
					"internalType": "address"
				}
			],
			"outputs": [],
			"stateMutability": "nonpayable"
		},
		{
			"type": "function",
			"name": "setter",
			"inputs": [],
			"outputs": [
				{
					"name": "",
					"type": "address",
					"internalType": "address"
				}
			],
			"stateMutability": "view"
		},
		{
			"type": "function",
			"name": "ucOf",
			"inputs": [
				{
					"name": "",
					"type": "address",
					"internalType": "address"
				}
			],
			"outputs": [
				{
					"name": "oracle",
					"type": "address",
					"internalType": "address"
				},
				{
					"name": "relayer",
					"type": "address",
					"internalType": "address"
				}
			],
			"stateMutability": "view"
		},
		{
			"type": "function",
			"name": "version",
			"inputs": [],
			"outputs": [
				{
					"name": "",
					"type": "string",
					"internalType": "string"
				}
			],
			"stateMutability": "pure"
		},
		{
			"type": "event",
			"name": "AppConfigUpdated",
			"inputs": [
				{
					"name": "ua",
					"type": "address",
					"indexed": true,
					"internalType": "address"
				},
				{
					"name": "oracle",
					"type": "address",
					"indexed": false,
					"internalType": "address"
				},
				{
					"name": "relayer",
					"type": "address",
					"indexed": false,
					"internalType": "address"
				}
			],
			"anonymous": false
		},
		{
			"type": "event",
			"name": "DefaultConfigUpdated",
			"inputs": [
				{
					"name": "oracle",
					"type": "address",
					"indexed": false,
					"internalType": "address"
				},
				{
					"name": "relayer",
					"type": "address",
					"indexed": false,
					"internalType": "address"
				}
			],
			"anonymous": false
		},
		{
			"type": "event",
			"name": "MessageAccepted",
			"inputs": [
				{
					"name": "msgHash",
					"type": "bytes32",
					"indexed": true,
					"internalType": "bytes32"
				},
				{
					"name": "root",
					"type": "bytes32",
					"indexed": false,
					"internalType": "bytes32"
				},
				{
					"name": "message",
					"type": "tuple",
					"indexed": false,
					"internalType": "struct Message",
					"components": [
						{
							"name": "channel",
							"type": "address",
							"internalType": "address"
						},
						{
							"name": "index",
							"type": "uint256",
							"internalType": "uint256"
						},
						{
							"name": "fromChainId",
							"type": "uint256",
							"internalType": "uint256"
						},
						{
							"name": "from",
							"type": "address",
							"internalType": "address"
						},
						{
							"name": "toChainId",
							"type": "uint256",
							"internalType": "uint256"
						},
						{
							"name": "to",
							"type": "address",
							"internalType": "address"
						},
						{
							"name": "gasLimit",
							"type": "uint256",
							"internalType": "uint256"
						},
						{
							"name": "encoded",
							"type": "bytes",
							"internalType": "bytes"
						}
					]
				}
			],
			"anonymous": false
		},
		{
			"type": "event",
			"name": "MessageAssigned",
			"inputs": [
				{
					"name": "msgHash",
					"type": "bytes32",
					"indexed": true,
					"internalType": "bytes32"
				},
				{
					"name": "oracle",
					"type": "address",
					"indexed": true,
					"internalType": "address"
				},
				{
					"name": "relayer",
					"type": "address",
					"indexed": true,
					"internalType": "address"
				},
				{
					"name": "oracleFee",
					"type": "uint256",
					"indexed": false,
					"internalType": "uint256"
				},
				{
					"name": "relayerFee",
					"type": "uint256",
					"indexed": false,
					"internalType": "uint256"
				}
			],
			"anonymous": false
		},
		{
			"type": "event",
			"name": "MessageDispatched",
			"inputs": [
				{
					"name": "msgHash",
					"type": "bytes32",
					"indexed": true,
					"internalType": "bytes32"
				},
				{
					"name": "dispatchResult",
					"type": "bool",
					"indexed": false,
					"internalType": "bool"
				}
			],
			"anonymous": false
		},
		{
			"type": "event",
			"name": "SetterChanged",
			"inputs": [
				{
					"name": "oldSetter",
					"type": "address",
					"indexed": true,
					"internalType": "address"
				},
				{
					"name": "newSetter",
					"type": "address",
					"indexed": true,
					"internalType": "address"
				}
			],
			"anonymous": false
		}
	],
	"solcInputHash": "5aa3d56c367b9c7ac15bae56c0d3c8d6",
	"args": [
		"0x701609866556Cb9A1FBD6B40201cD5899c9D2d56"
	],
	"bytecode": "0x60a0604052600160008190558055306080523480156200001e57600080fd5b50604051620025ef380380620025ef83398101604081905262000041916200008b565b600280546001600160a01b0319166001600160a01b03929092169190911790557f27ae5ba08d7291c96c8cbddcc148bf48a6d68c7974b94356f53754ef6171d757600655620000bd565b6000602082840312156200009e57600080fd5b81516001600160a01b0381168114620000b657600080fd5b9392505050565b608051612516620000d96000396000610c6201526125166000f3fe60806040526004361061010e5760003560e01c80634ea59979116100a55780638b22909111610074578063ebf0c71711610059578063ebf0c717146103bb578063ee6ad167146103d1578063f67c907c146103f457600080fd5b80638b22909114610388578063b0ff5e72146103a857600080fd5b80634ea59979146102f457806352720be41461031457806354fd4d50146103295780635e26462c1461037557600080fd5b80633f3108f7116100e15780633f3108f7146101f8578063413422491461024a57806345152ae31461029e5780634872824f146102c057600080fd5b80630f988a73146101135780631c2b2da6146101355780633c50e178146101685780633dbcc8d1146101e3575b600080fd5b34801561011f57600080fd5b5061013361012e366004611be2565b610424565b005b34801561014157600080fd5b50610155610150366004611c4d565b610521565b6040519081526020015b60405180910390f35b34801561017457600080fd5b506101b6610183366004611be2565b6005602052600090815260409020805460019091015473ffffffffffffffffffffffffffffffffffffffff918216911682565b6040805173ffffffffffffffffffffffffffffffffffffffff93841681529290911660208301520161015f565b3480156101ef57600080fd5b50602754610155565b34801561020457600080fd5b506002546102259073ffffffffffffffffffffffffffffffffffffffff1681565b60405173ffffffffffffffffffffffffffffffffffffffff909116815260200161015f565b34801561025657600080fd5b5061026a610265366004611be2565b610672565b60408051825173ffffffffffffffffffffffffffffffffffffffff908116825260209384015116928101929092520161015f565b3480156102aa57600080fd5b506102b3610729565b60405161015f9190611ce1565b3480156102cc57600080fd5b506003546004546101b69173ffffffffffffffffffffffffffffffffffffffff908116911682565b34801561030057600080fd5b5061013361030f366004611d17565b610740565b34801561032057600080fd5b506102b3610863565b34801561033557600080fd5b50604080518082018252600581527f322e302e300000000000000000000000000000000000000000000000000000006020820152905161015f9190611db8565b610155610383366004611dcb565b61089f565b34801561039457600080fd5b506101336103a3366004611d17565b610948565b3480156103b457600080fd5b5046610155565b3480156103c757600080fd5b5061015560065481565b6103e46103df366004611e72565b610a07565b604051901515815260200161015f565b34801561040057600080fd5b506103e461040f366004611ee4565b60286020526000908152604090205460ff1681565b60025473ffffffffffffffffffffffffffffffffffffffff1633146104aa576040517f08c379a000000000000000000000000000000000000000000000000000000000815260206004820152600560248201527f216175746800000000000000000000000000000000000000000000000000000060448201526064015b60405180910390fd5b6002805473ffffffffffffffffffffffffffffffffffffffff8381167fffffffffffffffffffffffff0000000000000000000000000000000000000000831681179093556040519116919082907fb0999394a8202229d1e14c6290230863233f18473f7504b3a7b1a27f9b014c9d90600090a35050565b60008061052d88610672565b90506000816020015173ffffffffffffffffffffffffffffffffffffffff166353179a7c8b8b8b8b8b6040518663ffffffff1660e01b8152600401610576959493929190611f46565b602060405180830381865afa158015610593573d6000803e3d6000fd5b505050506040513d601f19601f820116820180604052508101906105b79190611f82565b82516040517fa1dbf432000000000000000000000000000000000000000000000000000000008152600481018d905273ffffffffffffffffffffffffffffffffffffffff8c811660248301529293506000929091169063a1dbf43290604401602060405180830381865afa158015610633573d6000803e3d6000fd5b505050506040513d601f19601f820116820180604052508101906106579190611f82565b90506106638183611fca565b9b9a5050505050505050505050565b6040805180820182526000808252602080830182905273ffffffffffffffffffffffffffffffffffffffff858116835260058252918490208451808601909552805483168552600101549091169083018190529091906106eb5760045473ffffffffffffffffffffffffffffffffffffffff1660208201525b805173ffffffffffffffffffffffffffffffffffffffff166107235760035473ffffffffffffffffffffffffffffffffffffffff1681525b92915050565b610731611b9a565b61073b6007610ae4565b905090565b60025473ffffffffffffffffffffffffffffffffffffffff1633146107c1576040517f08c379a000000000000000000000000000000000000000000000000000000000815260206004820152600560248201527f216175746800000000000000000000000000000000000000000000000000000060448201526064016104a1565b60408051808201825273ffffffffffffffffffffffffffffffffffffffff8481168083529084166020928301819052600380547fffffffffffffffffffffffff0000000000000000000000000000000000000000908116841790915560048054909116821790558351918252918101919091527f504f152883e6158786ddfcce63f4d4d95ce8e404b1f6e6365a06f63849b7cb95910160405180910390a15050565b61086b611b9a565b604080516104008101918290529060079060209082845b815481526020019060010190808311610882575050505050905090565b600060016000541461090d576040517f08c379a000000000000000000000000000000000000000000000000000000000815260206004820152601060248201527f2173656e642d7265656e7472616e63790000000000000000000000000000000060448201526064016104a1565b600260009081553390610924828c8c8c8c8c610bda565b90506109358287838e8d8d8d610d9d565b60016000559a9950505050505050505050565b60408051808201825273ffffffffffffffffffffffffffffffffffffffff848116808352848216602080850182815233600081815260058452889020965187549087167fffffffffffffffffffffffff000000000000000000000000000000000000000091821617885591516001909701805497909616969091169590951790935584519182529181019190915290917f86b44d92ad94c11b25d0f08d0f55e8e235b4d165e62e541c02e8ee19f551c97b910160405180910390a25050565b60006001805414610a74576040517f08c379a000000000000000000000000000000000000000000000000000000000815260206004820152601060248201527f21726563762d7265656e7472616e63790000000000000000000000000000000060448201526064016104a1565b60026001556000610a86858585610e8d565b9050610a9a610a94866120e1565b82611155565b9150807f62b1dc20fd6f1518626da5b6f9897e8cd4ebadbad071bb66dc96a37c970087a883604051610ad0911515815260200190565b60405180910390a250600180559392505050565b610aec611b9a565b600060018360200154610aff9190612183565b6040805161040081019182905291925060009190859060209082845b815481526020019060010190808311610b1b57505050505090506000610b3f6111df565b905060005b6020811015610bd157600184821c811690819003610b8f57838260208110610b6e57610b6e612196565b6020020151868360208110610b8557610b85612196565b6020020152610bbe565b828260208110610ba157610ba1612196565b6020020151868360208110610bb857610bb8612196565b60200201525b5080610bc9816121c5565b915050610b44565b50505050919050565b6000468603610c45576040517f08c379a000000000000000000000000000000000000000000000000000000000815260206004820152600c60248201527f2163726f73732d636861696e000000000000000000000000000000000000000060448201526064016104a1565b6000610c5060275490565b905060006040518061010001604052807f000000000000000000000000000000000000000000000000000000000000000073ffffffffffffffffffffffffffffffffffffffff168152602001838152602001610ca94690565b81526020018a73ffffffffffffffffffffffffffffffffffffffff1681526020018981526020018873ffffffffffffffffffffffffffffffffffffffff16815260200187815260200186868080601f016020809104026020016040519081016040528093929190818152602001838380828437600092018290525093909452509293509150610d399050826116a0565b9050610d466007826116d0565b610d506007611814565b600681905560405182917f327110434bca326d1f70236295f59c8b472ebc683a6549ca9254697564fec4a591610d889190869061227e565b60405180910390a29998505050505050505050565b6000610da888610672565b90506000610dbe8260200151878b888888611827565b90506000610dd18360000151888c6118c3565b9050826020015173ffffffffffffffffffffffffffffffffffffffff16836000015173ffffffffffffffffffffffffffffffffffffffff16897ff7e134438bf3052b95eaa2f90f4177932297d80eb36186624c2f366cb8944ecf8486604051610e44929190918252602082015260400190565b60405180910390a4610e568183611fca565b341115610e81576000610e698284611fca565b610e739034612183565b9050610e7f8a82611973565b505b50505050505050505050565b600080610ea361026560c0870160a08801611be2565b602081015190915073ffffffffffffffffffffffffffffffffffffffff163314610f29576040517f08c379a000000000000000000000000000000000000000000000000000000000815260206004820152600560248201527f216175746800000000000000000000000000000000000000000000000000000060448201526064016104a1565b6000610f3c610f37876120e1565b6116a0565b9050816000015173ffffffffffffffffffffffffffffffffffffffff1663094f87c587604001358388886040518563ffffffff1660e01b8152600401610f859493929190612297565b602060405180830381865afa158015610fa2573d6000803e3d6000fd5b505050506040513d601f19601f82011682018060405250810190610fc691906122c1565b61102c576040517f08c379a000000000000000000000000000000000000000000000000000000000815260206004820152600660248201527f2170726f6f66000000000000000000000000000000000000000000000000000060448201526064016104a1565b60808601354614611099576040517f08c379a000000000000000000000000000000000000000000000000000000000815260206004820152600a60248201527f21746f436861696e49640000000000000000000000000000000000000000000060448201526064016104a1565b60008181526028602052604090205460ff1615611114576040517f08c379a00000000000000000000000000000000000000000000000000000000081526004016104a19060208082526004908201527f646f6e6500000000000000000000000000000000000000000000000000000000604082015260600190565b600081815260286020526040902080547fffffffffffffffffffffffffffffffffffffffffffffffffffffffffffffff001660011790559150509392505050565b60006111d78360c001513460008660e00151868860400151896060015160405160200161118594939291906122e3565b604080517fffffffffffffffffffffffffffffffffffffffffffffffffffffffffffffffe081840301815291905260a088015173ffffffffffffffffffffffffffffffffffffffff1693929190611a3d565b509392505050565b6111e7611b9a565b600081527fad3228b676f7d3cd4284a5443f17f1962b36e491b30a40b2405849e597ba5fb560208201527fb4c11951957c6f8f642c4af61cd6b24640fec6dc7fc607ee8206a99e92410d3060408201527f21ddb9a356815c3fac1026b6dec5df3124afbadb485c9ba5a3e3398a04b7ba8560608201527fe58769b32a1beaf1ea27375a44095a0d1fb664ce2dd358e7fcbfb78c26a1934460808201527f0eb01ebfc9ed27500cd4dfc979272d1f0913cc9f66540d7e8005811109e1cf2d60a08201527f887c22bd8750d34016ac3c66b5ff102dacdd73f6b014e710b51e8022af9a196860c08201527fffd70157e48063fc33c97a050f7f640233bf646cc98d9524c6b92bcf3ab56f8360e08201527f9867cc5f7f196b93bae1e27e6320742445d290f2263827498b54fec539f756af6101008201527fcefad4e508c098b9a7e1d8feb19955fb02ba9675585078710969d3440f5054e06101208201527ff9dc3e7fe016e050eff260334f18a5d4fe391d82092319f5964f2e2eb7c1c3a56101408201527ff8b13a49e282f609c317a833fb8d976d11517c571d1221a265d25af778ecf8926101608201527f3490c6ceeb450aecdc82e28293031d10c7d73bf85e57bf041a97360aa2c5d99c6101808201527fc1df82d9c4b87413eae2ef048f94b4d3554cea73d92b0f7af96e0271c691e2bb6101a08201527f5c67add7c6caf302256adedf7ab114da0acfe870d449a3a489f781d659e8becc6101c08201527fda7bce9f4e8618b6bd2f4132ce798cdc7a60e7e1460a7299e3c6342a579626d26101e08201527f2733e50f526ec2fa19a22b31e8ed50f23cd1fdf94c9154ed3a7609a2f1ff981f6102008201527fe1d3b5c807b281e4683cc6d6315cf95b9ade8641defcb32372f1c126e398ef7a6102208201527f5a2dce0a8a7f68bb74560f8f71837c2c2ebbcbf7fffb42ae1896f13f7c7479a06102408201527fb46a28b6f55540f89444f63de0378e3d121be09e06cc9ded1c20e65876d36aa06102608201527fc65e9645644786b620e2dd2ad648ddfcbf4a7e5b1a3a4ecfe7f64667a3f0b7e26102808201527ff4418588ed35a2458cffeb39b93d26f18d2ab13bdce6aee58e7b99359ec2dfd96102a08201527f5a9c16dc00d6ef18b7933a6f8dc65ccb55667138776f7dea101070dc8796e3776102c08201527f4df84f40ae0c8229d0d6069e5c8f39a7c299677a09d367fc7b05e3bc380ee6526102e08201527fcdc72595f74c7b1043d0e1ffbab734648c838dfb0527d971b602bc216c9619ef6103008201527f0abf5ac974a1ed57f4050aa510dd9c74f508277b39d7973bb2dfccc5eeb0618d6103208201527fb8cd74046ff337f0a7bf2c8e03e10f642c1886798d71806ab1e888d9e5ee87d06103408201527f838c5655cb21c6cb83313b5a631175dff4963772cce9108188b34ac87c81c41e6103608201527f662ee4dd2dd7b2bc707961b1e646c4047669dcb6584f0d8d770daf5d7e7deb2e6103808201527f388ab20e2573d171a88108e79d820e98f26c0b84aa8b2f4aa4968dbb818ea3226103a08201527f93237c50ba75ee485f4c22adf2f741400bdf8d6a9cc7df7ecae576221665d7356103c08201527f8448818bb4ae4562849e949e17ac16e0be16688e156b5cf15e098c627c0056a96103e082015290565b6000816040516020016116b39190612337565b604051602081830303815290604052805190602001209050919050565b60016116de6020600261246a565b6116e89190612183565b826020015410611754576040517f08c379a000000000000000000000000000000000000000000000000000000000815260206004820152601060248201527f6d65726b6c6520747265652066756c6c0000000000000000000000000000000060448201526064016104a1565b60018260200160008282546117699190611fca565b9091555050602082015460005b602081101561180657816001166001036117a5578284826020811061179d5761179d612196565b015550505050565b8381602081106117b7576117b7612196565b015460408051602081019290925281018490526060016040516020818303038152906040528051906020012092506002826117f29190612476565b9150806117fe816121c5565b915050611776565b5061180f6124b1565b505050565b6000610723826118226111df565b611ac8565b6000808773ffffffffffffffffffffffffffffffffffffffff166353179a7c88888888886040518663ffffffff1660e01b815260040161186b959493929190611f46565b602060405180830381865afa158015611888573d6000803e3d6000fd5b505050506040513d601f19601f820116820180604052508101906118ac9190611f82565b90506118b88882611973565b979650505050505050565b6040517fa1dbf4320000000000000000000000000000000000000000000000000000000081526004810183905273ffffffffffffffffffffffffffffffffffffffff8281166024830152600091829186169063a1dbf43290604401602060405180830381865afa15801561193b573d6000803e3d6000fd5b505050506040513d601f19601f8201168201806040525081019061195f9190611f82565b905061196b8582611973565b949350505050565b60008273ffffffffffffffffffffffffffffffffffffffff168260405160006040518083038185875af1925050503d80600081146119cd576040519150601f19603f3d011682016040523d82523d6000602084013e6119d2565b606091505b505090508061180f576040517f08c379a000000000000000000000000000000000000000000000000000000000815260206004820152600560248201527f2173656e6400000000000000000000000000000000000000000000000000000060448201526064016104a1565b6000606060008060008661ffff1667ffffffffffffffff811115611a6357611a63611fdd565b6040519080825280601f01601f191660200182016040528015611a8d576020820181803683370190505b5090506000808751602089018b8e8ef191503d925086831115611aae578692505b828152826000602083013e90999098509650505050505050565b6020820154600090815b6020811015611b9257600182821c166000868360208110611af557611af5612196565b0154905081600103611b32576040805160208101839052908101869052606001604051602081830303815290604052805190602001209450611b7d565b84868460208110611b4557611b45612196565b6020020151604051602001611b64929190918252602082015260400190565b6040516020818303038152906040528051906020012094505b50508080611b8a906121c5565b915050611ad2565b505092915050565b6040518061040001604052806020906020820280368337509192915050565b803573ffffffffffffffffffffffffffffffffffffffff81168114611bdd57600080fd5b919050565b600060208284031215611bf457600080fd5b611bfd82611bb9565b9392505050565b60008083601f840112611c1657600080fd5b50813567ffffffffffffffff811115611c2e57600080fd5b602083019150836020828501011115611c4657600080fd5b9250929050565b600080600080600080600060a0888a031215611c6857600080fd5b87359650611c7860208901611bb9565b955060408801359450606088013567ffffffffffffffff80821115611c9c57600080fd5b611ca88b838c01611c04565b909650945060808a0135915080821115611cc157600080fd5b50611cce8a828b01611c04565b989b979a50959850939692959293505050565b6104008101818360005b6020808210611cfa5750611d0e565b825184529283019290910190600101611ceb565b50505092915050565b60008060408385031215611d2a57600080fd5b611d3383611bb9565b9150611d4160208401611bb9565b90509250929050565b60005b83811015611d65578181015183820152602001611d4d565b50506000910152565b60008151808452611d86816020860160208601611d4a565b601f017fffffffffffffffffffffffffffffffffffffffffffffffffffffffffffffffe0169290920160200192915050565b602081526000611bfd6020830184611d6e565b60008060008060008060008060c0898b031215611de757600080fd5b88359750611df760208a01611bb9565b965060408901359550606089013567ffffffffffffffff80821115611e1b57600080fd5b611e278c838d01611c04565b9097509550859150611e3b60808c01611bb9565b945060a08b0135915080821115611e5157600080fd5b50611e5e8b828c01611c04565b999c989b5096995094979396929594505050565b600080600060408486031215611e8757600080fd5b833567ffffffffffffffff80821115611e9f57600080fd5b908501906101008288031215611eb457600080fd5b90935060208501359080821115611eca57600080fd5b50611ed786828701611c04565b9497909650939450505050565b600060208284031215611ef657600080fd5b5035919050565b8183528181602085013750600060208284010152600060207fffffffffffffffffffffffffffffffffffffffffffffffffffffffffffffffe0601f840116840101905092915050565b85815273ffffffffffffffffffffffffffffffffffffffff851660208201528360408201526080606082015260006118b8608083018486611efd565b600060208284031215611f9457600080fd5b5051919050565b7f4e487b7100000000000000000000000000000000000000000000000000000000600052601160045260246000fd5b8082018082111561072357610723611f9b565b7f4e487b7100000000000000000000000000000000000000000000000000000000600052604160045260246000fd5b604051610100810167ffffffffffffffff8111828210171561203057612030611fdd565b60405290565b600082601f83011261204757600080fd5b813567ffffffffffffffff8082111561206257612062611fdd565b604051601f83017fffffffffffffffffffffffffffffffffffffffffffffffffffffffffffffffe0908116603f011681019082821181831017156120a8576120a8611fdd565b816040528381528660208588010111156120c157600080fd5b836020870160208301376000602085830101528094505050505092915050565b600061010082360312156120f457600080fd5b6120fc61200c565b61210583611bb9565b8152602083013560208201526040830135604082015261212760608401611bb9565b60608201526080830135608082015261214260a08401611bb9565b60a082015260c083013560c082015260e083013567ffffffffffffffff81111561216b57600080fd5b61217736828601612036565b60e08301525092915050565b8181038181111561072357610723611f9b565b7f4e487b7100000000000000000000000000000000000000000000000000000000600052603260045260246000fd5b60007fffffffffffffffffffffffffffffffffffffffffffffffffffffffffffffffff82036121f6576121f6611f9b565b5060010190565b600061010073ffffffffffffffffffffffffffffffffffffffff8084511685526020840151602086015260408401516040860152806060850151166060860152608084015160808601528060a08501511660a08601525060c083015160c085015260e08301518160e086015261227582860182611d6e565b95945050505050565b82815260406020820152600061196b60408301846121fd565b8481528360208201526060604082015260006122b7606083018486611efd565b9695505050505050565b6000602082840312156122d357600080fd5b81518015158114611bfd57600080fd5b600085516122f5818460208a01611d4a565b9190910193845250602083019190915260601b7fffffffffffffffffffffffffffffffffffffffff000000000000000000000000166040820152605401919050565b602081526000611bfd60208301846121fd565b600181815b808511156123a357817fffffffffffffffffffffffffffffffffffffffffffffffffffffffffffffffff0482111561238957612389611f9b565b8085161561239657918102915b93841c939080029061234f565b509250929050565b6000826123ba57506001610723565b816123c757506000610723565b81600181146123dd57600281146123e757612403565b6001915050610723565b60ff8411156123f8576123f8611f9b565b50506001821b610723565b5060208310610133831016604e8410600b8410161715612426575081810a610723565b612430838361234a565b807fffffffffffffffffffffffffffffffffffffffffffffffffffffffffffffffff0482111561246257612462611f9b565b029392505050565b6000611bfd83836123ab565b6000826124ac577f4e487b7100000000000000000000000000000000000000000000000000000000600052601260045260246000fd5b500490565b7f4e487b7100000000000000000000000000000000000000000000000000000000600052600160045260246000fdfea2646970667358221220c39cf58ec5ef1dd33b9ace3b00106b0e07cf756d2c2ff717c0533b342f359d1b64736f6c63430008110033",
	"deployedBytecode": "0x60806040526004361061010e5760003560e01c80634ea59979116100a55780638b22909111610074578063ebf0c71711610059578063ebf0c717146103bb578063ee6ad167146103d1578063f67c907c146103f457600080fd5b80638b22909114610388578063b0ff5e72146103a857600080fd5b80634ea59979146102f457806352720be41461031457806354fd4d50146103295780635e26462c1461037557600080fd5b80633f3108f7116100e15780633f3108f7146101f8578063413422491461024a57806345152ae31461029e5780634872824f146102c057600080fd5b80630f988a73146101135780631c2b2da6146101355780633c50e178146101685780633dbcc8d1146101e3575b600080fd5b34801561011f57600080fd5b5061013361012e366004611be2565b610424565b005b34801561014157600080fd5b50610155610150366004611c4d565b610521565b6040519081526020015b60405180910390f35b34801561017457600080fd5b506101b6610183366004611be2565b6005602052600090815260409020805460019091015473ffffffffffffffffffffffffffffffffffffffff918216911682565b6040805173ffffffffffffffffffffffffffffffffffffffff93841681529290911660208301520161015f565b3480156101ef57600080fd5b50602754610155565b34801561020457600080fd5b506002546102259073ffffffffffffffffffffffffffffffffffffffff1681565b60405173ffffffffffffffffffffffffffffffffffffffff909116815260200161015f565b34801561025657600080fd5b5061026a610265366004611be2565b610672565b60408051825173ffffffffffffffffffffffffffffffffffffffff908116825260209384015116928101929092520161015f565b3480156102aa57600080fd5b506102b3610729565b60405161015f9190611ce1565b3480156102cc57600080fd5b506003546004546101b69173ffffffffffffffffffffffffffffffffffffffff908116911682565b34801561030057600080fd5b5061013361030f366004611d17565b610740565b34801561032057600080fd5b506102b3610863565b34801561033557600080fd5b50604080518082018252600581527f322e302e300000000000000000000000000000000000000000000000000000006020820152905161015f9190611db8565b610155610383366004611dcb565b61089f565b34801561039457600080fd5b506101336103a3366004611d17565b610948565b3480156103b457600080fd5b5046610155565b3480156103c757600080fd5b5061015560065481565b6103e46103df366004611e72565b610a07565b604051901515815260200161015f565b34801561040057600080fd5b506103e461040f366004611ee4565b60286020526000908152604090205460ff1681565b60025473ffffffffffffffffffffffffffffffffffffffff1633146104aa576040517f08c379a000000000000000000000000000000000000000000000000000000000815260206004820152600560248201527f216175746800000000000000000000000000000000000000000000000000000060448201526064015b60405180910390fd5b6002805473ffffffffffffffffffffffffffffffffffffffff8381167fffffffffffffffffffffffff0000000000000000000000000000000000000000831681179093556040519116919082907fb0999394a8202229d1e14c6290230863233f18473f7504b3a7b1a27f9b014c9d90600090a35050565b60008061052d88610672565b90506000816020015173ffffffffffffffffffffffffffffffffffffffff166353179a7c8b8b8b8b8b6040518663ffffffff1660e01b8152600401610576959493929190611f46565b602060405180830381865afa158015610593573d6000803e3d6000fd5b505050506040513d601f19601f820116820180604052508101906105b79190611f82565b82516040517fa1dbf432000000000000000000000000000000000000000000000000000000008152600481018d905273ffffffffffffffffffffffffffffffffffffffff8c811660248301529293506000929091169063a1dbf43290604401602060405180830381865afa158015610633573d6000803e3d6000fd5b505050506040513d601f19601f820116820180604052508101906106579190611f82565b90506106638183611fca565b9b9a5050505050505050505050565b6040805180820182526000808252602080830182905273ffffffffffffffffffffffffffffffffffffffff858116835260058252918490208451808601909552805483168552600101549091169083018190529091906106eb5760045473ffffffffffffffffffffffffffffffffffffffff1660208201525b805173ffffffffffffffffffffffffffffffffffffffff166107235760035473ffffffffffffffffffffffffffffffffffffffff1681525b92915050565b610731611b9a565b61073b6007610ae4565b905090565b60025473ffffffffffffffffffffffffffffffffffffffff1633146107c1576040517f08c379a000000000000000000000000000000000000000000000000000000000815260206004820152600560248201527f216175746800000000000000000000000000000000000000000000000000000060448201526064016104a1565b60408051808201825273ffffffffffffffffffffffffffffffffffffffff8481168083529084166020928301819052600380547fffffffffffffffffffffffff0000000000000000000000000000000000000000908116841790915560048054909116821790558351918252918101919091527f504f152883e6158786ddfcce63f4d4d95ce8e404b1f6e6365a06f63849b7cb95910160405180910390a15050565b61086b611b9a565b604080516104008101918290529060079060209082845b815481526020019060010190808311610882575050505050905090565b600060016000541461090d576040517f08c379a000000000000000000000000000000000000000000000000000000000815260206004820152601060248201527f2173656e642d7265656e7472616e63790000000000000000000000000000000060448201526064016104a1565b600260009081553390610924828c8c8c8c8c610bda565b90506109358287838e8d8d8d610d9d565b60016000559a9950505050505050505050565b60408051808201825273ffffffffffffffffffffffffffffffffffffffff848116808352848216602080850182815233600081815260058452889020965187549087167fffffffffffffffffffffffff000000000000000000000000000000000000000091821617885591516001909701805497909616969091169590951790935584519182529181019190915290917f86b44d92ad94c11b25d0f08d0f55e8e235b4d165e62e541c02e8ee19f551c97b910160405180910390a25050565b60006001805414610a74576040517f08c379a000000000000000000000000000000000000000000000000000000000815260206004820152601060248201527f21726563762d7265656e7472616e63790000000000000000000000000000000060448201526064016104a1565b60026001556000610a86858585610e8d565b9050610a9a610a94866120e1565b82611155565b9150807f62b1dc20fd6f1518626da5b6f9897e8cd4ebadbad071bb66dc96a37c970087a883604051610ad0911515815260200190565b60405180910390a250600180559392505050565b610aec611b9a565b600060018360200154610aff9190612183565b6040805161040081019182905291925060009190859060209082845b815481526020019060010190808311610b1b57505050505090506000610b3f6111df565b905060005b6020811015610bd157600184821c811690819003610b8f57838260208110610b6e57610b6e612196565b6020020151868360208110610b8557610b85612196565b6020020152610bbe565b828260208110610ba157610ba1612196565b6020020151868360208110610bb857610bb8612196565b60200201525b5080610bc9816121c5565b915050610b44565b50505050919050565b6000468603610c45576040517f08c379a000000000000000000000000000000000000000000000000000000000815260206004820152600c60248201527f2163726f73732d636861696e000000000000000000000000000000000000000060448201526064016104a1565b6000610c5060275490565b905060006040518061010001604052807f0000000000000000000000003e77ae9112c017c4d2b9f7110e72faf4b242dc3273ffffffffffffffffffffffffffffffffffffffff168152602001838152602001610ca94690565b81526020018a73ffffffffffffffffffffffffffffffffffffffff1681526020018981526020018873ffffffffffffffffffffffffffffffffffffffff16815260200187815260200186868080601f016020809104026020016040519081016040528093929190818152602001838380828437600092018290525093909452509293509150610d399050826116a0565b9050610d466007826116d0565b610d506007611814565b600681905560405182917f327110434bca326d1f70236295f59c8b472ebc683a6549ca9254697564fec4a591610d889190869061227e565b60405180910390a29998505050505050505050565b6000610da888610672565b90506000610dbe8260200151878b888888611827565b90506000610dd18360000151888c6118c3565b9050826020015173ffffffffffffffffffffffffffffffffffffffff16836000015173ffffffffffffffffffffffffffffffffffffffff16897ff7e134438bf3052b95eaa2f90f4177932297d80eb36186624c2f366cb8944ecf8486604051610e44929190918252602082015260400190565b60405180910390a4610e568183611fca565b341115610e81576000610e698284611fca565b610e739034612183565b9050610e7f8a82611973565b505b50505050505050505050565b600080610ea361026560c0870160a08801611be2565b602081015190915073ffffffffffffffffffffffffffffffffffffffff163314610f29576040517f08c379a000000000000000000000000000000000000000000000000000000000815260206004820152600560248201527f216175746800000000000000000000000000000000000000000000000000000060448201526064016104a1565b6000610f3c610f37876120e1565b6116a0565b9050816000015173ffffffffffffffffffffffffffffffffffffffff1663094f87c587604001358388886040518563ffffffff1660e01b8152600401610f859493929190612297565b602060405180830381865afa158015610fa2573d6000803e3d6000fd5b505050506040513d601f19601f82011682018060405250810190610fc691906122c1565b61102c576040517f08c379a000000000000000000000000000000000000000000000000000000000815260206004820152600660248201527f2170726f6f66000000000000000000000000000000000000000000000000000060448201526064016104a1565b60808601354614611099576040517f08c379a000000000000000000000000000000000000000000000000000000000815260206004820152600a60248201527f21746f436861696e49640000000000000000000000000000000000000000000060448201526064016104a1565b60008181526028602052604090205460ff1615611114576040517f08c379a00000000000000000000000000000000000000000000000000000000081526004016104a19060208082526004908201527f646f6e6500000000000000000000000000000000000000000000000000000000604082015260600190565b600081815260286020526040902080547fffffffffffffffffffffffffffffffffffffffffffffffffffffffffffffff001660011790559150509392505050565b60006111d78360c001513460008660e00151868860400151896060015160405160200161118594939291906122e3565b604080517fffffffffffffffffffffffffffffffffffffffffffffffffffffffffffffffe081840301815291905260a088015173ffffffffffffffffffffffffffffffffffffffff1693929190611a3d565b509392505050565b6111e7611b9a565b600081527fad3228b676f7d3cd4284a5443f17f1962b36e491b30a40b2405849e597ba5fb560208201527fb4c11951957c6f8f642c4af61cd6b24640fec6dc7fc607ee8206a99e92410d3060408201527f21ddb9a356815c3fac1026b6dec5df3124afbadb485c9ba5a3e3398a04b7ba8560608201527fe58769b32a1beaf1ea27375a44095a0d1fb664ce2dd358e7fcbfb78c26a1934460808201527f0eb01ebfc9ed27500cd4dfc979272d1f0913cc9f66540d7e8005811109e1cf2d60a08201527f887c22bd8750d34016ac3c66b5ff102dacdd73f6b014e710b51e8022af9a196860c08201527fffd70157e48063fc33c97a050f7f640233bf646cc98d9524c6b92bcf3ab56f8360e08201527f9867cc5f7f196b93bae1e27e6320742445d290f2263827498b54fec539f756af6101008201527fcefad4e508c098b9a7e1d8feb19955fb02ba9675585078710969d3440f5054e06101208201527ff9dc3e7fe016e050eff260334f18a5d4fe391d82092319f5964f2e2eb7c1c3a56101408201527ff8b13a49e282f609c317a833fb8d976d11517c571d1221a265d25af778ecf8926101608201527f3490c6ceeb450aecdc82e28293031d10c7d73bf85e57bf041a97360aa2c5d99c6101808201527fc1df82d9c4b87413eae2ef048f94b4d3554cea73d92b0f7af96e0271c691e2bb6101a08201527f5c67add7c6caf302256adedf7ab114da0acfe870d449a3a489f781d659e8becc6101c08201527fda7bce9f4e8618b6bd2f4132ce798cdc7a60e7e1460a7299e3c6342a579626d26101e08201527f2733e50f526ec2fa19a22b31e8ed50f23cd1fdf94c9154ed3a7609a2f1ff981f6102008201527fe1d3b5c807b281e4683cc6d6315cf95b9ade8641defcb32372f1c126e398ef7a6102208201527f5a2dce0a8a7f68bb74560f8f71837c2c2ebbcbf7fffb42ae1896f13f7c7479a06102408201527fb46a28b6f55540f89444f63de0378e3d121be09e06cc9ded1c20e65876d36aa06102608201527fc65e9645644786b620e2dd2ad648ddfcbf4a7e5b1a3a4ecfe7f64667a3f0b7e26102808201527ff4418588ed35a2458cffeb39b93d26f18d2ab13bdce6aee58e7b99359ec2dfd96102a08201527f5a9c16dc00d6ef18b7933a6f8dc65ccb55667138776f7dea101070dc8796e3776102c08201527f4df84f40ae0c8229d0d6069e5c8f39a7c299677a09d367fc7b05e3bc380ee6526102e08201527fcdc72595f74c7b1043d0e1ffbab734648c838dfb0527d971b602bc216c9619ef6103008201527f0abf5ac974a1ed57f4050aa510dd9c74f508277b39d7973bb2dfccc5eeb0618d6103208201527fb8cd74046ff337f0a7bf2c8e03e10f642c1886798d71806ab1e888d9e5ee87d06103408201527f838c5655cb21c6cb83313b5a631175dff4963772cce9108188b34ac87c81c41e6103608201527f662ee4dd2dd7b2bc707961b1e646c4047669dcb6584f0d8d770daf5d7e7deb2e6103808201527f388ab20e2573d171a88108e79d820e98f26c0b84aa8b2f4aa4968dbb818ea3226103a08201527f93237c50ba75ee485f4c22adf2f741400bdf8d6a9cc7df7ecae576221665d7356103c08201527f8448818bb4ae4562849e949e17ac16e0be16688e156b5cf15e098c627c0056a96103e082015290565b6000816040516020016116b39190612337565b604051602081830303815290604052805190602001209050919050565b60016116de6020600261246a565b6116e89190612183565b826020015410611754576040517f08c379a000000000000000000000000000000000000000000000000000000000815260206004820152601060248201527f6d65726b6c6520747265652066756c6c0000000000000000000000000000000060448201526064016104a1565b60018260200160008282546117699190611fca565b9091555050602082015460005b602081101561180657816001166001036117a5578284826020811061179d5761179d612196565b015550505050565b8381602081106117b7576117b7612196565b015460408051602081019290925281018490526060016040516020818303038152906040528051906020012092506002826117f29190612476565b9150806117fe816121c5565b915050611776565b5061180f6124b1565b505050565b6000610723826118226111df565b611ac8565b6000808773ffffffffffffffffffffffffffffffffffffffff166353179a7c88888888886040518663ffffffff1660e01b815260040161186b959493929190611f46565b602060405180830381865afa158015611888573d6000803e3d6000fd5b505050506040513d601f19601f820116820180604052508101906118ac9190611f82565b90506118b88882611973565b979650505050505050565b6040517fa1dbf4320000000000000000000000000000000000000000000000000000000081526004810183905273ffffffffffffffffffffffffffffffffffffffff8281166024830152600091829186169063a1dbf43290604401602060405180830381865afa15801561193b573d6000803e3d6000fd5b505050506040513d601f19601f8201168201806040525081019061195f9190611f82565b905061196b8582611973565b949350505050565b60008273ffffffffffffffffffffffffffffffffffffffff168260405160006040518083038185875af1925050503d80600081146119cd576040519150601f19603f3d011682016040523d82523d6000602084013e6119d2565b606091505b505090508061180f576040517f08c379a000000000000000000000000000000000000000000000000000000000815260206004820152600560248201527f2173656e6400000000000000000000000000000000000000000000000000000060448201526064016104a1565b6000606060008060008661ffff1667ffffffffffffffff811115611a6357611a63611fdd565b6040519080825280601f01601f191660200182016040528015611a8d576020820181803683370190505b5090506000808751602089018b8e8ef191503d925086831115611aae578692505b828152826000602083013e90999098509650505050505050565b6020820154600090815b6020811015611b9257600182821c166000868360208110611af557611af5612196565b0154905081600103611b32576040805160208101839052908101869052606001604051602081830303815290604052805190602001209450611b7d565b84868460208110611b4557611b45612196565b6020020151604051602001611b64929190918252602082015260400190565b6040516020818303038152906040528051906020012094505b50508080611b8a906121c5565b915050611ad2565b505092915050565b6040518061040001604052806020906020820280368337509192915050565b803573ffffffffffffffffffffffffffffffffffffffff81168114611bdd57600080fd5b919050565b600060208284031215611bf457600080fd5b611bfd82611bb9565b9392505050565b60008083601f840112611c1657600080fd5b50813567ffffffffffffffff811115611c2e57600080fd5b602083019150836020828501011115611c4657600080fd5b9250929050565b600080600080600080600060a0888a031215611c6857600080fd5b87359650611c7860208901611bb9565b955060408801359450606088013567ffffffffffffffff80821115611c9c57600080fd5b611ca88b838c01611c04565b909650945060808a0135915080821115611cc157600080fd5b50611cce8a828b01611c04565b989b979a50959850939692959293505050565b6104008101818360005b6020808210611cfa5750611d0e565b825184529283019290910190600101611ceb565b50505092915050565b60008060408385031215611d2a57600080fd5b611d3383611bb9565b9150611d4160208401611bb9565b90509250929050565b60005b83811015611d65578181015183820152602001611d4d565b50506000910152565b60008151808452611d86816020860160208601611d4a565b601f017fffffffffffffffffffffffffffffffffffffffffffffffffffffffffffffffe0169290920160200192915050565b602081526000611bfd6020830184611d6e565b60008060008060008060008060c0898b031215611de757600080fd5b88359750611df760208a01611bb9565b965060408901359550606089013567ffffffffffffffff80821115611e1b57600080fd5b611e278c838d01611c04565b9097509550859150611e3b60808c01611bb9565b945060a08b0135915080821115611e5157600080fd5b50611e5e8b828c01611c04565b999c989b5096995094979396929594505050565b600080600060408486031215611e8757600080fd5b833567ffffffffffffffff80821115611e9f57600080fd5b908501906101008288031215611eb457600080fd5b90935060208501359080821115611eca57600080fd5b50611ed786828701611c04565b9497909650939450505050565b600060208284031215611ef657600080fd5b5035919050565b8183528181602085013750600060208284010152600060207fffffffffffffffffffffffffffffffffffffffffffffffffffffffffffffffe0601f840116840101905092915050565b85815273ffffffffffffffffffffffffffffffffffffffff851660208201528360408201526080606082015260006118b8608083018486611efd565b600060208284031215611f9457600080fd5b5051919050565b7f4e487b7100000000000000000000000000000000000000000000000000000000600052601160045260246000fd5b8082018082111561072357610723611f9b565b7f4e487b7100000000000000000000000000000000000000000000000000000000600052604160045260246000fd5b604051610100810167ffffffffffffffff8111828210171561203057612030611fdd565b60405290565b600082601f83011261204757600080fd5b813567ffffffffffffffff8082111561206257612062611fdd565b604051601f83017fffffffffffffffffffffffffffffffffffffffffffffffffffffffffffffffe0908116603f011681019082821181831017156120a8576120a8611fdd565b816040528381528660208588010111156120c157600080fd5b836020870160208301376000602085830101528094505050505092915050565b600061010082360312156120f457600080fd5b6120fc61200c565b61210583611bb9565b8152602083013560208201526040830135604082015261212760608401611bb9565b60608201526080830135608082015261214260a08401611bb9565b60a082015260c083013560c082015260e083013567ffffffffffffffff81111561216b57600080fd5b61217736828601612036565b60e08301525092915050565b8181038181111561072357610723611f9b565b7f4e487b7100000000000000000000000000000000000000000000000000000000600052603260045260246000fd5b60007fffffffffffffffffffffffffffffffffffffffffffffffffffffffffffffffff82036121f6576121f6611f9b565b5060010190565b600061010073ffffffffffffffffffffffffffffffffffffffff8084511685526020840151602086015260408401516040860152806060850151166060860152608084015160808601528060a08501511660a08601525060c083015160c085015260e08301518160e086015261227582860182611d6e565b95945050505050565b82815260406020820152600061196b60408301846121fd565b8481528360208201526060604082015260006122b7606083018486611efd565b9695505050505050565b6000602082840312156122d357600080fd5b81518015158114611bfd57600080fd5b600085516122f5818460208a01611d4a565b9190910193845250602083019190915260601b7fffffffffffffffffffffffffffffffffffffffff000000000000000000000000166040820152605401919050565b602081526000611bfd60208301846121fd565b600181815b808511156123a357817fffffffffffffffffffffffffffffffffffffffffffffffffffffffffffffffff0482111561238957612389611f9b565b8085161561239657918102915b93841c939080029061234f565b509250929050565b6000826123ba57506001610723565b816123c757506000610723565b81600181146123dd57600281146123e757612403565b6001915050610723565b60ff8411156123f8576123f8611f9b565b50506001821b610723565b5060208310610133831016604e8410600b8410161715612426575081810a610723565b612430838361234a565b807fffffffffffffffffffffffffffffffffffffffffffffffffffffffffffffffff0482111561246257612462611f9b565b029392505050565b6000611bfd83836123ab565b6000826124ac577f4e487b7100000000000000000000000000000000000000000000000000000000600052601260045260246000fd5b500490565b7f4e487b7100000000000000000000000000000000000000000000000000000000600052600160045260246000fdfea2646970667358221220c39cf58ec5ef1dd33b9ace3b00106b0e07cf756d2c2ff717c0533b342f359d1b64736f6c63430008110033",
	"devdoc": {
		"kind": "dev",
		"methods": {
			"LOCAL_CHAINID()": {
				"details": "Fetch local chain id.",
				"returns": {
					"chainId": "Local chain id."
				}
			},
			"changeSetter(address)": {
				"details": "Change setter.",
				"params": {
					"newSetter": "New setter."
				}
			},
			"fee(uint256,address,uint256,bytes,bytes)": {
				"params": {
					"encoded": "The calldata which encoded by ABI Encoding.",
					"gasLimit": "Gas limit for destination user application used."
				}
			},
			"getAppConfig(address)": {
				"details": "Fetch user application config.",
				"params": {
					"ua": "User application contract address."
				},
				"returns": {
					"_0": "user application config."
				}
			},
			"imtBranch()": {
				"details": "Fetch the branch of incremental merkle tree."
			},
			"messageCount()": {
				"details": "Fetch the messages count of incremental merkle tree."
			},
			"prove()": {
				"details": "Fetch the latest message proof"
			},
			"recv((address,uint256,uint256,address,uint256,address,uint256,bytes),bytes)": {
				"details": "Recv verified message from Channel and dispatch to destination user application address.",
				"params": {
					"message": "Verified receive message info.",
					"proof": "Message proof of this message."
				},
				"returns": {
					"dispatchResult": "Result of the message dispatch."
				}
			},
			"send(uint256,address,uint256,bytes,address,bytes)": {
				"details": "Send a cross-chain message over the endpoint.",
				"params": {
					"encoded": "The calldata which encoded by ABI Encoding.",
					"gasLimit": "Gas limit for destination user application used.",
					"refund": "Return extra fee to refund address.",
					"to": "User application contract address which receive the message.",
					"toChainId": "The Message destination chain id."
				}
			},
			"setAppConfig(address,address)": {
				"params": {
					"oracle": "Oracle which user application.",
					"relayer": "Relayer which user application choose."
				}
			},
			"setDefaultConfig(address,address)": {
				"details": "Set default user config for all user application.",
				"params": {
					"oracle": "Default oracle.",
					"relayer": "Default relayer."
				}
			}
		},
		"version": 1
	},
	"userdoc": {
		"kind": "user",
		"methods": {
			"changeSetter(address)": {
				"notice": "Only current setter could call."
			},
			"getAppConfig(address)": {
				"notice": "If user application has not configured, then the default user config is used."
			},
			"recv((address,uint256,uint256,address,uint256,address,uint256,bytes),bytes)": {
				"notice": "Only channel could call this function."
			},
			"send(uint256,address,uint256,bytes,address,bytes)": {
				"notice": "follow https://eips.ethereum.org/EIPS/eip-5750"
			},
			"setAppConfig(address,address)": {
				"notice": "Set user application config."
			},
			"setDefaultConfig(address,address)": {
				"notice": "Only setter could call."
			}
		},
		"version": 1
	},
	"gitCommit": "0e5bb2880114148d83417b4053cc53fd84efbdbe",
	"sourceName": "lib/ORMP/src/ORMP.sol",
	"chainId": "421614",
	"linkReferences": {},
	"deployedLinkReferences": {},
	"history": [
		{
			"_format": "sphinx-sol-ct-artifact-1",
			"merkleRoot": "0xe32aec118c2987fd3255976a70da226f5f3ac4ec694a0dd5b978b1fa446a5e55",
			"contractName": "ORMP",
			"address": "0x2D475E1160fC42D6aE940593D18057d34038E8FC",
			"abi": [
				{
					"type": "constructor",
					"inputs": [
						{
							"name": "dao",
							"type": "address",
							"internalType": "address"
						}
					],
					"stateMutability": "nonpayable"
				},
				{
					"type": "function",
					"name": "LOCAL_CHAINID",
					"inputs": [],
					"outputs": [
						{
							"name": "chainId",
							"type": "uint256",
							"internalType": "uint256"
						}
					],
					"stateMutability": "view"
				},
				{
					"type": "function",
					"name": "changeSetter",
					"inputs": [
						{
							"name": "newSetter",
							"type": "address",
							"internalType": "address"
						}
					],
					"outputs": [],
					"stateMutability": "nonpayable"
				},
				{
					"type": "function",
					"name": "defaultUC",
					"inputs": [],
					"outputs": [
						{
							"name": "oracle",
							"type": "address",
							"internalType": "address"
						},
						{
							"name": "relayer",
							"type": "address",
							"internalType": "address"
						}
					],
					"stateMutability": "view"
				},
				{
					"type": "function",
					"name": "dones",
					"inputs": [
						{
							"name": "",
							"type": "bytes32",
							"internalType": "bytes32"
						}
					],
					"outputs": [
						{
							"name": "",
							"type": "bool",
							"internalType": "bool"
						}
					],
					"stateMutability": "view"
				},
				{
					"type": "function",
					"name": "fee",
					"inputs": [
						{
							"name": "toChainId",
							"type": "uint256",
							"internalType": "uint256"
						},
						{
							"name": "ua",
							"type": "address",
							"internalType": "address"
						},
						{
							"name": "gasLimit",
							"type": "uint256",
							"internalType": "uint256"
						},
						{
							"name": "encoded",
							"type": "bytes",
							"internalType": "bytes"
						},
						{
							"name": "",
							"type": "bytes",
							"internalType": "bytes"
						}
					],
					"outputs": [
						{
							"name": "",
							"type": "uint256",
							"internalType": "uint256"
						}
					],
					"stateMutability": "view"
				},
				{
					"type": "function",
					"name": "getAppConfig",
					"inputs": [
						{
							"name": "ua",
							"type": "address",
							"internalType": "address"
						}
					],
					"outputs": [
						{
							"name": "",
							"type": "tuple",
							"internalType": "struct UC",
							"components": [
								{
									"name": "oracle",
									"type": "address",
									"internalType": "address"
								},
								{
									"name": "relayer",
									"type": "address",
									"internalType": "address"
								}
							]
						}
					],
					"stateMutability": "view"
				},
				{
					"type": "function",
					"name": "imtBranch",
					"inputs": [],
					"outputs": [
						{
							"name": "",
							"type": "bytes32[32]",
							"internalType": "bytes32[32]"
						}
					],
					"stateMutability": "view"
				},
				{
					"type": "function",
					"name": "messageCount",
					"inputs": [],
					"outputs": [
						{
							"name": "",
							"type": "uint256",
							"internalType": "uint256"
						}
					],
					"stateMutability": "view"
				},
				{
					"type": "function",
					"name": "prove",
					"inputs": [],
					"outputs": [
						{
							"name": "",
							"type": "bytes32[32]",
							"internalType": "bytes32[32]"
						}
					],
					"stateMutability": "view"
				},
				{
					"type": "function",
					"name": "recv",
					"inputs": [
						{
							"name": "message",
							"type": "tuple",
							"internalType": "struct Message",
							"components": [
								{
									"name": "channel",
									"type": "address",
									"internalType": "address"
								},
								{
									"name": "index",
									"type": "uint256",
									"internalType": "uint256"
								},
								{
									"name": "fromChainId",
									"type": "uint256",
									"internalType": "uint256"
								},
								{
									"name": "from",
									"type": "address",
									"internalType": "address"
								},
								{
									"name": "toChainId",
									"type": "uint256",
									"internalType": "uint256"
								},
								{
									"name": "to",
									"type": "address",
									"internalType": "address"
								},
								{
									"name": "gasLimit",
									"type": "uint256",
									"internalType": "uint256"
								},
								{
									"name": "encoded",
									"type": "bytes",
									"internalType": "bytes"
								}
							]
						},
						{
							"name": "proof",
							"type": "bytes",
							"internalType": "bytes"
						}
					],
					"outputs": [
						{
							"name": "dispatchResult",
							"type": "bool",
							"internalType": "bool"
						}
					],
					"stateMutability": "payable"
				},
				{
					"type": "function",
					"name": "root",
					"inputs": [],
					"outputs": [
						{
							"name": "",
							"type": "bytes32",
							"internalType": "bytes32"
						}
					],
					"stateMutability": "view"
				},
				{
					"type": "function",
					"name": "send",
					"inputs": [
						{
							"name": "toChainId",
							"type": "uint256",
							"internalType": "uint256"
						},
						{
							"name": "to",
							"type": "address",
							"internalType": "address"
						},
						{
							"name": "gasLimit",
							"type": "uint256",
							"internalType": "uint256"
						},
						{
							"name": "encoded",
							"type": "bytes",
							"internalType": "bytes"
						},
						{
							"name": "refund",
							"type": "address",
							"internalType": "address"
						},
						{
							"name": "",
							"type": "bytes",
							"internalType": "bytes"
						}
					],
					"outputs": [
						{
							"name": "",
							"type": "bytes32",
							"internalType": "bytes32"
						}
					],
					"stateMutability": "payable"
				},
				{
					"type": "function",
					"name": "setAppConfig",
					"inputs": [
						{
							"name": "oracle",
							"type": "address",
							"internalType": "address"
						},
						{
							"name": "relayer",
							"type": "address",
							"internalType": "address"
						}
					],
					"outputs": [],
					"stateMutability": "nonpayable"
				},
				{
					"type": "function",
					"name": "setDefaultConfig",
					"inputs": [
						{
							"name": "oracle",
							"type": "address",
							"internalType": "address"
						},
						{
							"name": "relayer",
							"type": "address",
							"internalType": "address"
						}
					],
					"outputs": [],
					"stateMutability": "nonpayable"
				},
				{
					"type": "function",
					"name": "setter",
					"inputs": [],
					"outputs": [
						{
							"name": "",
							"type": "address",
							"internalType": "address"
						}
					],
					"stateMutability": "view"
				},
				{
					"type": "function",
					"name": "ucOf",
					"inputs": [
						{
							"name": "",
							"type": "address",
							"internalType": "address"
						}
					],
					"outputs": [
						{
							"name": "oracle",
							"type": "address",
							"internalType": "address"
						},
						{
							"name": "relayer",
							"type": "address",
							"internalType": "address"
						}
					],
					"stateMutability": "view"
				},
				{
					"type": "function",
					"name": "version",
					"inputs": [],
					"outputs": [
						{
							"name": "",
							"type": "string",
							"internalType": "string"
						}
					],
					"stateMutability": "pure"
				},
				{
					"type": "event",
					"name": "AppConfigUpdated",
					"inputs": [
						{
							"name": "ua",
							"type": "address",
							"indexed": true,
							"internalType": "address"
						},
						{
							"name": "oracle",
							"type": "address",
							"indexed": false,
							"internalType": "address"
						},
						{
							"name": "relayer",
							"type": "address",
							"indexed": false,
							"internalType": "address"
						}
					],
					"anonymous": false
				},
				{
					"type": "event",
					"name": "DefaultConfigUpdated",
					"inputs": [
						{
							"name": "oracle",
							"type": "address",
							"indexed": false,
							"internalType": "address"
						},
						{
							"name": "relayer",
							"type": "address",
							"indexed": false,
							"internalType": "address"
						}
					],
					"anonymous": false
				},
				{
					"type": "event",
					"name": "MessageAccepted",
					"inputs": [
						{
							"name": "msgHash",
							"type": "bytes32",
							"indexed": true,
							"internalType": "bytes32"
						},
						{
							"name": "root",
							"type": "bytes32",
							"indexed": false,
							"internalType": "bytes32"
						},
						{
							"name": "message",
							"type": "tuple",
							"indexed": false,
							"internalType": "struct Message",
							"components": [
								{
									"name": "channel",
									"type": "address",
									"internalType": "address"
								},
								{
									"name": "index",
									"type": "uint256",
									"internalType": "uint256"
								},
								{
									"name": "fromChainId",
									"type": "uint256",
									"internalType": "uint256"
								},
								{
									"name": "from",
									"type": "address",
									"internalType": "address"
								},
								{
									"name": "toChainId",
									"type": "uint256",
									"internalType": "uint256"
								},
								{
									"name": "to",
									"type": "address",
									"internalType": "address"
								},
								{
									"name": "gasLimit",
									"type": "uint256",
									"internalType": "uint256"
								},
								{
									"name": "encoded",
									"type": "bytes",
									"internalType": "bytes"
								}
							]
						}
					],
					"anonymous": false
				},
				{
					"type": "event",
					"name": "MessageAssigned",
					"inputs": [
						{
							"name": "msgHash",
							"type": "bytes32",
							"indexed": true,
							"internalType": "bytes32"
						},
						{
							"name": "oracle",
							"type": "address",
							"indexed": true,
							"internalType": "address"
						},
						{
							"name": "relayer",
							"type": "address",
							"indexed": true,
							"internalType": "address"
						},
						{
							"name": "oracleFee",
							"type": "uint256",
							"indexed": false,
							"internalType": "uint256"
						},
						{
							"name": "relayerFee",
							"type": "uint256",
							"indexed": false,
							"internalType": "uint256"
						}
					],
					"anonymous": false
				},
				{
					"type": "event",
					"name": "MessageDispatched",
					"inputs": [
						{
							"name": "msgHash",
							"type": "bytes32",
							"indexed": true,
							"internalType": "bytes32"
						},
						{
							"name": "dispatchResult",
							"type": "bool",
							"indexed": false,
							"internalType": "bool"
						}
					],
					"anonymous": false
				},
				{
					"type": "event",
					"name": "SetterChanged",
					"inputs": [
						{
							"name": "oldSetter",
							"type": "address",
							"indexed": true,
							"internalType": "address"
						},
						{
							"name": "newSetter",
							"type": "address",
							"indexed": true,
							"internalType": "address"
						}
					],
					"anonymous": false
				}
			],
			"solcInputHash": "403d52f660759fecc7155a43916ae2fb",
			"receipt": {
				"blockHash": "0x564609d3a4a1239b474a8bf5e4c707aa62fe2547e1a6e37474c3f0bb5e14eeb1",
				"blockNumber": 27504942,
				"contractAddress": null,
				"cumulativeGasUsed": "11288394",
				"from": "0xD70A2e6eACbdeDA77a5d4bBAE3bC70239A0e088f",
				"gasPrice": "100000000",
				"gasUsed": "6557290",
				"hash": "0xd3890f23bc63b5b2743cbb606c0e6b6b5d2ccb31723ce297a8e114c6da6c9c3f",
				"index": 5,
				"logs": [
					{
						"address": "0x701609866556Cb9A1FBD6B40201cD5899c9D2d56",
						"blockHash": "0x564609d3a4a1239b474a8bf5e4c707aa62fe2547e1a6e37474c3f0bb5e14eeb1",
						"blockNumber": 27504942,
						"data": "0x0000000000000000000000002d475e1160fc42d6ae940593d18057d34038e8fc",
						"index": 9,
						"topics": [
							"0x4db17dd5e4732fb6da34a148104a592783ca119a1e7bb8829eba6cbadef0b511"
						],
						"transactionHash": "0xd3890f23bc63b5b2743cbb606c0e6b6b5d2ccb31723ce297a8e114c6da6c9c3f",
						"transactionIndex": 5
					},
					{
						"address": "0x701609866556Cb9A1FBD6B40201cD5899c9D2d56",
						"blockHash": "0x564609d3a4a1239b474a8bf5e4c707aa62fe2547e1a6e37474c3f0bb5e14eeb1",
						"blockNumber": 27504942,
						"data": "0x",
						"index": 10,
						"topics": [
							"0x6895c13664aa4f67288b25d7a21d7aaa34916e355fb9b6fae0a139a9085becb8",
							"0x00000000000000000000000004678247ac000d74768e5caa72a221a0a7c2ae44"
						],
						"transactionHash": "0xd3890f23bc63b5b2743cbb606c0e6b6b5d2ccb31723ce297a8e114c6da6c9c3f",
						"transactionIndex": 5
					},
					{
						"address": "0x04678247aC000d74768E5CAa72a221A0a7C2Ae44",
						"blockHash": "0x564609d3a4a1239b474a8bf5e4c707aa62fe2547e1a6e37474c3f0bb5e14eeb1",
						"blockNumber": 27504942,
						"data": "0x0000000000000000000000000000000000000000000000000000000000000001",
						"index": 11,
						"topics": [
							"0xa65fb05c5808f5f389d72edeaf719ce38f4cc55c1f69ca3cbfb31c21501caa07",
							"0xe32aec118c2987fd3255976a70da226f5f3ac4ec694a0dd5b978b1fa446a5e55"
						],
						"transactionHash": "0xd3890f23bc63b5b2743cbb606c0e6b6b5d2ccb31723ce297a8e114c6da6c9c3f",
						"transactionIndex": 5
					},
					{
						"address": "0x04678247aC000d74768E5CAa72a221A0a7C2Ae44",
						"blockHash": "0x564609d3a4a1239b474a8bf5e4c707aa62fe2547e1a6e37474c3f0bb5e14eeb1",
						"blockNumber": 27504942,
						"data": "0x",
						"index": 12,
						"topics": [
							"0x4383d976757d67ca920616be0b6430a681ea9d3dcce8d6d61d4603ca4a9bff63",
							"0xe32aec118c2987fd3255976a70da226f5f3ac4ec694a0dd5b978b1fa446a5e55"
						],
						"transactionHash": "0xd3890f23bc63b5b2743cbb606c0e6b6b5d2ccb31723ce297a8e114c6da6c9c3f",
						"transactionIndex": 5
					}
				],
				"logsBloom": "0x000000000000100000000000000800000000000000000000000000000000c1000000000000000000000000000000000000000000020000000000000000000000000000000000200000000100020000000000000000000000040000000000000000000000000000000000000000000000000000000820000000000000000000000000000000400000000000000000000000000000000000000000004000000000000000800000000000000000000000000200000080000000000000000004000000000000000000000000000000000008000000000000100000000008000000000000000000000008000000000000000200000000000000000000000008000000",
				"status": 1,
				"to": "0x04678247aC000d74768E5CAa72a221A0a7C2Ae44"
			},
			"metadata": "{\"compiler\":{\"version\":\"0.8.17+commit.8df45f5f\"},\"language\":\"Solidity\",\"output\":{\"abi\":[{\"inputs\":[{\"internalType\":\"address\",\"name\":\"dao\",\"type\":\"address\"}],\"stateMutability\":\"nonpayable\",\"type\":\"constructor\"},{\"inputs\":[{\"internalType\":\"address\",\"name\":\"ua\",\"type\":\"address\",\"indexed\":true},{\"internalType\":\"address\",\"name\":\"oracle\",\"type\":\"address\",\"indexed\":false},{\"internalType\":\"address\",\"name\":\"relayer\",\"type\":\"address\",\"indexed\":false}],\"type\":\"event\",\"name\":\"AppConfigUpdated\",\"anonymous\":false},{\"inputs\":[{\"internalType\":\"address\",\"name\":\"oracle\",\"type\":\"address\",\"indexed\":false},{\"internalType\":\"address\",\"name\":\"relayer\",\"type\":\"address\",\"indexed\":false}],\"type\":\"event\",\"name\":\"DefaultConfigUpdated\",\"anonymous\":false},{\"inputs\":[{\"internalType\":\"bytes32\",\"name\":\"msgHash\",\"type\":\"bytes32\",\"indexed\":true},{\"internalType\":\"bytes32\",\"name\":\"root\",\"type\":\"bytes32\",\"indexed\":false},{\"internalType\":\"struct Message\",\"name\":\"message\",\"type\":\"tuple\",\"components\":[{\"internalType\":\"address\",\"name\":\"channel\",\"type\":\"address\"},{\"internalType\":\"uint256\",\"name\":\"index\",\"type\":\"uint256\"},{\"internalType\":\"uint256\",\"name\":\"fromChainId\",\"type\":\"uint256\"},{\"internalType\":\"address\",\"name\":\"from\",\"type\":\"address\"},{\"internalType\":\"uint256\",\"name\":\"toChainId\",\"type\":\"uint256\"},{\"internalType\":\"address\",\"name\":\"to\",\"type\":\"address\"},{\"internalType\":\"uint256\",\"name\":\"gasLimit\",\"type\":\"uint256\"},{\"internalType\":\"bytes\",\"name\":\"encoded\",\"type\":\"bytes\"}],\"indexed\":false}],\"type\":\"event\",\"name\":\"MessageAccepted\",\"anonymous\":false},{\"inputs\":[{\"internalType\":\"bytes32\",\"name\":\"msgHash\",\"type\":\"bytes32\",\"indexed\":true},{\"internalType\":\"address\",\"name\":\"oracle\",\"type\":\"address\",\"indexed\":true},{\"internalType\":\"address\",\"name\":\"relayer\",\"type\":\"address\",\"indexed\":true},{\"internalType\":\"uint256\",\"name\":\"oracleFee\",\"type\":\"uint256\",\"indexed\":false},{\"internalType\":\"uint256\",\"name\":\"relayerFee\",\"type\":\"uint256\",\"indexed\":false}],\"type\":\"event\",\"name\":\"MessageAssigned\",\"anonymous\":false},{\"inputs\":[{\"internalType\":\"bytes32\",\"name\":\"msgHash\",\"type\":\"bytes32\",\"indexed\":true},{\"internalType\":\"bool\",\"name\":\"dispatchResult\",\"type\":\"bool\",\"indexed\":false}],\"type\":\"event\",\"name\":\"MessageDispatched\",\"anonymous\":false},{\"inputs\":[{\"internalType\":\"address\",\"name\":\"oldSetter\",\"type\":\"address\",\"indexed\":true},{\"internalType\":\"address\",\"name\":\"newSetter\",\"type\":\"address\",\"indexed\":true}],\"type\":\"event\",\"name\":\"SetterChanged\",\"anonymous\":false},{\"inputs\":[],\"stateMutability\":\"view\",\"type\":\"function\",\"name\":\"LOCAL_CHAINID\",\"outputs\":[{\"internalType\":\"uint256\",\"name\":\"chainId\",\"type\":\"uint256\"}]},{\"inputs\":[{\"internalType\":\"address\",\"name\":\"newSetter\",\"type\":\"address\"}],\"stateMutability\":\"nonpayable\",\"type\":\"function\",\"name\":\"changeSetter\"},{\"inputs\":[],\"stateMutability\":\"view\",\"type\":\"function\",\"name\":\"defaultUC\",\"outputs\":[{\"internalType\":\"address\",\"name\":\"oracle\",\"type\":\"address\"},{\"internalType\":\"address\",\"name\":\"relayer\",\"type\":\"address\"}]},{\"inputs\":[{\"internalType\":\"bytes32\",\"name\":\"\",\"type\":\"bytes32\"}],\"stateMutability\":\"view\",\"type\":\"function\",\"name\":\"dones\",\"outputs\":[{\"internalType\":\"bool\",\"name\":\"\",\"type\":\"bool\"}]},{\"inputs\":[{\"internalType\":\"uint256\",\"name\":\"toChainId\",\"type\":\"uint256\"},{\"internalType\":\"address\",\"name\":\"ua\",\"type\":\"address\"},{\"internalType\":\"uint256\",\"name\":\"gasLimit\",\"type\":\"uint256\"},{\"internalType\":\"bytes\",\"name\":\"encoded\",\"type\":\"bytes\"},{\"internalType\":\"bytes\",\"name\":\"\",\"type\":\"bytes\"}],\"stateMutability\":\"view\",\"type\":\"function\",\"name\":\"fee\",\"outputs\":[{\"internalType\":\"uint256\",\"name\":\"\",\"type\":\"uint256\"}]},{\"inputs\":[{\"internalType\":\"address\",\"name\":\"ua\",\"type\":\"address\"}],\"stateMutability\":\"view\",\"type\":\"function\",\"name\":\"getAppConfig\",\"outputs\":[{\"internalType\":\"struct UC\",\"name\":\"\",\"type\":\"tuple\",\"components\":[{\"internalType\":\"address\",\"name\":\"oracle\",\"type\":\"address\"},{\"internalType\":\"address\",\"name\":\"relayer\",\"type\":\"address\"}]}]},{\"inputs\":[],\"stateMutability\":\"view\",\"type\":\"function\",\"name\":\"imtBranch\",\"outputs\":[{\"internalType\":\"bytes32[32]\",\"name\":\"\",\"type\":\"bytes32[32]\"}]},{\"inputs\":[],\"stateMutability\":\"view\",\"type\":\"function\",\"name\":\"messageCount\",\"outputs\":[{\"internalType\":\"uint256\",\"name\":\"\",\"type\":\"uint256\"}]},{\"inputs\":[],\"stateMutability\":\"view\",\"type\":\"function\",\"name\":\"prove\",\"outputs\":[{\"internalType\":\"bytes32[32]\",\"name\":\"\",\"type\":\"bytes32[32]\"}]},{\"inputs\":[{\"internalType\":\"struct Message\",\"name\":\"message\",\"type\":\"tuple\",\"components\":[{\"internalType\":\"address\",\"name\":\"channel\",\"type\":\"address\"},{\"internalType\":\"uint256\",\"name\":\"index\",\"type\":\"uint256\"},{\"internalType\":\"uint256\",\"name\":\"fromChainId\",\"type\":\"uint256\"},{\"internalType\":\"address\",\"name\":\"from\",\"type\":\"address\"},{\"internalType\":\"uint256\",\"name\":\"toChainId\",\"type\":\"uint256\"},{\"internalType\":\"address\",\"name\":\"to\",\"type\":\"address\"},{\"internalType\":\"uint256\",\"name\":\"gasLimit\",\"type\":\"uint256\"},{\"internalType\":\"bytes\",\"name\":\"encoded\",\"type\":\"bytes\"}]},{\"internalType\":\"bytes\",\"name\":\"proof\",\"type\":\"bytes\"}],\"stateMutability\":\"payable\",\"type\":\"function\",\"name\":\"recv\",\"outputs\":[{\"internalType\":\"bool\",\"name\":\"dispatchResult\",\"type\":\"bool\"}]},{\"inputs\":[],\"stateMutability\":\"view\",\"type\":\"function\",\"name\":\"root\",\"outputs\":[{\"internalType\":\"bytes32\",\"name\":\"\",\"type\":\"bytes32\"}]},{\"inputs\":[{\"internalType\":\"uint256\",\"name\":\"toChainId\",\"type\":\"uint256\"},{\"internalType\":\"address\",\"name\":\"to\",\"type\":\"address\"},{\"internalType\":\"uint256\",\"name\":\"gasLimit\",\"type\":\"uint256\"},{\"internalType\":\"bytes\",\"name\":\"encoded\",\"type\":\"bytes\"},{\"internalType\":\"address\",\"name\":\"refund\",\"type\":\"address\"},{\"internalType\":\"bytes\",\"name\":\"\",\"type\":\"bytes\"}],\"stateMutability\":\"payable\",\"type\":\"function\",\"name\":\"send\",\"outputs\":[{\"internalType\":\"bytes32\",\"name\":\"\",\"type\":\"bytes32\"}]},{\"inputs\":[{\"internalType\":\"address\",\"name\":\"oracle\",\"type\":\"address\"},{\"internalType\":\"address\",\"name\":\"relayer\",\"type\":\"address\"}],\"stateMutability\":\"nonpayable\",\"type\":\"function\",\"name\":\"setAppConfig\"},{\"inputs\":[{\"internalType\":\"address\",\"name\":\"oracle\",\"type\":\"address\"},{\"internalType\":\"address\",\"name\":\"relayer\",\"type\":\"address\"}],\"stateMutability\":\"nonpayable\",\"type\":\"function\",\"name\":\"setDefaultConfig\"},{\"inputs\":[],\"stateMutability\":\"view\",\"type\":\"function\",\"name\":\"setter\",\"outputs\":[{\"internalType\":\"address\",\"name\":\"\",\"type\":\"address\"}]},{\"inputs\":[{\"internalType\":\"address\",\"name\":\"\",\"type\":\"address\"}],\"stateMutability\":\"view\",\"type\":\"function\",\"name\":\"ucOf\",\"outputs\":[{\"internalType\":\"address\",\"name\":\"oracle\",\"type\":\"address\"},{\"internalType\":\"address\",\"name\":\"relayer\",\"type\":\"address\"}]},{\"inputs\":[],\"stateMutability\":\"pure\",\"type\":\"function\",\"name\":\"version\",\"outputs\":[{\"internalType\":\"string\",\"name\":\"\",\"type\":\"string\"}]}],\"devdoc\":{\"kind\":\"dev\",\"methods\":{\"LOCAL_CHAINID()\":{\"details\":\"Fetch local chain id.\",\"returns\":{\"chainId\":\"Local chain id.\"}},\"changeSetter(address)\":{\"details\":\"Change setter.\",\"params\":{\"newSetter\":\"New setter.\"}},\"fee(uint256,address,uint256,bytes,bytes)\":{\"params\":{\"encoded\":\"The calldata which encoded by ABI Encoding.\",\"gasLimit\":\"Gas limit for destination user application used.\"}},\"getAppConfig(address)\":{\"details\":\"Fetch user application config.\",\"params\":{\"ua\":\"User application contract address.\"},\"returns\":{\"_0\":\"user application config.\"}},\"imtBranch()\":{\"details\":\"Fetch the branch of incremental merkle tree.\"},\"messageCount()\":{\"details\":\"Fetch the messages count of incremental merkle tree.\"},\"prove()\":{\"details\":\"Fetch the latest message proof\"},\"recv((address,uint256,uint256,address,uint256,address,uint256,bytes),bytes)\":{\"details\":\"Recv verified message from Channel and dispatch to destination user application address.\",\"params\":{\"message\":\"Verified receive message info.\",\"proof\":\"Message proof of this message.\"},\"returns\":{\"dispatchResult\":\"Result of the message dispatch.\"}},\"send(uint256,address,uint256,bytes,address,bytes)\":{\"details\":\"Send a cross-chain message over the endpoint.\",\"params\":{\"encoded\":\"The calldata which encoded by ABI Encoding.\",\"gasLimit\":\"Gas limit for destination user application used.\",\"refund\":\"Return extra fee to refund address.\",\"to\":\"User application contract address which receive the message.\",\"toChainId\":\"The Message destination chain id.\"}},\"setAppConfig(address,address)\":{\"params\":{\"oracle\":\"Oracle which user application.\",\"relayer\":\"Relayer which user application choose.\"}},\"setDefaultConfig(address,address)\":{\"details\":\"Set default user config for all user application.\",\"params\":{\"oracle\":\"Default oracle.\",\"relayer\":\"Default relayer.\"}}},\"version\":1},\"userdoc\":{\"kind\":\"user\",\"methods\":{\"changeSetter(address)\":{\"notice\":\"Only current setter could call.\"},\"getAppConfig(address)\":{\"notice\":\"If user application has not configured, then the default user config is used.\"},\"recv((address,uint256,uint256,address,uint256,address,uint256,bytes),bytes)\":{\"notice\":\"Only channel could call this function.\"},\"send(uint256,address,uint256,bytes,address,bytes)\":{\"notice\":\"follow https://eips.ethereum.org/EIPS/eip-5750\"},\"setAppConfig(address,address)\":{\"notice\":\"Set user application config.\"},\"setDefaultConfig(address,address)\":{\"notice\":\"Only setter could call.\"}},\"version\":1}},\"settings\":{\"remappings\":[\"@darwinia-msgport/=lib/darwinia-msgport/\",\"@openzeppelin/contracts/=lib/openzeppelin-contracts/contracts/\",\"@openzeppelin/contracts@4.9.2/=lib/openzeppelin-contracts/contracts/\",\"@sphinx-labs/contracts/=lib/sphinx/packages/contracts/contracts/foundry/\",\"ORMP/=lib/ORMP/\",\"subapi/=lib/subapi/\"],\"optimizer\":{\"enabled\":true,\"runs\":999999},\"metadata\":{\"bytecodeHash\":\"ipfs\"},\"compilationTarget\":{\"lib/ORMP/src/ORMP.sol\":\"ORMP\"},\"evmVersion\":\"london\",\"libraries\":{}},\"sources\":{\"lib/ORMP/src/Channel.sol\":{\"keccak256\":\"0x286a6af99428230c2f67181181d52d63a647ee2d896c5855300eda37c52b2dbf\",\"urls\":[\"bzz-raw://84326f7649e0c727e1e5836c1f50e603fdc4811b0fd94b2ee5c682e10700f9ce\",\"dweb:/ipfs/Qmb32nTAUsyStw3dqynijZEaA9UC4ig6xoPBjhvdQEVDdn\"],\"license\":\"GPL-3.0\"},\"lib/ORMP/src/Common.sol\":{\"keccak256\":\"0x832de8c9469de78d3133d42716444007d3fa2aa2fe88a6fcbb81d119d8ffbd1d\",\"urls\":[\"bzz-raw://a0447d4aaebe147c97df506a8ae7801e13b3af6cc0c9ee31bc896a7b40e463ab\",\"dweb:/ipfs/QmTn2bjyJMsj9uV613Usy3ueyjFZ7Ugfo4ovR8UkPpMhX4\"],\"license\":\"GPL-3.0\"},\"lib/ORMP/src/ORMP.sol\":{\"keccak256\":\"0x952e7ad4b58f70d4e035f24c92ed4edecd1f89fd6da8bbfc05f627cf6ac16d3d\",\"urls\":[\"bzz-raw://0fdfb9d153015dd2f089b099cff5737ea3118a3aa3a3d72715d8ea1f0da2804f\",\"dweb:/ipfs/QmPdy8ia167eUG7CZkREZGqzDoxLs4h1xqUoLaK2UGxM6C\"],\"license\":\"GPL-3.0\"},\"lib/ORMP/src/UserConfig.sol\":{\"keccak256\":\"0x9d2e059b8e05cebe34733475fbea89e0f103fc8f7d909aa79186ed65837da6e0\",\"urls\":[\"bzz-raw://d4e465d388fe332f755e426d12018c09d727782f195d8e734776a2bff74cab38\",\"dweb:/ipfs/QmQp7wkLHMvYL5841uCDS1zhifsaJg4r2Wxty91b19bEcK\"],\"license\":\"GPL-3.0\"},\"lib/ORMP/src/imt/IncrementalMerkleTree.sol\":{\"keccak256\":\"0x535228355f8bd4339f42aa3dfe3cebcbdaad7a92704c4e3eeb0982dce8acf246\",\"urls\":[\"bzz-raw://9830ca0eb4837abdaaba548ea20fe14c67e23a392e09aaaa57b4032f9b81c49f\",\"dweb:/ipfs/QmYDw8c8zgLhxhxt3heCGJu7rYSgmEwKFjMfWrbJNcyPWj\"],\"license\":\"MIT OR Apache-2.0\"},\"lib/ORMP/src/interfaces/IOracle.sol\":{\"keccak256\":\"0xb1299974c86446972355bebb7c95697139c67f1731b1c1fa59a07c8cc575f527\",\"urls\":[\"bzz-raw://c96ee956d4731fb7bc0aa67f2783afa6ba2179fc1ef4419f2f70f727c9d7a7f1\",\"dweb:/ipfs/QmbqaqnRRHb2k25bzsvmapugHaTu1gDESGxk7MU5vgrPBo\"],\"license\":\"GPL-3.0\"},\"lib/ORMP/src/interfaces/IRelayer.sol\":{\"keccak256\":\"0xb2a4fc032746f072405210a118298000cda8634ddf4bc02b33f976be4eaf7209\",\"urls\":[\"bzz-raw://5627a3007ff8748f5be505de61d7cca46a2466ece354093f2958f3e2daab5445\",\"dweb:/ipfs/Qmb5Gefdqo5ruQX1id6hgpVDKiM9Vyy6wLurxDtC5377Lt\"],\"license\":\"GPL-3.0\"},\"lib/ORMP/src/interfaces/IVerifier.sol\":{\"keccak256\":\"0x60ad4dbeb54c04aa1c389a2dab7c9bca361eb2df245b3a29f0851be697876099\",\"urls\":[\"bzz-raw://57f1c8949abccaef95ab207257bfcf7b12f19756e0c90184ad39a8bdb2dc559a\",\"dweb:/ipfs/Qmd1LBiTn3nzfzhGHmdM2YdbWLUkca6wZfPBo1rWqPcoau\"],\"license\":\"GPL-3.0\"},\"lib/ORMP/src/security/ExcessivelySafeCall.sol\":{\"keccak256\":\"0x586361e0b312522e1b4dfbbd7a4965fd0b36642660c16cba3a733ee66f388508\",\"urls\":[\"bzz-raw://b0d67666dc6b468c91589b8d00f3f519c0904e40313631e08102058135681d68\",\"dweb:/ipfs/QmQHgut1NwT3Dr68fLtJzGwcTmPU9CxJZYF7euDfz2VGNL\"],\"license\":\"MIT OR Apache-2.0\"},\"lib/ORMP/src/security/ReentrancyGuard.sol\":{\"keccak256\":\"0xbb376a44d276cf677debb795e823759f563a26bd3805e413f7b12ee38e3e13be\",\"urls\":[\"bzz-raw://0eb116fec82b4b1fd0a9ebd259b375b06f5aaea104426c9219fda9d3abb8e311\",\"dweb:/ipfs/QmfMH7vZHdvY6qSb2hxRvzuSMrmXq17FzBx8PJzn4qFJZQ\"],\"license\":\"MIT\"}},\"version\":1}",
			"args": [
				"0xD70A2e6eACbdeDA77a5d4bBAE3bC70239A0e088f"
			],
			"bytecode": "0x60a0604052600160008190558055306080523480156200001e57600080fd5b50604051620025ef380380620025ef83398101604081905262000041916200008b565b600280546001600160a01b0319166001600160a01b03929092169190911790557f27ae5ba08d7291c96c8cbddcc148bf48a6d68c7974b94356f53754ef6171d757600655620000bd565b6000602082840312156200009e57600080fd5b81516001600160a01b0381168114620000b657600080fd5b9392505050565b608051612516620000d96000396000610c6201526125166000f3fe60806040526004361061010e5760003560e01c80634ea59979116100a55780638b22909111610074578063ebf0c71711610059578063ebf0c717146103bb578063ee6ad167146103d1578063f67c907c146103f457600080fd5b80638b22909114610388578063b0ff5e72146103a857600080fd5b80634ea59979146102f457806352720be41461031457806354fd4d50146103295780635e26462c1461037557600080fd5b80633f3108f7116100e15780633f3108f7146101f8578063413422491461024a57806345152ae31461029e5780634872824f146102c057600080fd5b80630f988a73146101135780631c2b2da6146101355780633c50e178146101685780633dbcc8d1146101e3575b600080fd5b34801561011f57600080fd5b5061013361012e366004611be2565b610424565b005b34801561014157600080fd5b50610155610150366004611c4d565b610521565b6040519081526020015b60405180910390f35b34801561017457600080fd5b506101b6610183366004611be2565b6005602052600090815260409020805460019091015473ffffffffffffffffffffffffffffffffffffffff918216911682565b6040805173ffffffffffffffffffffffffffffffffffffffff93841681529290911660208301520161015f565b3480156101ef57600080fd5b50602754610155565b34801561020457600080fd5b506002546102259073ffffffffffffffffffffffffffffffffffffffff1681565b60405173ffffffffffffffffffffffffffffffffffffffff909116815260200161015f565b34801561025657600080fd5b5061026a610265366004611be2565b610672565b60408051825173ffffffffffffffffffffffffffffffffffffffff908116825260209384015116928101929092520161015f565b3480156102aa57600080fd5b506102b3610729565b60405161015f9190611ce1565b3480156102cc57600080fd5b506003546004546101b69173ffffffffffffffffffffffffffffffffffffffff908116911682565b34801561030057600080fd5b5061013361030f366004611d17565b610740565b34801561032057600080fd5b506102b3610863565b34801561033557600080fd5b50604080518082018252600581527f322e302e300000000000000000000000000000000000000000000000000000006020820152905161015f9190611db8565b610155610383366004611dcb565b61089f565b34801561039457600080fd5b506101336103a3366004611d17565b610948565b3480156103b457600080fd5b5046610155565b3480156103c757600080fd5b5061015560065481565b6103e46103df366004611e72565b610a07565b604051901515815260200161015f565b34801561040057600080fd5b506103e461040f366004611ee4565b60286020526000908152604090205460ff1681565b60025473ffffffffffffffffffffffffffffffffffffffff1633146104aa576040517f08c379a000000000000000000000000000000000000000000000000000000000815260206004820152600560248201527f216175746800000000000000000000000000000000000000000000000000000060448201526064015b60405180910390fd5b6002805473ffffffffffffffffffffffffffffffffffffffff8381167fffffffffffffffffffffffff0000000000000000000000000000000000000000831681179093556040519116919082907fb0999394a8202229d1e14c6290230863233f18473f7504b3a7b1a27f9b014c9d90600090a35050565b60008061052d88610672565b90506000816020015173ffffffffffffffffffffffffffffffffffffffff166353179a7c8b8b8b8b8b6040518663ffffffff1660e01b8152600401610576959493929190611f46565b602060405180830381865afa158015610593573d6000803e3d6000fd5b505050506040513d601f19601f820116820180604052508101906105b79190611f82565b82516040517fa1dbf432000000000000000000000000000000000000000000000000000000008152600481018d905273ffffffffffffffffffffffffffffffffffffffff8c811660248301529293506000929091169063a1dbf43290604401602060405180830381865afa158015610633573d6000803e3d6000fd5b505050506040513d601f19601f820116820180604052508101906106579190611f82565b90506106638183611fca565b9b9a5050505050505050505050565b6040805180820182526000808252602080830182905273ffffffffffffffffffffffffffffffffffffffff858116835260058252918490208451808601909552805483168552600101549091169083018190529091906106eb5760045473ffffffffffffffffffffffffffffffffffffffff1660208201525b805173ffffffffffffffffffffffffffffffffffffffff166107235760035473ffffffffffffffffffffffffffffffffffffffff1681525b92915050565b610731611b9a565b61073b6007610ae4565b905090565b60025473ffffffffffffffffffffffffffffffffffffffff1633146107c1576040517f08c379a000000000000000000000000000000000000000000000000000000000815260206004820152600560248201527f216175746800000000000000000000000000000000000000000000000000000060448201526064016104a1565b60408051808201825273ffffffffffffffffffffffffffffffffffffffff8481168083529084166020928301819052600380547fffffffffffffffffffffffff0000000000000000000000000000000000000000908116841790915560048054909116821790558351918252918101919091527f504f152883e6158786ddfcce63f4d4d95ce8e404b1f6e6365a06f63849b7cb95910160405180910390a15050565b61086b611b9a565b604080516104008101918290529060079060209082845b815481526020019060010190808311610882575050505050905090565b600060016000541461090d576040517f08c379a000000000000000000000000000000000000000000000000000000000815260206004820152601060248201527f2173656e642d7265656e7472616e63790000000000000000000000000000000060448201526064016104a1565b600260009081553390610924828c8c8c8c8c610bda565b90506109358287838e8d8d8d610d9d565b60016000559a9950505050505050505050565b60408051808201825273ffffffffffffffffffffffffffffffffffffffff848116808352848216602080850182815233600081815260058452889020965187549087167fffffffffffffffffffffffff000000000000000000000000000000000000000091821617885591516001909701805497909616969091169590951790935584519182529181019190915290917f86b44d92ad94c11b25d0f08d0f55e8e235b4d165e62e541c02e8ee19f551c97b910160405180910390a25050565b60006001805414610a74576040517f08c379a000000000000000000000000000000000000000000000000000000000815260206004820152601060248201527f21726563762d7265656e7472616e63790000000000000000000000000000000060448201526064016104a1565b60026001556000610a86858585610e8d565b9050610a9a610a94866120e1565b82611155565b9150807f62b1dc20fd6f1518626da5b6f9897e8cd4ebadbad071bb66dc96a37c970087a883604051610ad0911515815260200190565b60405180910390a250600180559392505050565b610aec611b9a565b600060018360200154610aff9190612183565b6040805161040081019182905291925060009190859060209082845b815481526020019060010190808311610b1b57505050505090506000610b3f6111df565b905060005b6020811015610bd157600184821c811690819003610b8f57838260208110610b6e57610b6e612196565b6020020151868360208110610b8557610b85612196565b6020020152610bbe565b828260208110610ba157610ba1612196565b6020020151868360208110610bb857610bb8612196565b60200201525b5080610bc9816121c5565b915050610b44565b50505050919050565b6000468603610c45576040517f08c379a000000000000000000000000000000000000000000000000000000000815260206004820152600c60248201527f2163726f73732d636861696e000000000000000000000000000000000000000060448201526064016104a1565b6000610c5060275490565b905060006040518061010001604052807f000000000000000000000000000000000000000000000000000000000000000073ffffffffffffffffffffffffffffffffffffffff168152602001838152602001610ca94690565b81526020018a73ffffffffffffffffffffffffffffffffffffffff1681526020018981526020018873ffffffffffffffffffffffffffffffffffffffff16815260200187815260200186868080601f016020809104026020016040519081016040528093929190818152602001838380828437600092018290525093909452509293509150610d399050826116a0565b9050610d466007826116d0565b610d506007611814565b600681905560405182917f327110434bca326d1f70236295f59c8b472ebc683a6549ca9254697564fec4a591610d889190869061227e565b60405180910390a29998505050505050505050565b6000610da888610672565b90506000610dbe8260200151878b888888611827565b90506000610dd18360000151888c6118c3565b9050826020015173ffffffffffffffffffffffffffffffffffffffff16836000015173ffffffffffffffffffffffffffffffffffffffff16897ff7e134438bf3052b95eaa2f90f4177932297d80eb36186624c2f366cb8944ecf8486604051610e44929190918252602082015260400190565b60405180910390a4610e568183611fca565b341115610e81576000610e698284611fca565b610e739034612183565b9050610e7f8a82611973565b505b50505050505050505050565b600080610ea361026560c0870160a08801611be2565b602081015190915073ffffffffffffffffffffffffffffffffffffffff163314610f29576040517f08c379a000000000000000000000000000000000000000000000000000000000815260206004820152600560248201527f216175746800000000000000000000000000000000000000000000000000000060448201526064016104a1565b6000610f3c610f37876120e1565b6116a0565b9050816000015173ffffffffffffffffffffffffffffffffffffffff1663094f87c587604001358388886040518563ffffffff1660e01b8152600401610f859493929190612297565b602060405180830381865afa158015610fa2573d6000803e3d6000fd5b505050506040513d601f19601f82011682018060405250810190610fc691906122c1565b61102c576040517f08c379a000000000000000000000000000000000000000000000000000000000815260206004820152600660248201527f2170726f6f66000000000000000000000000000000000000000000000000000060448201526064016104a1565b60808601354614611099576040517f08c379a000000000000000000000000000000000000000000000000000000000815260206004820152600a60248201527f21746f436861696e49640000000000000000000000000000000000000000000060448201526064016104a1565b60008181526028602052604090205460ff1615611114576040517f08c379a00000000000000000000000000000000000000000000000000000000081526004016104a19060208082526004908201527f646f6e6500000000000000000000000000000000000000000000000000000000604082015260600190565b600081815260286020526040902080547fffffffffffffffffffffffffffffffffffffffffffffffffffffffffffffff001660011790559150509392505050565b60006111d78360c001513460008660e00151868860400151896060015160405160200161118594939291906122e3565b604080517fffffffffffffffffffffffffffffffffffffffffffffffffffffffffffffffe081840301815291905260a088015173ffffffffffffffffffffffffffffffffffffffff1693929190611a3d565b509392505050565b6111e7611b9a565b600081527fad3228b676f7d3cd4284a5443f17f1962b36e491b30a40b2405849e597ba5fb560208201527fb4c11951957c6f8f642c4af61cd6b24640fec6dc7fc607ee8206a99e92410d3060408201527f21ddb9a356815c3fac1026b6dec5df3124afbadb485c9ba5a3e3398a04b7ba8560608201527fe58769b32a1beaf1ea27375a44095a0d1fb664ce2dd358e7fcbfb78c26a1934460808201527f0eb01ebfc9ed27500cd4dfc979272d1f0913cc9f66540d7e8005811109e1cf2d60a08201527f887c22bd8750d34016ac3c66b5ff102dacdd73f6b014e710b51e8022af9a196860c08201527fffd70157e48063fc33c97a050f7f640233bf646cc98d9524c6b92bcf3ab56f8360e08201527f9867cc5f7f196b93bae1e27e6320742445d290f2263827498b54fec539f756af6101008201527fcefad4e508c098b9a7e1d8feb19955fb02ba9675585078710969d3440f5054e06101208201527ff9dc3e7fe016e050eff260334f18a5d4fe391d82092319f5964f2e2eb7c1c3a56101408201527ff8b13a49e282f609c317a833fb8d976d11517c571d1221a265d25af778ecf8926101608201527f3490c6ceeb450aecdc82e28293031d10c7d73bf85e57bf041a97360aa2c5d99c6101808201527fc1df82d9c4b87413eae2ef048f94b4d3554cea73d92b0f7af96e0271c691e2bb6101a08201527f5c67add7c6caf302256adedf7ab114da0acfe870d449a3a489f781d659e8becc6101c08201527fda7bce9f4e8618b6bd2f4132ce798cdc7a60e7e1460a7299e3c6342a579626d26101e08201527f2733e50f526ec2fa19a22b31e8ed50f23cd1fdf94c9154ed3a7609a2f1ff981f6102008201527fe1d3b5c807b281e4683cc6d6315cf95b9ade8641defcb32372f1c126e398ef7a6102208201527f5a2dce0a8a7f68bb74560f8f71837c2c2ebbcbf7fffb42ae1896f13f7c7479a06102408201527fb46a28b6f55540f89444f63de0378e3d121be09e06cc9ded1c20e65876d36aa06102608201527fc65e9645644786b620e2dd2ad648ddfcbf4a7e5b1a3a4ecfe7f64667a3f0b7e26102808201527ff4418588ed35a2458cffeb39b93d26f18d2ab13bdce6aee58e7b99359ec2dfd96102a08201527f5a9c16dc00d6ef18b7933a6f8dc65ccb55667138776f7dea101070dc8796e3776102c08201527f4df84f40ae0c8229d0d6069e5c8f39a7c299677a09d367fc7b05e3bc380ee6526102e08201527fcdc72595f74c7b1043d0e1ffbab734648c838dfb0527d971b602bc216c9619ef6103008201527f0abf5ac974a1ed57f4050aa510dd9c74f508277b39d7973bb2dfccc5eeb0618d6103208201527fb8cd74046ff337f0a7bf2c8e03e10f642c1886798d71806ab1e888d9e5ee87d06103408201527f838c5655cb21c6cb83313b5a631175dff4963772cce9108188b34ac87c81c41e6103608201527f662ee4dd2dd7b2bc707961b1e646c4047669dcb6584f0d8d770daf5d7e7deb2e6103808201527f388ab20e2573d171a88108e79d820e98f26c0b84aa8b2f4aa4968dbb818ea3226103a08201527f93237c50ba75ee485f4c22adf2f741400bdf8d6a9cc7df7ecae576221665d7356103c08201527f8448818bb4ae4562849e949e17ac16e0be16688e156b5cf15e098c627c0056a96103e082015290565b6000816040516020016116b39190612337565b604051602081830303815290604052805190602001209050919050565b60016116de6020600261246a565b6116e89190612183565b826020015410611754576040517f08c379a000000000000000000000000000000000000000000000000000000000815260206004820152601060248201527f6d65726b6c6520747265652066756c6c0000000000000000000000000000000060448201526064016104a1565b60018260200160008282546117699190611fca565b9091555050602082015460005b602081101561180657816001166001036117a5578284826020811061179d5761179d612196565b015550505050565b8381602081106117b7576117b7612196565b015460408051602081019290925281018490526060016040516020818303038152906040528051906020012092506002826117f29190612476565b9150806117fe816121c5565b915050611776565b5061180f6124b1565b505050565b6000610723826118226111df565b611ac8565b6000808773ffffffffffffffffffffffffffffffffffffffff166353179a7c88888888886040518663ffffffff1660e01b815260040161186b959493929190611f46565b602060405180830381865afa158015611888573d6000803e3d6000fd5b505050506040513d601f19601f820116820180604052508101906118ac9190611f82565b90506118b88882611973565b979650505050505050565b6040517fa1dbf4320000000000000000000000000000000000000000000000000000000081526004810183905273ffffffffffffffffffffffffffffffffffffffff8281166024830152600091829186169063a1dbf43290604401602060405180830381865afa15801561193b573d6000803e3d6000fd5b505050506040513d601f19601f8201168201806040525081019061195f9190611f82565b905061196b8582611973565b949350505050565b60008273ffffffffffffffffffffffffffffffffffffffff168260405160006040518083038185875af1925050503d80600081146119cd576040519150601f19603f3d011682016040523d82523d6000602084013e6119d2565b606091505b505090508061180f576040517f08c379a000000000000000000000000000000000000000000000000000000000815260206004820152600560248201527f2173656e6400000000000000000000000000000000000000000000000000000060448201526064016104a1565b6000606060008060008661ffff1667ffffffffffffffff811115611a6357611a63611fdd565b6040519080825280601f01601f191660200182016040528015611a8d576020820181803683370190505b5090506000808751602089018b8e8ef191503d925086831115611aae578692505b828152826000602083013e90999098509650505050505050565b6020820154600090815b6020811015611b9257600182821c166000868360208110611af557611af5612196565b0154905081600103611b32576040805160208101839052908101869052606001604051602081830303815290604052805190602001209450611b7d565b84868460208110611b4557611b45612196565b6020020151604051602001611b64929190918252602082015260400190565b6040516020818303038152906040528051906020012094505b50508080611b8a906121c5565b915050611ad2565b505092915050565b6040518061040001604052806020906020820280368337509192915050565b803573ffffffffffffffffffffffffffffffffffffffff81168114611bdd57600080fd5b919050565b600060208284031215611bf457600080fd5b611bfd82611bb9565b9392505050565b60008083601f840112611c1657600080fd5b50813567ffffffffffffffff811115611c2e57600080fd5b602083019150836020828501011115611c4657600080fd5b9250929050565b600080600080600080600060a0888a031215611c6857600080fd5b87359650611c7860208901611bb9565b955060408801359450606088013567ffffffffffffffff80821115611c9c57600080fd5b611ca88b838c01611c04565b909650945060808a0135915080821115611cc157600080fd5b50611cce8a828b01611c04565b989b979a50959850939692959293505050565b6104008101818360005b6020808210611cfa5750611d0e565b825184529283019290910190600101611ceb565b50505092915050565b60008060408385031215611d2a57600080fd5b611d3383611bb9565b9150611d4160208401611bb9565b90509250929050565b60005b83811015611d65578181015183820152602001611d4d565b50506000910152565b60008151808452611d86816020860160208601611d4a565b601f017fffffffffffffffffffffffffffffffffffffffffffffffffffffffffffffffe0169290920160200192915050565b602081526000611bfd6020830184611d6e565b60008060008060008060008060c0898b031215611de757600080fd5b88359750611df760208a01611bb9565b965060408901359550606089013567ffffffffffffffff80821115611e1b57600080fd5b611e278c838d01611c04565b9097509550859150611e3b60808c01611bb9565b945060a08b0135915080821115611e5157600080fd5b50611e5e8b828c01611c04565b999c989b5096995094979396929594505050565b600080600060408486031215611e8757600080fd5b833567ffffffffffffffff80821115611e9f57600080fd5b908501906101008288031215611eb457600080fd5b90935060208501359080821115611eca57600080fd5b50611ed786828701611c04565b9497909650939450505050565b600060208284031215611ef657600080fd5b5035919050565b8183528181602085013750600060208284010152600060207fffffffffffffffffffffffffffffffffffffffffffffffffffffffffffffffe0601f840116840101905092915050565b85815273ffffffffffffffffffffffffffffffffffffffff851660208201528360408201526080606082015260006118b8608083018486611efd565b600060208284031215611f9457600080fd5b5051919050565b7f4e487b7100000000000000000000000000000000000000000000000000000000600052601160045260246000fd5b8082018082111561072357610723611f9b565b7f4e487b7100000000000000000000000000000000000000000000000000000000600052604160045260246000fd5b604051610100810167ffffffffffffffff8111828210171561203057612030611fdd565b60405290565b600082601f83011261204757600080fd5b813567ffffffffffffffff8082111561206257612062611fdd565b604051601f83017fffffffffffffffffffffffffffffffffffffffffffffffffffffffffffffffe0908116603f011681019082821181831017156120a8576120a8611fdd565b816040528381528660208588010111156120c157600080fd5b836020870160208301376000602085830101528094505050505092915050565b600061010082360312156120f457600080fd5b6120fc61200c565b61210583611bb9565b8152602083013560208201526040830135604082015261212760608401611bb9565b60608201526080830135608082015261214260a08401611bb9565b60a082015260c083013560c082015260e083013567ffffffffffffffff81111561216b57600080fd5b61217736828601612036565b60e08301525092915050565b8181038181111561072357610723611f9b565b7f4e487b7100000000000000000000000000000000000000000000000000000000600052603260045260246000fd5b60007fffffffffffffffffffffffffffffffffffffffffffffffffffffffffffffffff82036121f6576121f6611f9b565b5060010190565b600061010073ffffffffffffffffffffffffffffffffffffffff8084511685526020840151602086015260408401516040860152806060850151166060860152608084015160808601528060a08501511660a08601525060c083015160c085015260e08301518160e086015261227582860182611d6e565b95945050505050565b82815260406020820152600061196b60408301846121fd565b8481528360208201526060604082015260006122b7606083018486611efd565b9695505050505050565b6000602082840312156122d357600080fd5b81518015158114611bfd57600080fd5b600085516122f5818460208a01611d4a565b9190910193845250602083019190915260601b7fffffffffffffffffffffffffffffffffffffffff000000000000000000000000166040820152605401919050565b602081526000611bfd60208301846121fd565b600181815b808511156123a357817fffffffffffffffffffffffffffffffffffffffffffffffffffffffffffffffff0482111561238957612389611f9b565b8085161561239657918102915b93841c939080029061234f565b509250929050565b6000826123ba57506001610723565b816123c757506000610723565b81600181146123dd57600281146123e757612403565b6001915050610723565b60ff8411156123f8576123f8611f9b565b50506001821b610723565b5060208310610133831016604e8410600b8410161715612426575081810a610723565b612430838361234a565b807fffffffffffffffffffffffffffffffffffffffffffffffffffffffffffffffff0482111561246257612462611f9b565b029392505050565b6000611bfd83836123ab565b6000826124ac577f4e487b7100000000000000000000000000000000000000000000000000000000600052601260045260246000fd5b500490565b7f4e487b7100000000000000000000000000000000000000000000000000000000600052600160045260246000fdfea2646970667358221220e4b3459bef63f5af5ae2294d65e90d4caa676610aebba195cd887e674ddf857a64736f6c63430008110033",
			"deployedBytecode": "0x60806040526004361061010e5760003560e01c80634ea59979116100a55780638b22909111610074578063ebf0c71711610059578063ebf0c717146103bb578063ee6ad167146103d1578063f67c907c146103f457600080fd5b80638b22909114610388578063b0ff5e72146103a857600080fd5b80634ea59979146102f457806352720be41461031457806354fd4d50146103295780635e26462c1461037557600080fd5b80633f3108f7116100e15780633f3108f7146101f8578063413422491461024a57806345152ae31461029e5780634872824f146102c057600080fd5b80630f988a73146101135780631c2b2da6146101355780633c50e178146101685780633dbcc8d1146101e3575b600080fd5b34801561011f57600080fd5b5061013361012e366004611be2565b610424565b005b34801561014157600080fd5b50610155610150366004611c4d565b610521565b6040519081526020015b60405180910390f35b34801561017457600080fd5b506101b6610183366004611be2565b6005602052600090815260409020805460019091015473ffffffffffffffffffffffffffffffffffffffff918216911682565b6040805173ffffffffffffffffffffffffffffffffffffffff93841681529290911660208301520161015f565b3480156101ef57600080fd5b50602754610155565b34801561020457600080fd5b506002546102259073ffffffffffffffffffffffffffffffffffffffff1681565b60405173ffffffffffffffffffffffffffffffffffffffff909116815260200161015f565b34801561025657600080fd5b5061026a610265366004611be2565b610672565b60408051825173ffffffffffffffffffffffffffffffffffffffff908116825260209384015116928101929092520161015f565b3480156102aa57600080fd5b506102b3610729565b60405161015f9190611ce1565b3480156102cc57600080fd5b506003546004546101b69173ffffffffffffffffffffffffffffffffffffffff908116911682565b34801561030057600080fd5b5061013361030f366004611d17565b610740565b34801561032057600080fd5b506102b3610863565b34801561033557600080fd5b50604080518082018252600581527f322e302e300000000000000000000000000000000000000000000000000000006020820152905161015f9190611db8565b610155610383366004611dcb565b61089f565b34801561039457600080fd5b506101336103a3366004611d17565b610948565b3480156103b457600080fd5b5046610155565b3480156103c757600080fd5b5061015560065481565b6103e46103df366004611e72565b610a07565b604051901515815260200161015f565b34801561040057600080fd5b506103e461040f366004611ee4565b60286020526000908152604090205460ff1681565b60025473ffffffffffffffffffffffffffffffffffffffff1633146104aa576040517f08c379a000000000000000000000000000000000000000000000000000000000815260206004820152600560248201527f216175746800000000000000000000000000000000000000000000000000000060448201526064015b60405180910390fd5b6002805473ffffffffffffffffffffffffffffffffffffffff8381167fffffffffffffffffffffffff0000000000000000000000000000000000000000831681179093556040519116919082907fb0999394a8202229d1e14c6290230863233f18473f7504b3a7b1a27f9b014c9d90600090a35050565b60008061052d88610672565b90506000816020015173ffffffffffffffffffffffffffffffffffffffff166353179a7c8b8b8b8b8b6040518663ffffffff1660e01b8152600401610576959493929190611f46565b602060405180830381865afa158015610593573d6000803e3d6000fd5b505050506040513d601f19601f820116820180604052508101906105b79190611f82565b82516040517fa1dbf432000000000000000000000000000000000000000000000000000000008152600481018d905273ffffffffffffffffffffffffffffffffffffffff8c811660248301529293506000929091169063a1dbf43290604401602060405180830381865afa158015610633573d6000803e3d6000fd5b505050506040513d601f19601f820116820180604052508101906106579190611f82565b90506106638183611fca565b9b9a5050505050505050505050565b6040805180820182526000808252602080830182905273ffffffffffffffffffffffffffffffffffffffff858116835260058252918490208451808601909552805483168552600101549091169083018190529091906106eb5760045473ffffffffffffffffffffffffffffffffffffffff1660208201525b805173ffffffffffffffffffffffffffffffffffffffff166107235760035473ffffffffffffffffffffffffffffffffffffffff1681525b92915050565b610731611b9a565b61073b6007610ae4565b905090565b60025473ffffffffffffffffffffffffffffffffffffffff1633146107c1576040517f08c379a000000000000000000000000000000000000000000000000000000000815260206004820152600560248201527f216175746800000000000000000000000000000000000000000000000000000060448201526064016104a1565b60408051808201825273ffffffffffffffffffffffffffffffffffffffff8481168083529084166020928301819052600380547fffffffffffffffffffffffff0000000000000000000000000000000000000000908116841790915560048054909116821790558351918252918101919091527f504f152883e6158786ddfcce63f4d4d95ce8e404b1f6e6365a06f63849b7cb95910160405180910390a15050565b61086b611b9a565b604080516104008101918290529060079060209082845b815481526020019060010190808311610882575050505050905090565b600060016000541461090d576040517f08c379a000000000000000000000000000000000000000000000000000000000815260206004820152601060248201527f2173656e642d7265656e7472616e63790000000000000000000000000000000060448201526064016104a1565b600260009081553390610924828c8c8c8c8c610bda565b90506109358287838e8d8d8d610d9d565b60016000559a9950505050505050505050565b60408051808201825273ffffffffffffffffffffffffffffffffffffffff848116808352848216602080850182815233600081815260058452889020965187549087167fffffffffffffffffffffffff000000000000000000000000000000000000000091821617885591516001909701805497909616969091169590951790935584519182529181019190915290917f86b44d92ad94c11b25d0f08d0f55e8e235b4d165e62e541c02e8ee19f551c97b910160405180910390a25050565b60006001805414610a74576040517f08c379a000000000000000000000000000000000000000000000000000000000815260206004820152601060248201527f21726563762d7265656e7472616e63790000000000000000000000000000000060448201526064016104a1565b60026001556000610a86858585610e8d565b9050610a9a610a94866120e1565b82611155565b9150807f62b1dc20fd6f1518626da5b6f9897e8cd4ebadbad071bb66dc96a37c970087a883604051610ad0911515815260200190565b60405180910390a250600180559392505050565b610aec611b9a565b600060018360200154610aff9190612183565b6040805161040081019182905291925060009190859060209082845b815481526020019060010190808311610b1b57505050505090506000610b3f6111df565b905060005b6020811015610bd157600184821c811690819003610b8f57838260208110610b6e57610b6e612196565b6020020151868360208110610b8557610b85612196565b6020020152610bbe565b828260208110610ba157610ba1612196565b6020020151868360208110610bb857610bb8612196565b60200201525b5080610bc9816121c5565b915050610b44565b50505050919050565b6000468603610c45576040517f08c379a000000000000000000000000000000000000000000000000000000000815260206004820152600c60248201527f2163726f73732d636861696e000000000000000000000000000000000000000060448201526064016104a1565b6000610c5060275490565b905060006040518061010001604052807f0000000000000000000000002d475e1160fc42d6ae940593d18057d34038e8fc73ffffffffffffffffffffffffffffffffffffffff168152602001838152602001610ca94690565b81526020018a73ffffffffffffffffffffffffffffffffffffffff1681526020018981526020018873ffffffffffffffffffffffffffffffffffffffff16815260200187815260200186868080601f016020809104026020016040519081016040528093929190818152602001838380828437600092018290525093909452509293509150610d399050826116a0565b9050610d466007826116d0565b610d506007611814565b600681905560405182917f327110434bca326d1f70236295f59c8b472ebc683a6549ca9254697564fec4a591610d889190869061227e565b60405180910390a29998505050505050505050565b6000610da888610672565b90506000610dbe8260200151878b888888611827565b90506000610dd18360000151888c6118c3565b9050826020015173ffffffffffffffffffffffffffffffffffffffff16836000015173ffffffffffffffffffffffffffffffffffffffff16897ff7e134438bf3052b95eaa2f90f4177932297d80eb36186624c2f366cb8944ecf8486604051610e44929190918252602082015260400190565b60405180910390a4610e568183611fca565b341115610e81576000610e698284611fca565b610e739034612183565b9050610e7f8a82611973565b505b50505050505050505050565b600080610ea361026560c0870160a08801611be2565b602081015190915073ffffffffffffffffffffffffffffffffffffffff163314610f29576040517f08c379a000000000000000000000000000000000000000000000000000000000815260206004820152600560248201527f216175746800000000000000000000000000000000000000000000000000000060448201526064016104a1565b6000610f3c610f37876120e1565b6116a0565b9050816000015173ffffffffffffffffffffffffffffffffffffffff1663094f87c587604001358388886040518563ffffffff1660e01b8152600401610f859493929190612297565b602060405180830381865afa158015610fa2573d6000803e3d6000fd5b505050506040513d601f19601f82011682018060405250810190610fc691906122c1565b61102c576040517f08c379a000000000000000000000000000000000000000000000000000000000815260206004820152600660248201527f2170726f6f66000000000000000000000000000000000000000000000000000060448201526064016104a1565b60808601354614611099576040517f08c379a000000000000000000000000000000000000000000000000000000000815260206004820152600a60248201527f21746f436861696e49640000000000000000000000000000000000000000000060448201526064016104a1565b60008181526028602052604090205460ff1615611114576040517f08c379a00000000000000000000000000000000000000000000000000000000081526004016104a19060208082526004908201527f646f6e6500000000000000000000000000000000000000000000000000000000604082015260600190565b600081815260286020526040902080547fffffffffffffffffffffffffffffffffffffffffffffffffffffffffffffff001660011790559150509392505050565b60006111d78360c001513460008660e00151868860400151896060015160405160200161118594939291906122e3565b604080517fffffffffffffffffffffffffffffffffffffffffffffffffffffffffffffffe081840301815291905260a088015173ffffffffffffffffffffffffffffffffffffffff1693929190611a3d565b509392505050565b6111e7611b9a565b600081527fad3228b676f7d3cd4284a5443f17f1962b36e491b30a40b2405849e597ba5fb560208201527fb4c11951957c6f8f642c4af61cd6b24640fec6dc7fc607ee8206a99e92410d3060408201527f21ddb9a356815c3fac1026b6dec5df3124afbadb485c9ba5a3e3398a04b7ba8560608201527fe58769b32a1beaf1ea27375a44095a0d1fb664ce2dd358e7fcbfb78c26a1934460808201527f0eb01ebfc9ed27500cd4dfc979272d1f0913cc9f66540d7e8005811109e1cf2d60a08201527f887c22bd8750d34016ac3c66b5ff102dacdd73f6b014e710b51e8022af9a196860c08201527fffd70157e48063fc33c97a050f7f640233bf646cc98d9524c6b92bcf3ab56f8360e08201527f9867cc5f7f196b93bae1e27e6320742445d290f2263827498b54fec539f756af6101008201527fcefad4e508c098b9a7e1d8feb19955fb02ba9675585078710969d3440f5054e06101208201527ff9dc3e7fe016e050eff260334f18a5d4fe391d82092319f5964f2e2eb7c1c3a56101408201527ff8b13a49e282f609c317a833fb8d976d11517c571d1221a265d25af778ecf8926101608201527f3490c6ceeb450aecdc82e28293031d10c7d73bf85e57bf041a97360aa2c5d99c6101808201527fc1df82d9c4b87413eae2ef048f94b4d3554cea73d92b0f7af96e0271c691e2bb6101a08201527f5c67add7c6caf302256adedf7ab114da0acfe870d449a3a489f781d659e8becc6101c08201527fda7bce9f4e8618b6bd2f4132ce798cdc7a60e7e1460a7299e3c6342a579626d26101e08201527f2733e50f526ec2fa19a22b31e8ed50f23cd1fdf94c9154ed3a7609a2f1ff981f6102008201527fe1d3b5c807b281e4683cc6d6315cf95b9ade8641defcb32372f1c126e398ef7a6102208201527f5a2dce0a8a7f68bb74560f8f71837c2c2ebbcbf7fffb42ae1896f13f7c7479a06102408201527fb46a28b6f55540f89444f63de0378e3d121be09e06cc9ded1c20e65876d36aa06102608201527fc65e9645644786b620e2dd2ad648ddfcbf4a7e5b1a3a4ecfe7f64667a3f0b7e26102808201527ff4418588ed35a2458cffeb39b93d26f18d2ab13bdce6aee58e7b99359ec2dfd96102a08201527f5a9c16dc00d6ef18b7933a6f8dc65ccb55667138776f7dea101070dc8796e3776102c08201527f4df84f40ae0c8229d0d6069e5c8f39a7c299677a09d367fc7b05e3bc380ee6526102e08201527fcdc72595f74c7b1043d0e1ffbab734648c838dfb0527d971b602bc216c9619ef6103008201527f0abf5ac974a1ed57f4050aa510dd9c74f508277b39d7973bb2dfccc5eeb0618d6103208201527fb8cd74046ff337f0a7bf2c8e03e10f642c1886798d71806ab1e888d9e5ee87d06103408201527f838c5655cb21c6cb83313b5a631175dff4963772cce9108188b34ac87c81c41e6103608201527f662ee4dd2dd7b2bc707961b1e646c4047669dcb6584f0d8d770daf5d7e7deb2e6103808201527f388ab20e2573d171a88108e79d820e98f26c0b84aa8b2f4aa4968dbb818ea3226103a08201527f93237c50ba75ee485f4c22adf2f741400bdf8d6a9cc7df7ecae576221665d7356103c08201527f8448818bb4ae4562849e949e17ac16e0be16688e156b5cf15e098c627c0056a96103e082015290565b6000816040516020016116b39190612337565b604051602081830303815290604052805190602001209050919050565b60016116de6020600261246a565b6116e89190612183565b826020015410611754576040517f08c379a000000000000000000000000000000000000000000000000000000000815260206004820152601060248201527f6d65726b6c6520747265652066756c6c0000000000000000000000000000000060448201526064016104a1565b60018260200160008282546117699190611fca565b9091555050602082015460005b602081101561180657816001166001036117a5578284826020811061179d5761179d612196565b015550505050565b8381602081106117b7576117b7612196565b015460408051602081019290925281018490526060016040516020818303038152906040528051906020012092506002826117f29190612476565b9150806117fe816121c5565b915050611776565b5061180f6124b1565b505050565b6000610723826118226111df565b611ac8565b6000808773ffffffffffffffffffffffffffffffffffffffff166353179a7c88888888886040518663ffffffff1660e01b815260040161186b959493929190611f46565b602060405180830381865afa158015611888573d6000803e3d6000fd5b505050506040513d601f19601f820116820180604052508101906118ac9190611f82565b90506118b88882611973565b979650505050505050565b6040517fa1dbf4320000000000000000000000000000000000000000000000000000000081526004810183905273ffffffffffffffffffffffffffffffffffffffff8281166024830152600091829186169063a1dbf43290604401602060405180830381865afa15801561193b573d6000803e3d6000fd5b505050506040513d601f19601f8201168201806040525081019061195f9190611f82565b905061196b8582611973565b949350505050565b60008273ffffffffffffffffffffffffffffffffffffffff168260405160006040518083038185875af1925050503d80600081146119cd576040519150601f19603f3d011682016040523d82523d6000602084013e6119d2565b606091505b505090508061180f576040517f08c379a000000000000000000000000000000000000000000000000000000000815260206004820152600560248201527f2173656e6400000000000000000000000000000000000000000000000000000060448201526064016104a1565b6000606060008060008661ffff1667ffffffffffffffff811115611a6357611a63611fdd565b6040519080825280601f01601f191660200182016040528015611a8d576020820181803683370190505b5090506000808751602089018b8e8ef191503d925086831115611aae578692505b828152826000602083013e90999098509650505050505050565b6020820154600090815b6020811015611b9257600182821c166000868360208110611af557611af5612196565b0154905081600103611b32576040805160208101839052908101869052606001604051602081830303815290604052805190602001209450611b7d565b84868460208110611b4557611b45612196565b6020020151604051602001611b64929190918252602082015260400190565b6040516020818303038152906040528051906020012094505b50508080611b8a906121c5565b915050611ad2565b505092915050565b6040518061040001604052806020906020820280368337509192915050565b803573ffffffffffffffffffffffffffffffffffffffff81168114611bdd57600080fd5b919050565b600060208284031215611bf457600080fd5b611bfd82611bb9565b9392505050565b60008083601f840112611c1657600080fd5b50813567ffffffffffffffff811115611c2e57600080fd5b602083019150836020828501011115611c4657600080fd5b9250929050565b600080600080600080600060a0888a031215611c6857600080fd5b87359650611c7860208901611bb9565b955060408801359450606088013567ffffffffffffffff80821115611c9c57600080fd5b611ca88b838c01611c04565b909650945060808a0135915080821115611cc157600080fd5b50611cce8a828b01611c04565b989b979a50959850939692959293505050565b6104008101818360005b6020808210611cfa5750611d0e565b825184529283019290910190600101611ceb565b50505092915050565b60008060408385031215611d2a57600080fd5b611d3383611bb9565b9150611d4160208401611bb9565b90509250929050565b60005b83811015611d65578181015183820152602001611d4d565b50506000910152565b60008151808452611d86816020860160208601611d4a565b601f017fffffffffffffffffffffffffffffffffffffffffffffffffffffffffffffffe0169290920160200192915050565b602081526000611bfd6020830184611d6e565b60008060008060008060008060c0898b031215611de757600080fd5b88359750611df760208a01611bb9565b965060408901359550606089013567ffffffffffffffff80821115611e1b57600080fd5b611e278c838d01611c04565b9097509550859150611e3b60808c01611bb9565b945060a08b0135915080821115611e5157600080fd5b50611e5e8b828c01611c04565b999c989b5096995094979396929594505050565b600080600060408486031215611e8757600080fd5b833567ffffffffffffffff80821115611e9f57600080fd5b908501906101008288031215611eb457600080fd5b90935060208501359080821115611eca57600080fd5b50611ed786828701611c04565b9497909650939450505050565b600060208284031215611ef657600080fd5b5035919050565b8183528181602085013750600060208284010152600060207fffffffffffffffffffffffffffffffffffffffffffffffffffffffffffffffe0601f840116840101905092915050565b85815273ffffffffffffffffffffffffffffffffffffffff851660208201528360408201526080606082015260006118b8608083018486611efd565b600060208284031215611f9457600080fd5b5051919050565b7f4e487b7100000000000000000000000000000000000000000000000000000000600052601160045260246000fd5b8082018082111561072357610723611f9b565b7f4e487b7100000000000000000000000000000000000000000000000000000000600052604160045260246000fd5b604051610100810167ffffffffffffffff8111828210171561203057612030611fdd565b60405290565b600082601f83011261204757600080fd5b813567ffffffffffffffff8082111561206257612062611fdd565b604051601f83017fffffffffffffffffffffffffffffffffffffffffffffffffffffffffffffffe0908116603f011681019082821181831017156120a8576120a8611fdd565b816040528381528660208588010111156120c157600080fd5b836020870160208301376000602085830101528094505050505092915050565b600061010082360312156120f457600080fd5b6120fc61200c565b61210583611bb9565b8152602083013560208201526040830135604082015261212760608401611bb9565b60608201526080830135608082015261214260a08401611bb9565b60a082015260c083013560c082015260e083013567ffffffffffffffff81111561216b57600080fd5b61217736828601612036565b60e08301525092915050565b8181038181111561072357610723611f9b565b7f4e487b7100000000000000000000000000000000000000000000000000000000600052603260045260246000fd5b60007fffffffffffffffffffffffffffffffffffffffffffffffffffffffffffffffff82036121f6576121f6611f9b565b5060010190565b600061010073ffffffffffffffffffffffffffffffffffffffff8084511685526020840151602086015260408401516040860152806060850151166060860152608084015160808601528060a08501511660a08601525060c083015160c085015260e08301518160e086015261227582860182611d6e565b95945050505050565b82815260406020820152600061196b60408301846121fd565b8481528360208201526060604082015260006122b7606083018486611efd565b9695505050505050565b6000602082840312156122d357600080fd5b81518015158114611bfd57600080fd5b600085516122f5818460208a01611d4a565b9190910193845250602083019190915260601b7fffffffffffffffffffffffffffffffffffffffff000000000000000000000000166040820152605401919050565b602081526000611bfd60208301846121fd565b600181815b808511156123a357817fffffffffffffffffffffffffffffffffffffffffffffffffffffffffffffffff0482111561238957612389611f9b565b8085161561239657918102915b93841c939080029061234f565b509250929050565b6000826123ba57506001610723565b816123c757506000610723565b81600181146123dd57600281146123e757612403565b6001915050610723565b60ff8411156123f8576123f8611f9b565b50506001821b610723565b5060208310610133831016604e8410600b8410161715612426575081810a610723565b612430838361234a565b807fffffffffffffffffffffffffffffffffffffffffffffffffffffffffffffffff0482111561246257612462611f9b565b029392505050565b6000611bfd83836123ab565b6000826124ac577f4e487b7100000000000000000000000000000000000000000000000000000000600052601260045260246000fd5b500490565b7f4e487b7100000000000000000000000000000000000000000000000000000000600052600160045260246000fdfea2646970667358221220e4b3459bef63f5af5ae2294d65e90d4caa676610aebba195cd887e674ddf857a64736f6c63430008110033",
			"devdoc": {
				"kind": "dev",
				"methods": {
					"LOCAL_CHAINID()": {
						"details": "Fetch local chain id.",
						"returns": {
							"chainId": "Local chain id."
						}
					},
					"changeSetter(address)": {
						"details": "Change setter.",
						"params": {
							"newSetter": "New setter."
						}
					},
					"fee(uint256,address,uint256,bytes,bytes)": {
						"params": {
							"encoded": "The calldata which encoded by ABI Encoding.",
							"gasLimit": "Gas limit for destination user application used."
						}
					},
					"getAppConfig(address)": {
						"details": "Fetch user application config.",
						"params": {
							"ua": "User application contract address."
						},
						"returns": {
							"_0": "user application config."
						}
					},
					"imtBranch()": {
						"details": "Fetch the branch of incremental merkle tree."
					},
					"messageCount()": {
						"details": "Fetch the messages count of incremental merkle tree."
					},
					"prove()": {
						"details": "Fetch the latest message proof"
					},
					"recv((address,uint256,uint256,address,uint256,address,uint256,bytes),bytes)": {
						"details": "Recv verified message from Channel and dispatch to destination user application address.",
						"params": {
							"message": "Verified receive message info.",
							"proof": "Message proof of this message."
						},
						"returns": {
							"dispatchResult": "Result of the message dispatch."
						}
					},
					"send(uint256,address,uint256,bytes,address,bytes)": {
						"details": "Send a cross-chain message over the endpoint.",
						"params": {
							"encoded": "The calldata which encoded by ABI Encoding.",
							"gasLimit": "Gas limit for destination user application used.",
							"refund": "Return extra fee to refund address.",
							"to": "User application contract address which receive the message.",
							"toChainId": "The Message destination chain id."
						}
					},
					"setAppConfig(address,address)": {
						"params": {
							"oracle": "Oracle which user application.",
							"relayer": "Relayer which user application choose."
						}
					},
					"setDefaultConfig(address,address)": {
						"details": "Set default user config for all user application.",
						"params": {
							"oracle": "Default oracle.",
							"relayer": "Default relayer."
						}
					}
				},
				"version": 1
			},
			"userdoc": {
				"kind": "user",
				"methods": {
					"changeSetter(address)": {
						"notice": "Only current setter could call."
					},
					"getAppConfig(address)": {
						"notice": "If user application has not configured, then the default user config is used."
					},
					"recv((address,uint256,uint256,address,uint256,address,uint256,bytes),bytes)": {
						"notice": "Only channel could call this function."
					},
					"send(uint256,address,uint256,bytes,address,bytes)": {
						"notice": "follow https://eips.ethereum.org/EIPS/eip-5750"
					},
					"setAppConfig(address,address)": {
						"notice": "Set user application config."
					},
					"setDefaultConfig(address,address)": {
						"notice": "Only setter could call."
					}
				},
				"version": 1
			},
			"gitCommit": "ea8caff26eeb31c3189033ff62ea530464fdf5ab",
			"sourceName": "lib/ORMP/src/ORMP.sol",
			"chainId": "421614",
			"linkReferences": {},
			"deployedLinkReferences": {}
		},
		{
			"_format": "sphinx-sol-ct-artifact-1",
			"merkleRoot": "0x3f6f37c65c5e3a9e40e27cddc024188376d14b08fc69ef2df1d6921060d5004a",
			"contractName": "ORMP",
			"address": "0x17717254038ebF1327917c3843D95EF74962120A",
			"abi": [
				{
					"type": "constructor",
					"inputs": [
						{
							"name": "dao",
							"type": "address",
							"internalType": "address"
						}
					],
					"stateMutability": "nonpayable"
				},
				{
					"type": "function",
					"name": "LOCAL_CHAINID",
					"inputs": [],
					"outputs": [
						{
							"name": "chainId",
							"type": "uint256",
							"internalType": "uint256"
						}
					],
					"stateMutability": "view"
				},
				{
					"type": "function",
					"name": "changeSetter",
					"inputs": [
						{
							"name": "newSetter",
							"type": "address",
							"internalType": "address"
						}
					],
					"outputs": [],
					"stateMutability": "nonpayable"
				},
				{
					"type": "function",
					"name": "defaultUC",
					"inputs": [],
					"outputs": [
						{
							"name": "oracle",
							"type": "address",
							"internalType": "address"
						},
						{
							"name": "relayer",
							"type": "address",
							"internalType": "address"
						}
					],
					"stateMutability": "view"
				},
				{
					"type": "function",
					"name": "dones",
					"inputs": [
						{
							"name": "",
							"type": "bytes32",
							"internalType": "bytes32"
						}
					],
					"outputs": [
						{
							"name": "",
							"type": "bool",
							"internalType": "bool"
						}
					],
					"stateMutability": "view"
				},
				{
					"type": "function",
					"name": "fee",
					"inputs": [
						{
							"name": "toChainId",
							"type": "uint256",
							"internalType": "uint256"
						},
						{
							"name": "ua",
							"type": "address",
							"internalType": "address"
						},
						{
							"name": "gasLimit",
							"type": "uint256",
							"internalType": "uint256"
						},
						{
							"name": "encoded",
							"type": "bytes",
							"internalType": "bytes"
						},
						{
							"name": "",
							"type": "bytes",
							"internalType": "bytes"
						}
					],
					"outputs": [
						{
							"name": "",
							"type": "uint256",
							"internalType": "uint256"
						}
					],
					"stateMutability": "view"
				},
				{
					"type": "function",
					"name": "getAppConfig",
					"inputs": [
						{
							"name": "ua",
							"type": "address",
							"internalType": "address"
						}
					],
					"outputs": [
						{
							"name": "",
							"type": "tuple",
							"internalType": "struct UC",
							"components": [
								{
									"name": "oracle",
									"type": "address",
									"internalType": "address"
								},
								{
									"name": "relayer",
									"type": "address",
									"internalType": "address"
								}
							]
						}
					],
					"stateMutability": "view"
				},
				{
					"type": "function",
					"name": "imtBranch",
					"inputs": [],
					"outputs": [
						{
							"name": "",
							"type": "bytes32[32]",
							"internalType": "bytes32[32]"
						}
					],
					"stateMutability": "view"
				},
				{
					"type": "function",
					"name": "messageCount",
					"inputs": [],
					"outputs": [
						{
							"name": "",
							"type": "uint256",
							"internalType": "uint256"
						}
					],
					"stateMutability": "view"
				},
				{
					"type": "function",
					"name": "prove",
					"inputs": [],
					"outputs": [
						{
							"name": "",
							"type": "bytes32[32]",
							"internalType": "bytes32[32]"
						}
					],
					"stateMutability": "view"
				},
				{
					"type": "function",
					"name": "recv",
					"inputs": [
						{
							"name": "message",
							"type": "tuple",
							"internalType": "struct Message",
							"components": [
								{
									"name": "channel",
									"type": "address",
									"internalType": "address"
								},
								{
									"name": "index",
									"type": "uint256",
									"internalType": "uint256"
								},
								{
									"name": "fromChainId",
									"type": "uint256",
									"internalType": "uint256"
								},
								{
									"name": "from",
									"type": "address",
									"internalType": "address"
								},
								{
									"name": "toChainId",
									"type": "uint256",
									"internalType": "uint256"
								},
								{
									"name": "to",
									"type": "address",
									"internalType": "address"
								},
								{
									"name": "gasLimit",
									"type": "uint256",
									"internalType": "uint256"
								},
								{
									"name": "encoded",
									"type": "bytes",
									"internalType": "bytes"
								}
							]
						},
						{
							"name": "proof",
							"type": "bytes",
							"internalType": "bytes"
						}
					],
					"outputs": [
						{
							"name": "dispatchResult",
							"type": "bool",
							"internalType": "bool"
						}
					],
					"stateMutability": "payable"
				},
				{
					"type": "function",
					"name": "root",
					"inputs": [],
					"outputs": [
						{
							"name": "",
							"type": "bytes32",
							"internalType": "bytes32"
						}
					],
					"stateMutability": "view"
				},
				{
					"type": "function",
					"name": "send",
					"inputs": [
						{
							"name": "toChainId",
							"type": "uint256",
							"internalType": "uint256"
						},
						{
							"name": "to",
							"type": "address",
							"internalType": "address"
						},
						{
							"name": "gasLimit",
							"type": "uint256",
							"internalType": "uint256"
						},
						{
							"name": "encoded",
							"type": "bytes",
							"internalType": "bytes"
						},
						{
							"name": "refund",
							"type": "address",
							"internalType": "address"
						},
						{
							"name": "",
							"type": "bytes",
							"internalType": "bytes"
						}
					],
					"outputs": [
						{
							"name": "",
							"type": "bytes32",
							"internalType": "bytes32"
						}
					],
					"stateMutability": "payable"
				},
				{
					"type": "function",
					"name": "setAppConfig",
					"inputs": [
						{
							"name": "oracle",
							"type": "address",
							"internalType": "address"
						},
						{
							"name": "relayer",
							"type": "address",
							"internalType": "address"
						}
					],
					"outputs": [],
					"stateMutability": "nonpayable"
				},
				{
					"type": "function",
					"name": "setDefaultConfig",
					"inputs": [
						{
							"name": "oracle",
							"type": "address",
							"internalType": "address"
						},
						{
							"name": "relayer",
							"type": "address",
							"internalType": "address"
						}
					],
					"outputs": [],
					"stateMutability": "nonpayable"
				},
				{
					"type": "function",
					"name": "setter",
					"inputs": [],
					"outputs": [
						{
							"name": "",
							"type": "address",
							"internalType": "address"
						}
					],
					"stateMutability": "view"
				},
				{
					"type": "function",
					"name": "ucOf",
					"inputs": [
						{
							"name": "",
							"type": "address",
							"internalType": "address"
						}
					],
					"outputs": [
						{
							"name": "oracle",
							"type": "address",
							"internalType": "address"
						},
						{
							"name": "relayer",
							"type": "address",
							"internalType": "address"
						}
					],
					"stateMutability": "view"
				},
				{
					"type": "function",
					"name": "version",
					"inputs": [],
					"outputs": [
						{
							"name": "",
							"type": "string",
							"internalType": "string"
						}
					],
					"stateMutability": "pure"
				},
				{
					"type": "event",
					"name": "AppConfigUpdated",
					"inputs": [
						{
							"name": "ua",
							"type": "address",
							"indexed": true,
							"internalType": "address"
						},
						{
							"name": "oracle",
							"type": "address",
							"indexed": false,
							"internalType": "address"
						},
						{
							"name": "relayer",
							"type": "address",
							"indexed": false,
							"internalType": "address"
						}
					],
					"anonymous": false
				},
				{
					"type": "event",
					"name": "DefaultConfigUpdated",
					"inputs": [
						{
							"name": "oracle",
							"type": "address",
							"indexed": false,
							"internalType": "address"
						},
						{
							"name": "relayer",
							"type": "address",
							"indexed": false,
							"internalType": "address"
						}
					],
					"anonymous": false
				},
				{
					"type": "event",
					"name": "MessageAccepted",
					"inputs": [
						{
							"name": "msgHash",
							"type": "bytes32",
							"indexed": true,
							"internalType": "bytes32"
						},
						{
							"name": "root",
							"type": "bytes32",
							"indexed": false,
							"internalType": "bytes32"
						},
						{
							"name": "message",
							"type": "tuple",
							"indexed": false,
							"internalType": "struct Message",
							"components": [
								{
									"name": "channel",
									"type": "address",
									"internalType": "address"
								},
								{
									"name": "index",
									"type": "uint256",
									"internalType": "uint256"
								},
								{
									"name": "fromChainId",
									"type": "uint256",
									"internalType": "uint256"
								},
								{
									"name": "from",
									"type": "address",
									"internalType": "address"
								},
								{
									"name": "toChainId",
									"type": "uint256",
									"internalType": "uint256"
								},
								{
									"name": "to",
									"type": "address",
									"internalType": "address"
								},
								{
									"name": "gasLimit",
									"type": "uint256",
									"internalType": "uint256"
								},
								{
									"name": "encoded",
									"type": "bytes",
									"internalType": "bytes"
								}
							]
						}
					],
					"anonymous": false
				},
				{
					"type": "event",
					"name": "MessageAssigned",
					"inputs": [
						{
							"name": "msgHash",
							"type": "bytes32",
							"indexed": true,
							"internalType": "bytes32"
						},
						{
							"name": "oracle",
							"type": "address",
							"indexed": true,
							"internalType": "address"
						},
						{
							"name": "relayer",
							"type": "address",
							"indexed": true,
							"internalType": "address"
						},
						{
							"name": "oracleFee",
							"type": "uint256",
							"indexed": false,
							"internalType": "uint256"
						},
						{
							"name": "relayerFee",
							"type": "uint256",
							"indexed": false,
							"internalType": "uint256"
						}
					],
					"anonymous": false
				},
				{
					"type": "event",
					"name": "MessageDispatched",
					"inputs": [
						{
							"name": "msgHash",
							"type": "bytes32",
							"indexed": true,
							"internalType": "bytes32"
						},
						{
							"name": "dispatchResult",
							"type": "bool",
							"indexed": false,
							"internalType": "bool"
						}
					],
					"anonymous": false
				},
				{
					"type": "event",
					"name": "SetterChanged",
					"inputs": [
						{
							"name": "oldSetter",
							"type": "address",
							"indexed": true,
							"internalType": "address"
						},
						{
							"name": "newSetter",
							"type": "address",
							"indexed": true,
							"internalType": "address"
						}
					],
					"anonymous": false
				}
			],
			"solcInputHash": "403d52f660759fecc7155a43916ae2fb",
			"receipt": {
				"blockHash": "0x5aa625f1b8be99cafa5e1391fc4af91a38598d3056238aa8f3147c5ba17f7fc5",
				"blockNumber": 27505638,
				"contractAddress": null,
				"cumulativeGasUsed": "8185095",
				"from": "0xD70A2e6eACbdeDA77a5d4bBAE3bC70239A0e088f",
				"gasPrice": "100000000",
				"gasUsed": "6556579",
				"hash": "0x9943e0892099dde175fc765e92e9d15f2151f9f96a5f9d32813fd704dbe126e2",
				"index": 2,
				"logs": [
					{
						"address": "0x701609866556Cb9A1FBD6B40201cD5899c9D2d56",
						"blockHash": "0x5aa625f1b8be99cafa5e1391fc4af91a38598d3056238aa8f3147c5ba17f7fc5",
						"blockNumber": 27505638,
						"data": "0x00000000000000000000000017717254038ebf1327917c3843d95ef74962120a",
						"index": 11,
						"topics": [
							"0x4db17dd5e4732fb6da34a148104a592783ca119a1e7bb8829eba6cbadef0b511"
						],
						"transactionHash": "0x9943e0892099dde175fc765e92e9d15f2151f9f96a5f9d32813fd704dbe126e2",
						"transactionIndex": 2
					},
					{
						"address": "0x701609866556Cb9A1FBD6B40201cD5899c9D2d56",
						"blockHash": "0x5aa625f1b8be99cafa5e1391fc4af91a38598d3056238aa8f3147c5ba17f7fc5",
						"blockNumber": 27505638,
						"data": "0x",
						"index": 12,
						"topics": [
							"0x6895c13664aa4f67288b25d7a21d7aaa34916e355fb9b6fae0a139a9085becb8",
							"0x00000000000000000000000004678247ac000d74768e5caa72a221a0a7c2ae44"
						],
						"transactionHash": "0x9943e0892099dde175fc765e92e9d15f2151f9f96a5f9d32813fd704dbe126e2",
						"transactionIndex": 2
					},
					{
						"address": "0x04678247aC000d74768E5CAa72a221A0a7C2Ae44",
						"blockHash": "0x5aa625f1b8be99cafa5e1391fc4af91a38598d3056238aa8f3147c5ba17f7fc5",
						"blockNumber": 27505638,
						"data": "0x0000000000000000000000000000000000000000000000000000000000000001",
						"index": 13,
						"topics": [
							"0xa65fb05c5808f5f389d72edeaf719ce38f4cc55c1f69ca3cbfb31c21501caa07",
							"0x3f6f37c65c5e3a9e40e27cddc024188376d14b08fc69ef2df1d6921060d5004a"
						],
						"transactionHash": "0x9943e0892099dde175fc765e92e9d15f2151f9f96a5f9d32813fd704dbe126e2",
						"transactionIndex": 2
					},
					{
						"address": "0x04678247aC000d74768E5CAa72a221A0a7C2Ae44",
						"blockHash": "0x5aa625f1b8be99cafa5e1391fc4af91a38598d3056238aa8f3147c5ba17f7fc5",
						"blockNumber": 27505638,
						"data": "0x",
						"index": 14,
						"topics": [
							"0x4383d976757d67ca920616be0b6430a681ea9d3dcce8d6d61d4603ca4a9bff63",
							"0x3f6f37c65c5e3a9e40e27cddc024188376d14b08fc69ef2df1d6921060d5004a"
						],
						"transactionHash": "0x9943e0892099dde175fc765e92e9d15f2151f9f96a5f9d32813fd704dbe126e2",
						"transactionIndex": 2
					}
				],
				"logsBloom": "0x00000000000010000000000000080004000000000000000000000000000000000000000000000000000000000000000000000000020000000000000000000000000000000000200000000100020000000000000000000000040000000000000000000000000000000000000000000000000000000820080000000000000000000000000000400000000000000000000000000000000000000000004000000000000000800000000400000000000000000200000080000000000000000004000000000000000000000000000000000008000000000000100000000008000000000000000000000008000000000000000200000000000000000000000008000000",
				"status": 1,
				"to": "0x04678247aC000d74768E5CAa72a221A0a7C2Ae44"
			},
			"metadata": "{\"compiler\":{\"version\":\"0.8.17+commit.8df45f5f\"},\"language\":\"Solidity\",\"output\":{\"abi\":[{\"inputs\":[{\"internalType\":\"address\",\"name\":\"dao\",\"type\":\"address\"}],\"stateMutability\":\"nonpayable\",\"type\":\"constructor\"},{\"inputs\":[{\"internalType\":\"address\",\"name\":\"ua\",\"type\":\"address\",\"indexed\":true},{\"internalType\":\"address\",\"name\":\"oracle\",\"type\":\"address\",\"indexed\":false},{\"internalType\":\"address\",\"name\":\"relayer\",\"type\":\"address\",\"indexed\":false}],\"type\":\"event\",\"name\":\"AppConfigUpdated\",\"anonymous\":false},{\"inputs\":[{\"internalType\":\"address\",\"name\":\"oracle\",\"type\":\"address\",\"indexed\":false},{\"internalType\":\"address\",\"name\":\"relayer\",\"type\":\"address\",\"indexed\":false}],\"type\":\"event\",\"name\":\"DefaultConfigUpdated\",\"anonymous\":false},{\"inputs\":[{\"internalType\":\"bytes32\",\"name\":\"msgHash\",\"type\":\"bytes32\",\"indexed\":true},{\"internalType\":\"bytes32\",\"name\":\"root\",\"type\":\"bytes32\",\"indexed\":false},{\"internalType\":\"struct Message\",\"name\":\"message\",\"type\":\"tuple\",\"components\":[{\"internalType\":\"address\",\"name\":\"channel\",\"type\":\"address\"},{\"internalType\":\"uint256\",\"name\":\"index\",\"type\":\"uint256\"},{\"internalType\":\"uint256\",\"name\":\"fromChainId\",\"type\":\"uint256\"},{\"internalType\":\"address\",\"name\":\"from\",\"type\":\"address\"},{\"internalType\":\"uint256\",\"name\":\"toChainId\",\"type\":\"uint256\"},{\"internalType\":\"address\",\"name\":\"to\",\"type\":\"address\"},{\"internalType\":\"uint256\",\"name\":\"gasLimit\",\"type\":\"uint256\"},{\"internalType\":\"bytes\",\"name\":\"encoded\",\"type\":\"bytes\"}],\"indexed\":false}],\"type\":\"event\",\"name\":\"MessageAccepted\",\"anonymous\":false},{\"inputs\":[{\"internalType\":\"bytes32\",\"name\":\"msgHash\",\"type\":\"bytes32\",\"indexed\":true},{\"internalType\":\"address\",\"name\":\"oracle\",\"type\":\"address\",\"indexed\":true},{\"internalType\":\"address\",\"name\":\"relayer\",\"type\":\"address\",\"indexed\":true},{\"internalType\":\"uint256\",\"name\":\"oracleFee\",\"type\":\"uint256\",\"indexed\":false},{\"internalType\":\"uint256\",\"name\":\"relayerFee\",\"type\":\"uint256\",\"indexed\":false}],\"type\":\"event\",\"name\":\"MessageAssigned\",\"anonymous\":false},{\"inputs\":[{\"internalType\":\"bytes32\",\"name\":\"msgHash\",\"type\":\"bytes32\",\"indexed\":true},{\"internalType\":\"bool\",\"name\":\"dispatchResult\",\"type\":\"bool\",\"indexed\":false}],\"type\":\"event\",\"name\":\"MessageDispatched\",\"anonymous\":false},{\"inputs\":[{\"internalType\":\"address\",\"name\":\"oldSetter\",\"type\":\"address\",\"indexed\":true},{\"internalType\":\"address\",\"name\":\"newSetter\",\"type\":\"address\",\"indexed\":true}],\"type\":\"event\",\"name\":\"SetterChanged\",\"anonymous\":false},{\"inputs\":[],\"stateMutability\":\"view\",\"type\":\"function\",\"name\":\"LOCAL_CHAINID\",\"outputs\":[{\"internalType\":\"uint256\",\"name\":\"chainId\",\"type\":\"uint256\"}]},{\"inputs\":[{\"internalType\":\"address\",\"name\":\"newSetter\",\"type\":\"address\"}],\"stateMutability\":\"nonpayable\",\"type\":\"function\",\"name\":\"changeSetter\"},{\"inputs\":[],\"stateMutability\":\"view\",\"type\":\"function\",\"name\":\"defaultUC\",\"outputs\":[{\"internalType\":\"address\",\"name\":\"oracle\",\"type\":\"address\"},{\"internalType\":\"address\",\"name\":\"relayer\",\"type\":\"address\"}]},{\"inputs\":[{\"internalType\":\"bytes32\",\"name\":\"\",\"type\":\"bytes32\"}],\"stateMutability\":\"view\",\"type\":\"function\",\"name\":\"dones\",\"outputs\":[{\"internalType\":\"bool\",\"name\":\"\",\"type\":\"bool\"}]},{\"inputs\":[{\"internalType\":\"uint256\",\"name\":\"toChainId\",\"type\":\"uint256\"},{\"internalType\":\"address\",\"name\":\"ua\",\"type\":\"address\"},{\"internalType\":\"uint256\",\"name\":\"gasLimit\",\"type\":\"uint256\"},{\"internalType\":\"bytes\",\"name\":\"encoded\",\"type\":\"bytes\"},{\"internalType\":\"bytes\",\"name\":\"\",\"type\":\"bytes\"}],\"stateMutability\":\"view\",\"type\":\"function\",\"name\":\"fee\",\"outputs\":[{\"internalType\":\"uint256\",\"name\":\"\",\"type\":\"uint256\"}]},{\"inputs\":[{\"internalType\":\"address\",\"name\":\"ua\",\"type\":\"address\"}],\"stateMutability\":\"view\",\"type\":\"function\",\"name\":\"getAppConfig\",\"outputs\":[{\"internalType\":\"struct UC\",\"name\":\"\",\"type\":\"tuple\",\"components\":[{\"internalType\":\"address\",\"name\":\"oracle\",\"type\":\"address\"},{\"internalType\":\"address\",\"name\":\"relayer\",\"type\":\"address\"}]}]},{\"inputs\":[],\"stateMutability\":\"view\",\"type\":\"function\",\"name\":\"imtBranch\",\"outputs\":[{\"internalType\":\"bytes32[32]\",\"name\":\"\",\"type\":\"bytes32[32]\"}]},{\"inputs\":[],\"stateMutability\":\"view\",\"type\":\"function\",\"name\":\"messageCount\",\"outputs\":[{\"internalType\":\"uint256\",\"name\":\"\",\"type\":\"uint256\"}]},{\"inputs\":[],\"stateMutability\":\"view\",\"type\":\"function\",\"name\":\"prove\",\"outputs\":[{\"internalType\":\"bytes32[32]\",\"name\":\"\",\"type\":\"bytes32[32]\"}]},{\"inputs\":[{\"internalType\":\"struct Message\",\"name\":\"message\",\"type\":\"tuple\",\"components\":[{\"internalType\":\"address\",\"name\":\"channel\",\"type\":\"address\"},{\"internalType\":\"uint256\",\"name\":\"index\",\"type\":\"uint256\"},{\"internalType\":\"uint256\",\"name\":\"fromChainId\",\"type\":\"uint256\"},{\"internalType\":\"address\",\"name\":\"from\",\"type\":\"address\"},{\"internalType\":\"uint256\",\"name\":\"toChainId\",\"type\":\"uint256\"},{\"internalType\":\"address\",\"name\":\"to\",\"type\":\"address\"},{\"internalType\":\"uint256\",\"name\":\"gasLimit\",\"type\":\"uint256\"},{\"internalType\":\"bytes\",\"name\":\"encoded\",\"type\":\"bytes\"}]},{\"internalType\":\"bytes\",\"name\":\"proof\",\"type\":\"bytes\"}],\"stateMutability\":\"payable\",\"type\":\"function\",\"name\":\"recv\",\"outputs\":[{\"internalType\":\"bool\",\"name\":\"dispatchResult\",\"type\":\"bool\"}]},{\"inputs\":[],\"stateMutability\":\"view\",\"type\":\"function\",\"name\":\"root\",\"outputs\":[{\"internalType\":\"bytes32\",\"name\":\"\",\"type\":\"bytes32\"}]},{\"inputs\":[{\"internalType\":\"uint256\",\"name\":\"toChainId\",\"type\":\"uint256\"},{\"internalType\":\"address\",\"name\":\"to\",\"type\":\"address\"},{\"internalType\":\"uint256\",\"name\":\"gasLimit\",\"type\":\"uint256\"},{\"internalType\":\"bytes\",\"name\":\"encoded\",\"type\":\"bytes\"},{\"internalType\":\"address\",\"name\":\"refund\",\"type\":\"address\"},{\"internalType\":\"bytes\",\"name\":\"\",\"type\":\"bytes\"}],\"stateMutability\":\"payable\",\"type\":\"function\",\"name\":\"send\",\"outputs\":[{\"internalType\":\"bytes32\",\"name\":\"\",\"type\":\"bytes32\"}]},{\"inputs\":[{\"internalType\":\"address\",\"name\":\"oracle\",\"type\":\"address\"},{\"internalType\":\"address\",\"name\":\"relayer\",\"type\":\"address\"}],\"stateMutability\":\"nonpayable\",\"type\":\"function\",\"name\":\"setAppConfig\"},{\"inputs\":[{\"internalType\":\"address\",\"name\":\"oracle\",\"type\":\"address\"},{\"internalType\":\"address\",\"name\":\"relayer\",\"type\":\"address\"}],\"stateMutability\":\"nonpayable\",\"type\":\"function\",\"name\":\"setDefaultConfig\"},{\"inputs\":[],\"stateMutability\":\"view\",\"type\":\"function\",\"name\":\"setter\",\"outputs\":[{\"internalType\":\"address\",\"name\":\"\",\"type\":\"address\"}]},{\"inputs\":[{\"internalType\":\"address\",\"name\":\"\",\"type\":\"address\"}],\"stateMutability\":\"view\",\"type\":\"function\",\"name\":\"ucOf\",\"outputs\":[{\"internalType\":\"address\",\"name\":\"oracle\",\"type\":\"address\"},{\"internalType\":\"address\",\"name\":\"relayer\",\"type\":\"address\"}]},{\"inputs\":[],\"stateMutability\":\"pure\",\"type\":\"function\",\"name\":\"version\",\"outputs\":[{\"internalType\":\"string\",\"name\":\"\",\"type\":\"string\"}]}],\"devdoc\":{\"kind\":\"dev\",\"methods\":{\"LOCAL_CHAINID()\":{\"details\":\"Fetch local chain id.\",\"returns\":{\"chainId\":\"Local chain id.\"}},\"changeSetter(address)\":{\"details\":\"Change setter.\",\"params\":{\"newSetter\":\"New setter.\"}},\"fee(uint256,address,uint256,bytes,bytes)\":{\"params\":{\"encoded\":\"The calldata which encoded by ABI Encoding.\",\"gasLimit\":\"Gas limit for destination user application used.\"}},\"getAppConfig(address)\":{\"details\":\"Fetch user application config.\",\"params\":{\"ua\":\"User application contract address.\"},\"returns\":{\"_0\":\"user application config.\"}},\"imtBranch()\":{\"details\":\"Fetch the branch of incremental merkle tree.\"},\"messageCount()\":{\"details\":\"Fetch the messages count of incremental merkle tree.\"},\"prove()\":{\"details\":\"Fetch the latest message proof\"},\"recv((address,uint256,uint256,address,uint256,address,uint256,bytes),bytes)\":{\"details\":\"Recv verified message from Channel and dispatch to destination user application address.\",\"params\":{\"message\":\"Verified receive message info.\",\"proof\":\"Message proof of this message.\"},\"returns\":{\"dispatchResult\":\"Result of the message dispatch.\"}},\"send(uint256,address,uint256,bytes,address,bytes)\":{\"details\":\"Send a cross-chain message over the endpoint.\",\"params\":{\"encoded\":\"The calldata which encoded by ABI Encoding.\",\"gasLimit\":\"Gas limit for destination user application used.\",\"refund\":\"Return extra fee to refund address.\",\"to\":\"User application contract address which receive the message.\",\"toChainId\":\"The Message destination chain id.\"}},\"setAppConfig(address,address)\":{\"params\":{\"oracle\":\"Oracle which user application.\",\"relayer\":\"Relayer which user application choose.\"}},\"setDefaultConfig(address,address)\":{\"details\":\"Set default user config for all user application.\",\"params\":{\"oracle\":\"Default oracle.\",\"relayer\":\"Default relayer.\"}}},\"version\":1},\"userdoc\":{\"kind\":\"user\",\"methods\":{\"changeSetter(address)\":{\"notice\":\"Only current setter could call.\"},\"getAppConfig(address)\":{\"notice\":\"If user application has not configured, then the default user config is used.\"},\"recv((address,uint256,uint256,address,uint256,address,uint256,bytes),bytes)\":{\"notice\":\"Only channel could call this function.\"},\"send(uint256,address,uint256,bytes,address,bytes)\":{\"notice\":\"follow https://eips.ethereum.org/EIPS/eip-5750\"},\"setAppConfig(address,address)\":{\"notice\":\"Set user application config.\"},\"setDefaultConfig(address,address)\":{\"notice\":\"Only setter could call.\"}},\"version\":1}},\"settings\":{\"remappings\":[\"@darwinia-msgport/=lib/darwinia-msgport/\",\"@openzeppelin/contracts/=lib/openzeppelin-contracts/contracts/\",\"@openzeppelin/contracts@4.9.2/=lib/openzeppelin-contracts/contracts/\",\"@sphinx-labs/contracts/=lib/sphinx/packages/contracts/contracts/foundry/\",\"ORMP/=lib/ORMP/\",\"subapi/=lib/subapi/\"],\"optimizer\":{\"enabled\":true,\"runs\":999999},\"metadata\":{\"bytecodeHash\":\"ipfs\"},\"compilationTarget\":{\"lib/ORMP/src/ORMP.sol\":\"ORMP\"},\"evmVersion\":\"london\",\"libraries\":{}},\"sources\":{\"lib/ORMP/src/Channel.sol\":{\"keccak256\":\"0x286a6af99428230c2f67181181d52d63a647ee2d896c5855300eda37c52b2dbf\",\"urls\":[\"bzz-raw://84326f7649e0c727e1e5836c1f50e603fdc4811b0fd94b2ee5c682e10700f9ce\",\"dweb:/ipfs/Qmb32nTAUsyStw3dqynijZEaA9UC4ig6xoPBjhvdQEVDdn\"],\"license\":\"GPL-3.0\"},\"lib/ORMP/src/Common.sol\":{\"keccak256\":\"0x832de8c9469de78d3133d42716444007d3fa2aa2fe88a6fcbb81d119d8ffbd1d\",\"urls\":[\"bzz-raw://a0447d4aaebe147c97df506a8ae7801e13b3af6cc0c9ee31bc896a7b40e463ab\",\"dweb:/ipfs/QmTn2bjyJMsj9uV613Usy3ueyjFZ7Ugfo4ovR8UkPpMhX4\"],\"license\":\"GPL-3.0\"},\"lib/ORMP/src/ORMP.sol\":{\"keccak256\":\"0x952e7ad4b58f70d4e035f24c92ed4edecd1f89fd6da8bbfc05f627cf6ac16d3d\",\"urls\":[\"bzz-raw://0fdfb9d153015dd2f089b099cff5737ea3118a3aa3a3d72715d8ea1f0da2804f\",\"dweb:/ipfs/QmPdy8ia167eUG7CZkREZGqzDoxLs4h1xqUoLaK2UGxM6C\"],\"license\":\"GPL-3.0\"},\"lib/ORMP/src/UserConfig.sol\":{\"keccak256\":\"0x9d2e059b8e05cebe34733475fbea89e0f103fc8f7d909aa79186ed65837da6e0\",\"urls\":[\"bzz-raw://d4e465d388fe332f755e426d12018c09d727782f195d8e734776a2bff74cab38\",\"dweb:/ipfs/QmQp7wkLHMvYL5841uCDS1zhifsaJg4r2Wxty91b19bEcK\"],\"license\":\"GPL-3.0\"},\"lib/ORMP/src/imt/IncrementalMerkleTree.sol\":{\"keccak256\":\"0x535228355f8bd4339f42aa3dfe3cebcbdaad7a92704c4e3eeb0982dce8acf246\",\"urls\":[\"bzz-raw://9830ca0eb4837abdaaba548ea20fe14c67e23a392e09aaaa57b4032f9b81c49f\",\"dweb:/ipfs/QmYDw8c8zgLhxhxt3heCGJu7rYSgmEwKFjMfWrbJNcyPWj\"],\"license\":\"MIT OR Apache-2.0\"},\"lib/ORMP/src/interfaces/IOracle.sol\":{\"keccak256\":\"0xb1299974c86446972355bebb7c95697139c67f1731b1c1fa59a07c8cc575f527\",\"urls\":[\"bzz-raw://c96ee956d4731fb7bc0aa67f2783afa6ba2179fc1ef4419f2f70f727c9d7a7f1\",\"dweb:/ipfs/QmbqaqnRRHb2k25bzsvmapugHaTu1gDESGxk7MU5vgrPBo\"],\"license\":\"GPL-3.0\"},\"lib/ORMP/src/interfaces/IRelayer.sol\":{\"keccak256\":\"0xb2a4fc032746f072405210a118298000cda8634ddf4bc02b33f976be4eaf7209\",\"urls\":[\"bzz-raw://5627a3007ff8748f5be505de61d7cca46a2466ece354093f2958f3e2daab5445\",\"dweb:/ipfs/Qmb5Gefdqo5ruQX1id6hgpVDKiM9Vyy6wLurxDtC5377Lt\"],\"license\":\"GPL-3.0\"},\"lib/ORMP/src/interfaces/IVerifier.sol\":{\"keccak256\":\"0x60ad4dbeb54c04aa1c389a2dab7c9bca361eb2df245b3a29f0851be697876099\",\"urls\":[\"bzz-raw://57f1c8949abccaef95ab207257bfcf7b12f19756e0c90184ad39a8bdb2dc559a\",\"dweb:/ipfs/Qmd1LBiTn3nzfzhGHmdM2YdbWLUkca6wZfPBo1rWqPcoau\"],\"license\":\"GPL-3.0\"},\"lib/ORMP/src/security/ExcessivelySafeCall.sol\":{\"keccak256\":\"0x586361e0b312522e1b4dfbbd7a4965fd0b36642660c16cba3a733ee66f388508\",\"urls\":[\"bzz-raw://b0d67666dc6b468c91589b8d00f3f519c0904e40313631e08102058135681d68\",\"dweb:/ipfs/QmQHgut1NwT3Dr68fLtJzGwcTmPU9CxJZYF7euDfz2VGNL\"],\"license\":\"MIT OR Apache-2.0\"},\"lib/ORMP/src/security/ReentrancyGuard.sol\":{\"keccak256\":\"0xbb376a44d276cf677debb795e823759f563a26bd3805e413f7b12ee38e3e13be\",\"urls\":[\"bzz-raw://0eb116fec82b4b1fd0a9ebd259b375b06f5aaea104426c9219fda9d3abb8e311\",\"dweb:/ipfs/QmfMH7vZHdvY6qSb2hxRvzuSMrmXq17FzBx8PJzn4qFJZQ\"],\"license\":\"MIT\"}},\"version\":1}",
			"args": [
				"0xD70A2e6eACbdeDA77a5d4bBAE3bC70239A0e088f"
			],
			"bytecode": "0x60a0604052600160008190558055306080523480156200001e57600080fd5b50604051620025ef380380620025ef83398101604081905262000041916200008b565b600280546001600160a01b0319166001600160a01b03929092169190911790557f27ae5ba08d7291c96c8cbddcc148bf48a6d68c7974b94356f53754ef6171d757600655620000bd565b6000602082840312156200009e57600080fd5b81516001600160a01b0381168114620000b657600080fd5b9392505050565b608051612516620000d96000396000610c6201526125166000f3fe60806040526004361061010e5760003560e01c80634ea59979116100a55780638b22909111610074578063ebf0c71711610059578063ebf0c717146103bb578063ee6ad167146103d1578063f67c907c146103f457600080fd5b80638b22909114610388578063b0ff5e72146103a857600080fd5b80634ea59979146102f457806352720be41461031457806354fd4d50146103295780635e26462c1461037557600080fd5b80633f3108f7116100e15780633f3108f7146101f8578063413422491461024a57806345152ae31461029e5780634872824f146102c057600080fd5b80630f988a73146101135780631c2b2da6146101355780633c50e178146101685780633dbcc8d1146101e3575b600080fd5b34801561011f57600080fd5b5061013361012e366004611be2565b610424565b005b34801561014157600080fd5b50610155610150366004611c4d565b610521565b6040519081526020015b60405180910390f35b34801561017457600080fd5b506101b6610183366004611be2565b6005602052600090815260409020805460019091015473ffffffffffffffffffffffffffffffffffffffff918216911682565b6040805173ffffffffffffffffffffffffffffffffffffffff93841681529290911660208301520161015f565b3480156101ef57600080fd5b50602754610155565b34801561020457600080fd5b506002546102259073ffffffffffffffffffffffffffffffffffffffff1681565b60405173ffffffffffffffffffffffffffffffffffffffff909116815260200161015f565b34801561025657600080fd5b5061026a610265366004611be2565b610672565b60408051825173ffffffffffffffffffffffffffffffffffffffff908116825260209384015116928101929092520161015f565b3480156102aa57600080fd5b506102b3610729565b60405161015f9190611ce1565b3480156102cc57600080fd5b506003546004546101b69173ffffffffffffffffffffffffffffffffffffffff908116911682565b34801561030057600080fd5b5061013361030f366004611d17565b610740565b34801561032057600080fd5b506102b3610863565b34801561033557600080fd5b50604080518082018252600581527f322e302e300000000000000000000000000000000000000000000000000000006020820152905161015f9190611db8565b610155610383366004611dcb565b61089f565b34801561039457600080fd5b506101336103a3366004611d17565b610948565b3480156103b457600080fd5b5046610155565b3480156103c757600080fd5b5061015560065481565b6103e46103df366004611e72565b610a07565b604051901515815260200161015f565b34801561040057600080fd5b506103e461040f366004611ee4565b60286020526000908152604090205460ff1681565b60025473ffffffffffffffffffffffffffffffffffffffff1633146104aa576040517f08c379a000000000000000000000000000000000000000000000000000000000815260206004820152600560248201527f216175746800000000000000000000000000000000000000000000000000000060448201526064015b60405180910390fd5b6002805473ffffffffffffffffffffffffffffffffffffffff8381167fffffffffffffffffffffffff0000000000000000000000000000000000000000831681179093556040519116919082907fb0999394a8202229d1e14c6290230863233f18473f7504b3a7b1a27f9b014c9d90600090a35050565b60008061052d88610672565b90506000816020015173ffffffffffffffffffffffffffffffffffffffff166353179a7c8b8b8b8b8b6040518663ffffffff1660e01b8152600401610576959493929190611f46565b602060405180830381865afa158015610593573d6000803e3d6000fd5b505050506040513d601f19601f820116820180604052508101906105b79190611f82565b82516040517fa1dbf432000000000000000000000000000000000000000000000000000000008152600481018d905273ffffffffffffffffffffffffffffffffffffffff8c811660248301529293506000929091169063a1dbf43290604401602060405180830381865afa158015610633573d6000803e3d6000fd5b505050506040513d601f19601f820116820180604052508101906106579190611f82565b90506106638183611fca565b9b9a5050505050505050505050565b6040805180820182526000808252602080830182905273ffffffffffffffffffffffffffffffffffffffff858116835260058252918490208451808601909552805483168552600101549091169083018190529091906106eb5760045473ffffffffffffffffffffffffffffffffffffffff1660208201525b805173ffffffffffffffffffffffffffffffffffffffff166107235760035473ffffffffffffffffffffffffffffffffffffffff1681525b92915050565b610731611b9a565b61073b6007610ae4565b905090565b60025473ffffffffffffffffffffffffffffffffffffffff1633146107c1576040517f08c379a000000000000000000000000000000000000000000000000000000000815260206004820152600560248201527f216175746800000000000000000000000000000000000000000000000000000060448201526064016104a1565b60408051808201825273ffffffffffffffffffffffffffffffffffffffff8481168083529084166020928301819052600380547fffffffffffffffffffffffff0000000000000000000000000000000000000000908116841790915560048054909116821790558351918252918101919091527f504f152883e6158786ddfcce63f4d4d95ce8e404b1f6e6365a06f63849b7cb95910160405180910390a15050565b61086b611b9a565b604080516104008101918290529060079060209082845b815481526020019060010190808311610882575050505050905090565b600060016000541461090d576040517f08c379a000000000000000000000000000000000000000000000000000000000815260206004820152601060248201527f2173656e642d7265656e7472616e63790000000000000000000000000000000060448201526064016104a1565b600260009081553390610924828c8c8c8c8c610bda565b90506109358287838e8d8d8d610d9d565b60016000559a9950505050505050505050565b60408051808201825273ffffffffffffffffffffffffffffffffffffffff848116808352848216602080850182815233600081815260058452889020965187549087167fffffffffffffffffffffffff000000000000000000000000000000000000000091821617885591516001909701805497909616969091169590951790935584519182529181019190915290917f86b44d92ad94c11b25d0f08d0f55e8e235b4d165e62e541c02e8ee19f551c97b910160405180910390a25050565b60006001805414610a74576040517f08c379a000000000000000000000000000000000000000000000000000000000815260206004820152601060248201527f21726563762d7265656e7472616e63790000000000000000000000000000000060448201526064016104a1565b60026001556000610a86858585610e8d565b9050610a9a610a94866120e1565b82611155565b9150807f62b1dc20fd6f1518626da5b6f9897e8cd4ebadbad071bb66dc96a37c970087a883604051610ad0911515815260200190565b60405180910390a250600180559392505050565b610aec611b9a565b600060018360200154610aff9190612183565b6040805161040081019182905291925060009190859060209082845b815481526020019060010190808311610b1b57505050505090506000610b3f6111df565b905060005b6020811015610bd157600184821c811690819003610b8f57838260208110610b6e57610b6e612196565b6020020151868360208110610b8557610b85612196565b6020020152610bbe565b828260208110610ba157610ba1612196565b6020020151868360208110610bb857610bb8612196565b60200201525b5080610bc9816121c5565b915050610b44565b50505050919050565b6000468603610c45576040517f08c379a000000000000000000000000000000000000000000000000000000000815260206004820152600c60248201527f2163726f73732d636861696e000000000000000000000000000000000000000060448201526064016104a1565b6000610c5060275490565b905060006040518061010001604052807f000000000000000000000000000000000000000000000000000000000000000073ffffffffffffffffffffffffffffffffffffffff168152602001838152602001610ca94690565b81526020018a73ffffffffffffffffffffffffffffffffffffffff1681526020018981526020018873ffffffffffffffffffffffffffffffffffffffff16815260200187815260200186868080601f016020809104026020016040519081016040528093929190818152602001838380828437600092018290525093909452509293509150610d399050826116a0565b9050610d466007826116d0565b610d506007611814565b600681905560405182917f327110434bca326d1f70236295f59c8b472ebc683a6549ca9254697564fec4a591610d889190869061227e565b60405180910390a29998505050505050505050565b6000610da888610672565b90506000610dbe8260200151878b888888611827565b90506000610dd18360000151888c6118c3565b9050826020015173ffffffffffffffffffffffffffffffffffffffff16836000015173ffffffffffffffffffffffffffffffffffffffff16897ff7e134438bf3052b95eaa2f90f4177932297d80eb36186624c2f366cb8944ecf8486604051610e44929190918252602082015260400190565b60405180910390a4610e568183611fca565b341115610e81576000610e698284611fca565b610e739034612183565b9050610e7f8a82611973565b505b50505050505050505050565b600080610ea361026560c0870160a08801611be2565b602081015190915073ffffffffffffffffffffffffffffffffffffffff163314610f29576040517f08c379a000000000000000000000000000000000000000000000000000000000815260206004820152600560248201527f216175746800000000000000000000000000000000000000000000000000000060448201526064016104a1565b6000610f3c610f37876120e1565b6116a0565b9050816000015173ffffffffffffffffffffffffffffffffffffffff1663094f87c587604001358388886040518563ffffffff1660e01b8152600401610f859493929190612297565b602060405180830381865afa158015610fa2573d6000803e3d6000fd5b505050506040513d601f19601f82011682018060405250810190610fc691906122c1565b61102c576040517f08c379a000000000000000000000000000000000000000000000000000000000815260206004820152600660248201527f2170726f6f66000000000000000000000000000000000000000000000000000060448201526064016104a1565b60808601354614611099576040517f08c379a000000000000000000000000000000000000000000000000000000000815260206004820152600a60248201527f21746f436861696e49640000000000000000000000000000000000000000000060448201526064016104a1565b60008181526028602052604090205460ff1615611114576040517f08c379a00000000000000000000000000000000000000000000000000000000081526004016104a19060208082526004908201527f646f6e6500000000000000000000000000000000000000000000000000000000604082015260600190565b600081815260286020526040902080547fffffffffffffffffffffffffffffffffffffffffffffffffffffffffffffff001660011790559150509392505050565b60006111d78360c001513460008660e00151868860400151896060015160405160200161118594939291906122e3565b604080517fffffffffffffffffffffffffffffffffffffffffffffffffffffffffffffffe081840301815291905260a088015173ffffffffffffffffffffffffffffffffffffffff1693929190611a3d565b509392505050565b6111e7611b9a565b600081527fad3228b676f7d3cd4284a5443f17f1962b36e491b30a40b2405849e597ba5fb560208201527fb4c11951957c6f8f642c4af61cd6b24640fec6dc7fc607ee8206a99e92410d3060408201527f21ddb9a356815c3fac1026b6dec5df3124afbadb485c9ba5a3e3398a04b7ba8560608201527fe58769b32a1beaf1ea27375a44095a0d1fb664ce2dd358e7fcbfb78c26a1934460808201527f0eb01ebfc9ed27500cd4dfc979272d1f0913cc9f66540d7e8005811109e1cf2d60a08201527f887c22bd8750d34016ac3c66b5ff102dacdd73f6b014e710b51e8022af9a196860c08201527fffd70157e48063fc33c97a050f7f640233bf646cc98d9524c6b92bcf3ab56f8360e08201527f9867cc5f7f196b93bae1e27e6320742445d290f2263827498b54fec539f756af6101008201527fcefad4e508c098b9a7e1d8feb19955fb02ba9675585078710969d3440f5054e06101208201527ff9dc3e7fe016e050eff260334f18a5d4fe391d82092319f5964f2e2eb7c1c3a56101408201527ff8b13a49e282f609c317a833fb8d976d11517c571d1221a265d25af778ecf8926101608201527f3490c6ceeb450aecdc82e28293031d10c7d73bf85e57bf041a97360aa2c5d99c6101808201527fc1df82d9c4b87413eae2ef048f94b4d3554cea73d92b0f7af96e0271c691e2bb6101a08201527f5c67add7c6caf302256adedf7ab114da0acfe870d449a3a489f781d659e8becc6101c08201527fda7bce9f4e8618b6bd2f4132ce798cdc7a60e7e1460a7299e3c6342a579626d26101e08201527f2733e50f526ec2fa19a22b31e8ed50f23cd1fdf94c9154ed3a7609a2f1ff981f6102008201527fe1d3b5c807b281e4683cc6d6315cf95b9ade8641defcb32372f1c126e398ef7a6102208201527f5a2dce0a8a7f68bb74560f8f71837c2c2ebbcbf7fffb42ae1896f13f7c7479a06102408201527fb46a28b6f55540f89444f63de0378e3d121be09e06cc9ded1c20e65876d36aa06102608201527fc65e9645644786b620e2dd2ad648ddfcbf4a7e5b1a3a4ecfe7f64667a3f0b7e26102808201527ff4418588ed35a2458cffeb39b93d26f18d2ab13bdce6aee58e7b99359ec2dfd96102a08201527f5a9c16dc00d6ef18b7933a6f8dc65ccb55667138776f7dea101070dc8796e3776102c08201527f4df84f40ae0c8229d0d6069e5c8f39a7c299677a09d367fc7b05e3bc380ee6526102e08201527fcdc72595f74c7b1043d0e1ffbab734648c838dfb0527d971b602bc216c9619ef6103008201527f0abf5ac974a1ed57f4050aa510dd9c74f508277b39d7973bb2dfccc5eeb0618d6103208201527fb8cd74046ff337f0a7bf2c8e03e10f642c1886798d71806ab1e888d9e5ee87d06103408201527f838c5655cb21c6cb83313b5a631175dff4963772cce9108188b34ac87c81c41e6103608201527f662ee4dd2dd7b2bc707961b1e646c4047669dcb6584f0d8d770daf5d7e7deb2e6103808201527f388ab20e2573d171a88108e79d820e98f26c0b84aa8b2f4aa4968dbb818ea3226103a08201527f93237c50ba75ee485f4c22adf2f741400bdf8d6a9cc7df7ecae576221665d7356103c08201527f8448818bb4ae4562849e949e17ac16e0be16688e156b5cf15e098c627c0056a96103e082015290565b6000816040516020016116b39190612337565b604051602081830303815290604052805190602001209050919050565b60016116de6020600261246a565b6116e89190612183565b826020015410611754576040517f08c379a000000000000000000000000000000000000000000000000000000000815260206004820152601060248201527f6d65726b6c6520747265652066756c6c0000000000000000000000000000000060448201526064016104a1565b60018260200160008282546117699190611fca565b9091555050602082015460005b602081101561180657816001166001036117a5578284826020811061179d5761179d612196565b015550505050565b8381602081106117b7576117b7612196565b015460408051602081019290925281018490526060016040516020818303038152906040528051906020012092506002826117f29190612476565b9150806117fe816121c5565b915050611776565b5061180f6124b1565b505050565b6000610723826118226111df565b611ac8565b6000808773ffffffffffffffffffffffffffffffffffffffff166353179a7c88888888886040518663ffffffff1660e01b815260040161186b959493929190611f46565b602060405180830381865afa158015611888573d6000803e3d6000fd5b505050506040513d601f19601f820116820180604052508101906118ac9190611f82565b90506118b88882611973565b979650505050505050565b6040517fa1dbf4320000000000000000000000000000000000000000000000000000000081526004810183905273ffffffffffffffffffffffffffffffffffffffff8281166024830152600091829186169063a1dbf43290604401602060405180830381865afa15801561193b573d6000803e3d6000fd5b505050506040513d601f19601f8201168201806040525081019061195f9190611f82565b905061196b8582611973565b949350505050565b60008273ffffffffffffffffffffffffffffffffffffffff168260405160006040518083038185875af1925050503d80600081146119cd576040519150601f19603f3d011682016040523d82523d6000602084013e6119d2565b606091505b505090508061180f576040517f08c379a000000000000000000000000000000000000000000000000000000000815260206004820152600560248201527f2173656e6400000000000000000000000000000000000000000000000000000060448201526064016104a1565b6000606060008060008661ffff1667ffffffffffffffff811115611a6357611a63611fdd565b6040519080825280601f01601f191660200182016040528015611a8d576020820181803683370190505b5090506000808751602089018b8e8ef191503d925086831115611aae578692505b828152826000602083013e90999098509650505050505050565b6020820154600090815b6020811015611b9257600182821c166000868360208110611af557611af5612196565b0154905081600103611b32576040805160208101839052908101869052606001604051602081830303815290604052805190602001209450611b7d565b84868460208110611b4557611b45612196565b6020020151604051602001611b64929190918252602082015260400190565b6040516020818303038152906040528051906020012094505b50508080611b8a906121c5565b915050611ad2565b505092915050565b6040518061040001604052806020906020820280368337509192915050565b803573ffffffffffffffffffffffffffffffffffffffff81168114611bdd57600080fd5b919050565b600060208284031215611bf457600080fd5b611bfd82611bb9565b9392505050565b60008083601f840112611c1657600080fd5b50813567ffffffffffffffff811115611c2e57600080fd5b602083019150836020828501011115611c4657600080fd5b9250929050565b600080600080600080600060a0888a031215611c6857600080fd5b87359650611c7860208901611bb9565b955060408801359450606088013567ffffffffffffffff80821115611c9c57600080fd5b611ca88b838c01611c04565b909650945060808a0135915080821115611cc157600080fd5b50611cce8a828b01611c04565b989b979a50959850939692959293505050565b6104008101818360005b6020808210611cfa5750611d0e565b825184529283019290910190600101611ceb565b50505092915050565b60008060408385031215611d2a57600080fd5b611d3383611bb9565b9150611d4160208401611bb9565b90509250929050565b60005b83811015611d65578181015183820152602001611d4d565b50506000910152565b60008151808452611d86816020860160208601611d4a565b601f017fffffffffffffffffffffffffffffffffffffffffffffffffffffffffffffffe0169290920160200192915050565b602081526000611bfd6020830184611d6e565b60008060008060008060008060c0898b031215611de757600080fd5b88359750611df760208a01611bb9565b965060408901359550606089013567ffffffffffffffff80821115611e1b57600080fd5b611e278c838d01611c04565b9097509550859150611e3b60808c01611bb9565b945060a08b0135915080821115611e5157600080fd5b50611e5e8b828c01611c04565b999c989b5096995094979396929594505050565b600080600060408486031215611e8757600080fd5b833567ffffffffffffffff80821115611e9f57600080fd5b908501906101008288031215611eb457600080fd5b90935060208501359080821115611eca57600080fd5b50611ed786828701611c04565b9497909650939450505050565b600060208284031215611ef657600080fd5b5035919050565b8183528181602085013750600060208284010152600060207fffffffffffffffffffffffffffffffffffffffffffffffffffffffffffffffe0601f840116840101905092915050565b85815273ffffffffffffffffffffffffffffffffffffffff851660208201528360408201526080606082015260006118b8608083018486611efd565b600060208284031215611f9457600080fd5b5051919050565b7f4e487b7100000000000000000000000000000000000000000000000000000000600052601160045260246000fd5b8082018082111561072357610723611f9b565b7f4e487b7100000000000000000000000000000000000000000000000000000000600052604160045260246000fd5b604051610100810167ffffffffffffffff8111828210171561203057612030611fdd565b60405290565b600082601f83011261204757600080fd5b813567ffffffffffffffff8082111561206257612062611fdd565b604051601f83017fffffffffffffffffffffffffffffffffffffffffffffffffffffffffffffffe0908116603f011681019082821181831017156120a8576120a8611fdd565b816040528381528660208588010111156120c157600080fd5b836020870160208301376000602085830101528094505050505092915050565b600061010082360312156120f457600080fd5b6120fc61200c565b61210583611bb9565b8152602083013560208201526040830135604082015261212760608401611bb9565b60608201526080830135608082015261214260a08401611bb9565b60a082015260c083013560c082015260e083013567ffffffffffffffff81111561216b57600080fd5b61217736828601612036565b60e08301525092915050565b8181038181111561072357610723611f9b565b7f4e487b7100000000000000000000000000000000000000000000000000000000600052603260045260246000fd5b60007fffffffffffffffffffffffffffffffffffffffffffffffffffffffffffffffff82036121f6576121f6611f9b565b5060010190565b600061010073ffffffffffffffffffffffffffffffffffffffff8084511685526020840151602086015260408401516040860152806060850151166060860152608084015160808601528060a08501511660a08601525060c083015160c085015260e08301518160e086015261227582860182611d6e565b95945050505050565b82815260406020820152600061196b60408301846121fd565b8481528360208201526060604082015260006122b7606083018486611efd565b9695505050505050565b6000602082840312156122d357600080fd5b81518015158114611bfd57600080fd5b600085516122f5818460208a01611d4a565b9190910193845250602083019190915260601b7fffffffffffffffffffffffffffffffffffffffff000000000000000000000000166040820152605401919050565b602081526000611bfd60208301846121fd565b600181815b808511156123a357817fffffffffffffffffffffffffffffffffffffffffffffffffffffffffffffffff0482111561238957612389611f9b565b8085161561239657918102915b93841c939080029061234f565b509250929050565b6000826123ba57506001610723565b816123c757506000610723565b81600181146123dd57600281146123e757612403565b6001915050610723565b60ff8411156123f8576123f8611f9b565b50506001821b610723565b5060208310610133831016604e8410600b8410161715612426575081810a610723565b612430838361234a565b807fffffffffffffffffffffffffffffffffffffffffffffffffffffffffffffffff0482111561246257612462611f9b565b029392505050565b6000611bfd83836123ab565b6000826124ac577f4e487b7100000000000000000000000000000000000000000000000000000000600052601260045260246000fd5b500490565b7f4e487b7100000000000000000000000000000000000000000000000000000000600052600160045260246000fdfea2646970667358221220e4b3459bef63f5af5ae2294d65e90d4caa676610aebba195cd887e674ddf857a64736f6c63430008110033",
			"deployedBytecode": "0x60806040526004361061010e5760003560e01c80634ea59979116100a55780638b22909111610074578063ebf0c71711610059578063ebf0c717146103bb578063ee6ad167146103d1578063f67c907c146103f457600080fd5b80638b22909114610388578063b0ff5e72146103a857600080fd5b80634ea59979146102f457806352720be41461031457806354fd4d50146103295780635e26462c1461037557600080fd5b80633f3108f7116100e15780633f3108f7146101f8578063413422491461024a57806345152ae31461029e5780634872824f146102c057600080fd5b80630f988a73146101135780631c2b2da6146101355780633c50e178146101685780633dbcc8d1146101e3575b600080fd5b34801561011f57600080fd5b5061013361012e366004611be2565b610424565b005b34801561014157600080fd5b50610155610150366004611c4d565b610521565b6040519081526020015b60405180910390f35b34801561017457600080fd5b506101b6610183366004611be2565b6005602052600090815260409020805460019091015473ffffffffffffffffffffffffffffffffffffffff918216911682565b6040805173ffffffffffffffffffffffffffffffffffffffff93841681529290911660208301520161015f565b3480156101ef57600080fd5b50602754610155565b34801561020457600080fd5b506002546102259073ffffffffffffffffffffffffffffffffffffffff1681565b60405173ffffffffffffffffffffffffffffffffffffffff909116815260200161015f565b34801561025657600080fd5b5061026a610265366004611be2565b610672565b60408051825173ffffffffffffffffffffffffffffffffffffffff908116825260209384015116928101929092520161015f565b3480156102aa57600080fd5b506102b3610729565b60405161015f9190611ce1565b3480156102cc57600080fd5b506003546004546101b69173ffffffffffffffffffffffffffffffffffffffff908116911682565b34801561030057600080fd5b5061013361030f366004611d17565b610740565b34801561032057600080fd5b506102b3610863565b34801561033557600080fd5b50604080518082018252600581527f322e302e300000000000000000000000000000000000000000000000000000006020820152905161015f9190611db8565b610155610383366004611dcb565b61089f565b34801561039457600080fd5b506101336103a3366004611d17565b610948565b3480156103b457600080fd5b5046610155565b3480156103c757600080fd5b5061015560065481565b6103e46103df366004611e72565b610a07565b604051901515815260200161015f565b34801561040057600080fd5b506103e461040f366004611ee4565b60286020526000908152604090205460ff1681565b60025473ffffffffffffffffffffffffffffffffffffffff1633146104aa576040517f08c379a000000000000000000000000000000000000000000000000000000000815260206004820152600560248201527f216175746800000000000000000000000000000000000000000000000000000060448201526064015b60405180910390fd5b6002805473ffffffffffffffffffffffffffffffffffffffff8381167fffffffffffffffffffffffff0000000000000000000000000000000000000000831681179093556040519116919082907fb0999394a8202229d1e14c6290230863233f18473f7504b3a7b1a27f9b014c9d90600090a35050565b60008061052d88610672565b90506000816020015173ffffffffffffffffffffffffffffffffffffffff166353179a7c8b8b8b8b8b6040518663ffffffff1660e01b8152600401610576959493929190611f46565b602060405180830381865afa158015610593573d6000803e3d6000fd5b505050506040513d601f19601f820116820180604052508101906105b79190611f82565b82516040517fa1dbf432000000000000000000000000000000000000000000000000000000008152600481018d905273ffffffffffffffffffffffffffffffffffffffff8c811660248301529293506000929091169063a1dbf43290604401602060405180830381865afa158015610633573d6000803e3d6000fd5b505050506040513d601f19601f820116820180604052508101906106579190611f82565b90506106638183611fca565b9b9a5050505050505050505050565b6040805180820182526000808252602080830182905273ffffffffffffffffffffffffffffffffffffffff858116835260058252918490208451808601909552805483168552600101549091169083018190529091906106eb5760045473ffffffffffffffffffffffffffffffffffffffff1660208201525b805173ffffffffffffffffffffffffffffffffffffffff166107235760035473ffffffffffffffffffffffffffffffffffffffff1681525b92915050565b610731611b9a565b61073b6007610ae4565b905090565b60025473ffffffffffffffffffffffffffffffffffffffff1633146107c1576040517f08c379a000000000000000000000000000000000000000000000000000000000815260206004820152600560248201527f216175746800000000000000000000000000000000000000000000000000000060448201526064016104a1565b60408051808201825273ffffffffffffffffffffffffffffffffffffffff8481168083529084166020928301819052600380547fffffffffffffffffffffffff0000000000000000000000000000000000000000908116841790915560048054909116821790558351918252918101919091527f504f152883e6158786ddfcce63f4d4d95ce8e404b1f6e6365a06f63849b7cb95910160405180910390a15050565b61086b611b9a565b604080516104008101918290529060079060209082845b815481526020019060010190808311610882575050505050905090565b600060016000541461090d576040517f08c379a000000000000000000000000000000000000000000000000000000000815260206004820152601060248201527f2173656e642d7265656e7472616e63790000000000000000000000000000000060448201526064016104a1565b600260009081553390610924828c8c8c8c8c610bda565b90506109358287838e8d8d8d610d9d565b60016000559a9950505050505050505050565b60408051808201825273ffffffffffffffffffffffffffffffffffffffff848116808352848216602080850182815233600081815260058452889020965187549087167fffffffffffffffffffffffff000000000000000000000000000000000000000091821617885591516001909701805497909616969091169590951790935584519182529181019190915290917f86b44d92ad94c11b25d0f08d0f55e8e235b4d165e62e541c02e8ee19f551c97b910160405180910390a25050565b60006001805414610a74576040517f08c379a000000000000000000000000000000000000000000000000000000000815260206004820152601060248201527f21726563762d7265656e7472616e63790000000000000000000000000000000060448201526064016104a1565b60026001556000610a86858585610e8d565b9050610a9a610a94866120e1565b82611155565b9150807f62b1dc20fd6f1518626da5b6f9897e8cd4ebadbad071bb66dc96a37c970087a883604051610ad0911515815260200190565b60405180910390a250600180559392505050565b610aec611b9a565b600060018360200154610aff9190612183565b6040805161040081019182905291925060009190859060209082845b815481526020019060010190808311610b1b57505050505090506000610b3f6111df565b905060005b6020811015610bd157600184821c811690819003610b8f57838260208110610b6e57610b6e612196565b6020020151868360208110610b8557610b85612196565b6020020152610bbe565b828260208110610ba157610ba1612196565b6020020151868360208110610bb857610bb8612196565b60200201525b5080610bc9816121c5565b915050610b44565b50505050919050565b6000468603610c45576040517f08c379a000000000000000000000000000000000000000000000000000000000815260206004820152600c60248201527f2163726f73732d636861696e000000000000000000000000000000000000000060448201526064016104a1565b6000610c5060275490565b905060006040518061010001604052807f00000000000000000000000017717254038ebf1327917c3843d95ef74962120a73ffffffffffffffffffffffffffffffffffffffff168152602001838152602001610ca94690565b81526020018a73ffffffffffffffffffffffffffffffffffffffff1681526020018981526020018873ffffffffffffffffffffffffffffffffffffffff16815260200187815260200186868080601f016020809104026020016040519081016040528093929190818152602001838380828437600092018290525093909452509293509150610d399050826116a0565b9050610d466007826116d0565b610d506007611814565b600681905560405182917f327110434bca326d1f70236295f59c8b472ebc683a6549ca9254697564fec4a591610d889190869061227e565b60405180910390a29998505050505050505050565b6000610da888610672565b90506000610dbe8260200151878b888888611827565b90506000610dd18360000151888c6118c3565b9050826020015173ffffffffffffffffffffffffffffffffffffffff16836000015173ffffffffffffffffffffffffffffffffffffffff16897ff7e134438bf3052b95eaa2f90f4177932297d80eb36186624c2f366cb8944ecf8486604051610e44929190918252602082015260400190565b60405180910390a4610e568183611fca565b341115610e81576000610e698284611fca565b610e739034612183565b9050610e7f8a82611973565b505b50505050505050505050565b600080610ea361026560c0870160a08801611be2565b602081015190915073ffffffffffffffffffffffffffffffffffffffff163314610f29576040517f08c379a000000000000000000000000000000000000000000000000000000000815260206004820152600560248201527f216175746800000000000000000000000000000000000000000000000000000060448201526064016104a1565b6000610f3c610f37876120e1565b6116a0565b9050816000015173ffffffffffffffffffffffffffffffffffffffff1663094f87c587604001358388886040518563ffffffff1660e01b8152600401610f859493929190612297565b602060405180830381865afa158015610fa2573d6000803e3d6000fd5b505050506040513d601f19601f82011682018060405250810190610fc691906122c1565b61102c576040517f08c379a000000000000000000000000000000000000000000000000000000000815260206004820152600660248201527f2170726f6f66000000000000000000000000000000000000000000000000000060448201526064016104a1565b60808601354614611099576040517f08c379a000000000000000000000000000000000000000000000000000000000815260206004820152600a60248201527f21746f436861696e49640000000000000000000000000000000000000000000060448201526064016104a1565b60008181526028602052604090205460ff1615611114576040517f08c379a00000000000000000000000000000000000000000000000000000000081526004016104a19060208082526004908201527f646f6e6500000000000000000000000000000000000000000000000000000000604082015260600190565b600081815260286020526040902080547fffffffffffffffffffffffffffffffffffffffffffffffffffffffffffffff001660011790559150509392505050565b60006111d78360c001513460008660e00151868860400151896060015160405160200161118594939291906122e3565b604080517fffffffffffffffffffffffffffffffffffffffffffffffffffffffffffffffe081840301815291905260a088015173ffffffffffffffffffffffffffffffffffffffff1693929190611a3d565b509392505050565b6111e7611b9a565b600081527fad3228b676f7d3cd4284a5443f17f1962b36e491b30a40b2405849e597ba5fb560208201527fb4c11951957c6f8f642c4af61cd6b24640fec6dc7fc607ee8206a99e92410d3060408201527f21ddb9a356815c3fac1026b6dec5df3124afbadb485c9ba5a3e3398a04b7ba8560608201527fe58769b32a1beaf1ea27375a44095a0d1fb664ce2dd358e7fcbfb78c26a1934460808201527f0eb01ebfc9ed27500cd4dfc979272d1f0913cc9f66540d7e8005811109e1cf2d60a08201527f887c22bd8750d34016ac3c66b5ff102dacdd73f6b014e710b51e8022af9a196860c08201527fffd70157e48063fc33c97a050f7f640233bf646cc98d9524c6b92bcf3ab56f8360e08201527f9867cc5f7f196b93bae1e27e6320742445d290f2263827498b54fec539f756af6101008201527fcefad4e508c098b9a7e1d8feb19955fb02ba9675585078710969d3440f5054e06101208201527ff9dc3e7fe016e050eff260334f18a5d4fe391d82092319f5964f2e2eb7c1c3a56101408201527ff8b13a49e282f609c317a833fb8d976d11517c571d1221a265d25af778ecf8926101608201527f3490c6ceeb450aecdc82e28293031d10c7d73bf85e57bf041a97360aa2c5d99c6101808201527fc1df82d9c4b87413eae2ef048f94b4d3554cea73d92b0f7af96e0271c691e2bb6101a08201527f5c67add7c6caf302256adedf7ab114da0acfe870d449a3a489f781d659e8becc6101c08201527fda7bce9f4e8618b6bd2f4132ce798cdc7a60e7e1460a7299e3c6342a579626d26101e08201527f2733e50f526ec2fa19a22b31e8ed50f23cd1fdf94c9154ed3a7609a2f1ff981f6102008201527fe1d3b5c807b281e4683cc6d6315cf95b9ade8641defcb32372f1c126e398ef7a6102208201527f5a2dce0a8a7f68bb74560f8f71837c2c2ebbcbf7fffb42ae1896f13f7c7479a06102408201527fb46a28b6f55540f89444f63de0378e3d121be09e06cc9ded1c20e65876d36aa06102608201527fc65e9645644786b620e2dd2ad648ddfcbf4a7e5b1a3a4ecfe7f64667a3f0b7e26102808201527ff4418588ed35a2458cffeb39b93d26f18d2ab13bdce6aee58e7b99359ec2dfd96102a08201527f5a9c16dc00d6ef18b7933a6f8dc65ccb55667138776f7dea101070dc8796e3776102c08201527f4df84f40ae0c8229d0d6069e5c8f39a7c299677a09d367fc7b05e3bc380ee6526102e08201527fcdc72595f74c7b1043d0e1ffbab734648c838dfb0527d971b602bc216c9619ef6103008201527f0abf5ac974a1ed57f4050aa510dd9c74f508277b39d7973bb2dfccc5eeb0618d6103208201527fb8cd74046ff337f0a7bf2c8e03e10f642c1886798d71806ab1e888d9e5ee87d06103408201527f838c5655cb21c6cb83313b5a631175dff4963772cce9108188b34ac87c81c41e6103608201527f662ee4dd2dd7b2bc707961b1e646c4047669dcb6584f0d8d770daf5d7e7deb2e6103808201527f388ab20e2573d171a88108e79d820e98f26c0b84aa8b2f4aa4968dbb818ea3226103a08201527f93237c50ba75ee485f4c22adf2f741400bdf8d6a9cc7df7ecae576221665d7356103c08201527f8448818bb4ae4562849e949e17ac16e0be16688e156b5cf15e098c627c0056a96103e082015290565b6000816040516020016116b39190612337565b604051602081830303815290604052805190602001209050919050565b60016116de6020600261246a565b6116e89190612183565b826020015410611754576040517f08c379a000000000000000000000000000000000000000000000000000000000815260206004820152601060248201527f6d65726b6c6520747265652066756c6c0000000000000000000000000000000060448201526064016104a1565b60018260200160008282546117699190611fca565b9091555050602082015460005b602081101561180657816001166001036117a5578284826020811061179d5761179d612196565b015550505050565b8381602081106117b7576117b7612196565b015460408051602081019290925281018490526060016040516020818303038152906040528051906020012092506002826117f29190612476565b9150806117fe816121c5565b915050611776565b5061180f6124b1565b505050565b6000610723826118226111df565b611ac8565b6000808773ffffffffffffffffffffffffffffffffffffffff166353179a7c88888888886040518663ffffffff1660e01b815260040161186b959493929190611f46565b602060405180830381865afa158015611888573d6000803e3d6000fd5b505050506040513d601f19601f820116820180604052508101906118ac9190611f82565b90506118b88882611973565b979650505050505050565b6040517fa1dbf4320000000000000000000000000000000000000000000000000000000081526004810183905273ffffffffffffffffffffffffffffffffffffffff8281166024830152600091829186169063a1dbf43290604401602060405180830381865afa15801561193b573d6000803e3d6000fd5b505050506040513d601f19601f8201168201806040525081019061195f9190611f82565b905061196b8582611973565b949350505050565b60008273ffffffffffffffffffffffffffffffffffffffff168260405160006040518083038185875af1925050503d80600081146119cd576040519150601f19603f3d011682016040523d82523d6000602084013e6119d2565b606091505b505090508061180f576040517f08c379a000000000000000000000000000000000000000000000000000000000815260206004820152600560248201527f2173656e6400000000000000000000000000000000000000000000000000000060448201526064016104a1565b6000606060008060008661ffff1667ffffffffffffffff811115611a6357611a63611fdd565b6040519080825280601f01601f191660200182016040528015611a8d576020820181803683370190505b5090506000808751602089018b8e8ef191503d925086831115611aae578692505b828152826000602083013e90999098509650505050505050565b6020820154600090815b6020811015611b9257600182821c166000868360208110611af557611af5612196565b0154905081600103611b32576040805160208101839052908101869052606001604051602081830303815290604052805190602001209450611b7d565b84868460208110611b4557611b45612196565b6020020151604051602001611b64929190918252602082015260400190565b6040516020818303038152906040528051906020012094505b50508080611b8a906121c5565b915050611ad2565b505092915050565b6040518061040001604052806020906020820280368337509192915050565b803573ffffffffffffffffffffffffffffffffffffffff81168114611bdd57600080fd5b919050565b600060208284031215611bf457600080fd5b611bfd82611bb9565b9392505050565b60008083601f840112611c1657600080fd5b50813567ffffffffffffffff811115611c2e57600080fd5b602083019150836020828501011115611c4657600080fd5b9250929050565b600080600080600080600060a0888a031215611c6857600080fd5b87359650611c7860208901611bb9565b955060408801359450606088013567ffffffffffffffff80821115611c9c57600080fd5b611ca88b838c01611c04565b909650945060808a0135915080821115611cc157600080fd5b50611cce8a828b01611c04565b989b979a50959850939692959293505050565b6104008101818360005b6020808210611cfa5750611d0e565b825184529283019290910190600101611ceb565b50505092915050565b60008060408385031215611d2a57600080fd5b611d3383611bb9565b9150611d4160208401611bb9565b90509250929050565b60005b83811015611d65578181015183820152602001611d4d565b50506000910152565b60008151808452611d86816020860160208601611d4a565b601f017fffffffffffffffffffffffffffffffffffffffffffffffffffffffffffffffe0169290920160200192915050565b602081526000611bfd6020830184611d6e565b60008060008060008060008060c0898b031215611de757600080fd5b88359750611df760208a01611bb9565b965060408901359550606089013567ffffffffffffffff80821115611e1b57600080fd5b611e278c838d01611c04565b9097509550859150611e3b60808c01611bb9565b945060a08b0135915080821115611e5157600080fd5b50611e5e8b828c01611c04565b999c989b5096995094979396929594505050565b600080600060408486031215611e8757600080fd5b833567ffffffffffffffff80821115611e9f57600080fd5b908501906101008288031215611eb457600080fd5b90935060208501359080821115611eca57600080fd5b50611ed786828701611c04565b9497909650939450505050565b600060208284031215611ef657600080fd5b5035919050565b8183528181602085013750600060208284010152600060207fffffffffffffffffffffffffffffffffffffffffffffffffffffffffffffffe0601f840116840101905092915050565b85815273ffffffffffffffffffffffffffffffffffffffff851660208201528360408201526080606082015260006118b8608083018486611efd565b600060208284031215611f9457600080fd5b5051919050565b7f4e487b7100000000000000000000000000000000000000000000000000000000600052601160045260246000fd5b8082018082111561072357610723611f9b565b7f4e487b7100000000000000000000000000000000000000000000000000000000600052604160045260246000fd5b604051610100810167ffffffffffffffff8111828210171561203057612030611fdd565b60405290565b600082601f83011261204757600080fd5b813567ffffffffffffffff8082111561206257612062611fdd565b604051601f83017fffffffffffffffffffffffffffffffffffffffffffffffffffffffffffffffe0908116603f011681019082821181831017156120a8576120a8611fdd565b816040528381528660208588010111156120c157600080fd5b836020870160208301376000602085830101528094505050505092915050565b600061010082360312156120f457600080fd5b6120fc61200c565b61210583611bb9565b8152602083013560208201526040830135604082015261212760608401611bb9565b60608201526080830135608082015261214260a08401611bb9565b60a082015260c083013560c082015260e083013567ffffffffffffffff81111561216b57600080fd5b61217736828601612036565b60e08301525092915050565b8181038181111561072357610723611f9b565b7f4e487b7100000000000000000000000000000000000000000000000000000000600052603260045260246000fd5b60007fffffffffffffffffffffffffffffffffffffffffffffffffffffffffffffffff82036121f6576121f6611f9b565b5060010190565b600061010073ffffffffffffffffffffffffffffffffffffffff8084511685526020840151602086015260408401516040860152806060850151166060860152608084015160808601528060a08501511660a08601525060c083015160c085015260e08301518160e086015261227582860182611d6e565b95945050505050565b82815260406020820152600061196b60408301846121fd565b8481528360208201526060604082015260006122b7606083018486611efd565b9695505050505050565b6000602082840312156122d357600080fd5b81518015158114611bfd57600080fd5b600085516122f5818460208a01611d4a565b9190910193845250602083019190915260601b7fffffffffffffffffffffffffffffffffffffffff000000000000000000000000166040820152605401919050565b602081526000611bfd60208301846121fd565b600181815b808511156123a357817fffffffffffffffffffffffffffffffffffffffffffffffffffffffffffffffff0482111561238957612389611f9b565b8085161561239657918102915b93841c939080029061234f565b509250929050565b6000826123ba57506001610723565b816123c757506000610723565b81600181146123dd57600281146123e757612403565b6001915050610723565b60ff8411156123f8576123f8611f9b565b50506001821b610723565b5060208310610133831016604e8410600b8410161715612426575081810a610723565b612430838361234a565b807fffffffffffffffffffffffffffffffffffffffffffffffffffffffffffffffff0482111561246257612462611f9b565b029392505050565b6000611bfd83836123ab565b6000826124ac577f4e487b7100000000000000000000000000000000000000000000000000000000600052601260045260246000fd5b500490565b7f4e487b7100000000000000000000000000000000000000000000000000000000600052600160045260246000fdfea2646970667358221220e4b3459bef63f5af5ae2294d65e90d4caa676610aebba195cd887e674ddf857a64736f6c63430008110033",
			"devdoc": {
				"kind": "dev",
				"methods": {
					"LOCAL_CHAINID()": {
						"details": "Fetch local chain id.",
						"returns": {
							"chainId": "Local chain id."
						}
					},
					"changeSetter(address)": {
						"details": "Change setter.",
						"params": {
							"newSetter": "New setter."
						}
					},
					"fee(uint256,address,uint256,bytes,bytes)": {
						"params": {
							"encoded": "The calldata which encoded by ABI Encoding.",
							"gasLimit": "Gas limit for destination user application used."
						}
					},
					"getAppConfig(address)": {
						"details": "Fetch user application config.",
						"params": {
							"ua": "User application contract address."
						},
						"returns": {
							"_0": "user application config."
						}
					},
					"imtBranch()": {
						"details": "Fetch the branch of incremental merkle tree."
					},
					"messageCount()": {
						"details": "Fetch the messages count of incremental merkle tree."
					},
					"prove()": {
						"details": "Fetch the latest message proof"
					},
					"recv((address,uint256,uint256,address,uint256,address,uint256,bytes),bytes)": {
						"details": "Recv verified message from Channel and dispatch to destination user application address.",
						"params": {
							"message": "Verified receive message info.",
							"proof": "Message proof of this message."
						},
						"returns": {
							"dispatchResult": "Result of the message dispatch."
						}
					},
					"send(uint256,address,uint256,bytes,address,bytes)": {
						"details": "Send a cross-chain message over the endpoint.",
						"params": {
							"encoded": "The calldata which encoded by ABI Encoding.",
							"gasLimit": "Gas limit for destination user application used.",
							"refund": "Return extra fee to refund address.",
							"to": "User application contract address which receive the message.",
							"toChainId": "The Message destination chain id."
						}
					},
					"setAppConfig(address,address)": {
						"params": {
							"oracle": "Oracle which user application.",
							"relayer": "Relayer which user application choose."
						}
					},
					"setDefaultConfig(address,address)": {
						"details": "Set default user config for all user application.",
						"params": {
							"oracle": "Default oracle.",
							"relayer": "Default relayer."
						}
					}
				},
				"version": 1
			},
			"userdoc": {
				"kind": "user",
				"methods": {
					"changeSetter(address)": {
						"notice": "Only current setter could call."
					},
					"getAppConfig(address)": {
						"notice": "If user application has not configured, then the default user config is used."
					},
					"recv((address,uint256,uint256,address,uint256,address,uint256,bytes),bytes)": {
						"notice": "Only channel could call this function."
					},
					"send(uint256,address,uint256,bytes,address,bytes)": {
						"notice": "follow https://eips.ethereum.org/EIPS/eip-5750"
					},
					"setAppConfig(address,address)": {
						"notice": "Set user application config."
					},
					"setDefaultConfig(address,address)": {
						"notice": "Only setter could call."
					}
				},
				"version": 1
			},
			"gitCommit": "ea8caff26eeb31c3189033ff62ea530464fdf5ab",
			"sourceName": "lib/ORMP/src/ORMP.sol",
			"chainId": "421614",
			"linkReferences": {},
			"deployedLinkReferences": {}
		},
		{
			"_format": "sphinx-sol-ct-artifact-1",
			"merkleRoot": "0x7856eb0c24b841e217171f7493840ee4e7f3b5f3d4c755d4fbd4b1ec1eb2487b",
			"contractName": "ORMP",
			"address": "0x04a0af6f07aaD4096083d5745F728A221bc563Cf",
			"abi": [
				{
					"type": "constructor",
					"inputs": [
						{
							"name": "dao",
							"type": "address",
							"internalType": "address"
						}
					],
					"stateMutability": "nonpayable"
				},
				{
					"type": "function",
					"name": "LOCAL_CHAINID",
					"inputs": [],
					"outputs": [
						{
							"name": "chainId",
							"type": "uint256",
							"internalType": "uint256"
						}
					],
					"stateMutability": "view"
				},
				{
					"type": "function",
					"name": "changeSetter",
					"inputs": [
						{
							"name": "newSetter",
							"type": "address",
							"internalType": "address"
						}
					],
					"outputs": [],
					"stateMutability": "nonpayable"
				},
				{
					"type": "function",
					"name": "defaultUC",
					"inputs": [],
					"outputs": [
						{
							"name": "oracle",
							"type": "address",
							"internalType": "address"
						},
						{
							"name": "relayer",
							"type": "address",
							"internalType": "address"
						}
					],
					"stateMutability": "view"
				},
				{
					"type": "function",
					"name": "dones",
					"inputs": [
						{
							"name": "",
							"type": "bytes32",
							"internalType": "bytes32"
						}
					],
					"outputs": [
						{
							"name": "",
							"type": "bool",
							"internalType": "bool"
						}
					],
					"stateMutability": "view"
				},
				{
					"type": "function",
					"name": "fee",
					"inputs": [
						{
							"name": "toChainId",
							"type": "uint256",
							"internalType": "uint256"
						},
						{
							"name": "ua",
							"type": "address",
							"internalType": "address"
						},
						{
							"name": "gasLimit",
							"type": "uint256",
							"internalType": "uint256"
						},
						{
							"name": "encoded",
							"type": "bytes",
							"internalType": "bytes"
						},
						{
							"name": "",
							"type": "bytes",
							"internalType": "bytes"
						}
					],
					"outputs": [
						{
							"name": "",
							"type": "uint256",
							"internalType": "uint256"
						}
					],
					"stateMutability": "view"
				},
				{
					"type": "function",
					"name": "getAppConfig",
					"inputs": [
						{
							"name": "ua",
							"type": "address",
							"internalType": "address"
						}
					],
					"outputs": [
						{
							"name": "",
							"type": "tuple",
							"internalType": "struct UC",
							"components": [
								{
									"name": "oracle",
									"type": "address",
									"internalType": "address"
								},
								{
									"name": "relayer",
									"type": "address",
									"internalType": "address"
								}
							]
						}
					],
					"stateMutability": "view"
				},
				{
					"type": "function",
					"name": "imtBranch",
					"inputs": [],
					"outputs": [
						{
							"name": "",
							"type": "bytes32[32]",
							"internalType": "bytes32[32]"
						}
					],
					"stateMutability": "view"
				},
				{
					"type": "function",
					"name": "messageCount",
					"inputs": [],
					"outputs": [
						{
							"name": "",
							"type": "uint256",
							"internalType": "uint256"
						}
					],
					"stateMutability": "view"
				},
				{
					"type": "function",
					"name": "prove",
					"inputs": [],
					"outputs": [
						{
							"name": "",
							"type": "bytes32[32]",
							"internalType": "bytes32[32]"
						}
					],
					"stateMutability": "view"
				},
				{
					"type": "function",
					"name": "recv",
					"inputs": [
						{
							"name": "message",
							"type": "tuple",
							"internalType": "struct Message",
							"components": [
								{
									"name": "channel",
									"type": "address",
									"internalType": "address"
								},
								{
									"name": "index",
									"type": "uint256",
									"internalType": "uint256"
								},
								{
									"name": "fromChainId",
									"type": "uint256",
									"internalType": "uint256"
								},
								{
									"name": "from",
									"type": "address",
									"internalType": "address"
								},
								{
									"name": "toChainId",
									"type": "uint256",
									"internalType": "uint256"
								},
								{
									"name": "to",
									"type": "address",
									"internalType": "address"
								},
								{
									"name": "gasLimit",
									"type": "uint256",
									"internalType": "uint256"
								},
								{
									"name": "encoded",
									"type": "bytes",
									"internalType": "bytes"
								}
							]
						},
						{
							"name": "proof",
							"type": "bytes",
							"internalType": "bytes"
						}
					],
					"outputs": [
						{
							"name": "dispatchResult",
							"type": "bool",
							"internalType": "bool"
						}
					],
					"stateMutability": "payable"
				},
				{
					"type": "function",
					"name": "root",
					"inputs": [],
					"outputs": [
						{
							"name": "",
							"type": "bytes32",
							"internalType": "bytes32"
						}
					],
					"stateMutability": "view"
				},
				{
					"type": "function",
					"name": "send",
					"inputs": [
						{
							"name": "toChainId",
							"type": "uint256",
							"internalType": "uint256"
						},
						{
							"name": "to",
							"type": "address",
							"internalType": "address"
						},
						{
							"name": "gasLimit",
							"type": "uint256",
							"internalType": "uint256"
						},
						{
							"name": "encoded",
							"type": "bytes",
							"internalType": "bytes"
						},
						{
							"name": "refund",
							"type": "address",
							"internalType": "address"
						},
						{
							"name": "",
							"type": "bytes",
							"internalType": "bytes"
						}
					],
					"outputs": [
						{
							"name": "",
							"type": "bytes32",
							"internalType": "bytes32"
						}
					],
					"stateMutability": "payable"
				},
				{
					"type": "function",
					"name": "setAppConfig",
					"inputs": [
						{
							"name": "oracle",
							"type": "address",
							"internalType": "address"
						},
						{
							"name": "relayer",
							"type": "address",
							"internalType": "address"
						}
					],
					"outputs": [],
					"stateMutability": "nonpayable"
				},
				{
					"type": "function",
					"name": "setDefaultConfig",
					"inputs": [
						{
							"name": "oracle",
							"type": "address",
							"internalType": "address"
						},
						{
							"name": "relayer",
							"type": "address",
							"internalType": "address"
						}
					],
					"outputs": [],
					"stateMutability": "nonpayable"
				},
				{
					"type": "function",
					"name": "setter",
					"inputs": [],
					"outputs": [
						{
							"name": "",
							"type": "address",
							"internalType": "address"
						}
					],
					"stateMutability": "view"
				},
				{
					"type": "function",
					"name": "ucOf",
					"inputs": [
						{
							"name": "",
							"type": "address",
							"internalType": "address"
						}
					],
					"outputs": [
						{
							"name": "oracle",
							"type": "address",
							"internalType": "address"
						},
						{
							"name": "relayer",
							"type": "address",
							"internalType": "address"
						}
					],
					"stateMutability": "view"
				},
				{
					"type": "function",
					"name": "version",
					"inputs": [],
					"outputs": [
						{
							"name": "",
							"type": "string",
							"internalType": "string"
						}
					],
					"stateMutability": "pure"
				},
				{
					"type": "event",
					"name": "AppConfigUpdated",
					"inputs": [
						{
							"name": "ua",
							"type": "address",
							"indexed": true,
							"internalType": "address"
						},
						{
							"name": "oracle",
							"type": "address",
							"indexed": false,
							"internalType": "address"
						},
						{
							"name": "relayer",
							"type": "address",
							"indexed": false,
							"internalType": "address"
						}
					],
					"anonymous": false
				},
				{
					"type": "event",
					"name": "DefaultConfigUpdated",
					"inputs": [
						{
							"name": "oracle",
							"type": "address",
							"indexed": false,
							"internalType": "address"
						},
						{
							"name": "relayer",
							"type": "address",
							"indexed": false,
							"internalType": "address"
						}
					],
					"anonymous": false
				},
				{
					"type": "event",
					"name": "MessageAccepted",
					"inputs": [
						{
							"name": "msgHash",
							"type": "bytes32",
							"indexed": true,
							"internalType": "bytes32"
						},
						{
							"name": "root",
							"type": "bytes32",
							"indexed": false,
							"internalType": "bytes32"
						},
						{
							"name": "message",
							"type": "tuple",
							"indexed": false,
							"internalType": "struct Message",
							"components": [
								{
									"name": "channel",
									"type": "address",
									"internalType": "address"
								},
								{
									"name": "index",
									"type": "uint256",
									"internalType": "uint256"
								},
								{
									"name": "fromChainId",
									"type": "uint256",
									"internalType": "uint256"
								},
								{
									"name": "from",
									"type": "address",
									"internalType": "address"
								},
								{
									"name": "toChainId",
									"type": "uint256",
									"internalType": "uint256"
								},
								{
									"name": "to",
									"type": "address",
									"internalType": "address"
								},
								{
									"name": "gasLimit",
									"type": "uint256",
									"internalType": "uint256"
								},
								{
									"name": "encoded",
									"type": "bytes",
									"internalType": "bytes"
								}
							]
						}
					],
					"anonymous": false
				},
				{
					"type": "event",
					"name": "MessageAssigned",
					"inputs": [
						{
							"name": "msgHash",
							"type": "bytes32",
							"indexed": true,
							"internalType": "bytes32"
						},
						{
							"name": "oracle",
							"type": "address",
							"indexed": true,
							"internalType": "address"
						},
						{
							"name": "relayer",
							"type": "address",
							"indexed": true,
							"internalType": "address"
						},
						{
							"name": "oracleFee",
							"type": "uint256",
							"indexed": false,
							"internalType": "uint256"
						},
						{
							"name": "relayerFee",
							"type": "uint256",
							"indexed": false,
							"internalType": "uint256"
						}
					],
					"anonymous": false
				},
				{
					"type": "event",
					"name": "MessageDispatched",
					"inputs": [
						{
							"name": "msgHash",
							"type": "bytes32",
							"indexed": true,
							"internalType": "bytes32"
						},
						{
							"name": "dispatchResult",
							"type": "bool",
							"indexed": false,
							"internalType": "bool"
						}
					],
					"anonymous": false
				},
				{
					"type": "event",
					"name": "SetterChanged",
					"inputs": [
						{
							"name": "oldSetter",
							"type": "address",
							"indexed": true,
							"internalType": "address"
						},
						{
							"name": "newSetter",
							"type": "address",
							"indexed": true,
							"internalType": "address"
						}
					],
					"anonymous": false
				}
			],
			"solcInputHash": "403d52f660759fecc7155a43916ae2fb",
			"receipt": {
				"blockHash": "0x7923c2e097652844b79bb41ed575f49e046e574bbde3c1bb35f31b96eccf8dcc",
				"blockNumber": 27506303,
				"contractAddress": null,
				"cumulativeGasUsed": "6783216",
				"from": "0xD70A2e6eACbdeDA77a5d4bBAE3bC70239A0e088f",
				"gasPrice": "100000000",
				"gasUsed": "6554381",
				"hash": "0x6ae9dc0f61bd618761508acad2928eca1c61257b172f99daa9377fdab638d5cc",
				"index": 2,
				"logs": [
					{
						"address": "0x701609866556Cb9A1FBD6B40201cD5899c9D2d56",
						"blockHash": "0x7923c2e097652844b79bb41ed575f49e046e574bbde3c1bb35f31b96eccf8dcc",
						"blockNumber": 27506303,
						"data": "0x00000000000000000000000004a0af6f07aad4096083d5745f728a221bc563cf",
						"index": 2,
						"topics": [
							"0x4db17dd5e4732fb6da34a148104a592783ca119a1e7bb8829eba6cbadef0b511"
						],
						"transactionHash": "0x6ae9dc0f61bd618761508acad2928eca1c61257b172f99daa9377fdab638d5cc",
						"transactionIndex": 2
					},
					{
						"address": "0x701609866556Cb9A1FBD6B40201cD5899c9D2d56",
						"blockHash": "0x7923c2e097652844b79bb41ed575f49e046e574bbde3c1bb35f31b96eccf8dcc",
						"blockNumber": 27506303,
						"data": "0x",
						"index": 3,
						"topics": [
							"0x6895c13664aa4f67288b25d7a21d7aaa34916e355fb9b6fae0a139a9085becb8",
							"0x00000000000000000000000004678247ac000d74768e5caa72a221a0a7c2ae44"
						],
						"transactionHash": "0x6ae9dc0f61bd618761508acad2928eca1c61257b172f99daa9377fdab638d5cc",
						"transactionIndex": 2
					},
					{
						"address": "0x04678247aC000d74768E5CAa72a221A0a7C2Ae44",
						"blockHash": "0x7923c2e097652844b79bb41ed575f49e046e574bbde3c1bb35f31b96eccf8dcc",
						"blockNumber": 27506303,
						"data": "0x0000000000000000000000000000000000000000000000000000000000000001",
						"index": 4,
						"topics": [
							"0xa65fb05c5808f5f389d72edeaf719ce38f4cc55c1f69ca3cbfb31c21501caa07",
							"0x7856eb0c24b841e217171f7493840ee4e7f3b5f3d4c755d4fbd4b1ec1eb2487b"
						],
						"transactionHash": "0x6ae9dc0f61bd618761508acad2928eca1c61257b172f99daa9377fdab638d5cc",
						"transactionIndex": 2
					},
					{
						"address": "0x04678247aC000d74768E5CAa72a221A0a7C2Ae44",
						"blockHash": "0x7923c2e097652844b79bb41ed575f49e046e574bbde3c1bb35f31b96eccf8dcc",
						"blockNumber": 27506303,
						"data": "0x",
						"index": 5,
						"topics": [
							"0x4383d976757d67ca920616be0b6430a681ea9d3dcce8d6d61d4603ca4a9bff63",
							"0x7856eb0c24b841e217171f7493840ee4e7f3b5f3d4c755d4fbd4b1ec1eb2487b"
						],
						"transactionHash": "0x6ae9dc0f61bd618761508acad2928eca1c61257b172f99daa9377fdab638d5cc",
						"transactionIndex": 2
					}
				],
				"logsBloom": "0x00000000000010000004000000080000000000000000000000000000000000000000000000000000000000000000000000000000020000000000000000000000000000000000200000000100020000000000000000000000040000000000000000000000000000000000000000000000000000000820000000000000400000000000000000400000000000000000000000000000000000000000004000000000000000800000000000000000000000000200000080000000000000000004000000000000000000000000000000000008000000000000100000000008000000000000000000000008000000001000000200000000000000000000000008000000",
				"status": 1,
				"to": "0x04678247aC000d74768E5CAa72a221A0a7C2Ae44"
			},
			"metadata": "{\"compiler\":{\"version\":\"0.8.17+commit.8df45f5f\"},\"language\":\"Solidity\",\"output\":{\"abi\":[{\"inputs\":[{\"internalType\":\"address\",\"name\":\"dao\",\"type\":\"address\"}],\"stateMutability\":\"nonpayable\",\"type\":\"constructor\"},{\"inputs\":[{\"internalType\":\"address\",\"name\":\"ua\",\"type\":\"address\",\"indexed\":true},{\"internalType\":\"address\",\"name\":\"oracle\",\"type\":\"address\",\"indexed\":false},{\"internalType\":\"address\",\"name\":\"relayer\",\"type\":\"address\",\"indexed\":false}],\"type\":\"event\",\"name\":\"AppConfigUpdated\",\"anonymous\":false},{\"inputs\":[{\"internalType\":\"address\",\"name\":\"oracle\",\"type\":\"address\",\"indexed\":false},{\"internalType\":\"address\",\"name\":\"relayer\",\"type\":\"address\",\"indexed\":false}],\"type\":\"event\",\"name\":\"DefaultConfigUpdated\",\"anonymous\":false},{\"inputs\":[{\"internalType\":\"bytes32\",\"name\":\"msgHash\",\"type\":\"bytes32\",\"indexed\":true},{\"internalType\":\"bytes32\",\"name\":\"root\",\"type\":\"bytes32\",\"indexed\":false},{\"internalType\":\"struct Message\",\"name\":\"message\",\"type\":\"tuple\",\"components\":[{\"internalType\":\"address\",\"name\":\"channel\",\"type\":\"address\"},{\"internalType\":\"uint256\",\"name\":\"index\",\"type\":\"uint256\"},{\"internalType\":\"uint256\",\"name\":\"fromChainId\",\"type\":\"uint256\"},{\"internalType\":\"address\",\"name\":\"from\",\"type\":\"address\"},{\"internalType\":\"uint256\",\"name\":\"toChainId\",\"type\":\"uint256\"},{\"internalType\":\"address\",\"name\":\"to\",\"type\":\"address\"},{\"internalType\":\"uint256\",\"name\":\"gasLimit\",\"type\":\"uint256\"},{\"internalType\":\"bytes\",\"name\":\"encoded\",\"type\":\"bytes\"}],\"indexed\":false}],\"type\":\"event\",\"name\":\"MessageAccepted\",\"anonymous\":false},{\"inputs\":[{\"internalType\":\"bytes32\",\"name\":\"msgHash\",\"type\":\"bytes32\",\"indexed\":true},{\"internalType\":\"address\",\"name\":\"oracle\",\"type\":\"address\",\"indexed\":true},{\"internalType\":\"address\",\"name\":\"relayer\",\"type\":\"address\",\"indexed\":true},{\"internalType\":\"uint256\",\"name\":\"oracleFee\",\"type\":\"uint256\",\"indexed\":false},{\"internalType\":\"uint256\",\"name\":\"relayerFee\",\"type\":\"uint256\",\"indexed\":false}],\"type\":\"event\",\"name\":\"MessageAssigned\",\"anonymous\":false},{\"inputs\":[{\"internalType\":\"bytes32\",\"name\":\"msgHash\",\"type\":\"bytes32\",\"indexed\":true},{\"internalType\":\"bool\",\"name\":\"dispatchResult\",\"type\":\"bool\",\"indexed\":false}],\"type\":\"event\",\"name\":\"MessageDispatched\",\"anonymous\":false},{\"inputs\":[{\"internalType\":\"address\",\"name\":\"oldSetter\",\"type\":\"address\",\"indexed\":true},{\"internalType\":\"address\",\"name\":\"newSetter\",\"type\":\"address\",\"indexed\":true}],\"type\":\"event\",\"name\":\"SetterChanged\",\"anonymous\":false},{\"inputs\":[],\"stateMutability\":\"view\",\"type\":\"function\",\"name\":\"LOCAL_CHAINID\",\"outputs\":[{\"internalType\":\"uint256\",\"name\":\"chainId\",\"type\":\"uint256\"}]},{\"inputs\":[{\"internalType\":\"address\",\"name\":\"newSetter\",\"type\":\"address\"}],\"stateMutability\":\"nonpayable\",\"type\":\"function\",\"name\":\"changeSetter\"},{\"inputs\":[],\"stateMutability\":\"view\",\"type\":\"function\",\"name\":\"defaultUC\",\"outputs\":[{\"internalType\":\"address\",\"name\":\"oracle\",\"type\":\"address\"},{\"internalType\":\"address\",\"name\":\"relayer\",\"type\":\"address\"}]},{\"inputs\":[{\"internalType\":\"bytes32\",\"name\":\"\",\"type\":\"bytes32\"}],\"stateMutability\":\"view\",\"type\":\"function\",\"name\":\"dones\",\"outputs\":[{\"internalType\":\"bool\",\"name\":\"\",\"type\":\"bool\"}]},{\"inputs\":[{\"internalType\":\"uint256\",\"name\":\"toChainId\",\"type\":\"uint256\"},{\"internalType\":\"address\",\"name\":\"ua\",\"type\":\"address\"},{\"internalType\":\"uint256\",\"name\":\"gasLimit\",\"type\":\"uint256\"},{\"internalType\":\"bytes\",\"name\":\"encoded\",\"type\":\"bytes\"},{\"internalType\":\"bytes\",\"name\":\"\",\"type\":\"bytes\"}],\"stateMutability\":\"view\",\"type\":\"function\",\"name\":\"fee\",\"outputs\":[{\"internalType\":\"uint256\",\"name\":\"\",\"type\":\"uint256\"}]},{\"inputs\":[{\"internalType\":\"address\",\"name\":\"ua\",\"type\":\"address\"}],\"stateMutability\":\"view\",\"type\":\"function\",\"name\":\"getAppConfig\",\"outputs\":[{\"internalType\":\"struct UC\",\"name\":\"\",\"type\":\"tuple\",\"components\":[{\"internalType\":\"address\",\"name\":\"oracle\",\"type\":\"address\"},{\"internalType\":\"address\",\"name\":\"relayer\",\"type\":\"address\"}]}]},{\"inputs\":[],\"stateMutability\":\"view\",\"type\":\"function\",\"name\":\"imtBranch\",\"outputs\":[{\"internalType\":\"bytes32[32]\",\"name\":\"\",\"type\":\"bytes32[32]\"}]},{\"inputs\":[],\"stateMutability\":\"view\",\"type\":\"function\",\"name\":\"messageCount\",\"outputs\":[{\"internalType\":\"uint256\",\"name\":\"\",\"type\":\"uint256\"}]},{\"inputs\":[],\"stateMutability\":\"view\",\"type\":\"function\",\"name\":\"prove\",\"outputs\":[{\"internalType\":\"bytes32[32]\",\"name\":\"\",\"type\":\"bytes32[32]\"}]},{\"inputs\":[{\"internalType\":\"struct Message\",\"name\":\"message\",\"type\":\"tuple\",\"components\":[{\"internalType\":\"address\",\"name\":\"channel\",\"type\":\"address\"},{\"internalType\":\"uint256\",\"name\":\"index\",\"type\":\"uint256\"},{\"internalType\":\"uint256\",\"name\":\"fromChainId\",\"type\":\"uint256\"},{\"internalType\":\"address\",\"name\":\"from\",\"type\":\"address\"},{\"internalType\":\"uint256\",\"name\":\"toChainId\",\"type\":\"uint256\"},{\"internalType\":\"address\",\"name\":\"to\",\"type\":\"address\"},{\"internalType\":\"uint256\",\"name\":\"gasLimit\",\"type\":\"uint256\"},{\"internalType\":\"bytes\",\"name\":\"encoded\",\"type\":\"bytes\"}]},{\"internalType\":\"bytes\",\"name\":\"proof\",\"type\":\"bytes\"}],\"stateMutability\":\"payable\",\"type\":\"function\",\"name\":\"recv\",\"outputs\":[{\"internalType\":\"bool\",\"name\":\"dispatchResult\",\"type\":\"bool\"}]},{\"inputs\":[],\"stateMutability\":\"view\",\"type\":\"function\",\"name\":\"root\",\"outputs\":[{\"internalType\":\"bytes32\",\"name\":\"\",\"type\":\"bytes32\"}]},{\"inputs\":[{\"internalType\":\"uint256\",\"name\":\"toChainId\",\"type\":\"uint256\"},{\"internalType\":\"address\",\"name\":\"to\",\"type\":\"address\"},{\"internalType\":\"uint256\",\"name\":\"gasLimit\",\"type\":\"uint256\"},{\"internalType\":\"bytes\",\"name\":\"encoded\",\"type\":\"bytes\"},{\"internalType\":\"address\",\"name\":\"refund\",\"type\":\"address\"},{\"internalType\":\"bytes\",\"name\":\"\",\"type\":\"bytes\"}],\"stateMutability\":\"payable\",\"type\":\"function\",\"name\":\"send\",\"outputs\":[{\"internalType\":\"bytes32\",\"name\":\"\",\"type\":\"bytes32\"}]},{\"inputs\":[{\"internalType\":\"address\",\"name\":\"oracle\",\"type\":\"address\"},{\"internalType\":\"address\",\"name\":\"relayer\",\"type\":\"address\"}],\"stateMutability\":\"nonpayable\",\"type\":\"function\",\"name\":\"setAppConfig\"},{\"inputs\":[{\"internalType\":\"address\",\"name\":\"oracle\",\"type\":\"address\"},{\"internalType\":\"address\",\"name\":\"relayer\",\"type\":\"address\"}],\"stateMutability\":\"nonpayable\",\"type\":\"function\",\"name\":\"setDefaultConfig\"},{\"inputs\":[],\"stateMutability\":\"view\",\"type\":\"function\",\"name\":\"setter\",\"outputs\":[{\"internalType\":\"address\",\"name\":\"\",\"type\":\"address\"}]},{\"inputs\":[{\"internalType\":\"address\",\"name\":\"\",\"type\":\"address\"}],\"stateMutability\":\"view\",\"type\":\"function\",\"name\":\"ucOf\",\"outputs\":[{\"internalType\":\"address\",\"name\":\"oracle\",\"type\":\"address\"},{\"internalType\":\"address\",\"name\":\"relayer\",\"type\":\"address\"}]},{\"inputs\":[],\"stateMutability\":\"pure\",\"type\":\"function\",\"name\":\"version\",\"outputs\":[{\"internalType\":\"string\",\"name\":\"\",\"type\":\"string\"}]}],\"devdoc\":{\"kind\":\"dev\",\"methods\":{\"LOCAL_CHAINID()\":{\"details\":\"Fetch local chain id.\",\"returns\":{\"chainId\":\"Local chain id.\"}},\"changeSetter(address)\":{\"details\":\"Change setter.\",\"params\":{\"newSetter\":\"New setter.\"}},\"fee(uint256,address,uint256,bytes,bytes)\":{\"params\":{\"encoded\":\"The calldata which encoded by ABI Encoding.\",\"gasLimit\":\"Gas limit for destination user application used.\"}},\"getAppConfig(address)\":{\"details\":\"Fetch user application config.\",\"params\":{\"ua\":\"User application contract address.\"},\"returns\":{\"_0\":\"user application config.\"}},\"imtBranch()\":{\"details\":\"Fetch the branch of incremental merkle tree.\"},\"messageCount()\":{\"details\":\"Fetch the messages count of incremental merkle tree.\"},\"prove()\":{\"details\":\"Fetch the latest message proof\"},\"recv((address,uint256,uint256,address,uint256,address,uint256,bytes),bytes)\":{\"details\":\"Recv verified message from Channel and dispatch to destination user application address.\",\"params\":{\"message\":\"Verified receive message info.\",\"proof\":\"Message proof of this message.\"},\"returns\":{\"dispatchResult\":\"Result of the message dispatch.\"}},\"send(uint256,address,uint256,bytes,address,bytes)\":{\"details\":\"Send a cross-chain message over the endpoint.\",\"params\":{\"encoded\":\"The calldata which encoded by ABI Encoding.\",\"gasLimit\":\"Gas limit for destination user application used.\",\"refund\":\"Return extra fee to refund address.\",\"to\":\"User application contract address which receive the message.\",\"toChainId\":\"The Message destination chain id.\"}},\"setAppConfig(address,address)\":{\"params\":{\"oracle\":\"Oracle which user application.\",\"relayer\":\"Relayer which user application choose.\"}},\"setDefaultConfig(address,address)\":{\"details\":\"Set default user config for all user application.\",\"params\":{\"oracle\":\"Default oracle.\",\"relayer\":\"Default relayer.\"}}},\"version\":1},\"userdoc\":{\"kind\":\"user\",\"methods\":{\"changeSetter(address)\":{\"notice\":\"Only current setter could call.\"},\"getAppConfig(address)\":{\"notice\":\"If user application has not configured, then the default user config is used.\"},\"recv((address,uint256,uint256,address,uint256,address,uint256,bytes),bytes)\":{\"notice\":\"Only channel could call this function.\"},\"send(uint256,address,uint256,bytes,address,bytes)\":{\"notice\":\"follow https://eips.ethereum.org/EIPS/eip-5750\"},\"setAppConfig(address,address)\":{\"notice\":\"Set user application config.\"},\"setDefaultConfig(address,address)\":{\"notice\":\"Only setter could call.\"}},\"version\":1}},\"settings\":{\"remappings\":[\"@darwinia-msgport/=lib/darwinia-msgport/\",\"@openzeppelin/contracts/=lib/openzeppelin-contracts/contracts/\",\"@openzeppelin/contracts@4.9.2/=lib/openzeppelin-contracts/contracts/\",\"@sphinx-labs/contracts/=lib/sphinx/packages/contracts/contracts/foundry/\",\"ORMP/=lib/ORMP/\",\"subapi/=lib/subapi/\"],\"optimizer\":{\"enabled\":true,\"runs\":999999},\"metadata\":{\"bytecodeHash\":\"ipfs\"},\"compilationTarget\":{\"lib/ORMP/src/ORMP.sol\":\"ORMP\"},\"evmVersion\":\"london\",\"libraries\":{}},\"sources\":{\"lib/ORMP/src/Channel.sol\":{\"keccak256\":\"0x286a6af99428230c2f67181181d52d63a647ee2d896c5855300eda37c52b2dbf\",\"urls\":[\"bzz-raw://84326f7649e0c727e1e5836c1f50e603fdc4811b0fd94b2ee5c682e10700f9ce\",\"dweb:/ipfs/Qmb32nTAUsyStw3dqynijZEaA9UC4ig6xoPBjhvdQEVDdn\"],\"license\":\"GPL-3.0\"},\"lib/ORMP/src/Common.sol\":{\"keccak256\":\"0x832de8c9469de78d3133d42716444007d3fa2aa2fe88a6fcbb81d119d8ffbd1d\",\"urls\":[\"bzz-raw://a0447d4aaebe147c97df506a8ae7801e13b3af6cc0c9ee31bc896a7b40e463ab\",\"dweb:/ipfs/QmTn2bjyJMsj9uV613Usy3ueyjFZ7Ugfo4ovR8UkPpMhX4\"],\"license\":\"GPL-3.0\"},\"lib/ORMP/src/ORMP.sol\":{\"keccak256\":\"0x952e7ad4b58f70d4e035f24c92ed4edecd1f89fd6da8bbfc05f627cf6ac16d3d\",\"urls\":[\"bzz-raw://0fdfb9d153015dd2f089b099cff5737ea3118a3aa3a3d72715d8ea1f0da2804f\",\"dweb:/ipfs/QmPdy8ia167eUG7CZkREZGqzDoxLs4h1xqUoLaK2UGxM6C\"],\"license\":\"GPL-3.0\"},\"lib/ORMP/src/UserConfig.sol\":{\"keccak256\":\"0x9d2e059b8e05cebe34733475fbea89e0f103fc8f7d909aa79186ed65837da6e0\",\"urls\":[\"bzz-raw://d4e465d388fe332f755e426d12018c09d727782f195d8e734776a2bff74cab38\",\"dweb:/ipfs/QmQp7wkLHMvYL5841uCDS1zhifsaJg4r2Wxty91b19bEcK\"],\"license\":\"GPL-3.0\"},\"lib/ORMP/src/imt/IncrementalMerkleTree.sol\":{\"keccak256\":\"0x535228355f8bd4339f42aa3dfe3cebcbdaad7a92704c4e3eeb0982dce8acf246\",\"urls\":[\"bzz-raw://9830ca0eb4837abdaaba548ea20fe14c67e23a392e09aaaa57b4032f9b81c49f\",\"dweb:/ipfs/QmYDw8c8zgLhxhxt3heCGJu7rYSgmEwKFjMfWrbJNcyPWj\"],\"license\":\"MIT OR Apache-2.0\"},\"lib/ORMP/src/interfaces/IOracle.sol\":{\"keccak256\":\"0xb1299974c86446972355bebb7c95697139c67f1731b1c1fa59a07c8cc575f527\",\"urls\":[\"bzz-raw://c96ee956d4731fb7bc0aa67f2783afa6ba2179fc1ef4419f2f70f727c9d7a7f1\",\"dweb:/ipfs/QmbqaqnRRHb2k25bzsvmapugHaTu1gDESGxk7MU5vgrPBo\"],\"license\":\"GPL-3.0\"},\"lib/ORMP/src/interfaces/IRelayer.sol\":{\"keccak256\":\"0xb2a4fc032746f072405210a118298000cda8634ddf4bc02b33f976be4eaf7209\",\"urls\":[\"bzz-raw://5627a3007ff8748f5be505de61d7cca46a2466ece354093f2958f3e2daab5445\",\"dweb:/ipfs/Qmb5Gefdqo5ruQX1id6hgpVDKiM9Vyy6wLurxDtC5377Lt\"],\"license\":\"GPL-3.0\"},\"lib/ORMP/src/interfaces/IVerifier.sol\":{\"keccak256\":\"0x60ad4dbeb54c04aa1c389a2dab7c9bca361eb2df245b3a29f0851be697876099\",\"urls\":[\"bzz-raw://57f1c8949abccaef95ab207257bfcf7b12f19756e0c90184ad39a8bdb2dc559a\",\"dweb:/ipfs/Qmd1LBiTn3nzfzhGHmdM2YdbWLUkca6wZfPBo1rWqPcoau\"],\"license\":\"GPL-3.0\"},\"lib/ORMP/src/security/ExcessivelySafeCall.sol\":{\"keccak256\":\"0x586361e0b312522e1b4dfbbd7a4965fd0b36642660c16cba3a733ee66f388508\",\"urls\":[\"bzz-raw://b0d67666dc6b468c91589b8d00f3f519c0904e40313631e08102058135681d68\",\"dweb:/ipfs/QmQHgut1NwT3Dr68fLtJzGwcTmPU9CxJZYF7euDfz2VGNL\"],\"license\":\"MIT OR Apache-2.0\"},\"lib/ORMP/src/security/ReentrancyGuard.sol\":{\"keccak256\":\"0xbb376a44d276cf677debb795e823759f563a26bd3805e413f7b12ee38e3e13be\",\"urls\":[\"bzz-raw://0eb116fec82b4b1fd0a9ebd259b375b06f5aaea104426c9219fda9d3abb8e311\",\"dweb:/ipfs/QmfMH7vZHdvY6qSb2hxRvzuSMrmXq17FzBx8PJzn4qFJZQ\"],\"license\":\"MIT\"}},\"version\":1}",
			"args": [
				"0xD70A2e6eACbdeDA77a5d4bBAE3bC70239A0e088f"
			],
			"bytecode": "0x60a0604052600160008190558055306080523480156200001e57600080fd5b50604051620025ef380380620025ef83398101604081905262000041916200008b565b600280546001600160a01b0319166001600160a01b03929092169190911790557f27ae5ba08d7291c96c8cbddcc148bf48a6d68c7974b94356f53754ef6171d757600655620000bd565b6000602082840312156200009e57600080fd5b81516001600160a01b0381168114620000b657600080fd5b9392505050565b608051612516620000d96000396000610c6201526125166000f3fe60806040526004361061010e5760003560e01c80634ea59979116100a55780638b22909111610074578063ebf0c71711610059578063ebf0c717146103bb578063ee6ad167146103d1578063f67c907c146103f457600080fd5b80638b22909114610388578063b0ff5e72146103a857600080fd5b80634ea59979146102f457806352720be41461031457806354fd4d50146103295780635e26462c1461037557600080fd5b80633f3108f7116100e15780633f3108f7146101f8578063413422491461024a57806345152ae31461029e5780634872824f146102c057600080fd5b80630f988a73146101135780631c2b2da6146101355780633c50e178146101685780633dbcc8d1146101e3575b600080fd5b34801561011f57600080fd5b5061013361012e366004611be2565b610424565b005b34801561014157600080fd5b50610155610150366004611c4d565b610521565b6040519081526020015b60405180910390f35b34801561017457600080fd5b506101b6610183366004611be2565b6005602052600090815260409020805460019091015473ffffffffffffffffffffffffffffffffffffffff918216911682565b6040805173ffffffffffffffffffffffffffffffffffffffff93841681529290911660208301520161015f565b3480156101ef57600080fd5b50602754610155565b34801561020457600080fd5b506002546102259073ffffffffffffffffffffffffffffffffffffffff1681565b60405173ffffffffffffffffffffffffffffffffffffffff909116815260200161015f565b34801561025657600080fd5b5061026a610265366004611be2565b610672565b60408051825173ffffffffffffffffffffffffffffffffffffffff908116825260209384015116928101929092520161015f565b3480156102aa57600080fd5b506102b3610729565b60405161015f9190611ce1565b3480156102cc57600080fd5b506003546004546101b69173ffffffffffffffffffffffffffffffffffffffff908116911682565b34801561030057600080fd5b5061013361030f366004611d17565b610740565b34801561032057600080fd5b506102b3610863565b34801561033557600080fd5b50604080518082018252600581527f322e302e300000000000000000000000000000000000000000000000000000006020820152905161015f9190611db8565b610155610383366004611dcb565b61089f565b34801561039457600080fd5b506101336103a3366004611d17565b610948565b3480156103b457600080fd5b5046610155565b3480156103c757600080fd5b5061015560065481565b6103e46103df366004611e72565b610a07565b604051901515815260200161015f565b34801561040057600080fd5b506103e461040f366004611ee4565b60286020526000908152604090205460ff1681565b60025473ffffffffffffffffffffffffffffffffffffffff1633146104aa576040517f08c379a000000000000000000000000000000000000000000000000000000000815260206004820152600560248201527f216175746800000000000000000000000000000000000000000000000000000060448201526064015b60405180910390fd5b6002805473ffffffffffffffffffffffffffffffffffffffff8381167fffffffffffffffffffffffff0000000000000000000000000000000000000000831681179093556040519116919082907fb0999394a8202229d1e14c6290230863233f18473f7504b3a7b1a27f9b014c9d90600090a35050565b60008061052d88610672565b90506000816020015173ffffffffffffffffffffffffffffffffffffffff166353179a7c8b8b8b8b8b6040518663ffffffff1660e01b8152600401610576959493929190611f46565b602060405180830381865afa158015610593573d6000803e3d6000fd5b505050506040513d601f19601f820116820180604052508101906105b79190611f82565b82516040517fa1dbf432000000000000000000000000000000000000000000000000000000008152600481018d905273ffffffffffffffffffffffffffffffffffffffff8c811660248301529293506000929091169063a1dbf43290604401602060405180830381865afa158015610633573d6000803e3d6000fd5b505050506040513d601f19601f820116820180604052508101906106579190611f82565b90506106638183611fca565b9b9a5050505050505050505050565b6040805180820182526000808252602080830182905273ffffffffffffffffffffffffffffffffffffffff858116835260058252918490208451808601909552805483168552600101549091169083018190529091906106eb5760045473ffffffffffffffffffffffffffffffffffffffff1660208201525b805173ffffffffffffffffffffffffffffffffffffffff166107235760035473ffffffffffffffffffffffffffffffffffffffff1681525b92915050565b610731611b9a565b61073b6007610ae4565b905090565b60025473ffffffffffffffffffffffffffffffffffffffff1633146107c1576040517f08c379a000000000000000000000000000000000000000000000000000000000815260206004820152600560248201527f216175746800000000000000000000000000000000000000000000000000000060448201526064016104a1565b60408051808201825273ffffffffffffffffffffffffffffffffffffffff8481168083529084166020928301819052600380547fffffffffffffffffffffffff0000000000000000000000000000000000000000908116841790915560048054909116821790558351918252918101919091527f504f152883e6158786ddfcce63f4d4d95ce8e404b1f6e6365a06f63849b7cb95910160405180910390a15050565b61086b611b9a565b604080516104008101918290529060079060209082845b815481526020019060010190808311610882575050505050905090565b600060016000541461090d576040517f08c379a000000000000000000000000000000000000000000000000000000000815260206004820152601060248201527f2173656e642d7265656e7472616e63790000000000000000000000000000000060448201526064016104a1565b600260009081553390610924828c8c8c8c8c610bda565b90506109358287838e8d8d8d610d9d565b60016000559a9950505050505050505050565b60408051808201825273ffffffffffffffffffffffffffffffffffffffff848116808352848216602080850182815233600081815260058452889020965187549087167fffffffffffffffffffffffff000000000000000000000000000000000000000091821617885591516001909701805497909616969091169590951790935584519182529181019190915290917f86b44d92ad94c11b25d0f08d0f55e8e235b4d165e62e541c02e8ee19f551c97b910160405180910390a25050565b60006001805414610a74576040517f08c379a000000000000000000000000000000000000000000000000000000000815260206004820152601060248201527f21726563762d7265656e7472616e63790000000000000000000000000000000060448201526064016104a1565b60026001556000610a86858585610e8d565b9050610a9a610a94866120e1565b82611155565b9150807f62b1dc20fd6f1518626da5b6f9897e8cd4ebadbad071bb66dc96a37c970087a883604051610ad0911515815260200190565b60405180910390a250600180559392505050565b610aec611b9a565b600060018360200154610aff9190612183565b6040805161040081019182905291925060009190859060209082845b815481526020019060010190808311610b1b57505050505090506000610b3f6111df565b905060005b6020811015610bd157600184821c811690819003610b8f57838260208110610b6e57610b6e612196565b6020020151868360208110610b8557610b85612196565b6020020152610bbe565b828260208110610ba157610ba1612196565b6020020151868360208110610bb857610bb8612196565b60200201525b5080610bc9816121c5565b915050610b44565b50505050919050565b6000468603610c45576040517f08c379a000000000000000000000000000000000000000000000000000000000815260206004820152600c60248201527f2163726f73732d636861696e000000000000000000000000000000000000000060448201526064016104a1565b6000610c5060275490565b905060006040518061010001604052807f000000000000000000000000000000000000000000000000000000000000000073ffffffffffffffffffffffffffffffffffffffff168152602001838152602001610ca94690565b81526020018a73ffffffffffffffffffffffffffffffffffffffff1681526020018981526020018873ffffffffffffffffffffffffffffffffffffffff16815260200187815260200186868080601f016020809104026020016040519081016040528093929190818152602001838380828437600092018290525093909452509293509150610d399050826116a0565b9050610d466007826116d0565b610d506007611814565b600681905560405182917f327110434bca326d1f70236295f59c8b472ebc683a6549ca9254697564fec4a591610d889190869061227e565b60405180910390a29998505050505050505050565b6000610da888610672565b90506000610dbe8260200151878b888888611827565b90506000610dd18360000151888c6118c3565b9050826020015173ffffffffffffffffffffffffffffffffffffffff16836000015173ffffffffffffffffffffffffffffffffffffffff16897ff7e134438bf3052b95eaa2f90f4177932297d80eb36186624c2f366cb8944ecf8486604051610e44929190918252602082015260400190565b60405180910390a4610e568183611fca565b341115610e81576000610e698284611fca565b610e739034612183565b9050610e7f8a82611973565b505b50505050505050505050565b600080610ea361026560c0870160a08801611be2565b602081015190915073ffffffffffffffffffffffffffffffffffffffff163314610f29576040517f08c379a000000000000000000000000000000000000000000000000000000000815260206004820152600560248201527f216175746800000000000000000000000000000000000000000000000000000060448201526064016104a1565b6000610f3c610f37876120e1565b6116a0565b9050816000015173ffffffffffffffffffffffffffffffffffffffff1663094f87c587604001358388886040518563ffffffff1660e01b8152600401610f859493929190612297565b602060405180830381865afa158015610fa2573d6000803e3d6000fd5b505050506040513d601f19601f82011682018060405250810190610fc691906122c1565b61102c576040517f08c379a000000000000000000000000000000000000000000000000000000000815260206004820152600660248201527f2170726f6f66000000000000000000000000000000000000000000000000000060448201526064016104a1565b60808601354614611099576040517f08c379a000000000000000000000000000000000000000000000000000000000815260206004820152600a60248201527f21746f436861696e49640000000000000000000000000000000000000000000060448201526064016104a1565b60008181526028602052604090205460ff1615611114576040517f08c379a00000000000000000000000000000000000000000000000000000000081526004016104a19060208082526004908201527f646f6e6500000000000000000000000000000000000000000000000000000000604082015260600190565b600081815260286020526040902080547fffffffffffffffffffffffffffffffffffffffffffffffffffffffffffffff001660011790559150509392505050565b60006111d78360c001513460008660e00151868860400151896060015160405160200161118594939291906122e3565b604080517fffffffffffffffffffffffffffffffffffffffffffffffffffffffffffffffe081840301815291905260a088015173ffffffffffffffffffffffffffffffffffffffff1693929190611a3d565b509392505050565b6111e7611b9a565b600081527fad3228b676f7d3cd4284a5443f17f1962b36e491b30a40b2405849e597ba5fb560208201527fb4c11951957c6f8f642c4af61cd6b24640fec6dc7fc607ee8206a99e92410d3060408201527f21ddb9a356815c3fac1026b6dec5df3124afbadb485c9ba5a3e3398a04b7ba8560608201527fe58769b32a1beaf1ea27375a44095a0d1fb664ce2dd358e7fcbfb78c26a1934460808201527f0eb01ebfc9ed27500cd4dfc979272d1f0913cc9f66540d7e8005811109e1cf2d60a08201527f887c22bd8750d34016ac3c66b5ff102dacdd73f6b014e710b51e8022af9a196860c08201527fffd70157e48063fc33c97a050f7f640233bf646cc98d9524c6b92bcf3ab56f8360e08201527f9867cc5f7f196b93bae1e27e6320742445d290f2263827498b54fec539f756af6101008201527fcefad4e508c098b9a7e1d8feb19955fb02ba9675585078710969d3440f5054e06101208201527ff9dc3e7fe016e050eff260334f18a5d4fe391d82092319f5964f2e2eb7c1c3a56101408201527ff8b13a49e282f609c317a833fb8d976d11517c571d1221a265d25af778ecf8926101608201527f3490c6ceeb450aecdc82e28293031d10c7d73bf85e57bf041a97360aa2c5d99c6101808201527fc1df82d9c4b87413eae2ef048f94b4d3554cea73d92b0f7af96e0271c691e2bb6101a08201527f5c67add7c6caf302256adedf7ab114da0acfe870d449a3a489f781d659e8becc6101c08201527fda7bce9f4e8618b6bd2f4132ce798cdc7a60e7e1460a7299e3c6342a579626d26101e08201527f2733e50f526ec2fa19a22b31e8ed50f23cd1fdf94c9154ed3a7609a2f1ff981f6102008201527fe1d3b5c807b281e4683cc6d6315cf95b9ade8641defcb32372f1c126e398ef7a6102208201527f5a2dce0a8a7f68bb74560f8f71837c2c2ebbcbf7fffb42ae1896f13f7c7479a06102408201527fb46a28b6f55540f89444f63de0378e3d121be09e06cc9ded1c20e65876d36aa06102608201527fc65e9645644786b620e2dd2ad648ddfcbf4a7e5b1a3a4ecfe7f64667a3f0b7e26102808201527ff4418588ed35a2458cffeb39b93d26f18d2ab13bdce6aee58e7b99359ec2dfd96102a08201527f5a9c16dc00d6ef18b7933a6f8dc65ccb55667138776f7dea101070dc8796e3776102c08201527f4df84f40ae0c8229d0d6069e5c8f39a7c299677a09d367fc7b05e3bc380ee6526102e08201527fcdc72595f74c7b1043d0e1ffbab734648c838dfb0527d971b602bc216c9619ef6103008201527f0abf5ac974a1ed57f4050aa510dd9c74f508277b39d7973bb2dfccc5eeb0618d6103208201527fb8cd74046ff337f0a7bf2c8e03e10f642c1886798d71806ab1e888d9e5ee87d06103408201527f838c5655cb21c6cb83313b5a631175dff4963772cce9108188b34ac87c81c41e6103608201527f662ee4dd2dd7b2bc707961b1e646c4047669dcb6584f0d8d770daf5d7e7deb2e6103808201527f388ab20e2573d171a88108e79d820e98f26c0b84aa8b2f4aa4968dbb818ea3226103a08201527f93237c50ba75ee485f4c22adf2f741400bdf8d6a9cc7df7ecae576221665d7356103c08201527f8448818bb4ae4562849e949e17ac16e0be16688e156b5cf15e098c627c0056a96103e082015290565b6000816040516020016116b39190612337565b604051602081830303815290604052805190602001209050919050565b60016116de6020600261246a565b6116e89190612183565b826020015410611754576040517f08c379a000000000000000000000000000000000000000000000000000000000815260206004820152601060248201527f6d65726b6c6520747265652066756c6c0000000000000000000000000000000060448201526064016104a1565b60018260200160008282546117699190611fca565b9091555050602082015460005b602081101561180657816001166001036117a5578284826020811061179d5761179d612196565b015550505050565b8381602081106117b7576117b7612196565b015460408051602081019290925281018490526060016040516020818303038152906040528051906020012092506002826117f29190612476565b9150806117fe816121c5565b915050611776565b5061180f6124b1565b505050565b6000610723826118226111df565b611ac8565b6000808773ffffffffffffffffffffffffffffffffffffffff166353179a7c88888888886040518663ffffffff1660e01b815260040161186b959493929190611f46565b602060405180830381865afa158015611888573d6000803e3d6000fd5b505050506040513d601f19601f820116820180604052508101906118ac9190611f82565b90506118b88882611973565b979650505050505050565b6040517fa1dbf4320000000000000000000000000000000000000000000000000000000081526004810183905273ffffffffffffffffffffffffffffffffffffffff8281166024830152600091829186169063a1dbf43290604401602060405180830381865afa15801561193b573d6000803e3d6000fd5b505050506040513d601f19601f8201168201806040525081019061195f9190611f82565b905061196b8582611973565b949350505050565b60008273ffffffffffffffffffffffffffffffffffffffff168260405160006040518083038185875af1925050503d80600081146119cd576040519150601f19603f3d011682016040523d82523d6000602084013e6119d2565b606091505b505090508061180f576040517f08c379a000000000000000000000000000000000000000000000000000000000815260206004820152600560248201527f2173656e6400000000000000000000000000000000000000000000000000000060448201526064016104a1565b6000606060008060008661ffff1667ffffffffffffffff811115611a6357611a63611fdd565b6040519080825280601f01601f191660200182016040528015611a8d576020820181803683370190505b5090506000808751602089018b8e8ef191503d925086831115611aae578692505b828152826000602083013e90999098509650505050505050565b6020820154600090815b6020811015611b9257600182821c166000868360208110611af557611af5612196565b0154905081600103611b32576040805160208101839052908101869052606001604051602081830303815290604052805190602001209450611b7d565b84868460208110611b4557611b45612196565b6020020151604051602001611b64929190918252602082015260400190565b6040516020818303038152906040528051906020012094505b50508080611b8a906121c5565b915050611ad2565b505092915050565b6040518061040001604052806020906020820280368337509192915050565b803573ffffffffffffffffffffffffffffffffffffffff81168114611bdd57600080fd5b919050565b600060208284031215611bf457600080fd5b611bfd82611bb9565b9392505050565b60008083601f840112611c1657600080fd5b50813567ffffffffffffffff811115611c2e57600080fd5b602083019150836020828501011115611c4657600080fd5b9250929050565b600080600080600080600060a0888a031215611c6857600080fd5b87359650611c7860208901611bb9565b955060408801359450606088013567ffffffffffffffff80821115611c9c57600080fd5b611ca88b838c01611c04565b909650945060808a0135915080821115611cc157600080fd5b50611cce8a828b01611c04565b989b979a50959850939692959293505050565b6104008101818360005b6020808210611cfa5750611d0e565b825184529283019290910190600101611ceb565b50505092915050565b60008060408385031215611d2a57600080fd5b611d3383611bb9565b9150611d4160208401611bb9565b90509250929050565b60005b83811015611d65578181015183820152602001611d4d565b50506000910152565b60008151808452611d86816020860160208601611d4a565b601f017fffffffffffffffffffffffffffffffffffffffffffffffffffffffffffffffe0169290920160200192915050565b602081526000611bfd6020830184611d6e565b60008060008060008060008060c0898b031215611de757600080fd5b88359750611df760208a01611bb9565b965060408901359550606089013567ffffffffffffffff80821115611e1b57600080fd5b611e278c838d01611c04565b9097509550859150611e3b60808c01611bb9565b945060a08b0135915080821115611e5157600080fd5b50611e5e8b828c01611c04565b999c989b5096995094979396929594505050565b600080600060408486031215611e8757600080fd5b833567ffffffffffffffff80821115611e9f57600080fd5b908501906101008288031215611eb457600080fd5b90935060208501359080821115611eca57600080fd5b50611ed786828701611c04565b9497909650939450505050565b600060208284031215611ef657600080fd5b5035919050565b8183528181602085013750600060208284010152600060207fffffffffffffffffffffffffffffffffffffffffffffffffffffffffffffffe0601f840116840101905092915050565b85815273ffffffffffffffffffffffffffffffffffffffff851660208201528360408201526080606082015260006118b8608083018486611efd565b600060208284031215611f9457600080fd5b5051919050565b7f4e487b7100000000000000000000000000000000000000000000000000000000600052601160045260246000fd5b8082018082111561072357610723611f9b565b7f4e487b7100000000000000000000000000000000000000000000000000000000600052604160045260246000fd5b604051610100810167ffffffffffffffff8111828210171561203057612030611fdd565b60405290565b600082601f83011261204757600080fd5b813567ffffffffffffffff8082111561206257612062611fdd565b604051601f83017fffffffffffffffffffffffffffffffffffffffffffffffffffffffffffffffe0908116603f011681019082821181831017156120a8576120a8611fdd565b816040528381528660208588010111156120c157600080fd5b836020870160208301376000602085830101528094505050505092915050565b600061010082360312156120f457600080fd5b6120fc61200c565b61210583611bb9565b8152602083013560208201526040830135604082015261212760608401611bb9565b60608201526080830135608082015261214260a08401611bb9565b60a082015260c083013560c082015260e083013567ffffffffffffffff81111561216b57600080fd5b61217736828601612036565b60e08301525092915050565b8181038181111561072357610723611f9b565b7f4e487b7100000000000000000000000000000000000000000000000000000000600052603260045260246000fd5b60007fffffffffffffffffffffffffffffffffffffffffffffffffffffffffffffffff82036121f6576121f6611f9b565b5060010190565b600061010073ffffffffffffffffffffffffffffffffffffffff8084511685526020840151602086015260408401516040860152806060850151166060860152608084015160808601528060a08501511660a08601525060c083015160c085015260e08301518160e086015261227582860182611d6e565b95945050505050565b82815260406020820152600061196b60408301846121fd565b8481528360208201526060604082015260006122b7606083018486611efd565b9695505050505050565b6000602082840312156122d357600080fd5b81518015158114611bfd57600080fd5b600085516122f5818460208a01611d4a565b9190910193845250602083019190915260601b7fffffffffffffffffffffffffffffffffffffffff000000000000000000000000166040820152605401919050565b602081526000611bfd60208301846121fd565b600181815b808511156123a357817fffffffffffffffffffffffffffffffffffffffffffffffffffffffffffffffff0482111561238957612389611f9b565b8085161561239657918102915b93841c939080029061234f565b509250929050565b6000826123ba57506001610723565b816123c757506000610723565b81600181146123dd57600281146123e757612403565b6001915050610723565b60ff8411156123f8576123f8611f9b565b50506001821b610723565b5060208310610133831016604e8410600b8410161715612426575081810a610723565b612430838361234a565b807fffffffffffffffffffffffffffffffffffffffffffffffffffffffffffffffff0482111561246257612462611f9b565b029392505050565b6000611bfd83836123ab565b6000826124ac577f4e487b7100000000000000000000000000000000000000000000000000000000600052601260045260246000fd5b500490565b7f4e487b7100000000000000000000000000000000000000000000000000000000600052600160045260246000fdfea2646970667358221220e4b3459bef63f5af5ae2294d65e90d4caa676610aebba195cd887e674ddf857a64736f6c63430008110033",
			"deployedBytecode": "0x60806040526004361061010e5760003560e01c80634ea59979116100a55780638b22909111610074578063ebf0c71711610059578063ebf0c717146103bb578063ee6ad167146103d1578063f67c907c146103f457600080fd5b80638b22909114610388578063b0ff5e72146103a857600080fd5b80634ea59979146102f457806352720be41461031457806354fd4d50146103295780635e26462c1461037557600080fd5b80633f3108f7116100e15780633f3108f7146101f8578063413422491461024a57806345152ae31461029e5780634872824f146102c057600080fd5b80630f988a73146101135780631c2b2da6146101355780633c50e178146101685780633dbcc8d1146101e3575b600080fd5b34801561011f57600080fd5b5061013361012e366004611be2565b610424565b005b34801561014157600080fd5b50610155610150366004611c4d565b610521565b6040519081526020015b60405180910390f35b34801561017457600080fd5b506101b6610183366004611be2565b6005602052600090815260409020805460019091015473ffffffffffffffffffffffffffffffffffffffff918216911682565b6040805173ffffffffffffffffffffffffffffffffffffffff93841681529290911660208301520161015f565b3480156101ef57600080fd5b50602754610155565b34801561020457600080fd5b506002546102259073ffffffffffffffffffffffffffffffffffffffff1681565b60405173ffffffffffffffffffffffffffffffffffffffff909116815260200161015f565b34801561025657600080fd5b5061026a610265366004611be2565b610672565b60408051825173ffffffffffffffffffffffffffffffffffffffff908116825260209384015116928101929092520161015f565b3480156102aa57600080fd5b506102b3610729565b60405161015f9190611ce1565b3480156102cc57600080fd5b506003546004546101b69173ffffffffffffffffffffffffffffffffffffffff908116911682565b34801561030057600080fd5b5061013361030f366004611d17565b610740565b34801561032057600080fd5b506102b3610863565b34801561033557600080fd5b50604080518082018252600581527f322e302e300000000000000000000000000000000000000000000000000000006020820152905161015f9190611db8565b610155610383366004611dcb565b61089f565b34801561039457600080fd5b506101336103a3366004611d17565b610948565b3480156103b457600080fd5b5046610155565b3480156103c757600080fd5b5061015560065481565b6103e46103df366004611e72565b610a07565b604051901515815260200161015f565b34801561040057600080fd5b506103e461040f366004611ee4565b60286020526000908152604090205460ff1681565b60025473ffffffffffffffffffffffffffffffffffffffff1633146104aa576040517f08c379a000000000000000000000000000000000000000000000000000000000815260206004820152600560248201527f216175746800000000000000000000000000000000000000000000000000000060448201526064015b60405180910390fd5b6002805473ffffffffffffffffffffffffffffffffffffffff8381167fffffffffffffffffffffffff0000000000000000000000000000000000000000831681179093556040519116919082907fb0999394a8202229d1e14c6290230863233f18473f7504b3a7b1a27f9b014c9d90600090a35050565b60008061052d88610672565b90506000816020015173ffffffffffffffffffffffffffffffffffffffff166353179a7c8b8b8b8b8b6040518663ffffffff1660e01b8152600401610576959493929190611f46565b602060405180830381865afa158015610593573d6000803e3d6000fd5b505050506040513d601f19601f820116820180604052508101906105b79190611f82565b82516040517fa1dbf432000000000000000000000000000000000000000000000000000000008152600481018d905273ffffffffffffffffffffffffffffffffffffffff8c811660248301529293506000929091169063a1dbf43290604401602060405180830381865afa158015610633573d6000803e3d6000fd5b505050506040513d601f19601f820116820180604052508101906106579190611f82565b90506106638183611fca565b9b9a5050505050505050505050565b6040805180820182526000808252602080830182905273ffffffffffffffffffffffffffffffffffffffff858116835260058252918490208451808601909552805483168552600101549091169083018190529091906106eb5760045473ffffffffffffffffffffffffffffffffffffffff1660208201525b805173ffffffffffffffffffffffffffffffffffffffff166107235760035473ffffffffffffffffffffffffffffffffffffffff1681525b92915050565b610731611b9a565b61073b6007610ae4565b905090565b60025473ffffffffffffffffffffffffffffffffffffffff1633146107c1576040517f08c379a000000000000000000000000000000000000000000000000000000000815260206004820152600560248201527f216175746800000000000000000000000000000000000000000000000000000060448201526064016104a1565b60408051808201825273ffffffffffffffffffffffffffffffffffffffff8481168083529084166020928301819052600380547fffffffffffffffffffffffff0000000000000000000000000000000000000000908116841790915560048054909116821790558351918252918101919091527f504f152883e6158786ddfcce63f4d4d95ce8e404b1f6e6365a06f63849b7cb95910160405180910390a15050565b61086b611b9a565b604080516104008101918290529060079060209082845b815481526020019060010190808311610882575050505050905090565b600060016000541461090d576040517f08c379a000000000000000000000000000000000000000000000000000000000815260206004820152601060248201527f2173656e642d7265656e7472616e63790000000000000000000000000000000060448201526064016104a1565b600260009081553390610924828c8c8c8c8c610bda565b90506109358287838e8d8d8d610d9d565b60016000559a9950505050505050505050565b60408051808201825273ffffffffffffffffffffffffffffffffffffffff848116808352848216602080850182815233600081815260058452889020965187549087167fffffffffffffffffffffffff000000000000000000000000000000000000000091821617885591516001909701805497909616969091169590951790935584519182529181019190915290917f86b44d92ad94c11b25d0f08d0f55e8e235b4d165e62e541c02e8ee19f551c97b910160405180910390a25050565b60006001805414610a74576040517f08c379a000000000000000000000000000000000000000000000000000000000815260206004820152601060248201527f21726563762d7265656e7472616e63790000000000000000000000000000000060448201526064016104a1565b60026001556000610a86858585610e8d565b9050610a9a610a94866120e1565b82611155565b9150807f62b1dc20fd6f1518626da5b6f9897e8cd4ebadbad071bb66dc96a37c970087a883604051610ad0911515815260200190565b60405180910390a250600180559392505050565b610aec611b9a565b600060018360200154610aff9190612183565b6040805161040081019182905291925060009190859060209082845b815481526020019060010190808311610b1b57505050505090506000610b3f6111df565b905060005b6020811015610bd157600184821c811690819003610b8f57838260208110610b6e57610b6e612196565b6020020151868360208110610b8557610b85612196565b6020020152610bbe565b828260208110610ba157610ba1612196565b6020020151868360208110610bb857610bb8612196565b60200201525b5080610bc9816121c5565b915050610b44565b50505050919050565b6000468603610c45576040517f08c379a000000000000000000000000000000000000000000000000000000000815260206004820152600c60248201527f2163726f73732d636861696e000000000000000000000000000000000000000060448201526064016104a1565b6000610c5060275490565b905060006040518061010001604052807f00000000000000000000000004a0af6f07aad4096083d5745f728a221bc563cf73ffffffffffffffffffffffffffffffffffffffff168152602001838152602001610ca94690565b81526020018a73ffffffffffffffffffffffffffffffffffffffff1681526020018981526020018873ffffffffffffffffffffffffffffffffffffffff16815260200187815260200186868080601f016020809104026020016040519081016040528093929190818152602001838380828437600092018290525093909452509293509150610d399050826116a0565b9050610d466007826116d0565b610d506007611814565b600681905560405182917f327110434bca326d1f70236295f59c8b472ebc683a6549ca9254697564fec4a591610d889190869061227e565b60405180910390a29998505050505050505050565b6000610da888610672565b90506000610dbe8260200151878b888888611827565b90506000610dd18360000151888c6118c3565b9050826020015173ffffffffffffffffffffffffffffffffffffffff16836000015173ffffffffffffffffffffffffffffffffffffffff16897ff7e134438bf3052b95eaa2f90f4177932297d80eb36186624c2f366cb8944ecf8486604051610e44929190918252602082015260400190565b60405180910390a4610e568183611fca565b341115610e81576000610e698284611fca565b610e739034612183565b9050610e7f8a82611973565b505b50505050505050505050565b600080610ea361026560c0870160a08801611be2565b602081015190915073ffffffffffffffffffffffffffffffffffffffff163314610f29576040517f08c379a000000000000000000000000000000000000000000000000000000000815260206004820152600560248201527f216175746800000000000000000000000000000000000000000000000000000060448201526064016104a1565b6000610f3c610f37876120e1565b6116a0565b9050816000015173ffffffffffffffffffffffffffffffffffffffff1663094f87c587604001358388886040518563ffffffff1660e01b8152600401610f859493929190612297565b602060405180830381865afa158015610fa2573d6000803e3d6000fd5b505050506040513d601f19601f82011682018060405250810190610fc691906122c1565b61102c576040517f08c379a000000000000000000000000000000000000000000000000000000000815260206004820152600660248201527f2170726f6f66000000000000000000000000000000000000000000000000000060448201526064016104a1565b60808601354614611099576040517f08c379a000000000000000000000000000000000000000000000000000000000815260206004820152600a60248201527f21746f436861696e49640000000000000000000000000000000000000000000060448201526064016104a1565b60008181526028602052604090205460ff1615611114576040517f08c379a00000000000000000000000000000000000000000000000000000000081526004016104a19060208082526004908201527f646f6e6500000000000000000000000000000000000000000000000000000000604082015260600190565b600081815260286020526040902080547fffffffffffffffffffffffffffffffffffffffffffffffffffffffffffffff001660011790559150509392505050565b60006111d78360c001513460008660e00151868860400151896060015160405160200161118594939291906122e3565b604080517fffffffffffffffffffffffffffffffffffffffffffffffffffffffffffffffe081840301815291905260a088015173ffffffffffffffffffffffffffffffffffffffff1693929190611a3d565b509392505050565b6111e7611b9a565b600081527fad3228b676f7d3cd4284a5443f17f1962b36e491b30a40b2405849e597ba5fb560208201527fb4c11951957c6f8f642c4af61cd6b24640fec6dc7fc607ee8206a99e92410d3060408201527f21ddb9a356815c3fac1026b6dec5df3124afbadb485c9ba5a3e3398a04b7ba8560608201527fe58769b32a1beaf1ea27375a44095a0d1fb664ce2dd358e7fcbfb78c26a1934460808201527f0eb01ebfc9ed27500cd4dfc979272d1f0913cc9f66540d7e8005811109e1cf2d60a08201527f887c22bd8750d34016ac3c66b5ff102dacdd73f6b014e710b51e8022af9a196860c08201527fffd70157e48063fc33c97a050f7f640233bf646cc98d9524c6b92bcf3ab56f8360e08201527f9867cc5f7f196b93bae1e27e6320742445d290f2263827498b54fec539f756af6101008201527fcefad4e508c098b9a7e1d8feb19955fb02ba9675585078710969d3440f5054e06101208201527ff9dc3e7fe016e050eff260334f18a5d4fe391d82092319f5964f2e2eb7c1c3a56101408201527ff8b13a49e282f609c317a833fb8d976d11517c571d1221a265d25af778ecf8926101608201527f3490c6ceeb450aecdc82e28293031d10c7d73bf85e57bf041a97360aa2c5d99c6101808201527fc1df82d9c4b87413eae2ef048f94b4d3554cea73d92b0f7af96e0271c691e2bb6101a08201527f5c67add7c6caf302256adedf7ab114da0acfe870d449a3a489f781d659e8becc6101c08201527fda7bce9f4e8618b6bd2f4132ce798cdc7a60e7e1460a7299e3c6342a579626d26101e08201527f2733e50f526ec2fa19a22b31e8ed50f23cd1fdf94c9154ed3a7609a2f1ff981f6102008201527fe1d3b5c807b281e4683cc6d6315cf95b9ade8641defcb32372f1c126e398ef7a6102208201527f5a2dce0a8a7f68bb74560f8f71837c2c2ebbcbf7fffb42ae1896f13f7c7479a06102408201527fb46a28b6f55540f89444f63de0378e3d121be09e06cc9ded1c20e65876d36aa06102608201527fc65e9645644786b620e2dd2ad648ddfcbf4a7e5b1a3a4ecfe7f64667a3f0b7e26102808201527ff4418588ed35a2458cffeb39b93d26f18d2ab13bdce6aee58e7b99359ec2dfd96102a08201527f5a9c16dc00d6ef18b7933a6f8dc65ccb55667138776f7dea101070dc8796e3776102c08201527f4df84f40ae0c8229d0d6069e5c8f39a7c299677a09d367fc7b05e3bc380ee6526102e08201527fcdc72595f74c7b1043d0e1ffbab734648c838dfb0527d971b602bc216c9619ef6103008201527f0abf5ac974a1ed57f4050aa510dd9c74f508277b39d7973bb2dfccc5eeb0618d6103208201527fb8cd74046ff337f0a7bf2c8e03e10f642c1886798d71806ab1e888d9e5ee87d06103408201527f838c5655cb21c6cb83313b5a631175dff4963772cce9108188b34ac87c81c41e6103608201527f662ee4dd2dd7b2bc707961b1e646c4047669dcb6584f0d8d770daf5d7e7deb2e6103808201527f388ab20e2573d171a88108e79d820e98f26c0b84aa8b2f4aa4968dbb818ea3226103a08201527f93237c50ba75ee485f4c22adf2f741400bdf8d6a9cc7df7ecae576221665d7356103c08201527f8448818bb4ae4562849e949e17ac16e0be16688e156b5cf15e098c627c0056a96103e082015290565b6000816040516020016116b39190612337565b604051602081830303815290604052805190602001209050919050565b60016116de6020600261246a565b6116e89190612183565b826020015410611754576040517f08c379a000000000000000000000000000000000000000000000000000000000815260206004820152601060248201527f6d65726b6c6520747265652066756c6c0000000000000000000000000000000060448201526064016104a1565b60018260200160008282546117699190611fca565b9091555050602082015460005b602081101561180657816001166001036117a5578284826020811061179d5761179d612196565b015550505050565b8381602081106117b7576117b7612196565b015460408051602081019290925281018490526060016040516020818303038152906040528051906020012092506002826117f29190612476565b9150806117fe816121c5565b915050611776565b5061180f6124b1565b505050565b6000610723826118226111df565b611ac8565b6000808773ffffffffffffffffffffffffffffffffffffffff166353179a7c88888888886040518663ffffffff1660e01b815260040161186b959493929190611f46565b602060405180830381865afa158015611888573d6000803e3d6000fd5b505050506040513d601f19601f820116820180604052508101906118ac9190611f82565b90506118b88882611973565b979650505050505050565b6040517fa1dbf4320000000000000000000000000000000000000000000000000000000081526004810183905273ffffffffffffffffffffffffffffffffffffffff8281166024830152600091829186169063a1dbf43290604401602060405180830381865afa15801561193b573d6000803e3d6000fd5b505050506040513d601f19601f8201168201806040525081019061195f9190611f82565b905061196b8582611973565b949350505050565b60008273ffffffffffffffffffffffffffffffffffffffff168260405160006040518083038185875af1925050503d80600081146119cd576040519150601f19603f3d011682016040523d82523d6000602084013e6119d2565b606091505b505090508061180f576040517f08c379a000000000000000000000000000000000000000000000000000000000815260206004820152600560248201527f2173656e6400000000000000000000000000000000000000000000000000000060448201526064016104a1565b6000606060008060008661ffff1667ffffffffffffffff811115611a6357611a63611fdd565b6040519080825280601f01601f191660200182016040528015611a8d576020820181803683370190505b5090506000808751602089018b8e8ef191503d925086831115611aae578692505b828152826000602083013e90999098509650505050505050565b6020820154600090815b6020811015611b9257600182821c166000868360208110611af557611af5612196565b0154905081600103611b32576040805160208101839052908101869052606001604051602081830303815290604052805190602001209450611b7d565b84868460208110611b4557611b45612196565b6020020151604051602001611b64929190918252602082015260400190565b6040516020818303038152906040528051906020012094505b50508080611b8a906121c5565b915050611ad2565b505092915050565b6040518061040001604052806020906020820280368337509192915050565b803573ffffffffffffffffffffffffffffffffffffffff81168114611bdd57600080fd5b919050565b600060208284031215611bf457600080fd5b611bfd82611bb9565b9392505050565b60008083601f840112611c1657600080fd5b50813567ffffffffffffffff811115611c2e57600080fd5b602083019150836020828501011115611c4657600080fd5b9250929050565b600080600080600080600060a0888a031215611c6857600080fd5b87359650611c7860208901611bb9565b955060408801359450606088013567ffffffffffffffff80821115611c9c57600080fd5b611ca88b838c01611c04565b909650945060808a0135915080821115611cc157600080fd5b50611cce8a828b01611c04565b989b979a50959850939692959293505050565b6104008101818360005b6020808210611cfa5750611d0e565b825184529283019290910190600101611ceb565b50505092915050565b60008060408385031215611d2a57600080fd5b611d3383611bb9565b9150611d4160208401611bb9565b90509250929050565b60005b83811015611d65578181015183820152602001611d4d565b50506000910152565b60008151808452611d86816020860160208601611d4a565b601f017fffffffffffffffffffffffffffffffffffffffffffffffffffffffffffffffe0169290920160200192915050565b602081526000611bfd6020830184611d6e565b60008060008060008060008060c0898b031215611de757600080fd5b88359750611df760208a01611bb9565b965060408901359550606089013567ffffffffffffffff80821115611e1b57600080fd5b611e278c838d01611c04565b9097509550859150611e3b60808c01611bb9565b945060a08b0135915080821115611e5157600080fd5b50611e5e8b828c01611c04565b999c989b5096995094979396929594505050565b600080600060408486031215611e8757600080fd5b833567ffffffffffffffff80821115611e9f57600080fd5b908501906101008288031215611eb457600080fd5b90935060208501359080821115611eca57600080fd5b50611ed786828701611c04565b9497909650939450505050565b600060208284031215611ef657600080fd5b5035919050565b8183528181602085013750600060208284010152600060207fffffffffffffffffffffffffffffffffffffffffffffffffffffffffffffffe0601f840116840101905092915050565b85815273ffffffffffffffffffffffffffffffffffffffff851660208201528360408201526080606082015260006118b8608083018486611efd565b600060208284031215611f9457600080fd5b5051919050565b7f4e487b7100000000000000000000000000000000000000000000000000000000600052601160045260246000fd5b8082018082111561072357610723611f9b565b7f4e487b7100000000000000000000000000000000000000000000000000000000600052604160045260246000fd5b604051610100810167ffffffffffffffff8111828210171561203057612030611fdd565b60405290565b600082601f83011261204757600080fd5b813567ffffffffffffffff8082111561206257612062611fdd565b604051601f83017fffffffffffffffffffffffffffffffffffffffffffffffffffffffffffffffe0908116603f011681019082821181831017156120a8576120a8611fdd565b816040528381528660208588010111156120c157600080fd5b836020870160208301376000602085830101528094505050505092915050565b600061010082360312156120f457600080fd5b6120fc61200c565b61210583611bb9565b8152602083013560208201526040830135604082015261212760608401611bb9565b60608201526080830135608082015261214260a08401611bb9565b60a082015260c083013560c082015260e083013567ffffffffffffffff81111561216b57600080fd5b61217736828601612036565b60e08301525092915050565b8181038181111561072357610723611f9b565b7f4e487b7100000000000000000000000000000000000000000000000000000000600052603260045260246000fd5b60007fffffffffffffffffffffffffffffffffffffffffffffffffffffffffffffffff82036121f6576121f6611f9b565b5060010190565b600061010073ffffffffffffffffffffffffffffffffffffffff8084511685526020840151602086015260408401516040860152806060850151166060860152608084015160808601528060a08501511660a08601525060c083015160c085015260e08301518160e086015261227582860182611d6e565b95945050505050565b82815260406020820152600061196b60408301846121fd565b8481528360208201526060604082015260006122b7606083018486611efd565b9695505050505050565b6000602082840312156122d357600080fd5b81518015158114611bfd57600080fd5b600085516122f5818460208a01611d4a565b9190910193845250602083019190915260601b7fffffffffffffffffffffffffffffffffffffffff000000000000000000000000166040820152605401919050565b602081526000611bfd60208301846121fd565b600181815b808511156123a357817fffffffffffffffffffffffffffffffffffffffffffffffffffffffffffffffff0482111561238957612389611f9b565b8085161561239657918102915b93841c939080029061234f565b509250929050565b6000826123ba57506001610723565b816123c757506000610723565b81600181146123dd57600281146123e757612403565b6001915050610723565b60ff8411156123f8576123f8611f9b565b50506001821b610723565b5060208310610133831016604e8410600b8410161715612426575081810a610723565b612430838361234a565b807fffffffffffffffffffffffffffffffffffffffffffffffffffffffffffffffff0482111561246257612462611f9b565b029392505050565b6000611bfd83836123ab565b6000826124ac577f4e487b7100000000000000000000000000000000000000000000000000000000600052601260045260246000fd5b500490565b7f4e487b7100000000000000000000000000000000000000000000000000000000600052600160045260246000fdfea2646970667358221220e4b3459bef63f5af5ae2294d65e90d4caa676610aebba195cd887e674ddf857a64736f6c63430008110033",
			"devdoc": {
				"kind": "dev",
				"methods": {
					"LOCAL_CHAINID()": {
						"details": "Fetch local chain id.",
						"returns": {
							"chainId": "Local chain id."
						}
					},
					"changeSetter(address)": {
						"details": "Change setter.",
						"params": {
							"newSetter": "New setter."
						}
					},
					"fee(uint256,address,uint256,bytes,bytes)": {
						"params": {
							"encoded": "The calldata which encoded by ABI Encoding.",
							"gasLimit": "Gas limit for destination user application used."
						}
					},
					"getAppConfig(address)": {
						"details": "Fetch user application config.",
						"params": {
							"ua": "User application contract address."
						},
						"returns": {
							"_0": "user application config."
						}
					},
					"imtBranch()": {
						"details": "Fetch the branch of incremental merkle tree."
					},
					"messageCount()": {
						"details": "Fetch the messages count of incremental merkle tree."
					},
					"prove()": {
						"details": "Fetch the latest message proof"
					},
					"recv((address,uint256,uint256,address,uint256,address,uint256,bytes),bytes)": {
						"details": "Recv verified message from Channel and dispatch to destination user application address.",
						"params": {
							"message": "Verified receive message info.",
							"proof": "Message proof of this message."
						},
						"returns": {
							"dispatchResult": "Result of the message dispatch."
						}
					},
					"send(uint256,address,uint256,bytes,address,bytes)": {
						"details": "Send a cross-chain message over the endpoint.",
						"params": {
							"encoded": "The calldata which encoded by ABI Encoding.",
							"gasLimit": "Gas limit for destination user application used.",
							"refund": "Return extra fee to refund address.",
							"to": "User application contract address which receive the message.",
							"toChainId": "The Message destination chain id."
						}
					},
					"setAppConfig(address,address)": {
						"params": {
							"oracle": "Oracle which user application.",
							"relayer": "Relayer which user application choose."
						}
					},
					"setDefaultConfig(address,address)": {
						"details": "Set default user config for all user application.",
						"params": {
							"oracle": "Default oracle.",
							"relayer": "Default relayer."
						}
					}
				},
				"version": 1
			},
			"userdoc": {
				"kind": "user",
				"methods": {
					"changeSetter(address)": {
						"notice": "Only current setter could call."
					},
					"getAppConfig(address)": {
						"notice": "If user application has not configured, then the default user config is used."
					},
					"recv((address,uint256,uint256,address,uint256,address,uint256,bytes),bytes)": {
						"notice": "Only channel could call this function."
					},
					"send(uint256,address,uint256,bytes,address,bytes)": {
						"notice": "follow https://eips.ethereum.org/EIPS/eip-5750"
					},
					"setAppConfig(address,address)": {
						"notice": "Set user application config."
					},
					"setDefaultConfig(address,address)": {
						"notice": "Only setter could call."
					}
				},
				"version": 1
			},
			"gitCommit": "ea8caff26eeb31c3189033ff62ea530464fdf5ab",
			"sourceName": "lib/ORMP/src/ORMP.sol",
			"chainId": "421614",
			"linkReferences": {},
			"deployedLinkReferences": {}
		},
		{
			"_format": "sphinx-sol-ct-artifact-1",
			"merkleRoot": "0xdbdc1537daa8d434fbf11272db559032763ec92bc9c4d12cec105ffd1386065f",
			"contractName": "ORMP",
			"address": "0xdD78AB76AccAc9eC38613dC7e488870119725914",
			"abi": [
				{
					"type": "constructor",
					"inputs": [
						{
							"name": "dao",
							"type": "address",
							"internalType": "address"
						}
					],
					"stateMutability": "nonpayable"
				},
				{
					"type": "function",
					"name": "LOCAL_CHAINID",
					"inputs": [],
					"outputs": [
						{
							"name": "chainId",
							"type": "uint256",
							"internalType": "uint256"
						}
					],
					"stateMutability": "view"
				},
				{
					"type": "function",
					"name": "changeSetter",
					"inputs": [
						{
							"name": "newSetter",
							"type": "address",
							"internalType": "address"
						}
					],
					"outputs": [],
					"stateMutability": "nonpayable"
				},
				{
					"type": "function",
					"name": "defaultUC",
					"inputs": [],
					"outputs": [
						{
							"name": "oracle",
							"type": "address",
							"internalType": "address"
						},
						{
							"name": "relayer",
							"type": "address",
							"internalType": "address"
						}
					],
					"stateMutability": "view"
				},
				{
					"type": "function",
					"name": "dones",
					"inputs": [
						{
							"name": "",
							"type": "bytes32",
							"internalType": "bytes32"
						}
					],
					"outputs": [
						{
							"name": "",
							"type": "bool",
							"internalType": "bool"
						}
					],
					"stateMutability": "view"
				},
				{
					"type": "function",
					"name": "fee",
					"inputs": [
						{
							"name": "toChainId",
							"type": "uint256",
							"internalType": "uint256"
						},
						{
							"name": "ua",
							"type": "address",
							"internalType": "address"
						},
						{
							"name": "gasLimit",
							"type": "uint256",
							"internalType": "uint256"
						},
						{
							"name": "encoded",
							"type": "bytes",
							"internalType": "bytes"
						},
						{
							"name": "",
							"type": "bytes",
							"internalType": "bytes"
						}
					],
					"outputs": [
						{
							"name": "",
							"type": "uint256",
							"internalType": "uint256"
						}
					],
					"stateMutability": "view"
				},
				{
					"type": "function",
					"name": "getAppConfig",
					"inputs": [
						{
							"name": "ua",
							"type": "address",
							"internalType": "address"
						}
					],
					"outputs": [
						{
							"name": "",
							"type": "tuple",
							"internalType": "struct UC",
							"components": [
								{
									"name": "oracle",
									"type": "address",
									"internalType": "address"
								},
								{
									"name": "relayer",
									"type": "address",
									"internalType": "address"
								}
							]
						}
					],
					"stateMutability": "view"
				},
				{
					"type": "function",
					"name": "imtBranch",
					"inputs": [],
					"outputs": [
						{
							"name": "",
							"type": "bytes32[32]",
							"internalType": "bytes32[32]"
						}
					],
					"stateMutability": "view"
				},
				{
					"type": "function",
					"name": "messageCount",
					"inputs": [],
					"outputs": [
						{
							"name": "",
							"type": "uint256",
							"internalType": "uint256"
						}
					],
					"stateMutability": "view"
				},
				{
					"type": "function",
					"name": "prove",
					"inputs": [],
					"outputs": [
						{
							"name": "",
							"type": "bytes32[32]",
							"internalType": "bytes32[32]"
						}
					],
					"stateMutability": "view"
				},
				{
					"type": "function",
					"name": "recv",
					"inputs": [
						{
							"name": "message",
							"type": "tuple",
							"internalType": "struct Message",
							"components": [
								{
									"name": "channel",
									"type": "address",
									"internalType": "address"
								},
								{
									"name": "index",
									"type": "uint256",
									"internalType": "uint256"
								},
								{
									"name": "fromChainId",
									"type": "uint256",
									"internalType": "uint256"
								},
								{
									"name": "from",
									"type": "address",
									"internalType": "address"
								},
								{
									"name": "toChainId",
									"type": "uint256",
									"internalType": "uint256"
								},
								{
									"name": "to",
									"type": "address",
									"internalType": "address"
								},
								{
									"name": "gasLimit",
									"type": "uint256",
									"internalType": "uint256"
								},
								{
									"name": "encoded",
									"type": "bytes",
									"internalType": "bytes"
								}
							]
						},
						{
							"name": "proof",
							"type": "bytes",
							"internalType": "bytes"
						}
					],
					"outputs": [
						{
							"name": "dispatchResult",
							"type": "bool",
							"internalType": "bool"
						}
					],
					"stateMutability": "payable"
				},
				{
					"type": "function",
					"name": "root",
					"inputs": [],
					"outputs": [
						{
							"name": "",
							"type": "bytes32",
							"internalType": "bytes32"
						}
					],
					"stateMutability": "view"
				},
				{
					"type": "function",
					"name": "send",
					"inputs": [
						{
							"name": "toChainId",
							"type": "uint256",
							"internalType": "uint256"
						},
						{
							"name": "to",
							"type": "address",
							"internalType": "address"
						},
						{
							"name": "gasLimit",
							"type": "uint256",
							"internalType": "uint256"
						},
						{
							"name": "encoded",
							"type": "bytes",
							"internalType": "bytes"
						},
						{
							"name": "refund",
							"type": "address",
							"internalType": "address"
						},
						{
							"name": "",
							"type": "bytes",
							"internalType": "bytes"
						}
					],
					"outputs": [
						{
							"name": "",
							"type": "bytes32",
							"internalType": "bytes32"
						}
					],
					"stateMutability": "payable"
				},
				{
					"type": "function",
					"name": "setAppConfig",
					"inputs": [
						{
							"name": "oracle",
							"type": "address",
							"internalType": "address"
						},
						{
							"name": "relayer",
							"type": "address",
							"internalType": "address"
						}
					],
					"outputs": [],
					"stateMutability": "nonpayable"
				},
				{
					"type": "function",
					"name": "setDefaultConfig",
					"inputs": [
						{
							"name": "oracle",
							"type": "address",
							"internalType": "address"
						},
						{
							"name": "relayer",
							"type": "address",
							"internalType": "address"
						}
					],
					"outputs": [],
					"stateMutability": "nonpayable"
				},
				{
					"type": "function",
					"name": "setter",
					"inputs": [],
					"outputs": [
						{
							"name": "",
							"type": "address",
							"internalType": "address"
						}
					],
					"stateMutability": "view"
				},
				{
					"type": "function",
					"name": "ucOf",
					"inputs": [
						{
							"name": "",
							"type": "address",
							"internalType": "address"
						}
					],
					"outputs": [
						{
							"name": "oracle",
							"type": "address",
							"internalType": "address"
						},
						{
							"name": "relayer",
							"type": "address",
							"internalType": "address"
						}
					],
					"stateMutability": "view"
				},
				{
					"type": "function",
					"name": "version",
					"inputs": [],
					"outputs": [
						{
							"name": "",
							"type": "string",
							"internalType": "string"
						}
					],
					"stateMutability": "pure"
				},
				{
					"type": "event",
					"name": "AppConfigUpdated",
					"inputs": [
						{
							"name": "ua",
							"type": "address",
							"indexed": true,
							"internalType": "address"
						},
						{
							"name": "oracle",
							"type": "address",
							"indexed": false,
							"internalType": "address"
						},
						{
							"name": "relayer",
							"type": "address",
							"indexed": false,
							"internalType": "address"
						}
					],
					"anonymous": false
				},
				{
					"type": "event",
					"name": "DefaultConfigUpdated",
					"inputs": [
						{
							"name": "oracle",
							"type": "address",
							"indexed": false,
							"internalType": "address"
						},
						{
							"name": "relayer",
							"type": "address",
							"indexed": false,
							"internalType": "address"
						}
					],
					"anonymous": false
				},
				{
					"type": "event",
					"name": "MessageAccepted",
					"inputs": [
						{
							"name": "msgHash",
							"type": "bytes32",
							"indexed": true,
							"internalType": "bytes32"
						},
						{
							"name": "root",
							"type": "bytes32",
							"indexed": false,
							"internalType": "bytes32"
						},
						{
							"name": "message",
							"type": "tuple",
							"indexed": false,
							"internalType": "struct Message",
							"components": [
								{
									"name": "channel",
									"type": "address",
									"internalType": "address"
								},
								{
									"name": "index",
									"type": "uint256",
									"internalType": "uint256"
								},
								{
									"name": "fromChainId",
									"type": "uint256",
									"internalType": "uint256"
								},
								{
									"name": "from",
									"type": "address",
									"internalType": "address"
								},
								{
									"name": "toChainId",
									"type": "uint256",
									"internalType": "uint256"
								},
								{
									"name": "to",
									"type": "address",
									"internalType": "address"
								},
								{
									"name": "gasLimit",
									"type": "uint256",
									"internalType": "uint256"
								},
								{
									"name": "encoded",
									"type": "bytes",
									"internalType": "bytes"
								}
							]
						}
					],
					"anonymous": false
				},
				{
					"type": "event",
					"name": "MessageAssigned",
					"inputs": [
						{
							"name": "msgHash",
							"type": "bytes32",
							"indexed": true,
							"internalType": "bytes32"
						},
						{
							"name": "oracle",
							"type": "address",
							"indexed": true,
							"internalType": "address"
						},
						{
							"name": "relayer",
							"type": "address",
							"indexed": true,
							"internalType": "address"
						},
						{
							"name": "oracleFee",
							"type": "uint256",
							"indexed": false,
							"internalType": "uint256"
						},
						{
							"name": "relayerFee",
							"type": "uint256",
							"indexed": false,
							"internalType": "uint256"
						}
					],
					"anonymous": false
				},
				{
					"type": "event",
					"name": "MessageDispatched",
					"inputs": [
						{
							"name": "msgHash",
							"type": "bytes32",
							"indexed": true,
							"internalType": "bytes32"
						},
						{
							"name": "dispatchResult",
							"type": "bool",
							"indexed": false,
							"internalType": "bool"
						}
					],
					"anonymous": false
				},
				{
					"type": "event",
					"name": "SetterChanged",
					"inputs": [
						{
							"name": "oldSetter",
							"type": "address",
							"indexed": true,
							"internalType": "address"
						},
						{
							"name": "newSetter",
							"type": "address",
							"indexed": true,
							"internalType": "address"
						}
					],
					"anonymous": false
				}
			],
			"solcInputHash": "403d52f660759fecc7155a43916ae2fb",
			"receipt": {
				"blockHash": "0xb50f289c06ac7fea9c44d4995274771f873b66db63dcd428033f2616188843e4",
				"blockNumber": 27508639,
				"contractAddress": null,
				"cumulativeGasUsed": "7666897",
				"from": "0xD70A2e6eACbdeDA77a5d4bBAE3bC70239A0e088f",
				"gasPrice": "100000000",
				"gasUsed": "5941360",
				"hash": "0xbe79e15f7352a8ebac94844b128851379e952dab773724ade295745eb89de56f",
				"index": 2,
				"logs": [
					{
						"address": "0x701609866556Cb9A1FBD6B40201cD5899c9D2d56",
						"blockHash": "0xb50f289c06ac7fea9c44d4995274771f873b66db63dcd428033f2616188843e4",
						"blockNumber": 27508639,
						"data": "0x000000000000000000000000dd78ab76accac9ec38613dc7e488870119725914",
						"index": 5,
						"topics": [
							"0x4db17dd5e4732fb6da34a148104a592783ca119a1e7bb8829eba6cbadef0b511"
						],
						"transactionHash": "0xbe79e15f7352a8ebac94844b128851379e952dab773724ade295745eb89de56f",
						"transactionIndex": 2
					},
					{
						"address": "0x701609866556Cb9A1FBD6B40201cD5899c9D2d56",
						"blockHash": "0xb50f289c06ac7fea9c44d4995274771f873b66db63dcd428033f2616188843e4",
						"blockNumber": 27508639,
						"data": "0x",
						"index": 6,
						"topics": [
							"0x6895c13664aa4f67288b25d7a21d7aaa34916e355fb9b6fae0a139a9085becb8",
							"0x00000000000000000000000004678247ac000d74768e5caa72a221a0a7c2ae44"
						],
						"transactionHash": "0xbe79e15f7352a8ebac94844b128851379e952dab773724ade295745eb89de56f",
						"transactionIndex": 2
					},
					{
						"address": "0x04678247aC000d74768E5CAa72a221A0a7C2Ae44",
						"blockHash": "0xb50f289c06ac7fea9c44d4995274771f873b66db63dcd428033f2616188843e4",
						"blockNumber": 27508639,
						"data": "0x0000000000000000000000000000000000000000000000000000000000000001",
						"index": 7,
						"topics": [
							"0xa65fb05c5808f5f389d72edeaf719ce38f4cc55c1f69ca3cbfb31c21501caa07",
							"0xdbdc1537daa8d434fbf11272db559032763ec92bc9c4d12cec105ffd1386065f"
						],
						"transactionHash": "0xbe79e15f7352a8ebac94844b128851379e952dab773724ade295745eb89de56f",
						"transactionIndex": 2
					},
					{
						"address": "0x04678247aC000d74768E5CAa72a221A0a7C2Ae44",
						"blockHash": "0xb50f289c06ac7fea9c44d4995274771f873b66db63dcd428033f2616188843e4",
						"blockNumber": 27508639,
						"data": "0x",
						"index": 8,
						"topics": [
							"0x4383d976757d67ca920616be0b6430a681ea9d3dcce8d6d61d4603ca4a9bff63",
							"0xdbdc1537daa8d434fbf11272db559032763ec92bc9c4d12cec105ffd1386065f"
						],
						"transactionHash": "0xbe79e15f7352a8ebac94844b128851379e952dab773724ade295745eb89de56f",
						"transactionIndex": 2
					}
				],
				"logsBloom": "0x00000000000010000000000000080000000000000000000000000000000000000000000000000000000000000000000000010000020000000000000000000000000000000000200000000100020000000000000000000000040008000000000000000000000000000000000000000000000000000820000000000000000000000000000000400000000000000000000000000000000000000000004000000000000000800000000000000000000000000200000080000000000000000004000000000000000000000000000000000028000000000000100000000008000000000000000000000008000000000000000200000000000000000000000008000000",
				"status": 1,
				"to": "0x04678247aC000d74768E5CAa72a221A0a7C2Ae44"
			},
			"metadata": "{\"compiler\":{\"version\":\"0.8.17+commit.8df45f5f\"},\"language\":\"Solidity\",\"output\":{\"abi\":[{\"inputs\":[{\"internalType\":\"address\",\"name\":\"dao\",\"type\":\"address\"}],\"stateMutability\":\"nonpayable\",\"type\":\"constructor\"},{\"inputs\":[{\"internalType\":\"address\",\"name\":\"ua\",\"type\":\"address\",\"indexed\":true},{\"internalType\":\"address\",\"name\":\"oracle\",\"type\":\"address\",\"indexed\":false},{\"internalType\":\"address\",\"name\":\"relayer\",\"type\":\"address\",\"indexed\":false}],\"type\":\"event\",\"name\":\"AppConfigUpdated\",\"anonymous\":false},{\"inputs\":[{\"internalType\":\"address\",\"name\":\"oracle\",\"type\":\"address\",\"indexed\":false},{\"internalType\":\"address\",\"name\":\"relayer\",\"type\":\"address\",\"indexed\":false}],\"type\":\"event\",\"name\":\"DefaultConfigUpdated\",\"anonymous\":false},{\"inputs\":[{\"internalType\":\"bytes32\",\"name\":\"msgHash\",\"type\":\"bytes32\",\"indexed\":true},{\"internalType\":\"bytes32\",\"name\":\"root\",\"type\":\"bytes32\",\"indexed\":false},{\"internalType\":\"struct Message\",\"name\":\"message\",\"type\":\"tuple\",\"components\":[{\"internalType\":\"address\",\"name\":\"channel\",\"type\":\"address\"},{\"internalType\":\"uint256\",\"name\":\"index\",\"type\":\"uint256\"},{\"internalType\":\"uint256\",\"name\":\"fromChainId\",\"type\":\"uint256\"},{\"internalType\":\"address\",\"name\":\"from\",\"type\":\"address\"},{\"internalType\":\"uint256\",\"name\":\"toChainId\",\"type\":\"uint256\"},{\"internalType\":\"address\",\"name\":\"to\",\"type\":\"address\"},{\"internalType\":\"uint256\",\"name\":\"gasLimit\",\"type\":\"uint256\"},{\"internalType\":\"bytes\",\"name\":\"encoded\",\"type\":\"bytes\"}],\"indexed\":false}],\"type\":\"event\",\"name\":\"MessageAccepted\",\"anonymous\":false},{\"inputs\":[{\"internalType\":\"bytes32\",\"name\":\"msgHash\",\"type\":\"bytes32\",\"indexed\":true},{\"internalType\":\"address\",\"name\":\"oracle\",\"type\":\"address\",\"indexed\":true},{\"internalType\":\"address\",\"name\":\"relayer\",\"type\":\"address\",\"indexed\":true},{\"internalType\":\"uint256\",\"name\":\"oracleFee\",\"type\":\"uint256\",\"indexed\":false},{\"internalType\":\"uint256\",\"name\":\"relayerFee\",\"type\":\"uint256\",\"indexed\":false}],\"type\":\"event\",\"name\":\"MessageAssigned\",\"anonymous\":false},{\"inputs\":[{\"internalType\":\"bytes32\",\"name\":\"msgHash\",\"type\":\"bytes32\",\"indexed\":true},{\"internalType\":\"bool\",\"name\":\"dispatchResult\",\"type\":\"bool\",\"indexed\":false}],\"type\":\"event\",\"name\":\"MessageDispatched\",\"anonymous\":false},{\"inputs\":[{\"internalType\":\"address\",\"name\":\"oldSetter\",\"type\":\"address\",\"indexed\":true},{\"internalType\":\"address\",\"name\":\"newSetter\",\"type\":\"address\",\"indexed\":true}],\"type\":\"event\",\"name\":\"SetterChanged\",\"anonymous\":false},{\"inputs\":[],\"stateMutability\":\"view\",\"type\":\"function\",\"name\":\"LOCAL_CHAINID\",\"outputs\":[{\"internalType\":\"uint256\",\"name\":\"chainId\",\"type\":\"uint256\"}]},{\"inputs\":[{\"internalType\":\"address\",\"name\":\"newSetter\",\"type\":\"address\"}],\"stateMutability\":\"nonpayable\",\"type\":\"function\",\"name\":\"changeSetter\"},{\"inputs\":[],\"stateMutability\":\"view\",\"type\":\"function\",\"name\":\"defaultUC\",\"outputs\":[{\"internalType\":\"address\",\"name\":\"oracle\",\"type\":\"address\"},{\"internalType\":\"address\",\"name\":\"relayer\",\"type\":\"address\"}]},{\"inputs\":[{\"internalType\":\"bytes32\",\"name\":\"\",\"type\":\"bytes32\"}],\"stateMutability\":\"view\",\"type\":\"function\",\"name\":\"dones\",\"outputs\":[{\"internalType\":\"bool\",\"name\":\"\",\"type\":\"bool\"}]},{\"inputs\":[{\"internalType\":\"uint256\",\"name\":\"toChainId\",\"type\":\"uint256\"},{\"internalType\":\"address\",\"name\":\"ua\",\"type\":\"address\"},{\"internalType\":\"uint256\",\"name\":\"gasLimit\",\"type\":\"uint256\"},{\"internalType\":\"bytes\",\"name\":\"encoded\",\"type\":\"bytes\"},{\"internalType\":\"bytes\",\"name\":\"\",\"type\":\"bytes\"}],\"stateMutability\":\"view\",\"type\":\"function\",\"name\":\"fee\",\"outputs\":[{\"internalType\":\"uint256\",\"name\":\"\",\"type\":\"uint256\"}]},{\"inputs\":[{\"internalType\":\"address\",\"name\":\"ua\",\"type\":\"address\"}],\"stateMutability\":\"view\",\"type\":\"function\",\"name\":\"getAppConfig\",\"outputs\":[{\"internalType\":\"struct UC\",\"name\":\"\",\"type\":\"tuple\",\"components\":[{\"internalType\":\"address\",\"name\":\"oracle\",\"type\":\"address\"},{\"internalType\":\"address\",\"name\":\"relayer\",\"type\":\"address\"}]}]},{\"inputs\":[],\"stateMutability\":\"view\",\"type\":\"function\",\"name\":\"imtBranch\",\"outputs\":[{\"internalType\":\"bytes32[32]\",\"name\":\"\",\"type\":\"bytes32[32]\"}]},{\"inputs\":[],\"stateMutability\":\"view\",\"type\":\"function\",\"name\":\"messageCount\",\"outputs\":[{\"internalType\":\"uint256\",\"name\":\"\",\"type\":\"uint256\"}]},{\"inputs\":[],\"stateMutability\":\"view\",\"type\":\"function\",\"name\":\"prove\",\"outputs\":[{\"internalType\":\"bytes32[32]\",\"name\":\"\",\"type\":\"bytes32[32]\"}]},{\"inputs\":[{\"internalType\":\"struct Message\",\"name\":\"message\",\"type\":\"tuple\",\"components\":[{\"internalType\":\"address\",\"name\":\"channel\",\"type\":\"address\"},{\"internalType\":\"uint256\",\"name\":\"index\",\"type\":\"uint256\"},{\"internalType\":\"uint256\",\"name\":\"fromChainId\",\"type\":\"uint256\"},{\"internalType\":\"address\",\"name\":\"from\",\"type\":\"address\"},{\"internalType\":\"uint256\",\"name\":\"toChainId\",\"type\":\"uint256\"},{\"internalType\":\"address\",\"name\":\"to\",\"type\":\"address\"},{\"internalType\":\"uint256\",\"name\":\"gasLimit\",\"type\":\"uint256\"},{\"internalType\":\"bytes\",\"name\":\"encoded\",\"type\":\"bytes\"}]},{\"internalType\":\"bytes\",\"name\":\"proof\",\"type\":\"bytes\"}],\"stateMutability\":\"payable\",\"type\":\"function\",\"name\":\"recv\",\"outputs\":[{\"internalType\":\"bool\",\"name\":\"dispatchResult\",\"type\":\"bool\"}]},{\"inputs\":[],\"stateMutability\":\"view\",\"type\":\"function\",\"name\":\"root\",\"outputs\":[{\"internalType\":\"bytes32\",\"name\":\"\",\"type\":\"bytes32\"}]},{\"inputs\":[{\"internalType\":\"uint256\",\"name\":\"toChainId\",\"type\":\"uint256\"},{\"internalType\":\"address\",\"name\":\"to\",\"type\":\"address\"},{\"internalType\":\"uint256\",\"name\":\"gasLimit\",\"type\":\"uint256\"},{\"internalType\":\"bytes\",\"name\":\"encoded\",\"type\":\"bytes\"},{\"internalType\":\"address\",\"name\":\"refund\",\"type\":\"address\"},{\"internalType\":\"bytes\",\"name\":\"\",\"type\":\"bytes\"}],\"stateMutability\":\"payable\",\"type\":\"function\",\"name\":\"send\",\"outputs\":[{\"internalType\":\"bytes32\",\"name\":\"\",\"type\":\"bytes32\"}]},{\"inputs\":[{\"internalType\":\"address\",\"name\":\"oracle\",\"type\":\"address\"},{\"internalType\":\"address\",\"name\":\"relayer\",\"type\":\"address\"}],\"stateMutability\":\"nonpayable\",\"type\":\"function\",\"name\":\"setAppConfig\"},{\"inputs\":[{\"internalType\":\"address\",\"name\":\"oracle\",\"type\":\"address\"},{\"internalType\":\"address\",\"name\":\"relayer\",\"type\":\"address\"}],\"stateMutability\":\"nonpayable\",\"type\":\"function\",\"name\":\"setDefaultConfig\"},{\"inputs\":[],\"stateMutability\":\"view\",\"type\":\"function\",\"name\":\"setter\",\"outputs\":[{\"internalType\":\"address\",\"name\":\"\",\"type\":\"address\"}]},{\"inputs\":[{\"internalType\":\"address\",\"name\":\"\",\"type\":\"address\"}],\"stateMutability\":\"view\",\"type\":\"function\",\"name\":\"ucOf\",\"outputs\":[{\"internalType\":\"address\",\"name\":\"oracle\",\"type\":\"address\"},{\"internalType\":\"address\",\"name\":\"relayer\",\"type\":\"address\"}]},{\"inputs\":[],\"stateMutability\":\"pure\",\"type\":\"function\",\"name\":\"version\",\"outputs\":[{\"internalType\":\"string\",\"name\":\"\",\"type\":\"string\"}]}],\"devdoc\":{\"kind\":\"dev\",\"methods\":{\"LOCAL_CHAINID()\":{\"details\":\"Fetch local chain id.\",\"returns\":{\"chainId\":\"Local chain id.\"}},\"changeSetter(address)\":{\"details\":\"Change setter.\",\"params\":{\"newSetter\":\"New setter.\"}},\"fee(uint256,address,uint256,bytes,bytes)\":{\"params\":{\"encoded\":\"The calldata which encoded by ABI Encoding.\",\"gasLimit\":\"Gas limit for destination user application used.\"}},\"getAppConfig(address)\":{\"details\":\"Fetch user application config.\",\"params\":{\"ua\":\"User application contract address.\"},\"returns\":{\"_0\":\"user application config.\"}},\"imtBranch()\":{\"details\":\"Fetch the branch of incremental merkle tree.\"},\"messageCount()\":{\"details\":\"Fetch the messages count of incremental merkle tree.\"},\"prove()\":{\"details\":\"Fetch the latest message proof\"},\"recv((address,uint256,uint256,address,uint256,address,uint256,bytes),bytes)\":{\"details\":\"Recv verified message from Channel and dispatch to destination user application address.\",\"params\":{\"message\":\"Verified receive message info.\",\"proof\":\"Message proof of this message.\"},\"returns\":{\"dispatchResult\":\"Result of the message dispatch.\"}},\"send(uint256,address,uint256,bytes,address,bytes)\":{\"details\":\"Send a cross-chain message over the endpoint.\",\"params\":{\"encoded\":\"The calldata which encoded by ABI Encoding.\",\"gasLimit\":\"Gas limit for destination user application used.\",\"refund\":\"Return extra fee to refund address.\",\"to\":\"User application contract address which receive the message.\",\"toChainId\":\"The Message destination chain id.\"}},\"setAppConfig(address,address)\":{\"params\":{\"oracle\":\"Oracle which user application.\",\"relayer\":\"Relayer which user application choose.\"}},\"setDefaultConfig(address,address)\":{\"details\":\"Set default user config for all user application.\",\"params\":{\"oracle\":\"Default oracle.\",\"relayer\":\"Default relayer.\"}}},\"version\":1},\"userdoc\":{\"kind\":\"user\",\"methods\":{\"changeSetter(address)\":{\"notice\":\"Only current setter could call.\"},\"getAppConfig(address)\":{\"notice\":\"If user application has not configured, then the default user config is used.\"},\"recv((address,uint256,uint256,address,uint256,address,uint256,bytes),bytes)\":{\"notice\":\"Only channel could call this function.\"},\"send(uint256,address,uint256,bytes,address,bytes)\":{\"notice\":\"follow https://eips.ethereum.org/EIPS/eip-5750\"},\"setAppConfig(address,address)\":{\"notice\":\"Set user application config.\"},\"setDefaultConfig(address,address)\":{\"notice\":\"Only setter could call.\"}},\"version\":1}},\"settings\":{\"remappings\":[\"@darwinia-msgport/=lib/darwinia-msgport/\",\"@openzeppelin/contracts/=lib/openzeppelin-contracts/contracts/\",\"@openzeppelin/contracts@4.9.2/=lib/openzeppelin-contracts/contracts/\",\"@sphinx-labs/contracts/=lib/sphinx/packages/contracts/contracts/foundry/\",\"ORMP/=lib/ORMP/\",\"subapi/=lib/subapi/\"],\"optimizer\":{\"enabled\":true,\"runs\":999999},\"metadata\":{\"bytecodeHash\":\"ipfs\"},\"compilationTarget\":{\"lib/ORMP/src/ORMP.sol\":\"ORMP\"},\"evmVersion\":\"london\",\"libraries\":{}},\"sources\":{\"lib/ORMP/src/Channel.sol\":{\"keccak256\":\"0x286a6af99428230c2f67181181d52d63a647ee2d896c5855300eda37c52b2dbf\",\"urls\":[\"bzz-raw://84326f7649e0c727e1e5836c1f50e603fdc4811b0fd94b2ee5c682e10700f9ce\",\"dweb:/ipfs/Qmb32nTAUsyStw3dqynijZEaA9UC4ig6xoPBjhvdQEVDdn\"],\"license\":\"GPL-3.0\"},\"lib/ORMP/src/Common.sol\":{\"keccak256\":\"0x832de8c9469de78d3133d42716444007d3fa2aa2fe88a6fcbb81d119d8ffbd1d\",\"urls\":[\"bzz-raw://a0447d4aaebe147c97df506a8ae7801e13b3af6cc0c9ee31bc896a7b40e463ab\",\"dweb:/ipfs/QmTn2bjyJMsj9uV613Usy3ueyjFZ7Ugfo4ovR8UkPpMhX4\"],\"license\":\"GPL-3.0\"},\"lib/ORMP/src/ORMP.sol\":{\"keccak256\":\"0x952e7ad4b58f70d4e035f24c92ed4edecd1f89fd6da8bbfc05f627cf6ac16d3d\",\"urls\":[\"bzz-raw://0fdfb9d153015dd2f089b099cff5737ea3118a3aa3a3d72715d8ea1f0da2804f\",\"dweb:/ipfs/QmPdy8ia167eUG7CZkREZGqzDoxLs4h1xqUoLaK2UGxM6C\"],\"license\":\"GPL-3.0\"},\"lib/ORMP/src/UserConfig.sol\":{\"keccak256\":\"0x9d2e059b8e05cebe34733475fbea89e0f103fc8f7d909aa79186ed65837da6e0\",\"urls\":[\"bzz-raw://d4e465d388fe332f755e426d12018c09d727782f195d8e734776a2bff74cab38\",\"dweb:/ipfs/QmQp7wkLHMvYL5841uCDS1zhifsaJg4r2Wxty91b19bEcK\"],\"license\":\"GPL-3.0\"},\"lib/ORMP/src/imt/IncrementalMerkleTree.sol\":{\"keccak256\":\"0x535228355f8bd4339f42aa3dfe3cebcbdaad7a92704c4e3eeb0982dce8acf246\",\"urls\":[\"bzz-raw://9830ca0eb4837abdaaba548ea20fe14c67e23a392e09aaaa57b4032f9b81c49f\",\"dweb:/ipfs/QmYDw8c8zgLhxhxt3heCGJu7rYSgmEwKFjMfWrbJNcyPWj\"],\"license\":\"MIT OR Apache-2.0\"},\"lib/ORMP/src/interfaces/IOracle.sol\":{\"keccak256\":\"0xb1299974c86446972355bebb7c95697139c67f1731b1c1fa59a07c8cc575f527\",\"urls\":[\"bzz-raw://c96ee956d4731fb7bc0aa67f2783afa6ba2179fc1ef4419f2f70f727c9d7a7f1\",\"dweb:/ipfs/QmbqaqnRRHb2k25bzsvmapugHaTu1gDESGxk7MU5vgrPBo\"],\"license\":\"GPL-3.0\"},\"lib/ORMP/src/interfaces/IRelayer.sol\":{\"keccak256\":\"0xb2a4fc032746f072405210a118298000cda8634ddf4bc02b33f976be4eaf7209\",\"urls\":[\"bzz-raw://5627a3007ff8748f5be505de61d7cca46a2466ece354093f2958f3e2daab5445\",\"dweb:/ipfs/Qmb5Gefdqo5ruQX1id6hgpVDKiM9Vyy6wLurxDtC5377Lt\"],\"license\":\"GPL-3.0\"},\"lib/ORMP/src/interfaces/IVerifier.sol\":{\"keccak256\":\"0x60ad4dbeb54c04aa1c389a2dab7c9bca361eb2df245b3a29f0851be697876099\",\"urls\":[\"bzz-raw://57f1c8949abccaef95ab207257bfcf7b12f19756e0c90184ad39a8bdb2dc559a\",\"dweb:/ipfs/Qmd1LBiTn3nzfzhGHmdM2YdbWLUkca6wZfPBo1rWqPcoau\"],\"license\":\"GPL-3.0\"},\"lib/ORMP/src/security/ExcessivelySafeCall.sol\":{\"keccak256\":\"0x586361e0b312522e1b4dfbbd7a4965fd0b36642660c16cba3a733ee66f388508\",\"urls\":[\"bzz-raw://b0d67666dc6b468c91589b8d00f3f519c0904e40313631e08102058135681d68\",\"dweb:/ipfs/QmQHgut1NwT3Dr68fLtJzGwcTmPU9CxJZYF7euDfz2VGNL\"],\"license\":\"MIT OR Apache-2.0\"},\"lib/ORMP/src/security/ReentrancyGuard.sol\":{\"keccak256\":\"0xbb376a44d276cf677debb795e823759f563a26bd3805e413f7b12ee38e3e13be\",\"urls\":[\"bzz-raw://0eb116fec82b4b1fd0a9ebd259b375b06f5aaea104426c9219fda9d3abb8e311\",\"dweb:/ipfs/QmfMH7vZHdvY6qSb2hxRvzuSMrmXq17FzBx8PJzn4qFJZQ\"],\"license\":\"MIT\"}},\"version\":1}",
			"args": [
				"0xD70A2e6eACbdeDA77a5d4bBAE3bC70239A0e088f"
			],
			"bytecode": "0x60a0604052600160008190558055306080523480156200001e57600080fd5b50604051620025ef380380620025ef83398101604081905262000041916200008b565b600280546001600160a01b0319166001600160a01b03929092169190911790557f27ae5ba08d7291c96c8cbddcc148bf48a6d68c7974b94356f53754ef6171d757600655620000bd565b6000602082840312156200009e57600080fd5b81516001600160a01b0381168114620000b657600080fd5b9392505050565b608051612516620000d96000396000610c6201526125166000f3fe60806040526004361061010e5760003560e01c80634ea59979116100a55780638b22909111610074578063ebf0c71711610059578063ebf0c717146103bb578063ee6ad167146103d1578063f67c907c146103f457600080fd5b80638b22909114610388578063b0ff5e72146103a857600080fd5b80634ea59979146102f457806352720be41461031457806354fd4d50146103295780635e26462c1461037557600080fd5b80633f3108f7116100e15780633f3108f7146101f8578063413422491461024a57806345152ae31461029e5780634872824f146102c057600080fd5b80630f988a73146101135780631c2b2da6146101355780633c50e178146101685780633dbcc8d1146101e3575b600080fd5b34801561011f57600080fd5b5061013361012e366004611be2565b610424565b005b34801561014157600080fd5b50610155610150366004611c4d565b610521565b6040519081526020015b60405180910390f35b34801561017457600080fd5b506101b6610183366004611be2565b6005602052600090815260409020805460019091015473ffffffffffffffffffffffffffffffffffffffff918216911682565b6040805173ffffffffffffffffffffffffffffffffffffffff93841681529290911660208301520161015f565b3480156101ef57600080fd5b50602754610155565b34801561020457600080fd5b506002546102259073ffffffffffffffffffffffffffffffffffffffff1681565b60405173ffffffffffffffffffffffffffffffffffffffff909116815260200161015f565b34801561025657600080fd5b5061026a610265366004611be2565b610672565b60408051825173ffffffffffffffffffffffffffffffffffffffff908116825260209384015116928101929092520161015f565b3480156102aa57600080fd5b506102b3610729565b60405161015f9190611ce1565b3480156102cc57600080fd5b506003546004546101b69173ffffffffffffffffffffffffffffffffffffffff908116911682565b34801561030057600080fd5b5061013361030f366004611d17565b610740565b34801561032057600080fd5b506102b3610863565b34801561033557600080fd5b50604080518082018252600581527f322e302e300000000000000000000000000000000000000000000000000000006020820152905161015f9190611db8565b610155610383366004611dcb565b61089f565b34801561039457600080fd5b506101336103a3366004611d17565b610948565b3480156103b457600080fd5b5046610155565b3480156103c757600080fd5b5061015560065481565b6103e46103df366004611e72565b610a07565b604051901515815260200161015f565b34801561040057600080fd5b506103e461040f366004611ee4565b60286020526000908152604090205460ff1681565b60025473ffffffffffffffffffffffffffffffffffffffff1633146104aa576040517f08c379a000000000000000000000000000000000000000000000000000000000815260206004820152600560248201527f216175746800000000000000000000000000000000000000000000000000000060448201526064015b60405180910390fd5b6002805473ffffffffffffffffffffffffffffffffffffffff8381167fffffffffffffffffffffffff0000000000000000000000000000000000000000831681179093556040519116919082907fb0999394a8202229d1e14c6290230863233f18473f7504b3a7b1a27f9b014c9d90600090a35050565b60008061052d88610672565b90506000816020015173ffffffffffffffffffffffffffffffffffffffff166353179a7c8b8b8b8b8b6040518663ffffffff1660e01b8152600401610576959493929190611f46565b602060405180830381865afa158015610593573d6000803e3d6000fd5b505050506040513d601f19601f820116820180604052508101906105b79190611f82565b82516040517fa1dbf432000000000000000000000000000000000000000000000000000000008152600481018d905273ffffffffffffffffffffffffffffffffffffffff8c811660248301529293506000929091169063a1dbf43290604401602060405180830381865afa158015610633573d6000803e3d6000fd5b505050506040513d601f19601f820116820180604052508101906106579190611f82565b90506106638183611fca565b9b9a5050505050505050505050565b6040805180820182526000808252602080830182905273ffffffffffffffffffffffffffffffffffffffff858116835260058252918490208451808601909552805483168552600101549091169083018190529091906106eb5760045473ffffffffffffffffffffffffffffffffffffffff1660208201525b805173ffffffffffffffffffffffffffffffffffffffff166107235760035473ffffffffffffffffffffffffffffffffffffffff1681525b92915050565b610731611b9a565b61073b6007610ae4565b905090565b60025473ffffffffffffffffffffffffffffffffffffffff1633146107c1576040517f08c379a000000000000000000000000000000000000000000000000000000000815260206004820152600560248201527f216175746800000000000000000000000000000000000000000000000000000060448201526064016104a1565b60408051808201825273ffffffffffffffffffffffffffffffffffffffff8481168083529084166020928301819052600380547fffffffffffffffffffffffff0000000000000000000000000000000000000000908116841790915560048054909116821790558351918252918101919091527f504f152883e6158786ddfcce63f4d4d95ce8e404b1f6e6365a06f63849b7cb95910160405180910390a15050565b61086b611b9a565b604080516104008101918290529060079060209082845b815481526020019060010190808311610882575050505050905090565b600060016000541461090d576040517f08c379a000000000000000000000000000000000000000000000000000000000815260206004820152601060248201527f2173656e642d7265656e7472616e63790000000000000000000000000000000060448201526064016104a1565b600260009081553390610924828c8c8c8c8c610bda565b90506109358287838e8d8d8d610d9d565b60016000559a9950505050505050505050565b60408051808201825273ffffffffffffffffffffffffffffffffffffffff848116808352848216602080850182815233600081815260058452889020965187549087167fffffffffffffffffffffffff000000000000000000000000000000000000000091821617885591516001909701805497909616969091169590951790935584519182529181019190915290917f86b44d92ad94c11b25d0f08d0f55e8e235b4d165e62e541c02e8ee19f551c97b910160405180910390a25050565b60006001805414610a74576040517f08c379a000000000000000000000000000000000000000000000000000000000815260206004820152601060248201527f21726563762d7265656e7472616e63790000000000000000000000000000000060448201526064016104a1565b60026001556000610a86858585610e8d565b9050610a9a610a94866120e1565b82611155565b9150807f62b1dc20fd6f1518626da5b6f9897e8cd4ebadbad071bb66dc96a37c970087a883604051610ad0911515815260200190565b60405180910390a250600180559392505050565b610aec611b9a565b600060018360200154610aff9190612183565b6040805161040081019182905291925060009190859060209082845b815481526020019060010190808311610b1b57505050505090506000610b3f6111df565b905060005b6020811015610bd157600184821c811690819003610b8f57838260208110610b6e57610b6e612196565b6020020151868360208110610b8557610b85612196565b6020020152610bbe565b828260208110610ba157610ba1612196565b6020020151868360208110610bb857610bb8612196565b60200201525b5080610bc9816121c5565b915050610b44565b50505050919050565b6000468603610c45576040517f08c379a000000000000000000000000000000000000000000000000000000000815260206004820152600c60248201527f2163726f73732d636861696e000000000000000000000000000000000000000060448201526064016104a1565b6000610c5060275490565b905060006040518061010001604052807f000000000000000000000000000000000000000000000000000000000000000073ffffffffffffffffffffffffffffffffffffffff168152602001838152602001610ca94690565b81526020018a73ffffffffffffffffffffffffffffffffffffffff1681526020018981526020018873ffffffffffffffffffffffffffffffffffffffff16815260200187815260200186868080601f016020809104026020016040519081016040528093929190818152602001838380828437600092018290525093909452509293509150610d399050826116a0565b9050610d466007826116d0565b610d506007611814565b600681905560405182917f327110434bca326d1f70236295f59c8b472ebc683a6549ca9254697564fec4a591610d889190869061227e565b60405180910390a29998505050505050505050565b6000610da888610672565b90506000610dbe8260200151878b888888611827565b90506000610dd18360000151888c6118c3565b9050826020015173ffffffffffffffffffffffffffffffffffffffff16836000015173ffffffffffffffffffffffffffffffffffffffff16897ff7e134438bf3052b95eaa2f90f4177932297d80eb36186624c2f366cb8944ecf8486604051610e44929190918252602082015260400190565b60405180910390a4610e568183611fca565b341115610e81576000610e698284611fca565b610e739034612183565b9050610e7f8a82611973565b505b50505050505050505050565b600080610ea361026560c0870160a08801611be2565b602081015190915073ffffffffffffffffffffffffffffffffffffffff163314610f29576040517f08c379a000000000000000000000000000000000000000000000000000000000815260206004820152600560248201527f216175746800000000000000000000000000000000000000000000000000000060448201526064016104a1565b6000610f3c610f37876120e1565b6116a0565b9050816000015173ffffffffffffffffffffffffffffffffffffffff1663094f87c587604001358388886040518563ffffffff1660e01b8152600401610f859493929190612297565b602060405180830381865afa158015610fa2573d6000803e3d6000fd5b505050506040513d601f19601f82011682018060405250810190610fc691906122c1565b61102c576040517f08c379a000000000000000000000000000000000000000000000000000000000815260206004820152600660248201527f2170726f6f66000000000000000000000000000000000000000000000000000060448201526064016104a1565b60808601354614611099576040517f08c379a000000000000000000000000000000000000000000000000000000000815260206004820152600a60248201527f21746f436861696e49640000000000000000000000000000000000000000000060448201526064016104a1565b60008181526028602052604090205460ff1615611114576040517f08c379a00000000000000000000000000000000000000000000000000000000081526004016104a19060208082526004908201527f646f6e6500000000000000000000000000000000000000000000000000000000604082015260600190565b600081815260286020526040902080547fffffffffffffffffffffffffffffffffffffffffffffffffffffffffffffff001660011790559150509392505050565b60006111d78360c001513460008660e00151868860400151896060015160405160200161118594939291906122e3565b604080517fffffffffffffffffffffffffffffffffffffffffffffffffffffffffffffffe081840301815291905260a088015173ffffffffffffffffffffffffffffffffffffffff1693929190611a3d565b509392505050565b6111e7611b9a565b600081527fad3228b676f7d3cd4284a5443f17f1962b36e491b30a40b2405849e597ba5fb560208201527fb4c11951957c6f8f642c4af61cd6b24640fec6dc7fc607ee8206a99e92410d3060408201527f21ddb9a356815c3fac1026b6dec5df3124afbadb485c9ba5a3e3398a04b7ba8560608201527fe58769b32a1beaf1ea27375a44095a0d1fb664ce2dd358e7fcbfb78c26a1934460808201527f0eb01ebfc9ed27500cd4dfc979272d1f0913cc9f66540d7e8005811109e1cf2d60a08201527f887c22bd8750d34016ac3c66b5ff102dacdd73f6b014e710b51e8022af9a196860c08201527fffd70157e48063fc33c97a050f7f640233bf646cc98d9524c6b92bcf3ab56f8360e08201527f9867cc5f7f196b93bae1e27e6320742445d290f2263827498b54fec539f756af6101008201527fcefad4e508c098b9a7e1d8feb19955fb02ba9675585078710969d3440f5054e06101208201527ff9dc3e7fe016e050eff260334f18a5d4fe391d82092319f5964f2e2eb7c1c3a56101408201527ff8b13a49e282f609c317a833fb8d976d11517c571d1221a265d25af778ecf8926101608201527f3490c6ceeb450aecdc82e28293031d10c7d73bf85e57bf041a97360aa2c5d99c6101808201527fc1df82d9c4b87413eae2ef048f94b4d3554cea73d92b0f7af96e0271c691e2bb6101a08201527f5c67add7c6caf302256adedf7ab114da0acfe870d449a3a489f781d659e8becc6101c08201527fda7bce9f4e8618b6bd2f4132ce798cdc7a60e7e1460a7299e3c6342a579626d26101e08201527f2733e50f526ec2fa19a22b31e8ed50f23cd1fdf94c9154ed3a7609a2f1ff981f6102008201527fe1d3b5c807b281e4683cc6d6315cf95b9ade8641defcb32372f1c126e398ef7a6102208201527f5a2dce0a8a7f68bb74560f8f71837c2c2ebbcbf7fffb42ae1896f13f7c7479a06102408201527fb46a28b6f55540f89444f63de0378e3d121be09e06cc9ded1c20e65876d36aa06102608201527fc65e9645644786b620e2dd2ad648ddfcbf4a7e5b1a3a4ecfe7f64667a3f0b7e26102808201527ff4418588ed35a2458cffeb39b93d26f18d2ab13bdce6aee58e7b99359ec2dfd96102a08201527f5a9c16dc00d6ef18b7933a6f8dc65ccb55667138776f7dea101070dc8796e3776102c08201527f4df84f40ae0c8229d0d6069e5c8f39a7c299677a09d367fc7b05e3bc380ee6526102e08201527fcdc72595f74c7b1043d0e1ffbab734648c838dfb0527d971b602bc216c9619ef6103008201527f0abf5ac974a1ed57f4050aa510dd9c74f508277b39d7973bb2dfccc5eeb0618d6103208201527fb8cd74046ff337f0a7bf2c8e03e10f642c1886798d71806ab1e888d9e5ee87d06103408201527f838c5655cb21c6cb83313b5a631175dff4963772cce9108188b34ac87c81c41e6103608201527f662ee4dd2dd7b2bc707961b1e646c4047669dcb6584f0d8d770daf5d7e7deb2e6103808201527f388ab20e2573d171a88108e79d820e98f26c0b84aa8b2f4aa4968dbb818ea3226103a08201527f93237c50ba75ee485f4c22adf2f741400bdf8d6a9cc7df7ecae576221665d7356103c08201527f8448818bb4ae4562849e949e17ac16e0be16688e156b5cf15e098c627c0056a96103e082015290565b6000816040516020016116b39190612337565b604051602081830303815290604052805190602001209050919050565b60016116de6020600261246a565b6116e89190612183565b826020015410611754576040517f08c379a000000000000000000000000000000000000000000000000000000000815260206004820152601060248201527f6d65726b6c6520747265652066756c6c0000000000000000000000000000000060448201526064016104a1565b60018260200160008282546117699190611fca565b9091555050602082015460005b602081101561180657816001166001036117a5578284826020811061179d5761179d612196565b015550505050565b8381602081106117b7576117b7612196565b015460408051602081019290925281018490526060016040516020818303038152906040528051906020012092506002826117f29190612476565b9150806117fe816121c5565b915050611776565b5061180f6124b1565b505050565b6000610723826118226111df565b611ac8565b6000808773ffffffffffffffffffffffffffffffffffffffff166353179a7c88888888886040518663ffffffff1660e01b815260040161186b959493929190611f46565b602060405180830381865afa158015611888573d6000803e3d6000fd5b505050506040513d601f19601f820116820180604052508101906118ac9190611f82565b90506118b88882611973565b979650505050505050565b6040517fa1dbf4320000000000000000000000000000000000000000000000000000000081526004810183905273ffffffffffffffffffffffffffffffffffffffff8281166024830152600091829186169063a1dbf43290604401602060405180830381865afa15801561193b573d6000803e3d6000fd5b505050506040513d601f19601f8201168201806040525081019061195f9190611f82565b905061196b8582611973565b949350505050565b60008273ffffffffffffffffffffffffffffffffffffffff168260405160006040518083038185875af1925050503d80600081146119cd576040519150601f19603f3d011682016040523d82523d6000602084013e6119d2565b606091505b505090508061180f576040517f08c379a000000000000000000000000000000000000000000000000000000000815260206004820152600560248201527f2173656e6400000000000000000000000000000000000000000000000000000060448201526064016104a1565b6000606060008060008661ffff1667ffffffffffffffff811115611a6357611a63611fdd565b6040519080825280601f01601f191660200182016040528015611a8d576020820181803683370190505b5090506000808751602089018b8e8ef191503d925086831115611aae578692505b828152826000602083013e90999098509650505050505050565b6020820154600090815b6020811015611b9257600182821c166000868360208110611af557611af5612196565b0154905081600103611b32576040805160208101839052908101869052606001604051602081830303815290604052805190602001209450611b7d565b84868460208110611b4557611b45612196565b6020020151604051602001611b64929190918252602082015260400190565b6040516020818303038152906040528051906020012094505b50508080611b8a906121c5565b915050611ad2565b505092915050565b6040518061040001604052806020906020820280368337509192915050565b803573ffffffffffffffffffffffffffffffffffffffff81168114611bdd57600080fd5b919050565b600060208284031215611bf457600080fd5b611bfd82611bb9565b9392505050565b60008083601f840112611c1657600080fd5b50813567ffffffffffffffff811115611c2e57600080fd5b602083019150836020828501011115611c4657600080fd5b9250929050565b600080600080600080600060a0888a031215611c6857600080fd5b87359650611c7860208901611bb9565b955060408801359450606088013567ffffffffffffffff80821115611c9c57600080fd5b611ca88b838c01611c04565b909650945060808a0135915080821115611cc157600080fd5b50611cce8a828b01611c04565b989b979a50959850939692959293505050565b6104008101818360005b6020808210611cfa5750611d0e565b825184529283019290910190600101611ceb565b50505092915050565b60008060408385031215611d2a57600080fd5b611d3383611bb9565b9150611d4160208401611bb9565b90509250929050565b60005b83811015611d65578181015183820152602001611d4d565b50506000910152565b60008151808452611d86816020860160208601611d4a565b601f017fffffffffffffffffffffffffffffffffffffffffffffffffffffffffffffffe0169290920160200192915050565b602081526000611bfd6020830184611d6e565b60008060008060008060008060c0898b031215611de757600080fd5b88359750611df760208a01611bb9565b965060408901359550606089013567ffffffffffffffff80821115611e1b57600080fd5b611e278c838d01611c04565b9097509550859150611e3b60808c01611bb9565b945060a08b0135915080821115611e5157600080fd5b50611e5e8b828c01611c04565b999c989b5096995094979396929594505050565b600080600060408486031215611e8757600080fd5b833567ffffffffffffffff80821115611e9f57600080fd5b908501906101008288031215611eb457600080fd5b90935060208501359080821115611eca57600080fd5b50611ed786828701611c04565b9497909650939450505050565b600060208284031215611ef657600080fd5b5035919050565b8183528181602085013750600060208284010152600060207fffffffffffffffffffffffffffffffffffffffffffffffffffffffffffffffe0601f840116840101905092915050565b85815273ffffffffffffffffffffffffffffffffffffffff851660208201528360408201526080606082015260006118b8608083018486611efd565b600060208284031215611f9457600080fd5b5051919050565b7f4e487b7100000000000000000000000000000000000000000000000000000000600052601160045260246000fd5b8082018082111561072357610723611f9b565b7f4e487b7100000000000000000000000000000000000000000000000000000000600052604160045260246000fd5b604051610100810167ffffffffffffffff8111828210171561203057612030611fdd565b60405290565b600082601f83011261204757600080fd5b813567ffffffffffffffff8082111561206257612062611fdd565b604051601f83017fffffffffffffffffffffffffffffffffffffffffffffffffffffffffffffffe0908116603f011681019082821181831017156120a8576120a8611fdd565b816040528381528660208588010111156120c157600080fd5b836020870160208301376000602085830101528094505050505092915050565b600061010082360312156120f457600080fd5b6120fc61200c565b61210583611bb9565b8152602083013560208201526040830135604082015261212760608401611bb9565b60608201526080830135608082015261214260a08401611bb9565b60a082015260c083013560c082015260e083013567ffffffffffffffff81111561216b57600080fd5b61217736828601612036565b60e08301525092915050565b8181038181111561072357610723611f9b565b7f4e487b7100000000000000000000000000000000000000000000000000000000600052603260045260246000fd5b60007fffffffffffffffffffffffffffffffffffffffffffffffffffffffffffffffff82036121f6576121f6611f9b565b5060010190565b600061010073ffffffffffffffffffffffffffffffffffffffff8084511685526020840151602086015260408401516040860152806060850151166060860152608084015160808601528060a08501511660a08601525060c083015160c085015260e08301518160e086015261227582860182611d6e565b95945050505050565b82815260406020820152600061196b60408301846121fd565b8481528360208201526060604082015260006122b7606083018486611efd565b9695505050505050565b6000602082840312156122d357600080fd5b81518015158114611bfd57600080fd5b600085516122f5818460208a01611d4a565b9190910193845250602083019190915260601b7fffffffffffffffffffffffffffffffffffffffff000000000000000000000000166040820152605401919050565b602081526000611bfd60208301846121fd565b600181815b808511156123a357817fffffffffffffffffffffffffffffffffffffffffffffffffffffffffffffffff0482111561238957612389611f9b565b8085161561239657918102915b93841c939080029061234f565b509250929050565b6000826123ba57506001610723565b816123c757506000610723565b81600181146123dd57600281146123e757612403565b6001915050610723565b60ff8411156123f8576123f8611f9b565b50506001821b610723565b5060208310610133831016604e8410600b8410161715612426575081810a610723565b612430838361234a565b807fffffffffffffffffffffffffffffffffffffffffffffffffffffffffffffffff0482111561246257612462611f9b565b029392505050565b6000611bfd83836123ab565b6000826124ac577f4e487b7100000000000000000000000000000000000000000000000000000000600052601260045260246000fd5b500490565b7f4e487b7100000000000000000000000000000000000000000000000000000000600052600160045260246000fdfea2646970667358221220e4b3459bef63f5af5ae2294d65e90d4caa676610aebba195cd887e674ddf857a64736f6c63430008110033",
			"deployedBytecode": "0x60806040526004361061010e5760003560e01c80634ea59979116100a55780638b22909111610074578063ebf0c71711610059578063ebf0c717146103bb578063ee6ad167146103d1578063f67c907c146103f457600080fd5b80638b22909114610388578063b0ff5e72146103a857600080fd5b80634ea59979146102f457806352720be41461031457806354fd4d50146103295780635e26462c1461037557600080fd5b80633f3108f7116100e15780633f3108f7146101f8578063413422491461024a57806345152ae31461029e5780634872824f146102c057600080fd5b80630f988a73146101135780631c2b2da6146101355780633c50e178146101685780633dbcc8d1146101e3575b600080fd5b34801561011f57600080fd5b5061013361012e366004611be2565b610424565b005b34801561014157600080fd5b50610155610150366004611c4d565b610521565b6040519081526020015b60405180910390f35b34801561017457600080fd5b506101b6610183366004611be2565b6005602052600090815260409020805460019091015473ffffffffffffffffffffffffffffffffffffffff918216911682565b6040805173ffffffffffffffffffffffffffffffffffffffff93841681529290911660208301520161015f565b3480156101ef57600080fd5b50602754610155565b34801561020457600080fd5b506002546102259073ffffffffffffffffffffffffffffffffffffffff1681565b60405173ffffffffffffffffffffffffffffffffffffffff909116815260200161015f565b34801561025657600080fd5b5061026a610265366004611be2565b610672565b60408051825173ffffffffffffffffffffffffffffffffffffffff908116825260209384015116928101929092520161015f565b3480156102aa57600080fd5b506102b3610729565b60405161015f9190611ce1565b3480156102cc57600080fd5b506003546004546101b69173ffffffffffffffffffffffffffffffffffffffff908116911682565b34801561030057600080fd5b5061013361030f366004611d17565b610740565b34801561032057600080fd5b506102b3610863565b34801561033557600080fd5b50604080518082018252600581527f322e302e300000000000000000000000000000000000000000000000000000006020820152905161015f9190611db8565b610155610383366004611dcb565b61089f565b34801561039457600080fd5b506101336103a3366004611d17565b610948565b3480156103b457600080fd5b5046610155565b3480156103c757600080fd5b5061015560065481565b6103e46103df366004611e72565b610a07565b604051901515815260200161015f565b34801561040057600080fd5b506103e461040f366004611ee4565b60286020526000908152604090205460ff1681565b60025473ffffffffffffffffffffffffffffffffffffffff1633146104aa576040517f08c379a000000000000000000000000000000000000000000000000000000000815260206004820152600560248201527f216175746800000000000000000000000000000000000000000000000000000060448201526064015b60405180910390fd5b6002805473ffffffffffffffffffffffffffffffffffffffff8381167fffffffffffffffffffffffff0000000000000000000000000000000000000000831681179093556040519116919082907fb0999394a8202229d1e14c6290230863233f18473f7504b3a7b1a27f9b014c9d90600090a35050565b60008061052d88610672565b90506000816020015173ffffffffffffffffffffffffffffffffffffffff166353179a7c8b8b8b8b8b6040518663ffffffff1660e01b8152600401610576959493929190611f46565b602060405180830381865afa158015610593573d6000803e3d6000fd5b505050506040513d601f19601f820116820180604052508101906105b79190611f82565b82516040517fa1dbf432000000000000000000000000000000000000000000000000000000008152600481018d905273ffffffffffffffffffffffffffffffffffffffff8c811660248301529293506000929091169063a1dbf43290604401602060405180830381865afa158015610633573d6000803e3d6000fd5b505050506040513d601f19601f820116820180604052508101906106579190611f82565b90506106638183611fca565b9b9a5050505050505050505050565b6040805180820182526000808252602080830182905273ffffffffffffffffffffffffffffffffffffffff858116835260058252918490208451808601909552805483168552600101549091169083018190529091906106eb5760045473ffffffffffffffffffffffffffffffffffffffff1660208201525b805173ffffffffffffffffffffffffffffffffffffffff166107235760035473ffffffffffffffffffffffffffffffffffffffff1681525b92915050565b610731611b9a565b61073b6007610ae4565b905090565b60025473ffffffffffffffffffffffffffffffffffffffff1633146107c1576040517f08c379a000000000000000000000000000000000000000000000000000000000815260206004820152600560248201527f216175746800000000000000000000000000000000000000000000000000000060448201526064016104a1565b60408051808201825273ffffffffffffffffffffffffffffffffffffffff8481168083529084166020928301819052600380547fffffffffffffffffffffffff0000000000000000000000000000000000000000908116841790915560048054909116821790558351918252918101919091527f504f152883e6158786ddfcce63f4d4d95ce8e404b1f6e6365a06f63849b7cb95910160405180910390a15050565b61086b611b9a565b604080516104008101918290529060079060209082845b815481526020019060010190808311610882575050505050905090565b600060016000541461090d576040517f08c379a000000000000000000000000000000000000000000000000000000000815260206004820152601060248201527f2173656e642d7265656e7472616e63790000000000000000000000000000000060448201526064016104a1565b600260009081553390610924828c8c8c8c8c610bda565b90506109358287838e8d8d8d610d9d565b60016000559a9950505050505050505050565b60408051808201825273ffffffffffffffffffffffffffffffffffffffff848116808352848216602080850182815233600081815260058452889020965187549087167fffffffffffffffffffffffff000000000000000000000000000000000000000091821617885591516001909701805497909616969091169590951790935584519182529181019190915290917f86b44d92ad94c11b25d0f08d0f55e8e235b4d165e62e541c02e8ee19f551c97b910160405180910390a25050565b60006001805414610a74576040517f08c379a000000000000000000000000000000000000000000000000000000000815260206004820152601060248201527f21726563762d7265656e7472616e63790000000000000000000000000000000060448201526064016104a1565b60026001556000610a86858585610e8d565b9050610a9a610a94866120e1565b82611155565b9150807f62b1dc20fd6f1518626da5b6f9897e8cd4ebadbad071bb66dc96a37c970087a883604051610ad0911515815260200190565b60405180910390a250600180559392505050565b610aec611b9a565b600060018360200154610aff9190612183565b6040805161040081019182905291925060009190859060209082845b815481526020019060010190808311610b1b57505050505090506000610b3f6111df565b905060005b6020811015610bd157600184821c811690819003610b8f57838260208110610b6e57610b6e612196565b6020020151868360208110610b8557610b85612196565b6020020152610bbe565b828260208110610ba157610ba1612196565b6020020151868360208110610bb857610bb8612196565b60200201525b5080610bc9816121c5565b915050610b44565b50505050919050565b6000468603610c45576040517f08c379a000000000000000000000000000000000000000000000000000000000815260206004820152600c60248201527f2163726f73732d636861696e000000000000000000000000000000000000000060448201526064016104a1565b6000610c5060275490565b905060006040518061010001604052807f000000000000000000000000dd78ab76accac9ec38613dc7e48887011972591473ffffffffffffffffffffffffffffffffffffffff168152602001838152602001610ca94690565b81526020018a73ffffffffffffffffffffffffffffffffffffffff1681526020018981526020018873ffffffffffffffffffffffffffffffffffffffff16815260200187815260200186868080601f016020809104026020016040519081016040528093929190818152602001838380828437600092018290525093909452509293509150610d399050826116a0565b9050610d466007826116d0565b610d506007611814565b600681905560405182917f327110434bca326d1f70236295f59c8b472ebc683a6549ca9254697564fec4a591610d889190869061227e565b60405180910390a29998505050505050505050565b6000610da888610672565b90506000610dbe8260200151878b888888611827565b90506000610dd18360000151888c6118c3565b9050826020015173ffffffffffffffffffffffffffffffffffffffff16836000015173ffffffffffffffffffffffffffffffffffffffff16897ff7e134438bf3052b95eaa2f90f4177932297d80eb36186624c2f366cb8944ecf8486604051610e44929190918252602082015260400190565b60405180910390a4610e568183611fca565b341115610e81576000610e698284611fca565b610e739034612183565b9050610e7f8a82611973565b505b50505050505050505050565b600080610ea361026560c0870160a08801611be2565b602081015190915073ffffffffffffffffffffffffffffffffffffffff163314610f29576040517f08c379a000000000000000000000000000000000000000000000000000000000815260206004820152600560248201527f216175746800000000000000000000000000000000000000000000000000000060448201526064016104a1565b6000610f3c610f37876120e1565b6116a0565b9050816000015173ffffffffffffffffffffffffffffffffffffffff1663094f87c587604001358388886040518563ffffffff1660e01b8152600401610f859493929190612297565b602060405180830381865afa158015610fa2573d6000803e3d6000fd5b505050506040513d601f19601f82011682018060405250810190610fc691906122c1565b61102c576040517f08c379a000000000000000000000000000000000000000000000000000000000815260206004820152600660248201527f2170726f6f66000000000000000000000000000000000000000000000000000060448201526064016104a1565b60808601354614611099576040517f08c379a000000000000000000000000000000000000000000000000000000000815260206004820152600a60248201527f21746f436861696e49640000000000000000000000000000000000000000000060448201526064016104a1565b60008181526028602052604090205460ff1615611114576040517f08c379a00000000000000000000000000000000000000000000000000000000081526004016104a19060208082526004908201527f646f6e6500000000000000000000000000000000000000000000000000000000604082015260600190565b600081815260286020526040902080547fffffffffffffffffffffffffffffffffffffffffffffffffffffffffffffff001660011790559150509392505050565b60006111d78360c001513460008660e00151868860400151896060015160405160200161118594939291906122e3565b604080517fffffffffffffffffffffffffffffffffffffffffffffffffffffffffffffffe081840301815291905260a088015173ffffffffffffffffffffffffffffffffffffffff1693929190611a3d565b509392505050565b6111e7611b9a565b600081527fad3228b676f7d3cd4284a5443f17f1962b36e491b30a40b2405849e597ba5fb560208201527fb4c11951957c6f8f642c4af61cd6b24640fec6dc7fc607ee8206a99e92410d3060408201527f21ddb9a356815c3fac1026b6dec5df3124afbadb485c9ba5a3e3398a04b7ba8560608201527fe58769b32a1beaf1ea27375a44095a0d1fb664ce2dd358e7fcbfb78c26a1934460808201527f0eb01ebfc9ed27500cd4dfc979272d1f0913cc9f66540d7e8005811109e1cf2d60a08201527f887c22bd8750d34016ac3c66b5ff102dacdd73f6b014e710b51e8022af9a196860c08201527fffd70157e48063fc33c97a050f7f640233bf646cc98d9524c6b92bcf3ab56f8360e08201527f9867cc5f7f196b93bae1e27e6320742445d290f2263827498b54fec539f756af6101008201527fcefad4e508c098b9a7e1d8feb19955fb02ba9675585078710969d3440f5054e06101208201527ff9dc3e7fe016e050eff260334f18a5d4fe391d82092319f5964f2e2eb7c1c3a56101408201527ff8b13a49e282f609c317a833fb8d976d11517c571d1221a265d25af778ecf8926101608201527f3490c6ceeb450aecdc82e28293031d10c7d73bf85e57bf041a97360aa2c5d99c6101808201527fc1df82d9c4b87413eae2ef048f94b4d3554cea73d92b0f7af96e0271c691e2bb6101a08201527f5c67add7c6caf302256adedf7ab114da0acfe870d449a3a489f781d659e8becc6101c08201527fda7bce9f4e8618b6bd2f4132ce798cdc7a60e7e1460a7299e3c6342a579626d26101e08201527f2733e50f526ec2fa19a22b31e8ed50f23cd1fdf94c9154ed3a7609a2f1ff981f6102008201527fe1d3b5c807b281e4683cc6d6315cf95b9ade8641defcb32372f1c126e398ef7a6102208201527f5a2dce0a8a7f68bb74560f8f71837c2c2ebbcbf7fffb42ae1896f13f7c7479a06102408201527fb46a28b6f55540f89444f63de0378e3d121be09e06cc9ded1c20e65876d36aa06102608201527fc65e9645644786b620e2dd2ad648ddfcbf4a7e5b1a3a4ecfe7f64667a3f0b7e26102808201527ff4418588ed35a2458cffeb39b93d26f18d2ab13bdce6aee58e7b99359ec2dfd96102a08201527f5a9c16dc00d6ef18b7933a6f8dc65ccb55667138776f7dea101070dc8796e3776102c08201527f4df84f40ae0c8229d0d6069e5c8f39a7c299677a09d367fc7b05e3bc380ee6526102e08201527fcdc72595f74c7b1043d0e1ffbab734648c838dfb0527d971b602bc216c9619ef6103008201527f0abf5ac974a1ed57f4050aa510dd9c74f508277b39d7973bb2dfccc5eeb0618d6103208201527fb8cd74046ff337f0a7bf2c8e03e10f642c1886798d71806ab1e888d9e5ee87d06103408201527f838c5655cb21c6cb83313b5a631175dff4963772cce9108188b34ac87c81c41e6103608201527f662ee4dd2dd7b2bc707961b1e646c4047669dcb6584f0d8d770daf5d7e7deb2e6103808201527f388ab20e2573d171a88108e79d820e98f26c0b84aa8b2f4aa4968dbb818ea3226103a08201527f93237c50ba75ee485f4c22adf2f741400bdf8d6a9cc7df7ecae576221665d7356103c08201527f8448818bb4ae4562849e949e17ac16e0be16688e156b5cf15e098c627c0056a96103e082015290565b6000816040516020016116b39190612337565b604051602081830303815290604052805190602001209050919050565b60016116de6020600261246a565b6116e89190612183565b826020015410611754576040517f08c379a000000000000000000000000000000000000000000000000000000000815260206004820152601060248201527f6d65726b6c6520747265652066756c6c0000000000000000000000000000000060448201526064016104a1565b60018260200160008282546117699190611fca565b9091555050602082015460005b602081101561180657816001166001036117a5578284826020811061179d5761179d612196565b015550505050565b8381602081106117b7576117b7612196565b015460408051602081019290925281018490526060016040516020818303038152906040528051906020012092506002826117f29190612476565b9150806117fe816121c5565b915050611776565b5061180f6124b1565b505050565b6000610723826118226111df565b611ac8565b6000808773ffffffffffffffffffffffffffffffffffffffff166353179a7c88888888886040518663ffffffff1660e01b815260040161186b959493929190611f46565b602060405180830381865afa158015611888573d6000803e3d6000fd5b505050506040513d601f19601f820116820180604052508101906118ac9190611f82565b90506118b88882611973565b979650505050505050565b6040517fa1dbf4320000000000000000000000000000000000000000000000000000000081526004810183905273ffffffffffffffffffffffffffffffffffffffff8281166024830152600091829186169063a1dbf43290604401602060405180830381865afa15801561193b573d6000803e3d6000fd5b505050506040513d601f19601f8201168201806040525081019061195f9190611f82565b905061196b8582611973565b949350505050565b60008273ffffffffffffffffffffffffffffffffffffffff168260405160006040518083038185875af1925050503d80600081146119cd576040519150601f19603f3d011682016040523d82523d6000602084013e6119d2565b606091505b505090508061180f576040517f08c379a000000000000000000000000000000000000000000000000000000000815260206004820152600560248201527f2173656e6400000000000000000000000000000000000000000000000000000060448201526064016104a1565b6000606060008060008661ffff1667ffffffffffffffff811115611a6357611a63611fdd565b6040519080825280601f01601f191660200182016040528015611a8d576020820181803683370190505b5090506000808751602089018b8e8ef191503d925086831115611aae578692505b828152826000602083013e90999098509650505050505050565b6020820154600090815b6020811015611b9257600182821c166000868360208110611af557611af5612196565b0154905081600103611b32576040805160208101839052908101869052606001604051602081830303815290604052805190602001209450611b7d565b84868460208110611b4557611b45612196565b6020020151604051602001611b64929190918252602082015260400190565b6040516020818303038152906040528051906020012094505b50508080611b8a906121c5565b915050611ad2565b505092915050565b6040518061040001604052806020906020820280368337509192915050565b803573ffffffffffffffffffffffffffffffffffffffff81168114611bdd57600080fd5b919050565b600060208284031215611bf457600080fd5b611bfd82611bb9565b9392505050565b60008083601f840112611c1657600080fd5b50813567ffffffffffffffff811115611c2e57600080fd5b602083019150836020828501011115611c4657600080fd5b9250929050565b600080600080600080600060a0888a031215611c6857600080fd5b87359650611c7860208901611bb9565b955060408801359450606088013567ffffffffffffffff80821115611c9c57600080fd5b611ca88b838c01611c04565b909650945060808a0135915080821115611cc157600080fd5b50611cce8a828b01611c04565b989b979a50959850939692959293505050565b6104008101818360005b6020808210611cfa5750611d0e565b825184529283019290910190600101611ceb565b50505092915050565b60008060408385031215611d2a57600080fd5b611d3383611bb9565b9150611d4160208401611bb9565b90509250929050565b60005b83811015611d65578181015183820152602001611d4d565b50506000910152565b60008151808452611d86816020860160208601611d4a565b601f017fffffffffffffffffffffffffffffffffffffffffffffffffffffffffffffffe0169290920160200192915050565b602081526000611bfd6020830184611d6e565b60008060008060008060008060c0898b031215611de757600080fd5b88359750611df760208a01611bb9565b965060408901359550606089013567ffffffffffffffff80821115611e1b57600080fd5b611e278c838d01611c04565b9097509550859150611e3b60808c01611bb9565b945060a08b0135915080821115611e5157600080fd5b50611e5e8b828c01611c04565b999c989b5096995094979396929594505050565b600080600060408486031215611e8757600080fd5b833567ffffffffffffffff80821115611e9f57600080fd5b908501906101008288031215611eb457600080fd5b90935060208501359080821115611eca57600080fd5b50611ed786828701611c04565b9497909650939450505050565b600060208284031215611ef657600080fd5b5035919050565b8183528181602085013750600060208284010152600060207fffffffffffffffffffffffffffffffffffffffffffffffffffffffffffffffe0601f840116840101905092915050565b85815273ffffffffffffffffffffffffffffffffffffffff851660208201528360408201526080606082015260006118b8608083018486611efd565b600060208284031215611f9457600080fd5b5051919050565b7f4e487b7100000000000000000000000000000000000000000000000000000000600052601160045260246000fd5b8082018082111561072357610723611f9b565b7f4e487b7100000000000000000000000000000000000000000000000000000000600052604160045260246000fd5b604051610100810167ffffffffffffffff8111828210171561203057612030611fdd565b60405290565b600082601f83011261204757600080fd5b813567ffffffffffffffff8082111561206257612062611fdd565b604051601f83017fffffffffffffffffffffffffffffffffffffffffffffffffffffffffffffffe0908116603f011681019082821181831017156120a8576120a8611fdd565b816040528381528660208588010111156120c157600080fd5b836020870160208301376000602085830101528094505050505092915050565b600061010082360312156120f457600080fd5b6120fc61200c565b61210583611bb9565b8152602083013560208201526040830135604082015261212760608401611bb9565b60608201526080830135608082015261214260a08401611bb9565b60a082015260c083013560c082015260e083013567ffffffffffffffff81111561216b57600080fd5b61217736828601612036565b60e08301525092915050565b8181038181111561072357610723611f9b565b7f4e487b7100000000000000000000000000000000000000000000000000000000600052603260045260246000fd5b60007fffffffffffffffffffffffffffffffffffffffffffffffffffffffffffffffff82036121f6576121f6611f9b565b5060010190565b600061010073ffffffffffffffffffffffffffffffffffffffff8084511685526020840151602086015260408401516040860152806060850151166060860152608084015160808601528060a08501511660a08601525060c083015160c085015260e08301518160e086015261227582860182611d6e565b95945050505050565b82815260406020820152600061196b60408301846121fd565b8481528360208201526060604082015260006122b7606083018486611efd565b9695505050505050565b6000602082840312156122d357600080fd5b81518015158114611bfd57600080fd5b600085516122f5818460208a01611d4a565b9190910193845250602083019190915260601b7fffffffffffffffffffffffffffffffffffffffff000000000000000000000000166040820152605401919050565b602081526000611bfd60208301846121fd565b600181815b808511156123a357817fffffffffffffffffffffffffffffffffffffffffffffffffffffffffffffffff0482111561238957612389611f9b565b8085161561239657918102915b93841c939080029061234f565b509250929050565b6000826123ba57506001610723565b816123c757506000610723565b81600181146123dd57600281146123e757612403565b6001915050610723565b60ff8411156123f8576123f8611f9b565b50506001821b610723565b5060208310610133831016604e8410600b8410161715612426575081810a610723565b612430838361234a565b807fffffffffffffffffffffffffffffffffffffffffffffffffffffffffffffffff0482111561246257612462611f9b565b029392505050565b6000611bfd83836123ab565b6000826124ac577f4e487b7100000000000000000000000000000000000000000000000000000000600052601260045260246000fd5b500490565b7f4e487b7100000000000000000000000000000000000000000000000000000000600052600160045260246000fdfea2646970667358221220e4b3459bef63f5af5ae2294d65e90d4caa676610aebba195cd887e674ddf857a64736f6c63430008110033",
			"devdoc": {
				"kind": "dev",
				"methods": {
					"LOCAL_CHAINID()": {
						"details": "Fetch local chain id.",
						"returns": {
							"chainId": "Local chain id."
						}
					},
					"changeSetter(address)": {
						"details": "Change setter.",
						"params": {
							"newSetter": "New setter."
						}
					},
					"fee(uint256,address,uint256,bytes,bytes)": {
						"params": {
							"encoded": "The calldata which encoded by ABI Encoding.",
							"gasLimit": "Gas limit for destination user application used."
						}
					},
					"getAppConfig(address)": {
						"details": "Fetch user application config.",
						"params": {
							"ua": "User application contract address."
						},
						"returns": {
							"_0": "user application config."
						}
					},
					"imtBranch()": {
						"details": "Fetch the branch of incremental merkle tree."
					},
					"messageCount()": {
						"details": "Fetch the messages count of incremental merkle tree."
					},
					"prove()": {
						"details": "Fetch the latest message proof"
					},
					"recv((address,uint256,uint256,address,uint256,address,uint256,bytes),bytes)": {
						"details": "Recv verified message from Channel and dispatch to destination user application address.",
						"params": {
							"message": "Verified receive message info.",
							"proof": "Message proof of this message."
						},
						"returns": {
							"dispatchResult": "Result of the message dispatch."
						}
					},
					"send(uint256,address,uint256,bytes,address,bytes)": {
						"details": "Send a cross-chain message over the endpoint.",
						"params": {
							"encoded": "The calldata which encoded by ABI Encoding.",
							"gasLimit": "Gas limit for destination user application used.",
							"refund": "Return extra fee to refund address.",
							"to": "User application contract address which receive the message.",
							"toChainId": "The Message destination chain id."
						}
					},
					"setAppConfig(address,address)": {
						"params": {
							"oracle": "Oracle which user application.",
							"relayer": "Relayer which user application choose."
						}
					},
					"setDefaultConfig(address,address)": {
						"details": "Set default user config for all user application.",
						"params": {
							"oracle": "Default oracle.",
							"relayer": "Default relayer."
						}
					}
				},
				"version": 1
			},
			"userdoc": {
				"kind": "user",
				"methods": {
					"changeSetter(address)": {
						"notice": "Only current setter could call."
					},
					"getAppConfig(address)": {
						"notice": "If user application has not configured, then the default user config is used."
					},
					"recv((address,uint256,uint256,address,uint256,address,uint256,bytes),bytes)": {
						"notice": "Only channel could call this function."
					},
					"send(uint256,address,uint256,bytes,address,bytes)": {
						"notice": "follow https://eips.ethereum.org/EIPS/eip-5750"
					},
					"setAppConfig(address,address)": {
						"notice": "Set user application config."
					},
					"setDefaultConfig(address,address)": {
						"notice": "Only setter could call."
					}
				},
				"version": 1
			},
			"gitCommit": "ea8caff26eeb31c3189033ff62ea530464fdf5ab",
			"sourceName": "lib/ORMP/src/ORMP.sol",
			"chainId": "421614",
			"linkReferences": {},
			"deployedLinkReferences": {}
		},
		{
			"_format": "sphinx-sol-ct-artifact-1",
			"merkleRoot": "0x657e9d8f3262c9173e0b8e7bc93ec674e21b7ff154dad3e0d834d502c6eab43f",
			"contractName": "ORMP",
			"address": "0xaA3F4F3EEf7b9eC6f3a6D57f19aB629eC3Aa5e3C",
			"abi": [
				{
					"type": "constructor",
					"inputs": [
						{
							"name": "dao",
							"type": "address",
							"internalType": "address"
						}
					],
					"stateMutability": "nonpayable"
				},
				{
					"type": "function",
					"name": "LOCAL_CHAINID",
					"inputs": [],
					"outputs": [
						{
							"name": "chainId",
							"type": "uint256",
							"internalType": "uint256"
						}
					],
					"stateMutability": "view"
				},
				{
					"type": "function",
					"name": "changeSetter",
					"inputs": [
						{
							"name": "newSetter",
							"type": "address",
							"internalType": "address"
						}
					],
					"outputs": [],
					"stateMutability": "nonpayable"
				},
				{
					"type": "function",
					"name": "defaultUC",
					"inputs": [],
					"outputs": [
						{
							"name": "oracle",
							"type": "address",
							"internalType": "address"
						},
						{
							"name": "relayer",
							"type": "address",
							"internalType": "address"
						}
					],
					"stateMutability": "view"
				},
				{
					"type": "function",
					"name": "dones",
					"inputs": [
						{
							"name": "",
							"type": "bytes32",
							"internalType": "bytes32"
						}
					],
					"outputs": [
						{
							"name": "",
							"type": "bool",
							"internalType": "bool"
						}
					],
					"stateMutability": "view"
				},
				{
					"type": "function",
					"name": "fee",
					"inputs": [
						{
							"name": "toChainId",
							"type": "uint256",
							"internalType": "uint256"
						},
						{
							"name": "ua",
							"type": "address",
							"internalType": "address"
						},
						{
							"name": "gasLimit",
							"type": "uint256",
							"internalType": "uint256"
						},
						{
							"name": "encoded",
							"type": "bytes",
							"internalType": "bytes"
						},
						{
							"name": "",
							"type": "bytes",
							"internalType": "bytes"
						}
					],
					"outputs": [
						{
							"name": "",
							"type": "uint256",
							"internalType": "uint256"
						}
					],
					"stateMutability": "view"
				},
				{
					"type": "function",
					"name": "getAppConfig",
					"inputs": [
						{
							"name": "ua",
							"type": "address",
							"internalType": "address"
						}
					],
					"outputs": [
						{
							"name": "",
							"type": "tuple",
							"internalType": "struct UC",
							"components": [
								{
									"name": "oracle",
									"type": "address",
									"internalType": "address"
								},
								{
									"name": "relayer",
									"type": "address",
									"internalType": "address"
								}
							]
						}
					],
					"stateMutability": "view"
				},
				{
					"type": "function",
					"name": "imtBranch",
					"inputs": [],
					"outputs": [
						{
							"name": "",
							"type": "bytes32[32]",
							"internalType": "bytes32[32]"
						}
					],
					"stateMutability": "view"
				},
				{
					"type": "function",
					"name": "messageCount",
					"inputs": [],
					"outputs": [
						{
							"name": "",
							"type": "uint256",
							"internalType": "uint256"
						}
					],
					"stateMutability": "view"
				},
				{
					"type": "function",
					"name": "prove",
					"inputs": [],
					"outputs": [
						{
							"name": "",
							"type": "bytes32[32]",
							"internalType": "bytes32[32]"
						}
					],
					"stateMutability": "view"
				},
				{
					"type": "function",
					"name": "recv",
					"inputs": [
						{
							"name": "message",
							"type": "tuple",
							"internalType": "struct Message",
							"components": [
								{
									"name": "channel",
									"type": "address",
									"internalType": "address"
								},
								{
									"name": "index",
									"type": "uint256",
									"internalType": "uint256"
								},
								{
									"name": "fromChainId",
									"type": "uint256",
									"internalType": "uint256"
								},
								{
									"name": "from",
									"type": "address",
									"internalType": "address"
								},
								{
									"name": "toChainId",
									"type": "uint256",
									"internalType": "uint256"
								},
								{
									"name": "to",
									"type": "address",
									"internalType": "address"
								},
								{
									"name": "gasLimit",
									"type": "uint256",
									"internalType": "uint256"
								},
								{
									"name": "encoded",
									"type": "bytes",
									"internalType": "bytes"
								}
							]
						},
						{
							"name": "proof",
							"type": "bytes",
							"internalType": "bytes"
						}
					],
					"outputs": [
						{
							"name": "dispatchResult",
							"type": "bool",
							"internalType": "bool"
						}
					],
					"stateMutability": "payable"
				},
				{
					"type": "function",
					"name": "root",
					"inputs": [],
					"outputs": [
						{
							"name": "",
							"type": "bytes32",
							"internalType": "bytes32"
						}
					],
					"stateMutability": "view"
				},
				{
					"type": "function",
					"name": "send",
					"inputs": [
						{
							"name": "toChainId",
							"type": "uint256",
							"internalType": "uint256"
						},
						{
							"name": "to",
							"type": "address",
							"internalType": "address"
						},
						{
							"name": "gasLimit",
							"type": "uint256",
							"internalType": "uint256"
						},
						{
							"name": "encoded",
							"type": "bytes",
							"internalType": "bytes"
						},
						{
							"name": "refund",
							"type": "address",
							"internalType": "address"
						},
						{
							"name": "",
							"type": "bytes",
							"internalType": "bytes"
						}
					],
					"outputs": [
						{
							"name": "",
							"type": "bytes32",
							"internalType": "bytes32"
						}
					],
					"stateMutability": "payable"
				},
				{
					"type": "function",
					"name": "setAppConfig",
					"inputs": [
						{
							"name": "oracle",
							"type": "address",
							"internalType": "address"
						},
						{
							"name": "relayer",
							"type": "address",
							"internalType": "address"
						}
					],
					"outputs": [],
					"stateMutability": "nonpayable"
				},
				{
					"type": "function",
					"name": "setDefaultConfig",
					"inputs": [
						{
							"name": "oracle",
							"type": "address",
							"internalType": "address"
						},
						{
							"name": "relayer",
							"type": "address",
							"internalType": "address"
						}
					],
					"outputs": [],
					"stateMutability": "nonpayable"
				},
				{
					"type": "function",
					"name": "setter",
					"inputs": [],
					"outputs": [
						{
							"name": "",
							"type": "address",
							"internalType": "address"
						}
					],
					"stateMutability": "view"
				},
				{
					"type": "function",
					"name": "ucOf",
					"inputs": [
						{
							"name": "",
							"type": "address",
							"internalType": "address"
						}
					],
					"outputs": [
						{
							"name": "oracle",
							"type": "address",
							"internalType": "address"
						},
						{
							"name": "relayer",
							"type": "address",
							"internalType": "address"
						}
					],
					"stateMutability": "view"
				},
				{
					"type": "function",
					"name": "version",
					"inputs": [],
					"outputs": [
						{
							"name": "",
							"type": "string",
							"internalType": "string"
						}
					],
					"stateMutability": "pure"
				},
				{
					"type": "event",
					"name": "AppConfigUpdated",
					"inputs": [
						{
							"name": "ua",
							"type": "address",
							"indexed": true,
							"internalType": "address"
						},
						{
							"name": "oracle",
							"type": "address",
							"indexed": false,
							"internalType": "address"
						},
						{
							"name": "relayer",
							"type": "address",
							"indexed": false,
							"internalType": "address"
						}
					],
					"anonymous": false
				},
				{
					"type": "event",
					"name": "DefaultConfigUpdated",
					"inputs": [
						{
							"name": "oracle",
							"type": "address",
							"indexed": false,
							"internalType": "address"
						},
						{
							"name": "relayer",
							"type": "address",
							"indexed": false,
							"internalType": "address"
						}
					],
					"anonymous": false
				},
				{
					"type": "event",
					"name": "MessageAccepted",
					"inputs": [
						{
							"name": "msgHash",
							"type": "bytes32",
							"indexed": true,
							"internalType": "bytes32"
						},
						{
							"name": "root",
							"type": "bytes32",
							"indexed": false,
							"internalType": "bytes32"
						},
						{
							"name": "message",
							"type": "tuple",
							"indexed": false,
							"internalType": "struct Message",
							"components": [
								{
									"name": "channel",
									"type": "address",
									"internalType": "address"
								},
								{
									"name": "index",
									"type": "uint256",
									"internalType": "uint256"
								},
								{
									"name": "fromChainId",
									"type": "uint256",
									"internalType": "uint256"
								},
								{
									"name": "from",
									"type": "address",
									"internalType": "address"
								},
								{
									"name": "toChainId",
									"type": "uint256",
									"internalType": "uint256"
								},
								{
									"name": "to",
									"type": "address",
									"internalType": "address"
								},
								{
									"name": "gasLimit",
									"type": "uint256",
									"internalType": "uint256"
								},
								{
									"name": "encoded",
									"type": "bytes",
									"internalType": "bytes"
								}
							]
						}
					],
					"anonymous": false
				},
				{
					"type": "event",
					"name": "MessageAssigned",
					"inputs": [
						{
							"name": "msgHash",
							"type": "bytes32",
							"indexed": true,
							"internalType": "bytes32"
						},
						{
							"name": "oracle",
							"type": "address",
							"indexed": true,
							"internalType": "address"
						},
						{
							"name": "relayer",
							"type": "address",
							"indexed": true,
							"internalType": "address"
						},
						{
							"name": "oracleFee",
							"type": "uint256",
							"indexed": false,
							"internalType": "uint256"
						},
						{
							"name": "relayerFee",
							"type": "uint256",
							"indexed": false,
							"internalType": "uint256"
						}
					],
					"anonymous": false
				},
				{
					"type": "event",
					"name": "MessageDispatched",
					"inputs": [
						{
							"name": "msgHash",
							"type": "bytes32",
							"indexed": true,
							"internalType": "bytes32"
						},
						{
							"name": "dispatchResult",
							"type": "bool",
							"indexed": false,
							"internalType": "bool"
						}
					],
					"anonymous": false
				},
				{
					"type": "event",
					"name": "SetterChanged",
					"inputs": [
						{
							"name": "oldSetter",
							"type": "address",
							"indexed": true,
							"internalType": "address"
						},
						{
							"name": "newSetter",
							"type": "address",
							"indexed": true,
							"internalType": "address"
						}
					],
					"anonymous": false
				}
			],
			"solcInputHash": "403d52f660759fecc7155a43916ae2fb",
			"receipt": {
				"blockHash": "0xa096073b7b561856786fe04e15ff67d16c3811cd87b887a866dc262dad673160",
				"blockNumber": 27511717,
				"contractAddress": null,
				"cumulativeGasUsed": "11702806",
				"from": "0xD70A2e6eACbdeDA77a5d4bBAE3bC70239A0e088f",
				"gasPrice": "100000000",
				"gasUsed": "11702806",
				"hash": "0x926a43c21d7390a04aaddcb535934b61990aa72113e68656d877d61e3ca4721b",
				"index": 1,
				"logs": [
					{
						"address": "0x701609866556Cb9A1FBD6B40201cD5899c9D2d56",
						"blockHash": "0xa096073b7b561856786fe04e15ff67d16c3811cd87b887a866dc262dad673160",
						"blockNumber": 27511717,
						"data": "0x000000000000000000000000aa3f4f3eef7b9ec6f3a6d57f19ab629ec3aa5e3c",
						"index": 0,
						"topics": [
							"0x4db17dd5e4732fb6da34a148104a592783ca119a1e7bb8829eba6cbadef0b511"
						],
						"transactionHash": "0x926a43c21d7390a04aaddcb535934b61990aa72113e68656d877d61e3ca4721b",
						"transactionIndex": 1
					},
					{
						"address": "0x701609866556Cb9A1FBD6B40201cD5899c9D2d56",
						"blockHash": "0xa096073b7b561856786fe04e15ff67d16c3811cd87b887a866dc262dad673160",
						"blockNumber": 27511717,
						"data": "0x",
						"index": 1,
						"topics": [
							"0x6895c13664aa4f67288b25d7a21d7aaa34916e355fb9b6fae0a139a9085becb8",
							"0x00000000000000000000000004678247ac000d74768e5caa72a221a0a7c2ae44"
						],
						"transactionHash": "0x926a43c21d7390a04aaddcb535934b61990aa72113e68656d877d61e3ca4721b",
						"transactionIndex": 1
					},
					{
						"address": "0x04678247aC000d74768E5CAa72a221A0a7C2Ae44",
						"blockHash": "0xa096073b7b561856786fe04e15ff67d16c3811cd87b887a866dc262dad673160",
						"blockNumber": 27511717,
						"data": "0x0000000000000000000000000000000000000000000000000000000000000001",
						"index": 2,
						"topics": [
							"0xa65fb05c5808f5f389d72edeaf719ce38f4cc55c1f69ca3cbfb31c21501caa07",
							"0x657e9d8f3262c9173e0b8e7bc93ec674e21b7ff154dad3e0d834d502c6eab43f"
						],
						"transactionHash": "0x926a43c21d7390a04aaddcb535934b61990aa72113e68656d877d61e3ca4721b",
						"transactionIndex": 1
					},
					{
						"address": "0x04678247aC000d74768E5CAa72a221A0a7C2Ae44",
						"blockHash": "0xa096073b7b561856786fe04e15ff67d16c3811cd87b887a866dc262dad673160",
						"blockNumber": 27511717,
						"data": "0x",
						"index": 3,
						"topics": [
							"0x4383d976757d67ca920616be0b6430a681ea9d3dcce8d6d61d4603ca4a9bff63",
							"0x657e9d8f3262c9173e0b8e7bc93ec674e21b7ff154dad3e0d834d502c6eab43f"
						],
						"transactionHash": "0x926a43c21d7390a04aaddcb535934b61990aa72113e68656d877d61e3ca4721b",
						"transactionIndex": 1
					}
				],
				"logsBloom": "0x00000000000010000000000000080000000000000000000000000000000000000000000000000000000000000000000000000000020000000000000000000000000000000000200000000100020002000000000000000000040000000000000000000800000000000000000000000000000000000820000000000000000000000000000000400000000000000010000000000000000000000000004000000000000000800000000000000000000000000200000080000000000000000004000000000000000000000000000000000008000000000000100000000008000000000000000000000008000000000000000200000000000000000000000008000000",
				"status": 1,
				"to": "0x04678247aC000d74768E5CAa72a221A0a7C2Ae44"
			},
			"metadata": "{\"compiler\":{\"version\":\"0.8.17+commit.8df45f5f\"},\"language\":\"Solidity\",\"output\":{\"abi\":[{\"inputs\":[{\"internalType\":\"address\",\"name\":\"dao\",\"type\":\"address\"}],\"stateMutability\":\"nonpayable\",\"type\":\"constructor\"},{\"inputs\":[{\"internalType\":\"address\",\"name\":\"ua\",\"type\":\"address\",\"indexed\":true},{\"internalType\":\"address\",\"name\":\"oracle\",\"type\":\"address\",\"indexed\":false},{\"internalType\":\"address\",\"name\":\"relayer\",\"type\":\"address\",\"indexed\":false}],\"type\":\"event\",\"name\":\"AppConfigUpdated\",\"anonymous\":false},{\"inputs\":[{\"internalType\":\"address\",\"name\":\"oracle\",\"type\":\"address\",\"indexed\":false},{\"internalType\":\"address\",\"name\":\"relayer\",\"type\":\"address\",\"indexed\":false}],\"type\":\"event\",\"name\":\"DefaultConfigUpdated\",\"anonymous\":false},{\"inputs\":[{\"internalType\":\"bytes32\",\"name\":\"msgHash\",\"type\":\"bytes32\",\"indexed\":true},{\"internalType\":\"bytes32\",\"name\":\"root\",\"type\":\"bytes32\",\"indexed\":false},{\"internalType\":\"struct Message\",\"name\":\"message\",\"type\":\"tuple\",\"components\":[{\"internalType\":\"address\",\"name\":\"channel\",\"type\":\"address\"},{\"internalType\":\"uint256\",\"name\":\"index\",\"type\":\"uint256\"},{\"internalType\":\"uint256\",\"name\":\"fromChainId\",\"type\":\"uint256\"},{\"internalType\":\"address\",\"name\":\"from\",\"type\":\"address\"},{\"internalType\":\"uint256\",\"name\":\"toChainId\",\"type\":\"uint256\"},{\"internalType\":\"address\",\"name\":\"to\",\"type\":\"address\"},{\"internalType\":\"uint256\",\"name\":\"gasLimit\",\"type\":\"uint256\"},{\"internalType\":\"bytes\",\"name\":\"encoded\",\"type\":\"bytes\"}],\"indexed\":false}],\"type\":\"event\",\"name\":\"MessageAccepted\",\"anonymous\":false},{\"inputs\":[{\"internalType\":\"bytes32\",\"name\":\"msgHash\",\"type\":\"bytes32\",\"indexed\":true},{\"internalType\":\"address\",\"name\":\"oracle\",\"type\":\"address\",\"indexed\":true},{\"internalType\":\"address\",\"name\":\"relayer\",\"type\":\"address\",\"indexed\":true},{\"internalType\":\"uint256\",\"name\":\"oracleFee\",\"type\":\"uint256\",\"indexed\":false},{\"internalType\":\"uint256\",\"name\":\"relayerFee\",\"type\":\"uint256\",\"indexed\":false}],\"type\":\"event\",\"name\":\"MessageAssigned\",\"anonymous\":false},{\"inputs\":[{\"internalType\":\"bytes32\",\"name\":\"msgHash\",\"type\":\"bytes32\",\"indexed\":true},{\"internalType\":\"bool\",\"name\":\"dispatchResult\",\"type\":\"bool\",\"indexed\":false}],\"type\":\"event\",\"name\":\"MessageDispatched\",\"anonymous\":false},{\"inputs\":[{\"internalType\":\"address\",\"name\":\"oldSetter\",\"type\":\"address\",\"indexed\":true},{\"internalType\":\"address\",\"name\":\"newSetter\",\"type\":\"address\",\"indexed\":true}],\"type\":\"event\",\"name\":\"SetterChanged\",\"anonymous\":false},{\"inputs\":[],\"stateMutability\":\"view\",\"type\":\"function\",\"name\":\"LOCAL_CHAINID\",\"outputs\":[{\"internalType\":\"uint256\",\"name\":\"chainId\",\"type\":\"uint256\"}]},{\"inputs\":[{\"internalType\":\"address\",\"name\":\"newSetter\",\"type\":\"address\"}],\"stateMutability\":\"nonpayable\",\"type\":\"function\",\"name\":\"changeSetter\"},{\"inputs\":[],\"stateMutability\":\"view\",\"type\":\"function\",\"name\":\"defaultUC\",\"outputs\":[{\"internalType\":\"address\",\"name\":\"oracle\",\"type\":\"address\"},{\"internalType\":\"address\",\"name\":\"relayer\",\"type\":\"address\"}]},{\"inputs\":[{\"internalType\":\"bytes32\",\"name\":\"\",\"type\":\"bytes32\"}],\"stateMutability\":\"view\",\"type\":\"function\",\"name\":\"dones\",\"outputs\":[{\"internalType\":\"bool\",\"name\":\"\",\"type\":\"bool\"}]},{\"inputs\":[{\"internalType\":\"uint256\",\"name\":\"toChainId\",\"type\":\"uint256\"},{\"internalType\":\"address\",\"name\":\"ua\",\"type\":\"address\"},{\"internalType\":\"uint256\",\"name\":\"gasLimit\",\"type\":\"uint256\"},{\"internalType\":\"bytes\",\"name\":\"encoded\",\"type\":\"bytes\"},{\"internalType\":\"bytes\",\"name\":\"\",\"type\":\"bytes\"}],\"stateMutability\":\"view\",\"type\":\"function\",\"name\":\"fee\",\"outputs\":[{\"internalType\":\"uint256\",\"name\":\"\",\"type\":\"uint256\"}]},{\"inputs\":[{\"internalType\":\"address\",\"name\":\"ua\",\"type\":\"address\"}],\"stateMutability\":\"view\",\"type\":\"function\",\"name\":\"getAppConfig\",\"outputs\":[{\"internalType\":\"struct UC\",\"name\":\"\",\"type\":\"tuple\",\"components\":[{\"internalType\":\"address\",\"name\":\"oracle\",\"type\":\"address\"},{\"internalType\":\"address\",\"name\":\"relayer\",\"type\":\"address\"}]}]},{\"inputs\":[],\"stateMutability\":\"view\",\"type\":\"function\",\"name\":\"imtBranch\",\"outputs\":[{\"internalType\":\"bytes32[32]\",\"name\":\"\",\"type\":\"bytes32[32]\"}]},{\"inputs\":[],\"stateMutability\":\"view\",\"type\":\"function\",\"name\":\"messageCount\",\"outputs\":[{\"internalType\":\"uint256\",\"name\":\"\",\"type\":\"uint256\"}]},{\"inputs\":[],\"stateMutability\":\"view\",\"type\":\"function\",\"name\":\"prove\",\"outputs\":[{\"internalType\":\"bytes32[32]\",\"name\":\"\",\"type\":\"bytes32[32]\"}]},{\"inputs\":[{\"internalType\":\"struct Message\",\"name\":\"message\",\"type\":\"tuple\",\"components\":[{\"internalType\":\"address\",\"name\":\"channel\",\"type\":\"address\"},{\"internalType\":\"uint256\",\"name\":\"index\",\"type\":\"uint256\"},{\"internalType\":\"uint256\",\"name\":\"fromChainId\",\"type\":\"uint256\"},{\"internalType\":\"address\",\"name\":\"from\",\"type\":\"address\"},{\"internalType\":\"uint256\",\"name\":\"toChainId\",\"type\":\"uint256\"},{\"internalType\":\"address\",\"name\":\"to\",\"type\":\"address\"},{\"internalType\":\"uint256\",\"name\":\"gasLimit\",\"type\":\"uint256\"},{\"internalType\":\"bytes\",\"name\":\"encoded\",\"type\":\"bytes\"}]},{\"internalType\":\"bytes\",\"name\":\"proof\",\"type\":\"bytes\"}],\"stateMutability\":\"payable\",\"type\":\"function\",\"name\":\"recv\",\"outputs\":[{\"internalType\":\"bool\",\"name\":\"dispatchResult\",\"type\":\"bool\"}]},{\"inputs\":[],\"stateMutability\":\"view\",\"type\":\"function\",\"name\":\"root\",\"outputs\":[{\"internalType\":\"bytes32\",\"name\":\"\",\"type\":\"bytes32\"}]},{\"inputs\":[{\"internalType\":\"uint256\",\"name\":\"toChainId\",\"type\":\"uint256\"},{\"internalType\":\"address\",\"name\":\"to\",\"type\":\"address\"},{\"internalType\":\"uint256\",\"name\":\"gasLimit\",\"type\":\"uint256\"},{\"internalType\":\"bytes\",\"name\":\"encoded\",\"type\":\"bytes\"},{\"internalType\":\"address\",\"name\":\"refund\",\"type\":\"address\"},{\"internalType\":\"bytes\",\"name\":\"\",\"type\":\"bytes\"}],\"stateMutability\":\"payable\",\"type\":\"function\",\"name\":\"send\",\"outputs\":[{\"internalType\":\"bytes32\",\"name\":\"\",\"type\":\"bytes32\"}]},{\"inputs\":[{\"internalType\":\"address\",\"name\":\"oracle\",\"type\":\"address\"},{\"internalType\":\"address\",\"name\":\"relayer\",\"type\":\"address\"}],\"stateMutability\":\"nonpayable\",\"type\":\"function\",\"name\":\"setAppConfig\"},{\"inputs\":[{\"internalType\":\"address\",\"name\":\"oracle\",\"type\":\"address\"},{\"internalType\":\"address\",\"name\":\"relayer\",\"type\":\"address\"}],\"stateMutability\":\"nonpayable\",\"type\":\"function\",\"name\":\"setDefaultConfig\"},{\"inputs\":[],\"stateMutability\":\"view\",\"type\":\"function\",\"name\":\"setter\",\"outputs\":[{\"internalType\":\"address\",\"name\":\"\",\"type\":\"address\"}]},{\"inputs\":[{\"internalType\":\"address\",\"name\":\"\",\"type\":\"address\"}],\"stateMutability\":\"view\",\"type\":\"function\",\"name\":\"ucOf\",\"outputs\":[{\"internalType\":\"address\",\"name\":\"oracle\",\"type\":\"address\"},{\"internalType\":\"address\",\"name\":\"relayer\",\"type\":\"address\"}]},{\"inputs\":[],\"stateMutability\":\"pure\",\"type\":\"function\",\"name\":\"version\",\"outputs\":[{\"internalType\":\"string\",\"name\":\"\",\"type\":\"string\"}]}],\"devdoc\":{\"kind\":\"dev\",\"methods\":{\"LOCAL_CHAINID()\":{\"details\":\"Fetch local chain id.\",\"returns\":{\"chainId\":\"Local chain id.\"}},\"changeSetter(address)\":{\"details\":\"Change setter.\",\"params\":{\"newSetter\":\"New setter.\"}},\"fee(uint256,address,uint256,bytes,bytes)\":{\"params\":{\"encoded\":\"The calldata which encoded by ABI Encoding.\",\"gasLimit\":\"Gas limit for destination user application used.\"}},\"getAppConfig(address)\":{\"details\":\"Fetch user application config.\",\"params\":{\"ua\":\"User application contract address.\"},\"returns\":{\"_0\":\"user application config.\"}},\"imtBranch()\":{\"details\":\"Fetch the branch of incremental merkle tree.\"},\"messageCount()\":{\"details\":\"Fetch the messages count of incremental merkle tree.\"},\"prove()\":{\"details\":\"Fetch the latest message proof\"},\"recv((address,uint256,uint256,address,uint256,address,uint256,bytes),bytes)\":{\"details\":\"Recv verified message from Channel and dispatch to destination user application address.\",\"params\":{\"message\":\"Verified receive message info.\",\"proof\":\"Message proof of this message.\"},\"returns\":{\"dispatchResult\":\"Result of the message dispatch.\"}},\"send(uint256,address,uint256,bytes,address,bytes)\":{\"details\":\"Send a cross-chain message over the endpoint.\",\"params\":{\"encoded\":\"The calldata which encoded by ABI Encoding.\",\"gasLimit\":\"Gas limit for destination user application used.\",\"refund\":\"Return extra fee to refund address.\",\"to\":\"User application contract address which receive the message.\",\"toChainId\":\"The Message destination chain id.\"}},\"setAppConfig(address,address)\":{\"params\":{\"oracle\":\"Oracle which user application.\",\"relayer\":\"Relayer which user application choose.\"}},\"setDefaultConfig(address,address)\":{\"details\":\"Set default user config for all user application.\",\"params\":{\"oracle\":\"Default oracle.\",\"relayer\":\"Default relayer.\"}}},\"version\":1},\"userdoc\":{\"kind\":\"user\",\"methods\":{\"changeSetter(address)\":{\"notice\":\"Only current setter could call.\"},\"getAppConfig(address)\":{\"notice\":\"If user application has not configured, then the default user config is used.\"},\"recv((address,uint256,uint256,address,uint256,address,uint256,bytes),bytes)\":{\"notice\":\"Only channel could call this function.\"},\"send(uint256,address,uint256,bytes,address,bytes)\":{\"notice\":\"follow https://eips.ethereum.org/EIPS/eip-5750\"},\"setAppConfig(address,address)\":{\"notice\":\"Set user application config.\"},\"setDefaultConfig(address,address)\":{\"notice\":\"Only setter could call.\"}},\"version\":1}},\"settings\":{\"remappings\":[\"@darwinia-msgport/=lib/darwinia-msgport/\",\"@openzeppelin/contracts/=lib/openzeppelin-contracts/contracts/\",\"@openzeppelin/contracts@4.9.2/=lib/openzeppelin-contracts/contracts/\",\"@sphinx-labs/contracts/=lib/sphinx/packages/contracts/contracts/foundry/\",\"ORMP/=lib/ORMP/\",\"subapi/=lib/subapi/\"],\"optimizer\":{\"enabled\":true,\"runs\":999999},\"metadata\":{\"bytecodeHash\":\"ipfs\"},\"compilationTarget\":{\"lib/ORMP/src/ORMP.sol\":\"ORMP\"},\"evmVersion\":\"london\",\"libraries\":{}},\"sources\":{\"lib/ORMP/src/Channel.sol\":{\"keccak256\":\"0x286a6af99428230c2f67181181d52d63a647ee2d896c5855300eda37c52b2dbf\",\"urls\":[\"bzz-raw://84326f7649e0c727e1e5836c1f50e603fdc4811b0fd94b2ee5c682e10700f9ce\",\"dweb:/ipfs/Qmb32nTAUsyStw3dqynijZEaA9UC4ig6xoPBjhvdQEVDdn\"],\"license\":\"GPL-3.0\"},\"lib/ORMP/src/Common.sol\":{\"keccak256\":\"0x832de8c9469de78d3133d42716444007d3fa2aa2fe88a6fcbb81d119d8ffbd1d\",\"urls\":[\"bzz-raw://a0447d4aaebe147c97df506a8ae7801e13b3af6cc0c9ee31bc896a7b40e463ab\",\"dweb:/ipfs/QmTn2bjyJMsj9uV613Usy3ueyjFZ7Ugfo4ovR8UkPpMhX4\"],\"license\":\"GPL-3.0\"},\"lib/ORMP/src/ORMP.sol\":{\"keccak256\":\"0x952e7ad4b58f70d4e035f24c92ed4edecd1f89fd6da8bbfc05f627cf6ac16d3d\",\"urls\":[\"bzz-raw://0fdfb9d153015dd2f089b099cff5737ea3118a3aa3a3d72715d8ea1f0da2804f\",\"dweb:/ipfs/QmPdy8ia167eUG7CZkREZGqzDoxLs4h1xqUoLaK2UGxM6C\"],\"license\":\"GPL-3.0\"},\"lib/ORMP/src/UserConfig.sol\":{\"keccak256\":\"0x9d2e059b8e05cebe34733475fbea89e0f103fc8f7d909aa79186ed65837da6e0\",\"urls\":[\"bzz-raw://d4e465d388fe332f755e426d12018c09d727782f195d8e734776a2bff74cab38\",\"dweb:/ipfs/QmQp7wkLHMvYL5841uCDS1zhifsaJg4r2Wxty91b19bEcK\"],\"license\":\"GPL-3.0\"},\"lib/ORMP/src/imt/IncrementalMerkleTree.sol\":{\"keccak256\":\"0x535228355f8bd4339f42aa3dfe3cebcbdaad7a92704c4e3eeb0982dce8acf246\",\"urls\":[\"bzz-raw://9830ca0eb4837abdaaba548ea20fe14c67e23a392e09aaaa57b4032f9b81c49f\",\"dweb:/ipfs/QmYDw8c8zgLhxhxt3heCGJu7rYSgmEwKFjMfWrbJNcyPWj\"],\"license\":\"MIT OR Apache-2.0\"},\"lib/ORMP/src/interfaces/IOracle.sol\":{\"keccak256\":\"0xb1299974c86446972355bebb7c95697139c67f1731b1c1fa59a07c8cc575f527\",\"urls\":[\"bzz-raw://c96ee956d4731fb7bc0aa67f2783afa6ba2179fc1ef4419f2f70f727c9d7a7f1\",\"dweb:/ipfs/QmbqaqnRRHb2k25bzsvmapugHaTu1gDESGxk7MU5vgrPBo\"],\"license\":\"GPL-3.0\"},\"lib/ORMP/src/interfaces/IRelayer.sol\":{\"keccak256\":\"0xb2a4fc032746f072405210a118298000cda8634ddf4bc02b33f976be4eaf7209\",\"urls\":[\"bzz-raw://5627a3007ff8748f5be505de61d7cca46a2466ece354093f2958f3e2daab5445\",\"dweb:/ipfs/Qmb5Gefdqo5ruQX1id6hgpVDKiM9Vyy6wLurxDtC5377Lt\"],\"license\":\"GPL-3.0\"},\"lib/ORMP/src/interfaces/IVerifier.sol\":{\"keccak256\":\"0x60ad4dbeb54c04aa1c389a2dab7c9bca361eb2df245b3a29f0851be697876099\",\"urls\":[\"bzz-raw://57f1c8949abccaef95ab207257bfcf7b12f19756e0c90184ad39a8bdb2dc559a\",\"dweb:/ipfs/Qmd1LBiTn3nzfzhGHmdM2YdbWLUkca6wZfPBo1rWqPcoau\"],\"license\":\"GPL-3.0\"},\"lib/ORMP/src/security/ExcessivelySafeCall.sol\":{\"keccak256\":\"0x586361e0b312522e1b4dfbbd7a4965fd0b36642660c16cba3a733ee66f388508\",\"urls\":[\"bzz-raw://b0d67666dc6b468c91589b8d00f3f519c0904e40313631e08102058135681d68\",\"dweb:/ipfs/QmQHgut1NwT3Dr68fLtJzGwcTmPU9CxJZYF7euDfz2VGNL\"],\"license\":\"MIT OR Apache-2.0\"},\"lib/ORMP/src/security/ReentrancyGuard.sol\":{\"keccak256\":\"0xbb376a44d276cf677debb795e823759f563a26bd3805e413f7b12ee38e3e13be\",\"urls\":[\"bzz-raw://0eb116fec82b4b1fd0a9ebd259b375b06f5aaea104426c9219fda9d3abb8e311\",\"dweb:/ipfs/QmfMH7vZHdvY6qSb2hxRvzuSMrmXq17FzBx8PJzn4qFJZQ\"],\"license\":\"MIT\"}},\"version\":1}",
			"args": [
				"0xD70A2e6eACbdeDA77a5d4bBAE3bC70239A0e088f"
			],
			"bytecode": "0x60a0604052600160008190558055306080523480156200001e57600080fd5b50604051620025ef380380620025ef83398101604081905262000041916200008b565b600280546001600160a01b0319166001600160a01b03929092169190911790557f27ae5ba08d7291c96c8cbddcc148bf48a6d68c7974b94356f53754ef6171d757600655620000bd565b6000602082840312156200009e57600080fd5b81516001600160a01b0381168114620000b657600080fd5b9392505050565b608051612516620000d96000396000610c6201526125166000f3fe60806040526004361061010e5760003560e01c80634ea59979116100a55780638b22909111610074578063ebf0c71711610059578063ebf0c717146103bb578063ee6ad167146103d1578063f67c907c146103f457600080fd5b80638b22909114610388578063b0ff5e72146103a857600080fd5b80634ea59979146102f457806352720be41461031457806354fd4d50146103295780635e26462c1461037557600080fd5b80633f3108f7116100e15780633f3108f7146101f8578063413422491461024a57806345152ae31461029e5780634872824f146102c057600080fd5b80630f988a73146101135780631c2b2da6146101355780633c50e178146101685780633dbcc8d1146101e3575b600080fd5b34801561011f57600080fd5b5061013361012e366004611be2565b610424565b005b34801561014157600080fd5b50610155610150366004611c4d565b610521565b6040519081526020015b60405180910390f35b34801561017457600080fd5b506101b6610183366004611be2565b6005602052600090815260409020805460019091015473ffffffffffffffffffffffffffffffffffffffff918216911682565b6040805173ffffffffffffffffffffffffffffffffffffffff93841681529290911660208301520161015f565b3480156101ef57600080fd5b50602754610155565b34801561020457600080fd5b506002546102259073ffffffffffffffffffffffffffffffffffffffff1681565b60405173ffffffffffffffffffffffffffffffffffffffff909116815260200161015f565b34801561025657600080fd5b5061026a610265366004611be2565b610672565b60408051825173ffffffffffffffffffffffffffffffffffffffff908116825260209384015116928101929092520161015f565b3480156102aa57600080fd5b506102b3610729565b60405161015f9190611ce1565b3480156102cc57600080fd5b506003546004546101b69173ffffffffffffffffffffffffffffffffffffffff908116911682565b34801561030057600080fd5b5061013361030f366004611d17565b610740565b34801561032057600080fd5b506102b3610863565b34801561033557600080fd5b50604080518082018252600581527f322e302e300000000000000000000000000000000000000000000000000000006020820152905161015f9190611db8565b610155610383366004611dcb565b61089f565b34801561039457600080fd5b506101336103a3366004611d17565b610948565b3480156103b457600080fd5b5046610155565b3480156103c757600080fd5b5061015560065481565b6103e46103df366004611e72565b610a07565b604051901515815260200161015f565b34801561040057600080fd5b506103e461040f366004611ee4565b60286020526000908152604090205460ff1681565b60025473ffffffffffffffffffffffffffffffffffffffff1633146104aa576040517f08c379a000000000000000000000000000000000000000000000000000000000815260206004820152600560248201527f216175746800000000000000000000000000000000000000000000000000000060448201526064015b60405180910390fd5b6002805473ffffffffffffffffffffffffffffffffffffffff8381167fffffffffffffffffffffffff0000000000000000000000000000000000000000831681179093556040519116919082907fb0999394a8202229d1e14c6290230863233f18473f7504b3a7b1a27f9b014c9d90600090a35050565b60008061052d88610672565b90506000816020015173ffffffffffffffffffffffffffffffffffffffff166353179a7c8b8b8b8b8b6040518663ffffffff1660e01b8152600401610576959493929190611f46565b602060405180830381865afa158015610593573d6000803e3d6000fd5b505050506040513d601f19601f820116820180604052508101906105b79190611f82565b82516040517fa1dbf432000000000000000000000000000000000000000000000000000000008152600481018d905273ffffffffffffffffffffffffffffffffffffffff8c811660248301529293506000929091169063a1dbf43290604401602060405180830381865afa158015610633573d6000803e3d6000fd5b505050506040513d601f19601f820116820180604052508101906106579190611f82565b90506106638183611fca565b9b9a5050505050505050505050565b6040805180820182526000808252602080830182905273ffffffffffffffffffffffffffffffffffffffff858116835260058252918490208451808601909552805483168552600101549091169083018190529091906106eb5760045473ffffffffffffffffffffffffffffffffffffffff1660208201525b805173ffffffffffffffffffffffffffffffffffffffff166107235760035473ffffffffffffffffffffffffffffffffffffffff1681525b92915050565b610731611b9a565b61073b6007610ae4565b905090565b60025473ffffffffffffffffffffffffffffffffffffffff1633146107c1576040517f08c379a000000000000000000000000000000000000000000000000000000000815260206004820152600560248201527f216175746800000000000000000000000000000000000000000000000000000060448201526064016104a1565b60408051808201825273ffffffffffffffffffffffffffffffffffffffff8481168083529084166020928301819052600380547fffffffffffffffffffffffff0000000000000000000000000000000000000000908116841790915560048054909116821790558351918252918101919091527f504f152883e6158786ddfcce63f4d4d95ce8e404b1f6e6365a06f63849b7cb95910160405180910390a15050565b61086b611b9a565b604080516104008101918290529060079060209082845b815481526020019060010190808311610882575050505050905090565b600060016000541461090d576040517f08c379a000000000000000000000000000000000000000000000000000000000815260206004820152601060248201527f2173656e642d7265656e7472616e63790000000000000000000000000000000060448201526064016104a1565b600260009081553390610924828c8c8c8c8c610bda565b90506109358287838e8d8d8d610d9d565b60016000559a9950505050505050505050565b60408051808201825273ffffffffffffffffffffffffffffffffffffffff848116808352848216602080850182815233600081815260058452889020965187549087167fffffffffffffffffffffffff000000000000000000000000000000000000000091821617885591516001909701805497909616969091169590951790935584519182529181019190915290917f86b44d92ad94c11b25d0f08d0f55e8e235b4d165e62e541c02e8ee19f551c97b910160405180910390a25050565b60006001805414610a74576040517f08c379a000000000000000000000000000000000000000000000000000000000815260206004820152601060248201527f21726563762d7265656e7472616e63790000000000000000000000000000000060448201526064016104a1565b60026001556000610a86858585610e8d565b9050610a9a610a94866120e1565b82611155565b9150807f62b1dc20fd6f1518626da5b6f9897e8cd4ebadbad071bb66dc96a37c970087a883604051610ad0911515815260200190565b60405180910390a250600180559392505050565b610aec611b9a565b600060018360200154610aff9190612183565b6040805161040081019182905291925060009190859060209082845b815481526020019060010190808311610b1b57505050505090506000610b3f6111df565b905060005b6020811015610bd157600184821c811690819003610b8f57838260208110610b6e57610b6e612196565b6020020151868360208110610b8557610b85612196565b6020020152610bbe565b828260208110610ba157610ba1612196565b6020020151868360208110610bb857610bb8612196565b60200201525b5080610bc9816121c5565b915050610b44565b50505050919050565b6000468603610c45576040517f08c379a000000000000000000000000000000000000000000000000000000000815260206004820152600c60248201527f2163726f73732d636861696e000000000000000000000000000000000000000060448201526064016104a1565b6000610c5060275490565b905060006040518061010001604052807f000000000000000000000000000000000000000000000000000000000000000073ffffffffffffffffffffffffffffffffffffffff168152602001838152602001610ca94690565b81526020018a73ffffffffffffffffffffffffffffffffffffffff1681526020018981526020018873ffffffffffffffffffffffffffffffffffffffff16815260200187815260200186868080601f016020809104026020016040519081016040528093929190818152602001838380828437600092018290525093909452509293509150610d399050826116a0565b9050610d466007826116d0565b610d506007611814565b600681905560405182917f327110434bca326d1f70236295f59c8b472ebc683a6549ca9254697564fec4a591610d889190869061227e565b60405180910390a29998505050505050505050565b6000610da888610672565b90506000610dbe8260200151878b888888611827565b90506000610dd18360000151888c6118c3565b9050826020015173ffffffffffffffffffffffffffffffffffffffff16836000015173ffffffffffffffffffffffffffffffffffffffff16897ff7e134438bf3052b95eaa2f90f4177932297d80eb36186624c2f366cb8944ecf8486604051610e44929190918252602082015260400190565b60405180910390a4610e568183611fca565b341115610e81576000610e698284611fca565b610e739034612183565b9050610e7f8a82611973565b505b50505050505050505050565b600080610ea361026560c0870160a08801611be2565b602081015190915073ffffffffffffffffffffffffffffffffffffffff163314610f29576040517f08c379a000000000000000000000000000000000000000000000000000000000815260206004820152600560248201527f216175746800000000000000000000000000000000000000000000000000000060448201526064016104a1565b6000610f3c610f37876120e1565b6116a0565b9050816000015173ffffffffffffffffffffffffffffffffffffffff1663094f87c587604001358388886040518563ffffffff1660e01b8152600401610f859493929190612297565b602060405180830381865afa158015610fa2573d6000803e3d6000fd5b505050506040513d601f19601f82011682018060405250810190610fc691906122c1565b61102c576040517f08c379a000000000000000000000000000000000000000000000000000000000815260206004820152600660248201527f2170726f6f66000000000000000000000000000000000000000000000000000060448201526064016104a1565b60808601354614611099576040517f08c379a000000000000000000000000000000000000000000000000000000000815260206004820152600a60248201527f21746f436861696e49640000000000000000000000000000000000000000000060448201526064016104a1565b60008181526028602052604090205460ff1615611114576040517f08c379a00000000000000000000000000000000000000000000000000000000081526004016104a19060208082526004908201527f646f6e6500000000000000000000000000000000000000000000000000000000604082015260600190565b600081815260286020526040902080547fffffffffffffffffffffffffffffffffffffffffffffffffffffffffffffff001660011790559150509392505050565b60006111d78360c001513460008660e00151868860400151896060015160405160200161118594939291906122e3565b604080517fffffffffffffffffffffffffffffffffffffffffffffffffffffffffffffffe081840301815291905260a088015173ffffffffffffffffffffffffffffffffffffffff1693929190611a3d565b509392505050565b6111e7611b9a565b600081527fad3228b676f7d3cd4284a5443f17f1962b36e491b30a40b2405849e597ba5fb560208201527fb4c11951957c6f8f642c4af61cd6b24640fec6dc7fc607ee8206a99e92410d3060408201527f21ddb9a356815c3fac1026b6dec5df3124afbadb485c9ba5a3e3398a04b7ba8560608201527fe58769b32a1beaf1ea27375a44095a0d1fb664ce2dd358e7fcbfb78c26a1934460808201527f0eb01ebfc9ed27500cd4dfc979272d1f0913cc9f66540d7e8005811109e1cf2d60a08201527f887c22bd8750d34016ac3c66b5ff102dacdd73f6b014e710b51e8022af9a196860c08201527fffd70157e48063fc33c97a050f7f640233bf646cc98d9524c6b92bcf3ab56f8360e08201527f9867cc5f7f196b93bae1e27e6320742445d290f2263827498b54fec539f756af6101008201527fcefad4e508c098b9a7e1d8feb19955fb02ba9675585078710969d3440f5054e06101208201527ff9dc3e7fe016e050eff260334f18a5d4fe391d82092319f5964f2e2eb7c1c3a56101408201527ff8b13a49e282f609c317a833fb8d976d11517c571d1221a265d25af778ecf8926101608201527f3490c6ceeb450aecdc82e28293031d10c7d73bf85e57bf041a97360aa2c5d99c6101808201527fc1df82d9c4b87413eae2ef048f94b4d3554cea73d92b0f7af96e0271c691e2bb6101a08201527f5c67add7c6caf302256adedf7ab114da0acfe870d449a3a489f781d659e8becc6101c08201527fda7bce9f4e8618b6bd2f4132ce798cdc7a60e7e1460a7299e3c6342a579626d26101e08201527f2733e50f526ec2fa19a22b31e8ed50f23cd1fdf94c9154ed3a7609a2f1ff981f6102008201527fe1d3b5c807b281e4683cc6d6315cf95b9ade8641defcb32372f1c126e398ef7a6102208201527f5a2dce0a8a7f68bb74560f8f71837c2c2ebbcbf7fffb42ae1896f13f7c7479a06102408201527fb46a28b6f55540f89444f63de0378e3d121be09e06cc9ded1c20e65876d36aa06102608201527fc65e9645644786b620e2dd2ad648ddfcbf4a7e5b1a3a4ecfe7f64667a3f0b7e26102808201527ff4418588ed35a2458cffeb39b93d26f18d2ab13bdce6aee58e7b99359ec2dfd96102a08201527f5a9c16dc00d6ef18b7933a6f8dc65ccb55667138776f7dea101070dc8796e3776102c08201527f4df84f40ae0c8229d0d6069e5c8f39a7c299677a09d367fc7b05e3bc380ee6526102e08201527fcdc72595f74c7b1043d0e1ffbab734648c838dfb0527d971b602bc216c9619ef6103008201527f0abf5ac974a1ed57f4050aa510dd9c74f508277b39d7973bb2dfccc5eeb0618d6103208201527fb8cd74046ff337f0a7bf2c8e03e10f642c1886798d71806ab1e888d9e5ee87d06103408201527f838c5655cb21c6cb83313b5a631175dff4963772cce9108188b34ac87c81c41e6103608201527f662ee4dd2dd7b2bc707961b1e646c4047669dcb6584f0d8d770daf5d7e7deb2e6103808201527f388ab20e2573d171a88108e79d820e98f26c0b84aa8b2f4aa4968dbb818ea3226103a08201527f93237c50ba75ee485f4c22adf2f741400bdf8d6a9cc7df7ecae576221665d7356103c08201527f8448818bb4ae4562849e949e17ac16e0be16688e156b5cf15e098c627c0056a96103e082015290565b6000816040516020016116b39190612337565b604051602081830303815290604052805190602001209050919050565b60016116de6020600261246a565b6116e89190612183565b826020015410611754576040517f08c379a000000000000000000000000000000000000000000000000000000000815260206004820152601060248201527f6d65726b6c6520747265652066756c6c0000000000000000000000000000000060448201526064016104a1565b60018260200160008282546117699190611fca565b9091555050602082015460005b602081101561180657816001166001036117a5578284826020811061179d5761179d612196565b015550505050565b8381602081106117b7576117b7612196565b015460408051602081019290925281018490526060016040516020818303038152906040528051906020012092506002826117f29190612476565b9150806117fe816121c5565b915050611776565b5061180f6124b1565b505050565b6000610723826118226111df565b611ac8565b6000808773ffffffffffffffffffffffffffffffffffffffff166353179a7c88888888886040518663ffffffff1660e01b815260040161186b959493929190611f46565b602060405180830381865afa158015611888573d6000803e3d6000fd5b505050506040513d601f19601f820116820180604052508101906118ac9190611f82565b90506118b88882611973565b979650505050505050565b6040517fa1dbf4320000000000000000000000000000000000000000000000000000000081526004810183905273ffffffffffffffffffffffffffffffffffffffff8281166024830152600091829186169063a1dbf43290604401602060405180830381865afa15801561193b573d6000803e3d6000fd5b505050506040513d601f19601f8201168201806040525081019061195f9190611f82565b905061196b8582611973565b949350505050565b60008273ffffffffffffffffffffffffffffffffffffffff168260405160006040518083038185875af1925050503d80600081146119cd576040519150601f19603f3d011682016040523d82523d6000602084013e6119d2565b606091505b505090508061180f576040517f08c379a000000000000000000000000000000000000000000000000000000000815260206004820152600560248201527f2173656e6400000000000000000000000000000000000000000000000000000060448201526064016104a1565b6000606060008060008661ffff1667ffffffffffffffff811115611a6357611a63611fdd565b6040519080825280601f01601f191660200182016040528015611a8d576020820181803683370190505b5090506000808751602089018b8e8ef191503d925086831115611aae578692505b828152826000602083013e90999098509650505050505050565b6020820154600090815b6020811015611b9257600182821c166000868360208110611af557611af5612196565b0154905081600103611b32576040805160208101839052908101869052606001604051602081830303815290604052805190602001209450611b7d565b84868460208110611b4557611b45612196565b6020020151604051602001611b64929190918252602082015260400190565b6040516020818303038152906040528051906020012094505b50508080611b8a906121c5565b915050611ad2565b505092915050565b6040518061040001604052806020906020820280368337509192915050565b803573ffffffffffffffffffffffffffffffffffffffff81168114611bdd57600080fd5b919050565b600060208284031215611bf457600080fd5b611bfd82611bb9565b9392505050565b60008083601f840112611c1657600080fd5b50813567ffffffffffffffff811115611c2e57600080fd5b602083019150836020828501011115611c4657600080fd5b9250929050565b600080600080600080600060a0888a031215611c6857600080fd5b87359650611c7860208901611bb9565b955060408801359450606088013567ffffffffffffffff80821115611c9c57600080fd5b611ca88b838c01611c04565b909650945060808a0135915080821115611cc157600080fd5b50611cce8a828b01611c04565b989b979a50959850939692959293505050565b6104008101818360005b6020808210611cfa5750611d0e565b825184529283019290910190600101611ceb565b50505092915050565b60008060408385031215611d2a57600080fd5b611d3383611bb9565b9150611d4160208401611bb9565b90509250929050565b60005b83811015611d65578181015183820152602001611d4d565b50506000910152565b60008151808452611d86816020860160208601611d4a565b601f017fffffffffffffffffffffffffffffffffffffffffffffffffffffffffffffffe0169290920160200192915050565b602081526000611bfd6020830184611d6e565b60008060008060008060008060c0898b031215611de757600080fd5b88359750611df760208a01611bb9565b965060408901359550606089013567ffffffffffffffff80821115611e1b57600080fd5b611e278c838d01611c04565b9097509550859150611e3b60808c01611bb9565b945060a08b0135915080821115611e5157600080fd5b50611e5e8b828c01611c04565b999c989b5096995094979396929594505050565b600080600060408486031215611e8757600080fd5b833567ffffffffffffffff80821115611e9f57600080fd5b908501906101008288031215611eb457600080fd5b90935060208501359080821115611eca57600080fd5b50611ed786828701611c04565b9497909650939450505050565b600060208284031215611ef657600080fd5b5035919050565b8183528181602085013750600060208284010152600060207fffffffffffffffffffffffffffffffffffffffffffffffffffffffffffffffe0601f840116840101905092915050565b85815273ffffffffffffffffffffffffffffffffffffffff851660208201528360408201526080606082015260006118b8608083018486611efd565b600060208284031215611f9457600080fd5b5051919050565b7f4e487b7100000000000000000000000000000000000000000000000000000000600052601160045260246000fd5b8082018082111561072357610723611f9b565b7f4e487b7100000000000000000000000000000000000000000000000000000000600052604160045260246000fd5b604051610100810167ffffffffffffffff8111828210171561203057612030611fdd565b60405290565b600082601f83011261204757600080fd5b813567ffffffffffffffff8082111561206257612062611fdd565b604051601f83017fffffffffffffffffffffffffffffffffffffffffffffffffffffffffffffffe0908116603f011681019082821181831017156120a8576120a8611fdd565b816040528381528660208588010111156120c157600080fd5b836020870160208301376000602085830101528094505050505092915050565b600061010082360312156120f457600080fd5b6120fc61200c565b61210583611bb9565b8152602083013560208201526040830135604082015261212760608401611bb9565b60608201526080830135608082015261214260a08401611bb9565b60a082015260c083013560c082015260e083013567ffffffffffffffff81111561216b57600080fd5b61217736828601612036565b60e08301525092915050565b8181038181111561072357610723611f9b565b7f4e487b7100000000000000000000000000000000000000000000000000000000600052603260045260246000fd5b60007fffffffffffffffffffffffffffffffffffffffffffffffffffffffffffffffff82036121f6576121f6611f9b565b5060010190565b600061010073ffffffffffffffffffffffffffffffffffffffff8084511685526020840151602086015260408401516040860152806060850151166060860152608084015160808601528060a08501511660a08601525060c083015160c085015260e08301518160e086015261227582860182611d6e565b95945050505050565b82815260406020820152600061196b60408301846121fd565b8481528360208201526060604082015260006122b7606083018486611efd565b9695505050505050565b6000602082840312156122d357600080fd5b81518015158114611bfd57600080fd5b600085516122f5818460208a01611d4a565b9190910193845250602083019190915260601b7fffffffffffffffffffffffffffffffffffffffff000000000000000000000000166040820152605401919050565b602081526000611bfd60208301846121fd565b600181815b808511156123a357817fffffffffffffffffffffffffffffffffffffffffffffffffffffffffffffffff0482111561238957612389611f9b565b8085161561239657918102915b93841c939080029061234f565b509250929050565b6000826123ba57506001610723565b816123c757506000610723565b81600181146123dd57600281146123e757612403565b6001915050610723565b60ff8411156123f8576123f8611f9b565b50506001821b610723565b5060208310610133831016604e8410600b8410161715612426575081810a610723565b612430838361234a565b807fffffffffffffffffffffffffffffffffffffffffffffffffffffffffffffffff0482111561246257612462611f9b565b029392505050565b6000611bfd83836123ab565b6000826124ac577f4e487b7100000000000000000000000000000000000000000000000000000000600052601260045260246000fd5b500490565b7f4e487b7100000000000000000000000000000000000000000000000000000000600052600160045260246000fdfea2646970667358221220e4b3459bef63f5af5ae2294d65e90d4caa676610aebba195cd887e674ddf857a64736f6c63430008110033",
			"deployedBytecode": "0x60806040526004361061010e5760003560e01c80634ea59979116100a55780638b22909111610074578063ebf0c71711610059578063ebf0c717146103bb578063ee6ad167146103d1578063f67c907c146103f457600080fd5b80638b22909114610388578063b0ff5e72146103a857600080fd5b80634ea59979146102f457806352720be41461031457806354fd4d50146103295780635e26462c1461037557600080fd5b80633f3108f7116100e15780633f3108f7146101f8578063413422491461024a57806345152ae31461029e5780634872824f146102c057600080fd5b80630f988a73146101135780631c2b2da6146101355780633c50e178146101685780633dbcc8d1146101e3575b600080fd5b34801561011f57600080fd5b5061013361012e366004611be2565b610424565b005b34801561014157600080fd5b50610155610150366004611c4d565b610521565b6040519081526020015b60405180910390f35b34801561017457600080fd5b506101b6610183366004611be2565b6005602052600090815260409020805460019091015473ffffffffffffffffffffffffffffffffffffffff918216911682565b6040805173ffffffffffffffffffffffffffffffffffffffff93841681529290911660208301520161015f565b3480156101ef57600080fd5b50602754610155565b34801561020457600080fd5b506002546102259073ffffffffffffffffffffffffffffffffffffffff1681565b60405173ffffffffffffffffffffffffffffffffffffffff909116815260200161015f565b34801561025657600080fd5b5061026a610265366004611be2565b610672565b60408051825173ffffffffffffffffffffffffffffffffffffffff908116825260209384015116928101929092520161015f565b3480156102aa57600080fd5b506102b3610729565b60405161015f9190611ce1565b3480156102cc57600080fd5b506003546004546101b69173ffffffffffffffffffffffffffffffffffffffff908116911682565b34801561030057600080fd5b5061013361030f366004611d17565b610740565b34801561032057600080fd5b506102b3610863565b34801561033557600080fd5b50604080518082018252600581527f322e302e300000000000000000000000000000000000000000000000000000006020820152905161015f9190611db8565b610155610383366004611dcb565b61089f565b34801561039457600080fd5b506101336103a3366004611d17565b610948565b3480156103b457600080fd5b5046610155565b3480156103c757600080fd5b5061015560065481565b6103e46103df366004611e72565b610a07565b604051901515815260200161015f565b34801561040057600080fd5b506103e461040f366004611ee4565b60286020526000908152604090205460ff1681565b60025473ffffffffffffffffffffffffffffffffffffffff1633146104aa576040517f08c379a000000000000000000000000000000000000000000000000000000000815260206004820152600560248201527f216175746800000000000000000000000000000000000000000000000000000060448201526064015b60405180910390fd5b6002805473ffffffffffffffffffffffffffffffffffffffff8381167fffffffffffffffffffffffff0000000000000000000000000000000000000000831681179093556040519116919082907fb0999394a8202229d1e14c6290230863233f18473f7504b3a7b1a27f9b014c9d90600090a35050565b60008061052d88610672565b90506000816020015173ffffffffffffffffffffffffffffffffffffffff166353179a7c8b8b8b8b8b6040518663ffffffff1660e01b8152600401610576959493929190611f46565b602060405180830381865afa158015610593573d6000803e3d6000fd5b505050506040513d601f19601f820116820180604052508101906105b79190611f82565b82516040517fa1dbf432000000000000000000000000000000000000000000000000000000008152600481018d905273ffffffffffffffffffffffffffffffffffffffff8c811660248301529293506000929091169063a1dbf43290604401602060405180830381865afa158015610633573d6000803e3d6000fd5b505050506040513d601f19601f820116820180604052508101906106579190611f82565b90506106638183611fca565b9b9a5050505050505050505050565b6040805180820182526000808252602080830182905273ffffffffffffffffffffffffffffffffffffffff858116835260058252918490208451808601909552805483168552600101549091169083018190529091906106eb5760045473ffffffffffffffffffffffffffffffffffffffff1660208201525b805173ffffffffffffffffffffffffffffffffffffffff166107235760035473ffffffffffffffffffffffffffffffffffffffff1681525b92915050565b610731611b9a565b61073b6007610ae4565b905090565b60025473ffffffffffffffffffffffffffffffffffffffff1633146107c1576040517f08c379a000000000000000000000000000000000000000000000000000000000815260206004820152600560248201527f216175746800000000000000000000000000000000000000000000000000000060448201526064016104a1565b60408051808201825273ffffffffffffffffffffffffffffffffffffffff8481168083529084166020928301819052600380547fffffffffffffffffffffffff0000000000000000000000000000000000000000908116841790915560048054909116821790558351918252918101919091527f504f152883e6158786ddfcce63f4d4d95ce8e404b1f6e6365a06f63849b7cb95910160405180910390a15050565b61086b611b9a565b604080516104008101918290529060079060209082845b815481526020019060010190808311610882575050505050905090565b600060016000541461090d576040517f08c379a000000000000000000000000000000000000000000000000000000000815260206004820152601060248201527f2173656e642d7265656e7472616e63790000000000000000000000000000000060448201526064016104a1565b600260009081553390610924828c8c8c8c8c610bda565b90506109358287838e8d8d8d610d9d565b60016000559a9950505050505050505050565b60408051808201825273ffffffffffffffffffffffffffffffffffffffff848116808352848216602080850182815233600081815260058452889020965187549087167fffffffffffffffffffffffff000000000000000000000000000000000000000091821617885591516001909701805497909616969091169590951790935584519182529181019190915290917f86b44d92ad94c11b25d0f08d0f55e8e235b4d165e62e541c02e8ee19f551c97b910160405180910390a25050565b60006001805414610a74576040517f08c379a000000000000000000000000000000000000000000000000000000000815260206004820152601060248201527f21726563762d7265656e7472616e63790000000000000000000000000000000060448201526064016104a1565b60026001556000610a86858585610e8d565b9050610a9a610a94866120e1565b82611155565b9150807f62b1dc20fd6f1518626da5b6f9897e8cd4ebadbad071bb66dc96a37c970087a883604051610ad0911515815260200190565b60405180910390a250600180559392505050565b610aec611b9a565b600060018360200154610aff9190612183565b6040805161040081019182905291925060009190859060209082845b815481526020019060010190808311610b1b57505050505090506000610b3f6111df565b905060005b6020811015610bd157600184821c811690819003610b8f57838260208110610b6e57610b6e612196565b6020020151868360208110610b8557610b85612196565b6020020152610bbe565b828260208110610ba157610ba1612196565b6020020151868360208110610bb857610bb8612196565b60200201525b5080610bc9816121c5565b915050610b44565b50505050919050565b6000468603610c45576040517f08c379a000000000000000000000000000000000000000000000000000000000815260206004820152600c60248201527f2163726f73732d636861696e000000000000000000000000000000000000000060448201526064016104a1565b6000610c5060275490565b905060006040518061010001604052807f000000000000000000000000aa3f4f3eef7b9ec6f3a6d57f19ab629ec3aa5e3c73ffffffffffffffffffffffffffffffffffffffff168152602001838152602001610ca94690565b81526020018a73ffffffffffffffffffffffffffffffffffffffff1681526020018981526020018873ffffffffffffffffffffffffffffffffffffffff16815260200187815260200186868080601f016020809104026020016040519081016040528093929190818152602001838380828437600092018290525093909452509293509150610d399050826116a0565b9050610d466007826116d0565b610d506007611814565b600681905560405182917f327110434bca326d1f70236295f59c8b472ebc683a6549ca9254697564fec4a591610d889190869061227e565b60405180910390a29998505050505050505050565b6000610da888610672565b90506000610dbe8260200151878b888888611827565b90506000610dd18360000151888c6118c3565b9050826020015173ffffffffffffffffffffffffffffffffffffffff16836000015173ffffffffffffffffffffffffffffffffffffffff16897ff7e134438bf3052b95eaa2f90f4177932297d80eb36186624c2f366cb8944ecf8486604051610e44929190918252602082015260400190565b60405180910390a4610e568183611fca565b341115610e81576000610e698284611fca565b610e739034612183565b9050610e7f8a82611973565b505b50505050505050505050565b600080610ea361026560c0870160a08801611be2565b602081015190915073ffffffffffffffffffffffffffffffffffffffff163314610f29576040517f08c379a000000000000000000000000000000000000000000000000000000000815260206004820152600560248201527f216175746800000000000000000000000000000000000000000000000000000060448201526064016104a1565b6000610f3c610f37876120e1565b6116a0565b9050816000015173ffffffffffffffffffffffffffffffffffffffff1663094f87c587604001358388886040518563ffffffff1660e01b8152600401610f859493929190612297565b602060405180830381865afa158015610fa2573d6000803e3d6000fd5b505050506040513d601f19601f82011682018060405250810190610fc691906122c1565b61102c576040517f08c379a000000000000000000000000000000000000000000000000000000000815260206004820152600660248201527f2170726f6f66000000000000000000000000000000000000000000000000000060448201526064016104a1565b60808601354614611099576040517f08c379a000000000000000000000000000000000000000000000000000000000815260206004820152600a60248201527f21746f436861696e49640000000000000000000000000000000000000000000060448201526064016104a1565b60008181526028602052604090205460ff1615611114576040517f08c379a00000000000000000000000000000000000000000000000000000000081526004016104a19060208082526004908201527f646f6e6500000000000000000000000000000000000000000000000000000000604082015260600190565b600081815260286020526040902080547fffffffffffffffffffffffffffffffffffffffffffffffffffffffffffffff001660011790559150509392505050565b60006111d78360c001513460008660e00151868860400151896060015160405160200161118594939291906122e3565b604080517fffffffffffffffffffffffffffffffffffffffffffffffffffffffffffffffe081840301815291905260a088015173ffffffffffffffffffffffffffffffffffffffff1693929190611a3d565b509392505050565b6111e7611b9a565b600081527fad3228b676f7d3cd4284a5443f17f1962b36e491b30a40b2405849e597ba5fb560208201527fb4c11951957c6f8f642c4af61cd6b24640fec6dc7fc607ee8206a99e92410d3060408201527f21ddb9a356815c3fac1026b6dec5df3124afbadb485c9ba5a3e3398a04b7ba8560608201527fe58769b32a1beaf1ea27375a44095a0d1fb664ce2dd358e7fcbfb78c26a1934460808201527f0eb01ebfc9ed27500cd4dfc979272d1f0913cc9f66540d7e8005811109e1cf2d60a08201527f887c22bd8750d34016ac3c66b5ff102dacdd73f6b014e710b51e8022af9a196860c08201527fffd70157e48063fc33c97a050f7f640233bf646cc98d9524c6b92bcf3ab56f8360e08201527f9867cc5f7f196b93bae1e27e6320742445d290f2263827498b54fec539f756af6101008201527fcefad4e508c098b9a7e1d8feb19955fb02ba9675585078710969d3440f5054e06101208201527ff9dc3e7fe016e050eff260334f18a5d4fe391d82092319f5964f2e2eb7c1c3a56101408201527ff8b13a49e282f609c317a833fb8d976d11517c571d1221a265d25af778ecf8926101608201527f3490c6ceeb450aecdc82e28293031d10c7d73bf85e57bf041a97360aa2c5d99c6101808201527fc1df82d9c4b87413eae2ef048f94b4d3554cea73d92b0f7af96e0271c691e2bb6101a08201527f5c67add7c6caf302256adedf7ab114da0acfe870d449a3a489f781d659e8becc6101c08201527fda7bce9f4e8618b6bd2f4132ce798cdc7a60e7e1460a7299e3c6342a579626d26101e08201527f2733e50f526ec2fa19a22b31e8ed50f23cd1fdf94c9154ed3a7609a2f1ff981f6102008201527fe1d3b5c807b281e4683cc6d6315cf95b9ade8641defcb32372f1c126e398ef7a6102208201527f5a2dce0a8a7f68bb74560f8f71837c2c2ebbcbf7fffb42ae1896f13f7c7479a06102408201527fb46a28b6f55540f89444f63de0378e3d121be09e06cc9ded1c20e65876d36aa06102608201527fc65e9645644786b620e2dd2ad648ddfcbf4a7e5b1a3a4ecfe7f64667a3f0b7e26102808201527ff4418588ed35a2458cffeb39b93d26f18d2ab13bdce6aee58e7b99359ec2dfd96102a08201527f5a9c16dc00d6ef18b7933a6f8dc65ccb55667138776f7dea101070dc8796e3776102c08201527f4df84f40ae0c8229d0d6069e5c8f39a7c299677a09d367fc7b05e3bc380ee6526102e08201527fcdc72595f74c7b1043d0e1ffbab734648c838dfb0527d971b602bc216c9619ef6103008201527f0abf5ac974a1ed57f4050aa510dd9c74f508277b39d7973bb2dfccc5eeb0618d6103208201527fb8cd74046ff337f0a7bf2c8e03e10f642c1886798d71806ab1e888d9e5ee87d06103408201527f838c5655cb21c6cb83313b5a631175dff4963772cce9108188b34ac87c81c41e6103608201527f662ee4dd2dd7b2bc707961b1e646c4047669dcb6584f0d8d770daf5d7e7deb2e6103808201527f388ab20e2573d171a88108e79d820e98f26c0b84aa8b2f4aa4968dbb818ea3226103a08201527f93237c50ba75ee485f4c22adf2f741400bdf8d6a9cc7df7ecae576221665d7356103c08201527f8448818bb4ae4562849e949e17ac16e0be16688e156b5cf15e098c627c0056a96103e082015290565b6000816040516020016116b39190612337565b604051602081830303815290604052805190602001209050919050565b60016116de6020600261246a565b6116e89190612183565b826020015410611754576040517f08c379a000000000000000000000000000000000000000000000000000000000815260206004820152601060248201527f6d65726b6c6520747265652066756c6c0000000000000000000000000000000060448201526064016104a1565b60018260200160008282546117699190611fca565b9091555050602082015460005b602081101561180657816001166001036117a5578284826020811061179d5761179d612196565b015550505050565b8381602081106117b7576117b7612196565b015460408051602081019290925281018490526060016040516020818303038152906040528051906020012092506002826117f29190612476565b9150806117fe816121c5565b915050611776565b5061180f6124b1565b505050565b6000610723826118226111df565b611ac8565b6000808773ffffffffffffffffffffffffffffffffffffffff166353179a7c88888888886040518663ffffffff1660e01b815260040161186b959493929190611f46565b602060405180830381865afa158015611888573d6000803e3d6000fd5b505050506040513d601f19601f820116820180604052508101906118ac9190611f82565b90506118b88882611973565b979650505050505050565b6040517fa1dbf4320000000000000000000000000000000000000000000000000000000081526004810183905273ffffffffffffffffffffffffffffffffffffffff8281166024830152600091829186169063a1dbf43290604401602060405180830381865afa15801561193b573d6000803e3d6000fd5b505050506040513d601f19601f8201168201806040525081019061195f9190611f82565b905061196b8582611973565b949350505050565b60008273ffffffffffffffffffffffffffffffffffffffff168260405160006040518083038185875af1925050503d80600081146119cd576040519150601f19603f3d011682016040523d82523d6000602084013e6119d2565b606091505b505090508061180f576040517f08c379a000000000000000000000000000000000000000000000000000000000815260206004820152600560248201527f2173656e6400000000000000000000000000000000000000000000000000000060448201526064016104a1565b6000606060008060008661ffff1667ffffffffffffffff811115611a6357611a63611fdd565b6040519080825280601f01601f191660200182016040528015611a8d576020820181803683370190505b5090506000808751602089018b8e8ef191503d925086831115611aae578692505b828152826000602083013e90999098509650505050505050565b6020820154600090815b6020811015611b9257600182821c166000868360208110611af557611af5612196565b0154905081600103611b32576040805160208101839052908101869052606001604051602081830303815290604052805190602001209450611b7d565b84868460208110611b4557611b45612196565b6020020151604051602001611b64929190918252602082015260400190565b6040516020818303038152906040528051906020012094505b50508080611b8a906121c5565b915050611ad2565b505092915050565b6040518061040001604052806020906020820280368337509192915050565b803573ffffffffffffffffffffffffffffffffffffffff81168114611bdd57600080fd5b919050565b600060208284031215611bf457600080fd5b611bfd82611bb9565b9392505050565b60008083601f840112611c1657600080fd5b50813567ffffffffffffffff811115611c2e57600080fd5b602083019150836020828501011115611c4657600080fd5b9250929050565b600080600080600080600060a0888a031215611c6857600080fd5b87359650611c7860208901611bb9565b955060408801359450606088013567ffffffffffffffff80821115611c9c57600080fd5b611ca88b838c01611c04565b909650945060808a0135915080821115611cc157600080fd5b50611cce8a828b01611c04565b989b979a50959850939692959293505050565b6104008101818360005b6020808210611cfa5750611d0e565b825184529283019290910190600101611ceb565b50505092915050565b60008060408385031215611d2a57600080fd5b611d3383611bb9565b9150611d4160208401611bb9565b90509250929050565b60005b83811015611d65578181015183820152602001611d4d565b50506000910152565b60008151808452611d86816020860160208601611d4a565b601f017fffffffffffffffffffffffffffffffffffffffffffffffffffffffffffffffe0169290920160200192915050565b602081526000611bfd6020830184611d6e565b60008060008060008060008060c0898b031215611de757600080fd5b88359750611df760208a01611bb9565b965060408901359550606089013567ffffffffffffffff80821115611e1b57600080fd5b611e278c838d01611c04565b9097509550859150611e3b60808c01611bb9565b945060a08b0135915080821115611e5157600080fd5b50611e5e8b828c01611c04565b999c989b5096995094979396929594505050565b600080600060408486031215611e8757600080fd5b833567ffffffffffffffff80821115611e9f57600080fd5b908501906101008288031215611eb457600080fd5b90935060208501359080821115611eca57600080fd5b50611ed786828701611c04565b9497909650939450505050565b600060208284031215611ef657600080fd5b5035919050565b8183528181602085013750600060208284010152600060207fffffffffffffffffffffffffffffffffffffffffffffffffffffffffffffffe0601f840116840101905092915050565b85815273ffffffffffffffffffffffffffffffffffffffff851660208201528360408201526080606082015260006118b8608083018486611efd565b600060208284031215611f9457600080fd5b5051919050565b7f4e487b7100000000000000000000000000000000000000000000000000000000600052601160045260246000fd5b8082018082111561072357610723611f9b565b7f4e487b7100000000000000000000000000000000000000000000000000000000600052604160045260246000fd5b604051610100810167ffffffffffffffff8111828210171561203057612030611fdd565b60405290565b600082601f83011261204757600080fd5b813567ffffffffffffffff8082111561206257612062611fdd565b604051601f83017fffffffffffffffffffffffffffffffffffffffffffffffffffffffffffffffe0908116603f011681019082821181831017156120a8576120a8611fdd565b816040528381528660208588010111156120c157600080fd5b836020870160208301376000602085830101528094505050505092915050565b600061010082360312156120f457600080fd5b6120fc61200c565b61210583611bb9565b8152602083013560208201526040830135604082015261212760608401611bb9565b60608201526080830135608082015261214260a08401611bb9565b60a082015260c083013560c082015260e083013567ffffffffffffffff81111561216b57600080fd5b61217736828601612036565b60e08301525092915050565b8181038181111561072357610723611f9b565b7f4e487b7100000000000000000000000000000000000000000000000000000000600052603260045260246000fd5b60007fffffffffffffffffffffffffffffffffffffffffffffffffffffffffffffffff82036121f6576121f6611f9b565b5060010190565b600061010073ffffffffffffffffffffffffffffffffffffffff8084511685526020840151602086015260408401516040860152806060850151166060860152608084015160808601528060a08501511660a08601525060c083015160c085015260e08301518160e086015261227582860182611d6e565b95945050505050565b82815260406020820152600061196b60408301846121fd565b8481528360208201526060604082015260006122b7606083018486611efd565b9695505050505050565b6000602082840312156122d357600080fd5b81518015158114611bfd57600080fd5b600085516122f5818460208a01611d4a565b9190910193845250602083019190915260601b7fffffffffffffffffffffffffffffffffffffffff000000000000000000000000166040820152605401919050565b602081526000611bfd60208301846121fd565b600181815b808511156123a357817fffffffffffffffffffffffffffffffffffffffffffffffffffffffffffffffff0482111561238957612389611f9b565b8085161561239657918102915b93841c939080029061234f565b509250929050565b6000826123ba57506001610723565b816123c757506000610723565b81600181146123dd57600281146123e757612403565b6001915050610723565b60ff8411156123f8576123f8611f9b565b50506001821b610723565b5060208310610133831016604e8410600b8410161715612426575081810a610723565b612430838361234a565b807fffffffffffffffffffffffffffffffffffffffffffffffffffffffffffffffff0482111561246257612462611f9b565b029392505050565b6000611bfd83836123ab565b6000826124ac577f4e487b7100000000000000000000000000000000000000000000000000000000600052601260045260246000fd5b500490565b7f4e487b7100000000000000000000000000000000000000000000000000000000600052600160045260246000fdfea2646970667358221220e4b3459bef63f5af5ae2294d65e90d4caa676610aebba195cd887e674ddf857a64736f6c63430008110033",
			"devdoc": {
				"kind": "dev",
				"methods": {
					"LOCAL_CHAINID()": {
						"details": "Fetch local chain id.",
						"returns": {
							"chainId": "Local chain id."
						}
					},
					"changeSetter(address)": {
						"details": "Change setter.",
						"params": {
							"newSetter": "New setter."
						}
					},
					"fee(uint256,address,uint256,bytes,bytes)": {
						"params": {
							"encoded": "The calldata which encoded by ABI Encoding.",
							"gasLimit": "Gas limit for destination user application used."
						}
					},
					"getAppConfig(address)": {
						"details": "Fetch user application config.",
						"params": {
							"ua": "User application contract address."
						},
						"returns": {
							"_0": "user application config."
						}
					},
					"imtBranch()": {
						"details": "Fetch the branch of incremental merkle tree."
					},
					"messageCount()": {
						"details": "Fetch the messages count of incremental merkle tree."
					},
					"prove()": {
						"details": "Fetch the latest message proof"
					},
					"recv((address,uint256,uint256,address,uint256,address,uint256,bytes),bytes)": {
						"details": "Recv verified message from Channel and dispatch to destination user application address.",
						"params": {
							"message": "Verified receive message info.",
							"proof": "Message proof of this message."
						},
						"returns": {
							"dispatchResult": "Result of the message dispatch."
						}
					},
					"send(uint256,address,uint256,bytes,address,bytes)": {
						"details": "Send a cross-chain message over the endpoint.",
						"params": {
							"encoded": "The calldata which encoded by ABI Encoding.",
							"gasLimit": "Gas limit for destination user application used.",
							"refund": "Return extra fee to refund address.",
							"to": "User application contract address which receive the message.",
							"toChainId": "The Message destination chain id."
						}
					},
					"setAppConfig(address,address)": {
						"params": {
							"oracle": "Oracle which user application.",
							"relayer": "Relayer which user application choose."
						}
					},
					"setDefaultConfig(address,address)": {
						"details": "Set default user config for all user application.",
						"params": {
							"oracle": "Default oracle.",
							"relayer": "Default relayer."
						}
					}
				},
				"version": 1
			},
			"userdoc": {
				"kind": "user",
				"methods": {
					"changeSetter(address)": {
						"notice": "Only current setter could call."
					},
					"getAppConfig(address)": {
						"notice": "If user application has not configured, then the default user config is used."
					},
					"recv((address,uint256,uint256,address,uint256,address,uint256,bytes),bytes)": {
						"notice": "Only channel could call this function."
					},
					"send(uint256,address,uint256,bytes,address,bytes)": {
						"notice": "follow https://eips.ethereum.org/EIPS/eip-5750"
					},
					"setAppConfig(address,address)": {
						"notice": "Set user application config."
					},
					"setDefaultConfig(address,address)": {
						"notice": "Only setter could call."
					}
				},
				"version": 1
			},
			"gitCommit": "ea8caff26eeb31c3189033ff62ea530464fdf5ab",
			"sourceName": "lib/ORMP/src/ORMP.sol",
			"chainId": "421614",
			"linkReferences": {},
			"deployedLinkReferences": {}
		},
		{
			"_format": "sphinx-sol-ct-artifact-1",
			"merkleRoot": "0xc84acfebd69df767eeeef5122ea5ab5c41810ced254da26a23666639407d03e3",
			"contractName": "ORMP",
			"address": "0xD72faece6902185EE2D1D796b4E2Aceb3B506Dcb",
			"abi": [
				{
					"type": "constructor",
					"inputs": [
						{
							"name": "dao",
							"type": "address",
							"internalType": "address"
						}
					],
					"stateMutability": "nonpayable"
				},
				{
					"type": "function",
					"name": "LOCAL_CHAINID",
					"inputs": [],
					"outputs": [
						{
							"name": "chainId",
							"type": "uint256",
							"internalType": "uint256"
						}
					],
					"stateMutability": "view"
				},
				{
					"type": "function",
					"name": "changeSetter",
					"inputs": [
						{
							"name": "newSetter",
							"type": "address",
							"internalType": "address"
						}
					],
					"outputs": [],
					"stateMutability": "nonpayable"
				},
				{
					"type": "function",
					"name": "defaultUC",
					"inputs": [],
					"outputs": [
						{
							"name": "oracle",
							"type": "address",
							"internalType": "address"
						},
						{
							"name": "relayer",
							"type": "address",
							"internalType": "address"
						}
					],
					"stateMutability": "view"
				},
				{
					"type": "function",
					"name": "dones",
					"inputs": [
						{
							"name": "",
							"type": "bytes32",
							"internalType": "bytes32"
						}
					],
					"outputs": [
						{
							"name": "",
							"type": "bool",
							"internalType": "bool"
						}
					],
					"stateMutability": "view"
				},
				{
					"type": "function",
					"name": "fee",
					"inputs": [
						{
							"name": "toChainId",
							"type": "uint256",
							"internalType": "uint256"
						},
						{
							"name": "ua",
							"type": "address",
							"internalType": "address"
						},
						{
							"name": "gasLimit",
							"type": "uint256",
							"internalType": "uint256"
						},
						{
							"name": "encoded",
							"type": "bytes",
							"internalType": "bytes"
						},
						{
							"name": "",
							"type": "bytes",
							"internalType": "bytes"
						}
					],
					"outputs": [
						{
							"name": "",
							"type": "uint256",
							"internalType": "uint256"
						}
					],
					"stateMutability": "view"
				},
				{
					"type": "function",
					"name": "getAppConfig",
					"inputs": [
						{
							"name": "ua",
							"type": "address",
							"internalType": "address"
						}
					],
					"outputs": [
						{
							"name": "",
							"type": "tuple",
							"internalType": "struct UC",
							"components": [
								{
									"name": "oracle",
									"type": "address",
									"internalType": "address"
								},
								{
									"name": "relayer",
									"type": "address",
									"internalType": "address"
								}
							]
						}
					],
					"stateMutability": "view"
				},
				{
					"type": "function",
					"name": "imtBranch",
					"inputs": [],
					"outputs": [
						{
							"name": "",
							"type": "bytes32[32]",
							"internalType": "bytes32[32]"
						}
					],
					"stateMutability": "view"
				},
				{
					"type": "function",
					"name": "messageCount",
					"inputs": [],
					"outputs": [
						{
							"name": "",
							"type": "uint256",
							"internalType": "uint256"
						}
					],
					"stateMutability": "view"
				},
				{
					"type": "function",
					"name": "prove",
					"inputs": [],
					"outputs": [
						{
							"name": "",
							"type": "bytes32[32]",
							"internalType": "bytes32[32]"
						}
					],
					"stateMutability": "view"
				},
				{
					"type": "function",
					"name": "recv",
					"inputs": [
						{
							"name": "message",
							"type": "tuple",
							"internalType": "struct Message",
							"components": [
								{
									"name": "channel",
									"type": "address",
									"internalType": "address"
								},
								{
									"name": "index",
									"type": "uint256",
									"internalType": "uint256"
								},
								{
									"name": "fromChainId",
									"type": "uint256",
									"internalType": "uint256"
								},
								{
									"name": "from",
									"type": "address",
									"internalType": "address"
								},
								{
									"name": "toChainId",
									"type": "uint256",
									"internalType": "uint256"
								},
								{
									"name": "to",
									"type": "address",
									"internalType": "address"
								},
								{
									"name": "gasLimit",
									"type": "uint256",
									"internalType": "uint256"
								},
								{
									"name": "encoded",
									"type": "bytes",
									"internalType": "bytes"
								}
							]
						},
						{
							"name": "proof",
							"type": "bytes",
							"internalType": "bytes"
						}
					],
					"outputs": [
						{
							"name": "dispatchResult",
							"type": "bool",
							"internalType": "bool"
						}
					],
					"stateMutability": "payable"
				},
				{
					"type": "function",
					"name": "root",
					"inputs": [],
					"outputs": [
						{
							"name": "",
							"type": "bytes32",
							"internalType": "bytes32"
						}
					],
					"stateMutability": "view"
				},
				{
					"type": "function",
					"name": "send",
					"inputs": [
						{
							"name": "toChainId",
							"type": "uint256",
							"internalType": "uint256"
						},
						{
							"name": "to",
							"type": "address",
							"internalType": "address"
						},
						{
							"name": "gasLimit",
							"type": "uint256",
							"internalType": "uint256"
						},
						{
							"name": "encoded",
							"type": "bytes",
							"internalType": "bytes"
						},
						{
							"name": "refund",
							"type": "address",
							"internalType": "address"
						},
						{
							"name": "",
							"type": "bytes",
							"internalType": "bytes"
						}
					],
					"outputs": [
						{
							"name": "",
							"type": "bytes32",
							"internalType": "bytes32"
						}
					],
					"stateMutability": "payable"
				},
				{
					"type": "function",
					"name": "setAppConfig",
					"inputs": [
						{
							"name": "oracle",
							"type": "address",
							"internalType": "address"
						},
						{
							"name": "relayer",
							"type": "address",
							"internalType": "address"
						}
					],
					"outputs": [],
					"stateMutability": "nonpayable"
				},
				{
					"type": "function",
					"name": "setDefaultConfig",
					"inputs": [
						{
							"name": "oracle",
							"type": "address",
							"internalType": "address"
						},
						{
							"name": "relayer",
							"type": "address",
							"internalType": "address"
						}
					],
					"outputs": [],
					"stateMutability": "nonpayable"
				},
				{
					"type": "function",
					"name": "setter",
					"inputs": [],
					"outputs": [
						{
							"name": "",
							"type": "address",
							"internalType": "address"
						}
					],
					"stateMutability": "view"
				},
				{
					"type": "function",
					"name": "ucOf",
					"inputs": [
						{
							"name": "",
							"type": "address",
							"internalType": "address"
						}
					],
					"outputs": [
						{
							"name": "oracle",
							"type": "address",
							"internalType": "address"
						},
						{
							"name": "relayer",
							"type": "address",
							"internalType": "address"
						}
					],
					"stateMutability": "view"
				},
				{
					"type": "function",
					"name": "version",
					"inputs": [],
					"outputs": [
						{
							"name": "",
							"type": "string",
							"internalType": "string"
						}
					],
					"stateMutability": "pure"
				},
				{
					"type": "event",
					"name": "AppConfigUpdated",
					"inputs": [
						{
							"name": "ua",
							"type": "address",
							"indexed": true,
							"internalType": "address"
						},
						{
							"name": "oracle",
							"type": "address",
							"indexed": false,
							"internalType": "address"
						},
						{
							"name": "relayer",
							"type": "address",
							"indexed": false,
							"internalType": "address"
						}
					],
					"anonymous": false
				},
				{
					"type": "event",
					"name": "DefaultConfigUpdated",
					"inputs": [
						{
							"name": "oracle",
							"type": "address",
							"indexed": false,
							"internalType": "address"
						},
						{
							"name": "relayer",
							"type": "address",
							"indexed": false,
							"internalType": "address"
						}
					],
					"anonymous": false
				},
				{
					"type": "event",
					"name": "MessageAccepted",
					"inputs": [
						{
							"name": "msgHash",
							"type": "bytes32",
							"indexed": true,
							"internalType": "bytes32"
						},
						{
							"name": "root",
							"type": "bytes32",
							"indexed": false,
							"internalType": "bytes32"
						},
						{
							"name": "message",
							"type": "tuple",
							"indexed": false,
							"internalType": "struct Message",
							"components": [
								{
									"name": "channel",
									"type": "address",
									"internalType": "address"
								},
								{
									"name": "index",
									"type": "uint256",
									"internalType": "uint256"
								},
								{
									"name": "fromChainId",
									"type": "uint256",
									"internalType": "uint256"
								},
								{
									"name": "from",
									"type": "address",
									"internalType": "address"
								},
								{
									"name": "toChainId",
									"type": "uint256",
									"internalType": "uint256"
								},
								{
									"name": "to",
									"type": "address",
									"internalType": "address"
								},
								{
									"name": "gasLimit",
									"type": "uint256",
									"internalType": "uint256"
								},
								{
									"name": "encoded",
									"type": "bytes",
									"internalType": "bytes"
								}
							]
						}
					],
					"anonymous": false
				},
				{
					"type": "event",
					"name": "MessageAssigned",
					"inputs": [
						{
							"name": "msgHash",
							"type": "bytes32",
							"indexed": true,
							"internalType": "bytes32"
						},
						{
							"name": "oracle",
							"type": "address",
							"indexed": true,
							"internalType": "address"
						},
						{
							"name": "relayer",
							"type": "address",
							"indexed": true,
							"internalType": "address"
						},
						{
							"name": "oracleFee",
							"type": "uint256",
							"indexed": false,
							"internalType": "uint256"
						},
						{
							"name": "relayerFee",
							"type": "uint256",
							"indexed": false,
							"internalType": "uint256"
						}
					],
					"anonymous": false
				},
				{
					"type": "event",
					"name": "MessageDispatched",
					"inputs": [
						{
							"name": "msgHash",
							"type": "bytes32",
							"indexed": true,
							"internalType": "bytes32"
						},
						{
							"name": "dispatchResult",
							"type": "bool",
							"indexed": false,
							"internalType": "bool"
						}
					],
					"anonymous": false
				},
				{
					"type": "event",
					"name": "SetterChanged",
					"inputs": [
						{
							"name": "oldSetter",
							"type": "address",
							"indexed": true,
							"internalType": "address"
						},
						{
							"name": "newSetter",
							"type": "address",
							"indexed": true,
							"internalType": "address"
						}
					],
					"anonymous": false
				}
			],
			"solcInputHash": "a1f5933c9632f7e469a95642a21f081b",
			"receipt": {
				"blockHash": "0xaaec0a3942a17d5c169e41b3f38099f842154d2fe1a176997132eea2a52d3949",
				"blockNumber": 27515241,
				"contractAddress": null,
				"cumulativeGasUsed": "8604072",
				"from": "0xD70A2e6eACbdeDA77a5d4bBAE3bC70239A0e088f",
				"gasPrice": "100000000",
				"gasUsed": "8604072",
				"hash": "0x7068b1bb0570f964eaa5a75584bd3364a942d463e77894bdeaf98758a72030ee",
				"index": 1,
				"logs": [
					{
						"address": "0x701609866556Cb9A1FBD6B40201cD5899c9D2d56",
						"blockHash": "0xaaec0a3942a17d5c169e41b3f38099f842154d2fe1a176997132eea2a52d3949",
						"blockNumber": 27515241,
						"data": "0x",
						"index": 0,
						"topics": [
							"0x6895c13664aa4f67288b25d7a21d7aaa34916e355fb9b6fae0a139a9085becb8",
							"0x00000000000000000000000004678247ac000d74768e5caa72a221a0a7c2ae44"
						],
						"transactionHash": "0x7068b1bb0570f964eaa5a75584bd3364a942d463e77894bdeaf98758a72030ee",
						"transactionIndex": 1
					},
					{
						"address": "0x04678247aC000d74768E5CAa72a221A0a7C2Ae44",
						"blockHash": "0xaaec0a3942a17d5c169e41b3f38099f842154d2fe1a176997132eea2a52d3949",
						"blockNumber": 27515241,
						"data": "0x0000000000000000000000000000000000000000000000000000000000000001",
						"index": 1,
						"topics": [
							"0xa65fb05c5808f5f389d72edeaf719ce38f4cc55c1f69ca3cbfb31c21501caa07",
							"0xc84acfebd69df767eeeef5122ea5ab5c41810ced254da26a23666639407d03e3"
						],
						"transactionHash": "0x7068b1bb0570f964eaa5a75584bd3364a942d463e77894bdeaf98758a72030ee",
						"transactionIndex": 1
					},
					{
						"address": "0x04678247aC000d74768E5CAa72a221A0a7C2Ae44",
						"blockHash": "0xaaec0a3942a17d5c169e41b3f38099f842154d2fe1a176997132eea2a52d3949",
						"blockNumber": 27515241,
						"data": "0x",
						"index": 2,
						"topics": [
							"0x4383d976757d67ca920616be0b6430a681ea9d3dcce8d6d61d4603ca4a9bff63",
							"0xc84acfebd69df767eeeef5122ea5ab5c41810ced254da26a23666639407d03e3"
						],
						"transactionHash": "0x7068b1bb0570f964eaa5a75584bd3364a942d463e77894bdeaf98758a72030ee",
						"transactionIndex": 1
					}
				],
				"logsBloom": "0x00000000000010000000000000080000000000008000000000000000000000000000000000000000000000000000000000000000020000000000000000000000000000000000200000000100000000000000000000000000040000000000000000000000000000000000000000000000000000000800000000000000000000000000000000400000800000000000000000000000000000000000000000000000000000800000000000000000000000000200004080000000000000000004000000000000000000000000000000000008000000000000100000000008000000000000000000000008000000000000000200000000000000000000000008000000",
				"status": 1,
				"to": "0x04678247aC000d74768E5CAa72a221A0a7C2Ae44"
			},
			"metadata": "{\"compiler\":{\"version\":\"0.8.17+commit.8df45f5f\"},\"language\":\"Solidity\",\"output\":{\"abi\":[{\"inputs\":[{\"internalType\":\"address\",\"name\":\"dao\",\"type\":\"address\"}],\"stateMutability\":\"nonpayable\",\"type\":\"constructor\"},{\"inputs\":[{\"internalType\":\"address\",\"name\":\"ua\",\"type\":\"address\",\"indexed\":true},{\"internalType\":\"address\",\"name\":\"oracle\",\"type\":\"address\",\"indexed\":false},{\"internalType\":\"address\",\"name\":\"relayer\",\"type\":\"address\",\"indexed\":false}],\"type\":\"event\",\"name\":\"AppConfigUpdated\",\"anonymous\":false},{\"inputs\":[{\"internalType\":\"address\",\"name\":\"oracle\",\"type\":\"address\",\"indexed\":false},{\"internalType\":\"address\",\"name\":\"relayer\",\"type\":\"address\",\"indexed\":false}],\"type\":\"event\",\"name\":\"DefaultConfigUpdated\",\"anonymous\":false},{\"inputs\":[{\"internalType\":\"bytes32\",\"name\":\"msgHash\",\"type\":\"bytes32\",\"indexed\":true},{\"internalType\":\"bytes32\",\"name\":\"root\",\"type\":\"bytes32\",\"indexed\":false},{\"internalType\":\"struct Message\",\"name\":\"message\",\"type\":\"tuple\",\"components\":[{\"internalType\":\"address\",\"name\":\"channel\",\"type\":\"address\"},{\"internalType\":\"uint256\",\"name\":\"index\",\"type\":\"uint256\"},{\"internalType\":\"uint256\",\"name\":\"fromChainId\",\"type\":\"uint256\"},{\"internalType\":\"address\",\"name\":\"from\",\"type\":\"address\"},{\"internalType\":\"uint256\",\"name\":\"toChainId\",\"type\":\"uint256\"},{\"internalType\":\"address\",\"name\":\"to\",\"type\":\"address\"},{\"internalType\":\"uint256\",\"name\":\"gasLimit\",\"type\":\"uint256\"},{\"internalType\":\"bytes\",\"name\":\"encoded\",\"type\":\"bytes\"}],\"indexed\":false}],\"type\":\"event\",\"name\":\"MessageAccepted\",\"anonymous\":false},{\"inputs\":[{\"internalType\":\"bytes32\",\"name\":\"msgHash\",\"type\":\"bytes32\",\"indexed\":true},{\"internalType\":\"address\",\"name\":\"oracle\",\"type\":\"address\",\"indexed\":true},{\"internalType\":\"address\",\"name\":\"relayer\",\"type\":\"address\",\"indexed\":true},{\"internalType\":\"uint256\",\"name\":\"oracleFee\",\"type\":\"uint256\",\"indexed\":false},{\"internalType\":\"uint256\",\"name\":\"relayerFee\",\"type\":\"uint256\",\"indexed\":false}],\"type\":\"event\",\"name\":\"MessageAssigned\",\"anonymous\":false},{\"inputs\":[{\"internalType\":\"bytes32\",\"name\":\"msgHash\",\"type\":\"bytes32\",\"indexed\":true},{\"internalType\":\"bool\",\"name\":\"dispatchResult\",\"type\":\"bool\",\"indexed\":false}],\"type\":\"event\",\"name\":\"MessageDispatched\",\"anonymous\":false},{\"inputs\":[{\"internalType\":\"address\",\"name\":\"oldSetter\",\"type\":\"address\",\"indexed\":true},{\"internalType\":\"address\",\"name\":\"newSetter\",\"type\":\"address\",\"indexed\":true}],\"type\":\"event\",\"name\":\"SetterChanged\",\"anonymous\":false},{\"inputs\":[],\"stateMutability\":\"view\",\"type\":\"function\",\"name\":\"LOCAL_CHAINID\",\"outputs\":[{\"internalType\":\"uint256\",\"name\":\"chainId\",\"type\":\"uint256\"}]},{\"inputs\":[{\"internalType\":\"address\",\"name\":\"newSetter\",\"type\":\"address\"}],\"stateMutability\":\"nonpayable\",\"type\":\"function\",\"name\":\"changeSetter\"},{\"inputs\":[],\"stateMutability\":\"view\",\"type\":\"function\",\"name\":\"defaultUC\",\"outputs\":[{\"internalType\":\"address\",\"name\":\"oracle\",\"type\":\"address\"},{\"internalType\":\"address\",\"name\":\"relayer\",\"type\":\"address\"}]},{\"inputs\":[{\"internalType\":\"bytes32\",\"name\":\"\",\"type\":\"bytes32\"}],\"stateMutability\":\"view\",\"type\":\"function\",\"name\":\"dones\",\"outputs\":[{\"internalType\":\"bool\",\"name\":\"\",\"type\":\"bool\"}]},{\"inputs\":[{\"internalType\":\"uint256\",\"name\":\"toChainId\",\"type\":\"uint256\"},{\"internalType\":\"address\",\"name\":\"ua\",\"type\":\"address\"},{\"internalType\":\"uint256\",\"name\":\"gasLimit\",\"type\":\"uint256\"},{\"internalType\":\"bytes\",\"name\":\"encoded\",\"type\":\"bytes\"},{\"internalType\":\"bytes\",\"name\":\"\",\"type\":\"bytes\"}],\"stateMutability\":\"view\",\"type\":\"function\",\"name\":\"fee\",\"outputs\":[{\"internalType\":\"uint256\",\"name\":\"\",\"type\":\"uint256\"}]},{\"inputs\":[{\"internalType\":\"address\",\"name\":\"ua\",\"type\":\"address\"}],\"stateMutability\":\"view\",\"type\":\"function\",\"name\":\"getAppConfig\",\"outputs\":[{\"internalType\":\"struct UC\",\"name\":\"\",\"type\":\"tuple\",\"components\":[{\"internalType\":\"address\",\"name\":\"oracle\",\"type\":\"address\"},{\"internalType\":\"address\",\"name\":\"relayer\",\"type\":\"address\"}]}]},{\"inputs\":[],\"stateMutability\":\"view\",\"type\":\"function\",\"name\":\"imtBranch\",\"outputs\":[{\"internalType\":\"bytes32[32]\",\"name\":\"\",\"type\":\"bytes32[32]\"}]},{\"inputs\":[],\"stateMutability\":\"view\",\"type\":\"function\",\"name\":\"messageCount\",\"outputs\":[{\"internalType\":\"uint256\",\"name\":\"\",\"type\":\"uint256\"}]},{\"inputs\":[],\"stateMutability\":\"view\",\"type\":\"function\",\"name\":\"prove\",\"outputs\":[{\"internalType\":\"bytes32[32]\",\"name\":\"\",\"type\":\"bytes32[32]\"}]},{\"inputs\":[{\"internalType\":\"struct Message\",\"name\":\"message\",\"type\":\"tuple\",\"components\":[{\"internalType\":\"address\",\"name\":\"channel\",\"type\":\"address\"},{\"internalType\":\"uint256\",\"name\":\"index\",\"type\":\"uint256\"},{\"internalType\":\"uint256\",\"name\":\"fromChainId\",\"type\":\"uint256\"},{\"internalType\":\"address\",\"name\":\"from\",\"type\":\"address\"},{\"internalType\":\"uint256\",\"name\":\"toChainId\",\"type\":\"uint256\"},{\"internalType\":\"address\",\"name\":\"to\",\"type\":\"address\"},{\"internalType\":\"uint256\",\"name\":\"gasLimit\",\"type\":\"uint256\"},{\"internalType\":\"bytes\",\"name\":\"encoded\",\"type\":\"bytes\"}]},{\"internalType\":\"bytes\",\"name\":\"proof\",\"type\":\"bytes\"}],\"stateMutability\":\"payable\",\"type\":\"function\",\"name\":\"recv\",\"outputs\":[{\"internalType\":\"bool\",\"name\":\"dispatchResult\",\"type\":\"bool\"}]},{\"inputs\":[],\"stateMutability\":\"view\",\"type\":\"function\",\"name\":\"root\",\"outputs\":[{\"internalType\":\"bytes32\",\"name\":\"\",\"type\":\"bytes32\"}]},{\"inputs\":[{\"internalType\":\"uint256\",\"name\":\"toChainId\",\"type\":\"uint256\"},{\"internalType\":\"address\",\"name\":\"to\",\"type\":\"address\"},{\"internalType\":\"uint256\",\"name\":\"gasLimit\",\"type\":\"uint256\"},{\"internalType\":\"bytes\",\"name\":\"encoded\",\"type\":\"bytes\"},{\"internalType\":\"address\",\"name\":\"refund\",\"type\":\"address\"},{\"internalType\":\"bytes\",\"name\":\"\",\"type\":\"bytes\"}],\"stateMutability\":\"payable\",\"type\":\"function\",\"name\":\"send\",\"outputs\":[{\"internalType\":\"bytes32\",\"name\":\"\",\"type\":\"bytes32\"}]},{\"inputs\":[{\"internalType\":\"address\",\"name\":\"oracle\",\"type\":\"address\"},{\"internalType\":\"address\",\"name\":\"relayer\",\"type\":\"address\"}],\"stateMutability\":\"nonpayable\",\"type\":\"function\",\"name\":\"setAppConfig\"},{\"inputs\":[{\"internalType\":\"address\",\"name\":\"oracle\",\"type\":\"address\"},{\"internalType\":\"address\",\"name\":\"relayer\",\"type\":\"address\"}],\"stateMutability\":\"nonpayable\",\"type\":\"function\",\"name\":\"setDefaultConfig\"},{\"inputs\":[],\"stateMutability\":\"view\",\"type\":\"function\",\"name\":\"setter\",\"outputs\":[{\"internalType\":\"address\",\"name\":\"\",\"type\":\"address\"}]},{\"inputs\":[{\"internalType\":\"address\",\"name\":\"\",\"type\":\"address\"}],\"stateMutability\":\"view\",\"type\":\"function\",\"name\":\"ucOf\",\"outputs\":[{\"internalType\":\"address\",\"name\":\"oracle\",\"type\":\"address\"},{\"internalType\":\"address\",\"name\":\"relayer\",\"type\":\"address\"}]},{\"inputs\":[],\"stateMutability\":\"pure\",\"type\":\"function\",\"name\":\"version\",\"outputs\":[{\"internalType\":\"string\",\"name\":\"\",\"type\":\"string\"}]}],\"devdoc\":{\"kind\":\"dev\",\"methods\":{\"LOCAL_CHAINID()\":{\"details\":\"Fetch local chain id.\",\"returns\":{\"chainId\":\"Local chain id.\"}},\"changeSetter(address)\":{\"details\":\"Change setter.\",\"params\":{\"newSetter\":\"New setter.\"}},\"fee(uint256,address,uint256,bytes,bytes)\":{\"params\":{\"encoded\":\"The calldata which encoded by ABI Encoding.\",\"gasLimit\":\"Gas limit for destination user application used.\"}},\"getAppConfig(address)\":{\"details\":\"Fetch user application config.\",\"params\":{\"ua\":\"User application contract address.\"},\"returns\":{\"_0\":\"user application config.\"}},\"imtBranch()\":{\"details\":\"Fetch the branch of incremental merkle tree.\"},\"messageCount()\":{\"details\":\"Fetch the messages count of incremental merkle tree.\"},\"prove()\":{\"details\":\"Fetch the latest message proof\"},\"recv((address,uint256,uint256,address,uint256,address,uint256,bytes),bytes)\":{\"details\":\"Recv verified message from Channel and dispatch to destination user application address.\",\"params\":{\"message\":\"Verified receive message info.\",\"proof\":\"Message proof of this message.\"},\"returns\":{\"dispatchResult\":\"Result of the message dispatch.\"}},\"send(uint256,address,uint256,bytes,address,bytes)\":{\"details\":\"Send a cross-chain message over the endpoint.\",\"params\":{\"encoded\":\"The calldata which encoded by ABI Encoding.\",\"gasLimit\":\"Gas limit for destination user application used.\",\"refund\":\"Return extra fee to refund address.\",\"to\":\"User application contract address which receive the message.\",\"toChainId\":\"The Message destination chain id.\"}},\"setAppConfig(address,address)\":{\"params\":{\"oracle\":\"Oracle which user application.\",\"relayer\":\"Relayer which user application choose.\"}},\"setDefaultConfig(address,address)\":{\"details\":\"Set default user config for all user application.\",\"params\":{\"oracle\":\"Default oracle.\",\"relayer\":\"Default relayer.\"}}},\"version\":1},\"userdoc\":{\"kind\":\"user\",\"methods\":{\"changeSetter(address)\":{\"notice\":\"Only current setter could call.\"},\"getAppConfig(address)\":{\"notice\":\"If user application has not configured, then the default user config is used.\"},\"recv((address,uint256,uint256,address,uint256,address,uint256,bytes),bytes)\":{\"notice\":\"Only channel could call this function.\"},\"send(uint256,address,uint256,bytes,address,bytes)\":{\"notice\":\"follow https://eips.ethereum.org/EIPS/eip-5750\"},\"setAppConfig(address,address)\":{\"notice\":\"Set user application config.\"},\"setDefaultConfig(address,address)\":{\"notice\":\"Only setter could call.\"}},\"version\":1}},\"settings\":{\"remappings\":[\"@darwinia-msgport/=lib/darwinia-msgport/\",\"@openzeppelin/contracts/=lib/openzeppelin-contracts/contracts/\",\"@openzeppelin/contracts@4.9.2/=lib/openzeppelin-contracts/contracts/\",\"@sphinx-labs/contracts/=lib/sphinx/packages/contracts/contracts/foundry/\",\"ORMP/=lib/ORMP/\",\"subapi/=lib/subapi/\"],\"optimizer\":{\"enabled\":true,\"runs\":999999},\"metadata\":{\"bytecodeHash\":\"ipfs\"},\"compilationTarget\":{\"lib/ORMP/src/ORMP.sol\":\"ORMP\"},\"evmVersion\":\"london\",\"libraries\":{}},\"sources\":{\"lib/ORMP/src/Channel.sol\":{\"keccak256\":\"0x286a6af99428230c2f67181181d52d63a647ee2d896c5855300eda37c52b2dbf\",\"urls\":[\"bzz-raw://84326f7649e0c727e1e5836c1f50e603fdc4811b0fd94b2ee5c682e10700f9ce\",\"dweb:/ipfs/Qmb32nTAUsyStw3dqynijZEaA9UC4ig6xoPBjhvdQEVDdn\"],\"license\":\"GPL-3.0\"},\"lib/ORMP/src/Common.sol\":{\"keccak256\":\"0x832de8c9469de78d3133d42716444007d3fa2aa2fe88a6fcbb81d119d8ffbd1d\",\"urls\":[\"bzz-raw://a0447d4aaebe147c97df506a8ae7801e13b3af6cc0c9ee31bc896a7b40e463ab\",\"dweb:/ipfs/QmTn2bjyJMsj9uV613Usy3ueyjFZ7Ugfo4ovR8UkPpMhX4\"],\"license\":\"GPL-3.0\"},\"lib/ORMP/src/ORMP.sol\":{\"keccak256\":\"0x952e7ad4b58f70d4e035f24c92ed4edecd1f89fd6da8bbfc05f627cf6ac16d3d\",\"urls\":[\"bzz-raw://0fdfb9d153015dd2f089b099cff5737ea3118a3aa3a3d72715d8ea1f0da2804f\",\"dweb:/ipfs/QmPdy8ia167eUG7CZkREZGqzDoxLs4h1xqUoLaK2UGxM6C\"],\"license\":\"GPL-3.0\"},\"lib/ORMP/src/UserConfig.sol\":{\"keccak256\":\"0x9d2e059b8e05cebe34733475fbea89e0f103fc8f7d909aa79186ed65837da6e0\",\"urls\":[\"bzz-raw://d4e465d388fe332f755e426d12018c09d727782f195d8e734776a2bff74cab38\",\"dweb:/ipfs/QmQp7wkLHMvYL5841uCDS1zhifsaJg4r2Wxty91b19bEcK\"],\"license\":\"GPL-3.0\"},\"lib/ORMP/src/imt/IncrementalMerkleTree.sol\":{\"keccak256\":\"0x535228355f8bd4339f42aa3dfe3cebcbdaad7a92704c4e3eeb0982dce8acf246\",\"urls\":[\"bzz-raw://9830ca0eb4837abdaaba548ea20fe14c67e23a392e09aaaa57b4032f9b81c49f\",\"dweb:/ipfs/QmYDw8c8zgLhxhxt3heCGJu7rYSgmEwKFjMfWrbJNcyPWj\"],\"license\":\"MIT OR Apache-2.0\"},\"lib/ORMP/src/interfaces/IOracle.sol\":{\"keccak256\":\"0xb1299974c86446972355bebb7c95697139c67f1731b1c1fa59a07c8cc575f527\",\"urls\":[\"bzz-raw://c96ee956d4731fb7bc0aa67f2783afa6ba2179fc1ef4419f2f70f727c9d7a7f1\",\"dweb:/ipfs/QmbqaqnRRHb2k25bzsvmapugHaTu1gDESGxk7MU5vgrPBo\"],\"license\":\"GPL-3.0\"},\"lib/ORMP/src/interfaces/IRelayer.sol\":{\"keccak256\":\"0xb2a4fc032746f072405210a118298000cda8634ddf4bc02b33f976be4eaf7209\",\"urls\":[\"bzz-raw://5627a3007ff8748f5be505de61d7cca46a2466ece354093f2958f3e2daab5445\",\"dweb:/ipfs/Qmb5Gefdqo5ruQX1id6hgpVDKiM9Vyy6wLurxDtC5377Lt\"],\"license\":\"GPL-3.0\"},\"lib/ORMP/src/interfaces/IVerifier.sol\":{\"keccak256\":\"0x60ad4dbeb54c04aa1c389a2dab7c9bca361eb2df245b3a29f0851be697876099\",\"urls\":[\"bzz-raw://57f1c8949abccaef95ab207257bfcf7b12f19756e0c90184ad39a8bdb2dc559a\",\"dweb:/ipfs/Qmd1LBiTn3nzfzhGHmdM2YdbWLUkca6wZfPBo1rWqPcoau\"],\"license\":\"GPL-3.0\"},\"lib/ORMP/src/security/ExcessivelySafeCall.sol\":{\"keccak256\":\"0x586361e0b312522e1b4dfbbd7a4965fd0b36642660c16cba3a733ee66f388508\",\"urls\":[\"bzz-raw://b0d67666dc6b468c91589b8d00f3f519c0904e40313631e08102058135681d68\",\"dweb:/ipfs/QmQHgut1NwT3Dr68fLtJzGwcTmPU9CxJZYF7euDfz2VGNL\"],\"license\":\"MIT OR Apache-2.0\"},\"lib/ORMP/src/security/ReentrancyGuard.sol\":{\"keccak256\":\"0xbb376a44d276cf677debb795e823759f563a26bd3805e413f7b12ee38e3e13be\",\"urls\":[\"bzz-raw://0eb116fec82b4b1fd0a9ebd259b375b06f5aaea104426c9219fda9d3abb8e311\",\"dweb:/ipfs/QmfMH7vZHdvY6qSb2hxRvzuSMrmXq17FzBx8PJzn4qFJZQ\"],\"license\":\"MIT\"}},\"version\":1}",
			"args": [
				"0x701609866556Cb9A1FBD6B40201cD5899c9D2d56"
			],
			"bytecode": "0x60a0604052600160008190558055306080523480156200001e57600080fd5b50604051620025ef380380620025ef83398101604081905262000041916200008b565b600280546001600160a01b0319166001600160a01b03929092169190911790557f27ae5ba08d7291c96c8cbddcc148bf48a6d68c7974b94356f53754ef6171d757600655620000bd565b6000602082840312156200009e57600080fd5b81516001600160a01b0381168114620000b657600080fd5b9392505050565b608051612516620000d96000396000610c6201526125166000f3fe60806040526004361061010e5760003560e01c80634ea59979116100a55780638b22909111610074578063ebf0c71711610059578063ebf0c717146103bb578063ee6ad167146103d1578063f67c907c146103f457600080fd5b80638b22909114610388578063b0ff5e72146103a857600080fd5b80634ea59979146102f457806352720be41461031457806354fd4d50146103295780635e26462c1461037557600080fd5b80633f3108f7116100e15780633f3108f7146101f8578063413422491461024a57806345152ae31461029e5780634872824f146102c057600080fd5b80630f988a73146101135780631c2b2da6146101355780633c50e178146101685780633dbcc8d1146101e3575b600080fd5b34801561011f57600080fd5b5061013361012e366004611be2565b610424565b005b34801561014157600080fd5b50610155610150366004611c4d565b610521565b6040519081526020015b60405180910390f35b34801561017457600080fd5b506101b6610183366004611be2565b6005602052600090815260409020805460019091015473ffffffffffffffffffffffffffffffffffffffff918216911682565b6040805173ffffffffffffffffffffffffffffffffffffffff93841681529290911660208301520161015f565b3480156101ef57600080fd5b50602754610155565b34801561020457600080fd5b506002546102259073ffffffffffffffffffffffffffffffffffffffff1681565b60405173ffffffffffffffffffffffffffffffffffffffff909116815260200161015f565b34801561025657600080fd5b5061026a610265366004611be2565b610672565b60408051825173ffffffffffffffffffffffffffffffffffffffff908116825260209384015116928101929092520161015f565b3480156102aa57600080fd5b506102b3610729565b60405161015f9190611ce1565b3480156102cc57600080fd5b506003546004546101b69173ffffffffffffffffffffffffffffffffffffffff908116911682565b34801561030057600080fd5b5061013361030f366004611d17565b610740565b34801561032057600080fd5b506102b3610863565b34801561033557600080fd5b50604080518082018252600581527f322e302e300000000000000000000000000000000000000000000000000000006020820152905161015f9190611db8565b610155610383366004611dcb565b61089f565b34801561039457600080fd5b506101336103a3366004611d17565b610948565b3480156103b457600080fd5b5046610155565b3480156103c757600080fd5b5061015560065481565b6103e46103df366004611e72565b610a07565b604051901515815260200161015f565b34801561040057600080fd5b506103e461040f366004611ee4565b60286020526000908152604090205460ff1681565b60025473ffffffffffffffffffffffffffffffffffffffff1633146104aa576040517f08c379a000000000000000000000000000000000000000000000000000000000815260206004820152600560248201527f216175746800000000000000000000000000000000000000000000000000000060448201526064015b60405180910390fd5b6002805473ffffffffffffffffffffffffffffffffffffffff8381167fffffffffffffffffffffffff0000000000000000000000000000000000000000831681179093556040519116919082907fb0999394a8202229d1e14c6290230863233f18473f7504b3a7b1a27f9b014c9d90600090a35050565b60008061052d88610672565b90506000816020015173ffffffffffffffffffffffffffffffffffffffff166353179a7c8b8b8b8b8b6040518663ffffffff1660e01b8152600401610576959493929190611f46565b602060405180830381865afa158015610593573d6000803e3d6000fd5b505050506040513d601f19601f820116820180604052508101906105b79190611f82565b82516040517fa1dbf432000000000000000000000000000000000000000000000000000000008152600481018d905273ffffffffffffffffffffffffffffffffffffffff8c811660248301529293506000929091169063a1dbf43290604401602060405180830381865afa158015610633573d6000803e3d6000fd5b505050506040513d601f19601f820116820180604052508101906106579190611f82565b90506106638183611fca565b9b9a5050505050505050505050565b6040805180820182526000808252602080830182905273ffffffffffffffffffffffffffffffffffffffff858116835260058252918490208451808601909552805483168552600101549091169083018190529091906106eb5760045473ffffffffffffffffffffffffffffffffffffffff1660208201525b805173ffffffffffffffffffffffffffffffffffffffff166107235760035473ffffffffffffffffffffffffffffffffffffffff1681525b92915050565b610731611b9a565b61073b6007610ae4565b905090565b60025473ffffffffffffffffffffffffffffffffffffffff1633146107c1576040517f08c379a000000000000000000000000000000000000000000000000000000000815260206004820152600560248201527f216175746800000000000000000000000000000000000000000000000000000060448201526064016104a1565b60408051808201825273ffffffffffffffffffffffffffffffffffffffff8481168083529084166020928301819052600380547fffffffffffffffffffffffff0000000000000000000000000000000000000000908116841790915560048054909116821790558351918252918101919091527f504f152883e6158786ddfcce63f4d4d95ce8e404b1f6e6365a06f63849b7cb95910160405180910390a15050565b61086b611b9a565b604080516104008101918290529060079060209082845b815481526020019060010190808311610882575050505050905090565b600060016000541461090d576040517f08c379a000000000000000000000000000000000000000000000000000000000815260206004820152601060248201527f2173656e642d7265656e7472616e63790000000000000000000000000000000060448201526064016104a1565b600260009081553390610924828c8c8c8c8c610bda565b90506109358287838e8d8d8d610d9d565b60016000559a9950505050505050505050565b60408051808201825273ffffffffffffffffffffffffffffffffffffffff848116808352848216602080850182815233600081815260058452889020965187549087167fffffffffffffffffffffffff000000000000000000000000000000000000000091821617885591516001909701805497909616969091169590951790935584519182529181019190915290917f86b44d92ad94c11b25d0f08d0f55e8e235b4d165e62e541c02e8ee19f551c97b910160405180910390a25050565b60006001805414610a74576040517f08c379a000000000000000000000000000000000000000000000000000000000815260206004820152601060248201527f21726563762d7265656e7472616e63790000000000000000000000000000000060448201526064016104a1565b60026001556000610a86858585610e8d565b9050610a9a610a94866120e1565b82611155565b9150807f62b1dc20fd6f1518626da5b6f9897e8cd4ebadbad071bb66dc96a37c970087a883604051610ad0911515815260200190565b60405180910390a250600180559392505050565b610aec611b9a565b600060018360200154610aff9190612183565b6040805161040081019182905291925060009190859060209082845b815481526020019060010190808311610b1b57505050505090506000610b3f6111df565b905060005b6020811015610bd157600184821c811690819003610b8f57838260208110610b6e57610b6e612196565b6020020151868360208110610b8557610b85612196565b6020020152610bbe565b828260208110610ba157610ba1612196565b6020020151868360208110610bb857610bb8612196565b60200201525b5080610bc9816121c5565b915050610b44565b50505050919050565b6000468603610c45576040517f08c379a000000000000000000000000000000000000000000000000000000000815260206004820152600c60248201527f2163726f73732d636861696e000000000000000000000000000000000000000060448201526064016104a1565b6000610c5060275490565b905060006040518061010001604052807f000000000000000000000000000000000000000000000000000000000000000073ffffffffffffffffffffffffffffffffffffffff168152602001838152602001610ca94690565b81526020018a73ffffffffffffffffffffffffffffffffffffffff1681526020018981526020018873ffffffffffffffffffffffffffffffffffffffff16815260200187815260200186868080601f016020809104026020016040519081016040528093929190818152602001838380828437600092018290525093909452509293509150610d399050826116a0565b9050610d466007826116d0565b610d506007611814565b600681905560405182917f327110434bca326d1f70236295f59c8b472ebc683a6549ca9254697564fec4a591610d889190869061227e565b60405180910390a29998505050505050505050565b6000610da888610672565b90506000610dbe8260200151878b888888611827565b90506000610dd18360000151888c6118c3565b9050826020015173ffffffffffffffffffffffffffffffffffffffff16836000015173ffffffffffffffffffffffffffffffffffffffff16897ff7e134438bf3052b95eaa2f90f4177932297d80eb36186624c2f366cb8944ecf8486604051610e44929190918252602082015260400190565b60405180910390a4610e568183611fca565b341115610e81576000610e698284611fca565b610e739034612183565b9050610e7f8a82611973565b505b50505050505050505050565b600080610ea361026560c0870160a08801611be2565b602081015190915073ffffffffffffffffffffffffffffffffffffffff163314610f29576040517f08c379a000000000000000000000000000000000000000000000000000000000815260206004820152600560248201527f216175746800000000000000000000000000000000000000000000000000000060448201526064016104a1565b6000610f3c610f37876120e1565b6116a0565b9050816000015173ffffffffffffffffffffffffffffffffffffffff1663094f87c587604001358388886040518563ffffffff1660e01b8152600401610f859493929190612297565b602060405180830381865afa158015610fa2573d6000803e3d6000fd5b505050506040513d601f19601f82011682018060405250810190610fc691906122c1565b61102c576040517f08c379a000000000000000000000000000000000000000000000000000000000815260206004820152600660248201527f2170726f6f66000000000000000000000000000000000000000000000000000060448201526064016104a1565b60808601354614611099576040517f08c379a000000000000000000000000000000000000000000000000000000000815260206004820152600a60248201527f21746f436861696e49640000000000000000000000000000000000000000000060448201526064016104a1565b60008181526028602052604090205460ff1615611114576040517f08c379a00000000000000000000000000000000000000000000000000000000081526004016104a19060208082526004908201527f646f6e6500000000000000000000000000000000000000000000000000000000604082015260600190565b600081815260286020526040902080547fffffffffffffffffffffffffffffffffffffffffffffffffffffffffffffff001660011790559150509392505050565b60006111d78360c001513460008660e00151868860400151896060015160405160200161118594939291906122e3565b604080517fffffffffffffffffffffffffffffffffffffffffffffffffffffffffffffffe081840301815291905260a088015173ffffffffffffffffffffffffffffffffffffffff1693929190611a3d565b509392505050565b6111e7611b9a565b600081527fad3228b676f7d3cd4284a5443f17f1962b36e491b30a40b2405849e597ba5fb560208201527fb4c11951957c6f8f642c4af61cd6b24640fec6dc7fc607ee8206a99e92410d3060408201527f21ddb9a356815c3fac1026b6dec5df3124afbadb485c9ba5a3e3398a04b7ba8560608201527fe58769b32a1beaf1ea27375a44095a0d1fb664ce2dd358e7fcbfb78c26a1934460808201527f0eb01ebfc9ed27500cd4dfc979272d1f0913cc9f66540d7e8005811109e1cf2d60a08201527f887c22bd8750d34016ac3c66b5ff102dacdd73f6b014e710b51e8022af9a196860c08201527fffd70157e48063fc33c97a050f7f640233bf646cc98d9524c6b92bcf3ab56f8360e08201527f9867cc5f7f196b93bae1e27e6320742445d290f2263827498b54fec539f756af6101008201527fcefad4e508c098b9a7e1d8feb19955fb02ba9675585078710969d3440f5054e06101208201527ff9dc3e7fe016e050eff260334f18a5d4fe391d82092319f5964f2e2eb7c1c3a56101408201527ff8b13a49e282f609c317a833fb8d976d11517c571d1221a265d25af778ecf8926101608201527f3490c6ceeb450aecdc82e28293031d10c7d73bf85e57bf041a97360aa2c5d99c6101808201527fc1df82d9c4b87413eae2ef048f94b4d3554cea73d92b0f7af96e0271c691e2bb6101a08201527f5c67add7c6caf302256adedf7ab114da0acfe870d449a3a489f781d659e8becc6101c08201527fda7bce9f4e8618b6bd2f4132ce798cdc7a60e7e1460a7299e3c6342a579626d26101e08201527f2733e50f526ec2fa19a22b31e8ed50f23cd1fdf94c9154ed3a7609a2f1ff981f6102008201527fe1d3b5c807b281e4683cc6d6315cf95b9ade8641defcb32372f1c126e398ef7a6102208201527f5a2dce0a8a7f68bb74560f8f71837c2c2ebbcbf7fffb42ae1896f13f7c7479a06102408201527fb46a28b6f55540f89444f63de0378e3d121be09e06cc9ded1c20e65876d36aa06102608201527fc65e9645644786b620e2dd2ad648ddfcbf4a7e5b1a3a4ecfe7f64667a3f0b7e26102808201527ff4418588ed35a2458cffeb39b93d26f18d2ab13bdce6aee58e7b99359ec2dfd96102a08201527f5a9c16dc00d6ef18b7933a6f8dc65ccb55667138776f7dea101070dc8796e3776102c08201527f4df84f40ae0c8229d0d6069e5c8f39a7c299677a09d367fc7b05e3bc380ee6526102e08201527fcdc72595f74c7b1043d0e1ffbab734648c838dfb0527d971b602bc216c9619ef6103008201527f0abf5ac974a1ed57f4050aa510dd9c74f508277b39d7973bb2dfccc5eeb0618d6103208201527fb8cd74046ff337f0a7bf2c8e03e10f642c1886798d71806ab1e888d9e5ee87d06103408201527f838c5655cb21c6cb83313b5a631175dff4963772cce9108188b34ac87c81c41e6103608201527f662ee4dd2dd7b2bc707961b1e646c4047669dcb6584f0d8d770daf5d7e7deb2e6103808201527f388ab20e2573d171a88108e79d820e98f26c0b84aa8b2f4aa4968dbb818ea3226103a08201527f93237c50ba75ee485f4c22adf2f741400bdf8d6a9cc7df7ecae576221665d7356103c08201527f8448818bb4ae4562849e949e17ac16e0be16688e156b5cf15e098c627c0056a96103e082015290565b6000816040516020016116b39190612337565b604051602081830303815290604052805190602001209050919050565b60016116de6020600261246a565b6116e89190612183565b826020015410611754576040517f08c379a000000000000000000000000000000000000000000000000000000000815260206004820152601060248201527f6d65726b6c6520747265652066756c6c0000000000000000000000000000000060448201526064016104a1565b60018260200160008282546117699190611fca565b9091555050602082015460005b602081101561180657816001166001036117a5578284826020811061179d5761179d612196565b015550505050565b8381602081106117b7576117b7612196565b015460408051602081019290925281018490526060016040516020818303038152906040528051906020012092506002826117f29190612476565b9150806117fe816121c5565b915050611776565b5061180f6124b1565b505050565b6000610723826118226111df565b611ac8565b6000808773ffffffffffffffffffffffffffffffffffffffff166353179a7c88888888886040518663ffffffff1660e01b815260040161186b959493929190611f46565b602060405180830381865afa158015611888573d6000803e3d6000fd5b505050506040513d601f19601f820116820180604052508101906118ac9190611f82565b90506118b88882611973565b979650505050505050565b6040517fa1dbf4320000000000000000000000000000000000000000000000000000000081526004810183905273ffffffffffffffffffffffffffffffffffffffff8281166024830152600091829186169063a1dbf43290604401602060405180830381865afa15801561193b573d6000803e3d6000fd5b505050506040513d601f19601f8201168201806040525081019061195f9190611f82565b905061196b8582611973565b949350505050565b60008273ffffffffffffffffffffffffffffffffffffffff168260405160006040518083038185875af1925050503d80600081146119cd576040519150601f19603f3d011682016040523d82523d6000602084013e6119d2565b606091505b505090508061180f576040517f08c379a000000000000000000000000000000000000000000000000000000000815260206004820152600560248201527f2173656e6400000000000000000000000000000000000000000000000000000060448201526064016104a1565b6000606060008060008661ffff1667ffffffffffffffff811115611a6357611a63611fdd565b6040519080825280601f01601f191660200182016040528015611a8d576020820181803683370190505b5090506000808751602089018b8e8ef191503d925086831115611aae578692505b828152826000602083013e90999098509650505050505050565b6020820154600090815b6020811015611b9257600182821c166000868360208110611af557611af5612196565b0154905081600103611b32576040805160208101839052908101869052606001604051602081830303815290604052805190602001209450611b7d565b84868460208110611b4557611b45612196565b6020020151604051602001611b64929190918252602082015260400190565b6040516020818303038152906040528051906020012094505b50508080611b8a906121c5565b915050611ad2565b505092915050565b6040518061040001604052806020906020820280368337509192915050565b803573ffffffffffffffffffffffffffffffffffffffff81168114611bdd57600080fd5b919050565b600060208284031215611bf457600080fd5b611bfd82611bb9565b9392505050565b60008083601f840112611c1657600080fd5b50813567ffffffffffffffff811115611c2e57600080fd5b602083019150836020828501011115611c4657600080fd5b9250929050565b600080600080600080600060a0888a031215611c6857600080fd5b87359650611c7860208901611bb9565b955060408801359450606088013567ffffffffffffffff80821115611c9c57600080fd5b611ca88b838c01611c04565b909650945060808a0135915080821115611cc157600080fd5b50611cce8a828b01611c04565b989b979a50959850939692959293505050565b6104008101818360005b6020808210611cfa5750611d0e565b825184529283019290910190600101611ceb565b50505092915050565b60008060408385031215611d2a57600080fd5b611d3383611bb9565b9150611d4160208401611bb9565b90509250929050565b60005b83811015611d65578181015183820152602001611d4d565b50506000910152565b60008151808452611d86816020860160208601611d4a565b601f017fffffffffffffffffffffffffffffffffffffffffffffffffffffffffffffffe0169290920160200192915050565b602081526000611bfd6020830184611d6e565b60008060008060008060008060c0898b031215611de757600080fd5b88359750611df760208a01611bb9565b965060408901359550606089013567ffffffffffffffff80821115611e1b57600080fd5b611e278c838d01611c04565b9097509550859150611e3b60808c01611bb9565b945060a08b0135915080821115611e5157600080fd5b50611e5e8b828c01611c04565b999c989b5096995094979396929594505050565b600080600060408486031215611e8757600080fd5b833567ffffffffffffffff80821115611e9f57600080fd5b908501906101008288031215611eb457600080fd5b90935060208501359080821115611eca57600080fd5b50611ed786828701611c04565b9497909650939450505050565b600060208284031215611ef657600080fd5b5035919050565b8183528181602085013750600060208284010152600060207fffffffffffffffffffffffffffffffffffffffffffffffffffffffffffffffe0601f840116840101905092915050565b85815273ffffffffffffffffffffffffffffffffffffffff851660208201528360408201526080606082015260006118b8608083018486611efd565b600060208284031215611f9457600080fd5b5051919050565b7f4e487b7100000000000000000000000000000000000000000000000000000000600052601160045260246000fd5b8082018082111561072357610723611f9b565b7f4e487b7100000000000000000000000000000000000000000000000000000000600052604160045260246000fd5b604051610100810167ffffffffffffffff8111828210171561203057612030611fdd565b60405290565b600082601f83011261204757600080fd5b813567ffffffffffffffff8082111561206257612062611fdd565b604051601f83017fffffffffffffffffffffffffffffffffffffffffffffffffffffffffffffffe0908116603f011681019082821181831017156120a8576120a8611fdd565b816040528381528660208588010111156120c157600080fd5b836020870160208301376000602085830101528094505050505092915050565b600061010082360312156120f457600080fd5b6120fc61200c565b61210583611bb9565b8152602083013560208201526040830135604082015261212760608401611bb9565b60608201526080830135608082015261214260a08401611bb9565b60a082015260c083013560c082015260e083013567ffffffffffffffff81111561216b57600080fd5b61217736828601612036565b60e08301525092915050565b8181038181111561072357610723611f9b565b7f4e487b7100000000000000000000000000000000000000000000000000000000600052603260045260246000fd5b60007fffffffffffffffffffffffffffffffffffffffffffffffffffffffffffffffff82036121f6576121f6611f9b565b5060010190565b600061010073ffffffffffffffffffffffffffffffffffffffff8084511685526020840151602086015260408401516040860152806060850151166060860152608084015160808601528060a08501511660a08601525060c083015160c085015260e08301518160e086015261227582860182611d6e565b95945050505050565b82815260406020820152600061196b60408301846121fd565b8481528360208201526060604082015260006122b7606083018486611efd565b9695505050505050565b6000602082840312156122d357600080fd5b81518015158114611bfd57600080fd5b600085516122f5818460208a01611d4a565b9190910193845250602083019190915260601b7fffffffffffffffffffffffffffffffffffffffff000000000000000000000000166040820152605401919050565b602081526000611bfd60208301846121fd565b600181815b808511156123a357817fffffffffffffffffffffffffffffffffffffffffffffffffffffffffffffffff0482111561238957612389611f9b565b8085161561239657918102915b93841c939080029061234f565b509250929050565b6000826123ba57506001610723565b816123c757506000610723565b81600181146123dd57600281146123e757612403565b6001915050610723565b60ff8411156123f8576123f8611f9b565b50506001821b610723565b5060208310610133831016604e8410600b8410161715612426575081810a610723565b612430838361234a565b807fffffffffffffffffffffffffffffffffffffffffffffffffffffffffffffffff0482111561246257612462611f9b565b029392505050565b6000611bfd83836123ab565b6000826124ac577f4e487b7100000000000000000000000000000000000000000000000000000000600052601260045260246000fd5b500490565b7f4e487b7100000000000000000000000000000000000000000000000000000000600052600160045260246000fdfea2646970667358221220e4b3459bef63f5af5ae2294d65e90d4caa676610aebba195cd887e674ddf857a64736f6c63430008110033",
			"deployedBytecode": "0x60806040526004361061010e5760003560e01c80634ea59979116100a55780638b22909111610074578063ebf0c71711610059578063ebf0c717146103bb578063ee6ad167146103d1578063f67c907c146103f457600080fd5b80638b22909114610388578063b0ff5e72146103a857600080fd5b80634ea59979146102f457806352720be41461031457806354fd4d50146103295780635e26462c1461037557600080fd5b80633f3108f7116100e15780633f3108f7146101f8578063413422491461024a57806345152ae31461029e5780634872824f146102c057600080fd5b80630f988a73146101135780631c2b2da6146101355780633c50e178146101685780633dbcc8d1146101e3575b600080fd5b34801561011f57600080fd5b5061013361012e366004611be2565b610424565b005b34801561014157600080fd5b50610155610150366004611c4d565b610521565b6040519081526020015b60405180910390f35b34801561017457600080fd5b506101b6610183366004611be2565b6005602052600090815260409020805460019091015473ffffffffffffffffffffffffffffffffffffffff918216911682565b6040805173ffffffffffffffffffffffffffffffffffffffff93841681529290911660208301520161015f565b3480156101ef57600080fd5b50602754610155565b34801561020457600080fd5b506002546102259073ffffffffffffffffffffffffffffffffffffffff1681565b60405173ffffffffffffffffffffffffffffffffffffffff909116815260200161015f565b34801561025657600080fd5b5061026a610265366004611be2565b610672565b60408051825173ffffffffffffffffffffffffffffffffffffffff908116825260209384015116928101929092520161015f565b3480156102aa57600080fd5b506102b3610729565b60405161015f9190611ce1565b3480156102cc57600080fd5b506003546004546101b69173ffffffffffffffffffffffffffffffffffffffff908116911682565b34801561030057600080fd5b5061013361030f366004611d17565b610740565b34801561032057600080fd5b506102b3610863565b34801561033557600080fd5b50604080518082018252600581527f322e302e300000000000000000000000000000000000000000000000000000006020820152905161015f9190611db8565b610155610383366004611dcb565b61089f565b34801561039457600080fd5b506101336103a3366004611d17565b610948565b3480156103b457600080fd5b5046610155565b3480156103c757600080fd5b5061015560065481565b6103e46103df366004611e72565b610a07565b604051901515815260200161015f565b34801561040057600080fd5b506103e461040f366004611ee4565b60286020526000908152604090205460ff1681565b60025473ffffffffffffffffffffffffffffffffffffffff1633146104aa576040517f08c379a000000000000000000000000000000000000000000000000000000000815260206004820152600560248201527f216175746800000000000000000000000000000000000000000000000000000060448201526064015b60405180910390fd5b6002805473ffffffffffffffffffffffffffffffffffffffff8381167fffffffffffffffffffffffff0000000000000000000000000000000000000000831681179093556040519116919082907fb0999394a8202229d1e14c6290230863233f18473f7504b3a7b1a27f9b014c9d90600090a35050565b60008061052d88610672565b90506000816020015173ffffffffffffffffffffffffffffffffffffffff166353179a7c8b8b8b8b8b6040518663ffffffff1660e01b8152600401610576959493929190611f46565b602060405180830381865afa158015610593573d6000803e3d6000fd5b505050506040513d601f19601f820116820180604052508101906105b79190611f82565b82516040517fa1dbf432000000000000000000000000000000000000000000000000000000008152600481018d905273ffffffffffffffffffffffffffffffffffffffff8c811660248301529293506000929091169063a1dbf43290604401602060405180830381865afa158015610633573d6000803e3d6000fd5b505050506040513d601f19601f820116820180604052508101906106579190611f82565b90506106638183611fca565b9b9a5050505050505050505050565b6040805180820182526000808252602080830182905273ffffffffffffffffffffffffffffffffffffffff858116835260058252918490208451808601909552805483168552600101549091169083018190529091906106eb5760045473ffffffffffffffffffffffffffffffffffffffff1660208201525b805173ffffffffffffffffffffffffffffffffffffffff166107235760035473ffffffffffffffffffffffffffffffffffffffff1681525b92915050565b610731611b9a565b61073b6007610ae4565b905090565b60025473ffffffffffffffffffffffffffffffffffffffff1633146107c1576040517f08c379a000000000000000000000000000000000000000000000000000000000815260206004820152600560248201527f216175746800000000000000000000000000000000000000000000000000000060448201526064016104a1565b60408051808201825273ffffffffffffffffffffffffffffffffffffffff8481168083529084166020928301819052600380547fffffffffffffffffffffffff0000000000000000000000000000000000000000908116841790915560048054909116821790558351918252918101919091527f504f152883e6158786ddfcce63f4d4d95ce8e404b1f6e6365a06f63849b7cb95910160405180910390a15050565b61086b611b9a565b604080516104008101918290529060079060209082845b815481526020019060010190808311610882575050505050905090565b600060016000541461090d576040517f08c379a000000000000000000000000000000000000000000000000000000000815260206004820152601060248201527f2173656e642d7265656e7472616e63790000000000000000000000000000000060448201526064016104a1565b600260009081553390610924828c8c8c8c8c610bda565b90506109358287838e8d8d8d610d9d565b60016000559a9950505050505050505050565b60408051808201825273ffffffffffffffffffffffffffffffffffffffff848116808352848216602080850182815233600081815260058452889020965187549087167fffffffffffffffffffffffff000000000000000000000000000000000000000091821617885591516001909701805497909616969091169590951790935584519182529181019190915290917f86b44d92ad94c11b25d0f08d0f55e8e235b4d165e62e541c02e8ee19f551c97b910160405180910390a25050565b60006001805414610a74576040517f08c379a000000000000000000000000000000000000000000000000000000000815260206004820152601060248201527f21726563762d7265656e7472616e63790000000000000000000000000000000060448201526064016104a1565b60026001556000610a86858585610e8d565b9050610a9a610a94866120e1565b82611155565b9150807f62b1dc20fd6f1518626da5b6f9897e8cd4ebadbad071bb66dc96a37c970087a883604051610ad0911515815260200190565b60405180910390a250600180559392505050565b610aec611b9a565b600060018360200154610aff9190612183565b6040805161040081019182905291925060009190859060209082845b815481526020019060010190808311610b1b57505050505090506000610b3f6111df565b905060005b6020811015610bd157600184821c811690819003610b8f57838260208110610b6e57610b6e612196565b6020020151868360208110610b8557610b85612196565b6020020152610bbe565b828260208110610ba157610ba1612196565b6020020151868360208110610bb857610bb8612196565b60200201525b5080610bc9816121c5565b915050610b44565b50505050919050565b6000468603610c45576040517f08c379a000000000000000000000000000000000000000000000000000000000815260206004820152600c60248201527f2163726f73732d636861696e000000000000000000000000000000000000000060448201526064016104a1565b6000610c5060275490565b905060006040518061010001604052807f000000000000000000000000d72faece6902185ee2d1d796b4e2aceb3b506dcb73ffffffffffffffffffffffffffffffffffffffff168152602001838152602001610ca94690565b81526020018a73ffffffffffffffffffffffffffffffffffffffff1681526020018981526020018873ffffffffffffffffffffffffffffffffffffffff16815260200187815260200186868080601f016020809104026020016040519081016040528093929190818152602001838380828437600092018290525093909452509293509150610d399050826116a0565b9050610d466007826116d0565b610d506007611814565b600681905560405182917f327110434bca326d1f70236295f59c8b472ebc683a6549ca9254697564fec4a591610d889190869061227e565b60405180910390a29998505050505050505050565b6000610da888610672565b90506000610dbe8260200151878b888888611827565b90506000610dd18360000151888c6118c3565b9050826020015173ffffffffffffffffffffffffffffffffffffffff16836000015173ffffffffffffffffffffffffffffffffffffffff16897ff7e134438bf3052b95eaa2f90f4177932297d80eb36186624c2f366cb8944ecf8486604051610e44929190918252602082015260400190565b60405180910390a4610e568183611fca565b341115610e81576000610e698284611fca565b610e739034612183565b9050610e7f8a82611973565b505b50505050505050505050565b600080610ea361026560c0870160a08801611be2565b602081015190915073ffffffffffffffffffffffffffffffffffffffff163314610f29576040517f08c379a000000000000000000000000000000000000000000000000000000000815260206004820152600560248201527f216175746800000000000000000000000000000000000000000000000000000060448201526064016104a1565b6000610f3c610f37876120e1565b6116a0565b9050816000015173ffffffffffffffffffffffffffffffffffffffff1663094f87c587604001358388886040518563ffffffff1660e01b8152600401610f859493929190612297565b602060405180830381865afa158015610fa2573d6000803e3d6000fd5b505050506040513d601f19601f82011682018060405250810190610fc691906122c1565b61102c576040517f08c379a000000000000000000000000000000000000000000000000000000000815260206004820152600660248201527f2170726f6f66000000000000000000000000000000000000000000000000000060448201526064016104a1565b60808601354614611099576040517f08c379a000000000000000000000000000000000000000000000000000000000815260206004820152600a60248201527f21746f436861696e49640000000000000000000000000000000000000000000060448201526064016104a1565b60008181526028602052604090205460ff1615611114576040517f08c379a00000000000000000000000000000000000000000000000000000000081526004016104a19060208082526004908201527f646f6e6500000000000000000000000000000000000000000000000000000000604082015260600190565b600081815260286020526040902080547fffffffffffffffffffffffffffffffffffffffffffffffffffffffffffffff001660011790559150509392505050565b60006111d78360c001513460008660e00151868860400151896060015160405160200161118594939291906122e3565b604080517fffffffffffffffffffffffffffffffffffffffffffffffffffffffffffffffe081840301815291905260a088015173ffffffffffffffffffffffffffffffffffffffff1693929190611a3d565b509392505050565b6111e7611b9a565b600081527fad3228b676f7d3cd4284a5443f17f1962b36e491b30a40b2405849e597ba5fb560208201527fb4c11951957c6f8f642c4af61cd6b24640fec6dc7fc607ee8206a99e92410d3060408201527f21ddb9a356815c3fac1026b6dec5df3124afbadb485c9ba5a3e3398a04b7ba8560608201527fe58769b32a1beaf1ea27375a44095a0d1fb664ce2dd358e7fcbfb78c26a1934460808201527f0eb01ebfc9ed27500cd4dfc979272d1f0913cc9f66540d7e8005811109e1cf2d60a08201527f887c22bd8750d34016ac3c66b5ff102dacdd73f6b014e710b51e8022af9a196860c08201527fffd70157e48063fc33c97a050f7f640233bf646cc98d9524c6b92bcf3ab56f8360e08201527f9867cc5f7f196b93bae1e27e6320742445d290f2263827498b54fec539f756af6101008201527fcefad4e508c098b9a7e1d8feb19955fb02ba9675585078710969d3440f5054e06101208201527ff9dc3e7fe016e050eff260334f18a5d4fe391d82092319f5964f2e2eb7c1c3a56101408201527ff8b13a49e282f609c317a833fb8d976d11517c571d1221a265d25af778ecf8926101608201527f3490c6ceeb450aecdc82e28293031d10c7d73bf85e57bf041a97360aa2c5d99c6101808201527fc1df82d9c4b87413eae2ef048f94b4d3554cea73d92b0f7af96e0271c691e2bb6101a08201527f5c67add7c6caf302256adedf7ab114da0acfe870d449a3a489f781d659e8becc6101c08201527fda7bce9f4e8618b6bd2f4132ce798cdc7a60e7e1460a7299e3c6342a579626d26101e08201527f2733e50f526ec2fa19a22b31e8ed50f23cd1fdf94c9154ed3a7609a2f1ff981f6102008201527fe1d3b5c807b281e4683cc6d6315cf95b9ade8641defcb32372f1c126e398ef7a6102208201527f5a2dce0a8a7f68bb74560f8f71837c2c2ebbcbf7fffb42ae1896f13f7c7479a06102408201527fb46a28b6f55540f89444f63de0378e3d121be09e06cc9ded1c20e65876d36aa06102608201527fc65e9645644786b620e2dd2ad648ddfcbf4a7e5b1a3a4ecfe7f64667a3f0b7e26102808201527ff4418588ed35a2458cffeb39b93d26f18d2ab13bdce6aee58e7b99359ec2dfd96102a08201527f5a9c16dc00d6ef18b7933a6f8dc65ccb55667138776f7dea101070dc8796e3776102c08201527f4df84f40ae0c8229d0d6069e5c8f39a7c299677a09d367fc7b05e3bc380ee6526102e08201527fcdc72595f74c7b1043d0e1ffbab734648c838dfb0527d971b602bc216c9619ef6103008201527f0abf5ac974a1ed57f4050aa510dd9c74f508277b39d7973bb2dfccc5eeb0618d6103208201527fb8cd74046ff337f0a7bf2c8e03e10f642c1886798d71806ab1e888d9e5ee87d06103408201527f838c5655cb21c6cb83313b5a631175dff4963772cce9108188b34ac87c81c41e6103608201527f662ee4dd2dd7b2bc707961b1e646c4047669dcb6584f0d8d770daf5d7e7deb2e6103808201527f388ab20e2573d171a88108e79d820e98f26c0b84aa8b2f4aa4968dbb818ea3226103a08201527f93237c50ba75ee485f4c22adf2f741400bdf8d6a9cc7df7ecae576221665d7356103c08201527f8448818bb4ae4562849e949e17ac16e0be16688e156b5cf15e098c627c0056a96103e082015290565b6000816040516020016116b39190612337565b604051602081830303815290604052805190602001209050919050565b60016116de6020600261246a565b6116e89190612183565b826020015410611754576040517f08c379a000000000000000000000000000000000000000000000000000000000815260206004820152601060248201527f6d65726b6c6520747265652066756c6c0000000000000000000000000000000060448201526064016104a1565b60018260200160008282546117699190611fca565b9091555050602082015460005b602081101561180657816001166001036117a5578284826020811061179d5761179d612196565b015550505050565b8381602081106117b7576117b7612196565b015460408051602081019290925281018490526060016040516020818303038152906040528051906020012092506002826117f29190612476565b9150806117fe816121c5565b915050611776565b5061180f6124b1565b505050565b6000610723826118226111df565b611ac8565b6000808773ffffffffffffffffffffffffffffffffffffffff166353179a7c88888888886040518663ffffffff1660e01b815260040161186b959493929190611f46565b602060405180830381865afa158015611888573d6000803e3d6000fd5b505050506040513d601f19601f820116820180604052508101906118ac9190611f82565b90506118b88882611973565b979650505050505050565b6040517fa1dbf4320000000000000000000000000000000000000000000000000000000081526004810183905273ffffffffffffffffffffffffffffffffffffffff8281166024830152600091829186169063a1dbf43290604401602060405180830381865afa15801561193b573d6000803e3d6000fd5b505050506040513d601f19601f8201168201806040525081019061195f9190611f82565b905061196b8582611973565b949350505050565b60008273ffffffffffffffffffffffffffffffffffffffff168260405160006040518083038185875af1925050503d80600081146119cd576040519150601f19603f3d011682016040523d82523d6000602084013e6119d2565b606091505b505090508061180f576040517f08c379a000000000000000000000000000000000000000000000000000000000815260206004820152600560248201527f2173656e6400000000000000000000000000000000000000000000000000000060448201526064016104a1565b6000606060008060008661ffff1667ffffffffffffffff811115611a6357611a63611fdd565b6040519080825280601f01601f191660200182016040528015611a8d576020820181803683370190505b5090506000808751602089018b8e8ef191503d925086831115611aae578692505b828152826000602083013e90999098509650505050505050565b6020820154600090815b6020811015611b9257600182821c166000868360208110611af557611af5612196565b0154905081600103611b32576040805160208101839052908101869052606001604051602081830303815290604052805190602001209450611b7d565b84868460208110611b4557611b45612196565b6020020151604051602001611b64929190918252602082015260400190565b6040516020818303038152906040528051906020012094505b50508080611b8a906121c5565b915050611ad2565b505092915050565b6040518061040001604052806020906020820280368337509192915050565b803573ffffffffffffffffffffffffffffffffffffffff81168114611bdd57600080fd5b919050565b600060208284031215611bf457600080fd5b611bfd82611bb9565b9392505050565b60008083601f840112611c1657600080fd5b50813567ffffffffffffffff811115611c2e57600080fd5b602083019150836020828501011115611c4657600080fd5b9250929050565b600080600080600080600060a0888a031215611c6857600080fd5b87359650611c7860208901611bb9565b955060408801359450606088013567ffffffffffffffff80821115611c9c57600080fd5b611ca88b838c01611c04565b909650945060808a0135915080821115611cc157600080fd5b50611cce8a828b01611c04565b989b979a50959850939692959293505050565b6104008101818360005b6020808210611cfa5750611d0e565b825184529283019290910190600101611ceb565b50505092915050565b60008060408385031215611d2a57600080fd5b611d3383611bb9565b9150611d4160208401611bb9565b90509250929050565b60005b83811015611d65578181015183820152602001611d4d565b50506000910152565b60008151808452611d86816020860160208601611d4a565b601f017fffffffffffffffffffffffffffffffffffffffffffffffffffffffffffffffe0169290920160200192915050565b602081526000611bfd6020830184611d6e565b60008060008060008060008060c0898b031215611de757600080fd5b88359750611df760208a01611bb9565b965060408901359550606089013567ffffffffffffffff80821115611e1b57600080fd5b611e278c838d01611c04565b9097509550859150611e3b60808c01611bb9565b945060a08b0135915080821115611e5157600080fd5b50611e5e8b828c01611c04565b999c989b5096995094979396929594505050565b600080600060408486031215611e8757600080fd5b833567ffffffffffffffff80821115611e9f57600080fd5b908501906101008288031215611eb457600080fd5b90935060208501359080821115611eca57600080fd5b50611ed786828701611c04565b9497909650939450505050565b600060208284031215611ef657600080fd5b5035919050565b8183528181602085013750600060208284010152600060207fffffffffffffffffffffffffffffffffffffffffffffffffffffffffffffffe0601f840116840101905092915050565b85815273ffffffffffffffffffffffffffffffffffffffff851660208201528360408201526080606082015260006118b8608083018486611efd565b600060208284031215611f9457600080fd5b5051919050565b7f4e487b7100000000000000000000000000000000000000000000000000000000600052601160045260246000fd5b8082018082111561072357610723611f9b565b7f4e487b7100000000000000000000000000000000000000000000000000000000600052604160045260246000fd5b604051610100810167ffffffffffffffff8111828210171561203057612030611fdd565b60405290565b600082601f83011261204757600080fd5b813567ffffffffffffffff8082111561206257612062611fdd565b604051601f83017fffffffffffffffffffffffffffffffffffffffffffffffffffffffffffffffe0908116603f011681019082821181831017156120a8576120a8611fdd565b816040528381528660208588010111156120c157600080fd5b836020870160208301376000602085830101528094505050505092915050565b600061010082360312156120f457600080fd5b6120fc61200c565b61210583611bb9565b8152602083013560208201526040830135604082015261212760608401611bb9565b60608201526080830135608082015261214260a08401611bb9565b60a082015260c083013560c082015260e083013567ffffffffffffffff81111561216b57600080fd5b61217736828601612036565b60e08301525092915050565b8181038181111561072357610723611f9b565b7f4e487b7100000000000000000000000000000000000000000000000000000000600052603260045260246000fd5b60007fffffffffffffffffffffffffffffffffffffffffffffffffffffffffffffffff82036121f6576121f6611f9b565b5060010190565b600061010073ffffffffffffffffffffffffffffffffffffffff8084511685526020840151602086015260408401516040860152806060850151166060860152608084015160808601528060a08501511660a08601525060c083015160c085015260e08301518160e086015261227582860182611d6e565b95945050505050565b82815260406020820152600061196b60408301846121fd565b8481528360208201526060604082015260006122b7606083018486611efd565b9695505050505050565b6000602082840312156122d357600080fd5b81518015158114611bfd57600080fd5b600085516122f5818460208a01611d4a565b9190910193845250602083019190915260601b7fffffffffffffffffffffffffffffffffffffffff000000000000000000000000166040820152605401919050565b602081526000611bfd60208301846121fd565b600181815b808511156123a357817fffffffffffffffffffffffffffffffffffffffffffffffffffffffffffffffff0482111561238957612389611f9b565b8085161561239657918102915b93841c939080029061234f565b509250929050565b6000826123ba57506001610723565b816123c757506000610723565b81600181146123dd57600281146123e757612403565b6001915050610723565b60ff8411156123f8576123f8611f9b565b50506001821b610723565b5060208310610133831016604e8410600b8410161715612426575081810a610723565b612430838361234a565b807fffffffffffffffffffffffffffffffffffffffffffffffffffffffffffffffff0482111561246257612462611f9b565b029392505050565b6000611bfd83836123ab565b6000826124ac577f4e487b7100000000000000000000000000000000000000000000000000000000600052601260045260246000fd5b500490565b7f4e487b7100000000000000000000000000000000000000000000000000000000600052600160045260246000fdfea2646970667358221220e4b3459bef63f5af5ae2294d65e90d4caa676610aebba195cd887e674ddf857a64736f6c63430008110033",
			"devdoc": {
				"kind": "dev",
				"methods": {
					"LOCAL_CHAINID()": {
						"details": "Fetch local chain id.",
						"returns": {
							"chainId": "Local chain id."
						}
					},
					"changeSetter(address)": {
						"details": "Change setter.",
						"params": {
							"newSetter": "New setter."
						}
					},
					"fee(uint256,address,uint256,bytes,bytes)": {
						"params": {
							"encoded": "The calldata which encoded by ABI Encoding.",
							"gasLimit": "Gas limit for destination user application used."
						}
					},
					"getAppConfig(address)": {
						"details": "Fetch user application config.",
						"params": {
							"ua": "User application contract address."
						},
						"returns": {
							"_0": "user application config."
						}
					},
					"imtBranch()": {
						"details": "Fetch the branch of incremental merkle tree."
					},
					"messageCount()": {
						"details": "Fetch the messages count of incremental merkle tree."
					},
					"prove()": {
						"details": "Fetch the latest message proof"
					},
					"recv((address,uint256,uint256,address,uint256,address,uint256,bytes),bytes)": {
						"details": "Recv verified message from Channel and dispatch to destination user application address.",
						"params": {
							"message": "Verified receive message info.",
							"proof": "Message proof of this message."
						},
						"returns": {
							"dispatchResult": "Result of the message dispatch."
						}
					},
					"send(uint256,address,uint256,bytes,address,bytes)": {
						"details": "Send a cross-chain message over the endpoint.",
						"params": {
							"encoded": "The calldata which encoded by ABI Encoding.",
							"gasLimit": "Gas limit for destination user application used.",
							"refund": "Return extra fee to refund address.",
							"to": "User application contract address which receive the message.",
							"toChainId": "The Message destination chain id."
						}
					},
					"setAppConfig(address,address)": {
						"params": {
							"oracle": "Oracle which user application.",
							"relayer": "Relayer which user application choose."
						}
					},
					"setDefaultConfig(address,address)": {
						"details": "Set default user config for all user application.",
						"params": {
							"oracle": "Default oracle.",
							"relayer": "Default relayer."
						}
					}
				},
				"version": 1
			},
			"userdoc": {
				"kind": "user",
				"methods": {
					"changeSetter(address)": {
						"notice": "Only current setter could call."
					},
					"getAppConfig(address)": {
						"notice": "If user application has not configured, then the default user config is used."
					},
					"recv((address,uint256,uint256,address,uint256,address,uint256,bytes),bytes)": {
						"notice": "Only channel could call this function."
					},
					"send(uint256,address,uint256,bytes,address,bytes)": {
						"notice": "follow https://eips.ethereum.org/EIPS/eip-5750"
					},
					"setAppConfig(address,address)": {
						"notice": "Set user application config."
					},
					"setDefaultConfig(address,address)": {
						"notice": "Only setter could call."
					}
				},
				"version": 1
			},
			"gitCommit": "ea8caff26eeb31c3189033ff62ea530464fdf5ab",
			"sourceName": "lib/ORMP/src/ORMP.sol",
			"chainId": "421614",
			"linkReferences": {},
			"deployedLinkReferences": {}
		},
		{
			"_format": "sphinx-sol-ct-artifact-1",
			"merkleRoot": "0x5f88d8cd2474522a0eb294f59e9a7b1f7986b9ea5635d14071d3ba107325c0b1",
			"contractName": "ORMP",
			"address": "0xd1c04CD01Ca448698EE92F97589767552F8f66c8",
			"abi": [
				{
					"type": "constructor",
					"inputs": [
						{
							"name": "dao",
							"type": "address",
							"internalType": "address"
						}
					],
					"stateMutability": "nonpayable"
				},
				{
					"type": "function",
					"name": "LOCAL_CHAINID",
					"inputs": [],
					"outputs": [
						{
							"name": "chainId",
							"type": "uint256",
							"internalType": "uint256"
						}
					],
					"stateMutability": "view"
				},
				{
					"type": "function",
					"name": "changeSetter",
					"inputs": [
						{
							"name": "newSetter",
							"type": "address",
							"internalType": "address"
						}
					],
					"outputs": [],
					"stateMutability": "nonpayable"
				},
				{
					"type": "function",
					"name": "defaultUC",
					"inputs": [],
					"outputs": [
						{
							"name": "oracle",
							"type": "address",
							"internalType": "address"
						},
						{
							"name": "relayer",
							"type": "address",
							"internalType": "address"
						}
					],
					"stateMutability": "view"
				},
				{
					"type": "function",
					"name": "dones",
					"inputs": [
						{
							"name": "",
							"type": "bytes32",
							"internalType": "bytes32"
						}
					],
					"outputs": [
						{
							"name": "",
							"type": "bool",
							"internalType": "bool"
						}
					],
					"stateMutability": "view"
				},
				{
					"type": "function",
					"name": "fee",
					"inputs": [
						{
							"name": "toChainId",
							"type": "uint256",
							"internalType": "uint256"
						},
						{
							"name": "ua",
							"type": "address",
							"internalType": "address"
						},
						{
							"name": "gasLimit",
							"type": "uint256",
							"internalType": "uint256"
						},
						{
							"name": "encoded",
							"type": "bytes",
							"internalType": "bytes"
						},
						{
							"name": "",
							"type": "bytes",
							"internalType": "bytes"
						}
					],
					"outputs": [
						{
							"name": "",
							"type": "uint256",
							"internalType": "uint256"
						}
					],
					"stateMutability": "view"
				},
				{
					"type": "function",
					"name": "getAppConfig",
					"inputs": [
						{
							"name": "ua",
							"type": "address",
							"internalType": "address"
						}
					],
					"outputs": [
						{
							"name": "",
							"type": "tuple",
							"internalType": "struct UC",
							"components": [
								{
									"name": "oracle",
									"type": "address",
									"internalType": "address"
								},
								{
									"name": "relayer",
									"type": "address",
									"internalType": "address"
								}
							]
						}
					],
					"stateMutability": "view"
				},
				{
					"type": "function",
					"name": "imtBranch",
					"inputs": [],
					"outputs": [
						{
							"name": "",
							"type": "bytes32[32]",
							"internalType": "bytes32[32]"
						}
					],
					"stateMutability": "view"
				},
				{
					"type": "function",
					"name": "messageCount",
					"inputs": [],
					"outputs": [
						{
							"name": "",
							"type": "uint256",
							"internalType": "uint256"
						}
					],
					"stateMutability": "view"
				},
				{
					"type": "function",
					"name": "prove",
					"inputs": [],
					"outputs": [
						{
							"name": "",
							"type": "bytes32[32]",
							"internalType": "bytes32[32]"
						}
					],
					"stateMutability": "view"
				},
				{
					"type": "function",
					"name": "recv",
					"inputs": [
						{
							"name": "message",
							"type": "tuple",
							"internalType": "struct Message",
							"components": [
								{
									"name": "channel",
									"type": "address",
									"internalType": "address"
								},
								{
									"name": "index",
									"type": "uint256",
									"internalType": "uint256"
								},
								{
									"name": "fromChainId",
									"type": "uint256",
									"internalType": "uint256"
								},
								{
									"name": "from",
									"type": "address",
									"internalType": "address"
								},
								{
									"name": "toChainId",
									"type": "uint256",
									"internalType": "uint256"
								},
								{
									"name": "to",
									"type": "address",
									"internalType": "address"
								},
								{
									"name": "gasLimit",
									"type": "uint256",
									"internalType": "uint256"
								},
								{
									"name": "encoded",
									"type": "bytes",
									"internalType": "bytes"
								}
							]
						},
						{
							"name": "proof",
							"type": "bytes",
							"internalType": "bytes"
						}
					],
					"outputs": [
						{
							"name": "dispatchResult",
							"type": "bool",
							"internalType": "bool"
						}
					],
					"stateMutability": "payable"
				},
				{
					"type": "function",
					"name": "root",
					"inputs": [],
					"outputs": [
						{
							"name": "",
							"type": "bytes32",
							"internalType": "bytes32"
						}
					],
					"stateMutability": "view"
				},
				{
					"type": "function",
					"name": "send",
					"inputs": [
						{
							"name": "toChainId",
							"type": "uint256",
							"internalType": "uint256"
						},
						{
							"name": "to",
							"type": "address",
							"internalType": "address"
						},
						{
							"name": "gasLimit",
							"type": "uint256",
							"internalType": "uint256"
						},
						{
							"name": "encoded",
							"type": "bytes",
							"internalType": "bytes"
						},
						{
							"name": "refund",
							"type": "address",
							"internalType": "address"
						},
						{
							"name": "",
							"type": "bytes",
							"internalType": "bytes"
						}
					],
					"outputs": [
						{
							"name": "",
							"type": "bytes32",
							"internalType": "bytes32"
						}
					],
					"stateMutability": "payable"
				},
				{
					"type": "function",
					"name": "setAppConfig",
					"inputs": [
						{
							"name": "oracle",
							"type": "address",
							"internalType": "address"
						},
						{
							"name": "relayer",
							"type": "address",
							"internalType": "address"
						}
					],
					"outputs": [],
					"stateMutability": "nonpayable"
				},
				{
					"type": "function",
					"name": "setDefaultConfig",
					"inputs": [
						{
							"name": "oracle",
							"type": "address",
							"internalType": "address"
						},
						{
							"name": "relayer",
							"type": "address",
							"internalType": "address"
						}
					],
					"outputs": [],
					"stateMutability": "nonpayable"
				},
				{
					"type": "function",
					"name": "setter",
					"inputs": [],
					"outputs": [
						{
							"name": "",
							"type": "address",
							"internalType": "address"
						}
					],
					"stateMutability": "view"
				},
				{
					"type": "function",
					"name": "ucOf",
					"inputs": [
						{
							"name": "",
							"type": "address",
							"internalType": "address"
						}
					],
					"outputs": [
						{
							"name": "oracle",
							"type": "address",
							"internalType": "address"
						},
						{
							"name": "relayer",
							"type": "address",
							"internalType": "address"
						}
					],
					"stateMutability": "view"
				},
				{
					"type": "function",
					"name": "version",
					"inputs": [],
					"outputs": [
						{
							"name": "",
							"type": "string",
							"internalType": "string"
						}
					],
					"stateMutability": "pure"
				},
				{
					"type": "event",
					"name": "AppConfigUpdated",
					"inputs": [
						{
							"name": "ua",
							"type": "address",
							"indexed": true,
							"internalType": "address"
						},
						{
							"name": "oracle",
							"type": "address",
							"indexed": false,
							"internalType": "address"
						},
						{
							"name": "relayer",
							"type": "address",
							"indexed": false,
							"internalType": "address"
						}
					],
					"anonymous": false
				},
				{
					"type": "event",
					"name": "DefaultConfigUpdated",
					"inputs": [
						{
							"name": "oracle",
							"type": "address",
							"indexed": false,
							"internalType": "address"
						},
						{
							"name": "relayer",
							"type": "address",
							"indexed": false,
							"internalType": "address"
						}
					],
					"anonymous": false
				},
				{
					"type": "event",
					"name": "MessageAccepted",
					"inputs": [
						{
							"name": "msgHash",
							"type": "bytes32",
							"indexed": true,
							"internalType": "bytes32"
						},
						{
							"name": "root",
							"type": "bytes32",
							"indexed": false,
							"internalType": "bytes32"
						},
						{
							"name": "message",
							"type": "tuple",
							"indexed": false,
							"internalType": "struct Message",
							"components": [
								{
									"name": "channel",
									"type": "address",
									"internalType": "address"
								},
								{
									"name": "index",
									"type": "uint256",
									"internalType": "uint256"
								},
								{
									"name": "fromChainId",
									"type": "uint256",
									"internalType": "uint256"
								},
								{
									"name": "from",
									"type": "address",
									"internalType": "address"
								},
								{
									"name": "toChainId",
									"type": "uint256",
									"internalType": "uint256"
								},
								{
									"name": "to",
									"type": "address",
									"internalType": "address"
								},
								{
									"name": "gasLimit",
									"type": "uint256",
									"internalType": "uint256"
								},
								{
									"name": "encoded",
									"type": "bytes",
									"internalType": "bytes"
								}
							]
						}
					],
					"anonymous": false
				},
				{
					"type": "event",
					"name": "MessageAssigned",
					"inputs": [
						{
							"name": "msgHash",
							"type": "bytes32",
							"indexed": true,
							"internalType": "bytes32"
						},
						{
							"name": "oracle",
							"type": "address",
							"indexed": true,
							"internalType": "address"
						},
						{
							"name": "relayer",
							"type": "address",
							"indexed": true,
							"internalType": "address"
						},
						{
							"name": "oracleFee",
							"type": "uint256",
							"indexed": false,
							"internalType": "uint256"
						},
						{
							"name": "relayerFee",
							"type": "uint256",
							"indexed": false,
							"internalType": "uint256"
						}
					],
					"anonymous": false
				},
				{
					"type": "event",
					"name": "MessageDispatched",
					"inputs": [
						{
							"name": "msgHash",
							"type": "bytes32",
							"indexed": true,
							"internalType": "bytes32"
						},
						{
							"name": "dispatchResult",
							"type": "bool",
							"indexed": false,
							"internalType": "bool"
						}
					],
					"anonymous": false
				},
				{
					"type": "event",
					"name": "SetterChanged",
					"inputs": [
						{
							"name": "oldSetter",
							"type": "address",
							"indexed": true,
							"internalType": "address"
						},
						{
							"name": "newSetter",
							"type": "address",
							"indexed": true,
							"internalType": "address"
						}
					],
					"anonymous": false
				}
			],
			"solcInputHash": "d44030f6737127b445279518038bb5b2",
			"receipt": {
				"blockHash": "0x548383b0bfe9d45ec20d9a5f96e6e0c734cfbbe94b00bd71689a305908c78f2d",
				"blockNumber": 27518267,
				"contractAddress": null,
				"cumulativeGasUsed": "9205726",
				"from": "0xD70A2e6eACbdeDA77a5d4bBAE3bC70239A0e088f",
				"gasPrice": "100000000",
				"gasUsed": "8796848",
				"hash": "0x200988b95e564cbabd98bccbed046c8b56a5a7e9a446667e7b8db7030bae8999",
				"index": 2,
				"logs": [
					{
						"address": "0x701609866556Cb9A1FBD6B40201cD5899c9D2d56",
						"blockHash": "0x548383b0bfe9d45ec20d9a5f96e6e0c734cfbbe94b00bd71689a305908c78f2d",
						"blockNumber": 27518267,
						"data": "0x",
						"index": 0,
						"topics": [
							"0x6895c13664aa4f67288b25d7a21d7aaa34916e355fb9b6fae0a139a9085becb8",
							"0x00000000000000000000000004678247ac000d74768e5caa72a221a0a7c2ae44"
						],
						"transactionHash": "0x200988b95e564cbabd98bccbed046c8b56a5a7e9a446667e7b8db7030bae8999",
						"transactionIndex": 2
					},
					{
						"address": "0x04678247aC000d74768E5CAa72a221A0a7C2Ae44",
						"blockHash": "0x548383b0bfe9d45ec20d9a5f96e6e0c734cfbbe94b00bd71689a305908c78f2d",
						"blockNumber": 27518267,
						"data": "0x0000000000000000000000000000000000000000000000000000000000000001",
						"index": 1,
						"topics": [
							"0xa65fb05c5808f5f389d72edeaf719ce38f4cc55c1f69ca3cbfb31c21501caa07",
							"0x5f88d8cd2474522a0eb294f59e9a7b1f7986b9ea5635d14071d3ba107325c0b1"
						],
						"transactionHash": "0x200988b95e564cbabd98bccbed046c8b56a5a7e9a446667e7b8db7030bae8999",
						"transactionIndex": 2
					},
					{
						"address": "0x04678247aC000d74768E5CAa72a221A0a7C2Ae44",
						"blockHash": "0x548383b0bfe9d45ec20d9a5f96e6e0c734cfbbe94b00bd71689a305908c78f2d",
						"blockNumber": 27518267,
						"data": "0x",
						"index": 2,
						"topics": [
							"0x4383d976757d67ca920616be0b6430a681ea9d3dcce8d6d61d4603ca4a9bff63",
							"0x5f88d8cd2474522a0eb294f59e9a7b1f7986b9ea5635d14071d3ba107325c0b1"
						],
						"transactionHash": "0x200988b95e564cbabd98bccbed046c8b56a5a7e9a446667e7b8db7030bae8999",
						"transactionIndex": 2
					}
				],
				"logsBloom": "0x000000000000100000000000000a0000000000000000000000000000000000000000000000000000000000000000000000000000020000000000000000000000000000000000200000000100000000000000000000000000040000000000000000000000000000000000000000000000000000000800000000000000040000000000000000400000000000000000000000000000000000000000000000000000000000800000000000000000000000000200000080000000000000000004000000000000000000000080000000000008000000000000100000000008000000000000000000000008000000000000000200000000000000000000000008000000",
				"status": 1,
				"to": "0x04678247aC000d74768E5CAa72a221A0a7C2Ae44"
			},
			"metadata": "{\"compiler\":{\"version\":\"0.8.17+commit.8df45f5f\"},\"language\":\"Solidity\",\"output\":{\"abi\":[{\"inputs\":[{\"internalType\":\"address\",\"name\":\"dao\",\"type\":\"address\"}],\"stateMutability\":\"nonpayable\",\"type\":\"constructor\"},{\"inputs\":[{\"internalType\":\"address\",\"name\":\"ua\",\"type\":\"address\",\"indexed\":true},{\"internalType\":\"address\",\"name\":\"oracle\",\"type\":\"address\",\"indexed\":false},{\"internalType\":\"address\",\"name\":\"relayer\",\"type\":\"address\",\"indexed\":false}],\"type\":\"event\",\"name\":\"AppConfigUpdated\",\"anonymous\":false},{\"inputs\":[{\"internalType\":\"address\",\"name\":\"oracle\",\"type\":\"address\",\"indexed\":false},{\"internalType\":\"address\",\"name\":\"relayer\",\"type\":\"address\",\"indexed\":false}],\"type\":\"event\",\"name\":\"DefaultConfigUpdated\",\"anonymous\":false},{\"inputs\":[{\"internalType\":\"bytes32\",\"name\":\"msgHash\",\"type\":\"bytes32\",\"indexed\":true},{\"internalType\":\"bytes32\",\"name\":\"root\",\"type\":\"bytes32\",\"indexed\":false},{\"internalType\":\"struct Message\",\"name\":\"message\",\"type\":\"tuple\",\"components\":[{\"internalType\":\"address\",\"name\":\"channel\",\"type\":\"address\"},{\"internalType\":\"uint256\",\"name\":\"index\",\"type\":\"uint256\"},{\"internalType\":\"uint256\",\"name\":\"fromChainId\",\"type\":\"uint256\"},{\"internalType\":\"address\",\"name\":\"from\",\"type\":\"address\"},{\"internalType\":\"uint256\",\"name\":\"toChainId\",\"type\":\"uint256\"},{\"internalType\":\"address\",\"name\":\"to\",\"type\":\"address\"},{\"internalType\":\"uint256\",\"name\":\"gasLimit\",\"type\":\"uint256\"},{\"internalType\":\"bytes\",\"name\":\"encoded\",\"type\":\"bytes\"}],\"indexed\":false}],\"type\":\"event\",\"name\":\"MessageAccepted\",\"anonymous\":false},{\"inputs\":[{\"internalType\":\"bytes32\",\"name\":\"msgHash\",\"type\":\"bytes32\",\"indexed\":true},{\"internalType\":\"address\",\"name\":\"oracle\",\"type\":\"address\",\"indexed\":true},{\"internalType\":\"address\",\"name\":\"relayer\",\"type\":\"address\",\"indexed\":true},{\"internalType\":\"uint256\",\"name\":\"oracleFee\",\"type\":\"uint256\",\"indexed\":false},{\"internalType\":\"uint256\",\"name\":\"relayerFee\",\"type\":\"uint256\",\"indexed\":false}],\"type\":\"event\",\"name\":\"MessageAssigned\",\"anonymous\":false},{\"inputs\":[{\"internalType\":\"bytes32\",\"name\":\"msgHash\",\"type\":\"bytes32\",\"indexed\":true},{\"internalType\":\"bool\",\"name\":\"dispatchResult\",\"type\":\"bool\",\"indexed\":false}],\"type\":\"event\",\"name\":\"MessageDispatched\",\"anonymous\":false},{\"inputs\":[{\"internalType\":\"address\",\"name\":\"oldSetter\",\"type\":\"address\",\"indexed\":true},{\"internalType\":\"address\",\"name\":\"newSetter\",\"type\":\"address\",\"indexed\":true}],\"type\":\"event\",\"name\":\"SetterChanged\",\"anonymous\":false},{\"inputs\":[],\"stateMutability\":\"view\",\"type\":\"function\",\"name\":\"LOCAL_CHAINID\",\"outputs\":[{\"internalType\":\"uint256\",\"name\":\"chainId\",\"type\":\"uint256\"}]},{\"inputs\":[{\"internalType\":\"address\",\"name\":\"newSetter\",\"type\":\"address\"}],\"stateMutability\":\"nonpayable\",\"type\":\"function\",\"name\":\"changeSetter\"},{\"inputs\":[],\"stateMutability\":\"view\",\"type\":\"function\",\"name\":\"defaultUC\",\"outputs\":[{\"internalType\":\"address\",\"name\":\"oracle\",\"type\":\"address\"},{\"internalType\":\"address\",\"name\":\"relayer\",\"type\":\"address\"}]},{\"inputs\":[{\"internalType\":\"bytes32\",\"name\":\"\",\"type\":\"bytes32\"}],\"stateMutability\":\"view\",\"type\":\"function\",\"name\":\"dones\",\"outputs\":[{\"internalType\":\"bool\",\"name\":\"\",\"type\":\"bool\"}]},{\"inputs\":[{\"internalType\":\"uint256\",\"name\":\"toChainId\",\"type\":\"uint256\"},{\"internalType\":\"address\",\"name\":\"ua\",\"type\":\"address\"},{\"internalType\":\"uint256\",\"name\":\"gasLimit\",\"type\":\"uint256\"},{\"internalType\":\"bytes\",\"name\":\"encoded\",\"type\":\"bytes\"},{\"internalType\":\"bytes\",\"name\":\"\",\"type\":\"bytes\"}],\"stateMutability\":\"view\",\"type\":\"function\",\"name\":\"fee\",\"outputs\":[{\"internalType\":\"uint256\",\"name\":\"\",\"type\":\"uint256\"}]},{\"inputs\":[{\"internalType\":\"address\",\"name\":\"ua\",\"type\":\"address\"}],\"stateMutability\":\"view\",\"type\":\"function\",\"name\":\"getAppConfig\",\"outputs\":[{\"internalType\":\"struct UC\",\"name\":\"\",\"type\":\"tuple\",\"components\":[{\"internalType\":\"address\",\"name\":\"oracle\",\"type\":\"address\"},{\"internalType\":\"address\",\"name\":\"relayer\",\"type\":\"address\"}]}]},{\"inputs\":[],\"stateMutability\":\"view\",\"type\":\"function\",\"name\":\"imtBranch\",\"outputs\":[{\"internalType\":\"bytes32[32]\",\"name\":\"\",\"type\":\"bytes32[32]\"}]},{\"inputs\":[],\"stateMutability\":\"view\",\"type\":\"function\",\"name\":\"messageCount\",\"outputs\":[{\"internalType\":\"uint256\",\"name\":\"\",\"type\":\"uint256\"}]},{\"inputs\":[],\"stateMutability\":\"view\",\"type\":\"function\",\"name\":\"prove\",\"outputs\":[{\"internalType\":\"bytes32[32]\",\"name\":\"\",\"type\":\"bytes32[32]\"}]},{\"inputs\":[{\"internalType\":\"struct Message\",\"name\":\"message\",\"type\":\"tuple\",\"components\":[{\"internalType\":\"address\",\"name\":\"channel\",\"type\":\"address\"},{\"internalType\":\"uint256\",\"name\":\"index\",\"type\":\"uint256\"},{\"internalType\":\"uint256\",\"name\":\"fromChainId\",\"type\":\"uint256\"},{\"internalType\":\"address\",\"name\":\"from\",\"type\":\"address\"},{\"internalType\":\"uint256\",\"name\":\"toChainId\",\"type\":\"uint256\"},{\"internalType\":\"address\",\"name\":\"to\",\"type\":\"address\"},{\"internalType\":\"uint256\",\"name\":\"gasLimit\",\"type\":\"uint256\"},{\"internalType\":\"bytes\",\"name\":\"encoded\",\"type\":\"bytes\"}]},{\"internalType\":\"bytes\",\"name\":\"proof\",\"type\":\"bytes\"}],\"stateMutability\":\"payable\",\"type\":\"function\",\"name\":\"recv\",\"outputs\":[{\"internalType\":\"bool\",\"name\":\"dispatchResult\",\"type\":\"bool\"}]},{\"inputs\":[],\"stateMutability\":\"view\",\"type\":\"function\",\"name\":\"root\",\"outputs\":[{\"internalType\":\"bytes32\",\"name\":\"\",\"type\":\"bytes32\"}]},{\"inputs\":[{\"internalType\":\"uint256\",\"name\":\"toChainId\",\"type\":\"uint256\"},{\"internalType\":\"address\",\"name\":\"to\",\"type\":\"address\"},{\"internalType\":\"uint256\",\"name\":\"gasLimit\",\"type\":\"uint256\"},{\"internalType\":\"bytes\",\"name\":\"encoded\",\"type\":\"bytes\"},{\"internalType\":\"address\",\"name\":\"refund\",\"type\":\"address\"},{\"internalType\":\"bytes\",\"name\":\"\",\"type\":\"bytes\"}],\"stateMutability\":\"payable\",\"type\":\"function\",\"name\":\"send\",\"outputs\":[{\"internalType\":\"bytes32\",\"name\":\"\",\"type\":\"bytes32\"}]},{\"inputs\":[{\"internalType\":\"address\",\"name\":\"oracle\",\"type\":\"address\"},{\"internalType\":\"address\",\"name\":\"relayer\",\"type\":\"address\"}],\"stateMutability\":\"nonpayable\",\"type\":\"function\",\"name\":\"setAppConfig\"},{\"inputs\":[{\"internalType\":\"address\",\"name\":\"oracle\",\"type\":\"address\"},{\"internalType\":\"address\",\"name\":\"relayer\",\"type\":\"address\"}],\"stateMutability\":\"nonpayable\",\"type\":\"function\",\"name\":\"setDefaultConfig\"},{\"inputs\":[],\"stateMutability\":\"view\",\"type\":\"function\",\"name\":\"setter\",\"outputs\":[{\"internalType\":\"address\",\"name\":\"\",\"type\":\"address\"}]},{\"inputs\":[{\"internalType\":\"address\",\"name\":\"\",\"type\":\"address\"}],\"stateMutability\":\"view\",\"type\":\"function\",\"name\":\"ucOf\",\"outputs\":[{\"internalType\":\"address\",\"name\":\"oracle\",\"type\":\"address\"},{\"internalType\":\"address\",\"name\":\"relayer\",\"type\":\"address\"}]},{\"inputs\":[],\"stateMutability\":\"pure\",\"type\":\"function\",\"name\":\"version\",\"outputs\":[{\"internalType\":\"string\",\"name\":\"\",\"type\":\"string\"}]}],\"devdoc\":{\"kind\":\"dev\",\"methods\":{\"LOCAL_CHAINID()\":{\"details\":\"Fetch local chain id.\",\"returns\":{\"chainId\":\"Local chain id.\"}},\"changeSetter(address)\":{\"details\":\"Change setter.\",\"params\":{\"newSetter\":\"New setter.\"}},\"fee(uint256,address,uint256,bytes,bytes)\":{\"params\":{\"encoded\":\"The calldata which encoded by ABI Encoding.\",\"gasLimit\":\"Gas limit for destination user application used.\"}},\"getAppConfig(address)\":{\"details\":\"Fetch user application config.\",\"params\":{\"ua\":\"User application contract address.\"},\"returns\":{\"_0\":\"user application config.\"}},\"imtBranch()\":{\"details\":\"Fetch the branch of incremental merkle tree.\"},\"messageCount()\":{\"details\":\"Fetch the messages count of incremental merkle tree.\"},\"prove()\":{\"details\":\"Fetch the latest message proof\"},\"recv((address,uint256,uint256,address,uint256,address,uint256,bytes),bytes)\":{\"details\":\"Recv verified message from Channel and dispatch to destination user application address.\",\"params\":{\"message\":\"Verified receive message info.\",\"proof\":\"Message proof of this message.\"},\"returns\":{\"dispatchResult\":\"Result of the message dispatch.\"}},\"send(uint256,address,uint256,bytes,address,bytes)\":{\"details\":\"Send a cross-chain message over the endpoint.\",\"params\":{\"encoded\":\"The calldata which encoded by ABI Encoding.\",\"gasLimit\":\"Gas limit for destination user application used.\",\"refund\":\"Return extra fee to refund address.\",\"to\":\"User application contract address which receive the message.\",\"toChainId\":\"The Message destination chain id.\"}},\"setAppConfig(address,address)\":{\"params\":{\"oracle\":\"Oracle which user application.\",\"relayer\":\"Relayer which user application choose.\"}},\"setDefaultConfig(address,address)\":{\"details\":\"Set default user config for all user application.\",\"params\":{\"oracle\":\"Default oracle.\",\"relayer\":\"Default relayer.\"}}},\"version\":1},\"userdoc\":{\"kind\":\"user\",\"methods\":{\"changeSetter(address)\":{\"notice\":\"Only current setter could call.\"},\"getAppConfig(address)\":{\"notice\":\"If user application has not configured, then the default user config is used.\"},\"recv((address,uint256,uint256,address,uint256,address,uint256,bytes),bytes)\":{\"notice\":\"Only channel could call this function.\"},\"send(uint256,address,uint256,bytes,address,bytes)\":{\"notice\":\"follow https://eips.ethereum.org/EIPS/eip-5750\"},\"setAppConfig(address,address)\":{\"notice\":\"Set user application config.\"},\"setDefaultConfig(address,address)\":{\"notice\":\"Only setter could call.\"}},\"version\":1}},\"settings\":{\"remappings\":[\"@darwinia-msgport/=lib/darwinia-msgport/\",\"@openzeppelin/contracts/=lib/openzeppelin-contracts/contracts/\",\"@openzeppelin/contracts@4.9.2/=lib/openzeppelin-contracts/contracts/\",\"@sphinx-labs/contracts/=lib/sphinx/packages/contracts/contracts/foundry/\",\"ORMP/=lib/ORMP/\",\"subapi/=lib/subapi/\"],\"optimizer\":{\"enabled\":true,\"runs\":999999},\"metadata\":{\"bytecodeHash\":\"ipfs\"},\"compilationTarget\":{\"lib/ORMP/src/ORMP.sol\":\"ORMP\"},\"evmVersion\":\"london\",\"libraries\":{}},\"sources\":{\"lib/ORMP/src/Channel.sol\":{\"keccak256\":\"0x286a6af99428230c2f67181181d52d63a647ee2d896c5855300eda37c52b2dbf\",\"urls\":[\"bzz-raw://84326f7649e0c727e1e5836c1f50e603fdc4811b0fd94b2ee5c682e10700f9ce\",\"dweb:/ipfs/Qmb32nTAUsyStw3dqynijZEaA9UC4ig6xoPBjhvdQEVDdn\"],\"license\":\"GPL-3.0\"},\"lib/ORMP/src/Common.sol\":{\"keccak256\":\"0x832de8c9469de78d3133d42716444007d3fa2aa2fe88a6fcbb81d119d8ffbd1d\",\"urls\":[\"bzz-raw://a0447d4aaebe147c97df506a8ae7801e13b3af6cc0c9ee31bc896a7b40e463ab\",\"dweb:/ipfs/QmTn2bjyJMsj9uV613Usy3ueyjFZ7Ugfo4ovR8UkPpMhX4\"],\"license\":\"GPL-3.0\"},\"lib/ORMP/src/ORMP.sol\":{\"keccak256\":\"0x952e7ad4b58f70d4e035f24c92ed4edecd1f89fd6da8bbfc05f627cf6ac16d3d\",\"urls\":[\"bzz-raw://0fdfb9d153015dd2f089b099cff5737ea3118a3aa3a3d72715d8ea1f0da2804f\",\"dweb:/ipfs/QmPdy8ia167eUG7CZkREZGqzDoxLs4h1xqUoLaK2UGxM6C\"],\"license\":\"GPL-3.0\"},\"lib/ORMP/src/UserConfig.sol\":{\"keccak256\":\"0x9d2e059b8e05cebe34733475fbea89e0f103fc8f7d909aa79186ed65837da6e0\",\"urls\":[\"bzz-raw://d4e465d388fe332f755e426d12018c09d727782f195d8e734776a2bff74cab38\",\"dweb:/ipfs/QmQp7wkLHMvYL5841uCDS1zhifsaJg4r2Wxty91b19bEcK\"],\"license\":\"GPL-3.0\"},\"lib/ORMP/src/imt/IncrementalMerkleTree.sol\":{\"keccak256\":\"0x535228355f8bd4339f42aa3dfe3cebcbdaad7a92704c4e3eeb0982dce8acf246\",\"urls\":[\"bzz-raw://9830ca0eb4837abdaaba548ea20fe14c67e23a392e09aaaa57b4032f9b81c49f\",\"dweb:/ipfs/QmYDw8c8zgLhxhxt3heCGJu7rYSgmEwKFjMfWrbJNcyPWj\"],\"license\":\"MIT OR Apache-2.0\"},\"lib/ORMP/src/interfaces/IOracle.sol\":{\"keccak256\":\"0xb1299974c86446972355bebb7c95697139c67f1731b1c1fa59a07c8cc575f527\",\"urls\":[\"bzz-raw://c96ee956d4731fb7bc0aa67f2783afa6ba2179fc1ef4419f2f70f727c9d7a7f1\",\"dweb:/ipfs/QmbqaqnRRHb2k25bzsvmapugHaTu1gDESGxk7MU5vgrPBo\"],\"license\":\"GPL-3.0\"},\"lib/ORMP/src/interfaces/IRelayer.sol\":{\"keccak256\":\"0xb2a4fc032746f072405210a118298000cda8634ddf4bc02b33f976be4eaf7209\",\"urls\":[\"bzz-raw://5627a3007ff8748f5be505de61d7cca46a2466ece354093f2958f3e2daab5445\",\"dweb:/ipfs/Qmb5Gefdqo5ruQX1id6hgpVDKiM9Vyy6wLurxDtC5377Lt\"],\"license\":\"GPL-3.0\"},\"lib/ORMP/src/interfaces/IVerifier.sol\":{\"keccak256\":\"0x60ad4dbeb54c04aa1c389a2dab7c9bca361eb2df245b3a29f0851be697876099\",\"urls\":[\"bzz-raw://57f1c8949abccaef95ab207257bfcf7b12f19756e0c90184ad39a8bdb2dc559a\",\"dweb:/ipfs/Qmd1LBiTn3nzfzhGHmdM2YdbWLUkca6wZfPBo1rWqPcoau\"],\"license\":\"GPL-3.0\"},\"lib/ORMP/src/security/ExcessivelySafeCall.sol\":{\"keccak256\":\"0x586361e0b312522e1b4dfbbd7a4965fd0b36642660c16cba3a733ee66f388508\",\"urls\":[\"bzz-raw://b0d67666dc6b468c91589b8d00f3f519c0904e40313631e08102058135681d68\",\"dweb:/ipfs/QmQHgut1NwT3Dr68fLtJzGwcTmPU9CxJZYF7euDfz2VGNL\"],\"license\":\"MIT OR Apache-2.0\"},\"lib/ORMP/src/security/ReentrancyGuard.sol\":{\"keccak256\":\"0xbb376a44d276cf677debb795e823759f563a26bd3805e413f7b12ee38e3e13be\",\"urls\":[\"bzz-raw://0eb116fec82b4b1fd0a9ebd259b375b06f5aaea104426c9219fda9d3abb8e311\",\"dweb:/ipfs/QmfMH7vZHdvY6qSb2hxRvzuSMrmXq17FzBx8PJzn4qFJZQ\"],\"license\":\"MIT\"}},\"version\":1}",
			"args": [
				"0x701609866556Cb9A1FBD6B40201cD5899c9D2d56"
			],
			"bytecode": "0x60a0604052600160008190558055306080523480156200001e57600080fd5b50604051620025ef380380620025ef83398101604081905262000041916200008b565b600280546001600160a01b0319166001600160a01b03929092169190911790557f27ae5ba08d7291c96c8cbddcc148bf48a6d68c7974b94356f53754ef6171d757600655620000bd565b6000602082840312156200009e57600080fd5b81516001600160a01b0381168114620000b657600080fd5b9392505050565b608051612516620000d96000396000610c6201526125166000f3fe60806040526004361061010e5760003560e01c80634ea59979116100a55780638b22909111610074578063ebf0c71711610059578063ebf0c717146103bb578063ee6ad167146103d1578063f67c907c146103f457600080fd5b80638b22909114610388578063b0ff5e72146103a857600080fd5b80634ea59979146102f457806352720be41461031457806354fd4d50146103295780635e26462c1461037557600080fd5b80633f3108f7116100e15780633f3108f7146101f8578063413422491461024a57806345152ae31461029e5780634872824f146102c057600080fd5b80630f988a73146101135780631c2b2da6146101355780633c50e178146101685780633dbcc8d1146101e3575b600080fd5b34801561011f57600080fd5b5061013361012e366004611be2565b610424565b005b34801561014157600080fd5b50610155610150366004611c4d565b610521565b6040519081526020015b60405180910390f35b34801561017457600080fd5b506101b6610183366004611be2565b6005602052600090815260409020805460019091015473ffffffffffffffffffffffffffffffffffffffff918216911682565b6040805173ffffffffffffffffffffffffffffffffffffffff93841681529290911660208301520161015f565b3480156101ef57600080fd5b50602754610155565b34801561020457600080fd5b506002546102259073ffffffffffffffffffffffffffffffffffffffff1681565b60405173ffffffffffffffffffffffffffffffffffffffff909116815260200161015f565b34801561025657600080fd5b5061026a610265366004611be2565b610672565b60408051825173ffffffffffffffffffffffffffffffffffffffff908116825260209384015116928101929092520161015f565b3480156102aa57600080fd5b506102b3610729565b60405161015f9190611ce1565b3480156102cc57600080fd5b506003546004546101b69173ffffffffffffffffffffffffffffffffffffffff908116911682565b34801561030057600080fd5b5061013361030f366004611d17565b610740565b34801561032057600080fd5b506102b3610863565b34801561033557600080fd5b50604080518082018252600581527f322e302e300000000000000000000000000000000000000000000000000000006020820152905161015f9190611db8565b610155610383366004611dcb565b61089f565b34801561039457600080fd5b506101336103a3366004611d17565b610948565b3480156103b457600080fd5b5046610155565b3480156103c757600080fd5b5061015560065481565b6103e46103df366004611e72565b610a07565b604051901515815260200161015f565b34801561040057600080fd5b506103e461040f366004611ee4565b60286020526000908152604090205460ff1681565b60025473ffffffffffffffffffffffffffffffffffffffff1633146104aa576040517f08c379a000000000000000000000000000000000000000000000000000000000815260206004820152600560248201527f216175746800000000000000000000000000000000000000000000000000000060448201526064015b60405180910390fd5b6002805473ffffffffffffffffffffffffffffffffffffffff8381167fffffffffffffffffffffffff0000000000000000000000000000000000000000831681179093556040519116919082907fb0999394a8202229d1e14c6290230863233f18473f7504b3a7b1a27f9b014c9d90600090a35050565b60008061052d88610672565b90506000816020015173ffffffffffffffffffffffffffffffffffffffff166353179a7c8b8b8b8b8b6040518663ffffffff1660e01b8152600401610576959493929190611f46565b602060405180830381865afa158015610593573d6000803e3d6000fd5b505050506040513d601f19601f820116820180604052508101906105b79190611f82565b82516040517fa1dbf432000000000000000000000000000000000000000000000000000000008152600481018d905273ffffffffffffffffffffffffffffffffffffffff8c811660248301529293506000929091169063a1dbf43290604401602060405180830381865afa158015610633573d6000803e3d6000fd5b505050506040513d601f19601f820116820180604052508101906106579190611f82565b90506106638183611fca565b9b9a5050505050505050505050565b6040805180820182526000808252602080830182905273ffffffffffffffffffffffffffffffffffffffff858116835260058252918490208451808601909552805483168552600101549091169083018190529091906106eb5760045473ffffffffffffffffffffffffffffffffffffffff1660208201525b805173ffffffffffffffffffffffffffffffffffffffff166107235760035473ffffffffffffffffffffffffffffffffffffffff1681525b92915050565b610731611b9a565b61073b6007610ae4565b905090565b60025473ffffffffffffffffffffffffffffffffffffffff1633146107c1576040517f08c379a000000000000000000000000000000000000000000000000000000000815260206004820152600560248201527f216175746800000000000000000000000000000000000000000000000000000060448201526064016104a1565b60408051808201825273ffffffffffffffffffffffffffffffffffffffff8481168083529084166020928301819052600380547fffffffffffffffffffffffff0000000000000000000000000000000000000000908116841790915560048054909116821790558351918252918101919091527f504f152883e6158786ddfcce63f4d4d95ce8e404b1f6e6365a06f63849b7cb95910160405180910390a15050565b61086b611b9a565b604080516104008101918290529060079060209082845b815481526020019060010190808311610882575050505050905090565b600060016000541461090d576040517f08c379a000000000000000000000000000000000000000000000000000000000815260206004820152601060248201527f2173656e642d7265656e7472616e63790000000000000000000000000000000060448201526064016104a1565b600260009081553390610924828c8c8c8c8c610bda565b90506109358287838e8d8d8d610d9d565b60016000559a9950505050505050505050565b60408051808201825273ffffffffffffffffffffffffffffffffffffffff848116808352848216602080850182815233600081815260058452889020965187549087167fffffffffffffffffffffffff000000000000000000000000000000000000000091821617885591516001909701805497909616969091169590951790935584519182529181019190915290917f86b44d92ad94c11b25d0f08d0f55e8e235b4d165e62e541c02e8ee19f551c97b910160405180910390a25050565b60006001805414610a74576040517f08c379a000000000000000000000000000000000000000000000000000000000815260206004820152601060248201527f21726563762d7265656e7472616e63790000000000000000000000000000000060448201526064016104a1565b60026001556000610a86858585610e8d565b9050610a9a610a94866120e1565b82611155565b9150807f62b1dc20fd6f1518626da5b6f9897e8cd4ebadbad071bb66dc96a37c970087a883604051610ad0911515815260200190565b60405180910390a250600180559392505050565b610aec611b9a565b600060018360200154610aff9190612183565b6040805161040081019182905291925060009190859060209082845b815481526020019060010190808311610b1b57505050505090506000610b3f6111df565b905060005b6020811015610bd157600184821c811690819003610b8f57838260208110610b6e57610b6e612196565b6020020151868360208110610b8557610b85612196565b6020020152610bbe565b828260208110610ba157610ba1612196565b6020020151868360208110610bb857610bb8612196565b60200201525b5080610bc9816121c5565b915050610b44565b50505050919050565b6000468603610c45576040517f08c379a000000000000000000000000000000000000000000000000000000000815260206004820152600c60248201527f2163726f73732d636861696e000000000000000000000000000000000000000060448201526064016104a1565b6000610c5060275490565b905060006040518061010001604052807f000000000000000000000000000000000000000000000000000000000000000073ffffffffffffffffffffffffffffffffffffffff168152602001838152602001610ca94690565b81526020018a73ffffffffffffffffffffffffffffffffffffffff1681526020018981526020018873ffffffffffffffffffffffffffffffffffffffff16815260200187815260200186868080601f016020809104026020016040519081016040528093929190818152602001838380828437600092018290525093909452509293509150610d399050826116a0565b9050610d466007826116d0565b610d506007611814565b600681905560405182917f327110434bca326d1f70236295f59c8b472ebc683a6549ca9254697564fec4a591610d889190869061227e565b60405180910390a29998505050505050505050565b6000610da888610672565b90506000610dbe8260200151878b888888611827565b90506000610dd18360000151888c6118c3565b9050826020015173ffffffffffffffffffffffffffffffffffffffff16836000015173ffffffffffffffffffffffffffffffffffffffff16897ff7e134438bf3052b95eaa2f90f4177932297d80eb36186624c2f366cb8944ecf8486604051610e44929190918252602082015260400190565b60405180910390a4610e568183611fca565b341115610e81576000610e698284611fca565b610e739034612183565b9050610e7f8a82611973565b505b50505050505050505050565b600080610ea361026560c0870160a08801611be2565b602081015190915073ffffffffffffffffffffffffffffffffffffffff163314610f29576040517f08c379a000000000000000000000000000000000000000000000000000000000815260206004820152600560248201527f216175746800000000000000000000000000000000000000000000000000000060448201526064016104a1565b6000610f3c610f37876120e1565b6116a0565b9050816000015173ffffffffffffffffffffffffffffffffffffffff1663094f87c587604001358388886040518563ffffffff1660e01b8152600401610f859493929190612297565b602060405180830381865afa158015610fa2573d6000803e3d6000fd5b505050506040513d601f19601f82011682018060405250810190610fc691906122c1565b61102c576040517f08c379a000000000000000000000000000000000000000000000000000000000815260206004820152600660248201527f2170726f6f66000000000000000000000000000000000000000000000000000060448201526064016104a1565b60808601354614611099576040517f08c379a000000000000000000000000000000000000000000000000000000000815260206004820152600a60248201527f21746f436861696e49640000000000000000000000000000000000000000000060448201526064016104a1565b60008181526028602052604090205460ff1615611114576040517f08c379a00000000000000000000000000000000000000000000000000000000081526004016104a19060208082526004908201527f646f6e6500000000000000000000000000000000000000000000000000000000604082015260600190565b600081815260286020526040902080547fffffffffffffffffffffffffffffffffffffffffffffffffffffffffffffff001660011790559150509392505050565b60006111d78360c001513460008660e00151868860400151896060015160405160200161118594939291906122e3565b604080517fffffffffffffffffffffffffffffffffffffffffffffffffffffffffffffffe081840301815291905260a088015173ffffffffffffffffffffffffffffffffffffffff1693929190611a3d565b509392505050565b6111e7611b9a565b600081527fad3228b676f7d3cd4284a5443f17f1962b36e491b30a40b2405849e597ba5fb560208201527fb4c11951957c6f8f642c4af61cd6b24640fec6dc7fc607ee8206a99e92410d3060408201527f21ddb9a356815c3fac1026b6dec5df3124afbadb485c9ba5a3e3398a04b7ba8560608201527fe58769b32a1beaf1ea27375a44095a0d1fb664ce2dd358e7fcbfb78c26a1934460808201527f0eb01ebfc9ed27500cd4dfc979272d1f0913cc9f66540d7e8005811109e1cf2d60a08201527f887c22bd8750d34016ac3c66b5ff102dacdd73f6b014e710b51e8022af9a196860c08201527fffd70157e48063fc33c97a050f7f640233bf646cc98d9524c6b92bcf3ab56f8360e08201527f9867cc5f7f196b93bae1e27e6320742445d290f2263827498b54fec539f756af6101008201527fcefad4e508c098b9a7e1d8feb19955fb02ba9675585078710969d3440f5054e06101208201527ff9dc3e7fe016e050eff260334f18a5d4fe391d82092319f5964f2e2eb7c1c3a56101408201527ff8b13a49e282f609c317a833fb8d976d11517c571d1221a265d25af778ecf8926101608201527f3490c6ceeb450aecdc82e28293031d10c7d73bf85e57bf041a97360aa2c5d99c6101808201527fc1df82d9c4b87413eae2ef048f94b4d3554cea73d92b0f7af96e0271c691e2bb6101a08201527f5c67add7c6caf302256adedf7ab114da0acfe870d449a3a489f781d659e8becc6101c08201527fda7bce9f4e8618b6bd2f4132ce798cdc7a60e7e1460a7299e3c6342a579626d26101e08201527f2733e50f526ec2fa19a22b31e8ed50f23cd1fdf94c9154ed3a7609a2f1ff981f6102008201527fe1d3b5c807b281e4683cc6d6315cf95b9ade8641defcb32372f1c126e398ef7a6102208201527f5a2dce0a8a7f68bb74560f8f71837c2c2ebbcbf7fffb42ae1896f13f7c7479a06102408201527fb46a28b6f55540f89444f63de0378e3d121be09e06cc9ded1c20e65876d36aa06102608201527fc65e9645644786b620e2dd2ad648ddfcbf4a7e5b1a3a4ecfe7f64667a3f0b7e26102808201527ff4418588ed35a2458cffeb39b93d26f18d2ab13bdce6aee58e7b99359ec2dfd96102a08201527f5a9c16dc00d6ef18b7933a6f8dc65ccb55667138776f7dea101070dc8796e3776102c08201527f4df84f40ae0c8229d0d6069e5c8f39a7c299677a09d367fc7b05e3bc380ee6526102e08201527fcdc72595f74c7b1043d0e1ffbab734648c838dfb0527d971b602bc216c9619ef6103008201527f0abf5ac974a1ed57f4050aa510dd9c74f508277b39d7973bb2dfccc5eeb0618d6103208201527fb8cd74046ff337f0a7bf2c8e03e10f642c1886798d71806ab1e888d9e5ee87d06103408201527f838c5655cb21c6cb83313b5a631175dff4963772cce9108188b34ac87c81c41e6103608201527f662ee4dd2dd7b2bc707961b1e646c4047669dcb6584f0d8d770daf5d7e7deb2e6103808201527f388ab20e2573d171a88108e79d820e98f26c0b84aa8b2f4aa4968dbb818ea3226103a08201527f93237c50ba75ee485f4c22adf2f741400bdf8d6a9cc7df7ecae576221665d7356103c08201527f8448818bb4ae4562849e949e17ac16e0be16688e156b5cf15e098c627c0056a96103e082015290565b6000816040516020016116b39190612337565b604051602081830303815290604052805190602001209050919050565b60016116de6020600261246a565b6116e89190612183565b826020015410611754576040517f08c379a000000000000000000000000000000000000000000000000000000000815260206004820152601060248201527f6d65726b6c6520747265652066756c6c0000000000000000000000000000000060448201526064016104a1565b60018260200160008282546117699190611fca565b9091555050602082015460005b602081101561180657816001166001036117a5578284826020811061179d5761179d612196565b015550505050565b8381602081106117b7576117b7612196565b015460408051602081019290925281018490526060016040516020818303038152906040528051906020012092506002826117f29190612476565b9150806117fe816121c5565b915050611776565b5061180f6124b1565b505050565b6000610723826118226111df565b611ac8565b6000808773ffffffffffffffffffffffffffffffffffffffff166353179a7c88888888886040518663ffffffff1660e01b815260040161186b959493929190611f46565b602060405180830381865afa158015611888573d6000803e3d6000fd5b505050506040513d601f19601f820116820180604052508101906118ac9190611f82565b90506118b88882611973565b979650505050505050565b6040517fa1dbf4320000000000000000000000000000000000000000000000000000000081526004810183905273ffffffffffffffffffffffffffffffffffffffff8281166024830152600091829186169063a1dbf43290604401602060405180830381865afa15801561193b573d6000803e3d6000fd5b505050506040513d601f19601f8201168201806040525081019061195f9190611f82565b905061196b8582611973565b949350505050565b60008273ffffffffffffffffffffffffffffffffffffffff168260405160006040518083038185875af1925050503d80600081146119cd576040519150601f19603f3d011682016040523d82523d6000602084013e6119d2565b606091505b505090508061180f576040517f08c379a000000000000000000000000000000000000000000000000000000000815260206004820152600560248201527f2173656e6400000000000000000000000000000000000000000000000000000060448201526064016104a1565b6000606060008060008661ffff1667ffffffffffffffff811115611a6357611a63611fdd565b6040519080825280601f01601f191660200182016040528015611a8d576020820181803683370190505b5090506000808751602089018b8e8ef191503d925086831115611aae578692505b828152826000602083013e90999098509650505050505050565b6020820154600090815b6020811015611b9257600182821c166000868360208110611af557611af5612196565b0154905081600103611b32576040805160208101839052908101869052606001604051602081830303815290604052805190602001209450611b7d565b84868460208110611b4557611b45612196565b6020020151604051602001611b64929190918252602082015260400190565b6040516020818303038152906040528051906020012094505b50508080611b8a906121c5565b915050611ad2565b505092915050565b6040518061040001604052806020906020820280368337509192915050565b803573ffffffffffffffffffffffffffffffffffffffff81168114611bdd57600080fd5b919050565b600060208284031215611bf457600080fd5b611bfd82611bb9565b9392505050565b60008083601f840112611c1657600080fd5b50813567ffffffffffffffff811115611c2e57600080fd5b602083019150836020828501011115611c4657600080fd5b9250929050565b600080600080600080600060a0888a031215611c6857600080fd5b87359650611c7860208901611bb9565b955060408801359450606088013567ffffffffffffffff80821115611c9c57600080fd5b611ca88b838c01611c04565b909650945060808a0135915080821115611cc157600080fd5b50611cce8a828b01611c04565b989b979a50959850939692959293505050565b6104008101818360005b6020808210611cfa5750611d0e565b825184529283019290910190600101611ceb565b50505092915050565b60008060408385031215611d2a57600080fd5b611d3383611bb9565b9150611d4160208401611bb9565b90509250929050565b60005b83811015611d65578181015183820152602001611d4d565b50506000910152565b60008151808452611d86816020860160208601611d4a565b601f017fffffffffffffffffffffffffffffffffffffffffffffffffffffffffffffffe0169290920160200192915050565b602081526000611bfd6020830184611d6e565b60008060008060008060008060c0898b031215611de757600080fd5b88359750611df760208a01611bb9565b965060408901359550606089013567ffffffffffffffff80821115611e1b57600080fd5b611e278c838d01611c04565b9097509550859150611e3b60808c01611bb9565b945060a08b0135915080821115611e5157600080fd5b50611e5e8b828c01611c04565b999c989b5096995094979396929594505050565b600080600060408486031215611e8757600080fd5b833567ffffffffffffffff80821115611e9f57600080fd5b908501906101008288031215611eb457600080fd5b90935060208501359080821115611eca57600080fd5b50611ed786828701611c04565b9497909650939450505050565b600060208284031215611ef657600080fd5b5035919050565b8183528181602085013750600060208284010152600060207fffffffffffffffffffffffffffffffffffffffffffffffffffffffffffffffe0601f840116840101905092915050565b85815273ffffffffffffffffffffffffffffffffffffffff851660208201528360408201526080606082015260006118b8608083018486611efd565b600060208284031215611f9457600080fd5b5051919050565b7f4e487b7100000000000000000000000000000000000000000000000000000000600052601160045260246000fd5b8082018082111561072357610723611f9b565b7f4e487b7100000000000000000000000000000000000000000000000000000000600052604160045260246000fd5b604051610100810167ffffffffffffffff8111828210171561203057612030611fdd565b60405290565b600082601f83011261204757600080fd5b813567ffffffffffffffff8082111561206257612062611fdd565b604051601f83017fffffffffffffffffffffffffffffffffffffffffffffffffffffffffffffffe0908116603f011681019082821181831017156120a8576120a8611fdd565b816040528381528660208588010111156120c157600080fd5b836020870160208301376000602085830101528094505050505092915050565b600061010082360312156120f457600080fd5b6120fc61200c565b61210583611bb9565b8152602083013560208201526040830135604082015261212760608401611bb9565b60608201526080830135608082015261214260a08401611bb9565b60a082015260c083013560c082015260e083013567ffffffffffffffff81111561216b57600080fd5b61217736828601612036565b60e08301525092915050565b8181038181111561072357610723611f9b565b7f4e487b7100000000000000000000000000000000000000000000000000000000600052603260045260246000fd5b60007fffffffffffffffffffffffffffffffffffffffffffffffffffffffffffffffff82036121f6576121f6611f9b565b5060010190565b600061010073ffffffffffffffffffffffffffffffffffffffff8084511685526020840151602086015260408401516040860152806060850151166060860152608084015160808601528060a08501511660a08601525060c083015160c085015260e08301518160e086015261227582860182611d6e565b95945050505050565b82815260406020820152600061196b60408301846121fd565b8481528360208201526060604082015260006122b7606083018486611efd565b9695505050505050565b6000602082840312156122d357600080fd5b81518015158114611bfd57600080fd5b600085516122f5818460208a01611d4a565b9190910193845250602083019190915260601b7fffffffffffffffffffffffffffffffffffffffff000000000000000000000000166040820152605401919050565b602081526000611bfd60208301846121fd565b600181815b808511156123a357817fffffffffffffffffffffffffffffffffffffffffffffffffffffffffffffffff0482111561238957612389611f9b565b8085161561239657918102915b93841c939080029061234f565b509250929050565b6000826123ba57506001610723565b816123c757506000610723565b81600181146123dd57600281146123e757612403565b6001915050610723565b60ff8411156123f8576123f8611f9b565b50506001821b610723565b5060208310610133831016604e8410600b8410161715612426575081810a610723565b612430838361234a565b807fffffffffffffffffffffffffffffffffffffffffffffffffffffffffffffffff0482111561246257612462611f9b565b029392505050565b6000611bfd83836123ab565b6000826124ac577f4e487b7100000000000000000000000000000000000000000000000000000000600052601260045260246000fd5b500490565b7f4e487b7100000000000000000000000000000000000000000000000000000000600052600160045260246000fdfea2646970667358221220e4b3459bef63f5af5ae2294d65e90d4caa676610aebba195cd887e674ddf857a64736f6c63430008110033",
			"deployedBytecode": "0x60806040526004361061010e5760003560e01c80634ea59979116100a55780638b22909111610074578063ebf0c71711610059578063ebf0c717146103bb578063ee6ad167146103d1578063f67c907c146103f457600080fd5b80638b22909114610388578063b0ff5e72146103a857600080fd5b80634ea59979146102f457806352720be41461031457806354fd4d50146103295780635e26462c1461037557600080fd5b80633f3108f7116100e15780633f3108f7146101f8578063413422491461024a57806345152ae31461029e5780634872824f146102c057600080fd5b80630f988a73146101135780631c2b2da6146101355780633c50e178146101685780633dbcc8d1146101e3575b600080fd5b34801561011f57600080fd5b5061013361012e366004611be2565b610424565b005b34801561014157600080fd5b50610155610150366004611c4d565b610521565b6040519081526020015b60405180910390f35b34801561017457600080fd5b506101b6610183366004611be2565b6005602052600090815260409020805460019091015473ffffffffffffffffffffffffffffffffffffffff918216911682565b6040805173ffffffffffffffffffffffffffffffffffffffff93841681529290911660208301520161015f565b3480156101ef57600080fd5b50602754610155565b34801561020457600080fd5b506002546102259073ffffffffffffffffffffffffffffffffffffffff1681565b60405173ffffffffffffffffffffffffffffffffffffffff909116815260200161015f565b34801561025657600080fd5b5061026a610265366004611be2565b610672565b60408051825173ffffffffffffffffffffffffffffffffffffffff908116825260209384015116928101929092520161015f565b3480156102aa57600080fd5b506102b3610729565b60405161015f9190611ce1565b3480156102cc57600080fd5b506003546004546101b69173ffffffffffffffffffffffffffffffffffffffff908116911682565b34801561030057600080fd5b5061013361030f366004611d17565b610740565b34801561032057600080fd5b506102b3610863565b34801561033557600080fd5b50604080518082018252600581527f322e302e300000000000000000000000000000000000000000000000000000006020820152905161015f9190611db8565b610155610383366004611dcb565b61089f565b34801561039457600080fd5b506101336103a3366004611d17565b610948565b3480156103b457600080fd5b5046610155565b3480156103c757600080fd5b5061015560065481565b6103e46103df366004611e72565b610a07565b604051901515815260200161015f565b34801561040057600080fd5b506103e461040f366004611ee4565b60286020526000908152604090205460ff1681565b60025473ffffffffffffffffffffffffffffffffffffffff1633146104aa576040517f08c379a000000000000000000000000000000000000000000000000000000000815260206004820152600560248201527f216175746800000000000000000000000000000000000000000000000000000060448201526064015b60405180910390fd5b6002805473ffffffffffffffffffffffffffffffffffffffff8381167fffffffffffffffffffffffff0000000000000000000000000000000000000000831681179093556040519116919082907fb0999394a8202229d1e14c6290230863233f18473f7504b3a7b1a27f9b014c9d90600090a35050565b60008061052d88610672565b90506000816020015173ffffffffffffffffffffffffffffffffffffffff166353179a7c8b8b8b8b8b6040518663ffffffff1660e01b8152600401610576959493929190611f46565b602060405180830381865afa158015610593573d6000803e3d6000fd5b505050506040513d601f19601f820116820180604052508101906105b79190611f82565b82516040517fa1dbf432000000000000000000000000000000000000000000000000000000008152600481018d905273ffffffffffffffffffffffffffffffffffffffff8c811660248301529293506000929091169063a1dbf43290604401602060405180830381865afa158015610633573d6000803e3d6000fd5b505050506040513d601f19601f820116820180604052508101906106579190611f82565b90506106638183611fca565b9b9a5050505050505050505050565b6040805180820182526000808252602080830182905273ffffffffffffffffffffffffffffffffffffffff858116835260058252918490208451808601909552805483168552600101549091169083018190529091906106eb5760045473ffffffffffffffffffffffffffffffffffffffff1660208201525b805173ffffffffffffffffffffffffffffffffffffffff166107235760035473ffffffffffffffffffffffffffffffffffffffff1681525b92915050565b610731611b9a565b61073b6007610ae4565b905090565b60025473ffffffffffffffffffffffffffffffffffffffff1633146107c1576040517f08c379a000000000000000000000000000000000000000000000000000000000815260206004820152600560248201527f216175746800000000000000000000000000000000000000000000000000000060448201526064016104a1565b60408051808201825273ffffffffffffffffffffffffffffffffffffffff8481168083529084166020928301819052600380547fffffffffffffffffffffffff0000000000000000000000000000000000000000908116841790915560048054909116821790558351918252918101919091527f504f152883e6158786ddfcce63f4d4d95ce8e404b1f6e6365a06f63849b7cb95910160405180910390a15050565b61086b611b9a565b604080516104008101918290529060079060209082845b815481526020019060010190808311610882575050505050905090565b600060016000541461090d576040517f08c379a000000000000000000000000000000000000000000000000000000000815260206004820152601060248201527f2173656e642d7265656e7472616e63790000000000000000000000000000000060448201526064016104a1565b600260009081553390610924828c8c8c8c8c610bda565b90506109358287838e8d8d8d610d9d565b60016000559a9950505050505050505050565b60408051808201825273ffffffffffffffffffffffffffffffffffffffff848116808352848216602080850182815233600081815260058452889020965187549087167fffffffffffffffffffffffff000000000000000000000000000000000000000091821617885591516001909701805497909616969091169590951790935584519182529181019190915290917f86b44d92ad94c11b25d0f08d0f55e8e235b4d165e62e541c02e8ee19f551c97b910160405180910390a25050565b60006001805414610a74576040517f08c379a000000000000000000000000000000000000000000000000000000000815260206004820152601060248201527f21726563762d7265656e7472616e63790000000000000000000000000000000060448201526064016104a1565b60026001556000610a86858585610e8d565b9050610a9a610a94866120e1565b82611155565b9150807f62b1dc20fd6f1518626da5b6f9897e8cd4ebadbad071bb66dc96a37c970087a883604051610ad0911515815260200190565b60405180910390a250600180559392505050565b610aec611b9a565b600060018360200154610aff9190612183565b6040805161040081019182905291925060009190859060209082845b815481526020019060010190808311610b1b57505050505090506000610b3f6111df565b905060005b6020811015610bd157600184821c811690819003610b8f57838260208110610b6e57610b6e612196565b6020020151868360208110610b8557610b85612196565b6020020152610bbe565b828260208110610ba157610ba1612196565b6020020151868360208110610bb857610bb8612196565b60200201525b5080610bc9816121c5565b915050610b44565b50505050919050565b6000468603610c45576040517f08c379a000000000000000000000000000000000000000000000000000000000815260206004820152600c60248201527f2163726f73732d636861696e000000000000000000000000000000000000000060448201526064016104a1565b6000610c5060275490565b905060006040518061010001604052807f000000000000000000000000d1c04cd01ca448698ee92f97589767552f8f66c873ffffffffffffffffffffffffffffffffffffffff168152602001838152602001610ca94690565b81526020018a73ffffffffffffffffffffffffffffffffffffffff1681526020018981526020018873ffffffffffffffffffffffffffffffffffffffff16815260200187815260200186868080601f016020809104026020016040519081016040528093929190818152602001838380828437600092018290525093909452509293509150610d399050826116a0565b9050610d466007826116d0565b610d506007611814565b600681905560405182917f327110434bca326d1f70236295f59c8b472ebc683a6549ca9254697564fec4a591610d889190869061227e565b60405180910390a29998505050505050505050565b6000610da888610672565b90506000610dbe8260200151878b888888611827565b90506000610dd18360000151888c6118c3565b9050826020015173ffffffffffffffffffffffffffffffffffffffff16836000015173ffffffffffffffffffffffffffffffffffffffff16897ff7e134438bf3052b95eaa2f90f4177932297d80eb36186624c2f366cb8944ecf8486604051610e44929190918252602082015260400190565b60405180910390a4610e568183611fca565b341115610e81576000610e698284611fca565b610e739034612183565b9050610e7f8a82611973565b505b50505050505050505050565b600080610ea361026560c0870160a08801611be2565b602081015190915073ffffffffffffffffffffffffffffffffffffffff163314610f29576040517f08c379a000000000000000000000000000000000000000000000000000000000815260206004820152600560248201527f216175746800000000000000000000000000000000000000000000000000000060448201526064016104a1565b6000610f3c610f37876120e1565b6116a0565b9050816000015173ffffffffffffffffffffffffffffffffffffffff1663094f87c587604001358388886040518563ffffffff1660e01b8152600401610f859493929190612297565b602060405180830381865afa158015610fa2573d6000803e3d6000fd5b505050506040513d601f19601f82011682018060405250810190610fc691906122c1565b61102c576040517f08c379a000000000000000000000000000000000000000000000000000000000815260206004820152600660248201527f2170726f6f66000000000000000000000000000000000000000000000000000060448201526064016104a1565b60808601354614611099576040517f08c379a000000000000000000000000000000000000000000000000000000000815260206004820152600a60248201527f21746f436861696e49640000000000000000000000000000000000000000000060448201526064016104a1565b60008181526028602052604090205460ff1615611114576040517f08c379a00000000000000000000000000000000000000000000000000000000081526004016104a19060208082526004908201527f646f6e6500000000000000000000000000000000000000000000000000000000604082015260600190565b600081815260286020526040902080547fffffffffffffffffffffffffffffffffffffffffffffffffffffffffffffff001660011790559150509392505050565b60006111d78360c001513460008660e00151868860400151896060015160405160200161118594939291906122e3565b604080517fffffffffffffffffffffffffffffffffffffffffffffffffffffffffffffffe081840301815291905260a088015173ffffffffffffffffffffffffffffffffffffffff1693929190611a3d565b509392505050565b6111e7611b9a565b600081527fad3228b676f7d3cd4284a5443f17f1962b36e491b30a40b2405849e597ba5fb560208201527fb4c11951957c6f8f642c4af61cd6b24640fec6dc7fc607ee8206a99e92410d3060408201527f21ddb9a356815c3fac1026b6dec5df3124afbadb485c9ba5a3e3398a04b7ba8560608201527fe58769b32a1beaf1ea27375a44095a0d1fb664ce2dd358e7fcbfb78c26a1934460808201527f0eb01ebfc9ed27500cd4dfc979272d1f0913cc9f66540d7e8005811109e1cf2d60a08201527f887c22bd8750d34016ac3c66b5ff102dacdd73f6b014e710b51e8022af9a196860c08201527fffd70157e48063fc33c97a050f7f640233bf646cc98d9524c6b92bcf3ab56f8360e08201527f9867cc5f7f196b93bae1e27e6320742445d290f2263827498b54fec539f756af6101008201527fcefad4e508c098b9a7e1d8feb19955fb02ba9675585078710969d3440f5054e06101208201527ff9dc3e7fe016e050eff260334f18a5d4fe391d82092319f5964f2e2eb7c1c3a56101408201527ff8b13a49e282f609c317a833fb8d976d11517c571d1221a265d25af778ecf8926101608201527f3490c6ceeb450aecdc82e28293031d10c7d73bf85e57bf041a97360aa2c5d99c6101808201527fc1df82d9c4b87413eae2ef048f94b4d3554cea73d92b0f7af96e0271c691e2bb6101a08201527f5c67add7c6caf302256adedf7ab114da0acfe870d449a3a489f781d659e8becc6101c08201527fda7bce9f4e8618b6bd2f4132ce798cdc7a60e7e1460a7299e3c6342a579626d26101e08201527f2733e50f526ec2fa19a22b31e8ed50f23cd1fdf94c9154ed3a7609a2f1ff981f6102008201527fe1d3b5c807b281e4683cc6d6315cf95b9ade8641defcb32372f1c126e398ef7a6102208201527f5a2dce0a8a7f68bb74560f8f71837c2c2ebbcbf7fffb42ae1896f13f7c7479a06102408201527fb46a28b6f55540f89444f63de0378e3d121be09e06cc9ded1c20e65876d36aa06102608201527fc65e9645644786b620e2dd2ad648ddfcbf4a7e5b1a3a4ecfe7f64667a3f0b7e26102808201527ff4418588ed35a2458cffeb39b93d26f18d2ab13bdce6aee58e7b99359ec2dfd96102a08201527f5a9c16dc00d6ef18b7933a6f8dc65ccb55667138776f7dea101070dc8796e3776102c08201527f4df84f40ae0c8229d0d6069e5c8f39a7c299677a09d367fc7b05e3bc380ee6526102e08201527fcdc72595f74c7b1043d0e1ffbab734648c838dfb0527d971b602bc216c9619ef6103008201527f0abf5ac974a1ed57f4050aa510dd9c74f508277b39d7973bb2dfccc5eeb0618d6103208201527fb8cd74046ff337f0a7bf2c8e03e10f642c1886798d71806ab1e888d9e5ee87d06103408201527f838c5655cb21c6cb83313b5a631175dff4963772cce9108188b34ac87c81c41e6103608201527f662ee4dd2dd7b2bc707961b1e646c4047669dcb6584f0d8d770daf5d7e7deb2e6103808201527f388ab20e2573d171a88108e79d820e98f26c0b84aa8b2f4aa4968dbb818ea3226103a08201527f93237c50ba75ee485f4c22adf2f741400bdf8d6a9cc7df7ecae576221665d7356103c08201527f8448818bb4ae4562849e949e17ac16e0be16688e156b5cf15e098c627c0056a96103e082015290565b6000816040516020016116b39190612337565b604051602081830303815290604052805190602001209050919050565b60016116de6020600261246a565b6116e89190612183565b826020015410611754576040517f08c379a000000000000000000000000000000000000000000000000000000000815260206004820152601060248201527f6d65726b6c6520747265652066756c6c0000000000000000000000000000000060448201526064016104a1565b60018260200160008282546117699190611fca565b9091555050602082015460005b602081101561180657816001166001036117a5578284826020811061179d5761179d612196565b015550505050565b8381602081106117b7576117b7612196565b015460408051602081019290925281018490526060016040516020818303038152906040528051906020012092506002826117f29190612476565b9150806117fe816121c5565b915050611776565b5061180f6124b1565b505050565b6000610723826118226111df565b611ac8565b6000808773ffffffffffffffffffffffffffffffffffffffff166353179a7c88888888886040518663ffffffff1660e01b815260040161186b959493929190611f46565b602060405180830381865afa158015611888573d6000803e3d6000fd5b505050506040513d601f19601f820116820180604052508101906118ac9190611f82565b90506118b88882611973565b979650505050505050565b6040517fa1dbf4320000000000000000000000000000000000000000000000000000000081526004810183905273ffffffffffffffffffffffffffffffffffffffff8281166024830152600091829186169063a1dbf43290604401602060405180830381865afa15801561193b573d6000803e3d6000fd5b505050506040513d601f19601f8201168201806040525081019061195f9190611f82565b905061196b8582611973565b949350505050565b60008273ffffffffffffffffffffffffffffffffffffffff168260405160006040518083038185875af1925050503d80600081146119cd576040519150601f19603f3d011682016040523d82523d6000602084013e6119d2565b606091505b505090508061180f576040517f08c379a000000000000000000000000000000000000000000000000000000000815260206004820152600560248201527f2173656e6400000000000000000000000000000000000000000000000000000060448201526064016104a1565b6000606060008060008661ffff1667ffffffffffffffff811115611a6357611a63611fdd565b6040519080825280601f01601f191660200182016040528015611a8d576020820181803683370190505b5090506000808751602089018b8e8ef191503d925086831115611aae578692505b828152826000602083013e90999098509650505050505050565b6020820154600090815b6020811015611b9257600182821c166000868360208110611af557611af5612196565b0154905081600103611b32576040805160208101839052908101869052606001604051602081830303815290604052805190602001209450611b7d565b84868460208110611b4557611b45612196565b6020020151604051602001611b64929190918252602082015260400190565b6040516020818303038152906040528051906020012094505b50508080611b8a906121c5565b915050611ad2565b505092915050565b6040518061040001604052806020906020820280368337509192915050565b803573ffffffffffffffffffffffffffffffffffffffff81168114611bdd57600080fd5b919050565b600060208284031215611bf457600080fd5b611bfd82611bb9565b9392505050565b60008083601f840112611c1657600080fd5b50813567ffffffffffffffff811115611c2e57600080fd5b602083019150836020828501011115611c4657600080fd5b9250929050565b600080600080600080600060a0888a031215611c6857600080fd5b87359650611c7860208901611bb9565b955060408801359450606088013567ffffffffffffffff80821115611c9c57600080fd5b611ca88b838c01611c04565b909650945060808a0135915080821115611cc157600080fd5b50611cce8a828b01611c04565b989b979a50959850939692959293505050565b6104008101818360005b6020808210611cfa5750611d0e565b825184529283019290910190600101611ceb565b50505092915050565b60008060408385031215611d2a57600080fd5b611d3383611bb9565b9150611d4160208401611bb9565b90509250929050565b60005b83811015611d65578181015183820152602001611d4d565b50506000910152565b60008151808452611d86816020860160208601611d4a565b601f017fffffffffffffffffffffffffffffffffffffffffffffffffffffffffffffffe0169290920160200192915050565b602081526000611bfd6020830184611d6e565b60008060008060008060008060c0898b031215611de757600080fd5b88359750611df760208a01611bb9565b965060408901359550606089013567ffffffffffffffff80821115611e1b57600080fd5b611e278c838d01611c04565b9097509550859150611e3b60808c01611bb9565b945060a08b0135915080821115611e5157600080fd5b50611e5e8b828c01611c04565b999c989b5096995094979396929594505050565b600080600060408486031215611e8757600080fd5b833567ffffffffffffffff80821115611e9f57600080fd5b908501906101008288031215611eb457600080fd5b90935060208501359080821115611eca57600080fd5b50611ed786828701611c04565b9497909650939450505050565b600060208284031215611ef657600080fd5b5035919050565b8183528181602085013750600060208284010152600060207fffffffffffffffffffffffffffffffffffffffffffffffffffffffffffffffe0601f840116840101905092915050565b85815273ffffffffffffffffffffffffffffffffffffffff851660208201528360408201526080606082015260006118b8608083018486611efd565b600060208284031215611f9457600080fd5b5051919050565b7f4e487b7100000000000000000000000000000000000000000000000000000000600052601160045260246000fd5b8082018082111561072357610723611f9b565b7f4e487b7100000000000000000000000000000000000000000000000000000000600052604160045260246000fd5b604051610100810167ffffffffffffffff8111828210171561203057612030611fdd565b60405290565b600082601f83011261204757600080fd5b813567ffffffffffffffff8082111561206257612062611fdd565b604051601f83017fffffffffffffffffffffffffffffffffffffffffffffffffffffffffffffffe0908116603f011681019082821181831017156120a8576120a8611fdd565b816040528381528660208588010111156120c157600080fd5b836020870160208301376000602085830101528094505050505092915050565b600061010082360312156120f457600080fd5b6120fc61200c565b61210583611bb9565b8152602083013560208201526040830135604082015261212760608401611bb9565b60608201526080830135608082015261214260a08401611bb9565b60a082015260c083013560c082015260e083013567ffffffffffffffff81111561216b57600080fd5b61217736828601612036565b60e08301525092915050565b8181038181111561072357610723611f9b565b7f4e487b7100000000000000000000000000000000000000000000000000000000600052603260045260246000fd5b60007fffffffffffffffffffffffffffffffffffffffffffffffffffffffffffffffff82036121f6576121f6611f9b565b5060010190565b600061010073ffffffffffffffffffffffffffffffffffffffff8084511685526020840151602086015260408401516040860152806060850151166060860152608084015160808601528060a08501511660a08601525060c083015160c085015260e08301518160e086015261227582860182611d6e565b95945050505050565b82815260406020820152600061196b60408301846121fd565b8481528360208201526060604082015260006122b7606083018486611efd565b9695505050505050565b6000602082840312156122d357600080fd5b81518015158114611bfd57600080fd5b600085516122f5818460208a01611d4a565b9190910193845250602083019190915260601b7fffffffffffffffffffffffffffffffffffffffff000000000000000000000000166040820152605401919050565b602081526000611bfd60208301846121fd565b600181815b808511156123a357817fffffffffffffffffffffffffffffffffffffffffffffffffffffffffffffffff0482111561238957612389611f9b565b8085161561239657918102915b93841c939080029061234f565b509250929050565b6000826123ba57506001610723565b816123c757506000610723565b81600181146123dd57600281146123e757612403565b6001915050610723565b60ff8411156123f8576123f8611f9b565b50506001821b610723565b5060208310610133831016604e8410600b8410161715612426575081810a610723565b612430838361234a565b807fffffffffffffffffffffffffffffffffffffffffffffffffffffffffffffffff0482111561246257612462611f9b565b029392505050565b6000611bfd83836123ab565b6000826124ac577f4e487b7100000000000000000000000000000000000000000000000000000000600052601260045260246000fd5b500490565b7f4e487b7100000000000000000000000000000000000000000000000000000000600052600160045260246000fdfea2646970667358221220e4b3459bef63f5af5ae2294d65e90d4caa676610aebba195cd887e674ddf857a64736f6c63430008110033",
			"devdoc": {
				"kind": "dev",
				"methods": {
					"LOCAL_CHAINID()": {
						"details": "Fetch local chain id.",
						"returns": {
							"chainId": "Local chain id."
						}
					},
					"changeSetter(address)": {
						"details": "Change setter.",
						"params": {
							"newSetter": "New setter."
						}
					},
					"fee(uint256,address,uint256,bytes,bytes)": {
						"params": {
							"encoded": "The calldata which encoded by ABI Encoding.",
							"gasLimit": "Gas limit for destination user application used."
						}
					},
					"getAppConfig(address)": {
						"details": "Fetch user application config.",
						"params": {
							"ua": "User application contract address."
						},
						"returns": {
							"_0": "user application config."
						}
					},
					"imtBranch()": {
						"details": "Fetch the branch of incremental merkle tree."
					},
					"messageCount()": {
						"details": "Fetch the messages count of incremental merkle tree."
					},
					"prove()": {
						"details": "Fetch the latest message proof"
					},
					"recv((address,uint256,uint256,address,uint256,address,uint256,bytes),bytes)": {
						"details": "Recv verified message from Channel and dispatch to destination user application address.",
						"params": {
							"message": "Verified receive message info.",
							"proof": "Message proof of this message."
						},
						"returns": {
							"dispatchResult": "Result of the message dispatch."
						}
					},
					"send(uint256,address,uint256,bytes,address,bytes)": {
						"details": "Send a cross-chain message over the endpoint.",
						"params": {
							"encoded": "The calldata which encoded by ABI Encoding.",
							"gasLimit": "Gas limit for destination user application used.",
							"refund": "Return extra fee to refund address.",
							"to": "User application contract address which receive the message.",
							"toChainId": "The Message destination chain id."
						}
					},
					"setAppConfig(address,address)": {
						"params": {
							"oracle": "Oracle which user application.",
							"relayer": "Relayer which user application choose."
						}
					},
					"setDefaultConfig(address,address)": {
						"details": "Set default user config for all user application.",
						"params": {
							"oracle": "Default oracle.",
							"relayer": "Default relayer."
						}
					}
				},
				"version": 1
			},
			"userdoc": {
				"kind": "user",
				"methods": {
					"changeSetter(address)": {
						"notice": "Only current setter could call."
					},
					"getAppConfig(address)": {
						"notice": "If user application has not configured, then the default user config is used."
					},
					"recv((address,uint256,uint256,address,uint256,address,uint256,bytes),bytes)": {
						"notice": "Only channel could call this function."
					},
					"send(uint256,address,uint256,bytes,address,bytes)": {
						"notice": "follow https://eips.ethereum.org/EIPS/eip-5750"
					},
					"setAppConfig(address,address)": {
						"notice": "Set user application config."
					},
					"setDefaultConfig(address,address)": {
						"notice": "Only setter could call."
					}
				},
				"version": 1
			},
			"gitCommit": "ea8caff26eeb31c3189033ff62ea530464fdf5ab",
			"sourceName": "lib/ORMP/src/ORMP.sol",
			"chainId": "421614",
			"linkReferences": {},
			"deployedLinkReferences": {}
		}
	]
}