{
	"_format": "sphinx-sol-ct-artifact-1",
	"merkleRoot": "0x898f394520bba93e7aa864ad25fe56255e55b3dc37f65c52ab9f6d909d0235ac",
	"contractName": "Relayer",
	"address": "0xb594e5B2234B46b4dB86b71a5f786d22af5E1a82",
	"abi": [
		{
			"type": "constructor",
			"inputs": [
				{
					"name": "dao",
					"type": "address",
					"internalType": "address"
				},
				{
					"name": "ormp",
					"type": "address",
					"internalType": "address"
				}
			],
			"stateMutability": "nonpayable"
		},
		{
			"type": "receive",
			"stateMutability": "payable"
		},
		{
			"type": "function",
			"name": "PROTOCOL",
			"inputs": [],
			"outputs": [
				{
					"name": "",
					"type": "address",
					"internalType": "address"
				}
			],
			"stateMutability": "view"
		},
		{
			"type": "function",
			"name": "approvedOf",
			"inputs": [
				{
					"name": "",
					"type": "address",
					"internalType": "address"
				}
			],
			"outputs": [
				{
					"name": "",
					"type": "bool",
					"internalType": "bool"
				}
			],
			"stateMutability": "view"
		},
		{
			"type": "function",
			"name": "changeOwner",
			"inputs": [
				{
					"name": "newOwner",
					"type": "address",
					"internalType": "address"
				}
			],
			"outputs": [],
			"stateMutability": "nonpayable"
		},
		{
			"type": "function",
			"name": "configOf",
			"inputs": [
				{
					"name": "",
					"type": "uint256",
					"internalType": "uint256"
				}
			],
			"outputs": [
				{
					"name": "baseGas",
					"type": "uint64",
					"internalType": "uint64"
				},
				{
					"name": "gasPerByte",
					"type": "uint64",
					"internalType": "uint64"
				}
			],
			"stateMutability": "view"
		},
		{
			"type": "function",
			"name": "fee",
			"inputs": [
				{
					"name": "toChainId",
					"type": "uint256",
					"internalType": "uint256"
				},
				{
					"name": "",
					"type": "address",
					"internalType": "address"
				},
				{
					"name": "gasLimit",
					"type": "uint256",
					"internalType": "uint256"
				},
				{
					"name": "encoded",
					"type": "bytes",
					"internalType": "bytes"
				}
			],
			"outputs": [
				{
					"name": "",
					"type": "uint256",
					"internalType": "uint256"
				}
			],
			"stateMutability": "view"
		},
		{
			"type": "function",
			"name": "isApproved",
			"inputs": [
				{
					"name": "operator",
					"type": "address",
					"internalType": "address"
				}
			],
			"outputs": [
				{
					"name": "",
					"type": "bool",
					"internalType": "bool"
				}
			],
			"stateMutability": "view"
		},
		{
			"type": "function",
			"name": "owner",
			"inputs": [],
			"outputs": [
				{
					"name": "",
					"type": "address",
					"internalType": "address"
				}
			],
			"stateMutability": "view"
		},
		{
			"type": "function",
			"name": "priceOf",
			"inputs": [
				{
					"name": "",
					"type": "uint256",
					"internalType": "uint256"
				}
			],
			"outputs": [
				{
					"name": "dstPriceRatio",
					"type": "uint128",
					"internalType": "uint128"
				},
				{
					"name": "dstGasPriceInWei",
					"type": "uint128",
					"internalType": "uint128"
				}
			],
			"stateMutability": "view"
		},
		{
			"type": "function",
			"name": "relay",
			"inputs": [
				{
					"name": "message",
					"type": "tuple",
					"internalType": "struct Message",
					"components": [
						{
							"name": "channel",
							"type": "address",
							"internalType": "address"
						},
						{
							"name": "index",
							"type": "uint256",
							"internalType": "uint256"
						},
						{
							"name": "fromChainId",
							"type": "uint256",
							"internalType": "uint256"
						},
						{
							"name": "from",
							"type": "address",
							"internalType": "address"
						},
						{
							"name": "toChainId",
							"type": "uint256",
							"internalType": "uint256"
						},
						{
							"name": "to",
							"type": "address",
							"internalType": "address"
						},
						{
							"name": "gasLimit",
							"type": "uint256",
							"internalType": "uint256"
						},
						{
							"name": "encoded",
							"type": "bytes",
							"internalType": "bytes"
						}
					]
				},
				{
					"name": "proof",
					"type": "bytes",
					"internalType": "bytes"
				}
			],
			"outputs": [],
			"stateMutability": "nonpayable"
		},
		{
			"type": "function",
			"name": "setApproved",
			"inputs": [
				{
					"name": "operator",
					"type": "address",
					"internalType": "address"
				},
				{
					"name": "approve",
					"type": "bool",
					"internalType": "bool"
				}
			],
			"outputs": [],
			"stateMutability": "nonpayable"
		},
		{
			"type": "function",
			"name": "setDstConfig",
			"inputs": [
				{
					"name": "chainId",
					"type": "uint256",
					"internalType": "uint256"
				},
				{
					"name": "baseGas",
					"type": "uint64",
					"internalType": "uint64"
				},
				{
					"name": "gasPerByte",
					"type": "uint64",
					"internalType": "uint64"
				}
			],
			"outputs": [],
			"stateMutability": "nonpayable"
		},
		{
			"type": "function",
			"name": "setDstPrice",
			"inputs": [
				{
					"name": "chainId",
					"type": "uint256",
					"internalType": "uint256"
				},
				{
					"name": "dstPriceRatio",
					"type": "uint128",
					"internalType": "uint128"
				},
				{
					"name": "dstGasPriceInWei",
					"type": "uint128",
					"internalType": "uint128"
				}
			],
			"outputs": [],
			"stateMutability": "nonpayable"
		},
		{
			"type": "function",
			"name": "version",
			"inputs": [],
			"outputs": [
				{
					"name": "",
					"type": "string",
					"internalType": "string"
				}
			],
			"stateMutability": "pure"
		},
		{
			"type": "function",
			"name": "withdraw",
			"inputs": [
				{
					"name": "to",
					"type": "address",
					"internalType": "address"
				},
				{
					"name": "amount",
					"type": "uint256",
					"internalType": "uint256"
				}
			],
			"outputs": [],
			"stateMutability": "nonpayable"
		},
		{
			"type": "event",
			"name": "OwnershipTransferred",
			"inputs": [
				{
					"name": "previousOwner",
					"type": "address",
					"indexed": true,
					"internalType": "address"
				},
				{
					"name": "newOwner",
					"type": "address",
					"indexed": true,
					"internalType": "address"
				}
			],
			"anonymous": false
		},
		{
			"type": "event",
			"name": "SetApproved",
			"inputs": [
				{
					"name": "operator",
					"type": "address",
					"indexed": false,
					"internalType": "address"
				},
				{
					"name": "approve",
					"type": "bool",
					"indexed": false,
					"internalType": "bool"
				}
			],
			"anonymous": false
		},
		{
			"type": "event",
			"name": "SetDstConfig",
			"inputs": [
				{
					"name": "chainId",
					"type": "uint256",
					"indexed": true,
					"internalType": "uint256"
				},
				{
					"name": "baseGas",
					"type": "uint64",
					"indexed": false,
					"internalType": "uint64"
				},
				{
					"name": "gasPerByte",
					"type": "uint64",
					"indexed": false,
					"internalType": "uint64"
				}
			],
			"anonymous": false
		},
		{
			"type": "event",
			"name": "SetDstPrice",
			"inputs": [
				{
					"name": "chainId",
					"type": "uint256",
					"indexed": true,
					"internalType": "uint256"
				},
				{
					"name": "dstPriceRatio",
					"type": "uint128",
					"indexed": false,
					"internalType": "uint128"
				},
				{
					"name": "dstGasPriceInWei",
					"type": "uint128",
					"indexed": false,
					"internalType": "uint128"
				}
			],
			"anonymous": false
		}
	],
	"solcInputHash": "25ab1c6c9160fcca73b123b152ea1387",
	"args": [
		"0x701609866556Cb9A1FBD6B40201cD5899c9D2d56",
		"0xd1c04CD01Ca448698EE92F97589767552F8f66c8"
	],
	"bytecode": "0x60a060405234801561001057600080fd5b5060405161131238038061131283398101604081905261002f91610076565b6001600160a01b03908116608052600080546001600160a01b031916929091169190911790556100a9565b80516001600160a01b038116811461007157600080fd5b919050565b6000806040838503121561008957600080fd5b6100928361005a565b91506100a06020840161005a565b90509250929050565b6080516112476100cb600039600081816102680152610c4901526112476000f3fe6080604052600436106100e15760003560e01c8063a6f9dae11161007f578063b9186d7d11610059578063b9186d7d146102fa578063edc2ee4e1461037a578063f3fef3a3146103e2578063f84876971461040257600080fd5b8063a6f9dae11461028a578063b6333d16146102aa578063b77bd6d5146102da57600080fd5b806384cfb680116100bb57806384cfb680146101c257806385753106146101e45780638da5cb5b1461020457806391b9b8271461025657600080fd5b806353179a7c146100ed57806354fd4d5014610120578063673448dd1461016c57600080fd5b366100e857005b600080fd5b3480156100f957600080fd5b5061010d610108366004610d3d565b610422565b6040519081526020015b60405180910390f35b34801561012c57600080fd5b50604080518082018252600581527f322e302e30000000000000000000000000000000000000000000000000000000602082015290516101179190610da5565b34801561017857600080fd5b506101b2610187366004610e11565b73ffffffffffffffffffffffffffffffffffffffff1660009081526003602052604090205460ff1690565b6040519015158152602001610117565b3480156101ce57600080fd5b506101e26101dd366004610e44565b610613565b005b3480156101f057600080fd5b506101e26101ff366004610e93565b610722565b34801561021057600080fd5b506000546102319073ffffffffffffffffffffffffffffffffffffffff1681565b60405173ffffffffffffffffffffffffffffffffffffffff9091168152602001610117565b34801561026257600080fd5b506102317f000000000000000000000000000000000000000000000000000000000000000081565b34801561029657600080fd5b506101e26102a5366004610e11565b61084d565b3480156102b657600080fd5b506101b26102c5366004610e11565b60036020526000908152604090205460ff1681565b3480156102e657600080fd5b506101e26102f5366004610eef565b610943565b34801561030657600080fd5b50610351610315366004610f22565b6001602052600090815260409020546fffffffffffffffffffffffffffffffff8082169170010000000000000000000000000000000090041682565b604080516fffffffffffffffffffffffffffffffff938416815292909116602083015201610117565b34801561038657600080fd5b506103c1610395366004610f22565b60026020526000908152604090205467ffffffffffffffff808216916801000000000000000090041682565b6040805167ffffffffffffffff938416815292909116602083015201610117565b3480156103ee57600080fd5b506101e26103fd366004610f3b565b610a4b565b34801561040e57600080fd5b506101e261041d366004610f65565b610b93565b60008581526001602090815260408083208151808301835290546fffffffffffffffffffffffffffffffff808216835270010000000000000000000000000000000090910416818401528884526002835281842082518084019093525467ffffffffffffffff80821680855268010000000000000000909204169383019390935284928792908503610515576040517f08c379a000000000000000000000000000000000000000000000000000000000815260206004820152600860248201527f216261736547617300000000000000000000000000000000000000000000000060448201526064015b60405180910390fd5b805160009061052f90859067ffffffffffffffff16611006565b83602001516fffffffffffffffffffffffffffffffff16610550919061101f565b905060006402540be40084600001516fffffffffffffffffffffffffffffffff168361057c919061101f565b6105869190611036565b905060006402540be40085600001516fffffffffffffffffffffffffffffffff1686602001516fffffffffffffffffffffffffffffffff1689876020015167ffffffffffffffff166105d8919061101f565b6105e2919061101f565b6105ec919061101f565b6105f69190611036565b90506106028183611006565b9d9c50505050505050505050505050565b60005473ffffffffffffffffffffffffffffffffffffffff163314610694576040517f08c379a000000000000000000000000000000000000000000000000000000000815260206004820152600660248201527f216f776e65720000000000000000000000000000000000000000000000000000604482015260640161050c565b73ffffffffffffffffffffffffffffffffffffffff821660008181526003602090815260409182902080547fffffffffffffffffffffffffffffffffffffffffffffffffffffffffffffff00168515159081179091558251938452908301527fd984ea421ae5d2a473199f85e03998a04a12f54d6f1fa183a955b3df1c0c546d910160405180910390a15050565b3360009081526003602052604090205460ff1661079b576040517f08c379a000000000000000000000000000000000000000000000000000000000815260206004820152600860248201527f21617070726f7665000000000000000000000000000000000000000000000000604482015260640161050c565b60408051808201825267ffffffffffffffff848116808352848216602080850182815260008a815260028352879020955186549151861668010000000000000000027fffffffffffffffffffffffffffffffff000000000000000000000000000000009092169516949094179390931790935583519081529081019190915284917f22f5a8bc0090523dde00cddddb6a70e17d4f457f4b823137143657c8844d8eac91015b60405180910390a2505050565b60005473ffffffffffffffffffffffffffffffffffffffff1633146108ce576040517f08c379a000000000000000000000000000000000000000000000000000000000815260206004820152600660248201527f216f776e65720000000000000000000000000000000000000000000000000000604482015260640161050c565b6000805473ffffffffffffffffffffffffffffffffffffffff8381167fffffffffffffffffffffffff0000000000000000000000000000000000000000831681178455604051919092169283917f8be0079c531659141344cd1fd0a4f28419497f9722a3daafe3b4186f6b6457e09190a35050565b3360009081526003602052604090205460ff166109bc576040517f08c379a000000000000000000000000000000000000000000000000000000000815260206004820152600860248201527f21617070726f7665000000000000000000000000000000000000000000000000604482015260640161050c565b6040805180820182526fffffffffffffffffffffffffffffffff848116808352848216602080850182815260008a8152600183528790209551905185167001000000000000000000000000000000000294169390931790935583519081529081019190915284917f1ec2caaeffa2fe858d7b732753d0bfd5a9cda5f73f3527136bca5a11c2f1d4b39101610840565b3360009081526003602052604090205460ff16610ac4576040517f08c379a000000000000000000000000000000000000000000000000000000000815260206004820152600860248201527f21617070726f7665000000000000000000000000000000000000000000000000604482015260640161050c565b60008273ffffffffffffffffffffffffffffffffffffffff168260405160006040518083038185875af1925050503d8060008114610b1e576040519150601f19603f3d011682016040523d82523d6000602084013e610b23565b606091505b5050905080610b8e576040517f08c379a000000000000000000000000000000000000000000000000000000000815260206004820152600960248201527f2177697468647261770000000000000000000000000000000000000000000000604482015260640161050c565b505050565b3360009081526003602052604090205460ff16610c0c576040517f08c379a000000000000000000000000000000000000000000000000000000000815260206004820152600860248201527f21617070726f7665000000000000000000000000000000000000000000000000604482015260640161050c565b6040517fee6ad16700000000000000000000000000000000000000000000000000000000815273ffffffffffffffffffffffffffffffffffffffff7f0000000000000000000000000000000000000000000000000000000000000000169063ee6ad16790610c829086908690869060040161111e565b6020604051808303816000875af1158015610ca1573d6000803e3d6000fd5b505050506040513d601f19601f82011682018060405250810190610cc591906111f4565b50505050565b803573ffffffffffffffffffffffffffffffffffffffff81168114610cef57600080fd5b919050565b60008083601f840112610d0657600080fd5b50813567ffffffffffffffff811115610d1e57600080fd5b602083019150836020828501011115610d3657600080fd5b9250929050565b600080600080600060808688031215610d5557600080fd5b85359450610d6560208701610ccb565b935060408601359250606086013567ffffffffffffffff811115610d8857600080fd5b610d9488828901610cf4565b969995985093965092949392505050565b600060208083528351808285015260005b81811015610dd257858101830151858201604001528201610db6565b5060006040828601015260407fffffffffffffffffffffffffffffffffffffffffffffffffffffffffffffffe0601f8301168501019250505092915050565b600060208284031215610e2357600080fd5b610e2c82610ccb565b9392505050565b8015158114610e4157600080fd5b50565b60008060408385031215610e5757600080fd5b610e6083610ccb565b91506020830135610e7081610e33565b809150509250929050565b803567ffffffffffffffff81168114610cef57600080fd5b600080600060608486031215610ea857600080fd5b83359250610eb860208501610e7b565b9150610ec660408501610e7b565b90509250925092565b80356fffffffffffffffffffffffffffffffff81168114610cef57600080fd5b600080600060608486031215610f0457600080fd5b83359250610f1460208501610ecf565b9150610ec660408501610ecf565b600060208284031215610f3457600080fd5b5035919050565b60008060408385031215610f4e57600080fd5b610f5783610ccb565b946020939093013593505050565b600080600060408486031215610f7a57600080fd5b833567ffffffffffffffff80821115610f9257600080fd5b908501906101008288031215610fa757600080fd5b90935060208501359080821115610fbd57600080fd5b50610fca86828701610cf4565b9497909650939450505050565b7f4e487b7100000000000000000000000000000000000000000000000000000000600052601160045260246000fd5b8082018082111561101957611019610fd7565b92915050565b808202811582820484141761101957611019610fd7565b60008261106c577f4e487b7100000000000000000000000000000000000000000000000000000000600052601260045260246000fd5b500490565b60008083357fffffffffffffffffffffffffffffffffffffffffffffffffffffffffffffffe18436030181126110a657600080fd5b830160208101925035905067ffffffffffffffff8111156110c657600080fd5b803603821315610d3657600080fd5b8183528181602085013750600060208284010152600060207fffffffffffffffffffffffffffffffffffffffffffffffffffffffffffffffe0601f840116840101905092915050565b60408152600073ffffffffffffffffffffffffffffffffffffffff8061114387610ccb565b16604084015260208601356060840152604086013560808401528061116a60608801610ccb565b1660a084015250608085013560c083015261118760a08601610ccb565b73ffffffffffffffffffffffffffffffffffffffff811660e08401525061010060c0860135818401526111bd60e0870187611071565b826101208601526111d3610140860182846110d5565b9250505082810360208401526111ea8185876110d5565b9695505050505050565b60006020828403121561120657600080fd5b8151610e2c81610e3356fea2646970667358221220179b293b743d0bc5dd630cf259d6c7b4e00769e75c67fbeeedbeb82ca450a60164736f6c63430008110033",
	"deployedBytecode": "0x6080604052600436106100e15760003560e01c8063a6f9dae11161007f578063b9186d7d11610059578063b9186d7d146102fa578063edc2ee4e1461037a578063f3fef3a3146103e2578063f84876971461040257600080fd5b8063a6f9dae11461028a578063b6333d16146102aa578063b77bd6d5146102da57600080fd5b806384cfb680116100bb57806384cfb680146101c257806385753106146101e45780638da5cb5b1461020457806391b9b8271461025657600080fd5b806353179a7c146100ed57806354fd4d5014610120578063673448dd1461016c57600080fd5b366100e857005b600080fd5b3480156100f957600080fd5b5061010d610108366004610d3d565b610422565b6040519081526020015b60405180910390f35b34801561012c57600080fd5b50604080518082018252600581527f322e302e30000000000000000000000000000000000000000000000000000000602082015290516101179190610da5565b34801561017857600080fd5b506101b2610187366004610e11565b73ffffffffffffffffffffffffffffffffffffffff1660009081526003602052604090205460ff1690565b6040519015158152602001610117565b3480156101ce57600080fd5b506101e26101dd366004610e44565b610613565b005b3480156101f057600080fd5b506101e26101ff366004610e93565b610722565b34801561021057600080fd5b506000546102319073ffffffffffffffffffffffffffffffffffffffff1681565b60405173ffffffffffffffffffffffffffffffffffffffff9091168152602001610117565b34801561026257600080fd5b506102317f000000000000000000000000d1c04cd01ca448698ee92f97589767552f8f66c881565b34801561029657600080fd5b506101e26102a5366004610e11565b61084d565b3480156102b657600080fd5b506101b26102c5366004610e11565b60036020526000908152604090205460ff1681565b3480156102e657600080fd5b506101e26102f5366004610eef565b610943565b34801561030657600080fd5b50610351610315366004610f22565b6001602052600090815260409020546fffffffffffffffffffffffffffffffff8082169170010000000000000000000000000000000090041682565b604080516fffffffffffffffffffffffffffffffff938416815292909116602083015201610117565b34801561038657600080fd5b506103c1610395366004610f22565b60026020526000908152604090205467ffffffffffffffff808216916801000000000000000090041682565b6040805167ffffffffffffffff938416815292909116602083015201610117565b3480156103ee57600080fd5b506101e26103fd366004610f3b565b610a4b565b34801561040e57600080fd5b506101e261041d366004610f65565b610b93565b60008581526001602090815260408083208151808301835290546fffffffffffffffffffffffffffffffff808216835270010000000000000000000000000000000090910416818401528884526002835281842082518084019093525467ffffffffffffffff80821680855268010000000000000000909204169383019390935284928792908503610515576040517f08c379a000000000000000000000000000000000000000000000000000000000815260206004820152600860248201527f216261736547617300000000000000000000000000000000000000000000000060448201526064015b60405180910390fd5b805160009061052f90859067ffffffffffffffff16611006565b83602001516fffffffffffffffffffffffffffffffff16610550919061101f565b905060006402540be40084600001516fffffffffffffffffffffffffffffffff168361057c919061101f565b6105869190611036565b905060006402540be40085600001516fffffffffffffffffffffffffffffffff1686602001516fffffffffffffffffffffffffffffffff1689876020015167ffffffffffffffff166105d8919061101f565b6105e2919061101f565b6105ec919061101f565b6105f69190611036565b90506106028183611006565b9d9c50505050505050505050505050565b60005473ffffffffffffffffffffffffffffffffffffffff163314610694576040517f08c379a000000000000000000000000000000000000000000000000000000000815260206004820152600660248201527f216f776e65720000000000000000000000000000000000000000000000000000604482015260640161050c565b73ffffffffffffffffffffffffffffffffffffffff821660008181526003602090815260409182902080547fffffffffffffffffffffffffffffffffffffffffffffffffffffffffffffff00168515159081179091558251938452908301527fd984ea421ae5d2a473199f85e03998a04a12f54d6f1fa183a955b3df1c0c546d910160405180910390a15050565b3360009081526003602052604090205460ff1661079b576040517f08c379a000000000000000000000000000000000000000000000000000000000815260206004820152600860248201527f21617070726f7665000000000000000000000000000000000000000000000000604482015260640161050c565b60408051808201825267ffffffffffffffff848116808352848216602080850182815260008a815260028352879020955186549151861668010000000000000000027fffffffffffffffffffffffffffffffff000000000000000000000000000000009092169516949094179390931790935583519081529081019190915284917f22f5a8bc0090523dde00cddddb6a70e17d4f457f4b823137143657c8844d8eac91015b60405180910390a2505050565b60005473ffffffffffffffffffffffffffffffffffffffff1633146108ce576040517f08c379a000000000000000000000000000000000000000000000000000000000815260206004820152600660248201527f216f776e65720000000000000000000000000000000000000000000000000000604482015260640161050c565b6000805473ffffffffffffffffffffffffffffffffffffffff8381167fffffffffffffffffffffffff0000000000000000000000000000000000000000831681178455604051919092169283917f8be0079c531659141344cd1fd0a4f28419497f9722a3daafe3b4186f6b6457e09190a35050565b3360009081526003602052604090205460ff166109bc576040517f08c379a000000000000000000000000000000000000000000000000000000000815260206004820152600860248201527f21617070726f7665000000000000000000000000000000000000000000000000604482015260640161050c565b6040805180820182526fffffffffffffffffffffffffffffffff848116808352848216602080850182815260008a8152600183528790209551905185167001000000000000000000000000000000000294169390931790935583519081529081019190915284917f1ec2caaeffa2fe858d7b732753d0bfd5a9cda5f73f3527136bca5a11c2f1d4b39101610840565b3360009081526003602052604090205460ff16610ac4576040517f08c379a000000000000000000000000000000000000000000000000000000000815260206004820152600860248201527f21617070726f7665000000000000000000000000000000000000000000000000604482015260640161050c565b60008273ffffffffffffffffffffffffffffffffffffffff168260405160006040518083038185875af1925050503d8060008114610b1e576040519150601f19603f3d011682016040523d82523d6000602084013e610b23565b606091505b5050905080610b8e576040517f08c379a000000000000000000000000000000000000000000000000000000000815260206004820152600960248201527f2177697468647261770000000000000000000000000000000000000000000000604482015260640161050c565b505050565b3360009081526003602052604090205460ff16610c0c576040517f08c379a000000000000000000000000000000000000000000000000000000000815260206004820152600860248201527f21617070726f7665000000000000000000000000000000000000000000000000604482015260640161050c565b6040517fee6ad16700000000000000000000000000000000000000000000000000000000815273ffffffffffffffffffffffffffffffffffffffff7f000000000000000000000000d1c04cd01ca448698ee92f97589767552f8f66c8169063ee6ad16790610c829086908690869060040161111e565b6020604051808303816000875af1158015610ca1573d6000803e3d6000fd5b505050506040513d601f19601f82011682018060405250810190610cc591906111f4565b50505050565b803573ffffffffffffffffffffffffffffffffffffffff81168114610cef57600080fd5b919050565b60008083601f840112610d0657600080fd5b50813567ffffffffffffffff811115610d1e57600080fd5b602083019150836020828501011115610d3657600080fd5b9250929050565b600080600080600060808688031215610d5557600080fd5b85359450610d6560208701610ccb565b935060408601359250606086013567ffffffffffffffff811115610d8857600080fd5b610d9488828901610cf4565b969995985093965092949392505050565b600060208083528351808285015260005b81811015610dd257858101830151858201604001528201610db6565b5060006040828601015260407fffffffffffffffffffffffffffffffffffffffffffffffffffffffffffffffe0601f8301168501019250505092915050565b600060208284031215610e2357600080fd5b610e2c82610ccb565b9392505050565b8015158114610e4157600080fd5b50565b60008060408385031215610e5757600080fd5b610e6083610ccb565b91506020830135610e7081610e33565b809150509250929050565b803567ffffffffffffffff81168114610cef57600080fd5b600080600060608486031215610ea857600080fd5b83359250610eb860208501610e7b565b9150610ec660408501610e7b565b90509250925092565b80356fffffffffffffffffffffffffffffffff81168114610cef57600080fd5b600080600060608486031215610f0457600080fd5b83359250610f1460208501610ecf565b9150610ec660408501610ecf565b600060208284031215610f3457600080fd5b5035919050565b60008060408385031215610f4e57600080fd5b610f5783610ccb565b946020939093013593505050565b600080600060408486031215610f7a57600080fd5b833567ffffffffffffffff80821115610f9257600080fd5b908501906101008288031215610fa757600080fd5b90935060208501359080821115610fbd57600080fd5b50610fca86828701610cf4565b9497909650939450505050565b7f4e487b7100000000000000000000000000000000000000000000000000000000600052601160045260246000fd5b8082018082111561101957611019610fd7565b92915050565b808202811582820484141761101957611019610fd7565b60008261106c577f4e487b7100000000000000000000000000000000000000000000000000000000600052601260045260246000fd5b500490565b60008083357fffffffffffffffffffffffffffffffffffffffffffffffffffffffffffffffe18436030181126110a657600080fd5b830160208101925035905067ffffffffffffffff8111156110c657600080fd5b803603821315610d3657600080fd5b8183528181602085013750600060208284010152600060207fffffffffffffffffffffffffffffffffffffffffffffffffffffffffffffffe0601f840116840101905092915050565b60408152600073ffffffffffffffffffffffffffffffffffffffff8061114387610ccb565b16604084015260208601356060840152604086013560808401528061116a60608801610ccb565b1660a084015250608085013560c083015261118760a08601610ccb565b73ffffffffffffffffffffffffffffffffffffffff811660e08401525061010060c0860135818401526111bd60e0870187611071565b826101208601526111d3610140860182846110d5565b9250505082810360208401526111ea8185876110d5565b9695505050505050565b60006020828403121561120657600080fd5b8151610e2c81610e3356fea2646970667358221220179b293b743d0bc5dd630cf259d6c7b4e00769e75c67fbeeedbeb82ca450a60164736f6c63430008110033",
	"devdoc": {
		"kind": "dev",
		"methods": {},
		"version": 1
	},
	"userdoc": {
		"kind": "user",
		"methods": {},
		"version": 1
	},
	"gitCommit": "ea8caff26eeb31c3189033ff62ea530464fdf5ab",
	"sourceName": "lib/ORMP/src/eco/Relayer.sol",
	"chainId": "421614",
	"linkReferences": {},
	"deployedLinkReferences": {},
	"history": []
}