{
	"_format": "sphinx-sol-ct-artifact-1",
	"merkleRoot": "0x8ed8ae243a4823b490402b72a5a66bd6367651f42c7ca9d53351953dddb0461a",
	"contractName": "ORMP",
	"address": "0x13b2211a7cA45Db2808F6dB05557ce5347e3634e",
	"abi": [
		{
			"type": "constructor",
			"inputs": [
				{
					"name": "dao",
					"type": "address",
					"internalType": "address"
				}
			],
			"stateMutability": "nonpayable"
		},
		{
			"type": "function",
			"name": "LOCAL_CHAINID",
			"inputs": [],
			"outputs": [
				{
					"name": "",
					"type": "uint256",
					"internalType": "uint256"
				}
			],
			"stateMutability": "view"
		},
		{
			"type": "function",
			"name": "changeSetter",
			"inputs": [
				{
					"name": "newSetter",
					"type": "address",
					"internalType": "address"
				}
			],
			"outputs": [],
			"stateMutability": "nonpayable"
		},
		{
			"type": "function",
			"name": "count",
			"inputs": [],
			"outputs": [
				{
					"name": "",
					"type": "uint256",
					"internalType": "uint256"
				}
			],
			"stateMutability": "view"
		},
		{
			"type": "function",
			"name": "defaultUC",
			"inputs": [],
			"outputs": [
				{
					"name": "oracle",
					"type": "address",
					"internalType": "address"
				},
				{
					"name": "relayer",
					"type": "address",
					"internalType": "address"
				}
			],
			"stateMutability": "view"
		},
		{
			"type": "function",
			"name": "dones",
			"inputs": [
				{
					"name": "",
					"type": "bytes32",
					"internalType": "bytes32"
				}
			],
			"outputs": [
				{
					"name": "",
					"type": "bool",
					"internalType": "bool"
				}
			],
			"stateMutability": "view"
		},
		{
			"type": "function",
			"name": "fee",
			"inputs": [
				{
					"name": "toChainId",
					"type": "uint256",
					"internalType": "uint256"
				},
				{
					"name": "ua",
					"type": "address",
					"internalType": "address"
				},
				{
					"name": "gasLimit",
					"type": "uint256",
					"internalType": "uint256"
				},
				{
					"name": "encoded",
					"type": "bytes",
					"internalType": "bytes"
				},
				{
					"name": "params",
					"type": "bytes",
					"internalType": "bytes"
				}
			],
			"outputs": [
				{
					"name": "",
					"type": "uint256",
					"internalType": "uint256"
				}
			],
			"stateMutability": "view"
		},
		{
			"type": "function",
			"name": "getAppConfig",
			"inputs": [
				{
					"name": "ua",
					"type": "address",
					"internalType": "address"
				}
			],
			"outputs": [
				{
					"name": "",
					"type": "tuple",
					"internalType": "struct UC",
					"components": [
						{
							"name": "oracle",
							"type": "address",
							"internalType": "address"
						},
						{
							"name": "relayer",
							"type": "address",
							"internalType": "address"
						}
					]
				}
			],
			"stateMutability": "view"
		},
		{
			"type": "function",
			"name": "hashLookup",
			"inputs": [
				{
					"name": "",
					"type": "address",
					"internalType": "address"
				},
				{
					"name": "",
					"type": "bytes32",
					"internalType": "bytes32"
				}
			],
			"outputs": [
				{
					"name": "",
					"type": "bytes32",
					"internalType": "bytes32"
				}
			],
			"stateMutability": "view"
		},
		{
			"type": "function",
			"name": "importHash",
			"inputs": [
				{
					"name": "chainId",
					"type": "uint256",
					"internalType": "uint256"
				},
				{
					"name": "channel",
					"type": "address",
					"internalType": "address"
				},
				{
					"name": "msgIndex",
					"type": "uint256",
					"internalType": "uint256"
				},
				{
					"name": "hash_",
					"type": "bytes32",
					"internalType": "bytes32"
				}
			],
			"outputs": [],
			"stateMutability": "nonpayable"
		},
		{
			"type": "function",
			"name": "recv",
			"inputs": [
				{
					"name": "message",
					"type": "tuple",
					"internalType": "struct Message",
					"components": [
						{
							"name": "channel",
							"type": "address",
							"internalType": "address"
						},
						{
							"name": "index",
							"type": "uint256",
							"internalType": "uint256"
						},
						{
							"name": "fromChainId",
							"type": "uint256",
							"internalType": "uint256"
						},
						{
							"name": "from",
							"type": "address",
							"internalType": "address"
						},
						{
							"name": "toChainId",
							"type": "uint256",
							"internalType": "uint256"
						},
						{
							"name": "to",
							"type": "address",
							"internalType": "address"
						},
						{
							"name": "gasLimit",
							"type": "uint256",
							"internalType": "uint256"
						},
						{
							"name": "encoded",
							"type": "bytes",
							"internalType": "bytes"
						}
					]
				},
				{
					"name": "proof",
					"type": "bytes",
					"internalType": "bytes"
				}
			],
			"outputs": [
				{
					"name": "dispatchResult",
					"type": "bool",
					"internalType": "bool"
				}
			],
			"stateMutability": "nonpayable"
		},
		{
			"type": "function",
			"name": "send",
			"inputs": [
				{
					"name": "toChainId",
					"type": "uint256",
					"internalType": "uint256"
				},
				{
					"name": "to",
					"type": "address",
					"internalType": "address"
				},
				{
					"name": "gasLimit",
					"type": "uint256",
					"internalType": "uint256"
				},
				{
					"name": "encoded",
					"type": "bytes",
					"internalType": "bytes"
				},
				{
					"name": "refund",
					"type": "address",
					"internalType": "address"
				},
				{
					"name": "params",
					"type": "bytes",
					"internalType": "bytes"
				}
			],
			"outputs": [
				{
					"name": "",
					"type": "bytes32",
					"internalType": "bytes32"
				}
			],
			"stateMutability": "payable"
		},
		{
			"type": "function",
			"name": "setAppConfig",
			"inputs": [
				{
					"name": "oracle",
					"type": "address",
					"internalType": "address"
				},
				{
					"name": "relayer",
					"type": "address",
					"internalType": "address"
				}
			],
			"outputs": [],
			"stateMutability": "nonpayable"
		},
		{
			"type": "function",
			"name": "setDefaultConfig",
			"inputs": [
				{
					"name": "oracle",
					"type": "address",
					"internalType": "address"
				},
				{
					"name": "relayer",
					"type": "address",
					"internalType": "address"
				}
			],
			"outputs": [],
			"stateMutability": "nonpayable"
		},
		{
			"type": "function",
			"name": "setter",
			"inputs": [],
			"outputs": [
				{
					"name": "",
					"type": "address",
					"internalType": "address"
				}
			],
			"stateMutability": "view"
		},
		{
			"type": "function",
			"name": "ucOf",
			"inputs": [
				{
					"name": "",
					"type": "address",
					"internalType": "address"
				}
			],
			"outputs": [
				{
					"name": "oracle",
					"type": "address",
					"internalType": "address"
				},
				{
					"name": "relayer",
					"type": "address",
					"internalType": "address"
				}
			],
			"stateMutability": "view"
		},
		{
			"type": "function",
			"name": "version",
			"inputs": [],
			"outputs": [
				{
					"name": "",
					"type": "string",
					"internalType": "string"
				}
			],
			"stateMutability": "pure"
		},
		{
			"type": "event",
			"name": "AppConfigUpdated",
			"inputs": [
				{
					"name": "ua",
					"type": "address",
					"indexed": true,
					"internalType": "address"
				},
				{
					"name": "oracle",
					"type": "address",
					"indexed": false,
					"internalType": "address"
				},
				{
					"name": "relayer",
					"type": "address",
					"indexed": false,
					"internalType": "address"
				}
			],
			"anonymous": false
		},
		{
			"type": "event",
			"name": "DefaultConfigUpdated",
			"inputs": [
				{
					"name": "oracle",
					"type": "address",
					"indexed": false,
					"internalType": "address"
				},
				{
					"name": "relayer",
					"type": "address",
					"indexed": false,
					"internalType": "address"
				}
			],
			"anonymous": false
		},
		{
			"type": "event",
			"name": "HashImported",
			"inputs": [
				{
					"name": "oracle",
					"type": "address",
					"indexed": true,
					"internalType": "address"
				},
				{
					"name": "chainId",
					"type": "uint256",
					"indexed": false,
					"internalType": "uint256"
				},
				{
					"name": "channel",
					"type": "address",
					"indexed": false,
					"internalType": "address"
				},
				{
					"name": "msgIndex",
					"type": "uint256",
					"indexed": false,
					"internalType": "uint256"
				},
				{
					"name": "hash",
					"type": "bytes32",
					"indexed": false,
					"internalType": "bytes32"
				}
			],
			"anonymous": false
		},
		{
			"type": "event",
			"name": "MessageAccepted",
			"inputs": [
				{
					"name": "msgHash",
					"type": "bytes32",
					"indexed": true,
					"internalType": "bytes32"
				},
				{
					"name": "message",
					"type": "tuple",
					"indexed": false,
					"internalType": "struct Message",
					"components": [
						{
							"name": "channel",
							"type": "address",
							"internalType": "address"
						},
						{
							"name": "index",
							"type": "uint256",
							"internalType": "uint256"
						},
						{
							"name": "fromChainId",
							"type": "uint256",
							"internalType": "uint256"
						},
						{
							"name": "from",
							"type": "address",
							"internalType": "address"
						},
						{
							"name": "toChainId",
							"type": "uint256",
							"internalType": "uint256"
						},
						{
							"name": "to",
							"type": "address",
							"internalType": "address"
						},
						{
							"name": "gasLimit",
							"type": "uint256",
							"internalType": "uint256"
						},
						{
							"name": "encoded",
							"type": "bytes",
							"internalType": "bytes"
						}
					]
				}
			],
			"anonymous": false
		},
		{
			"type": "event",
			"name": "MessageAssigned",
			"inputs": [
				{
					"name": "msgHash",
					"type": "bytes32",
					"indexed": true,
					"internalType": "bytes32"
				},
				{
					"name": "oracle",
					"type": "address",
					"indexed": true,
					"internalType": "address"
				},
				{
					"name": "relayer",
					"type": "address",
					"indexed": true,
					"internalType": "address"
				},
				{
					"name": "oracleFee",
					"type": "uint256",
					"indexed": false,
					"internalType": "uint256"
				},
				{
					"name": "relayerFee",
					"type": "uint256",
					"indexed": false,
					"internalType": "uint256"
				},
				{
					"name": "params",
					"type": "bytes",
					"indexed": false,
					"internalType": "bytes"
				}
			],
			"anonymous": false
		},
		{
			"type": "event",
			"name": "MessageDispatched",
			"inputs": [
				{
					"name": "msgHash",
					"type": "bytes32",
					"indexed": true,
					"internalType": "bytes32"
				},
				{
					"name": "dispatchResult",
					"type": "bool",
					"indexed": false,
					"internalType": "bool"
				}
			],
			"anonymous": false
		},
		{
			"type": "event",
			"name": "SetterChanged",
			"inputs": [
				{
					"name": "oldSetter",
					"type": "address",
					"indexed": true,
					"internalType": "address"
				},
				{
					"name": "newSetter",
					"type": "address",
					"indexed": true,
					"internalType": "address"
				}
			],
			"anonymous": false
		}
	],
	"solcInputHash": "bd281d871188d23306cfa03337a3378b",
	"args": [
		"0x040f331774Ed6BB161412B4cEDb1358B382aF3A5"
	],
	"bytecode": "0x60a06040526001600081905580553060805234801561001d57600080fd5b50604051611f1c380380611f1c83398101604081905261003c91610061565b600280546001600160a01b0319166001600160a01b0392909216919091179055610091565b60006020828403121561007357600080fd5b81516001600160a01b038116811461008a57600080fd5b9392505050565b608051611e706100ac6000396000610bfa0152611e706000f3fe6080604052600436106100f35760003560e01c806354fd4d501161008a5780638b229091116100595780638b2290911461038f578063b0ff5e72146103af578063ee6ad167146103c2578063f67c907c146103f257600080fd5b806354fd4d50146102d8578063559e7230146103245780635e26462c1461035c5780635f3abe961461036f57600080fd5b80633f3108f7116100c65780633f3108f7146101de57806341342249146102305780634872824f146102845780634ea59979146102b857600080fd5b806306661abd146100f85780630f988a73146101215780631c2b2da6146101435780633c50e17814610163575b600080fd5b34801561010457600080fd5b5061010e60075481565b6040519081526020015b60405180910390f35b34801561012d57600080fd5b5061014161013c36600461158e565b610422565b005b34801561014f57600080fd5b5061010e61015e3660046115f9565b61051f565b34801561016f57600080fd5b506101b161017e36600461158e565b6005602052600090815260409020805460019091015473ffffffffffffffffffffffffffffffffffffffff918216911682565b6040805173ffffffffffffffffffffffffffffffffffffffff938416815292909116602083015201610118565b3480156101ea57600080fd5b5060025461020b9073ffffffffffffffffffffffffffffffffffffffff1681565b60405173ffffffffffffffffffffffffffffffffffffffff9091168152602001610118565b34801561023c57600080fd5b5061025061024b36600461158e565b610674565b60408051825173ffffffffffffffffffffffffffffffffffffffff9081168252602093840151169281019290925201610118565b34801561029057600080fd5b506003546004546101b19173ffffffffffffffffffffffffffffffffffffffff908116911682565b3480156102c457600080fd5b506101416102d336600461168d565b61072b565b3480156102e457600080fd5b50604080518082018252600581527f322e312e3000000000000000000000000000000000000000000000000000000060208201529051610118919061172e565b34801561033057600080fd5b5061010e61033f366004611741565b600860209081526000928352604080842090915290825290205481565b61010e61036a36600461176b565b61084e565b34801561037b57600080fd5b5061014161038a366004611812565b6108f9565b34801561039b57600080fd5b506101416103aa36600461168d565b6109e3565b3480156103bb57600080fd5b504661010e565b3480156103ce57600080fd5b506103e26103dd36600461184d565b610aa2565b6040519015158152602001610118565b3480156103fe57600080fd5b506103e261040d3660046118bf565b60066020526000908152604090205460ff1681565b60025473ffffffffffffffffffffffffffffffffffffffff1633146104a8576040517f08c379a000000000000000000000000000000000000000000000000000000000815260206004820152600560248201527f216175746800000000000000000000000000000000000000000000000000000060448201526064015b60405180910390fd5b6002805473ffffffffffffffffffffffffffffffffffffffff8381167fffffffffffffffffffffffff0000000000000000000000000000000000000000831681179093556040519116919082907fb0999394a8202229d1e14c6290230863233f18473f7504b3a7b1a27f9b014c9d90600090a35050565b60008061052b88610674565b90506000816020015173ffffffffffffffffffffffffffffffffffffffff16631c2b2da68b8b8b8b8b8b8b6040518863ffffffff1660e01b81526004016105789796959493929190611921565b602060405180830381865afa158015610595573d6000803e3d6000fd5b505050506040513d601f19601f820116820180604052508101906105b9919061197e565b82516040517fa1dbf432000000000000000000000000000000000000000000000000000000008152600481018d905273ffffffffffffffffffffffffffffffffffffffff8c811660248301529293506000929091169063a1dbf43290604401602060405180830381865afa158015610635573d6000803e3d6000fd5b505050506040513d601f19601f82011682018060405250810190610659919061197e565b905061066581836119c6565b9b9a5050505050505050505050565b6040805180820182526000808252602080830182905273ffffffffffffffffffffffffffffffffffffffff858116835260058252918490208451808601909552805483168552600101549091169083018190529091906106ed5760045473ffffffffffffffffffffffffffffffffffffffff1660208201525b805173ffffffffffffffffffffffffffffffffffffffff166107255760035473ffffffffffffffffffffffffffffffffffffffff1681525b92915050565b60025473ffffffffffffffffffffffffffffffffffffffff1633146107ac576040517f08c379a000000000000000000000000000000000000000000000000000000000815260206004820152600560248201527f2161757468000000000000000000000000000000000000000000000000000000604482015260640161049f565b60408051808201825273ffffffffffffffffffffffffffffffffffffffff8481168083529084166020928301819052600380547fffffffffffffffffffffffff0000000000000000000000000000000000000000908116841790915560048054909116821790558351918252918101919091527f504f152883e6158786ddfcce63f4d4d95ce8e404b1f6e6365a06f63849b7cb95910160405180910390a15050565b60006001600054146108bc576040517f08c379a000000000000000000000000000000000000000000000000000000000815260206004820152601060248201527f2173656e642d7265656e7472616e637900000000000000000000000000000000604482015260640161049f565b6002600090815533906108d3828c8c8c8c8c610b7f565b90506108e68287838e8d8d8d8c8c610d2a565b60016000559a9950505050505050505050565b604080516020810186905273ffffffffffffffffffffffffffffffffffffffff85169181019190915260608101839052600090608001604080518083037fffffffffffffffffffffffffffffffffffffffffffffffffffffffffffffffe0018152828252805160209182012033600081815260088452848120838252845284902087905589855273ffffffffffffffffffffffffffffffffffffffff89169285019290925291830186905260608301859052909250907fa931ec14fe958397dcb26e285e56292c13d77907712b51bbaa24cfc9349b789d9060800160405180910390a25050505050565b60408051808201825273ffffffffffffffffffffffffffffffffffffffff848116808352848216602080850182815233600081815260058452889020965187549087167fffffffffffffffffffffffff000000000000000000000000000000000000000091821617885591516001909701805497909616969091169590951790935584519182529181019190915290917f86b44d92ad94c11b25d0f08d0f55e8e235b4d165e62e541c02e8ee19f551c97b910160405180910390a25050565b60006001805414610b0f576040517f08c379a000000000000000000000000000000000000000000000000000000000815260206004820152601060248201527f21726563762d7265656e7472616e637900000000000000000000000000000000604482015260640161049f565b60026001556000610b21858585610e8e565b9050610b35610b2f86611add565b82611169565b9150807f62b1dc20fd6f1518626da5b6f9897e8cd4ebadbad071bb66dc96a37c970087a883604051610b6b911515815260200190565b60405180910390a250600180559392505050565b6000468603610bea576040517f08c379a000000000000000000000000000000000000000000000000000000000815260206004820152600c60248201527f2163726f73732d636861696e0000000000000000000000000000000000000000604482015260640161049f565b60006040518061010001604052807f000000000000000000000000000000000000000000000000000000000000000073ffffffffffffffffffffffffffffffffffffffff1681526020016007548152602001610c434690565b81526020018973ffffffffffffffffffffffffffffffffffffffff1681526020018881526020018773ffffffffffffffffffffffffffffffffffffffff16815260200186815260200185858080601f016020809104026020016040519081016040528093929190818152602001838380828437600092018290525093909452509293509150610cd3905082611289565b9050807fcfb9b3466878aff0c7df17da215fd57d59eb245a5d03f5a7b57294d54581eb1883604051610d059190611b7f565b60405180910390a2600754610d1b9060016119c6565b60075598975050505050505050565b6000610d358a610674565b90506000610d4d8260200151898d8a8a8a8a8a6112b9565b90506000610d6083600001518a8e61135b565b9050826020015173ffffffffffffffffffffffffffffffffffffffff16836000015173ffffffffffffffffffffffffffffffffffffffff168b7f3832f95736b288316c84b775a004a9d17177362548ce253cba9acb4801875f4d84868a8a604051610dce9493929190611c1c565b60405180910390a4610de081836119c6565b341015610e4b576040517f08c379a000000000000000000000000000000000000000000000000000000000815260040161049f9060208082526004908201527f2166656500000000000000000000000000000000000000000000000000000000604082015260600190565b610e5581836119c6565b341115610e80576000610e6882846119c6565b610e729034611c46565b9050610e7e8c8261140b565b505b505050505050505050505050565b600080610ea461024b60c0870160a0880161158e565b602081015190915073ffffffffffffffffffffffffffffffffffffffff163314610f2a576040517f08c379a000000000000000000000000000000000000000000000000000000000815260206004820152600560248201527f2161757468000000000000000000000000000000000000000000000000000000604482015260640161049f565b80516040517f651b04a700000000000000000000000000000000000000000000000000000000815273ffffffffffffffffffffffffffffffffffffffff9091169063651b04a790610f8390889088908890600401611cbd565b602060405180830381865afa158015610fa0573d6000803e3d6000fd5b505050506040513d601f19601f82011682018060405250810190610fc49190611d89565b61102a576040517f08c379a000000000000000000000000000000000000000000000000000000000815260206004820152600660248201527f2170726f6f660000000000000000000000000000000000000000000000000000604482015260640161049f565b60808501354614611097576040517f08c379a000000000000000000000000000000000000000000000000000000000815260206004820152600a60248201527f21746f436861696e496400000000000000000000000000000000000000000000604482015260640161049f565b60006110aa6110a587611add565b611289565b60008181526006602052604090205490915060ff1615611128576040517f08c379a000000000000000000000000000000000000000000000000000000000815260040161049f9060208082526004908201527f646f6e6500000000000000000000000000000000000000000000000000000000604082015260600190565b600081815260066020526040902080547fffffffffffffffffffffffffffffffffffffffffffffffffffffffffffffff001660011790559150509392505050565b6000806113885a61117a9190611c46565b60c085015190915061118d604083611dab565b6111979083611c46565b11611200576040517f08c379a000000000000000000000000000000000000000000000000000000000815260040161049f9060208082526004908201527f2167617300000000000000000000000000000000000000000000000000000000604082015260600190565b6112808460c001516000808760e001518789604001518a6060015160405160200161122e9493929190611de6565b604080517fffffffffffffffffffffffffffffffffffffffffffffffffffffffffffffffe081840301815291905260a089015173ffffffffffffffffffffffffffffffffffffffff16939291906114da565b50949350505050565b60008160405160200161129c9190611b7f565b604051602081830303815290604052805190602001209050919050565b6000808973ffffffffffffffffffffffffffffffffffffffff16631c2b2da68a8a8a8a8a8a8a6040518863ffffffff1660e01b81526004016113019796959493929190611921565b602060405180830381865afa15801561131e573d6000803e3d6000fd5b505050506040513d601f19601f82011682018060405250810190611342919061197e565b905061134e8a8261140b565b9998505050505050505050565b6040517fa1dbf4320000000000000000000000000000000000000000000000000000000081526004810183905273ffffffffffffffffffffffffffffffffffffffff8281166024830152600091829186169063a1dbf43290604401602060405180830381865afa1580156113d3573d6000803e3d6000fd5b505050506040513d601f19601f820116820180604052508101906113f7919061197e565b9050611403858261140b565b949350505050565b60008273ffffffffffffffffffffffffffffffffffffffff168260405160006040518083038185875af1925050503d8060008114611465576040519150601f19603f3d011682016040523d82523d6000602084013e61146a565b606091505b50509050806114d5576040517f08c379a000000000000000000000000000000000000000000000000000000000815260206004820152600560248201527f2173656e64000000000000000000000000000000000000000000000000000000604482015260640161049f565b505050565b6000606060008060008661ffff1667ffffffffffffffff811115611500576115006119d9565b6040519080825280601f01601f19166020018201604052801561152a576020820181803683370190505b5090506000808751602089018b8e8ef191503d92508683111561154b578692505b828152826000602083013e90999098509650505050505050565b803573ffffffffffffffffffffffffffffffffffffffff8116811461158957600080fd5b919050565b6000602082840312156115a057600080fd5b6115a982611565565b9392505050565b60008083601f8401126115c257600080fd5b50813567ffffffffffffffff8111156115da57600080fd5b6020830191508360208285010111156115f257600080fd5b9250929050565b600080600080600080600060a0888a03121561161457600080fd5b8735965061162460208901611565565b955060408801359450606088013567ffffffffffffffff8082111561164857600080fd5b6116548b838c016115b0565b909650945060808a013591508082111561166d57600080fd5b5061167a8a828b016115b0565b989b979a50959850939692959293505050565b600080604083850312156116a057600080fd5b6116a983611565565b91506116b760208401611565565b90509250929050565b60005b838110156116db5781810151838201526020016116c3565b50506000910152565b600081518084526116fc8160208601602086016116c0565b601f017fffffffffffffffffffffffffffffffffffffffffffffffffffffffffffffffe0169290920160200192915050565b6020815260006115a960208301846116e4565b6000806040838503121561175457600080fd5b61175d83611565565b946020939093013593505050565b60008060008060008060008060c0898b03121561178757600080fd5b8835975061179760208a01611565565b965060408901359550606089013567ffffffffffffffff808211156117bb57600080fd5b6117c78c838d016115b0565b90975095508591506117db60808c01611565565b945060a08b01359150808211156117f157600080fd5b506117fe8b828c016115b0565b999c989b5096995094979396929594505050565b6000806000806080858703121561182857600080fd5b8435935061183860208601611565565b93969395505050506040820135916060013590565b60008060006040848603121561186257600080fd5b833567ffffffffffffffff8082111561187a57600080fd5b90850190610100828803121561188f57600080fd5b909350602085013590808211156118a557600080fd5b506118b2868287016115b0565b9497909650939450505050565b6000602082840312156118d157600080fd5b5035919050565b8183528181602085013750600060208284010152600060207fffffffffffffffffffffffffffffffffffffffffffffffffffffffffffffffe0601f840116840101905092915050565b87815273ffffffffffffffffffffffffffffffffffffffff8716602082015285604082015260a06060820152600061195d60a0830186886118d8565b82810360808401526119708185876118d8565b9a9950505050505050505050565b60006020828403121561199057600080fd5b5051919050565b7f4e487b7100000000000000000000000000000000000000000000000000000000600052601160045260246000fd5b8082018082111561072557610725611997565b7f4e487b7100000000000000000000000000000000000000000000000000000000600052604160045260246000fd5b604051610100810167ffffffffffffffff81118282101715611a2c57611a2c6119d9565b60405290565b600082601f830112611a4357600080fd5b813567ffffffffffffffff80821115611a5e57611a5e6119d9565b604051601f83017fffffffffffffffffffffffffffffffffffffffffffffffffffffffffffffffe0908116603f01168101908282118183101715611aa457611aa46119d9565b81604052838152866020858801011115611abd57600080fd5b836020870160208301376000602085830101528094505050505092915050565b60006101008236031215611af057600080fd5b611af8611a08565b611b0183611565565b81526020830135602082015260408301356040820152611b2360608401611565565b606082015260808301356080820152611b3e60a08401611565565b60a082015260c083013560c082015260e083013567ffffffffffffffff811115611b6757600080fd5b611b7336828601611a32565b60e08301525092915050565b60208152600073ffffffffffffffffffffffffffffffffffffffff808451166020840152602084015160408401526040840151606084015280606085015116608084015250608083015160a083015260a0830151611bf560c084018273ffffffffffffffffffffffffffffffffffffffff169052565b5060c083015160e083015260e08301516101008081850152506114036101208401826116e4565b848152836020820152606060408201526000611c3c6060830184866118d8565b9695505050505050565b8181038181111561072557610725611997565b60008083357fffffffffffffffffffffffffffffffffffffffffffffffffffffffffffffffe1843603018112611c8e57600080fd5b830160208101925035905067ffffffffffffffff811115611cae57600080fd5b8036038213156115f257600080fd5b60408152600073ffffffffffffffffffffffffffffffffffffffff80611ce287611565565b166040840152602086013560608401526040860135608084015280611d0960608801611565565b1660a084015250608085013560c0830152611d2660a08601611565565b73ffffffffffffffffffffffffffffffffffffffff811660e08401525061010060c086013581840152611d5c60e0870187611c59565b82610120860152611d72610140860182846118d8565b925050508281036020840152611c3c8185876118d8565b600060208284031215611d9b57600080fd5b815180151581146115a957600080fd5b600082611de1577f4e487b7100000000000000000000000000000000000000000000000000000000600052601260045260246000fd5b500490565b60008551611df8818460208a016116c0565b9190910193845250602083019190915260601b7fffffffffffffffffffffffffffffffffffffffff00000000000000000000000016604082015260540191905056fea2646970667358221220f4f907731981d0e9b53fa0376e8696ff7cb105e8691bb13685ec3ec20f4aa5c564736f6c63430008110033",
	"deployedBytecode": "0x6080604052600436106100f35760003560e01c806354fd4d501161008a5780638b229091116100595780638b2290911461038f578063b0ff5e72146103af578063ee6ad167146103c2578063f67c907c146103f257600080fd5b806354fd4d50146102d8578063559e7230146103245780635e26462c1461035c5780635f3abe961461036f57600080fd5b80633f3108f7116100c65780633f3108f7146101de57806341342249146102305780634872824f146102845780634ea59979146102b857600080fd5b806306661abd146100f85780630f988a73146101215780631c2b2da6146101435780633c50e17814610163575b600080fd5b34801561010457600080fd5b5061010e60075481565b6040519081526020015b60405180910390f35b34801561012d57600080fd5b5061014161013c36600461158e565b610422565b005b34801561014f57600080fd5b5061010e61015e3660046115f9565b61051f565b34801561016f57600080fd5b506101b161017e36600461158e565b6005602052600090815260409020805460019091015473ffffffffffffffffffffffffffffffffffffffff918216911682565b6040805173ffffffffffffffffffffffffffffffffffffffff938416815292909116602083015201610118565b3480156101ea57600080fd5b5060025461020b9073ffffffffffffffffffffffffffffffffffffffff1681565b60405173ffffffffffffffffffffffffffffffffffffffff9091168152602001610118565b34801561023c57600080fd5b5061025061024b36600461158e565b610674565b60408051825173ffffffffffffffffffffffffffffffffffffffff9081168252602093840151169281019290925201610118565b34801561029057600080fd5b506003546004546101b19173ffffffffffffffffffffffffffffffffffffffff908116911682565b3480156102c457600080fd5b506101416102d336600461168d565b61072b565b3480156102e457600080fd5b50604080518082018252600581527f322e312e3000000000000000000000000000000000000000000000000000000060208201529051610118919061172e565b34801561033057600080fd5b5061010e61033f366004611741565b600860209081526000928352604080842090915290825290205481565b61010e61036a36600461176b565b61084e565b34801561037b57600080fd5b5061014161038a366004611812565b6108f9565b34801561039b57600080fd5b506101416103aa36600461168d565b6109e3565b3480156103bb57600080fd5b504661010e565b3480156103ce57600080fd5b506103e26103dd36600461184d565b610aa2565b6040519015158152602001610118565b3480156103fe57600080fd5b506103e261040d3660046118bf565b60066020526000908152604090205460ff1681565b60025473ffffffffffffffffffffffffffffffffffffffff1633146104a8576040517f08c379a000000000000000000000000000000000000000000000000000000000815260206004820152600560248201527f216175746800000000000000000000000000000000000000000000000000000060448201526064015b60405180910390fd5b6002805473ffffffffffffffffffffffffffffffffffffffff8381167fffffffffffffffffffffffff0000000000000000000000000000000000000000831681179093556040519116919082907fb0999394a8202229d1e14c6290230863233f18473f7504b3a7b1a27f9b014c9d90600090a35050565b60008061052b88610674565b90506000816020015173ffffffffffffffffffffffffffffffffffffffff16631c2b2da68b8b8b8b8b8b8b6040518863ffffffff1660e01b81526004016105789796959493929190611921565b602060405180830381865afa158015610595573d6000803e3d6000fd5b505050506040513d601f19601f820116820180604052508101906105b9919061197e565b82516040517fa1dbf432000000000000000000000000000000000000000000000000000000008152600481018d905273ffffffffffffffffffffffffffffffffffffffff8c811660248301529293506000929091169063a1dbf43290604401602060405180830381865afa158015610635573d6000803e3d6000fd5b505050506040513d601f19601f82011682018060405250810190610659919061197e565b905061066581836119c6565b9b9a5050505050505050505050565b6040805180820182526000808252602080830182905273ffffffffffffffffffffffffffffffffffffffff858116835260058252918490208451808601909552805483168552600101549091169083018190529091906106ed5760045473ffffffffffffffffffffffffffffffffffffffff1660208201525b805173ffffffffffffffffffffffffffffffffffffffff166107255760035473ffffffffffffffffffffffffffffffffffffffff1681525b92915050565b60025473ffffffffffffffffffffffffffffffffffffffff1633146107ac576040517f08c379a000000000000000000000000000000000000000000000000000000000815260206004820152600560248201527f2161757468000000000000000000000000000000000000000000000000000000604482015260640161049f565b60408051808201825273ffffffffffffffffffffffffffffffffffffffff8481168083529084166020928301819052600380547fffffffffffffffffffffffff0000000000000000000000000000000000000000908116841790915560048054909116821790558351918252918101919091527f504f152883e6158786ddfcce63f4d4d95ce8e404b1f6e6365a06f63849b7cb95910160405180910390a15050565b60006001600054146108bc576040517f08c379a000000000000000000000000000000000000000000000000000000000815260206004820152601060248201527f2173656e642d7265656e7472616e637900000000000000000000000000000000604482015260640161049f565b6002600090815533906108d3828c8c8c8c8c610b7f565b90506108e68287838e8d8d8d8c8c610d2a565b60016000559a9950505050505050505050565b604080516020810186905273ffffffffffffffffffffffffffffffffffffffff85169181019190915260608101839052600090608001604080518083037fffffffffffffffffffffffffffffffffffffffffffffffffffffffffffffffe0018152828252805160209182012033600081815260088452848120838252845284902087905589855273ffffffffffffffffffffffffffffffffffffffff89169285019290925291830186905260608301859052909250907fa931ec14fe958397dcb26e285e56292c13d77907712b51bbaa24cfc9349b789d9060800160405180910390a25050505050565b60408051808201825273ffffffffffffffffffffffffffffffffffffffff848116808352848216602080850182815233600081815260058452889020965187549087167fffffffffffffffffffffffff000000000000000000000000000000000000000091821617885591516001909701805497909616969091169590951790935584519182529181019190915290917f86b44d92ad94c11b25d0f08d0f55e8e235b4d165e62e541c02e8ee19f551c97b910160405180910390a25050565b60006001805414610b0f576040517f08c379a000000000000000000000000000000000000000000000000000000000815260206004820152601060248201527f21726563762d7265656e7472616e637900000000000000000000000000000000604482015260640161049f565b60026001556000610b21858585610e8e565b9050610b35610b2f86611add565b82611169565b9150807f62b1dc20fd6f1518626da5b6f9897e8cd4ebadbad071bb66dc96a37c970087a883604051610b6b911515815260200190565b60405180910390a250600180559392505050565b6000468603610bea576040517f08c379a000000000000000000000000000000000000000000000000000000000815260206004820152600c60248201527f2163726f73732d636861696e0000000000000000000000000000000000000000604482015260640161049f565b60006040518061010001604052807f00000000000000000000000013b2211a7ca45db2808f6db05557ce5347e3634e73ffffffffffffffffffffffffffffffffffffffff1681526020016007548152602001610c434690565b81526020018973ffffffffffffffffffffffffffffffffffffffff1681526020018881526020018773ffffffffffffffffffffffffffffffffffffffff16815260200186815260200185858080601f016020809104026020016040519081016040528093929190818152602001838380828437600092018290525093909452509293509150610cd3905082611289565b9050807fcfb9b3466878aff0c7df17da215fd57d59eb245a5d03f5a7b57294d54581eb1883604051610d059190611b7f565b60405180910390a2600754610d1b9060016119c6565b60075598975050505050505050565b6000610d358a610674565b90506000610d4d8260200151898d8a8a8a8a8a6112b9565b90506000610d6083600001518a8e61135b565b9050826020015173ffffffffffffffffffffffffffffffffffffffff16836000015173ffffffffffffffffffffffffffffffffffffffff168b7f3832f95736b288316c84b775a004a9d17177362548ce253cba9acb4801875f4d84868a8a604051610dce9493929190611c1c565b60405180910390a4610de081836119c6565b341015610e4b576040517f08c379a000000000000000000000000000000000000000000000000000000000815260040161049f9060208082526004908201527f2166656500000000000000000000000000000000000000000000000000000000604082015260600190565b610e5581836119c6565b341115610e80576000610e6882846119c6565b610e729034611c46565b9050610e7e8c8261140b565b505b505050505050505050505050565b600080610ea461024b60c0870160a0880161158e565b602081015190915073ffffffffffffffffffffffffffffffffffffffff163314610f2a576040517f08c379a000000000000000000000000000000000000000000000000000000000815260206004820152600560248201527f2161757468000000000000000000000000000000000000000000000000000000604482015260640161049f565b80516040517f651b04a700000000000000000000000000000000000000000000000000000000815273ffffffffffffffffffffffffffffffffffffffff9091169063651b04a790610f8390889088908890600401611cbd565b602060405180830381865afa158015610fa0573d6000803e3d6000fd5b505050506040513d601f19601f82011682018060405250810190610fc49190611d89565b61102a576040517f08c379a000000000000000000000000000000000000000000000000000000000815260206004820152600660248201527f2170726f6f660000000000000000000000000000000000000000000000000000604482015260640161049f565b60808501354614611097576040517f08c379a000000000000000000000000000000000000000000000000000000000815260206004820152600a60248201527f21746f436861696e496400000000000000000000000000000000000000000000604482015260640161049f565b60006110aa6110a587611add565b611289565b60008181526006602052604090205490915060ff1615611128576040517f08c379a000000000000000000000000000000000000000000000000000000000815260040161049f9060208082526004908201527f646f6e6500000000000000000000000000000000000000000000000000000000604082015260600190565b600081815260066020526040902080547fffffffffffffffffffffffffffffffffffffffffffffffffffffffffffffff001660011790559150509392505050565b6000806113885a61117a9190611c46565b60c085015190915061118d604083611dab565b6111979083611c46565b11611200576040517f08c379a000000000000000000000000000000000000000000000000000000000815260040161049f9060208082526004908201527f2167617300000000000000000000000000000000000000000000000000000000604082015260600190565b6112808460c001516000808760e001518789604001518a6060015160405160200161122e9493929190611de6565b604080517fffffffffffffffffffffffffffffffffffffffffffffffffffffffffffffffe081840301815291905260a089015173ffffffffffffffffffffffffffffffffffffffff16939291906114da565b50949350505050565b60008160405160200161129c9190611b7f565b604051602081830303815290604052805190602001209050919050565b6000808973ffffffffffffffffffffffffffffffffffffffff16631c2b2da68a8a8a8a8a8a8a6040518863ffffffff1660e01b81526004016113019796959493929190611921565b602060405180830381865afa15801561131e573d6000803e3d6000fd5b505050506040513d601f19601f82011682018060405250810190611342919061197e565b905061134e8a8261140b565b9998505050505050505050565b6040517fa1dbf4320000000000000000000000000000000000000000000000000000000081526004810183905273ffffffffffffffffffffffffffffffffffffffff8281166024830152600091829186169063a1dbf43290604401602060405180830381865afa1580156113d3573d6000803e3d6000fd5b505050506040513d601f19601f820116820180604052508101906113f7919061197e565b9050611403858261140b565b949350505050565b60008273ffffffffffffffffffffffffffffffffffffffff168260405160006040518083038185875af1925050503d8060008114611465576040519150601f19603f3d011682016040523d82523d6000602084013e61146a565b606091505b50509050806114d5576040517f08c379a000000000000000000000000000000000000000000000000000000000815260206004820152600560248201527f2173656e64000000000000000000000000000000000000000000000000000000604482015260640161049f565b505050565b6000606060008060008661ffff1667ffffffffffffffff811115611500576115006119d9565b6040519080825280601f01601f19166020018201604052801561152a576020820181803683370190505b5090506000808751602089018b8e8ef191503d92508683111561154b578692505b828152826000602083013e90999098509650505050505050565b803573ffffffffffffffffffffffffffffffffffffffff8116811461158957600080fd5b919050565b6000602082840312156115a057600080fd5b6115a982611565565b9392505050565b60008083601f8401126115c257600080fd5b50813567ffffffffffffffff8111156115da57600080fd5b6020830191508360208285010111156115f257600080fd5b9250929050565b600080600080600080600060a0888a03121561161457600080fd5b8735965061162460208901611565565b955060408801359450606088013567ffffffffffffffff8082111561164857600080fd5b6116548b838c016115b0565b909650945060808a013591508082111561166d57600080fd5b5061167a8a828b016115b0565b989b979a50959850939692959293505050565b600080604083850312156116a057600080fd5b6116a983611565565b91506116b760208401611565565b90509250929050565b60005b838110156116db5781810151838201526020016116c3565b50506000910152565b600081518084526116fc8160208601602086016116c0565b601f017fffffffffffffffffffffffffffffffffffffffffffffffffffffffffffffffe0169290920160200192915050565b6020815260006115a960208301846116e4565b6000806040838503121561175457600080fd5b61175d83611565565b946020939093013593505050565b60008060008060008060008060c0898b03121561178757600080fd5b8835975061179760208a01611565565b965060408901359550606089013567ffffffffffffffff808211156117bb57600080fd5b6117c78c838d016115b0565b90975095508591506117db60808c01611565565b945060a08b01359150808211156117f157600080fd5b506117fe8b828c016115b0565b999c989b5096995094979396929594505050565b6000806000806080858703121561182857600080fd5b8435935061183860208601611565565b93969395505050506040820135916060013590565b60008060006040848603121561186257600080fd5b833567ffffffffffffffff8082111561187a57600080fd5b90850190610100828803121561188f57600080fd5b909350602085013590808211156118a557600080fd5b506118b2868287016115b0565b9497909650939450505050565b6000602082840312156118d157600080fd5b5035919050565b8183528181602085013750600060208284010152600060207fffffffffffffffffffffffffffffffffffffffffffffffffffffffffffffffe0601f840116840101905092915050565b87815273ffffffffffffffffffffffffffffffffffffffff8716602082015285604082015260a06060820152600061195d60a0830186886118d8565b82810360808401526119708185876118d8565b9a9950505050505050505050565b60006020828403121561199057600080fd5b5051919050565b7f4e487b7100000000000000000000000000000000000000000000000000000000600052601160045260246000fd5b8082018082111561072557610725611997565b7f4e487b7100000000000000000000000000000000000000000000000000000000600052604160045260246000fd5b604051610100810167ffffffffffffffff81118282101715611a2c57611a2c6119d9565b60405290565b600082601f830112611a4357600080fd5b813567ffffffffffffffff80821115611a5e57611a5e6119d9565b604051601f83017fffffffffffffffffffffffffffffffffffffffffffffffffffffffffffffffe0908116603f01168101908282118183101715611aa457611aa46119d9565b81604052838152866020858801011115611abd57600080fd5b836020870160208301376000602085830101528094505050505092915050565b60006101008236031215611af057600080fd5b611af8611a08565b611b0183611565565b81526020830135602082015260408301356040820152611b2360608401611565565b606082015260808301356080820152611b3e60a08401611565565b60a082015260c083013560c082015260e083013567ffffffffffffffff811115611b6757600080fd5b611b7336828601611a32565b60e08301525092915050565b60208152600073ffffffffffffffffffffffffffffffffffffffff808451166020840152602084015160408401526040840151606084015280606085015116608084015250608083015160a083015260a0830151611bf560c084018273ffffffffffffffffffffffffffffffffffffffff169052565b5060c083015160e083015260e08301516101008081850152506114036101208401826116e4565b848152836020820152606060408201526000611c3c6060830184866118d8565b9695505050505050565b8181038181111561072557610725611997565b60008083357fffffffffffffffffffffffffffffffffffffffffffffffffffffffffffffffe1843603018112611c8e57600080fd5b830160208101925035905067ffffffffffffffff811115611cae57600080fd5b8036038213156115f257600080fd5b60408152600073ffffffffffffffffffffffffffffffffffffffff80611ce287611565565b166040840152602086013560608401526040860135608084015280611d0960608801611565565b1660a084015250608085013560c0830152611d2660a08601611565565b73ffffffffffffffffffffffffffffffffffffffff811660e08401525061010060c086013581840152611d5c60e0870187611c59565b82610120860152611d72610140860182846118d8565b925050508281036020840152611c3c8185876118d8565b600060208284031215611d9b57600080fd5b815180151581146115a957600080fd5b600082611de1577f4e487b7100000000000000000000000000000000000000000000000000000000600052601260045260246000fd5b500490565b60008551611df8818460208a016116c0565b9190910193845250602083019190915260601b7fffffffffffffffffffffffffffffffffffffffff00000000000000000000000016604082015260540191905056fea2646970667358221220f4f907731981d0e9b53fa0376e8696ff7cb105e8691bb13685ec3ec20f4aa5c564736f6c63430008110033",
	"devdoc": {
		"kind": "dev",
		"methods": {
			"LOCAL_CHAINID()": {
				"details": "Fetch local chain id.",
				"returns": {
					"_0": "chainId Local chain id."
				}
			},
			"changeSetter(address)": {
				"details": "Change setter.",
				"params": {
					"newSetter": "New setter."
				}
			},
			"fee(uint256,address,uint256,bytes,bytes)": {
				"params": {
					"encoded": "The calldata which encoded by ABI Encoding.",
					"gasLimit": "Gas limit for destination user application used.",
					"params": "General extensibility for relayer to custom functionality."
				}
			},
			"getAppConfig(address)": {
				"details": "Fetch user application config.",
				"params": {
					"ua": "User application contract address."
				},
				"returns": {
					"_0": "user application config."
				}
			},
			"importHash(uint256,address,uint256,bytes32)": {
				"details": "Import hash by any oracle address.",
				"params": {
					"chainId": "The source chain id.",
					"channel": "The message channel.",
					"hash_": "The hash to import.",
					"msgIndex": "The source chain message index."
				}
			},
			"recv((address,uint256,uint256,address,uint256,address,uint256,bytes),bytes)": {
				"details": "Recv verified message from Channel and dispatch to destination user application address.",
				"params": {
					"message": "Verified receive message info.",
					"proof": "Message proof of this message."
				},
				"returns": {
					"dispatchResult": "Result of the message dispatch."
				}
			},
			"send(uint256,address,uint256,bytes,address,bytes)": {
				"details": "Send a cross-chain message over the endpoint.",
				"params": {
					"encoded": "The calldata which encoded by ABI Encoding.",
					"gasLimit": "Gas limit for destination user application used.",
					"params": "General extensibility for relayer to custom functionality.",
					"refund": "Return extra fee to refund address.",
					"to": "User application contract address which receive the message.",
					"toChainId": "The Message destination chain id."
				}
			},
			"setAppConfig(address,address)": {
				"params": {
					"oracle": "Oracle which user application.",
					"relayer": "Relayer which user application choose."
				}
			},
			"setDefaultConfig(address,address)": {
				"details": "Set default user config for all user application.",
				"params": {
					"oracle": "Default oracle.",
					"relayer": "Default relayer."
				}
			}
		},
		"version": 1
	},
	"userdoc": {
		"kind": "user",
		"methods": {
			"changeSetter(address)": {
				"notice": "Only current setter could call."
			},
			"getAppConfig(address)": {
				"notice": "If user application has not configured, then the default user config is used."
			},
			"hashLookup(address,bytes32)": {
				"notice": "oracle => lookupKey => hash"
			},
			"importHash(uint256,address,uint256,bytes32)": {
				"notice": "Hash is an abstract of the proof system, it can be a block hash or a message root hash,  \t\tspecifically provided by oracles."
			},
			"recv((address,uint256,uint256,address,uint256,address,uint256,bytes),bytes)": {
				"notice": "Only channel could call this function."
			},
			"send(uint256,address,uint256,bytes,address,bytes)": {
				"notice": "follow https://eips.ethereum.org/EIPS/eip-5750"
			},
			"setAppConfig(address,address)": {
				"notice": "Set user application config."
			},
			"setDefaultConfig(address,address)": {
				"notice": "Only setter could call."
			}
		},
		"version": 1
	},
	"gitCommit": "b8c8b8bfc2f87ee2728eea8c3781e155c1988299",
	"sourceName": "lib/ORMP/src/ORMP.sol",
	"chainId": "44",
	"linkReferences": {},
	"deployedLinkReferences": {},
	"history": [
		{
			"_format": "sphinx-sol-ct-artifact-1",
			"merkleRoot": "0x8ed8ae243a4823b490402b72a5a66bd6367651f42c7ca9d53351953dddb0461a",
			"contractName": "ORMP",
			"address": "0x13b2211a7cA45Db2808F6dB05557ce5347e3634e",
			"abi": [
				{
					"type": "constructor",
					"inputs": [
						{
							"name": "dao",
							"type": "address",
							"internalType": "address"
						}
					],
					"stateMutability": "nonpayable"
				},
				{
					"type": "function",
					"name": "LOCAL_CHAINID",
					"inputs": [],
					"outputs": [
						{
							"name": "",
							"type": "uint256",
							"internalType": "uint256"
						}
					],
					"stateMutability": "view"
				},
				{
					"type": "function",
					"name": "changeSetter",
					"inputs": [
						{
							"name": "newSetter",
							"type": "address",
							"internalType": "address"
						}
					],
					"outputs": [],
					"stateMutability": "nonpayable"
				},
				{
					"type": "function",
					"name": "count",
					"inputs": [],
					"outputs": [
						{
							"name": "",
							"type": "uint256",
							"internalType": "uint256"
						}
					],
					"stateMutability": "view"
				},
				{
					"type": "function",
					"name": "defaultUC",
					"inputs": [],
					"outputs": [
						{
							"name": "oracle",
							"type": "address",
							"internalType": "address"
						},
						{
							"name": "relayer",
							"type": "address",
							"internalType": "address"
						}
					],
					"stateMutability": "view"
				},
				{
					"type": "function",
					"name": "dones",
					"inputs": [
						{
							"name": "",
							"type": "bytes32",
							"internalType": "bytes32"
						}
					],
					"outputs": [
						{
							"name": "",
							"type": "bool",
							"internalType": "bool"
						}
					],
					"stateMutability": "view"
				},
				{
					"type": "function",
					"name": "fee",
					"inputs": [
						{
							"name": "toChainId",
							"type": "uint256",
							"internalType": "uint256"
						},
						{
							"name": "ua",
							"type": "address",
							"internalType": "address"
						},
						{
							"name": "gasLimit",
							"type": "uint256",
							"internalType": "uint256"
						},
						{
							"name": "encoded",
							"type": "bytes",
							"internalType": "bytes"
						},
						{
							"name": "params",
							"type": "bytes",
							"internalType": "bytes"
						}
					],
					"outputs": [
						{
							"name": "",
							"type": "uint256",
							"internalType": "uint256"
						}
					],
					"stateMutability": "view"
				},
				{
					"type": "function",
					"name": "getAppConfig",
					"inputs": [
						{
							"name": "ua",
							"type": "address",
							"internalType": "address"
						}
					],
					"outputs": [
						{
							"name": "",
							"type": "tuple",
							"internalType": "struct UC",
							"components": [
								{
									"name": "oracle",
									"type": "address",
									"internalType": "address"
								},
								{
									"name": "relayer",
									"type": "address",
									"internalType": "address"
								}
							]
						}
					],
					"stateMutability": "view"
				},
				{
					"type": "function",
					"name": "hashLookup",
					"inputs": [
						{
							"name": "",
							"type": "address",
							"internalType": "address"
						},
						{
							"name": "",
							"type": "bytes32",
							"internalType": "bytes32"
						}
					],
					"outputs": [
						{
							"name": "",
							"type": "bytes32",
							"internalType": "bytes32"
						}
					],
					"stateMutability": "view"
				},
				{
					"type": "function",
					"name": "importHash",
					"inputs": [
						{
							"name": "chainId",
							"type": "uint256",
							"internalType": "uint256"
						},
						{
							"name": "channel",
							"type": "address",
							"internalType": "address"
						},
						{
							"name": "msgIndex",
							"type": "uint256",
							"internalType": "uint256"
						},
						{
							"name": "hash_",
							"type": "bytes32",
							"internalType": "bytes32"
						}
					],
					"outputs": [],
					"stateMutability": "nonpayable"
				},
				{
					"type": "function",
					"name": "recv",
					"inputs": [
						{
							"name": "message",
							"type": "tuple",
							"internalType": "struct Message",
							"components": [
								{
									"name": "channel",
									"type": "address",
									"internalType": "address"
								},
								{
									"name": "index",
									"type": "uint256",
									"internalType": "uint256"
								},
								{
									"name": "fromChainId",
									"type": "uint256",
									"internalType": "uint256"
								},
								{
									"name": "from",
									"type": "address",
									"internalType": "address"
								},
								{
									"name": "toChainId",
									"type": "uint256",
									"internalType": "uint256"
								},
								{
									"name": "to",
									"type": "address",
									"internalType": "address"
								},
								{
									"name": "gasLimit",
									"type": "uint256",
									"internalType": "uint256"
								},
								{
									"name": "encoded",
									"type": "bytes",
									"internalType": "bytes"
								}
							]
						},
						{
							"name": "proof",
							"type": "bytes",
							"internalType": "bytes"
						}
					],
					"outputs": [
						{
							"name": "dispatchResult",
							"type": "bool",
							"internalType": "bool"
						}
					],
					"stateMutability": "nonpayable"
				},
				{
					"type": "function",
					"name": "send",
					"inputs": [
						{
							"name": "toChainId",
							"type": "uint256",
							"internalType": "uint256"
						},
						{
							"name": "to",
							"type": "address",
							"internalType": "address"
						},
						{
							"name": "gasLimit",
							"type": "uint256",
							"internalType": "uint256"
						},
						{
							"name": "encoded",
							"type": "bytes",
							"internalType": "bytes"
						},
						{
							"name": "refund",
							"type": "address",
							"internalType": "address"
						},
						{
							"name": "params",
							"type": "bytes",
							"internalType": "bytes"
						}
					],
					"outputs": [
						{
							"name": "",
							"type": "bytes32",
							"internalType": "bytes32"
						}
					],
					"stateMutability": "payable"
				},
				{
					"type": "function",
					"name": "setAppConfig",
					"inputs": [
						{
							"name": "oracle",
							"type": "address",
							"internalType": "address"
						},
						{
							"name": "relayer",
							"type": "address",
							"internalType": "address"
						}
					],
					"outputs": [],
					"stateMutability": "nonpayable"
				},
				{
					"type": "function",
					"name": "setDefaultConfig",
					"inputs": [
						{
							"name": "oracle",
							"type": "address",
							"internalType": "address"
						},
						{
							"name": "relayer",
							"type": "address",
							"internalType": "address"
						}
					],
					"outputs": [],
					"stateMutability": "nonpayable"
				},
				{
					"type": "function",
					"name": "setter",
					"inputs": [],
					"outputs": [
						{
							"name": "",
							"type": "address",
							"internalType": "address"
						}
					],
					"stateMutability": "view"
				},
				{
					"type": "function",
					"name": "ucOf",
					"inputs": [
						{
							"name": "",
							"type": "address",
							"internalType": "address"
						}
					],
					"outputs": [
						{
							"name": "oracle",
							"type": "address",
							"internalType": "address"
						},
						{
							"name": "relayer",
							"type": "address",
							"internalType": "address"
						}
					],
					"stateMutability": "view"
				},
				{
					"type": "function",
					"name": "version",
					"inputs": [],
					"outputs": [
						{
							"name": "",
							"type": "string",
							"internalType": "string"
						}
					],
					"stateMutability": "pure"
				},
				{
					"type": "event",
					"name": "AppConfigUpdated",
					"inputs": [
						{
							"name": "ua",
							"type": "address",
							"indexed": true,
							"internalType": "address"
						},
						{
							"name": "oracle",
							"type": "address",
							"indexed": false,
							"internalType": "address"
						},
						{
							"name": "relayer",
							"type": "address",
							"indexed": false,
							"internalType": "address"
						}
					],
					"anonymous": false
				},
				{
					"type": "event",
					"name": "DefaultConfigUpdated",
					"inputs": [
						{
							"name": "oracle",
							"type": "address",
							"indexed": false,
							"internalType": "address"
						},
						{
							"name": "relayer",
							"type": "address",
							"indexed": false,
							"internalType": "address"
						}
					],
					"anonymous": false
				},
				{
					"type": "event",
					"name": "HashImported",
					"inputs": [
						{
							"name": "oracle",
							"type": "address",
							"indexed": true,
							"internalType": "address"
						},
						{
							"name": "chainId",
							"type": "uint256",
							"indexed": false,
							"internalType": "uint256"
						},
						{
							"name": "channel",
							"type": "address",
							"indexed": false,
							"internalType": "address"
						},
						{
							"name": "msgIndex",
							"type": "uint256",
							"indexed": false,
							"internalType": "uint256"
						},
						{
							"name": "hash",
							"type": "bytes32",
							"indexed": false,
							"internalType": "bytes32"
						}
					],
					"anonymous": false
				},
				{
					"type": "event",
					"name": "MessageAccepted",
					"inputs": [
						{
							"name": "msgHash",
							"type": "bytes32",
							"indexed": true,
							"internalType": "bytes32"
						},
						{
							"name": "message",
							"type": "tuple",
							"indexed": false,
							"internalType": "struct Message",
							"components": [
								{
									"name": "channel",
									"type": "address",
									"internalType": "address"
								},
								{
									"name": "index",
									"type": "uint256",
									"internalType": "uint256"
								},
								{
									"name": "fromChainId",
									"type": "uint256",
									"internalType": "uint256"
								},
								{
									"name": "from",
									"type": "address",
									"internalType": "address"
								},
								{
									"name": "toChainId",
									"type": "uint256",
									"internalType": "uint256"
								},
								{
									"name": "to",
									"type": "address",
									"internalType": "address"
								},
								{
									"name": "gasLimit",
									"type": "uint256",
									"internalType": "uint256"
								},
								{
									"name": "encoded",
									"type": "bytes",
									"internalType": "bytes"
								}
							]
						}
					],
					"anonymous": false
				},
				{
					"type": "event",
					"name": "MessageAssigned",
					"inputs": [
						{
							"name": "msgHash",
							"type": "bytes32",
							"indexed": true,
							"internalType": "bytes32"
						},
						{
							"name": "oracle",
							"type": "address",
							"indexed": true,
							"internalType": "address"
						},
						{
							"name": "relayer",
							"type": "address",
							"indexed": true,
							"internalType": "address"
						},
						{
							"name": "oracleFee",
							"type": "uint256",
							"indexed": false,
							"internalType": "uint256"
						},
						{
							"name": "relayerFee",
							"type": "uint256",
							"indexed": false,
							"internalType": "uint256"
						},
						{
							"name": "params",
							"type": "bytes",
							"indexed": false,
							"internalType": "bytes"
						}
					],
					"anonymous": false
				},
				{
					"type": "event",
					"name": "MessageDispatched",
					"inputs": [
						{
							"name": "msgHash",
							"type": "bytes32",
							"indexed": true,
							"internalType": "bytes32"
						},
						{
							"name": "dispatchResult",
							"type": "bool",
							"indexed": false,
							"internalType": "bool"
						}
					],
					"anonymous": false
				},
				{
					"type": "event",
					"name": "SetterChanged",
					"inputs": [
						{
							"name": "oldSetter",
							"type": "address",
							"indexed": true,
							"internalType": "address"
						},
						{
							"name": "newSetter",
							"type": "address",
							"indexed": true,
							"internalType": "address"
						}
					],
					"anonymous": false
				}
			],
			"solcInputHash": "bd281d871188d23306cfa03337a3378b",
			"receipt": {
				"blockHash": "0x75e144fd6baa8cdd84a230029726ae9d7c8d0f8b48b273de4cb3a93cde268ab0",
				"blockNumber": 2900642,
				"contractAddress": null,
				"cumulativeGasUsed": "1941093",
				"from": "0xD70A2e6eACbdeDA77a5d4bBAE3bC70239A0e088f",
				"gasPrice": "75353256064",
				"gasUsed": "1941093",
				"hash": "0x64d3ddad81bb120279b1f29e206ded5eef432dd78f9c9a5f84949cca064442ed",
				"index": 0,
				"logs": [
					{
						"address": "0x7e16116661CA8d66C73612382833153911Fa03B1",
						"blockHash": "0x75e144fd6baa8cdd84a230029726ae9d7c8d0f8b48b273de4cb3a93cde268ab0",
						"blockNumber": 2900642,
						"data": "0x0000000000000000000000000000000000000000000000000000000000000000",
						"index": 0,
						"topics": [
							"0x572f161235911da04685a68c06adf558fc7e4a36909dca394650e0adc19cc93d",
							"0x000000000000000000000000d70a2e6eacbdeda77a5d4bbae3bc70239a0e088f",
							"0x0000000000000000000000003d75d338b4711f8a33d293a2008f07a712513402",
							"0xc9215936331364cc41c6101fbbdc7cd3fd8d838fa9144baf0f440731adf2551c"
						],
						"transactionHash": "0x64d3ddad81bb120279b1f29e206ded5eef432dd78f9c9a5f84949cca064442ed",
						"transactionIndex": 0
					},
					{
						"address": "0x040f331774Ed6BB161412B4cEDb1358B382aF3A5",
						"blockHash": "0x75e144fd6baa8cdd84a230029726ae9d7c8d0f8b48b273de4cb3a93cde268ab0",
						"blockNumber": 2900642,
						"data": "0x",
						"index": 1,
						"topics": [
							"0x6895c13664aa4f67288b25d7a21d7aaa34916e355fb9b6fae0a139a9085becb8",
							"0x0000000000000000000000003d75d338b4711f8a33d293a2008f07a712513402"
						],
						"transactionHash": "0x64d3ddad81bb120279b1f29e206ded5eef432dd78f9c9a5f84949cca064442ed",
						"transactionIndex": 0
					},
					{
						"address": "0x3D75d338B4711F8a33d293a2008f07a712513402",
						"blockHash": "0x75e144fd6baa8cdd84a230029726ae9d7c8d0f8b48b273de4cb3a93cde268ab0",
						"blockNumber": 2900642,
						"data": "0x0000000000000000000000000000000000000000000000000000000000000001",
						"index": 2,
						"topics": [
							"0xa65fb05c5808f5f389d72edeaf719ce38f4cc55c1f69ca3cbfb31c21501caa07",
							"0x8ed8ae243a4823b490402b72a5a66bd6367651f42c7ca9d53351953dddb0461a"
						],
						"transactionHash": "0x64d3ddad81bb120279b1f29e206ded5eef432dd78f9c9a5f84949cca064442ed",
						"transactionIndex": 0
					}
				],
				"logsBloom": "0x00000000000010000000000000080000000000000120000000000100000000000000000000000000000000000040000000100000000000200000000000000000000000000000200200000000000000000000000000000000000000000000000000004000000000002000000000000004000000000000000000000000000000000000000100000000000100000000000000001000000000000000000000000004004100000000800000000000000000000200000000000000000000001004000000000001000000000000000000000000000000000000000800000000000000080100000000000000000000000000000200000000000000000000000000100080",
				"status": 1,
				"to": "0x7e16116661CA8d66C73612382833153911Fa03B1"
			},
			"metadata": "{\"compiler\":{\"version\":\"0.8.17+commit.8df45f5f\"},\"language\":\"Solidity\",\"output\":{\"abi\":[{\"inputs\":[{\"internalType\":\"address\",\"name\":\"dao\",\"type\":\"address\"}],\"stateMutability\":\"nonpayable\",\"type\":\"constructor\"},{\"inputs\":[{\"internalType\":\"address\",\"name\":\"ua\",\"type\":\"address\",\"indexed\":true},{\"internalType\":\"address\",\"name\":\"oracle\",\"type\":\"address\",\"indexed\":false},{\"internalType\":\"address\",\"name\":\"relayer\",\"type\":\"address\",\"indexed\":false}],\"type\":\"event\",\"name\":\"AppConfigUpdated\",\"anonymous\":false},{\"inputs\":[{\"internalType\":\"address\",\"name\":\"oracle\",\"type\":\"address\",\"indexed\":false},{\"internalType\":\"address\",\"name\":\"relayer\",\"type\":\"address\",\"indexed\":false}],\"type\":\"event\",\"name\":\"DefaultConfigUpdated\",\"anonymous\":false},{\"inputs\":[{\"internalType\":\"address\",\"name\":\"oracle\",\"type\":\"address\",\"indexed\":true},{\"internalType\":\"uint256\",\"name\":\"chainId\",\"type\":\"uint256\",\"indexed\":false},{\"internalType\":\"address\",\"name\":\"channel\",\"type\":\"address\",\"indexed\":false},{\"internalType\":\"uint256\",\"name\":\"msgIndex\",\"type\":\"uint256\",\"indexed\":false},{\"internalType\":\"bytes32\",\"name\":\"hash\",\"type\":\"bytes32\",\"indexed\":false}],\"type\":\"event\",\"name\":\"HashImported\",\"anonymous\":false},{\"inputs\":[{\"internalType\":\"bytes32\",\"name\":\"msgHash\",\"type\":\"bytes32\",\"indexed\":true},{\"internalType\":\"struct Message\",\"name\":\"message\",\"type\":\"tuple\",\"components\":[{\"internalType\":\"address\",\"name\":\"channel\",\"type\":\"address\"},{\"internalType\":\"uint256\",\"name\":\"index\",\"type\":\"uint256\"},{\"internalType\":\"uint256\",\"name\":\"fromChainId\",\"type\":\"uint256\"},{\"internalType\":\"address\",\"name\":\"from\",\"type\":\"address\"},{\"internalType\":\"uint256\",\"name\":\"toChainId\",\"type\":\"uint256\"},{\"internalType\":\"address\",\"name\":\"to\",\"type\":\"address\"},{\"internalType\":\"uint256\",\"name\":\"gasLimit\",\"type\":\"uint256\"},{\"internalType\":\"bytes\",\"name\":\"encoded\",\"type\":\"bytes\"}],\"indexed\":false}],\"type\":\"event\",\"name\":\"MessageAccepted\",\"anonymous\":false},{\"inputs\":[{\"internalType\":\"bytes32\",\"name\":\"msgHash\",\"type\":\"bytes32\",\"indexed\":true},{\"internalType\":\"address\",\"name\":\"oracle\",\"type\":\"address\",\"indexed\":true},{\"internalType\":\"address\",\"name\":\"relayer\",\"type\":\"address\",\"indexed\":true},{\"internalType\":\"uint256\",\"name\":\"oracleFee\",\"type\":\"uint256\",\"indexed\":false},{\"internalType\":\"uint256\",\"name\":\"relayerFee\",\"type\":\"uint256\",\"indexed\":false},{\"internalType\":\"bytes\",\"name\":\"params\",\"type\":\"bytes\",\"indexed\":false}],\"type\":\"event\",\"name\":\"MessageAssigned\",\"anonymous\":false},{\"inputs\":[{\"internalType\":\"bytes32\",\"name\":\"msgHash\",\"type\":\"bytes32\",\"indexed\":true},{\"internalType\":\"bool\",\"name\":\"dispatchResult\",\"type\":\"bool\",\"indexed\":false}],\"type\":\"event\",\"name\":\"MessageDispatched\",\"anonymous\":false},{\"inputs\":[{\"internalType\":\"address\",\"name\":\"oldSetter\",\"type\":\"address\",\"indexed\":true},{\"internalType\":\"address\",\"name\":\"newSetter\",\"type\":\"address\",\"indexed\":true}],\"type\":\"event\",\"name\":\"SetterChanged\",\"anonymous\":false},{\"inputs\":[],\"stateMutability\":\"view\",\"type\":\"function\",\"name\":\"LOCAL_CHAINID\",\"outputs\":[{\"internalType\":\"uint256\",\"name\":\"\",\"type\":\"uint256\"}]},{\"inputs\":[{\"internalType\":\"address\",\"name\":\"newSetter\",\"type\":\"address\"}],\"stateMutability\":\"nonpayable\",\"type\":\"function\",\"name\":\"changeSetter\"},{\"inputs\":[],\"stateMutability\":\"view\",\"type\":\"function\",\"name\":\"count\",\"outputs\":[{\"internalType\":\"uint256\",\"name\":\"\",\"type\":\"uint256\"}]},{\"inputs\":[],\"stateMutability\":\"view\",\"type\":\"function\",\"name\":\"defaultUC\",\"outputs\":[{\"internalType\":\"address\",\"name\":\"oracle\",\"type\":\"address\"},{\"internalType\":\"address\",\"name\":\"relayer\",\"type\":\"address\"}]},{\"inputs\":[{\"internalType\":\"bytes32\",\"name\":\"\",\"type\":\"bytes32\"}],\"stateMutability\":\"view\",\"type\":\"function\",\"name\":\"dones\",\"outputs\":[{\"internalType\":\"bool\",\"name\":\"\",\"type\":\"bool\"}]},{\"inputs\":[{\"internalType\":\"uint256\",\"name\":\"toChainId\",\"type\":\"uint256\"},{\"internalType\":\"address\",\"name\":\"ua\",\"type\":\"address\"},{\"internalType\":\"uint256\",\"name\":\"gasLimit\",\"type\":\"uint256\"},{\"internalType\":\"bytes\",\"name\":\"encoded\",\"type\":\"bytes\"},{\"internalType\":\"bytes\",\"name\":\"params\",\"type\":\"bytes\"}],\"stateMutability\":\"view\",\"type\":\"function\",\"name\":\"fee\",\"outputs\":[{\"internalType\":\"uint256\",\"name\":\"\",\"type\":\"uint256\"}]},{\"inputs\":[{\"internalType\":\"address\",\"name\":\"ua\",\"type\":\"address\"}],\"stateMutability\":\"view\",\"type\":\"function\",\"name\":\"getAppConfig\",\"outputs\":[{\"internalType\":\"struct UC\",\"name\":\"\",\"type\":\"tuple\",\"components\":[{\"internalType\":\"address\",\"name\":\"oracle\",\"type\":\"address\"},{\"internalType\":\"address\",\"name\":\"relayer\",\"type\":\"address\"}]}]},{\"inputs\":[{\"internalType\":\"address\",\"name\":\"\",\"type\":\"address\"},{\"internalType\":\"bytes32\",\"name\":\"\",\"type\":\"bytes32\"}],\"stateMutability\":\"view\",\"type\":\"function\",\"name\":\"hashLookup\",\"outputs\":[{\"internalType\":\"bytes32\",\"name\":\"\",\"type\":\"bytes32\"}]},{\"inputs\":[{\"internalType\":\"uint256\",\"name\":\"chainId\",\"type\":\"uint256\"},{\"internalType\":\"address\",\"name\":\"channel\",\"type\":\"address\"},{\"internalType\":\"uint256\",\"name\":\"msgIndex\",\"type\":\"uint256\"},{\"internalType\":\"bytes32\",\"name\":\"hash_\",\"type\":\"bytes32\"}],\"stateMutability\":\"nonpayable\",\"type\":\"function\",\"name\":\"importHash\"},{\"inputs\":[{\"internalType\":\"struct Message\",\"name\":\"message\",\"type\":\"tuple\",\"components\":[{\"internalType\":\"address\",\"name\":\"channel\",\"type\":\"address\"},{\"internalType\":\"uint256\",\"name\":\"index\",\"type\":\"uint256\"},{\"internalType\":\"uint256\",\"name\":\"fromChainId\",\"type\":\"uint256\"},{\"internalType\":\"address\",\"name\":\"from\",\"type\":\"address\"},{\"internalType\":\"uint256\",\"name\":\"toChainId\",\"type\":\"uint256\"},{\"internalType\":\"address\",\"name\":\"to\",\"type\":\"address\"},{\"internalType\":\"uint256\",\"name\":\"gasLimit\",\"type\":\"uint256\"},{\"internalType\":\"bytes\",\"name\":\"encoded\",\"type\":\"bytes\"}]},{\"internalType\":\"bytes\",\"name\":\"proof\",\"type\":\"bytes\"}],\"stateMutability\":\"nonpayable\",\"type\":\"function\",\"name\":\"recv\",\"outputs\":[{\"internalType\":\"bool\",\"name\":\"dispatchResult\",\"type\":\"bool\"}]},{\"inputs\":[{\"internalType\":\"uint256\",\"name\":\"toChainId\",\"type\":\"uint256\"},{\"internalType\":\"address\",\"name\":\"to\",\"type\":\"address\"},{\"internalType\":\"uint256\",\"name\":\"gasLimit\",\"type\":\"uint256\"},{\"internalType\":\"bytes\",\"name\":\"encoded\",\"type\":\"bytes\"},{\"internalType\":\"address\",\"name\":\"refund\",\"type\":\"address\"},{\"internalType\":\"bytes\",\"name\":\"params\",\"type\":\"bytes\"}],\"stateMutability\":\"payable\",\"type\":\"function\",\"name\":\"send\",\"outputs\":[{\"internalType\":\"bytes32\",\"name\":\"\",\"type\":\"bytes32\"}]},{\"inputs\":[{\"internalType\":\"address\",\"name\":\"oracle\",\"type\":\"address\"},{\"internalType\":\"address\",\"name\":\"relayer\",\"type\":\"address\"}],\"stateMutability\":\"nonpayable\",\"type\":\"function\",\"name\":\"setAppConfig\"},{\"inputs\":[{\"internalType\":\"address\",\"name\":\"oracle\",\"type\":\"address\"},{\"internalType\":\"address\",\"name\":\"relayer\",\"type\":\"address\"}],\"stateMutability\":\"nonpayable\",\"type\":\"function\",\"name\":\"setDefaultConfig\"},{\"inputs\":[],\"stateMutability\":\"view\",\"type\":\"function\",\"name\":\"setter\",\"outputs\":[{\"internalType\":\"address\",\"name\":\"\",\"type\":\"address\"}]},{\"inputs\":[{\"internalType\":\"address\",\"name\":\"\",\"type\":\"address\"}],\"stateMutability\":\"view\",\"type\":\"function\",\"name\":\"ucOf\",\"outputs\":[{\"internalType\":\"address\",\"name\":\"oracle\",\"type\":\"address\"},{\"internalType\":\"address\",\"name\":\"relayer\",\"type\":\"address\"}]},{\"inputs\":[],\"stateMutability\":\"pure\",\"type\":\"function\",\"name\":\"version\",\"outputs\":[{\"internalType\":\"string\",\"name\":\"\",\"type\":\"string\"}]}],\"devdoc\":{\"kind\":\"dev\",\"methods\":{\"LOCAL_CHAINID()\":{\"details\":\"Fetch local chain id.\",\"returns\":{\"_0\":\"chainId Local chain id.\"}},\"changeSetter(address)\":{\"details\":\"Change setter.\",\"params\":{\"newSetter\":\"New setter.\"}},\"fee(uint256,address,uint256,bytes,bytes)\":{\"params\":{\"encoded\":\"The calldata which encoded by ABI Encoding.\",\"gasLimit\":\"Gas limit for destination user application used.\",\"params\":\"General extensibility for relayer to custom functionality.\"}},\"getAppConfig(address)\":{\"details\":\"Fetch user application config.\",\"params\":{\"ua\":\"User application contract address.\"},\"returns\":{\"_0\":\"user application config.\"}},\"importHash(uint256,address,uint256,bytes32)\":{\"details\":\"Import hash by any oracle address.\",\"params\":{\"chainId\":\"The source chain id.\",\"channel\":\"The message channel.\",\"hash_\":\"The hash to import.\",\"msgIndex\":\"The source chain message index.\"}},\"recv((address,uint256,uint256,address,uint256,address,uint256,bytes),bytes)\":{\"details\":\"Recv verified message from Channel and dispatch to destination user application address.\",\"params\":{\"message\":\"Verified receive message info.\",\"proof\":\"Message proof of this message.\"},\"returns\":{\"dispatchResult\":\"Result of the message dispatch.\"}},\"send(uint256,address,uint256,bytes,address,bytes)\":{\"details\":\"Send a cross-chain message over the endpoint.\",\"params\":{\"encoded\":\"The calldata which encoded by ABI Encoding.\",\"gasLimit\":\"Gas limit for destination user application used.\",\"params\":\"General extensibility for relayer to custom functionality.\",\"refund\":\"Return extra fee to refund address.\",\"to\":\"User application contract address which receive the message.\",\"toChainId\":\"The Message destination chain id.\"}},\"setAppConfig(address,address)\":{\"params\":{\"oracle\":\"Oracle which user application.\",\"relayer\":\"Relayer which user application choose.\"}},\"setDefaultConfig(address,address)\":{\"details\":\"Set default user config for all user application.\",\"params\":{\"oracle\":\"Default oracle.\",\"relayer\":\"Default relayer.\"}}},\"version\":1},\"userdoc\":{\"kind\":\"user\",\"methods\":{\"changeSetter(address)\":{\"notice\":\"Only current setter could call.\"},\"getAppConfig(address)\":{\"notice\":\"If user application has not configured, then the default user config is used.\"},\"hashLookup(address,bytes32)\":{\"notice\":\"oracle => lookupKey => hash\"},\"importHash(uint256,address,uint256,bytes32)\":{\"notice\":\"Hash is an abstract of the proof system, it can be a block hash or a message root hash,  \\t\\tspecifically provided by oracles.\"},\"recv((address,uint256,uint256,address,uint256,address,uint256,bytes),bytes)\":{\"notice\":\"Only channel could call this function.\"},\"send(uint256,address,uint256,bytes,address,bytes)\":{\"notice\":\"follow https://eips.ethereum.org/EIPS/eip-5750\"},\"setAppConfig(address,address)\":{\"notice\":\"Set user application config.\"},\"setDefaultConfig(address,address)\":{\"notice\":\"Only setter could call.\"}},\"version\":1}},\"settings\":{\"remappings\":[\"@darwinia-msgport/=lib/darwinia-msgport/\",\"@openzeppelin/contracts/=lib/openzeppelin-contracts/contracts/\",\"@openzeppelin/contracts@4.9.2/=lib/openzeppelin-contracts/contracts/\",\"@safe-smart-account/=lib/subapi/lib/safe-smart-account/contracts/\",\"@sphinx-labs/contracts/=lib/sphinx/packages/contracts/contracts/foundry/\",\"ORMP/=lib/ORMP/\",\"create3-deploy/=lib/create3-deploy/\",\"forge-std/=lib/forge-std/src/\",\"solmate/=lib/darwinia-msgport/lib/solmate/src/\",\"subapi/=lib/subapi/\"],\"optimizer\":{\"enabled\":true,\"runs\":999999},\"metadata\":{\"bytecodeHash\":\"ipfs\"},\"compilationTarget\":{\"lib/ORMP/src/ORMP.sol\":\"ORMP\"},\"evmVersion\":\"london\",\"libraries\":{}},\"sources\":{\"lib/ORMP/src/Channel.sol\":{\"keccak256\":\"0x68a94bd00c097e8430bbaf922e1c9b77e119fc565d3c0825514f9bd6fde8949f\",\"urls\":[\"bzz-raw://a251e6d2b303a160314c09c4b69fac97bd414ffc31dabb7e386ada857a1f6f66\",\"dweb:/ipfs/QmcKkWyXRUPabh2qcruUT7PxnDsErzXTzS11JnMyK7edEC\"],\"license\":\"MIT\"},\"lib/ORMP/src/Common.sol\":{\"keccak256\":\"0x9ac4f4aaea488dcf254d006b290d5e76ca27ddc3d8f8542c916e4f6f713f108b\",\"urls\":[\"bzz-raw://e752ee67412386fc6527e4bce526093797b932bbadab4520130e803a68806d3e\",\"dweb:/ipfs/QmbLNLEAm7MSveSUcRhyuS9LnSSj1CQtn9tmatE1YsLySX\"],\"license\":\"MIT\"},\"lib/ORMP/src/ORMP.sol\":{\"keccak256\":\"0x4791098f13f2a79e2c119d9a1be97ff6c9dd1f19ed4ad34f8fa0bf5fc771ad7e\",\"urls\":[\"bzz-raw://9620975fefdf4f5acdae8fa9088651ab122488a7ceb782faad001a536e49c800\",\"dweb:/ipfs/QmdrtAXqiH62FJZWXtaSng8CVbvJhjss37Bzavrz5R7WbA\"],\"license\":\"MIT\"},\"lib/ORMP/src/UserConfig.sol\":{\"keccak256\":\"0xb2f58932b4f9075c257fee1c3d3a7313d44240c62cba6f8049942146255abead\",\"urls\":[\"bzz-raw://e8f2ce5fae85c41132e1f23046891febf5e59b645629bf2f000318f36627c87e\",\"dweb:/ipfs/QmNYC3GcW9GHR9pcpV6LAiTaskJD9fZSt3QNA77tfgSq61\"],\"license\":\"MIT\"},\"lib/ORMP/src/interfaces/IOracle.sol\":{\"keccak256\":\"0x5fd8b8e5e55cc88351aa3faba6e471e79a8d3e1c1e38106fcc27bec0ce39df82\",\"urls\":[\"bzz-raw://a7512eefa5856c1bd930d7c68f5bf7d89927310d65def3086e1751abcceae208\",\"dweb:/ipfs/QmXs62BzkLcRP6gwtxEZmAUZAfKmX3wHWtwm2zRgvTvxDY\"],\"license\":\"MIT\"},\"lib/ORMP/src/interfaces/IRelayer.sol\":{\"keccak256\":\"0x99cfd53b8e0f808a05939b7f63bc92e1653e9cfa76ea1d30537d64ea8d74272a\",\"urls\":[\"bzz-raw://30d6b968595d6b385b0c167001bd47c49d5177ff877f4013010a202cdcd65aa8\",\"dweb:/ipfs/QmX9doXKGbrfUMkJ7mv6jZ3njadsBDLJW9P9XuYXavKxCD\"],\"license\":\"MIT\"},\"lib/ORMP/src/interfaces/IVerifier.sol\":{\"keccak256\":\"0xfa53949a8465c32a0f4dda1c588654643c25cdc242820723db09bfdf39e6c298\",\"urls\":[\"bzz-raw://d88d918b8224292c06a9b120b241e99a3ca87e012b3e01280d77c1dd3e521484\",\"dweb:/ipfs/QmRFMyRg92ssguC3xUGVEdF24VfGnttUpv5vAAnJdwaDKT\"],\"license\":\"MIT\"},\"lib/ORMP/src/security/ExcessivelySafeCall.sol\":{\"keccak256\":\"0xfec00b9760b1077a595c372da6289f272e768e54489d1b4b85bb53a54897ca97\",\"urls\":[\"bzz-raw://9209113085de99854dcd86b92f8baaf2dc3b20d7a57bcf963ea9b0f6343a8c71\",\"dweb:/ipfs/QmUvGNKZrSfvjSJNBUo2hTJLBAeHnDMdbB4pFBXAQDrCS2\"],\"license\":\"MIT OR Apache-2.0\"},\"lib/ORMP/src/security/ReentrancyGuard.sol\":{\"keccak256\":\"0x2976add47a9c522fdb093b529024a2e3af4e4f449705fc8575ea662b71b43754\",\"urls\":[\"bzz-raw://bb117a7b0e49a4cfe0ba7984aeb882c3b4dc8a750e3b49aa703ae33e20b10089\",\"dweb:/ipfs/QmVDa1hu9LCmkJyM4aP1uw6AJ2ecKDiV1gTDPfLrooaeyA\"],\"license\":\"MIT\"}},\"version\":1}",
			"args": [
				"0x040f331774Ed6BB161412B4cEDb1358B382aF3A5"
			],
			"bytecode": "0x60a06040526001600081905580553060805234801561001d57600080fd5b50604051611f1c380380611f1c83398101604081905261003c91610061565b600280546001600160a01b0319166001600160a01b0392909216919091179055610091565b60006020828403121561007357600080fd5b81516001600160a01b038116811461008a57600080fd5b9392505050565b608051611e706100ac6000396000610bfa0152611e706000f3fe6080604052600436106100f35760003560e01c806354fd4d501161008a5780638b229091116100595780638b2290911461038f578063b0ff5e72146103af578063ee6ad167146103c2578063f67c907c146103f257600080fd5b806354fd4d50146102d8578063559e7230146103245780635e26462c1461035c5780635f3abe961461036f57600080fd5b80633f3108f7116100c65780633f3108f7146101de57806341342249146102305780634872824f146102845780634ea59979146102b857600080fd5b806306661abd146100f85780630f988a73146101215780631c2b2da6146101435780633c50e17814610163575b600080fd5b34801561010457600080fd5b5061010e60075481565b6040519081526020015b60405180910390f35b34801561012d57600080fd5b5061014161013c36600461158e565b610422565b005b34801561014f57600080fd5b5061010e61015e3660046115f9565b61051f565b34801561016f57600080fd5b506101b161017e36600461158e565b6005602052600090815260409020805460019091015473ffffffffffffffffffffffffffffffffffffffff918216911682565b6040805173ffffffffffffffffffffffffffffffffffffffff938416815292909116602083015201610118565b3480156101ea57600080fd5b5060025461020b9073ffffffffffffffffffffffffffffffffffffffff1681565b60405173ffffffffffffffffffffffffffffffffffffffff9091168152602001610118565b34801561023c57600080fd5b5061025061024b36600461158e565b610674565b60408051825173ffffffffffffffffffffffffffffffffffffffff9081168252602093840151169281019290925201610118565b34801561029057600080fd5b506003546004546101b19173ffffffffffffffffffffffffffffffffffffffff908116911682565b3480156102c457600080fd5b506101416102d336600461168d565b61072b565b3480156102e457600080fd5b50604080518082018252600581527f322e312e3000000000000000000000000000000000000000000000000000000060208201529051610118919061172e565b34801561033057600080fd5b5061010e61033f366004611741565b600860209081526000928352604080842090915290825290205481565b61010e61036a36600461176b565b61084e565b34801561037b57600080fd5b5061014161038a366004611812565b6108f9565b34801561039b57600080fd5b506101416103aa36600461168d565b6109e3565b3480156103bb57600080fd5b504661010e565b3480156103ce57600080fd5b506103e26103dd36600461184d565b610aa2565b6040519015158152602001610118565b3480156103fe57600080fd5b506103e261040d3660046118bf565b60066020526000908152604090205460ff1681565b60025473ffffffffffffffffffffffffffffffffffffffff1633146104a8576040517f08c379a000000000000000000000000000000000000000000000000000000000815260206004820152600560248201527f216175746800000000000000000000000000000000000000000000000000000060448201526064015b60405180910390fd5b6002805473ffffffffffffffffffffffffffffffffffffffff8381167fffffffffffffffffffffffff0000000000000000000000000000000000000000831681179093556040519116919082907fb0999394a8202229d1e14c6290230863233f18473f7504b3a7b1a27f9b014c9d90600090a35050565b60008061052b88610674565b90506000816020015173ffffffffffffffffffffffffffffffffffffffff16631c2b2da68b8b8b8b8b8b8b6040518863ffffffff1660e01b81526004016105789796959493929190611921565b602060405180830381865afa158015610595573d6000803e3d6000fd5b505050506040513d601f19601f820116820180604052508101906105b9919061197e565b82516040517fa1dbf432000000000000000000000000000000000000000000000000000000008152600481018d905273ffffffffffffffffffffffffffffffffffffffff8c811660248301529293506000929091169063a1dbf43290604401602060405180830381865afa158015610635573d6000803e3d6000fd5b505050506040513d601f19601f82011682018060405250810190610659919061197e565b905061066581836119c6565b9b9a5050505050505050505050565b6040805180820182526000808252602080830182905273ffffffffffffffffffffffffffffffffffffffff858116835260058252918490208451808601909552805483168552600101549091169083018190529091906106ed5760045473ffffffffffffffffffffffffffffffffffffffff1660208201525b805173ffffffffffffffffffffffffffffffffffffffff166107255760035473ffffffffffffffffffffffffffffffffffffffff1681525b92915050565b60025473ffffffffffffffffffffffffffffffffffffffff1633146107ac576040517f08c379a000000000000000000000000000000000000000000000000000000000815260206004820152600560248201527f2161757468000000000000000000000000000000000000000000000000000000604482015260640161049f565b60408051808201825273ffffffffffffffffffffffffffffffffffffffff8481168083529084166020928301819052600380547fffffffffffffffffffffffff0000000000000000000000000000000000000000908116841790915560048054909116821790558351918252918101919091527f504f152883e6158786ddfcce63f4d4d95ce8e404b1f6e6365a06f63849b7cb95910160405180910390a15050565b60006001600054146108bc576040517f08c379a000000000000000000000000000000000000000000000000000000000815260206004820152601060248201527f2173656e642d7265656e7472616e637900000000000000000000000000000000604482015260640161049f565b6002600090815533906108d3828c8c8c8c8c610b7f565b90506108e68287838e8d8d8d8c8c610d2a565b60016000559a9950505050505050505050565b604080516020810186905273ffffffffffffffffffffffffffffffffffffffff85169181019190915260608101839052600090608001604080518083037fffffffffffffffffffffffffffffffffffffffffffffffffffffffffffffffe0018152828252805160209182012033600081815260088452848120838252845284902087905589855273ffffffffffffffffffffffffffffffffffffffff89169285019290925291830186905260608301859052909250907fa931ec14fe958397dcb26e285e56292c13d77907712b51bbaa24cfc9349b789d9060800160405180910390a25050505050565b60408051808201825273ffffffffffffffffffffffffffffffffffffffff848116808352848216602080850182815233600081815260058452889020965187549087167fffffffffffffffffffffffff000000000000000000000000000000000000000091821617885591516001909701805497909616969091169590951790935584519182529181019190915290917f86b44d92ad94c11b25d0f08d0f55e8e235b4d165e62e541c02e8ee19f551c97b910160405180910390a25050565b60006001805414610b0f576040517f08c379a000000000000000000000000000000000000000000000000000000000815260206004820152601060248201527f21726563762d7265656e7472616e637900000000000000000000000000000000604482015260640161049f565b60026001556000610b21858585610e8e565b9050610b35610b2f86611add565b82611169565b9150807f62b1dc20fd6f1518626da5b6f9897e8cd4ebadbad071bb66dc96a37c970087a883604051610b6b911515815260200190565b60405180910390a250600180559392505050565b6000468603610bea576040517f08c379a000000000000000000000000000000000000000000000000000000000815260206004820152600c60248201527f2163726f73732d636861696e0000000000000000000000000000000000000000604482015260640161049f565b60006040518061010001604052807f000000000000000000000000000000000000000000000000000000000000000073ffffffffffffffffffffffffffffffffffffffff1681526020016007548152602001610c434690565b81526020018973ffffffffffffffffffffffffffffffffffffffff1681526020018881526020018773ffffffffffffffffffffffffffffffffffffffff16815260200186815260200185858080601f016020809104026020016040519081016040528093929190818152602001838380828437600092018290525093909452509293509150610cd3905082611289565b9050807fcfb9b3466878aff0c7df17da215fd57d59eb245a5d03f5a7b57294d54581eb1883604051610d059190611b7f565b60405180910390a2600754610d1b9060016119c6565b60075598975050505050505050565b6000610d358a610674565b90506000610d4d8260200151898d8a8a8a8a8a6112b9565b90506000610d6083600001518a8e61135b565b9050826020015173ffffffffffffffffffffffffffffffffffffffff16836000015173ffffffffffffffffffffffffffffffffffffffff168b7f3832f95736b288316c84b775a004a9d17177362548ce253cba9acb4801875f4d84868a8a604051610dce9493929190611c1c565b60405180910390a4610de081836119c6565b341015610e4b576040517f08c379a000000000000000000000000000000000000000000000000000000000815260040161049f9060208082526004908201527f2166656500000000000000000000000000000000000000000000000000000000604082015260600190565b610e5581836119c6565b341115610e80576000610e6882846119c6565b610e729034611c46565b9050610e7e8c8261140b565b505b505050505050505050505050565b600080610ea461024b60c0870160a0880161158e565b602081015190915073ffffffffffffffffffffffffffffffffffffffff163314610f2a576040517f08c379a000000000000000000000000000000000000000000000000000000000815260206004820152600560248201527f2161757468000000000000000000000000000000000000000000000000000000604482015260640161049f565b80516040517f651b04a700000000000000000000000000000000000000000000000000000000815273ffffffffffffffffffffffffffffffffffffffff9091169063651b04a790610f8390889088908890600401611cbd565b602060405180830381865afa158015610fa0573d6000803e3d6000fd5b505050506040513d601f19601f82011682018060405250810190610fc49190611d89565b61102a576040517f08c379a000000000000000000000000000000000000000000000000000000000815260206004820152600660248201527f2170726f6f660000000000000000000000000000000000000000000000000000604482015260640161049f565b60808501354614611097576040517f08c379a000000000000000000000000000000000000000000000000000000000815260206004820152600a60248201527f21746f436861696e496400000000000000000000000000000000000000000000604482015260640161049f565b60006110aa6110a587611add565b611289565b60008181526006602052604090205490915060ff1615611128576040517f08c379a000000000000000000000000000000000000000000000000000000000815260040161049f9060208082526004908201527f646f6e6500000000000000000000000000000000000000000000000000000000604082015260600190565b600081815260066020526040902080547fffffffffffffffffffffffffffffffffffffffffffffffffffffffffffffff001660011790559150509392505050565b6000806113885a61117a9190611c46565b60c085015190915061118d604083611dab565b6111979083611c46565b11611200576040517f08c379a000000000000000000000000000000000000000000000000000000000815260040161049f9060208082526004908201527f2167617300000000000000000000000000000000000000000000000000000000604082015260600190565b6112808460c001516000808760e001518789604001518a6060015160405160200161122e9493929190611de6565b604080517fffffffffffffffffffffffffffffffffffffffffffffffffffffffffffffffe081840301815291905260a089015173ffffffffffffffffffffffffffffffffffffffff16939291906114da565b50949350505050565b60008160405160200161129c9190611b7f565b604051602081830303815290604052805190602001209050919050565b6000808973ffffffffffffffffffffffffffffffffffffffff16631c2b2da68a8a8a8a8a8a8a6040518863ffffffff1660e01b81526004016113019796959493929190611921565b602060405180830381865afa15801561131e573d6000803e3d6000fd5b505050506040513d601f19601f82011682018060405250810190611342919061197e565b905061134e8a8261140b565b9998505050505050505050565b6040517fa1dbf4320000000000000000000000000000000000000000000000000000000081526004810183905273ffffffffffffffffffffffffffffffffffffffff8281166024830152600091829186169063a1dbf43290604401602060405180830381865afa1580156113d3573d6000803e3d6000fd5b505050506040513d601f19601f820116820180604052508101906113f7919061197e565b9050611403858261140b565b949350505050565b60008273ffffffffffffffffffffffffffffffffffffffff168260405160006040518083038185875af1925050503d8060008114611465576040519150601f19603f3d011682016040523d82523d6000602084013e61146a565b606091505b50509050806114d5576040517f08c379a000000000000000000000000000000000000000000000000000000000815260206004820152600560248201527f2173656e64000000000000000000000000000000000000000000000000000000604482015260640161049f565b505050565b6000606060008060008661ffff1667ffffffffffffffff811115611500576115006119d9565b6040519080825280601f01601f19166020018201604052801561152a576020820181803683370190505b5090506000808751602089018b8e8ef191503d92508683111561154b578692505b828152826000602083013e90999098509650505050505050565b803573ffffffffffffffffffffffffffffffffffffffff8116811461158957600080fd5b919050565b6000602082840312156115a057600080fd5b6115a982611565565b9392505050565b60008083601f8401126115c257600080fd5b50813567ffffffffffffffff8111156115da57600080fd5b6020830191508360208285010111156115f257600080fd5b9250929050565b600080600080600080600060a0888a03121561161457600080fd5b8735965061162460208901611565565b955060408801359450606088013567ffffffffffffffff8082111561164857600080fd5b6116548b838c016115b0565b909650945060808a013591508082111561166d57600080fd5b5061167a8a828b016115b0565b989b979a50959850939692959293505050565b600080604083850312156116a057600080fd5b6116a983611565565b91506116b760208401611565565b90509250929050565b60005b838110156116db5781810151838201526020016116c3565b50506000910152565b600081518084526116fc8160208601602086016116c0565b601f017fffffffffffffffffffffffffffffffffffffffffffffffffffffffffffffffe0169290920160200192915050565b6020815260006115a960208301846116e4565b6000806040838503121561175457600080fd5b61175d83611565565b946020939093013593505050565b60008060008060008060008060c0898b03121561178757600080fd5b8835975061179760208a01611565565b965060408901359550606089013567ffffffffffffffff808211156117bb57600080fd5b6117c78c838d016115b0565b90975095508591506117db60808c01611565565b945060a08b01359150808211156117f157600080fd5b506117fe8b828c016115b0565b999c989b5096995094979396929594505050565b6000806000806080858703121561182857600080fd5b8435935061183860208601611565565b93969395505050506040820135916060013590565b60008060006040848603121561186257600080fd5b833567ffffffffffffffff8082111561187a57600080fd5b90850190610100828803121561188f57600080fd5b909350602085013590808211156118a557600080fd5b506118b2868287016115b0565b9497909650939450505050565b6000602082840312156118d157600080fd5b5035919050565b8183528181602085013750600060208284010152600060207fffffffffffffffffffffffffffffffffffffffffffffffffffffffffffffffe0601f840116840101905092915050565b87815273ffffffffffffffffffffffffffffffffffffffff8716602082015285604082015260a06060820152600061195d60a0830186886118d8565b82810360808401526119708185876118d8565b9a9950505050505050505050565b60006020828403121561199057600080fd5b5051919050565b7f4e487b7100000000000000000000000000000000000000000000000000000000600052601160045260246000fd5b8082018082111561072557610725611997565b7f4e487b7100000000000000000000000000000000000000000000000000000000600052604160045260246000fd5b604051610100810167ffffffffffffffff81118282101715611a2c57611a2c6119d9565b60405290565b600082601f830112611a4357600080fd5b813567ffffffffffffffff80821115611a5e57611a5e6119d9565b604051601f83017fffffffffffffffffffffffffffffffffffffffffffffffffffffffffffffffe0908116603f01168101908282118183101715611aa457611aa46119d9565b81604052838152866020858801011115611abd57600080fd5b836020870160208301376000602085830101528094505050505092915050565b60006101008236031215611af057600080fd5b611af8611a08565b611b0183611565565b81526020830135602082015260408301356040820152611b2360608401611565565b606082015260808301356080820152611b3e60a08401611565565b60a082015260c083013560c082015260e083013567ffffffffffffffff811115611b6757600080fd5b611b7336828601611a32565b60e08301525092915050565b60208152600073ffffffffffffffffffffffffffffffffffffffff808451166020840152602084015160408401526040840151606084015280606085015116608084015250608083015160a083015260a0830151611bf560c084018273ffffffffffffffffffffffffffffffffffffffff169052565b5060c083015160e083015260e08301516101008081850152506114036101208401826116e4565b848152836020820152606060408201526000611c3c6060830184866118d8565b9695505050505050565b8181038181111561072557610725611997565b60008083357fffffffffffffffffffffffffffffffffffffffffffffffffffffffffffffffe1843603018112611c8e57600080fd5b830160208101925035905067ffffffffffffffff811115611cae57600080fd5b8036038213156115f257600080fd5b60408152600073ffffffffffffffffffffffffffffffffffffffff80611ce287611565565b166040840152602086013560608401526040860135608084015280611d0960608801611565565b1660a084015250608085013560c0830152611d2660a08601611565565b73ffffffffffffffffffffffffffffffffffffffff811660e08401525061010060c086013581840152611d5c60e0870187611c59565b82610120860152611d72610140860182846118d8565b925050508281036020840152611c3c8185876118d8565b600060208284031215611d9b57600080fd5b815180151581146115a957600080fd5b600082611de1577f4e487b7100000000000000000000000000000000000000000000000000000000600052601260045260246000fd5b500490565b60008551611df8818460208a016116c0565b9190910193845250602083019190915260601b7fffffffffffffffffffffffffffffffffffffffff00000000000000000000000016604082015260540191905056fea2646970667358221220f4f907731981d0e9b53fa0376e8696ff7cb105e8691bb13685ec3ec20f4aa5c564736f6c63430008110033",
			"deployedBytecode": "0x6080604052600436106100f35760003560e01c806354fd4d501161008a5780638b229091116100595780638b2290911461038f578063b0ff5e72146103af578063ee6ad167146103c2578063f67c907c146103f257600080fd5b806354fd4d50146102d8578063559e7230146103245780635e26462c1461035c5780635f3abe961461036f57600080fd5b80633f3108f7116100c65780633f3108f7146101de57806341342249146102305780634872824f146102845780634ea59979146102b857600080fd5b806306661abd146100f85780630f988a73146101215780631c2b2da6146101435780633c50e17814610163575b600080fd5b34801561010457600080fd5b5061010e60075481565b6040519081526020015b60405180910390f35b34801561012d57600080fd5b5061014161013c36600461158e565b610422565b005b34801561014f57600080fd5b5061010e61015e3660046115f9565b61051f565b34801561016f57600080fd5b506101b161017e36600461158e565b6005602052600090815260409020805460019091015473ffffffffffffffffffffffffffffffffffffffff918216911682565b6040805173ffffffffffffffffffffffffffffffffffffffff938416815292909116602083015201610118565b3480156101ea57600080fd5b5060025461020b9073ffffffffffffffffffffffffffffffffffffffff1681565b60405173ffffffffffffffffffffffffffffffffffffffff9091168152602001610118565b34801561023c57600080fd5b5061025061024b36600461158e565b610674565b60408051825173ffffffffffffffffffffffffffffffffffffffff9081168252602093840151169281019290925201610118565b34801561029057600080fd5b506003546004546101b19173ffffffffffffffffffffffffffffffffffffffff908116911682565b3480156102c457600080fd5b506101416102d336600461168d565b61072b565b3480156102e457600080fd5b50604080518082018252600581527f322e312e3000000000000000000000000000000000000000000000000000000060208201529051610118919061172e565b34801561033057600080fd5b5061010e61033f366004611741565b600860209081526000928352604080842090915290825290205481565b61010e61036a36600461176b565b61084e565b34801561037b57600080fd5b5061014161038a366004611812565b6108f9565b34801561039b57600080fd5b506101416103aa36600461168d565b6109e3565b3480156103bb57600080fd5b504661010e565b3480156103ce57600080fd5b506103e26103dd36600461184d565b610aa2565b6040519015158152602001610118565b3480156103fe57600080fd5b506103e261040d3660046118bf565b60066020526000908152604090205460ff1681565b60025473ffffffffffffffffffffffffffffffffffffffff1633146104a8576040517f08c379a000000000000000000000000000000000000000000000000000000000815260206004820152600560248201527f216175746800000000000000000000000000000000000000000000000000000060448201526064015b60405180910390fd5b6002805473ffffffffffffffffffffffffffffffffffffffff8381167fffffffffffffffffffffffff0000000000000000000000000000000000000000831681179093556040519116919082907fb0999394a8202229d1e14c6290230863233f18473f7504b3a7b1a27f9b014c9d90600090a35050565b60008061052b88610674565b90506000816020015173ffffffffffffffffffffffffffffffffffffffff16631c2b2da68b8b8b8b8b8b8b6040518863ffffffff1660e01b81526004016105789796959493929190611921565b602060405180830381865afa158015610595573d6000803e3d6000fd5b505050506040513d601f19601f820116820180604052508101906105b9919061197e565b82516040517fa1dbf432000000000000000000000000000000000000000000000000000000008152600481018d905273ffffffffffffffffffffffffffffffffffffffff8c811660248301529293506000929091169063a1dbf43290604401602060405180830381865afa158015610635573d6000803e3d6000fd5b505050506040513d601f19601f82011682018060405250810190610659919061197e565b905061066581836119c6565b9b9a5050505050505050505050565b6040805180820182526000808252602080830182905273ffffffffffffffffffffffffffffffffffffffff858116835260058252918490208451808601909552805483168552600101549091169083018190529091906106ed5760045473ffffffffffffffffffffffffffffffffffffffff1660208201525b805173ffffffffffffffffffffffffffffffffffffffff166107255760035473ffffffffffffffffffffffffffffffffffffffff1681525b92915050565b60025473ffffffffffffffffffffffffffffffffffffffff1633146107ac576040517f08c379a000000000000000000000000000000000000000000000000000000000815260206004820152600560248201527f2161757468000000000000000000000000000000000000000000000000000000604482015260640161049f565b60408051808201825273ffffffffffffffffffffffffffffffffffffffff8481168083529084166020928301819052600380547fffffffffffffffffffffffff0000000000000000000000000000000000000000908116841790915560048054909116821790558351918252918101919091527f504f152883e6158786ddfcce63f4d4d95ce8e404b1f6e6365a06f63849b7cb95910160405180910390a15050565b60006001600054146108bc576040517f08c379a000000000000000000000000000000000000000000000000000000000815260206004820152601060248201527f2173656e642d7265656e7472616e637900000000000000000000000000000000604482015260640161049f565b6002600090815533906108d3828c8c8c8c8c610b7f565b90506108e68287838e8d8d8d8c8c610d2a565b60016000559a9950505050505050505050565b604080516020810186905273ffffffffffffffffffffffffffffffffffffffff85169181019190915260608101839052600090608001604080518083037fffffffffffffffffffffffffffffffffffffffffffffffffffffffffffffffe0018152828252805160209182012033600081815260088452848120838252845284902087905589855273ffffffffffffffffffffffffffffffffffffffff89169285019290925291830186905260608301859052909250907fa931ec14fe958397dcb26e285e56292c13d77907712b51bbaa24cfc9349b789d9060800160405180910390a25050505050565b60408051808201825273ffffffffffffffffffffffffffffffffffffffff848116808352848216602080850182815233600081815260058452889020965187549087167fffffffffffffffffffffffff000000000000000000000000000000000000000091821617885591516001909701805497909616969091169590951790935584519182529181019190915290917f86b44d92ad94c11b25d0f08d0f55e8e235b4d165e62e541c02e8ee19f551c97b910160405180910390a25050565b60006001805414610b0f576040517f08c379a000000000000000000000000000000000000000000000000000000000815260206004820152601060248201527f21726563762d7265656e7472616e637900000000000000000000000000000000604482015260640161049f565b60026001556000610b21858585610e8e565b9050610b35610b2f86611add565b82611169565b9150807f62b1dc20fd6f1518626da5b6f9897e8cd4ebadbad071bb66dc96a37c970087a883604051610b6b911515815260200190565b60405180910390a250600180559392505050565b6000468603610bea576040517f08c379a000000000000000000000000000000000000000000000000000000000815260206004820152600c60248201527f2163726f73732d636861696e0000000000000000000000000000000000000000604482015260640161049f565b60006040518061010001604052807f00000000000000000000000013b2211a7ca45db2808f6db05557ce5347e3634e73ffffffffffffffffffffffffffffffffffffffff1681526020016007548152602001610c434690565b81526020018973ffffffffffffffffffffffffffffffffffffffff1681526020018881526020018773ffffffffffffffffffffffffffffffffffffffff16815260200186815260200185858080601f016020809104026020016040519081016040528093929190818152602001838380828437600092018290525093909452509293509150610cd3905082611289565b9050807fcfb9b3466878aff0c7df17da215fd57d59eb245a5d03f5a7b57294d54581eb1883604051610d059190611b7f565b60405180910390a2600754610d1b9060016119c6565b60075598975050505050505050565b6000610d358a610674565b90506000610d4d8260200151898d8a8a8a8a8a6112b9565b90506000610d6083600001518a8e61135b565b9050826020015173ffffffffffffffffffffffffffffffffffffffff16836000015173ffffffffffffffffffffffffffffffffffffffff168b7f3832f95736b288316c84b775a004a9d17177362548ce253cba9acb4801875f4d84868a8a604051610dce9493929190611c1c565b60405180910390a4610de081836119c6565b341015610e4b576040517f08c379a000000000000000000000000000000000000000000000000000000000815260040161049f9060208082526004908201527f2166656500000000000000000000000000000000000000000000000000000000604082015260600190565b610e5581836119c6565b341115610e80576000610e6882846119c6565b610e729034611c46565b9050610e7e8c8261140b565b505b505050505050505050505050565b600080610ea461024b60c0870160a0880161158e565b602081015190915073ffffffffffffffffffffffffffffffffffffffff163314610f2a576040517f08c379a000000000000000000000000000000000000000000000000000000000815260206004820152600560248201527f2161757468000000000000000000000000000000000000000000000000000000604482015260640161049f565b80516040517f651b04a700000000000000000000000000000000000000000000000000000000815273ffffffffffffffffffffffffffffffffffffffff9091169063651b04a790610f8390889088908890600401611cbd565b602060405180830381865afa158015610fa0573d6000803e3d6000fd5b505050506040513d601f19601f82011682018060405250810190610fc49190611d89565b61102a576040517f08c379a000000000000000000000000000000000000000000000000000000000815260206004820152600660248201527f2170726f6f660000000000000000000000000000000000000000000000000000604482015260640161049f565b60808501354614611097576040517f08c379a000000000000000000000000000000000000000000000000000000000815260206004820152600a60248201527f21746f436861696e496400000000000000000000000000000000000000000000604482015260640161049f565b60006110aa6110a587611add565b611289565b60008181526006602052604090205490915060ff1615611128576040517f08c379a000000000000000000000000000000000000000000000000000000000815260040161049f9060208082526004908201527f646f6e6500000000000000000000000000000000000000000000000000000000604082015260600190565b600081815260066020526040902080547fffffffffffffffffffffffffffffffffffffffffffffffffffffffffffffff001660011790559150509392505050565b6000806113885a61117a9190611c46565b60c085015190915061118d604083611dab565b6111979083611c46565b11611200576040517f08c379a000000000000000000000000000000000000000000000000000000000815260040161049f9060208082526004908201527f2167617300000000000000000000000000000000000000000000000000000000604082015260600190565b6112808460c001516000808760e001518789604001518a6060015160405160200161122e9493929190611de6565b604080517fffffffffffffffffffffffffffffffffffffffffffffffffffffffffffffffe081840301815291905260a089015173ffffffffffffffffffffffffffffffffffffffff16939291906114da565b50949350505050565b60008160405160200161129c9190611b7f565b604051602081830303815290604052805190602001209050919050565b6000808973ffffffffffffffffffffffffffffffffffffffff16631c2b2da68a8a8a8a8a8a8a6040518863ffffffff1660e01b81526004016113019796959493929190611921565b602060405180830381865afa15801561131e573d6000803e3d6000fd5b505050506040513d601f19601f82011682018060405250810190611342919061197e565b905061134e8a8261140b565b9998505050505050505050565b6040517fa1dbf4320000000000000000000000000000000000000000000000000000000081526004810183905273ffffffffffffffffffffffffffffffffffffffff8281166024830152600091829186169063a1dbf43290604401602060405180830381865afa1580156113d3573d6000803e3d6000fd5b505050506040513d601f19601f820116820180604052508101906113f7919061197e565b9050611403858261140b565b949350505050565b60008273ffffffffffffffffffffffffffffffffffffffff168260405160006040518083038185875af1925050503d8060008114611465576040519150601f19603f3d011682016040523d82523d6000602084013e61146a565b606091505b50509050806114d5576040517f08c379a000000000000000000000000000000000000000000000000000000000815260206004820152600560248201527f2173656e64000000000000000000000000000000000000000000000000000000604482015260640161049f565b505050565b6000606060008060008661ffff1667ffffffffffffffff811115611500576115006119d9565b6040519080825280601f01601f19166020018201604052801561152a576020820181803683370190505b5090506000808751602089018b8e8ef191503d92508683111561154b578692505b828152826000602083013e90999098509650505050505050565b803573ffffffffffffffffffffffffffffffffffffffff8116811461158957600080fd5b919050565b6000602082840312156115a057600080fd5b6115a982611565565b9392505050565b60008083601f8401126115c257600080fd5b50813567ffffffffffffffff8111156115da57600080fd5b6020830191508360208285010111156115f257600080fd5b9250929050565b600080600080600080600060a0888a03121561161457600080fd5b8735965061162460208901611565565b955060408801359450606088013567ffffffffffffffff8082111561164857600080fd5b6116548b838c016115b0565b909650945060808a013591508082111561166d57600080fd5b5061167a8a828b016115b0565b989b979a50959850939692959293505050565b600080604083850312156116a057600080fd5b6116a983611565565b91506116b760208401611565565b90509250929050565b60005b838110156116db5781810151838201526020016116c3565b50506000910152565b600081518084526116fc8160208601602086016116c0565b601f017fffffffffffffffffffffffffffffffffffffffffffffffffffffffffffffffe0169290920160200192915050565b6020815260006115a960208301846116e4565b6000806040838503121561175457600080fd5b61175d83611565565b946020939093013593505050565b60008060008060008060008060c0898b03121561178757600080fd5b8835975061179760208a01611565565b965060408901359550606089013567ffffffffffffffff808211156117bb57600080fd5b6117c78c838d016115b0565b90975095508591506117db60808c01611565565b945060a08b01359150808211156117f157600080fd5b506117fe8b828c016115b0565b999c989b5096995094979396929594505050565b6000806000806080858703121561182857600080fd5b8435935061183860208601611565565b93969395505050506040820135916060013590565b60008060006040848603121561186257600080fd5b833567ffffffffffffffff8082111561187a57600080fd5b90850190610100828803121561188f57600080fd5b909350602085013590808211156118a557600080fd5b506118b2868287016115b0565b9497909650939450505050565b6000602082840312156118d157600080fd5b5035919050565b8183528181602085013750600060208284010152600060207fffffffffffffffffffffffffffffffffffffffffffffffffffffffffffffffe0601f840116840101905092915050565b87815273ffffffffffffffffffffffffffffffffffffffff8716602082015285604082015260a06060820152600061195d60a0830186886118d8565b82810360808401526119708185876118d8565b9a9950505050505050505050565b60006020828403121561199057600080fd5b5051919050565b7f4e487b7100000000000000000000000000000000000000000000000000000000600052601160045260246000fd5b8082018082111561072557610725611997565b7f4e487b7100000000000000000000000000000000000000000000000000000000600052604160045260246000fd5b604051610100810167ffffffffffffffff81118282101715611a2c57611a2c6119d9565b60405290565b600082601f830112611a4357600080fd5b813567ffffffffffffffff80821115611a5e57611a5e6119d9565b604051601f83017fffffffffffffffffffffffffffffffffffffffffffffffffffffffffffffffe0908116603f01168101908282118183101715611aa457611aa46119d9565b81604052838152866020858801011115611abd57600080fd5b836020870160208301376000602085830101528094505050505092915050565b60006101008236031215611af057600080fd5b611af8611a08565b611b0183611565565b81526020830135602082015260408301356040820152611b2360608401611565565b606082015260808301356080820152611b3e60a08401611565565b60a082015260c083013560c082015260e083013567ffffffffffffffff811115611b6757600080fd5b611b7336828601611a32565b60e08301525092915050565b60208152600073ffffffffffffffffffffffffffffffffffffffff808451166020840152602084015160408401526040840151606084015280606085015116608084015250608083015160a083015260a0830151611bf560c084018273ffffffffffffffffffffffffffffffffffffffff169052565b5060c083015160e083015260e08301516101008081850152506114036101208401826116e4565b848152836020820152606060408201526000611c3c6060830184866118d8565b9695505050505050565b8181038181111561072557610725611997565b60008083357fffffffffffffffffffffffffffffffffffffffffffffffffffffffffffffffe1843603018112611c8e57600080fd5b830160208101925035905067ffffffffffffffff811115611cae57600080fd5b8036038213156115f257600080fd5b60408152600073ffffffffffffffffffffffffffffffffffffffff80611ce287611565565b166040840152602086013560608401526040860135608084015280611d0960608801611565565b1660a084015250608085013560c0830152611d2660a08601611565565b73ffffffffffffffffffffffffffffffffffffffff811660e08401525061010060c086013581840152611d5c60e0870187611c59565b82610120860152611d72610140860182846118d8565b925050508281036020840152611c3c8185876118d8565b600060208284031215611d9b57600080fd5b815180151581146115a957600080fd5b600082611de1577f4e487b7100000000000000000000000000000000000000000000000000000000600052601260045260246000fd5b500490565b60008551611df8818460208a016116c0565b9190910193845250602083019190915260601b7fffffffffffffffffffffffffffffffffffffffff00000000000000000000000016604082015260540191905056fea2646970667358221220f4f907731981d0e9b53fa0376e8696ff7cb105e8691bb13685ec3ec20f4aa5c564736f6c63430008110033",
			"devdoc": {
				"kind": "dev",
				"methods": {
					"LOCAL_CHAINID()": {
						"details": "Fetch local chain id.",
						"returns": {
							"_0": "chainId Local chain id."
						}
					},
					"changeSetter(address)": {
						"details": "Change setter.",
						"params": {
							"newSetter": "New setter."
						}
					},
					"fee(uint256,address,uint256,bytes,bytes)": {
						"params": {
							"encoded": "The calldata which encoded by ABI Encoding.",
							"gasLimit": "Gas limit for destination user application used.",
							"params": "General extensibility for relayer to custom functionality."
						}
					},
					"getAppConfig(address)": {
						"details": "Fetch user application config.",
						"params": {
							"ua": "User application contract address."
						},
						"returns": {
							"_0": "user application config."
						}
					},
					"importHash(uint256,address,uint256,bytes32)": {
						"details": "Import hash by any oracle address.",
						"params": {
							"chainId": "The source chain id.",
							"channel": "The message channel.",
							"hash_": "The hash to import.",
							"msgIndex": "The source chain message index."
						}
					},
					"recv((address,uint256,uint256,address,uint256,address,uint256,bytes),bytes)": {
						"details": "Recv verified message from Channel and dispatch to destination user application address.",
						"params": {
							"message": "Verified receive message info.",
							"proof": "Message proof of this message."
						},
						"returns": {
							"dispatchResult": "Result of the message dispatch."
						}
					},
					"send(uint256,address,uint256,bytes,address,bytes)": {
						"details": "Send a cross-chain message over the endpoint.",
						"params": {
							"encoded": "The calldata which encoded by ABI Encoding.",
							"gasLimit": "Gas limit for destination user application used.",
							"params": "General extensibility for relayer to custom functionality.",
							"refund": "Return extra fee to refund address.",
							"to": "User application contract address which receive the message.",
							"toChainId": "The Message destination chain id."
						}
					},
					"setAppConfig(address,address)": {
						"params": {
							"oracle": "Oracle which user application.",
							"relayer": "Relayer which user application choose."
						}
					},
					"setDefaultConfig(address,address)": {
						"details": "Set default user config for all user application.",
						"params": {
							"oracle": "Default oracle.",
							"relayer": "Default relayer."
						}
					}
				},
				"version": 1
			},
			"userdoc": {
				"kind": "user",
				"methods": {
					"changeSetter(address)": {
						"notice": "Only current setter could call."
					},
					"getAppConfig(address)": {
						"notice": "If user application has not configured, then the default user config is used."
					},
					"hashLookup(address,bytes32)": {
						"notice": "oracle => lookupKey => hash"
					},
					"importHash(uint256,address,uint256,bytes32)": {
						"notice": "Hash is an abstract of the proof system, it can be a block hash or a message root hash,  \t\tspecifically provided by oracles."
					},
					"recv((address,uint256,uint256,address,uint256,address,uint256,bytes),bytes)": {
						"notice": "Only channel could call this function."
					},
					"send(uint256,address,uint256,bytes,address,bytes)": {
						"notice": "follow https://eips.ethereum.org/EIPS/eip-5750"
					},
					"setAppConfig(address,address)": {
						"notice": "Set user application config."
					},
					"setDefaultConfig(address,address)": {
						"notice": "Only setter could call."
					}
				},
				"version": 1
			},
			"gitCommit": "b8c8b8bfc2f87ee2728eea8c3781e155c1988299",
			"sourceName": "lib/ORMP/src/ORMP.sol",
			"chainId": "44",
			"linkReferences": {},
			"deployedLinkReferences": {}
		}
	]
}