{
	"_format": "sphinx-sol-ct-artifact-1",
	"merkleRoot": "0x8ed8ae243a4823b490402b72a5a66bd6367651f42c7ca9d53351953dddb0461a",
	"contractName": "Relayer",
	"address": "0x114890eB7386F94eae410186F20968bFAf66142a",
	"abi": [
		{
			"type": "constructor",
			"inputs": [
				{
					"name": "dao",
					"type": "address",
					"internalType": "address"
				},
				{
					"name": "ormp",
					"type": "address",
					"internalType": "address"
				}
			],
			"stateMutability": "nonpayable"
		},
		{
			"type": "receive",
			"stateMutability": "payable"
		},
		{
			"type": "function",
			"name": "PROTOCOL",
			"inputs": [],
			"outputs": [
				{
					"name": "",
					"type": "address",
					"internalType": "address"
				}
			],
			"stateMutability": "view"
		},
		{
			"type": "function",
			"name": "approvedOf",
			"inputs": [
				{
					"name": "",
					"type": "address",
					"internalType": "address"
				}
			],
			"outputs": [
				{
					"name": "",
					"type": "bool",
					"internalType": "bool"
				}
			],
			"stateMutability": "view"
		},
		{
			"type": "function",
			"name": "changeOwner",
			"inputs": [
				{
					"name": "newOwner",
					"type": "address",
					"internalType": "address"
				}
			],
			"outputs": [],
			"stateMutability": "nonpayable"
		},
		{
			"type": "function",
			"name": "configOf",
			"inputs": [
				{
					"name": "",
					"type": "uint256",
					"internalType": "uint256"
				}
			],
			"outputs": [
				{
					"name": "baseGas",
					"type": "uint64",
					"internalType": "uint64"
				},
				{
					"name": "gasPerByte",
					"type": "uint64",
					"internalType": "uint64"
				}
			],
			"stateMutability": "view"
		},
		{
			"type": "function",
			"name": "fee",
			"inputs": [
				{
					"name": "toChainId",
					"type": "uint256",
					"internalType": "uint256"
				},
				{
					"name": "",
					"type": "address",
					"internalType": "address"
				},
				{
					"name": "gasLimit",
					"type": "uint256",
					"internalType": "uint256"
				},
				{
					"name": "encoded",
					"type": "bytes",
					"internalType": "bytes"
				},
				{
					"name": "",
					"type": "bytes",
					"internalType": "bytes"
				}
			],
			"outputs": [
				{
					"name": "",
					"type": "uint256",
					"internalType": "uint256"
				}
			],
			"stateMutability": "view"
		},
		{
			"type": "function",
			"name": "isApproved",
			"inputs": [
				{
					"name": "operator",
					"type": "address",
					"internalType": "address"
				}
			],
			"outputs": [
				{
					"name": "",
					"type": "bool",
					"internalType": "bool"
				}
			],
			"stateMutability": "view"
		},
		{
			"type": "function",
			"name": "owner",
			"inputs": [],
			"outputs": [
				{
					"name": "",
					"type": "address",
					"internalType": "address"
				}
			],
			"stateMutability": "view"
		},
		{
			"type": "function",
			"name": "priceOf",
			"inputs": [
				{
					"name": "",
					"type": "uint256",
					"internalType": "uint256"
				}
			],
			"outputs": [
				{
					"name": "dstPriceRatio",
					"type": "uint128",
					"internalType": "uint128"
				},
				{
					"name": "dstGasPriceInWei",
					"type": "uint128",
					"internalType": "uint128"
				}
			],
			"stateMutability": "view"
		},
		{
			"type": "function",
			"name": "relay",
			"inputs": [
				{
					"name": "message",
					"type": "tuple",
					"internalType": "struct Message",
					"components": [
						{
							"name": "channel",
							"type": "address",
							"internalType": "address"
						},
						{
							"name": "index",
							"type": "uint256",
							"internalType": "uint256"
						},
						{
							"name": "fromChainId",
							"type": "uint256",
							"internalType": "uint256"
						},
						{
							"name": "from",
							"type": "address",
							"internalType": "address"
						},
						{
							"name": "toChainId",
							"type": "uint256",
							"internalType": "uint256"
						},
						{
							"name": "to",
							"type": "address",
							"internalType": "address"
						},
						{
							"name": "gasLimit",
							"type": "uint256",
							"internalType": "uint256"
						},
						{
							"name": "encoded",
							"type": "bytes",
							"internalType": "bytes"
						}
					]
				}
			],
			"outputs": [],
			"stateMutability": "nonpayable"
		},
		{
			"type": "function",
			"name": "setApproved",
			"inputs": [
				{
					"name": "operator",
					"type": "address",
					"internalType": "address"
				},
				{
					"name": "approve",
					"type": "bool",
					"internalType": "bool"
				}
			],
			"outputs": [],
			"stateMutability": "nonpayable"
		},
		{
			"type": "function",
			"name": "setDstConfig",
			"inputs": [
				{
					"name": "chainId",
					"type": "uint256",
					"internalType": "uint256"
				},
				{
					"name": "baseGas",
					"type": "uint64",
					"internalType": "uint64"
				},
				{
					"name": "gasPerByte",
					"type": "uint64",
					"internalType": "uint64"
				}
			],
			"outputs": [],
			"stateMutability": "nonpayable"
		},
		{
			"type": "function",
			"name": "setDstPrice",
			"inputs": [
				{
					"name": "chainId",
					"type": "uint256",
					"internalType": "uint256"
				},
				{
					"name": "dstPriceRatio",
					"type": "uint128",
					"internalType": "uint128"
				},
				{
					"name": "dstGasPriceInWei",
					"type": "uint128",
					"internalType": "uint128"
				}
			],
			"outputs": [],
			"stateMutability": "nonpayable"
		},
		{
			"type": "function",
			"name": "version",
			"inputs": [],
			"outputs": [
				{
					"name": "",
					"type": "string",
					"internalType": "string"
				}
			],
			"stateMutability": "pure"
		},
		{
			"type": "function",
			"name": "withdraw",
			"inputs": [
				{
					"name": "to",
					"type": "address",
					"internalType": "address"
				},
				{
					"name": "amount",
					"type": "uint256",
					"internalType": "uint256"
				}
			],
			"outputs": [],
			"stateMutability": "nonpayable"
		},
		{
			"type": "event",
			"name": "OwnershipTransferred",
			"inputs": [
				{
					"name": "previousOwner",
					"type": "address",
					"indexed": true,
					"internalType": "address"
				},
				{
					"name": "newOwner",
					"type": "address",
					"indexed": true,
					"internalType": "address"
				}
			],
			"anonymous": false
		},
		{
			"type": "event",
			"name": "SetApproved",
			"inputs": [
				{
					"name": "operator",
					"type": "address",
					"indexed": false,
					"internalType": "address"
				},
				{
					"name": "approve",
					"type": "bool",
					"indexed": false,
					"internalType": "bool"
				}
			],
			"anonymous": false
		},
		{
			"type": "event",
			"name": "SetDstConfig",
			"inputs": [
				{
					"name": "chainId",
					"type": "uint256",
					"indexed": true,
					"internalType": "uint256"
				},
				{
					"name": "baseGas",
					"type": "uint64",
					"indexed": false,
					"internalType": "uint64"
				},
				{
					"name": "gasPerByte",
					"type": "uint64",
					"indexed": false,
					"internalType": "uint64"
				}
			],
			"anonymous": false
		},
		{
			"type": "event",
			"name": "SetDstPrice",
			"inputs": [
				{
					"name": "chainId",
					"type": "uint256",
					"indexed": true,
					"internalType": "uint256"
				},
				{
					"name": "dstPriceRatio",
					"type": "uint128",
					"indexed": false,
					"internalType": "uint128"
				},
				{
					"name": "dstGasPriceInWei",
					"type": "uint128",
					"indexed": false,
					"internalType": "uint128"
				}
			],
			"anonymous": false
		}
	],
	"solcInputHash": "bd281d871188d23306cfa03337a3378b",
	"args": [
		"0x040f331774Ed6BB161412B4cEDb1358B382aF3A5",
		"0x13b2211a7cA45Db2808F6dB05557ce5347e3634e"
	],
	"bytecode": "0x60a060405234801561001057600080fd5b5060405161130538038061130583398101604081905261002f91610076565b6001600160a01b03908116608052600080546001600160a01b031916929091169190911790556100a9565b80516001600160a01b038116811461007157600080fd5b919050565b6000806040838503121561008957600080fd5b6100928361005a565b91506100a06020840161005a565b90509250929050565b60805161123a6100cb6000396000818161028801526106cb015261123a6000f3fe6080604052600436106100e15760003560e01c806391b9b8271161007f578063b77bd6d511610059578063b77bd6d5146102fa578063b9186d7d1461031a578063edc2ee4e1461039a578063f3fef3a31461040257600080fd5b806391b9b82714610276578063a6f9dae1146102aa578063b6333d16146102ca57600080fd5b8063673448dd116100bb578063673448dd1461018e57806384cfb680146101e457806385753106146102045780638da5cb5b1461022457600080fd5b80631c2b2da6146100ed57806336bcf1b21461012057806354fd4d501461014257600080fd5b366100e857005b600080fd5b3480156100f957600080fd5b5061010d610108366004610d39565b610422565b6040519081526020015b60405180910390f35b34801561012c57600080fd5b5061014061013b366004610dcd565b610615565b005b34801561014e57600080fd5b50604080518082018252600581527f322e312e30000000000000000000000000000000000000000000000000000000602082015290516101179190610e10565b34801561019a57600080fd5b506101d46101a9366004610e7c565b73ffffffffffffffffffffffffffffffffffffffff1660009081526003602052604090205460ff1690565b6040519015158152602001610117565b3480156101f057600080fd5b506101406101ff366004610ea8565b610747565b34801561021057600080fd5b5061014061021f366004610ef7565b610856565b34801561023057600080fd5b506000546102519073ffffffffffffffffffffffffffffffffffffffff1681565b60405173ffffffffffffffffffffffffffffffffffffffff9091168152602001610117565b34801561028257600080fd5b506102517f000000000000000000000000000000000000000000000000000000000000000081565b3480156102b657600080fd5b506101406102c5366004610e7c565b610981565b3480156102d657600080fd5b506101d46102e5366004610e7c565b60036020526000908152604090205460ff1681565b34801561030657600080fd5b50610140610315366004610f53565b610a77565b34801561032657600080fd5b50610371610335366004610f86565b6001602052600090815260409020546fffffffffffffffffffffffffffffffff8082169170010000000000000000000000000000000090041682565b604080516fffffffffffffffffffffffffffffffff938416815292909116602083015201610117565b3480156103a657600080fd5b506103e16103b5366004610f86565b60026020526000908152604090205467ffffffffffffffff808216916801000000000000000090041682565b6040805167ffffffffffffffff938416815292909116602083015201610117565b34801561040e57600080fd5b5061014061041d366004610f9f565b610b7f565b60008781526001602090815260408083208151808301835290546fffffffffffffffffffffffffffffffff808216835270010000000000000000000000000000000090910416818401528a84526002835281842082518084019093525467ffffffffffffffff80821680855268010000000000000000909204169383019390935286928992908503610515576040517f08c379a000000000000000000000000000000000000000000000000000000000815260206004820152600860248201527f216261736547617300000000000000000000000000000000000000000000000060448201526064015b60405180910390fd5b805160009061052f90859067ffffffffffffffff16610ff8565b83602001516fffffffffffffffffffffffffffffffff166105509190611011565b905060006402540be40084600001516fffffffffffffffffffffffffffffffff168361057c9190611011565b6105869190611028565b905060006402540be40085600001516fffffffffffffffffffffffffffffffff1686602001516fffffffffffffffffffffffffffffffff1689876020015167ffffffffffffffff166105d89190611011565b6105e29190611011565b6105ec9190611011565b6105f69190611028565b90506106028183610ff8565b9f9e505050505050505050505050505050565b3360009081526003602052604090205460ff1661068e576040517f08c379a000000000000000000000000000000000000000000000000000000000815260206004820152600860248201527f21617070726f7665000000000000000000000000000000000000000000000000604482015260640161050c565b6040517fee6ad16700000000000000000000000000000000000000000000000000000000815273ffffffffffffffffffffffffffffffffffffffff7f0000000000000000000000000000000000000000000000000000000000000000169063ee6ad16790610700908490600401611110565b6020604051808303816000875af115801561071f573d6000803e3d6000fd5b505050506040513d601f19601f8201168201806040525081019061074391906111e7565b5050565b60005473ffffffffffffffffffffffffffffffffffffffff1633146107c8576040517f08c379a000000000000000000000000000000000000000000000000000000000815260206004820152600660248201527f216f776e65720000000000000000000000000000000000000000000000000000604482015260640161050c565b73ffffffffffffffffffffffffffffffffffffffff821660008181526003602090815260409182902080547fffffffffffffffffffffffffffffffffffffffffffffffffffffffffffffff00168515159081179091558251938452908301527fd984ea421ae5d2a473199f85e03998a04a12f54d6f1fa183a955b3df1c0c546d910160405180910390a15050565b3360009081526003602052604090205460ff166108cf576040517f08c379a000000000000000000000000000000000000000000000000000000000815260206004820152600860248201527f21617070726f7665000000000000000000000000000000000000000000000000604482015260640161050c565b60408051808201825267ffffffffffffffff848116808352848216602080850182815260008a815260028352879020955186549151861668010000000000000000027fffffffffffffffffffffffffffffffff000000000000000000000000000000009092169516949094179390931790935583519081529081019190915284917f22f5a8bc0090523dde00cddddb6a70e17d4f457f4b823137143657c8844d8eac91015b60405180910390a2505050565b60005473ffffffffffffffffffffffffffffffffffffffff163314610a02576040517f08c379a000000000000000000000000000000000000000000000000000000000815260206004820152600660248201527f216f776e65720000000000000000000000000000000000000000000000000000604482015260640161050c565b6000805473ffffffffffffffffffffffffffffffffffffffff8381167fffffffffffffffffffffffff0000000000000000000000000000000000000000831681178455604051919092169283917f8be0079c531659141344cd1fd0a4f28419497f9722a3daafe3b4186f6b6457e09190a35050565b3360009081526003602052604090205460ff16610af0576040517f08c379a000000000000000000000000000000000000000000000000000000000815260206004820152600860248201527f21617070726f7665000000000000000000000000000000000000000000000000604482015260640161050c565b6040805180820182526fffffffffffffffffffffffffffffffff848116808352848216602080850182815260008a8152600183528790209551905185167001000000000000000000000000000000000294169390931790935583519081529081019190915284917f1ec2caaeffa2fe858d7b732753d0bfd5a9cda5f73f3527136bca5a11c2f1d4b39101610974565b3360009081526003602052604090205460ff16610bf8576040517f08c379a000000000000000000000000000000000000000000000000000000000815260206004820152600860248201527f21617070726f7665000000000000000000000000000000000000000000000000604482015260640161050c565b60008273ffffffffffffffffffffffffffffffffffffffff168260405160006040518083038185875af1925050503d8060008114610c52576040519150601f19603f3d011682016040523d82523d6000602084013e610c57565b606091505b5050905080610cc2576040517f08c379a000000000000000000000000000000000000000000000000000000000815260206004820152600960248201527f2177697468647261770000000000000000000000000000000000000000000000604482015260640161050c565b505050565b803573ffffffffffffffffffffffffffffffffffffffff81168114610ceb57600080fd5b919050565b60008083601f840112610d0257600080fd5b50813567ffffffffffffffff811115610d1a57600080fd5b602083019150836020828501011115610d3257600080fd5b9250929050565b600080600080600080600060a0888a031215610d5457600080fd5b87359650610d6460208901610cc7565b955060408801359450606088013567ffffffffffffffff80821115610d8857600080fd5b610d948b838c01610cf0565b909650945060808a0135915080821115610dad57600080fd5b50610dba8a828b01610cf0565b989b979a50959850939692959293505050565b600060208284031215610ddf57600080fd5b813567ffffffffffffffff811115610df657600080fd5b82016101008185031215610e0957600080fd5b9392505050565b600060208083528351808285015260005b81811015610e3d57858101830151858201604001528201610e21565b5060006040828601015260407fffffffffffffffffffffffffffffffffffffffffffffffffffffffffffffffe0601f8301168501019250505092915050565b600060208284031215610e8e57600080fd5b610e0982610cc7565b8015158114610ea557600080fd5b50565b60008060408385031215610ebb57600080fd5b610ec483610cc7565b91506020830135610ed481610e97565b809150509250929050565b803567ffffffffffffffff81168114610ceb57600080fd5b600080600060608486031215610f0c57600080fd5b83359250610f1c60208501610edf565b9150610f2a60408501610edf565b90509250925092565b80356fffffffffffffffffffffffffffffffff81168114610ceb57600080fd5b600080600060608486031215610f6857600080fd5b83359250610f7860208501610f33565b9150610f2a60408501610f33565b600060208284031215610f9857600080fd5b5035919050565b60008060408385031215610fb257600080fd5b610fbb83610cc7565b946020939093013593505050565b7f4e487b7100000000000000000000000000000000000000000000000000000000600052601160045260246000fd5b8082018082111561100b5761100b610fc9565b92915050565b808202811582820484141761100b5761100b610fc9565b60008261105e577f4e487b7100000000000000000000000000000000000000000000000000000000600052601260045260246000fd5b500490565b60008083357fffffffffffffffffffffffffffffffffffffffffffffffffffffffffffffffe184360301811261109857600080fd5b830160208101925035905067ffffffffffffffff8111156110b857600080fd5b803603821315610d3257600080fd5b8183528181602085013750600060208284010152600060207fffffffffffffffffffffffffffffffffffffffffffffffffffffffffffffffe0601f840116840101905092915050565b60408152600073ffffffffffffffffffffffffffffffffffffffff8061113585610cc7565b16604084015260208401356060840152604084013560808401528061115c60608601610cc7565b1660a084015250608083013560c083015261117960a08401610cc7565b73ffffffffffffffffffffffffffffffffffffffff811660e08401525061010060c0840135818401526111af60e0850185611063565b826101208601526111c5610140860182846110c7565b9250505082810360208401526111df816000815260200190565b949350505050565b6000602082840312156111f957600080fd5b8151610e0981610e9756fea2646970667358221220bbd7909d0486dc4aa26a025963d30c5f086d116121392f9d2559ce8eb477037464736f6c63430008110033",
	"deployedBytecode": "0x6080604052600436106100e15760003560e01c806391b9b8271161007f578063b77bd6d511610059578063b77bd6d5146102fa578063b9186d7d1461031a578063edc2ee4e1461039a578063f3fef3a31461040257600080fd5b806391b9b82714610276578063a6f9dae1146102aa578063b6333d16146102ca57600080fd5b8063673448dd116100bb578063673448dd1461018e57806384cfb680146101e457806385753106146102045780638da5cb5b1461022457600080fd5b80631c2b2da6146100ed57806336bcf1b21461012057806354fd4d501461014257600080fd5b366100e857005b600080fd5b3480156100f957600080fd5b5061010d610108366004610d39565b610422565b6040519081526020015b60405180910390f35b34801561012c57600080fd5b5061014061013b366004610dcd565b610615565b005b34801561014e57600080fd5b50604080518082018252600581527f322e312e30000000000000000000000000000000000000000000000000000000602082015290516101179190610e10565b34801561019a57600080fd5b506101d46101a9366004610e7c565b73ffffffffffffffffffffffffffffffffffffffff1660009081526003602052604090205460ff1690565b6040519015158152602001610117565b3480156101f057600080fd5b506101406101ff366004610ea8565b610747565b34801561021057600080fd5b5061014061021f366004610ef7565b610856565b34801561023057600080fd5b506000546102519073ffffffffffffffffffffffffffffffffffffffff1681565b60405173ffffffffffffffffffffffffffffffffffffffff9091168152602001610117565b34801561028257600080fd5b506102517f00000000000000000000000013b2211a7ca45db2808f6db05557ce5347e3634e81565b3480156102b657600080fd5b506101406102c5366004610e7c565b610981565b3480156102d657600080fd5b506101d46102e5366004610e7c565b60036020526000908152604090205460ff1681565b34801561030657600080fd5b50610140610315366004610f53565b610a77565b34801561032657600080fd5b50610371610335366004610f86565b6001602052600090815260409020546fffffffffffffffffffffffffffffffff8082169170010000000000000000000000000000000090041682565b604080516fffffffffffffffffffffffffffffffff938416815292909116602083015201610117565b3480156103a657600080fd5b506103e16103b5366004610f86565b60026020526000908152604090205467ffffffffffffffff808216916801000000000000000090041682565b6040805167ffffffffffffffff938416815292909116602083015201610117565b34801561040e57600080fd5b5061014061041d366004610f9f565b610b7f565b60008781526001602090815260408083208151808301835290546fffffffffffffffffffffffffffffffff808216835270010000000000000000000000000000000090910416818401528a84526002835281842082518084019093525467ffffffffffffffff80821680855268010000000000000000909204169383019390935286928992908503610515576040517f08c379a000000000000000000000000000000000000000000000000000000000815260206004820152600860248201527f216261736547617300000000000000000000000000000000000000000000000060448201526064015b60405180910390fd5b805160009061052f90859067ffffffffffffffff16610ff8565b83602001516fffffffffffffffffffffffffffffffff166105509190611011565b905060006402540be40084600001516fffffffffffffffffffffffffffffffff168361057c9190611011565b6105869190611028565b905060006402540be40085600001516fffffffffffffffffffffffffffffffff1686602001516fffffffffffffffffffffffffffffffff1689876020015167ffffffffffffffff166105d89190611011565b6105e29190611011565b6105ec9190611011565b6105f69190611028565b90506106028183610ff8565b9f9e505050505050505050505050505050565b3360009081526003602052604090205460ff1661068e576040517f08c379a000000000000000000000000000000000000000000000000000000000815260206004820152600860248201527f21617070726f7665000000000000000000000000000000000000000000000000604482015260640161050c565b6040517fee6ad16700000000000000000000000000000000000000000000000000000000815273ffffffffffffffffffffffffffffffffffffffff7f00000000000000000000000013b2211a7ca45db2808f6db05557ce5347e3634e169063ee6ad16790610700908490600401611110565b6020604051808303816000875af115801561071f573d6000803e3d6000fd5b505050506040513d601f19601f8201168201806040525081019061074391906111e7565b5050565b60005473ffffffffffffffffffffffffffffffffffffffff1633146107c8576040517f08c379a000000000000000000000000000000000000000000000000000000000815260206004820152600660248201527f216f776e65720000000000000000000000000000000000000000000000000000604482015260640161050c565b73ffffffffffffffffffffffffffffffffffffffff821660008181526003602090815260409182902080547fffffffffffffffffffffffffffffffffffffffffffffffffffffffffffffff00168515159081179091558251938452908301527fd984ea421ae5d2a473199f85e03998a04a12f54d6f1fa183a955b3df1c0c546d910160405180910390a15050565b3360009081526003602052604090205460ff166108cf576040517f08c379a000000000000000000000000000000000000000000000000000000000815260206004820152600860248201527f21617070726f7665000000000000000000000000000000000000000000000000604482015260640161050c565b60408051808201825267ffffffffffffffff848116808352848216602080850182815260008a815260028352879020955186549151861668010000000000000000027fffffffffffffffffffffffffffffffff000000000000000000000000000000009092169516949094179390931790935583519081529081019190915284917f22f5a8bc0090523dde00cddddb6a70e17d4f457f4b823137143657c8844d8eac91015b60405180910390a2505050565b60005473ffffffffffffffffffffffffffffffffffffffff163314610a02576040517f08c379a000000000000000000000000000000000000000000000000000000000815260206004820152600660248201527f216f776e65720000000000000000000000000000000000000000000000000000604482015260640161050c565b6000805473ffffffffffffffffffffffffffffffffffffffff8381167fffffffffffffffffffffffff0000000000000000000000000000000000000000831681178455604051919092169283917f8be0079c531659141344cd1fd0a4f28419497f9722a3daafe3b4186f6b6457e09190a35050565b3360009081526003602052604090205460ff16610af0576040517f08c379a000000000000000000000000000000000000000000000000000000000815260206004820152600860248201527f21617070726f7665000000000000000000000000000000000000000000000000604482015260640161050c565b6040805180820182526fffffffffffffffffffffffffffffffff848116808352848216602080850182815260008a8152600183528790209551905185167001000000000000000000000000000000000294169390931790935583519081529081019190915284917f1ec2caaeffa2fe858d7b732753d0bfd5a9cda5f73f3527136bca5a11c2f1d4b39101610974565b3360009081526003602052604090205460ff16610bf8576040517f08c379a000000000000000000000000000000000000000000000000000000000815260206004820152600860248201527f21617070726f7665000000000000000000000000000000000000000000000000604482015260640161050c565b60008273ffffffffffffffffffffffffffffffffffffffff168260405160006040518083038185875af1925050503d8060008114610c52576040519150601f19603f3d011682016040523d82523d6000602084013e610c57565b606091505b5050905080610cc2576040517f08c379a000000000000000000000000000000000000000000000000000000000815260206004820152600960248201527f2177697468647261770000000000000000000000000000000000000000000000604482015260640161050c565b505050565b803573ffffffffffffffffffffffffffffffffffffffff81168114610ceb57600080fd5b919050565b60008083601f840112610d0257600080fd5b50813567ffffffffffffffff811115610d1a57600080fd5b602083019150836020828501011115610d3257600080fd5b9250929050565b600080600080600080600060a0888a031215610d5457600080fd5b87359650610d6460208901610cc7565b955060408801359450606088013567ffffffffffffffff80821115610d8857600080fd5b610d948b838c01610cf0565b909650945060808a0135915080821115610dad57600080fd5b50610dba8a828b01610cf0565b989b979a50959850939692959293505050565b600060208284031215610ddf57600080fd5b813567ffffffffffffffff811115610df657600080fd5b82016101008185031215610e0957600080fd5b9392505050565b600060208083528351808285015260005b81811015610e3d57858101830151858201604001528201610e21565b5060006040828601015260407fffffffffffffffffffffffffffffffffffffffffffffffffffffffffffffffe0601f8301168501019250505092915050565b600060208284031215610e8e57600080fd5b610e0982610cc7565b8015158114610ea557600080fd5b50565b60008060408385031215610ebb57600080fd5b610ec483610cc7565b91506020830135610ed481610e97565b809150509250929050565b803567ffffffffffffffff81168114610ceb57600080fd5b600080600060608486031215610f0c57600080fd5b83359250610f1c60208501610edf565b9150610f2a60408501610edf565b90509250925092565b80356fffffffffffffffffffffffffffffffff81168114610ceb57600080fd5b600080600060608486031215610f6857600080fd5b83359250610f7860208501610f33565b9150610f2a60408501610f33565b600060208284031215610f9857600080fd5b5035919050565b60008060408385031215610fb257600080fd5b610fbb83610cc7565b946020939093013593505050565b7f4e487b7100000000000000000000000000000000000000000000000000000000600052601160045260246000fd5b8082018082111561100b5761100b610fc9565b92915050565b808202811582820484141761100b5761100b610fc9565b60008261105e577f4e487b7100000000000000000000000000000000000000000000000000000000600052601260045260246000fd5b500490565b60008083357fffffffffffffffffffffffffffffffffffffffffffffffffffffffffffffffe184360301811261109857600080fd5b830160208101925035905067ffffffffffffffff8111156110b857600080fd5b803603821315610d3257600080fd5b8183528181602085013750600060208284010152600060207fffffffffffffffffffffffffffffffffffffffffffffffffffffffffffffffe0601f840116840101905092915050565b60408152600073ffffffffffffffffffffffffffffffffffffffff8061113585610cc7565b16604084015260208401356060840152604084013560808401528061115c60608601610cc7565b1660a084015250608083013560c083015261117960a08401610cc7565b73ffffffffffffffffffffffffffffffffffffffff811660e08401525061010060c0840135818401526111af60e0850185611063565b826101208601526111c5610140860182846110c7565b9250505082810360208401526111df816000815260200190565b949350505050565b6000602082840312156111f957600080fd5b8151610e0981610e9756fea2646970667358221220bbd7909d0486dc4aa26a025963d30c5f086d116121392f9d2559ce8eb477037464736f6c63430008110033",
	"devdoc": {
		"kind": "dev",
		"methods": {},
		"version": 1
	},
	"userdoc": {
		"kind": "user",
		"methods": {},
		"version": 1
	},
	"gitCommit": "b8c8b8bfc2f87ee2728eea8c3781e155c1988299",
	"sourceName": "lib/ORMP/src/eco/Relayer.sol",
	"chainId": "44",
	"linkReferences": {},
	"deployedLinkReferences": {},
	"history": [
		{
			"_format": "sphinx-sol-ct-artifact-1",
			"merkleRoot": "0x8ed8ae243a4823b490402b72a5a66bd6367651f42c7ca9d53351953dddb0461a",
			"contractName": "Relayer",
			"address": "0x114890eB7386F94eae410186F20968bFAf66142a",
			"abi": [
				{
					"type": "constructor",
					"inputs": [
						{
							"name": "dao",
							"type": "address",
							"internalType": "address"
						},
						{
							"name": "ormp",
							"type": "address",
							"internalType": "address"
						}
					],
					"stateMutability": "nonpayable"
				},
				{
					"type": "receive",
					"stateMutability": "payable"
				},
				{
					"type": "function",
					"name": "PROTOCOL",
					"inputs": [],
					"outputs": [
						{
							"name": "",
							"type": "address",
							"internalType": "address"
						}
					],
					"stateMutability": "view"
				},
				{
					"type": "function",
					"name": "approvedOf",
					"inputs": [
						{
							"name": "",
							"type": "address",
							"internalType": "address"
						}
					],
					"outputs": [
						{
							"name": "",
							"type": "bool",
							"internalType": "bool"
						}
					],
					"stateMutability": "view"
				},
				{
					"type": "function",
					"name": "changeOwner",
					"inputs": [
						{
							"name": "newOwner",
							"type": "address",
							"internalType": "address"
						}
					],
					"outputs": [],
					"stateMutability": "nonpayable"
				},
				{
					"type": "function",
					"name": "configOf",
					"inputs": [
						{
							"name": "",
							"type": "uint256",
							"internalType": "uint256"
						}
					],
					"outputs": [
						{
							"name": "baseGas",
							"type": "uint64",
							"internalType": "uint64"
						},
						{
							"name": "gasPerByte",
							"type": "uint64",
							"internalType": "uint64"
						}
					],
					"stateMutability": "view"
				},
				{
					"type": "function",
					"name": "fee",
					"inputs": [
						{
							"name": "toChainId",
							"type": "uint256",
							"internalType": "uint256"
						},
						{
							"name": "",
							"type": "address",
							"internalType": "address"
						},
						{
							"name": "gasLimit",
							"type": "uint256",
							"internalType": "uint256"
						},
						{
							"name": "encoded",
							"type": "bytes",
							"internalType": "bytes"
						},
						{
							"name": "",
							"type": "bytes",
							"internalType": "bytes"
						}
					],
					"outputs": [
						{
							"name": "",
							"type": "uint256",
							"internalType": "uint256"
						}
					],
					"stateMutability": "view"
				},
				{
					"type": "function",
					"name": "isApproved",
					"inputs": [
						{
							"name": "operator",
							"type": "address",
							"internalType": "address"
						}
					],
					"outputs": [
						{
							"name": "",
							"type": "bool",
							"internalType": "bool"
						}
					],
					"stateMutability": "view"
				},
				{
					"type": "function",
					"name": "owner",
					"inputs": [],
					"outputs": [
						{
							"name": "",
							"type": "address",
							"internalType": "address"
						}
					],
					"stateMutability": "view"
				},
				{
					"type": "function",
					"name": "priceOf",
					"inputs": [
						{
							"name": "",
							"type": "uint256",
							"internalType": "uint256"
						}
					],
					"outputs": [
						{
							"name": "dstPriceRatio",
							"type": "uint128",
							"internalType": "uint128"
						},
						{
							"name": "dstGasPriceInWei",
							"type": "uint128",
							"internalType": "uint128"
						}
					],
					"stateMutability": "view"
				},
				{
					"type": "function",
					"name": "relay",
					"inputs": [
						{
							"name": "message",
							"type": "tuple",
							"internalType": "struct Message",
							"components": [
								{
									"name": "channel",
									"type": "address",
									"internalType": "address"
								},
								{
									"name": "index",
									"type": "uint256",
									"internalType": "uint256"
								},
								{
									"name": "fromChainId",
									"type": "uint256",
									"internalType": "uint256"
								},
								{
									"name": "from",
									"type": "address",
									"internalType": "address"
								},
								{
									"name": "toChainId",
									"type": "uint256",
									"internalType": "uint256"
								},
								{
									"name": "to",
									"type": "address",
									"internalType": "address"
								},
								{
									"name": "gasLimit",
									"type": "uint256",
									"internalType": "uint256"
								},
								{
									"name": "encoded",
									"type": "bytes",
									"internalType": "bytes"
								}
							]
						}
					],
					"outputs": [],
					"stateMutability": "nonpayable"
				},
				{
					"type": "function",
					"name": "setApproved",
					"inputs": [
						{
							"name": "operator",
							"type": "address",
							"internalType": "address"
						},
						{
							"name": "approve",
							"type": "bool",
							"internalType": "bool"
						}
					],
					"outputs": [],
					"stateMutability": "nonpayable"
				},
				{
					"type": "function",
					"name": "setDstConfig",
					"inputs": [
						{
							"name": "chainId",
							"type": "uint256",
							"internalType": "uint256"
						},
						{
							"name": "baseGas",
							"type": "uint64",
							"internalType": "uint64"
						},
						{
							"name": "gasPerByte",
							"type": "uint64",
							"internalType": "uint64"
						}
					],
					"outputs": [],
					"stateMutability": "nonpayable"
				},
				{
					"type": "function",
					"name": "setDstPrice",
					"inputs": [
						{
							"name": "chainId",
							"type": "uint256",
							"internalType": "uint256"
						},
						{
							"name": "dstPriceRatio",
							"type": "uint128",
							"internalType": "uint128"
						},
						{
							"name": "dstGasPriceInWei",
							"type": "uint128",
							"internalType": "uint128"
						}
					],
					"outputs": [],
					"stateMutability": "nonpayable"
				},
				{
					"type": "function",
					"name": "version",
					"inputs": [],
					"outputs": [
						{
							"name": "",
							"type": "string",
							"internalType": "string"
						}
					],
					"stateMutability": "pure"
				},
				{
					"type": "function",
					"name": "withdraw",
					"inputs": [
						{
							"name": "to",
							"type": "address",
							"internalType": "address"
						},
						{
							"name": "amount",
							"type": "uint256",
							"internalType": "uint256"
						}
					],
					"outputs": [],
					"stateMutability": "nonpayable"
				},
				{
					"type": "event",
					"name": "OwnershipTransferred",
					"inputs": [
						{
							"name": "previousOwner",
							"type": "address",
							"indexed": true,
							"internalType": "address"
						},
						{
							"name": "newOwner",
							"type": "address",
							"indexed": true,
							"internalType": "address"
						}
					],
					"anonymous": false
				},
				{
					"type": "event",
					"name": "SetApproved",
					"inputs": [
						{
							"name": "operator",
							"type": "address",
							"indexed": false,
							"internalType": "address"
						},
						{
							"name": "approve",
							"type": "bool",
							"indexed": false,
							"internalType": "bool"
						}
					],
					"anonymous": false
				},
				{
					"type": "event",
					"name": "SetDstConfig",
					"inputs": [
						{
							"name": "chainId",
							"type": "uint256",
							"indexed": true,
							"internalType": "uint256"
						},
						{
							"name": "baseGas",
							"type": "uint64",
							"indexed": false,
							"internalType": "uint64"
						},
						{
							"name": "gasPerByte",
							"type": "uint64",
							"indexed": false,
							"internalType": "uint64"
						}
					],
					"anonymous": false
				},
				{
					"type": "event",
					"name": "SetDstPrice",
					"inputs": [
						{
							"name": "chainId",
							"type": "uint256",
							"indexed": true,
							"internalType": "uint256"
						},
						{
							"name": "dstPriceRatio",
							"type": "uint128",
							"indexed": false,
							"internalType": "uint128"
						},
						{
							"name": "dstGasPriceInWei",
							"type": "uint128",
							"indexed": false,
							"internalType": "uint128"
						}
					],
					"anonymous": false
				}
			],
			"solcInputHash": "bd281d871188d23306cfa03337a3378b",
			"receipt": {
				"blockHash": "0xd5e569f7a11dd02a351e989a76baf506db5c329a1d13cd483f56c3b9a30c8b23",
				"blockNumber": 2900647,
				"contractAddress": null,
				"cumulativeGasUsed": "1195770",
				"from": "0xD70A2e6eACbdeDA77a5d4bBAE3bC70239A0e088f",
				"gasPrice": "75353256064",
				"gasUsed": "1195770",
				"hash": "0x6298084d440adac27dcdf3741151a88ec6f4f9463f7c768a5dd2c50fadb848e3",
				"index": 0,
				"logs": [
					{
						"address": "0x7e16116661CA8d66C73612382833153911Fa03B1",
						"blockHash": "0xd5e569f7a11dd02a351e989a76baf506db5c329a1d13cd483f56c3b9a30c8b23",
						"blockNumber": 2900647,
						"data": "0x0000000000000000000000000000000000000000000000000000000000000000",
						"index": 0,
						"topics": [
							"0x572f161235911da04685a68c06adf558fc7e4a36909dca394650e0adc19cc93d",
							"0x000000000000000000000000d70a2e6eacbdeda77a5d4bbae3bc70239a0e088f",
							"0x0000000000000000000000003d75d338b4711f8a33d293a2008f07a712513402",
							"0xec982efd37bfc258430039bce5b6f0ed427c90b23508870a2c207c0feedeab3c"
						],
						"transactionHash": "0x6298084d440adac27dcdf3741151a88ec6f4f9463f7c768a5dd2c50fadb848e3",
						"transactionIndex": 0
					},
					{
						"address": "0x040f331774Ed6BB161412B4cEDb1358B382aF3A5",
						"blockHash": "0xd5e569f7a11dd02a351e989a76baf506db5c329a1d13cd483f56c3b9a30c8b23",
						"blockNumber": 2900647,
						"data": "0x",
						"index": 1,
						"topics": [
							"0x6895c13664aa4f67288b25d7a21d7aaa34916e355fb9b6fae0a139a9085becb8",
							"0x0000000000000000000000003d75d338b4711f8a33d293a2008f07a712513402"
						],
						"transactionHash": "0x6298084d440adac27dcdf3741151a88ec6f4f9463f7c768a5dd2c50fadb848e3",
						"transactionIndex": 0
					},
					{
						"address": "0x3D75d338B4711F8a33d293a2008f07a712513402",
						"blockHash": "0xd5e569f7a11dd02a351e989a76baf506db5c329a1d13cd483f56c3b9a30c8b23",
						"blockNumber": 2900647,
						"data": "0x0000000000000000000000000000000000000000000000000000000000000003",
						"index": 2,
						"topics": [
							"0xa65fb05c5808f5f389d72edeaf719ce38f4cc55c1f69ca3cbfb31c21501caa07",
							"0x8ed8ae243a4823b490402b72a5a66bd6367651f42c7ca9d53351953dddb0461a"
						],
						"transactionHash": "0x6298084d440adac27dcdf3741151a88ec6f4f9463f7c768a5dd2c50fadb848e3",
						"transactionIndex": 0
					}
				],
				"logsBloom": "0x00000000000010000000000000080000000000000120000000000000000000000000000000000000000000000040000000100000000000200000000000000000000000000000200200000000000000000000000000000000000000000000000000004000000000002000000000000004000000000000000000000000000000000000000100000000000100000000000040001000000000000000000000000004044100000000000000000000000000000200000000000000000000001004000000000001000000000000080000000000000000000000000800000000000000000100000000000000000000000000000200000000000000000000000000100080",
				"status": 1,
				"to": "0x7e16116661CA8d66C73612382833153911Fa03B1"
			},
			"metadata": "{\"compiler\":{\"version\":\"0.8.17+commit.8df45f5f\"},\"language\":\"Solidity\",\"output\":{\"abi\":[{\"inputs\":[{\"internalType\":\"address\",\"name\":\"dao\",\"type\":\"address\"},{\"internalType\":\"address\",\"name\":\"ormp\",\"type\":\"address\"}],\"stateMutability\":\"nonpayable\",\"type\":\"constructor\"},{\"inputs\":[{\"internalType\":\"address\",\"name\":\"previousOwner\",\"type\":\"address\",\"indexed\":true},{\"internalType\":\"address\",\"name\":\"newOwner\",\"type\":\"address\",\"indexed\":true}],\"type\":\"event\",\"name\":\"OwnershipTransferred\",\"anonymous\":false},{\"inputs\":[{\"internalType\":\"address\",\"name\":\"operator\",\"type\":\"address\",\"indexed\":false},{\"internalType\":\"bool\",\"name\":\"approve\",\"type\":\"bool\",\"indexed\":false}],\"type\":\"event\",\"name\":\"SetApproved\",\"anonymous\":false},{\"inputs\":[{\"internalType\":\"uint256\",\"name\":\"chainId\",\"type\":\"uint256\",\"indexed\":true},{\"internalType\":\"uint64\",\"name\":\"baseGas\",\"type\":\"uint64\",\"indexed\":false},{\"internalType\":\"uint64\",\"name\":\"gasPerByte\",\"type\":\"uint64\",\"indexed\":false}],\"type\":\"event\",\"name\":\"SetDstConfig\",\"anonymous\":false},{\"inputs\":[{\"internalType\":\"uint256\",\"name\":\"chainId\",\"type\":\"uint256\",\"indexed\":true},{\"internalType\":\"uint128\",\"name\":\"dstPriceRatio\",\"type\":\"uint128\",\"indexed\":false},{\"internalType\":\"uint128\",\"name\":\"dstGasPriceInWei\",\"type\":\"uint128\",\"indexed\":false}],\"type\":\"event\",\"name\":\"SetDstPrice\",\"anonymous\":false},{\"inputs\":[],\"stateMutability\":\"view\",\"type\":\"function\",\"name\":\"PROTOCOL\",\"outputs\":[{\"internalType\":\"address\",\"name\":\"\",\"type\":\"address\"}]},{\"inputs\":[{\"internalType\":\"address\",\"name\":\"\",\"type\":\"address\"}],\"stateMutability\":\"view\",\"type\":\"function\",\"name\":\"approvedOf\",\"outputs\":[{\"internalType\":\"bool\",\"name\":\"\",\"type\":\"bool\"}]},{\"inputs\":[{\"internalType\":\"address\",\"name\":\"newOwner\",\"type\":\"address\"}],\"stateMutability\":\"nonpayable\",\"type\":\"function\",\"name\":\"changeOwner\"},{\"inputs\":[{\"internalType\":\"uint256\",\"name\":\"\",\"type\":\"uint256\"}],\"stateMutability\":\"view\",\"type\":\"function\",\"name\":\"configOf\",\"outputs\":[{\"internalType\":\"uint64\",\"name\":\"baseGas\",\"type\":\"uint64\"},{\"internalType\":\"uint64\",\"name\":\"gasPerByte\",\"type\":\"uint64\"}]},{\"inputs\":[{\"internalType\":\"uint256\",\"name\":\"toChainId\",\"type\":\"uint256\"},{\"internalType\":\"address\",\"name\":\"\",\"type\":\"address\"},{\"internalType\":\"uint256\",\"name\":\"gasLimit\",\"type\":\"uint256\"},{\"internalType\":\"bytes\",\"name\":\"encoded\",\"type\":\"bytes\"},{\"internalType\":\"bytes\",\"name\":\"\",\"type\":\"bytes\"}],\"stateMutability\":\"view\",\"type\":\"function\",\"name\":\"fee\",\"outputs\":[{\"internalType\":\"uint256\",\"name\":\"\",\"type\":\"uint256\"}]},{\"inputs\":[{\"internalType\":\"address\",\"name\":\"operator\",\"type\":\"address\"}],\"stateMutability\":\"view\",\"type\":\"function\",\"name\":\"isApproved\",\"outputs\":[{\"internalType\":\"bool\",\"name\":\"\",\"type\":\"bool\"}]},{\"inputs\":[],\"stateMutability\":\"view\",\"type\":\"function\",\"name\":\"owner\",\"outputs\":[{\"internalType\":\"address\",\"name\":\"\",\"type\":\"address\"}]},{\"inputs\":[{\"internalType\":\"uint256\",\"name\":\"\",\"type\":\"uint256\"}],\"stateMutability\":\"view\",\"type\":\"function\",\"name\":\"priceOf\",\"outputs\":[{\"internalType\":\"uint128\",\"name\":\"dstPriceRatio\",\"type\":\"uint128\"},{\"internalType\":\"uint128\",\"name\":\"dstGasPriceInWei\",\"type\":\"uint128\"}]},{\"inputs\":[{\"internalType\":\"struct Message\",\"name\":\"message\",\"type\":\"tuple\",\"components\":[{\"internalType\":\"address\",\"name\":\"channel\",\"type\":\"address\"},{\"internalType\":\"uint256\",\"name\":\"index\",\"type\":\"uint256\"},{\"internalType\":\"uint256\",\"name\":\"fromChainId\",\"type\":\"uint256\"},{\"internalType\":\"address\",\"name\":\"from\",\"type\":\"address\"},{\"internalType\":\"uint256\",\"name\":\"toChainId\",\"type\":\"uint256\"},{\"internalType\":\"address\",\"name\":\"to\",\"type\":\"address\"},{\"internalType\":\"uint256\",\"name\":\"gasLimit\",\"type\":\"uint256\"},{\"internalType\":\"bytes\",\"name\":\"encoded\",\"type\":\"bytes\"}]}],\"stateMutability\":\"nonpayable\",\"type\":\"function\",\"name\":\"relay\"},{\"inputs\":[{\"internalType\":\"address\",\"name\":\"operator\",\"type\":\"address\"},{\"internalType\":\"bool\",\"name\":\"approve\",\"type\":\"bool\"}],\"stateMutability\":\"nonpayable\",\"type\":\"function\",\"name\":\"setApproved\"},{\"inputs\":[{\"internalType\":\"uint256\",\"name\":\"chainId\",\"type\":\"uint256\"},{\"internalType\":\"uint64\",\"name\":\"baseGas\",\"type\":\"uint64\"},{\"internalType\":\"uint64\",\"name\":\"gasPerByte\",\"type\":\"uint64\"}],\"stateMutability\":\"nonpayable\",\"type\":\"function\",\"name\":\"setDstConfig\"},{\"inputs\":[{\"internalType\":\"uint256\",\"name\":\"chainId\",\"type\":\"uint256\"},{\"internalType\":\"uint128\",\"name\":\"dstPriceRatio\",\"type\":\"uint128\"},{\"internalType\":\"uint128\",\"name\":\"dstGasPriceInWei\",\"type\":\"uint128\"}],\"stateMutability\":\"nonpayable\",\"type\":\"function\",\"name\":\"setDstPrice\"},{\"inputs\":[],\"stateMutability\":\"pure\",\"type\":\"function\",\"name\":\"version\",\"outputs\":[{\"internalType\":\"string\",\"name\":\"\",\"type\":\"string\"}]},{\"inputs\":[{\"internalType\":\"address\",\"name\":\"to\",\"type\":\"address\"},{\"internalType\":\"uint256\",\"name\":\"amount\",\"type\":\"uint256\"}],\"stateMutability\":\"nonpayable\",\"type\":\"function\",\"name\":\"withdraw\"},{\"inputs\":[],\"stateMutability\":\"payable\",\"type\":\"receive\"}],\"devdoc\":{\"kind\":\"dev\",\"methods\":{},\"version\":1},\"userdoc\":{\"kind\":\"user\",\"methods\":{},\"version\":1}},\"settings\":{\"remappings\":[\"@darwinia-msgport/=lib/darwinia-msgport/\",\"@openzeppelin/contracts/=lib/openzeppelin-contracts/contracts/\",\"@openzeppelin/contracts@4.9.2/=lib/openzeppelin-contracts/contracts/\",\"@safe-smart-account/=lib/subapi/lib/safe-smart-account/contracts/\",\"@sphinx-labs/contracts/=lib/sphinx/packages/contracts/contracts/foundry/\",\"ORMP/=lib/ORMP/\",\"create3-deploy/=lib/create3-deploy/\",\"forge-std/=lib/forge-std/src/\",\"solmate/=lib/darwinia-msgport/lib/solmate/src/\",\"subapi/=lib/subapi/\"],\"optimizer\":{\"enabled\":true,\"runs\":999999},\"metadata\":{\"bytecodeHash\":\"ipfs\"},\"compilationTarget\":{\"lib/ORMP/src/eco/Relayer.sol\":\"Relayer\"},\"evmVersion\":\"london\",\"libraries\":{}},\"sources\":{\"lib/ORMP/src/Common.sol\":{\"keccak256\":\"0x9ac4f4aaea488dcf254d006b290d5e76ca27ddc3d8f8542c916e4f6f713f108b\",\"urls\":[\"bzz-raw://e752ee67412386fc6527e4bce526093797b932bbadab4520130e803a68806d3e\",\"dweb:/ipfs/QmbLNLEAm7MSveSUcRhyuS9LnSSj1CQtn9tmatE1YsLySX\"],\"license\":\"MIT\"},\"lib/ORMP/src/eco/Relayer.sol\":{\"keccak256\":\"0x70d7ac906ccae16fcc25cc546b88c888033f0d11502026c69aedd8193e8214b9\",\"urls\":[\"bzz-raw://b52fe1dfa5d7b6bcb8e4f171232213bbc66c01309d89c29fc492dd4b050cb592\",\"dweb:/ipfs/Qmf7SKBudoNMposiKpbj7tir3zP75qyvJBEmoZcp9PAmPK\"],\"license\":\"MIT\"},\"lib/ORMP/src/interfaces/IORMP.sol\":{\"keccak256\":\"0x687f39c965fd8cdc30047820c0f491d926ae3e9cea4d82dbf832b0646d0ed268\",\"urls\":[\"bzz-raw://8a22e640c9c1a4b24833607a840be9bf779f500e38d84f18b35efe9fb5e53c7a\",\"dweb:/ipfs/QmV17CvqrG7dkNVS1rLJpxzUPK2KFcVkXNjvx9rNwUdUGh\"],\"license\":\"MIT\"}},\"version\":1}",
			"args": [
				"0x040f331774Ed6BB161412B4cEDb1358B382aF3A5",
				"0x13b2211a7cA45Db2808F6dB05557ce5347e3634e"
			],
			"bytecode": "0x60a060405234801561001057600080fd5b5060405161130538038061130583398101604081905261002f91610076565b6001600160a01b03908116608052600080546001600160a01b031916929091169190911790556100a9565b80516001600160a01b038116811461007157600080fd5b919050565b6000806040838503121561008957600080fd5b6100928361005a565b91506100a06020840161005a565b90509250929050565b60805161123a6100cb6000396000818161028801526106cb015261123a6000f3fe6080604052600436106100e15760003560e01c806391b9b8271161007f578063b77bd6d511610059578063b77bd6d5146102fa578063b9186d7d1461031a578063edc2ee4e1461039a578063f3fef3a31461040257600080fd5b806391b9b82714610276578063a6f9dae1146102aa578063b6333d16146102ca57600080fd5b8063673448dd116100bb578063673448dd1461018e57806384cfb680146101e457806385753106146102045780638da5cb5b1461022457600080fd5b80631c2b2da6146100ed57806336bcf1b21461012057806354fd4d501461014257600080fd5b366100e857005b600080fd5b3480156100f957600080fd5b5061010d610108366004610d39565b610422565b6040519081526020015b60405180910390f35b34801561012c57600080fd5b5061014061013b366004610dcd565b610615565b005b34801561014e57600080fd5b50604080518082018252600581527f322e312e30000000000000000000000000000000000000000000000000000000602082015290516101179190610e10565b34801561019a57600080fd5b506101d46101a9366004610e7c565b73ffffffffffffffffffffffffffffffffffffffff1660009081526003602052604090205460ff1690565b6040519015158152602001610117565b3480156101f057600080fd5b506101406101ff366004610ea8565b610747565b34801561021057600080fd5b5061014061021f366004610ef7565b610856565b34801561023057600080fd5b506000546102519073ffffffffffffffffffffffffffffffffffffffff1681565b60405173ffffffffffffffffffffffffffffffffffffffff9091168152602001610117565b34801561028257600080fd5b506102517f000000000000000000000000000000000000000000000000000000000000000081565b3480156102b657600080fd5b506101406102c5366004610e7c565b610981565b3480156102d657600080fd5b506101d46102e5366004610e7c565b60036020526000908152604090205460ff1681565b34801561030657600080fd5b50610140610315366004610f53565b610a77565b34801561032657600080fd5b50610371610335366004610f86565b6001602052600090815260409020546fffffffffffffffffffffffffffffffff8082169170010000000000000000000000000000000090041682565b604080516fffffffffffffffffffffffffffffffff938416815292909116602083015201610117565b3480156103a657600080fd5b506103e16103b5366004610f86565b60026020526000908152604090205467ffffffffffffffff808216916801000000000000000090041682565b6040805167ffffffffffffffff938416815292909116602083015201610117565b34801561040e57600080fd5b5061014061041d366004610f9f565b610b7f565b60008781526001602090815260408083208151808301835290546fffffffffffffffffffffffffffffffff808216835270010000000000000000000000000000000090910416818401528a84526002835281842082518084019093525467ffffffffffffffff80821680855268010000000000000000909204169383019390935286928992908503610515576040517f08c379a000000000000000000000000000000000000000000000000000000000815260206004820152600860248201527f216261736547617300000000000000000000000000000000000000000000000060448201526064015b60405180910390fd5b805160009061052f90859067ffffffffffffffff16610ff8565b83602001516fffffffffffffffffffffffffffffffff166105509190611011565b905060006402540be40084600001516fffffffffffffffffffffffffffffffff168361057c9190611011565b6105869190611028565b905060006402540be40085600001516fffffffffffffffffffffffffffffffff1686602001516fffffffffffffffffffffffffffffffff1689876020015167ffffffffffffffff166105d89190611011565b6105e29190611011565b6105ec9190611011565b6105f69190611028565b90506106028183610ff8565b9f9e505050505050505050505050505050565b3360009081526003602052604090205460ff1661068e576040517f08c379a000000000000000000000000000000000000000000000000000000000815260206004820152600860248201527f21617070726f7665000000000000000000000000000000000000000000000000604482015260640161050c565b6040517fee6ad16700000000000000000000000000000000000000000000000000000000815273ffffffffffffffffffffffffffffffffffffffff7f0000000000000000000000000000000000000000000000000000000000000000169063ee6ad16790610700908490600401611110565b6020604051808303816000875af115801561071f573d6000803e3d6000fd5b505050506040513d601f19601f8201168201806040525081019061074391906111e7565b5050565b60005473ffffffffffffffffffffffffffffffffffffffff1633146107c8576040517f08c379a000000000000000000000000000000000000000000000000000000000815260206004820152600660248201527f216f776e65720000000000000000000000000000000000000000000000000000604482015260640161050c565b73ffffffffffffffffffffffffffffffffffffffff821660008181526003602090815260409182902080547fffffffffffffffffffffffffffffffffffffffffffffffffffffffffffffff00168515159081179091558251938452908301527fd984ea421ae5d2a473199f85e03998a04a12f54d6f1fa183a955b3df1c0c546d910160405180910390a15050565b3360009081526003602052604090205460ff166108cf576040517f08c379a000000000000000000000000000000000000000000000000000000000815260206004820152600860248201527f21617070726f7665000000000000000000000000000000000000000000000000604482015260640161050c565b60408051808201825267ffffffffffffffff848116808352848216602080850182815260008a815260028352879020955186549151861668010000000000000000027fffffffffffffffffffffffffffffffff000000000000000000000000000000009092169516949094179390931790935583519081529081019190915284917f22f5a8bc0090523dde00cddddb6a70e17d4f457f4b823137143657c8844d8eac91015b60405180910390a2505050565b60005473ffffffffffffffffffffffffffffffffffffffff163314610a02576040517f08c379a000000000000000000000000000000000000000000000000000000000815260206004820152600660248201527f216f776e65720000000000000000000000000000000000000000000000000000604482015260640161050c565b6000805473ffffffffffffffffffffffffffffffffffffffff8381167fffffffffffffffffffffffff0000000000000000000000000000000000000000831681178455604051919092169283917f8be0079c531659141344cd1fd0a4f28419497f9722a3daafe3b4186f6b6457e09190a35050565b3360009081526003602052604090205460ff16610af0576040517f08c379a000000000000000000000000000000000000000000000000000000000815260206004820152600860248201527f21617070726f7665000000000000000000000000000000000000000000000000604482015260640161050c565b6040805180820182526fffffffffffffffffffffffffffffffff848116808352848216602080850182815260008a8152600183528790209551905185167001000000000000000000000000000000000294169390931790935583519081529081019190915284917f1ec2caaeffa2fe858d7b732753d0bfd5a9cda5f73f3527136bca5a11c2f1d4b39101610974565b3360009081526003602052604090205460ff16610bf8576040517f08c379a000000000000000000000000000000000000000000000000000000000815260206004820152600860248201527f21617070726f7665000000000000000000000000000000000000000000000000604482015260640161050c565b60008273ffffffffffffffffffffffffffffffffffffffff168260405160006040518083038185875af1925050503d8060008114610c52576040519150601f19603f3d011682016040523d82523d6000602084013e610c57565b606091505b5050905080610cc2576040517f08c379a000000000000000000000000000000000000000000000000000000000815260206004820152600960248201527f2177697468647261770000000000000000000000000000000000000000000000604482015260640161050c565b505050565b803573ffffffffffffffffffffffffffffffffffffffff81168114610ceb57600080fd5b919050565b60008083601f840112610d0257600080fd5b50813567ffffffffffffffff811115610d1a57600080fd5b602083019150836020828501011115610d3257600080fd5b9250929050565b600080600080600080600060a0888a031215610d5457600080fd5b87359650610d6460208901610cc7565b955060408801359450606088013567ffffffffffffffff80821115610d8857600080fd5b610d948b838c01610cf0565b909650945060808a0135915080821115610dad57600080fd5b50610dba8a828b01610cf0565b989b979a50959850939692959293505050565b600060208284031215610ddf57600080fd5b813567ffffffffffffffff811115610df657600080fd5b82016101008185031215610e0957600080fd5b9392505050565b600060208083528351808285015260005b81811015610e3d57858101830151858201604001528201610e21565b5060006040828601015260407fffffffffffffffffffffffffffffffffffffffffffffffffffffffffffffffe0601f8301168501019250505092915050565b600060208284031215610e8e57600080fd5b610e0982610cc7565b8015158114610ea557600080fd5b50565b60008060408385031215610ebb57600080fd5b610ec483610cc7565b91506020830135610ed481610e97565b809150509250929050565b803567ffffffffffffffff81168114610ceb57600080fd5b600080600060608486031215610f0c57600080fd5b83359250610f1c60208501610edf565b9150610f2a60408501610edf565b90509250925092565b80356fffffffffffffffffffffffffffffffff81168114610ceb57600080fd5b600080600060608486031215610f6857600080fd5b83359250610f7860208501610f33565b9150610f2a60408501610f33565b600060208284031215610f9857600080fd5b5035919050565b60008060408385031215610fb257600080fd5b610fbb83610cc7565b946020939093013593505050565b7f4e487b7100000000000000000000000000000000000000000000000000000000600052601160045260246000fd5b8082018082111561100b5761100b610fc9565b92915050565b808202811582820484141761100b5761100b610fc9565b60008261105e577f4e487b7100000000000000000000000000000000000000000000000000000000600052601260045260246000fd5b500490565b60008083357fffffffffffffffffffffffffffffffffffffffffffffffffffffffffffffffe184360301811261109857600080fd5b830160208101925035905067ffffffffffffffff8111156110b857600080fd5b803603821315610d3257600080fd5b8183528181602085013750600060208284010152600060207fffffffffffffffffffffffffffffffffffffffffffffffffffffffffffffffe0601f840116840101905092915050565b60408152600073ffffffffffffffffffffffffffffffffffffffff8061113585610cc7565b16604084015260208401356060840152604084013560808401528061115c60608601610cc7565b1660a084015250608083013560c083015261117960a08401610cc7565b73ffffffffffffffffffffffffffffffffffffffff811660e08401525061010060c0840135818401526111af60e0850185611063565b826101208601526111c5610140860182846110c7565b9250505082810360208401526111df816000815260200190565b949350505050565b6000602082840312156111f957600080fd5b8151610e0981610e9756fea2646970667358221220bbd7909d0486dc4aa26a025963d30c5f086d116121392f9d2559ce8eb477037464736f6c63430008110033",
			"deployedBytecode": "0x6080604052600436106100e15760003560e01c806391b9b8271161007f578063b77bd6d511610059578063b77bd6d5146102fa578063b9186d7d1461031a578063edc2ee4e1461039a578063f3fef3a31461040257600080fd5b806391b9b82714610276578063a6f9dae1146102aa578063b6333d16146102ca57600080fd5b8063673448dd116100bb578063673448dd1461018e57806384cfb680146101e457806385753106146102045780638da5cb5b1461022457600080fd5b80631c2b2da6146100ed57806336bcf1b21461012057806354fd4d501461014257600080fd5b366100e857005b600080fd5b3480156100f957600080fd5b5061010d610108366004610d39565b610422565b6040519081526020015b60405180910390f35b34801561012c57600080fd5b5061014061013b366004610dcd565b610615565b005b34801561014e57600080fd5b50604080518082018252600581527f322e312e30000000000000000000000000000000000000000000000000000000602082015290516101179190610e10565b34801561019a57600080fd5b506101d46101a9366004610e7c565b73ffffffffffffffffffffffffffffffffffffffff1660009081526003602052604090205460ff1690565b6040519015158152602001610117565b3480156101f057600080fd5b506101406101ff366004610ea8565b610747565b34801561021057600080fd5b5061014061021f366004610ef7565b610856565b34801561023057600080fd5b506000546102519073ffffffffffffffffffffffffffffffffffffffff1681565b60405173ffffffffffffffffffffffffffffffffffffffff9091168152602001610117565b34801561028257600080fd5b506102517f00000000000000000000000013b2211a7ca45db2808f6db05557ce5347e3634e81565b3480156102b657600080fd5b506101406102c5366004610e7c565b610981565b3480156102d657600080fd5b506101d46102e5366004610e7c565b60036020526000908152604090205460ff1681565b34801561030657600080fd5b50610140610315366004610f53565b610a77565b34801561032657600080fd5b50610371610335366004610f86565b6001602052600090815260409020546fffffffffffffffffffffffffffffffff8082169170010000000000000000000000000000000090041682565b604080516fffffffffffffffffffffffffffffffff938416815292909116602083015201610117565b3480156103a657600080fd5b506103e16103b5366004610f86565b60026020526000908152604090205467ffffffffffffffff808216916801000000000000000090041682565b6040805167ffffffffffffffff938416815292909116602083015201610117565b34801561040e57600080fd5b5061014061041d366004610f9f565b610b7f565b60008781526001602090815260408083208151808301835290546fffffffffffffffffffffffffffffffff808216835270010000000000000000000000000000000090910416818401528a84526002835281842082518084019093525467ffffffffffffffff80821680855268010000000000000000909204169383019390935286928992908503610515576040517f08c379a000000000000000000000000000000000000000000000000000000000815260206004820152600860248201527f216261736547617300000000000000000000000000000000000000000000000060448201526064015b60405180910390fd5b805160009061052f90859067ffffffffffffffff16610ff8565b83602001516fffffffffffffffffffffffffffffffff166105509190611011565b905060006402540be40084600001516fffffffffffffffffffffffffffffffff168361057c9190611011565b6105869190611028565b905060006402540be40085600001516fffffffffffffffffffffffffffffffff1686602001516fffffffffffffffffffffffffffffffff1689876020015167ffffffffffffffff166105d89190611011565b6105e29190611011565b6105ec9190611011565b6105f69190611028565b90506106028183610ff8565b9f9e505050505050505050505050505050565b3360009081526003602052604090205460ff1661068e576040517f08c379a000000000000000000000000000000000000000000000000000000000815260206004820152600860248201527f21617070726f7665000000000000000000000000000000000000000000000000604482015260640161050c565b6040517fee6ad16700000000000000000000000000000000000000000000000000000000815273ffffffffffffffffffffffffffffffffffffffff7f00000000000000000000000013b2211a7ca45db2808f6db05557ce5347e3634e169063ee6ad16790610700908490600401611110565b6020604051808303816000875af115801561071f573d6000803e3d6000fd5b505050506040513d601f19601f8201168201806040525081019061074391906111e7565b5050565b60005473ffffffffffffffffffffffffffffffffffffffff1633146107c8576040517f08c379a000000000000000000000000000000000000000000000000000000000815260206004820152600660248201527f216f776e65720000000000000000000000000000000000000000000000000000604482015260640161050c565b73ffffffffffffffffffffffffffffffffffffffff821660008181526003602090815260409182902080547fffffffffffffffffffffffffffffffffffffffffffffffffffffffffffffff00168515159081179091558251938452908301527fd984ea421ae5d2a473199f85e03998a04a12f54d6f1fa183a955b3df1c0c546d910160405180910390a15050565b3360009081526003602052604090205460ff166108cf576040517f08c379a000000000000000000000000000000000000000000000000000000000815260206004820152600860248201527f21617070726f7665000000000000000000000000000000000000000000000000604482015260640161050c565b60408051808201825267ffffffffffffffff848116808352848216602080850182815260008a815260028352879020955186549151861668010000000000000000027fffffffffffffffffffffffffffffffff000000000000000000000000000000009092169516949094179390931790935583519081529081019190915284917f22f5a8bc0090523dde00cddddb6a70e17d4f457f4b823137143657c8844d8eac91015b60405180910390a2505050565b60005473ffffffffffffffffffffffffffffffffffffffff163314610a02576040517f08c379a000000000000000000000000000000000000000000000000000000000815260206004820152600660248201527f216f776e65720000000000000000000000000000000000000000000000000000604482015260640161050c565b6000805473ffffffffffffffffffffffffffffffffffffffff8381167fffffffffffffffffffffffff0000000000000000000000000000000000000000831681178455604051919092169283917f8be0079c531659141344cd1fd0a4f28419497f9722a3daafe3b4186f6b6457e09190a35050565b3360009081526003602052604090205460ff16610af0576040517f08c379a000000000000000000000000000000000000000000000000000000000815260206004820152600860248201527f21617070726f7665000000000000000000000000000000000000000000000000604482015260640161050c565b6040805180820182526fffffffffffffffffffffffffffffffff848116808352848216602080850182815260008a8152600183528790209551905185167001000000000000000000000000000000000294169390931790935583519081529081019190915284917f1ec2caaeffa2fe858d7b732753d0bfd5a9cda5f73f3527136bca5a11c2f1d4b39101610974565b3360009081526003602052604090205460ff16610bf8576040517f08c379a000000000000000000000000000000000000000000000000000000000815260206004820152600860248201527f21617070726f7665000000000000000000000000000000000000000000000000604482015260640161050c565b60008273ffffffffffffffffffffffffffffffffffffffff168260405160006040518083038185875af1925050503d8060008114610c52576040519150601f19603f3d011682016040523d82523d6000602084013e610c57565b606091505b5050905080610cc2576040517f08c379a000000000000000000000000000000000000000000000000000000000815260206004820152600960248201527f2177697468647261770000000000000000000000000000000000000000000000604482015260640161050c565b505050565b803573ffffffffffffffffffffffffffffffffffffffff81168114610ceb57600080fd5b919050565b60008083601f840112610d0257600080fd5b50813567ffffffffffffffff811115610d1a57600080fd5b602083019150836020828501011115610d3257600080fd5b9250929050565b600080600080600080600060a0888a031215610d5457600080fd5b87359650610d6460208901610cc7565b955060408801359450606088013567ffffffffffffffff80821115610d8857600080fd5b610d948b838c01610cf0565b909650945060808a0135915080821115610dad57600080fd5b50610dba8a828b01610cf0565b989b979a50959850939692959293505050565b600060208284031215610ddf57600080fd5b813567ffffffffffffffff811115610df657600080fd5b82016101008185031215610e0957600080fd5b9392505050565b600060208083528351808285015260005b81811015610e3d57858101830151858201604001528201610e21565b5060006040828601015260407fffffffffffffffffffffffffffffffffffffffffffffffffffffffffffffffe0601f8301168501019250505092915050565b600060208284031215610e8e57600080fd5b610e0982610cc7565b8015158114610ea557600080fd5b50565b60008060408385031215610ebb57600080fd5b610ec483610cc7565b91506020830135610ed481610e97565b809150509250929050565b803567ffffffffffffffff81168114610ceb57600080fd5b600080600060608486031215610f0c57600080fd5b83359250610f1c60208501610edf565b9150610f2a60408501610edf565b90509250925092565b80356fffffffffffffffffffffffffffffffff81168114610ceb57600080fd5b600080600060608486031215610f6857600080fd5b83359250610f7860208501610f33565b9150610f2a60408501610f33565b600060208284031215610f9857600080fd5b5035919050565b60008060408385031215610fb257600080fd5b610fbb83610cc7565b946020939093013593505050565b7f4e487b7100000000000000000000000000000000000000000000000000000000600052601160045260246000fd5b8082018082111561100b5761100b610fc9565b92915050565b808202811582820484141761100b5761100b610fc9565b60008261105e577f4e487b7100000000000000000000000000000000000000000000000000000000600052601260045260246000fd5b500490565b60008083357fffffffffffffffffffffffffffffffffffffffffffffffffffffffffffffffe184360301811261109857600080fd5b830160208101925035905067ffffffffffffffff8111156110b857600080fd5b803603821315610d3257600080fd5b8183528181602085013750600060208284010152600060207fffffffffffffffffffffffffffffffffffffffffffffffffffffffffffffffe0601f840116840101905092915050565b60408152600073ffffffffffffffffffffffffffffffffffffffff8061113585610cc7565b16604084015260208401356060840152604084013560808401528061115c60608601610cc7565b1660a084015250608083013560c083015261117960a08401610cc7565b73ffffffffffffffffffffffffffffffffffffffff811660e08401525061010060c0840135818401526111af60e0850185611063565b826101208601526111c5610140860182846110c7565b9250505082810360208401526111df816000815260200190565b949350505050565b6000602082840312156111f957600080fd5b8151610e0981610e9756fea2646970667358221220bbd7909d0486dc4aa26a025963d30c5f086d116121392f9d2559ce8eb477037464736f6c63430008110033",
			"devdoc": {
				"kind": "dev",
				"methods": {},
				"version": 1
			},
			"userdoc": {
				"kind": "user",
				"methods": {},
				"version": 1
			},
			"gitCommit": "b8c8b8bfc2f87ee2728eea8c3781e155c1988299",
			"sourceName": "lib/ORMP/src/eco/Relayer.sol",
			"chainId": "44",
			"linkReferences": {},
			"deployedLinkReferences": {}
		}
	]
}