{
	"_format": "sphinx-sol-ct-artifact-1",
	"merkleRoot": "0x56657e50ef8879c896a9869b7bf07a9da8d809fbbbe38ce4fe91227328768871",
	"contractName": "PortRegistry",
	"address": "0x249c29CEd765DA6dbf8e5c36cdCAa9a0429587FA",
	"abi": [
		{
			"type": "function",
			"name": "acceptOwnership",
			"inputs": [],
			"outputs": [],
			"stateMutability": "nonpayable"
		},
		{
			"type": "function",
			"name": "del",
			"inputs": [
				{
					"name": "chainId",
					"type": "uint256",
					"internalType": "uint256"
				},
				{
					"name": "name",
					"type": "string",
					"internalType": "string"
				},
				{
					"name": "port",
					"type": "address",
					"internalType": "address"
				}
			],
			"outputs": [],
			"stateMutability": "nonpayable"
		},
		{
			"type": "function",
			"name": "get",
			"inputs": [
				{
					"name": "chainId",
					"type": "uint256",
					"internalType": "uint256"
				},
				{
					"name": "port",
					"type": "address",
					"internalType": "address"
				}
			],
			"outputs": [
				{
					"name": "",
					"type": "string",
					"internalType": "string"
				}
			],
			"stateMutability": "view"
		},
		{
			"type": "function",
			"name": "get",
			"inputs": [
				{
					"name": "chainId",
					"type": "uint256",
					"internalType": "uint256"
				},
				{
					"name": "name",
					"type": "string",
					"internalType": "string"
				}
			],
			"outputs": [
				{
					"name": "",
					"type": "address",
					"internalType": "address"
				}
			],
			"stateMutability": "view"
		},
		{
			"type": "function",
			"name": "initialize",
			"inputs": [
				{
					"name": "dao",
					"type": "address",
					"internalType": "address"
				}
			],
			"outputs": [],
			"stateMutability": "nonpayable"
		},
		{
			"type": "function",
			"name": "owner",
			"inputs": [],
			"outputs": [
				{
					"name": "",
					"type": "address",
					"internalType": "address"
				}
			],
			"stateMutability": "view"
		},
		{
			"type": "function",
			"name": "pendingOwner",
			"inputs": [],
			"outputs": [
				{
					"name": "",
					"type": "address",
					"internalType": "address"
				}
			],
			"stateMutability": "view"
		},
		{
			"type": "function",
			"name": "proxiableUUID",
			"inputs": [],
			"outputs": [
				{
					"name": "",
					"type": "bytes32",
					"internalType": "bytes32"
				}
			],
			"stateMutability": "view"
		},
		{
			"type": "function",
			"name": "renounceOwnership",
			"inputs": [],
			"outputs": [],
			"stateMutability": "nonpayable"
		},
		{
			"type": "function",
			"name": "set",
			"inputs": [
				{
					"name": "chainId",
					"type": "uint256",
					"internalType": "uint256"
				},
				{
					"name": "name",
					"type": "string",
					"internalType": "string"
				},
				{
					"name": "port",
					"type": "address",
					"internalType": "address"
				}
			],
			"outputs": [],
			"stateMutability": "nonpayable"
		},
		{
			"type": "function",
			"name": "transferOwnership",
			"inputs": [
				{
					"name": "newOwner",
					"type": "address",
					"internalType": "address"
				}
			],
			"outputs": [],
			"stateMutability": "nonpayable"
		},
		{
			"type": "function",
			"name": "upgradeTo",
			"inputs": [
				{
					"name": "newImplementation",
					"type": "address",
					"internalType": "address"
				}
			],
			"outputs": [],
			"stateMutability": "nonpayable"
		},
		{
			"type": "function",
			"name": "upgradeToAndCall",
			"inputs": [
				{
					"name": "newImplementation",
					"type": "address",
					"internalType": "address"
				},
				{
					"name": "data",
					"type": "bytes",
					"internalType": "bytes"
				}
			],
			"outputs": [],
			"stateMutability": "payable"
		},
		{
			"type": "event",
			"name": "AdminChanged",
			"inputs": [
				{
					"name": "previousAdmin",
					"type": "address",
					"indexed": false,
					"internalType": "address"
				},
				{
					"name": "newAdmin",
					"type": "address",
					"indexed": false,
					"internalType": "address"
				}
			],
			"anonymous": false
		},
		{
			"type": "event",
			"name": "BeaconUpgraded",
			"inputs": [
				{
					"name": "beacon",
					"type": "address",
					"indexed": true,
					"internalType": "address"
				}
			],
			"anonymous": false
		},
		{
			"type": "event",
			"name": "DeletePort",
			"inputs": [
				{
					"name": "chainId",
					"type": "uint256",
					"indexed": false,
					"internalType": "uint256"
				},
				{
					"name": "name",
					"type": "string",
					"indexed": false,
					"internalType": "string"
				},
				{
					"name": "port",
					"type": "address",
					"indexed": false,
					"internalType": "address"
				}
			],
			"anonymous": false
		},
		{
			"type": "event",
			"name": "Initialized",
			"inputs": [
				{
					"name": "version",
					"type": "uint8",
					"indexed": false,
					"internalType": "uint8"
				}
			],
			"anonymous": false
		},
		{
			"type": "event",
			"name": "OwnershipTransferStarted",
			"inputs": [
				{
					"name": "previousOwner",
					"type": "address",
					"indexed": true,
					"internalType": "address"
				},
				{
					"name": "newOwner",
					"type": "address",
					"indexed": true,
					"internalType": "address"
				}
			],
			"anonymous": false
		},
		{
			"type": "event",
			"name": "OwnershipTransferred",
			"inputs": [
				{
					"name": "previousOwner",
					"type": "address",
					"indexed": true,
					"internalType": "address"
				},
				{
					"name": "newOwner",
					"type": "address",
					"indexed": true,
					"internalType": "address"
				}
			],
			"anonymous": false
		},
		{
			"type": "event",
			"name": "SetPort",
			"inputs": [
				{
					"name": "chainId",
					"type": "uint256",
					"indexed": false,
					"internalType": "uint256"
				},
				{
					"name": "name",
					"type": "string",
					"indexed": false,
					"internalType": "string"
				},
				{
					"name": "port",
					"type": "address",
					"indexed": false,
					"internalType": "address"
				}
			],
			"anonymous": false
		},
		{
			"type": "event",
			"name": "Upgraded",
			"inputs": [
				{
					"name": "implementation",
					"type": "address",
					"indexed": true,
					"internalType": "address"
				}
			],
			"anonymous": false
		}
	],
	"solcInputHash": "ecb9a2d5bf63b21013524697f08bc7f6",
	"args": [],
	"bytecode": "0x60a06040523060805234801561001457600080fd5b5061001e33610023565b6100a5565b600180546001600160a01b03191690556100478161004a602090811b610e4517901c565b50565b600080546001600160a01b038381166201000081810262010000600160b01b0319851617855560405193049190911692909183917f8be0079c531659141344cd1fd0a4f28419497f9722a3daafe3b4186f6b6457e091a35050565b608051611aae6100dc600039600081816102c301528181610378015281816104cd0152818161057d01526106c60152611aae6000f3fe6080604052600436106100d25760003560e01c80637db6e6751161007f578063c4d66de811610059578063c4d66de814610221578063e30c397814610241578063e905d24e1461026c578063f2fde38b1461028c57600080fd5b80637db6e6751461017e578063805da4ad146101ab5780638da5cb5b146101f057600080fd5b80635eba0df0116100b05780635eba0df014610134578063715018a61461015457806379ba50971461016957600080fd5b80633659cfe6146100d75780634f1ef286146100f957806352d1902d1461010c575b600080fd5b3480156100e357600080fd5b506100f76100f236600461151e565b6102ac565b005b6100f7610107366004611568565b6104b6565b34801561011857600080fd5b506101216106ac565b6040519081526020015b60405180910390f35b34801561014057600080fd5b506100f761014f366004611691565b610798565b34801561016057600080fd5b506100f761095e565b34801561017557600080fd5b506100f7610972565b34801561018a57600080fd5b5061019e6101993660046116ef565b610a24565b60405161012b919061173f565b3480156101b757600080fd5b506101cb6101c6366004611790565b610ae8565b60405173ffffffffffffffffffffffffffffffffffffffff909116815260200161012b565b3480156101fc57600080fd5b5060005462010000900473ffffffffffffffffffffffffffffffffffffffff166101cb565b34801561022d57600080fd5b506100f761023c36600461151e565b610b35565b34801561024d57600080fd5b5060015473ffffffffffffffffffffffffffffffffffffffff166101cb565b34801561027857600080fd5b506100f7610287366004611691565b610cc8565b34801561029857600080fd5b506100f76102a736600461151e565b610d8e565b73ffffffffffffffffffffffffffffffffffffffff7f0000000000000000000000000000000000000000000000000000000000000000163003610376576040517f08c379a000000000000000000000000000000000000000000000000000000000815260206004820152602c60248201527f46756e6374696f6e206d7573742062652063616c6c6564207468726f7567682060448201527f64656c656761746563616c6c000000000000000000000000000000000000000060648201526084015b60405180910390fd5b7f000000000000000000000000000000000000000000000000000000000000000073ffffffffffffffffffffffffffffffffffffffff166103eb7f360894a13ba1a3210667c828492db98dca3e2076cc3735a920a3ca505d382bbc5473ffffffffffffffffffffffffffffffffffffffff1690565b73ffffffffffffffffffffffffffffffffffffffff161461048e576040517f08c379a000000000000000000000000000000000000000000000000000000000815260206004820152602c60248201527f46756e6374696f6e206d7573742062652063616c6c6564207468726f7567682060448201527f6163746976652070726f78790000000000000000000000000000000000000000606482015260840161036d565b61049781610ec3565b604080516000808252602082019092526104b391839190610ecb565b50565b73ffffffffffffffffffffffffffffffffffffffff7f000000000000000000000000000000000000000000000000000000000000000016300361057b576040517f08c379a000000000000000000000000000000000000000000000000000000000815260206004820152602c60248201527f46756e6374696f6e206d7573742062652063616c6c6564207468726f7567682060448201527f64656c656761746563616c6c0000000000000000000000000000000000000000606482015260840161036d565b7f000000000000000000000000000000000000000000000000000000000000000073ffffffffffffffffffffffffffffffffffffffff166105f07f360894a13ba1a3210667c828492db98dca3e2076cc3735a920a3ca505d382bbc5473ffffffffffffffffffffffffffffffffffffffff1690565b73ffffffffffffffffffffffffffffffffffffffff1614610693576040517f08c379a000000000000000000000000000000000000000000000000000000000815260206004820152602c60248201527f46756e6374696f6e206d7573742062652063616c6c6564207468726f7567682060448201527f6163746976652070726f78790000000000000000000000000000000000000000606482015260840161036d565b61069c82610ec3565b6106a882826001610ecb565b5050565b60003073ffffffffffffffffffffffffffffffffffffffff7f00000000000000000000000000000000000000000000000000000000000000001614610773576040517f08c379a000000000000000000000000000000000000000000000000000000000815260206004820152603860248201527f555550535570677261646561626c653a206d757374206e6f742062652063616c60448201527f6c6564207468726f7567682064656c656761746563616c6c0000000000000000606482015260840161036d565b507f360894a13ba1a3210667c828492db98dca3e2076cc3735a920a3ca505d382bbc90565b6107a06110cf565b81610807576040517f08c379a000000000000000000000000000000000000000000000000000000000815260206004820152600560248201527f216e616d65000000000000000000000000000000000000000000000000000000604482015260640161036d565b73ffffffffffffffffffffffffffffffffffffffff8116610884576040517f08c379a000000000000000000000000000000000000000000000000000000000815260206004820152600560248201527f21706f7274000000000000000000000000000000000000000000000000000000604482015260640161036d565b806002600086815260200190815260200160002084846040516108a89291906117dc565b908152604080516020928190038301902080547fffffffffffffffffffffffff00000000000000000000000000000000000000001673ffffffffffffffffffffffffffffffffffffffff948516179055600087815260038352818120938516815292909152902061091a83858361188d565b507fa243092a3bca211b60c86fb8d0fbf02aa4ead3475b6a9a321bdaa22d786f3f638484848460405161095094939291906119a8565b60405180910390a150505050565b6109666110cf565b6109706000611157565b565b600154339073ffffffffffffffffffffffffffffffffffffffff168114610a1b576040517f08c379a000000000000000000000000000000000000000000000000000000000815260206004820152602960248201527f4f776e61626c6532537465703a2063616c6c6572206973206e6f74207468652060448201527f6e6577206f776e65720000000000000000000000000000000000000000000000606482015260840161036d565b6104b381611157565b600082815260036020908152604080832073ffffffffffffffffffffffffffffffffffffffff851684529091529020805460609190610a62906117ec565b80601f0160208091040260200160405190810160405280929190818152602001828054610a8e906117ec565b8015610adb5780601f10610ab057610100808354040283529160200191610adb565b820191906000526020600020905b815481529060010190602001808311610abe57829003601f168201915b5050505050905092915050565b6000838152600260205260408082209051610b0690859085906117dc565b9081526040519081900360200190205473ffffffffffffffffffffffffffffffffffffffff1690509392505050565b600054610100900460ff1615808015610b555750600054600160ff909116105b80610b6f5750303b158015610b6f575060005460ff166001145b610bfb576040517f08c379a000000000000000000000000000000000000000000000000000000000815260206004820152602e60248201527f496e697469616c697a61626c653a20636f6e747261637420697320616c72656160448201527f647920696e697469616c697a6564000000000000000000000000000000000000606482015260840161036d565b600080547fffffffffffffffffffffffffffffffffffffffffffffffffffffffffffffff001660011790558015610c5957600080547fffffffffffffffffffffffffffffffffffffffffffffffffffffffffffff00ff166101001790555b610c6282611157565b80156106a857600080547fffffffffffffffffffffffffffffffffffffffffffffffffffffffffffff00ff169055604051600181527f7f26b83ff96e1f2b6a682f133852f6798a09c465da95921460cefb38474024989060200160405180910390a15050565b610cd06110cf565b600084815260026020526040908190209051610cef90859085906117dc565b908152604080516020928190038301902080547fffffffffffffffffffffffff000000000000000000000000000000000000000016905560008681526003835281812073ffffffffffffffffffffffffffffffffffffffff851682529092528120610d59916114a7565b7f84e42e5ab91dbcc4b28deebd9d61dd2311cb13c3528dccf48c47cff8db79b1be8484848460405161095094939291906119a8565b610d966110cf565b6001805473ffffffffffffffffffffffffffffffffffffffff83167fffffffffffffffffffffffff00000000000000000000000000000000000000009091168117909155610e0060005473ffffffffffffffffffffffffffffffffffffffff620100009091041690565b73ffffffffffffffffffffffffffffffffffffffff167f38d16b8cac22d99fc7c124b9cd0de2d3fa1faef420bfe791d8c362d765e2270060405160405180910390a350565b6000805473ffffffffffffffffffffffffffffffffffffffff838116620100008181027fffffffffffffffffffff0000000000000000000000000000000000000000ffff851617855560405193049190911692909183917f8be0079c531659141344cd1fd0a4f28419497f9722a3daafe3b4186f6b6457e091a35050565b6104b36110cf565b7f4910fdfa16fed3260ed0e7147f7cc6da11a60208b5b9406d12a635614ffd91435460ff1615610f0357610efe83611188565b505050565b8273ffffffffffffffffffffffffffffffffffffffff166352d1902d6040518163ffffffff1660e01b8152600401602060405180830381865afa925050508015610f88575060408051601f3d9081017fffffffffffffffffffffffffffffffffffffffffffffffffffffffffffffffe0168201909252610f8591810190611a1c565b60015b611014576040517f08c379a000000000000000000000000000000000000000000000000000000000815260206004820152602e60248201527f45524331393637557067726164653a206e657720696d706c656d656e7461746960448201527f6f6e206973206e6f742055555053000000000000000000000000000000000000606482015260840161036d565b7f360894a13ba1a3210667c828492db98dca3e2076cc3735a920a3ca505d382bbc81146110c3576040517f08c379a000000000000000000000000000000000000000000000000000000000815260206004820152602960248201527f45524331393637557067726164653a20756e737570706f727465642070726f7860448201527f6961626c65555549440000000000000000000000000000000000000000000000606482015260840161036d565b50610efe838383611292565b60005473ffffffffffffffffffffffffffffffffffffffff62010000909104163314610970576040517f08c379a000000000000000000000000000000000000000000000000000000000815260206004820181905260248201527f4f776e61626c653a2063616c6c6572206973206e6f7420746865206f776e6572604482015260640161036d565b600180547fffffffffffffffffffffffff00000000000000000000000000000000000000001690556104b381610e45565b73ffffffffffffffffffffffffffffffffffffffff81163b61122c576040517f08c379a000000000000000000000000000000000000000000000000000000000815260206004820152602d60248201527f455243313936373a206e657720696d706c656d656e746174696f6e206973206e60448201527f6f74206120636f6e747261637400000000000000000000000000000000000000606482015260840161036d565b7f360894a13ba1a3210667c828492db98dca3e2076cc3735a920a3ca505d382bbc80547fffffffffffffffffffffffff00000000000000000000000000000000000000001673ffffffffffffffffffffffffffffffffffffffff92909216919091179055565b61129b836112bd565b6000825111806112a85750805b15610efe576112b7838361130a565b50505050565b6112c681611188565b60405173ffffffffffffffffffffffffffffffffffffffff8216907fbc7cd75a20ee27fd9adebab32041f755214dbc6bffa90cc0225b39da2e5c2d3b90600090a250565b606061132f8383604051806060016040528060278152602001611a5260279139611336565b9392505050565b60606000808573ffffffffffffffffffffffffffffffffffffffff16856040516113609190611a35565b600060405180830381855af49150503d806000811461139b576040519150601f19603f3d011682016040523d82523d6000602084013e6113a0565b606091505b50915091506113b1868383876113bb565b9695505050505050565b6060831561145157825160000361144a5773ffffffffffffffffffffffffffffffffffffffff85163b61144a576040517f08c379a000000000000000000000000000000000000000000000000000000000815260206004820152601d60248201527f416464726573733a2063616c6c20746f206e6f6e2d636f6e7472616374000000604482015260640161036d565b508161145b565b61145b8383611463565b949350505050565b8151156114735781518083602001fd5b806040517f08c379a000000000000000000000000000000000000000000000000000000000815260040161036d919061173f565b5080546114b3906117ec565b6000825580601f106114c3575050565b601f0160209004906000526020600020908101906104b391905b808211156114f157600081556001016114dd565b5090565b803573ffffffffffffffffffffffffffffffffffffffff8116811461151957600080fd5b919050565b60006020828403121561153057600080fd5b61132f826114f5565b7f4e487b7100000000000000000000000000000000000000000000000000000000600052604160045260246000fd5b6000806040838503121561157b57600080fd5b611584836114f5565b9150602083013567ffffffffffffffff808211156115a157600080fd5b818501915085601f8301126115b557600080fd5b8135818111156115c7576115c7611539565b604051601f82017fffffffffffffffffffffffffffffffffffffffffffffffffffffffffffffffe0908116603f0116810190838211818310171561160d5761160d611539565b8160405282815288602084870101111561162657600080fd5b8260208601602083013760006020848301015280955050505050509250929050565b60008083601f84011261165a57600080fd5b50813567ffffffffffffffff81111561167257600080fd5b60208301915083602082850101111561168a57600080fd5b9250929050565b600080600080606085870312156116a757600080fd5b84359350602085013567ffffffffffffffff8111156116c557600080fd5b6116d187828801611648565b90945092506116e49050604086016114f5565b905092959194509250565b6000806040838503121561170257600080fd5b82359150611712602084016114f5565b90509250929050565b60005b8381101561173657818101518382015260200161171e565b50506000910152565b602081526000825180602084015261175e81604085016020870161171b565b601f017fffffffffffffffffffffffffffffffffffffffffffffffffffffffffffffffe0169190910160400192915050565b6000806000604084860312156117a557600080fd5b83359250602084013567ffffffffffffffff8111156117c357600080fd5b6117cf86828701611648565b9497909650939450505050565b8183823760009101908152919050565b600181811c9082168061180057607f821691505b602082108103611839577f4e487b7100000000000000000000000000000000000000000000000000000000600052602260045260246000fd5b50919050565b601f821115610efe57600081815260208120601f850160051c810160208610156118665750805b601f850160051c820191505b8181101561188557828155600101611872565b505050505050565b67ffffffffffffffff8311156118a5576118a5611539565b6118b9836118b383546117ec565b8361183f565b6000601f84116001811461190b57600085156118d55750838201355b7fffffffffffffffffffffffffffffffffffffffffffffffffffffffffffffffff600387901b1c1916600186901b1783556119a1565b6000838152602090207fffffffffffffffffffffffffffffffffffffffffffffffffffffffffffffffe0861690835b8281101561195a578685013582556020948501946001909201910161193a565b5086821015611995577fffffffffffffffffffffffffffffffffffffffffffffffffffffffffffffffff60f88860031b161c19848701351681555b505060018560011b0183555b5050505050565b8481526060602082015282606082015282846080830137600060808483010152600060807fffffffffffffffffffffffffffffffffffffffffffffffffffffffffffffffe0601f860116830101905073ffffffffffffffffffffffffffffffffffffffff8316604083015295945050505050565b600060208284031215611a2e57600080fd5b5051919050565b60008251611a4781846020870161171b565b919091019291505056fe416464726573733a206c6f772d6c6576656c2064656c65676174652063616c6c206661696c6564a264697066735822122043692e6244f1a7186b289f90d499aecf811e37e2a89d37a727d7c04c07e9f4e164736f6c63430008110033",
	"deployedBytecode": "0x6080604052600436106100d25760003560e01c80637db6e6751161007f578063c4d66de811610059578063c4d66de814610221578063e30c397814610241578063e905d24e1461026c578063f2fde38b1461028c57600080fd5b80637db6e6751461017e578063805da4ad146101ab5780638da5cb5b146101f057600080fd5b80635eba0df0116100b05780635eba0df014610134578063715018a61461015457806379ba50971461016957600080fd5b80633659cfe6146100d75780634f1ef286146100f957806352d1902d1461010c575b600080fd5b3480156100e357600080fd5b506100f76100f236600461151e565b6102ac565b005b6100f7610107366004611568565b6104b6565b34801561011857600080fd5b506101216106ac565b6040519081526020015b60405180910390f35b34801561014057600080fd5b506100f761014f366004611691565b610798565b34801561016057600080fd5b506100f761095e565b34801561017557600080fd5b506100f7610972565b34801561018a57600080fd5b5061019e6101993660046116ef565b610a24565b60405161012b919061173f565b3480156101b757600080fd5b506101cb6101c6366004611790565b610ae8565b60405173ffffffffffffffffffffffffffffffffffffffff909116815260200161012b565b3480156101fc57600080fd5b5060005462010000900473ffffffffffffffffffffffffffffffffffffffff166101cb565b34801561022d57600080fd5b506100f761023c36600461151e565b610b35565b34801561024d57600080fd5b5060015473ffffffffffffffffffffffffffffffffffffffff166101cb565b34801561027857600080fd5b506100f7610287366004611691565b610cc8565b34801561029857600080fd5b506100f76102a736600461151e565b610d8e565b73ffffffffffffffffffffffffffffffffffffffff7f000000000000000000000000249c29ced765da6dbf8e5c36cdcaa9a0429587fa163003610376576040517f08c379a000000000000000000000000000000000000000000000000000000000815260206004820152602c60248201527f46756e6374696f6e206d7573742062652063616c6c6564207468726f7567682060448201527f64656c656761746563616c6c000000000000000000000000000000000000000060648201526084015b60405180910390fd5b7f000000000000000000000000249c29ced765da6dbf8e5c36cdcaa9a0429587fa73ffffffffffffffffffffffffffffffffffffffff166103eb7f360894a13ba1a3210667c828492db98dca3e2076cc3735a920a3ca505d382bbc5473ffffffffffffffffffffffffffffffffffffffff1690565b73ffffffffffffffffffffffffffffffffffffffff161461048e576040517f08c379a000000000000000000000000000000000000000000000000000000000815260206004820152602c60248201527f46756e6374696f6e206d7573742062652063616c6c6564207468726f7567682060448201527f6163746976652070726f78790000000000000000000000000000000000000000606482015260840161036d565b61049781610ec3565b604080516000808252602082019092526104b391839190610ecb565b50565b73ffffffffffffffffffffffffffffffffffffffff7f000000000000000000000000249c29ced765da6dbf8e5c36cdcaa9a0429587fa16300361057b576040517f08c379a000000000000000000000000000000000000000000000000000000000815260206004820152602c60248201527f46756e6374696f6e206d7573742062652063616c6c6564207468726f7567682060448201527f64656c656761746563616c6c0000000000000000000000000000000000000000606482015260840161036d565b7f000000000000000000000000249c29ced765da6dbf8e5c36cdcaa9a0429587fa73ffffffffffffffffffffffffffffffffffffffff166105f07f360894a13ba1a3210667c828492db98dca3e2076cc3735a920a3ca505d382bbc5473ffffffffffffffffffffffffffffffffffffffff1690565b73ffffffffffffffffffffffffffffffffffffffff1614610693576040517f08c379a000000000000000000000000000000000000000000000000000000000815260206004820152602c60248201527f46756e6374696f6e206d7573742062652063616c6c6564207468726f7567682060448201527f6163746976652070726f78790000000000000000000000000000000000000000606482015260840161036d565b61069c82610ec3565b6106a882826001610ecb565b5050565b60003073ffffffffffffffffffffffffffffffffffffffff7f000000000000000000000000249c29ced765da6dbf8e5c36cdcaa9a0429587fa1614610773576040517f08c379a000000000000000000000000000000000000000000000000000000000815260206004820152603860248201527f555550535570677261646561626c653a206d757374206e6f742062652063616c60448201527f6c6564207468726f7567682064656c656761746563616c6c0000000000000000606482015260840161036d565b507f360894a13ba1a3210667c828492db98dca3e2076cc3735a920a3ca505d382bbc90565b6107a06110cf565b81610807576040517f08c379a000000000000000000000000000000000000000000000000000000000815260206004820152600560248201527f216e616d65000000000000000000000000000000000000000000000000000000604482015260640161036d565b73ffffffffffffffffffffffffffffffffffffffff8116610884576040517f08c379a000000000000000000000000000000000000000000000000000000000815260206004820152600560248201527f21706f7274000000000000000000000000000000000000000000000000000000604482015260640161036d565b806002600086815260200190815260200160002084846040516108a89291906117dc565b908152604080516020928190038301902080547fffffffffffffffffffffffff00000000000000000000000000000000000000001673ffffffffffffffffffffffffffffffffffffffff948516179055600087815260038352818120938516815292909152902061091a83858361188d565b507fa243092a3bca211b60c86fb8d0fbf02aa4ead3475b6a9a321bdaa22d786f3f638484848460405161095094939291906119a8565b60405180910390a150505050565b6109666110cf565b6109706000611157565b565b600154339073ffffffffffffffffffffffffffffffffffffffff168114610a1b576040517f08c379a000000000000000000000000000000000000000000000000000000000815260206004820152602960248201527f4f776e61626c6532537465703a2063616c6c6572206973206e6f74207468652060448201527f6e6577206f776e65720000000000000000000000000000000000000000000000606482015260840161036d565b6104b381611157565b600082815260036020908152604080832073ffffffffffffffffffffffffffffffffffffffff851684529091529020805460609190610a62906117ec565b80601f0160208091040260200160405190810160405280929190818152602001828054610a8e906117ec565b8015610adb5780601f10610ab057610100808354040283529160200191610adb565b820191906000526020600020905b815481529060010190602001808311610abe57829003601f168201915b5050505050905092915050565b6000838152600260205260408082209051610b0690859085906117dc565b9081526040519081900360200190205473ffffffffffffffffffffffffffffffffffffffff1690509392505050565b600054610100900460ff1615808015610b555750600054600160ff909116105b80610b6f5750303b158015610b6f575060005460ff166001145b610bfb576040517f08c379a000000000000000000000000000000000000000000000000000000000815260206004820152602e60248201527f496e697469616c697a61626c653a20636f6e747261637420697320616c72656160448201527f647920696e697469616c697a6564000000000000000000000000000000000000606482015260840161036d565b600080547fffffffffffffffffffffffffffffffffffffffffffffffffffffffffffffff001660011790558015610c5957600080547fffffffffffffffffffffffffffffffffffffffffffffffffffffffffffff00ff166101001790555b610c6282611157565b80156106a857600080547fffffffffffffffffffffffffffffffffffffffffffffffffffffffffffff00ff169055604051600181527f7f26b83ff96e1f2b6a682f133852f6798a09c465da95921460cefb38474024989060200160405180910390a15050565b610cd06110cf565b600084815260026020526040908190209051610cef90859085906117dc565b908152604080516020928190038301902080547fffffffffffffffffffffffff000000000000000000000000000000000000000016905560008681526003835281812073ffffffffffffffffffffffffffffffffffffffff851682529092528120610d59916114a7565b7f84e42e5ab91dbcc4b28deebd9d61dd2311cb13c3528dccf48c47cff8db79b1be8484848460405161095094939291906119a8565b610d966110cf565b6001805473ffffffffffffffffffffffffffffffffffffffff83167fffffffffffffffffffffffff00000000000000000000000000000000000000009091168117909155610e0060005473ffffffffffffffffffffffffffffffffffffffff620100009091041690565b73ffffffffffffffffffffffffffffffffffffffff167f38d16b8cac22d99fc7c124b9cd0de2d3fa1faef420bfe791d8c362d765e2270060405160405180910390a350565b6000805473ffffffffffffffffffffffffffffffffffffffff838116620100008181027fffffffffffffffffffff0000000000000000000000000000000000000000ffff851617855560405193049190911692909183917f8be0079c531659141344cd1fd0a4f28419497f9722a3daafe3b4186f6b6457e091a35050565b6104b36110cf565b7f4910fdfa16fed3260ed0e7147f7cc6da11a60208b5b9406d12a635614ffd91435460ff1615610f0357610efe83611188565b505050565b8273ffffffffffffffffffffffffffffffffffffffff166352d1902d6040518163ffffffff1660e01b8152600401602060405180830381865afa925050508015610f88575060408051601f3d9081017fffffffffffffffffffffffffffffffffffffffffffffffffffffffffffffffe0168201909252610f8591810190611a1c565b60015b611014576040517f08c379a000000000000000000000000000000000000000000000000000000000815260206004820152602e60248201527f45524331393637557067726164653a206e657720696d706c656d656e7461746960448201527f6f6e206973206e6f742055555053000000000000000000000000000000000000606482015260840161036d565b7f360894a13ba1a3210667c828492db98dca3e2076cc3735a920a3ca505d382bbc81146110c3576040517f08c379a000000000000000000000000000000000000000000000000000000000815260206004820152602960248201527f45524331393637557067726164653a20756e737570706f727465642070726f7860448201527f6961626c65555549440000000000000000000000000000000000000000000000606482015260840161036d565b50610efe838383611292565b60005473ffffffffffffffffffffffffffffffffffffffff62010000909104163314610970576040517f08c379a000000000000000000000000000000000000000000000000000000000815260206004820181905260248201527f4f776e61626c653a2063616c6c6572206973206e6f7420746865206f776e6572604482015260640161036d565b600180547fffffffffffffffffffffffff00000000000000000000000000000000000000001690556104b381610e45565b73ffffffffffffffffffffffffffffffffffffffff81163b61122c576040517f08c379a000000000000000000000000000000000000000000000000000000000815260206004820152602d60248201527f455243313936373a206e657720696d706c656d656e746174696f6e206973206e60448201527f6f74206120636f6e747261637400000000000000000000000000000000000000606482015260840161036d565b7f360894a13ba1a3210667c828492db98dca3e2076cc3735a920a3ca505d382bbc80547fffffffffffffffffffffffff00000000000000000000000000000000000000001673ffffffffffffffffffffffffffffffffffffffff92909216919091179055565b61129b836112bd565b6000825111806112a85750805b15610efe576112b7838361130a565b50505050565b6112c681611188565b60405173ffffffffffffffffffffffffffffffffffffffff8216907fbc7cd75a20ee27fd9adebab32041f755214dbc6bffa90cc0225b39da2e5c2d3b90600090a250565b606061132f8383604051806060016040528060278152602001611a5260279139611336565b9392505050565b60606000808573ffffffffffffffffffffffffffffffffffffffff16856040516113609190611a35565b600060405180830381855af49150503d806000811461139b576040519150601f19603f3d011682016040523d82523d6000602084013e6113a0565b606091505b50915091506113b1868383876113bb565b9695505050505050565b6060831561145157825160000361144a5773ffffffffffffffffffffffffffffffffffffffff85163b61144a576040517f08c379a000000000000000000000000000000000000000000000000000000000815260206004820152601d60248201527f416464726573733a2063616c6c20746f206e6f6e2d636f6e7472616374000000604482015260640161036d565b508161145b565b61145b8383611463565b949350505050565b8151156114735781518083602001fd5b806040517f08c379a000000000000000000000000000000000000000000000000000000000815260040161036d919061173f565b5080546114b3906117ec565b6000825580601f106114c3575050565b601f0160209004906000526020600020908101906104b391905b808211156114f157600081556001016114dd565b5090565b803573ffffffffffffffffffffffffffffffffffffffff8116811461151957600080fd5b919050565b60006020828403121561153057600080fd5b61132f826114f5565b7f4e487b7100000000000000000000000000000000000000000000000000000000600052604160045260246000fd5b6000806040838503121561157b57600080fd5b611584836114f5565b9150602083013567ffffffffffffffff808211156115a157600080fd5b818501915085601f8301126115b557600080fd5b8135818111156115c7576115c7611539565b604051601f82017fffffffffffffffffffffffffffffffffffffffffffffffffffffffffffffffe0908116603f0116810190838211818310171561160d5761160d611539565b8160405282815288602084870101111561162657600080fd5b8260208601602083013760006020848301015280955050505050509250929050565b60008083601f84011261165a57600080fd5b50813567ffffffffffffffff81111561167257600080fd5b60208301915083602082850101111561168a57600080fd5b9250929050565b600080600080606085870312156116a757600080fd5b84359350602085013567ffffffffffffffff8111156116c557600080fd5b6116d187828801611648565b90945092506116e49050604086016114f5565b905092959194509250565b6000806040838503121561170257600080fd5b82359150611712602084016114f5565b90509250929050565b60005b8381101561173657818101518382015260200161171e565b50506000910152565b602081526000825180602084015261175e81604085016020870161171b565b601f017fffffffffffffffffffffffffffffffffffffffffffffffffffffffffffffffe0169190910160400192915050565b6000806000604084860312156117a557600080fd5b83359250602084013567ffffffffffffffff8111156117c357600080fd5b6117cf86828701611648565b9497909650939450505050565b8183823760009101908152919050565b600181811c9082168061180057607f821691505b602082108103611839577f4e487b7100000000000000000000000000000000000000000000000000000000600052602260045260246000fd5b50919050565b601f821115610efe57600081815260208120601f850160051c810160208610156118665750805b601f850160051c820191505b8181101561188557828155600101611872565b505050505050565b67ffffffffffffffff8311156118a5576118a5611539565b6118b9836118b383546117ec565b8361183f565b6000601f84116001811461190b57600085156118d55750838201355b7fffffffffffffffffffffffffffffffffffffffffffffffffffffffffffffffff600387901b1c1916600186901b1783556119a1565b6000838152602090207fffffffffffffffffffffffffffffffffffffffffffffffffffffffffffffffe0861690835b8281101561195a578685013582556020948501946001909201910161193a565b5086821015611995577fffffffffffffffffffffffffffffffffffffffffffffffffffffffffffffffff60f88860031b161c19848701351681555b505060018560011b0183555b5050505050565b8481526060602082015282606082015282846080830137600060808483010152600060807fffffffffffffffffffffffffffffffffffffffffffffffffffffffffffffffe0601f860116830101905073ffffffffffffffffffffffffffffffffffffffff8316604083015295945050505050565b600060208284031215611a2e57600080fd5b5051919050565b60008251611a4781846020870161171b565b919091019291505056fe416464726573733a206c6f772d6c6576656c2064656c65676174652063616c6c206661696c6564a264697066735822122043692e6244f1a7186b289f90d499aecf811e37e2a89d37a727d7c04c07e9f4e164736f6c63430008110033",
	"devdoc": {
		"kind": "dev",
		"methods": {
			"acceptOwnership()": {
				"details": "The new owner accepts the ownership transfer."
			},
			"del(uint256,string,address)": {
				"details": "Delete a port."
			},
			"get(uint256,address)": {
				"details": "Fetch port name by chainId and port address."
			},
			"get(uint256,string)": {
				"details": "Fetch port address by chainId and name."
			},
			"owner()": {
				"details": "Returns the address of the current owner."
			},
			"pendingOwner()": {
				"details": "Returns the address of the pending owner."
			},
			"proxiableUUID()": {
				"details": "Implementation of the ERC1822 {proxiableUUID} function. This returns the storage slot used by the implementation. It is used to validate the implementation's compatibility when performing an upgrade. IMPORTANT: A proxy pointing at a proxiable contract should not be considered proxiable itself, because this risks bricking a proxy that upgrades to it, by delegating to itself until out of gas. Thus it is critical that this function revert if invoked through a proxy. This is guaranteed by the `notDelegated` modifier."
			},
			"renounceOwnership()": {
				"details": "Leaves the contract without owner. It will not be possible to call `onlyOwner` functions. Can only be called by the current owner. NOTE: Renouncing ownership will leave the contract without an owner, thereby disabling any functionality that is only available to the owner."
			},
			"set(uint256,string,address)": {
				"details": "Set a port."
			},
			"transferOwnership(address)": {
				"details": "Starts the ownership transfer of the contract to a new account. Replaces the pending transfer if there is one. Can only be called by the current owner."
			},
			"upgradeTo(address)": {
				"custom:oz-upgrades-unsafe-allow-reachable": "delegatecall",
				"details": "Upgrade the implementation of the proxy to `newImplementation`. Calls {_authorizeUpgrade}. Emits an {Upgraded} event."
			},
			"upgradeToAndCall(address,bytes)": {
				"custom:oz-upgrades-unsafe-allow-reachable": "delegatecall",
				"details": "Upgrade the implementation of the proxy to `newImplementation`, and subsequently execute the function call encoded in `data`. Calls {_authorizeUpgrade}. Emits an {Upgraded} event."
			}
		},
		"version": 1
	},
	"userdoc": {
		"kind": "user",
		"methods": {},
		"version": 1
	},
	"gitCommit": "f0193126eda4e034175619438fc55d4e32448dd8",
	"sourceName": "lib/darwinia-msgport/src/PortRegistry.sol",
	"chainId": "11155111",
	"linkReferences": {},
	"deployedLinkReferences": {},
	"history": []
}