{
	"_format": "sphinx-sol-ct-artifact-1",
	"merkleRoot": "0xeb6a35e4fddc8b21c92d80652c675c9f4e46c7f86af831d3e59ad380dc47e9ba",
	"contractName": "SafeMsgportModule",
	"address": "0x002dD94114497E86b5493E2D048C731e4BeBdDD0",
	"abi": [
		{
			"type": "constructor",
			"inputs": [],
			"stateMutability": "nonpayable"
		},
		{
			"type": "function",
			"name": "checkPort",
			"inputs": [
				{
					"name": "port_",
					"type": "address",
					"internalType": "address"
				}
			],
			"outputs": [
				{
					"name": "",
					"type": "bool",
					"internalType": "bool"
				}
			],
			"stateMutability": "view"
		},
		{
			"type": "function",
			"name": "childXAccount",
			"inputs": [],
			"outputs": [
				{
					"name": "",
					"type": "address",
					"internalType": "address"
				}
			],
			"stateMutability": "view"
		},
		{
			"type": "function",
			"name": "port",
			"inputs": [],
			"outputs": [
				{
					"name": "",
					"type": "address",
					"internalType": "address"
				}
			],
			"stateMutability": "view"
		},
		{
			"type": "function",
			"name": "rootChainid",
			"inputs": [],
			"outputs": [
				{
					"name": "",
					"type": "uint256",
					"internalType": "uint256"
				}
			],
			"stateMutability": "view"
		},
		{
			"type": "function",
			"name": "rootOwner",
			"inputs": [],
			"outputs": [
				{
					"name": "",
					"type": "address",
					"internalType": "address"
				}
			],
			"stateMutability": "view"
		},
		{
			"type": "function",
			"name": "setPort",
			"inputs": [
				{
					"name": "port_",
					"type": "address",
					"internalType": "address"
				}
			],
			"outputs": [],
			"stateMutability": "nonpayable"
		},
		{
			"type": "function",
			"name": "setup",
			"inputs": [
				{
					"name": "xAccount",
					"type": "address",
					"internalType": "address"
				},
				{
					"name": "chainId",
					"type": "uint256",
					"internalType": "uint256"
				},
				{
					"name": "owner",
					"type": "address",
					"internalType": "address"
				},
				{
					"name": "port_",
					"type": "address",
					"internalType": "address"
				}
			],
			"outputs": [],
			"stateMutability": "nonpayable"
		},
		{
			"type": "function",
			"name": "xExecute",
			"inputs": [
				{
					"name": "target",
					"type": "address",
					"internalType": "address"
				},
				{
					"name": "value",
					"type": "uint256",
					"internalType": "uint256"
				},
				{
					"name": "data",
					"type": "bytes",
					"internalType": "bytes"
				},
				{
					"name": "operation",
					"type": "uint8",
					"internalType": "enum Operation"
				}
			],
			"outputs": [
				{
					"name": "",
					"type": "bytes",
					"internalType": "bytes"
				}
			],
			"stateMutability": "payable"
		},
		{
			"type": "function",
			"name": "xOwner",
			"inputs": [],
			"outputs": [
				{
					"name": "",
					"type": "uint256",
					"internalType": "uint256"
				},
				{
					"name": "",
					"type": "address",
					"internalType": "address"
				}
			],
			"stateMutability": "view"
		},
		{
			"type": "event",
			"name": "ModuleTransactionExecuted",
			"inputs": [
				{
					"name": "target",
					"type": "address",
					"indexed": false,
					"internalType": "address"
				},
				{
					"name": "value",
					"type": "uint256",
					"indexed": false,
					"internalType": "uint256"
				},
				{
					"name": "data",
					"type": "bytes",
					"indexed": false,
					"internalType": "bytes"
				},
				{
					"name": "operation",
					"type": "uint8",
					"indexed": false,
					"internalType": "enum Operation"
				},
				{
					"name": "result",
					"type": "bool",
					"indexed": false,
					"internalType": "bool"
				}
			],
			"anonymous": false
		},
		{
			"type": "event",
			"name": "SetPort",
			"inputs": [
				{
					"name": "port",
					"type": "address",
					"indexed": false,
					"internalType": "address"
				}
			],
			"anonymous": false
		},
		{
			"type": "error",
			"name": "AlreadySetup",
			"inputs": []
		},
		{
			"type": "error",
			"name": "SendEtherFailed",
			"inputs": [
				{
					"name": "reason",
					"type": "bytes",
					"internalType": "bytes"
				}
			]
		},
		{
			"type": "error",
			"name": "ZeroChainId",
			"inputs": []
		}
	],
	"solcInputHash": "496eb34cb62ad8f36c9d6cdfa69cdef4",
	"args": [],
	"bytecode": "0x608060405234801561001057600080fd5b506001600255610d3b806100256000396000f3fe6080604052600436106100955760003560e01c80633bc4d8d21161006957806386859c101161004e57806386859c10146101c1578063f05b59f9146101e1578063fa33525a1461020e57600080fd5b80633bc4d8d21461017f5780635fa9b403146101a157600080fd5b8062ee220c1461009a5780631c7011a4146100f1578063269f55f11461012e57806326b3c68b14610152575b600080fd5b3480156100a657600080fd5b506003546100c79073ffffffffffffffffffffffffffffffffffffffff1681565b60405173ffffffffffffffffffffffffffffffffffffffff90911681526020015b60405180910390f35b3480156100fd57600080fd5b506002546003546040805192835273ffffffffffffffffffffffffffffffffffffffff9091166020830152016100e8565b34801561013a57600080fd5b5061014460025481565b6040519081526020016100e8565b34801561015e57600080fd5b506000546100c79073ffffffffffffffffffffffffffffffffffffffff1681565b34801561018b57600080fd5b5061019f61019a36600461093b565b61025a565b005b6101b46101af366004610988565b61036c565b6040516100e89190610a52565b3480156101cd57600080fd5b5061019f6101dc366004610aa3565b610541565b3480156101ed57600080fd5b506001546100c79073ffffffffffffffffffffffffffffffffffffffff1681565b34801561021a57600080fd5b5061024a610229366004610aa3565b60005473ffffffffffffffffffffffffffffffffffffffff90811691161490565b60405190151581526020016100e8565b60025415610294576040517f7735869100000000000000000000000000000000000000000000000000000000815260040160405180910390fd5b826000036102ce576040517fc84885d400000000000000000000000000000000000000000000000000000000815260040160405180910390fd5b6000805473ffffffffffffffffffffffffffffffffffffffff8381167fffffffffffffffffffffffff0000000000000000000000000000000000000000928316811790935560018054888316908416179055600286905560038054918616919092161790556040519081527f5c5fe92c97ab09c6ef83ea517667eb827971df557c1777693a90c37c15039e6b9060200160405180910390a150505050565b60606103766105c2565b341561042957600154604051600091829173ffffffffffffffffffffffffffffffffffffffff9091169034908381818185875af1925050503d80600081146103da576040519150601f19603f3d011682016040523d82523d6000602084013e6103df565b606091505b50915091508161042657806040517fbb6d59cd00000000000000000000000000000000000000000000000000000000815260040161041d9190610a52565b60405180910390fd5b50505b6001546040517f5229073f000000000000000000000000000000000000000000000000000000008152600091829173ffffffffffffffffffffffffffffffffffffffff90911690635229073f9061048c908b908b908b908b908b90600401610b49565b6000604051808303816000875af11580156104ab573d6000803e3d6000fd5b505050506040513d6000823e601f3d9081017fffffffffffffffffffffffffffffffffffffffffffffffffffffffffffffffe01682016040526104f19190810190610bc7565b915091507f6554ac2614365205b1687b5382ea150204e1897626fa9396c93712070d2ab2b488888888888760405161052e96959493929190610cad565b60405180910390a1979650505050505050565b6105496105c2565b600080547fffffffffffffffffffffffff00000000000000000000000000000000000000001673ffffffffffffffffffffffffffffffffffffffff83169081179091556040519081527f5c5fe92c97ab09c6ef83ea517667eb827971df557c1777693a90c37c15039e6b9060200160405180910390a150565b3360006105cd6107e5565b6002546003549192509073ffffffffffffffffffffffffffffffffffffffff16468303610656576040517f08c379a000000000000000000000000000000000000000000000000000000000815260206004820152600c60248201527f2166726f6d436861696e49640000000000000000000000000000000000000000604482015260640161041d565b60005473ffffffffffffffffffffffffffffffffffffffff8086169116146106da576040517f08c379a000000000000000000000000000000000000000000000000000000000815260206004820152600860248201527f2174727573746564000000000000000000000000000000000000000000000000604482015260640161041d565b818314610743576040517f08c379a000000000000000000000000000000000000000000000000000000000815260206004820152600f60248201527f21784f776e65722e636861696e49640000000000000000000000000000000000604482015260640161041d565b8073ffffffffffffffffffffffffffffffffffffffff1661076261087a565b73ffffffffffffffffffffffffffffffffffffffff16146107df576040517f08c379a000000000000000000000000000000000000000000000000000000000815260206004820152600d60248201527f21784f776e65722e6f776e657200000000000000000000000000000000000000604482015260640161041d565b50505050565b60006034361015610852576040517f08c379a000000000000000000000000000000000000000000000000000000000815260206004820152600c60248201527f2166726f6d436861696e49640000000000000000000000000000000000000000604482015260640161041d565b507fffffffffffffffffffffffffffffffffffffffffffffffffffffffffffffffcc36013590565b600060143610156108e7576040517f08c379a000000000000000000000000000000000000000000000000000000000815260206004820152600960248201527f2166726f6d446170700000000000000000000000000000000000000000000000604482015260640161041d565b507fffffffffffffffffffffffffffffffffffffffffffffffffffffffffffffffec36013560601c90565b803573ffffffffffffffffffffffffffffffffffffffff8116811461093657600080fd5b919050565b6000806000806080858703121561095157600080fd5b61095a85610912565b93506020850135925061096f60408601610912565b915061097d60608601610912565b905092959194509250565b6000806000806000608086880312156109a057600080fd5b6109a986610912565b945060208601359350604086013567ffffffffffffffff808211156109cd57600080fd5b818801915088601f8301126109e157600080fd5b8135818111156109f057600080fd5b896020828501011115610a0257600080fd5b602083019550809450505050606086013560028110610a2057600080fd5b809150509295509295909350565b60005b83811015610a49578181015183820152602001610a31565b50506000910152565b6020815260008251806020840152610a71816040850160208701610a2e565b601f017fffffffffffffffffffffffffffffffffffffffffffffffffffffffffffffffe0169190910160400192915050565b600060208284031215610ab557600080fd5b610abe82610912565b9392505050565b8183528181602085013750600060208284010152600060207fffffffffffffffffffffffffffffffffffffffffffffffffffffffffffffffe0601f840116840101905092915050565b60028110610b45577f4e487b7100000000000000000000000000000000000000000000000000000000600052602160045260246000fd5b9052565b73ffffffffffffffffffffffffffffffffffffffff86168152846020820152608060408201526000610b7f608083018587610ac5565b9050610b8e6060830184610b0e565b9695505050505050565b7f4e487b7100000000000000000000000000000000000000000000000000000000600052604160045260246000fd5b60008060408385031215610bda57600080fd5b82518015158114610bea57600080fd5b602084015190925067ffffffffffffffff80821115610c0857600080fd5b818501915085601f830112610c1c57600080fd5b815181811115610c2e57610c2e610b98565b604051601f82017fffffffffffffffffffffffffffffffffffffffffffffffffffffffffffffffe0908116603f01168101908382118183101715610c7457610c74610b98565b81604052828152886020848701011115610c8d57600080fd5b610c9e836020830160208801610a2e565b80955050505050509250929050565b73ffffffffffffffffffffffffffffffffffffffff8716815285602082015260a060408201526000610ce360a083018688610ac5565b9050610cf26060830185610b0e565b821515608083015297965050505050505056fea26469706673582212200d853f1434aa87169eb878c8f4f310491d2a284d2f5abe6676332ef2a23319b264736f6c63430008110033",
	"devdoc": {
		"kind": "dev",
		"methods": {
			"checkPort(address)": {
				"details": "Check that the xCall originates from the port.",
				"returns": {
					"_0": "Check result."
				}
			},
			"setPort(address)": {
				"details": "Set port.",
				"params": {
					"port_": "New port."
				}
			},
			"xExecute(address,uint256,bytes,uint8)": {
				"details": "Receive xCall from root chain xOwner.",
				"params": {
					"data": "Data of the transaction that should be executed",
					"operation": "Operation (Call or Delegatecall) of the transaction that should be executed",
					"target": "Target of the transaction that should be executed",
					"value": "Wei value of the transaction that should be executed"
				},
				"returns": {
					"_0": "xExecute return data Return data after xCall."
				}
			},
			"xOwner()": {
				"details": "Fetch the xAccount xOwner.",
				"returns": {
					"_0": "(chainId, owner)   - chainId Chain id that xAccount belongs in.   - owner Owner that xAccount belongs to."
				}
			}
		},
		"version": 1
	},
	"userdoc": {
		"kind": "user",
		"methods": {},
		"version": 1
	},
	"gitCommit": "aceebb65974b57c60a2332563da04f0e4ccd2cf1",
	"sourceName": "lib/XAccount/src/SafeMsgportModule.sol",
	"chainId": "11155111",
	"linkReferences": {},
	"deployedLinkReferences": {},
	"history": [
		{
			"_format": "sphinx-sol-ct-artifact-1",
			"merkleRoot": "0x56657e50ef8879c896a9869b7bf07a9da8d809fbbbe38ce4fe91227328768871",
			"contractName": "SafeMsgportModule",
			"address": "0x1899e901F53534489CEA580b6Ec688DddCcd0b91",
			"abi": [
				{
					"type": "constructor",
					"inputs": [],
					"stateMutability": "nonpayable"
				},
				{
					"type": "function",
					"name": "checkPort",
					"inputs": [
						{
							"name": "port_",
							"type": "address",
							"internalType": "address"
						}
					],
					"outputs": [
						{
							"name": "",
							"type": "bool",
							"internalType": "bool"
						}
					],
					"stateMutability": "view"
				},
				{
					"type": "function",
					"name": "childXAccount",
					"inputs": [],
					"outputs": [
						{
							"name": "",
							"type": "address",
							"internalType": "address"
						}
					],
					"stateMutability": "view"
				},
				{
					"type": "function",
					"name": "port",
					"inputs": [],
					"outputs": [
						{
							"name": "",
							"type": "address",
							"internalType": "address"
						}
					],
					"stateMutability": "view"
				},
				{
					"type": "function",
					"name": "rootChainid",
					"inputs": [],
					"outputs": [
						{
							"name": "",
							"type": "uint256",
							"internalType": "uint256"
						}
					],
					"stateMutability": "view"
				},
				{
					"type": "function",
					"name": "rootOwner",
					"inputs": [],
					"outputs": [
						{
							"name": "",
							"type": "address",
							"internalType": "address"
						}
					],
					"stateMutability": "view"
				},
				{
					"type": "function",
					"name": "setPort",
					"inputs": [
						{
							"name": "port_",
							"type": "address",
							"internalType": "address"
						}
					],
					"outputs": [],
					"stateMutability": "nonpayable"
				},
				{
					"type": "function",
					"name": "setup",
					"inputs": [
						{
							"name": "xAccount",
							"type": "address",
							"internalType": "address"
						},
						{
							"name": "chainId",
							"type": "uint256",
							"internalType": "uint256"
						},
						{
							"name": "owner",
							"type": "address",
							"internalType": "address"
						},
						{
							"name": "port_",
							"type": "address",
							"internalType": "address"
						}
					],
					"outputs": [],
					"stateMutability": "nonpayable"
				},
				{
					"type": "function",
					"name": "xExecute",
					"inputs": [
						{
							"name": "target",
							"type": "address",
							"internalType": "address"
						},
						{
							"name": "value",
							"type": "uint256",
							"internalType": "uint256"
						},
						{
							"name": "data",
							"type": "bytes",
							"internalType": "bytes"
						},
						{
							"name": "operation",
							"type": "uint8",
							"internalType": "enum Operation"
						}
					],
					"outputs": [
						{
							"name": "",
							"type": "bytes",
							"internalType": "bytes"
						}
					],
					"stateMutability": "payable"
				},
				{
					"type": "function",
					"name": "xOwner",
					"inputs": [],
					"outputs": [
						{
							"name": "",
							"type": "uint256",
							"internalType": "uint256"
						},
						{
							"name": "",
							"type": "address",
							"internalType": "address"
						}
					],
					"stateMutability": "view"
				},
				{
					"type": "event",
					"name": "ModuleTransactionExecuted",
					"inputs": [
						{
							"name": "target",
							"type": "address",
							"indexed": false,
							"internalType": "address"
						},
						{
							"name": "value",
							"type": "uint256",
							"indexed": false,
							"internalType": "uint256"
						},
						{
							"name": "data",
							"type": "bytes",
							"indexed": false,
							"internalType": "bytes"
						},
						{
							"name": "operation",
							"type": "uint8",
							"indexed": false,
							"internalType": "enum Operation"
						},
						{
							"name": "result",
							"type": "bool",
							"indexed": false,
							"internalType": "bool"
						}
					],
					"anonymous": false
				},
				{
					"type": "event",
					"name": "SetPort",
					"inputs": [
						{
							"name": "port",
							"type": "address",
							"indexed": false,
							"internalType": "address"
						}
					],
					"anonymous": false
				},
				{
					"type": "error",
					"name": "AlreadySetup",
					"inputs": []
				},
				{
					"type": "error",
					"name": "SendEtherFailed",
					"inputs": [
						{
							"name": "reason",
							"type": "bytes",
							"internalType": "bytes"
						}
					]
				},
				{
					"type": "error",
					"name": "ZeroChainId",
					"inputs": []
				}
			],
			"solcInputHash": "ecb9a2d5bf63b21013524697f08bc7f6",
			"receipt": {
				"blockHash": "0x443295ea7034c8adc92bfb8dc752da7937ecf584b7a8528921ec429d6f4a6d57",
				"blockNumber": 6098402,
				"contractAddress": null,
				"cumulativeGasUsed": "8562578",
				"from": "0xD70A2e6eACbdeDA77a5d4bBAE3bC70239A0e088f",
				"gasPrice": "48117079315",
				"gasUsed": "7960687",
				"hash": "0xda6698d1e651a63678b3c0411cbaed12daf373c578607d73a9f63bfdc4638ff5",
				"index": 12,
				"logs": [
					{
						"address": "0x7e16116661CA8d66C73612382833153911Fa03B1",
						"blockHash": "0x443295ea7034c8adc92bfb8dc752da7937ecf584b7a8528921ec429d6f4a6d57",
						"blockNumber": 6098402,
						"data": "0x0000000000000000000000000000000000000000000000000000000000000000",
						"index": 13,
						"topics": [
							"0x572f161235911da04685a68c06adf558fc7e4a36909dca394650e0adc19cc93d",
							"0x000000000000000000000000d70a2e6eacbdeda77a5d4bbae3bc70239a0e088f",
							"0x0000000000000000000000003d75d338b4711f8a33d293a2008f07a712513402",
							"0xda8b6771f6f50df74f565e1211198fc1fe1175c919c35afdf12a82883cd9af15"
						],
						"transactionHash": "0xda6698d1e651a63678b3c0411cbaed12daf373c578607d73a9f63bfdc4638ff5",
						"transactionIndex": 12
					},
					{
						"address": "0x249c29CEd765DA6dbf8e5c36cdCAa9a0429587FA",
						"blockHash": "0x443295ea7034c8adc92bfb8dc752da7937ecf584b7a8528921ec429d6f4a6d57",
						"blockNumber": 6098402,
						"data": "0x",
						"index": 14,
						"topics": [
							"0x8be0079c531659141344cd1fd0a4f28419497f9722a3daafe3b4186f6b6457e0",
							"0x0000000000000000000000000000000000000000000000000000000000000000",
							"0x0000000000000000000000004e59b44847b379578588920ca78fbf26c0b4956c"
						],
						"transactionHash": "0xda6698d1e651a63678b3c0411cbaed12daf373c578607d73a9f63bfdc4638ff5",
						"transactionIndex": 12
					},
					{
						"address": "0x040f331774Ed6BB161412B4cEDb1358B382aF3A5",
						"blockHash": "0x443295ea7034c8adc92bfb8dc752da7937ecf584b7a8528921ec429d6f4a6d57",
						"blockNumber": 6098402,
						"data": "0x",
						"index": 15,
						"topics": [
							"0x6895c13664aa4f67288b25d7a21d7aaa34916e355fb9b6fae0a139a9085becb8",
							"0x0000000000000000000000003d75d338b4711f8a33d293a2008f07a712513402"
						],
						"transactionHash": "0xda6698d1e651a63678b3c0411cbaed12daf373c578607d73a9f63bfdc4638ff5",
						"transactionIndex": 12
					},
					{
						"address": "0x3D75d338B4711F8a33d293a2008f07a712513402",
						"blockHash": "0x443295ea7034c8adc92bfb8dc752da7937ecf584b7a8528921ec429d6f4a6d57",
						"blockNumber": 6098402,
						"data": "0x0000000000000000000000000000000000000000000000000000000000000001",
						"index": 16,
						"topics": [
							"0xa65fb05c5808f5f389d72edeaf719ce38f4cc55c1f69ca3cbfb31c21501caa07",
							"0x56657e50ef8879c896a9869b7bf07a9da8d809fbbbe38ce4fe91227328768871"
						],
						"transactionHash": "0xda6698d1e651a63678b3c0411cbaed12daf373c578607d73a9f63bfdc4638ff5",
						"transactionIndex": 12
					},
					{
						"address": "0x99503F8A95dD259547900131E3d98F394B6BA88A",
						"blockHash": "0x443295ea7034c8adc92bfb8dc752da7937ecf584b7a8528921ec429d6f4a6d57",
						"blockNumber": 6098402,
						"data": "0x",
						"index": 17,
						"topics": [
							"0xbc7cd75a20ee27fd9adebab32041f755214dbc6bffa90cc0225b39da2e5c2d3b",
							"0x000000000000000000000000249c29ced765da6dbf8e5c36cdcaa9a0429587fa"
						],
						"transactionHash": "0xda6698d1e651a63678b3c0411cbaed12daf373c578607d73a9f63bfdc4638ff5",
						"transactionIndex": 12
					},
					{
						"address": "0x99503F8A95dD259547900131E3d98F394B6BA88A",
						"blockHash": "0x443295ea7034c8adc92bfb8dc752da7937ecf584b7a8528921ec429d6f4a6d57",
						"blockNumber": 6098402,
						"data": "0x",
						"index": 18,
						"topics": [
							"0x8be0079c531659141344cd1fd0a4f28419497f9722a3daafe3b4186f6b6457e0",
							"0x0000000000000000000000000000000000000000000000000000000000000000",
							"0x000000000000000000000000040f331774ed6bb161412b4cedb1358b382af3a5"
						],
						"transactionHash": "0xda6698d1e651a63678b3c0411cbaed12daf373c578607d73a9f63bfdc4638ff5",
						"transactionIndex": 12
					},
					{
						"address": "0x99503F8A95dD259547900131E3d98F394B6BA88A",
						"blockHash": "0x443295ea7034c8adc92bfb8dc752da7937ecf584b7a8528921ec429d6f4a6d57",
						"blockNumber": 6098402,
						"data": "0x0000000000000000000000000000000000000000000000000000000000000001",
						"index": 19,
						"topics": [
							"0x7f26b83ff96e1f2b6a682f133852f6798a09c465da95921460cefb3847402498"
						],
						"transactionHash": "0xda6698d1e651a63678b3c0411cbaed12daf373c578607d73a9f63bfdc4638ff5",
						"transactionIndex": 12
					},
					{
						"address": "0x040f331774Ed6BB161412B4cEDb1358B382aF3A5",
						"blockHash": "0x443295ea7034c8adc92bfb8dc752da7937ecf584b7a8528921ec429d6f4a6d57",
						"blockNumber": 6098402,
						"data": "0x",
						"index": 20,
						"topics": [
							"0x6895c13664aa4f67288b25d7a21d7aaa34916e355fb9b6fae0a139a9085becb8",
							"0x0000000000000000000000003d75d338b4711f8a33d293a2008f07a712513402"
						],
						"transactionHash": "0xda6698d1e651a63678b3c0411cbaed12daf373c578607d73a9f63bfdc4638ff5",
						"transactionIndex": 12
					},
					{
						"address": "0x3D75d338B4711F8a33d293a2008f07a712513402",
						"blockHash": "0x443295ea7034c8adc92bfb8dc752da7937ecf584b7a8528921ec429d6f4a6d57",
						"blockNumber": 6098402,
						"data": "0x0000000000000000000000000000000000000000000000000000000000000002",
						"index": 21,
						"topics": [
							"0xa65fb05c5808f5f389d72edeaf719ce38f4cc55c1f69ca3cbfb31c21501caa07",
							"0x56657e50ef8879c896a9869b7bf07a9da8d809fbbbe38ce4fe91227328768871"
						],
						"transactionHash": "0xda6698d1e651a63678b3c0411cbaed12daf373c578607d73a9f63bfdc4638ff5",
						"transactionIndex": 12
					},
					{
						"address": "0xab3172FB251B2047813Ea1940F2cFaA287B1a665",
						"blockHash": "0x443295ea7034c8adc92bfb8dc752da7937ecf584b7a8528921ec429d6f4a6d57",
						"blockNumber": 6098402,
						"data": "0x",
						"index": 22,
						"topics": [
							"0x8be0079c531659141344cd1fd0a4f28419497f9722a3daafe3b4186f6b6457e0",
							"0x0000000000000000000000000000000000000000000000000000000000000000",
							"0x0000000000000000000000004e59b44847b379578588920ca78fbf26c0b4956c"
						],
						"transactionHash": "0xda6698d1e651a63678b3c0411cbaed12daf373c578607d73a9f63bfdc4638ff5",
						"transactionIndex": 12
					},
					{
						"address": "0xab3172FB251B2047813Ea1940F2cFaA287B1a665",
						"blockHash": "0x443295ea7034c8adc92bfb8dc752da7937ecf584b7a8528921ec429d6f4a6d57",
						"blockNumber": 6098402,
						"data": "0x",
						"index": 23,
						"topics": [
							"0x8be0079c531659141344cd1fd0a4f28419497f9722a3daafe3b4186f6b6457e0",
							"0x0000000000000000000000004e59b44847b379578588920ca78fbf26c0b4956c",
							"0x000000000000000000000000040f331774ed6bb161412b4cedb1358b382af3a5"
						],
						"transactionHash": "0xda6698d1e651a63678b3c0411cbaed12daf373c578607d73a9f63bfdc4638ff5",
						"transactionIndex": 12
					},
					{
						"address": "0xab3172FB251B2047813Ea1940F2cFaA287B1a665",
						"blockHash": "0x443295ea7034c8adc92bfb8dc752da7937ecf584b7a8528921ec429d6f4a6d57",
						"blockNumber": 6098402,
						"data": "0x0000000000000000000000000000000000000000000000000000000000000001",
						"index": 24,
						"topics": [
							"0x46e8115bf463f9c29a9424fe152addef1bfaf2b43180d19bb7c2c78cc0ff1ebf"
						],
						"transactionHash": "0xda6698d1e651a63678b3c0411cbaed12daf373c578607d73a9f63bfdc4638ff5",
						"transactionIndex": 12
					},
					{
						"address": "0x040f331774Ed6BB161412B4cEDb1358B382aF3A5",
						"blockHash": "0x443295ea7034c8adc92bfb8dc752da7937ecf584b7a8528921ec429d6f4a6d57",
						"blockNumber": 6098402,
						"data": "0x",
						"index": 25,
						"topics": [
							"0x6895c13664aa4f67288b25d7a21d7aaa34916e355fb9b6fae0a139a9085becb8",
							"0x0000000000000000000000003d75d338b4711f8a33d293a2008f07a712513402"
						],
						"transactionHash": "0xda6698d1e651a63678b3c0411cbaed12daf373c578607d73a9f63bfdc4638ff5",
						"transactionIndex": 12
					},
					{
						"address": "0x3D75d338B4711F8a33d293a2008f07a712513402",
						"blockHash": "0x443295ea7034c8adc92bfb8dc752da7937ecf584b7a8528921ec429d6f4a6d57",
						"blockNumber": 6098402,
						"data": "0x0000000000000000000000000000000000000000000000000000000000000003",
						"index": 26,
						"topics": [
							"0xa65fb05c5808f5f389d72edeaf719ce38f4cc55c1f69ca3cbfb31c21501caa07",
							"0x56657e50ef8879c896a9869b7bf07a9da8d809fbbbe38ce4fe91227328768871"
						],
						"transactionHash": "0xda6698d1e651a63678b3c0411cbaed12daf373c578607d73a9f63bfdc4638ff5",
						"transactionIndex": 12
					},
					{
						"address": "0x040f331774Ed6BB161412B4cEDb1358B382aF3A5",
						"blockHash": "0x443295ea7034c8adc92bfb8dc752da7937ecf584b7a8528921ec429d6f4a6d57",
						"blockNumber": 6098402,
						"data": "0x",
						"index": 27,
						"topics": [
							"0x6895c13664aa4f67288b25d7a21d7aaa34916e355fb9b6fae0a139a9085becb8",
							"0x0000000000000000000000003d75d338b4711f8a33d293a2008f07a712513402"
						],
						"transactionHash": "0xda6698d1e651a63678b3c0411cbaed12daf373c578607d73a9f63bfdc4638ff5",
						"transactionIndex": 12
					},
					{
						"address": "0x3D75d338B4711F8a33d293a2008f07a712513402",
						"blockHash": "0x443295ea7034c8adc92bfb8dc752da7937ecf584b7a8528921ec429d6f4a6d57",
						"blockNumber": 6098402,
						"data": "0x0000000000000000000000000000000000000000000000000000000000000004",
						"index": 28,
						"topics": [
							"0xa65fb05c5808f5f389d72edeaf719ce38f4cc55c1f69ca3cbfb31c21501caa07",
							"0x56657e50ef8879c896a9869b7bf07a9da8d809fbbbe38ce4fe91227328768871"
						],
						"transactionHash": "0xda6698d1e651a63678b3c0411cbaed12daf373c578607d73a9f63bfdc4638ff5",
						"transactionIndex": 12
					},
					{
						"address": "0xC5687DcC8B3bB11067Ee3FC8C2a749ebDd95F8e6",
						"blockHash": "0x443295ea7034c8adc92bfb8dc752da7937ecf584b7a8528921ec429d6f4a6d57",
						"blockNumber": 6098402,
						"data": "0x",
						"index": 29,
						"topics": [
							"0x8be0079c531659141344cd1fd0a4f28419497f9722a3daafe3b4186f6b6457e0",
							"0x0000000000000000000000000000000000000000000000000000000000000000",
							"0x0000000000000000000000006096a4141f30100e03e9117753a3adf6b0d4bed5"
						],
						"transactionHash": "0xda6698d1e651a63678b3c0411cbaed12daf373c578607d73a9f63bfdc4638ff5",
						"transactionIndex": 12
					},
					{
						"address": "0xC5687DcC8B3bB11067Ee3FC8C2a749ebDd95F8e6",
						"blockHash": "0x443295ea7034c8adc92bfb8dc752da7937ecf584b7a8528921ec429d6f4a6d57",
						"blockNumber": 6098402,
						"data": "0x",
						"index": 30,
						"topics": [
							"0x8be0079c531659141344cd1fd0a4f28419497f9722a3daafe3b4186f6b6457e0",
							"0x0000000000000000000000006096a4141f30100e03e9117753a3adf6b0d4bed5",
							"0x000000000000000000000000040f331774ed6bb161412b4cedb1358b382af3a5"
						],
						"transactionHash": "0xda6698d1e651a63678b3c0411cbaed12daf373c578607d73a9f63bfdc4638ff5",
						"transactionIndex": 12
					},
					{
						"address": "0x040f331774Ed6BB161412B4cEDb1358B382aF3A5",
						"blockHash": "0x443295ea7034c8adc92bfb8dc752da7937ecf584b7a8528921ec429d6f4a6d57",
						"blockNumber": 6098402,
						"data": "0x",
						"index": 31,
						"topics": [
							"0x6895c13664aa4f67288b25d7a21d7aaa34916e355fb9b6fae0a139a9085becb8",
							"0x0000000000000000000000003d75d338b4711f8a33d293a2008f07a712513402"
						],
						"transactionHash": "0xda6698d1e651a63678b3c0411cbaed12daf373c578607d73a9f63bfdc4638ff5",
						"transactionIndex": 12
					},
					{
						"address": "0x3D75d338B4711F8a33d293a2008f07a712513402",
						"blockHash": "0x443295ea7034c8adc92bfb8dc752da7937ecf584b7a8528921ec429d6f4a6d57",
						"blockNumber": 6098402,
						"data": "0x0000000000000000000000000000000000000000000000000000000000000005",
						"index": 32,
						"topics": [
							"0xa65fb05c5808f5f389d72edeaf719ce38f4cc55c1f69ca3cbfb31c21501caa07",
							"0x56657e50ef8879c896a9869b7bf07a9da8d809fbbbe38ce4fe91227328768871"
						],
						"transactionHash": "0xda6698d1e651a63678b3c0411cbaed12daf373c578607d73a9f63bfdc4638ff5",
						"transactionIndex": 12
					},
					{
						"address": "0x040f331774Ed6BB161412B4cEDb1358B382aF3A5",
						"blockHash": "0x443295ea7034c8adc92bfb8dc752da7937ecf584b7a8528921ec429d6f4a6d57",
						"blockNumber": 6098402,
						"data": "0x",
						"index": 33,
						"topics": [
							"0x6895c13664aa4f67288b25d7a21d7aaa34916e355fb9b6fae0a139a9085becb8",
							"0x0000000000000000000000003d75d338b4711f8a33d293a2008f07a712513402"
						],
						"transactionHash": "0xda6698d1e651a63678b3c0411cbaed12daf373c578607d73a9f63bfdc4638ff5",
						"transactionIndex": 12
					},
					{
						"address": "0x3D75d338B4711F8a33d293a2008f07a712513402",
						"blockHash": "0x443295ea7034c8adc92bfb8dc752da7937ecf584b7a8528921ec429d6f4a6d57",
						"blockNumber": 6098402,
						"data": "0x0000000000000000000000000000000000000000000000000000000000000006",
						"index": 34,
						"topics": [
							"0xa65fb05c5808f5f389d72edeaf719ce38f4cc55c1f69ca3cbfb31c21501caa07",
							"0x56657e50ef8879c896a9869b7bf07a9da8d809fbbbe38ce4fe91227328768871"
						],
						"transactionHash": "0xda6698d1e651a63678b3c0411cbaed12daf373c578607d73a9f63bfdc4638ff5",
						"transactionIndex": 12
					},
					{
						"address": "0x3D75d338B4711F8a33d293a2008f07a712513402",
						"blockHash": "0x443295ea7034c8adc92bfb8dc752da7937ecf584b7a8528921ec429d6f4a6d57",
						"blockNumber": 6098402,
						"data": "0x",
						"index": 35,
						"topics": [
							"0x4383d976757d67ca920616be0b6430a681ea9d3dcce8d6d61d4603ca4a9bff63",
							"0x56657e50ef8879c896a9869b7bf07a9da8d809fbbbe38ce4fe91227328768871"
						],
						"transactionHash": "0xda6698d1e651a63678b3c0411cbaed12daf373c578607d73a9f63bfdc4638ff5",
						"transactionIndex": 12
					}
				],
				"logsBloom": "0x0000000000001000000000000008000040000010012000000080000020000000000000000000000000000000004200000014000000000020000000000000000000000000000020000400100000000200000100000000000000108040000800000000400042000000200000000000080400000000000000000000000000000040000000010000000000810000000000800000000000108000000000000002000c0041108000010000020000000016000002000000000000000000000010040000000000210000000080002000000400000000000000000008008001000000200001000000000020080000000008000102c0000000000000000000000008100200",
				"status": 1,
				"to": "0x7e16116661CA8d66C73612382833153911Fa03B1"
			},
			"metadata": "{\"compiler\":{\"version\":\"0.8.17+commit.8df45f5f\"},\"language\":\"Solidity\",\"output\":{\"abi\":[{\"inputs\":[],\"stateMutability\":\"nonpayable\",\"type\":\"constructor\"},{\"inputs\":[],\"type\":\"error\",\"name\":\"AlreadySetup\"},{\"inputs\":[{\"internalType\":\"bytes\",\"name\":\"reason\",\"type\":\"bytes\"}],\"type\":\"error\",\"name\":\"SendEtherFailed\"},{\"inputs\":[],\"type\":\"error\",\"name\":\"ZeroChainId\"},{\"inputs\":[{\"internalType\":\"address\",\"name\":\"target\",\"type\":\"address\",\"indexed\":false},{\"internalType\":\"uint256\",\"name\":\"value\",\"type\":\"uint256\",\"indexed\":false},{\"internalType\":\"bytes\",\"name\":\"data\",\"type\":\"bytes\",\"indexed\":false},{\"internalType\":\"enum Operation\",\"name\":\"operation\",\"type\":\"uint8\",\"indexed\":false},{\"internalType\":\"bool\",\"name\":\"result\",\"type\":\"bool\",\"indexed\":false}],\"type\":\"event\",\"name\":\"ModuleTransactionExecuted\",\"anonymous\":false},{\"inputs\":[{\"internalType\":\"address\",\"name\":\"port\",\"type\":\"address\",\"indexed\":false}],\"type\":\"event\",\"name\":\"SetPort\",\"anonymous\":false},{\"inputs\":[{\"internalType\":\"address\",\"name\":\"port_\",\"type\":\"address\"}],\"stateMutability\":\"view\",\"type\":\"function\",\"name\":\"checkPort\",\"outputs\":[{\"internalType\":\"bool\",\"name\":\"\",\"type\":\"bool\"}]},{\"inputs\":[],\"stateMutability\":\"view\",\"type\":\"function\",\"name\":\"childXAccount\",\"outputs\":[{\"internalType\":\"address\",\"name\":\"\",\"type\":\"address\"}]},{\"inputs\":[],\"stateMutability\":\"view\",\"type\":\"function\",\"name\":\"port\",\"outputs\":[{\"internalType\":\"address\",\"name\":\"\",\"type\":\"address\"}]},{\"inputs\":[],\"stateMutability\":\"view\",\"type\":\"function\",\"name\":\"rootChainid\",\"outputs\":[{\"internalType\":\"uint256\",\"name\":\"\",\"type\":\"uint256\"}]},{\"inputs\":[],\"stateMutability\":\"view\",\"type\":\"function\",\"name\":\"rootOwner\",\"outputs\":[{\"internalType\":\"address\",\"name\":\"\",\"type\":\"address\"}]},{\"inputs\":[{\"internalType\":\"address\",\"name\":\"port_\",\"type\":\"address\"}],\"stateMutability\":\"nonpayable\",\"type\":\"function\",\"name\":\"setPort\"},{\"inputs\":[{\"internalType\":\"address\",\"name\":\"xAccount\",\"type\":\"address\"},{\"internalType\":\"uint256\",\"name\":\"chainId\",\"type\":\"uint256\"},{\"internalType\":\"address\",\"name\":\"owner\",\"type\":\"address\"},{\"internalType\":\"address\",\"name\":\"port_\",\"type\":\"address\"}],\"stateMutability\":\"nonpayable\",\"type\":\"function\",\"name\":\"setup\"},{\"inputs\":[{\"internalType\":\"address\",\"name\":\"target\",\"type\":\"address\"},{\"internalType\":\"uint256\",\"name\":\"value\",\"type\":\"uint256\"},{\"internalType\":\"bytes\",\"name\":\"data\",\"type\":\"bytes\"},{\"internalType\":\"enum Operation\",\"name\":\"operation\",\"type\":\"uint8\"}],\"stateMutability\":\"payable\",\"type\":\"function\",\"name\":\"xExecute\",\"outputs\":[{\"internalType\":\"bytes\",\"name\":\"\",\"type\":\"bytes\"}]},{\"inputs\":[],\"stateMutability\":\"view\",\"type\":\"function\",\"name\":\"xOwner\",\"outputs\":[{\"internalType\":\"uint256\",\"name\":\"\",\"type\":\"uint256\"},{\"internalType\":\"address\",\"name\":\"\",\"type\":\"address\"}]}],\"devdoc\":{\"kind\":\"dev\",\"methods\":{\"checkPort(address)\":{\"details\":\"Check that the xCall originates from the port.\",\"returns\":{\"_0\":\"Check result.\"}},\"setPort(address)\":{\"details\":\"Set port.\",\"params\":{\"port_\":\"New port.\"}},\"xExecute(address,uint256,bytes,uint8)\":{\"details\":\"Receive xCall from root chain xOwner.\",\"params\":{\"data\":\"Data of the transaction that should be executed\",\"operation\":\"Operation (Call or Delegatecall) of the transaction that should be executed\",\"target\":\"Target of the transaction that should be executed\",\"value\":\"Wei value of the transaction that should be executed\"},\"returns\":{\"_0\":\"xExecute return data Return data after xCall.\"}},\"xOwner()\":{\"details\":\"Fetch the xAccount xOwner.\",\"returns\":{\"_0\":\"(chainId, owner)   - chainId Chain id that xAccount belongs in.   - owner Owner that xAccount belongs to.\"}}},\"version\":1},\"userdoc\":{\"kind\":\"user\",\"methods\":{},\"version\":1}},\"settings\":{\"remappings\":[\"@darwinia-msgport/=lib/darwinia-msgport/\",\"@openzeppelin/contracts/=lib/openzeppelin-contracts/contracts/\",\"@openzeppelin/contracts@4.9.2/=lib/openzeppelin-contracts/contracts/\",\"@safe-smart-account/=lib/subapi/lib/safe-smart-account/contracts/\",\"@sphinx-labs/contracts/=lib/sphinx/packages/contracts/contracts/foundry/\",\"ORMP/=lib/ORMP/\",\"create3-deploy/=lib/create3-deploy/\",\"forge-std/=lib/forge-std/src/\",\"solmate/=lib/darwinia-msgport/lib/solmate/src/\",\"subapi/=lib/subapi/\"],\"optimizer\":{\"enabled\":true,\"runs\":999999},\"metadata\":{\"bytecodeHash\":\"ipfs\"},\"compilationTarget\":{\"lib/darwinia-msgport/src/xAccount/SafeMsgportModule.sol\":\"SafeMsgportModule\"},\"evmVersion\":\"london\",\"libraries\":{}},\"sources\":{\"lib/darwinia-msgport/src/interfaces/IPortRegistry.sol\":{\"keccak256\":\"0x622199d781cc0c7c60d92380df5b6044b4a80f5d1f05d820827f427360ea2632\",\"urls\":[\"bzz-raw://0734abfeaa3a957b459f6cdfd7bfa60832cee79d5900ef6005710a8ebfe16ae1\",\"dweb:/ipfs/QmfQDM3JMi1fVgUZxqvg43RrYNqSvTfJjGiu8uuPXeg8wq\"],\"license\":\"MIT\"},\"lib/darwinia-msgport/src/interfaces/ISafe.sol\":{\"keccak256\":\"0x8d5f03aa51e983d7761e8c71968616680a9c74b63ff72735f50fff3747003875\",\"urls\":[\"bzz-raw://50b0d7ae7f43a3b4f667b84a8fa5636d2871f64260359dc5247345e7afc09fa0\",\"dweb:/ipfs/QmZd6nVjScfz1Sph2FBm3iu3CAdzkP3dcPK3tgUYYHWqh3\"],\"license\":\"MIT\"},\"lib/darwinia-msgport/src/user/Application.sol\":{\"keccak256\":\"0xd32f4beb2d2af7fdc1646c099dbe6f705a36788611ef789a4afc76c688f5b3e3\",\"urls\":[\"bzz-raw://04d94e7593e70a74bc15b6d7bc31560b85411c4c21b4589f4d67933a1596c67f\",\"dweb:/ipfs/QmSE5VgjQxdHKZEiCK77pruGjcxvSPjw62CNvQkXWV37bc\"],\"license\":\"MIT\"},\"lib/darwinia-msgport/src/user/xAuth.sol\":{\"keccak256\":\"0xb7b02758753281ef01d1c23dbe9bbff821f42f15285fd257b7dde68ba1d60834\",\"urls\":[\"bzz-raw://1904319bbafa9db957e85a6acffcf81a6ebd6a76ae4aa1133967447f5255f056\",\"dweb:/ipfs/QmP32HdJ9j4d4fVdkUAmRwwFKRo4CfwXFPwheUzF7gqsdu\"],\"license\":\"MIT\"},\"lib/darwinia-msgport/src/xAccount/SafeMsgportModule.sol\":{\"keccak256\":\"0xb0f1d7e2914111ad6f47d6d881ffd81de65aabb2ea0941ee513208163ab1a85e\",\"urls\":[\"bzz-raw://39e161ada5eb07be1a626956d14c19c2490e63521da7fd7914ba14f7d1ac4767\",\"dweb:/ipfs/QmQHins8mmU9LQ4aXsbAEU55N6jYMAYnQMXo17jy9pLcHr\"],\"license\":\"MIT\"}},\"version\":1}",
			"args": [],
			"bytecode": "0x608060405234801561001057600080fd5b506001600255610d3b806100256000396000f3fe6080604052600436106100955760003560e01c80633bc4d8d21161006957806386859c101161004e57806386859c10146101c1578063f05b59f9146101e1578063fa33525a1461020e57600080fd5b80633bc4d8d21461017f5780635fa9b403146101a157600080fd5b8062ee220c1461009a5780631c7011a4146100f1578063269f55f11461012e57806326b3c68b14610152575b600080fd5b3480156100a657600080fd5b506003546100c79073ffffffffffffffffffffffffffffffffffffffff1681565b60405173ffffffffffffffffffffffffffffffffffffffff90911681526020015b60405180910390f35b3480156100fd57600080fd5b506002546003546040805192835273ffffffffffffffffffffffffffffffffffffffff9091166020830152016100e8565b34801561013a57600080fd5b5061014460025481565b6040519081526020016100e8565b34801561015e57600080fd5b506000546100c79073ffffffffffffffffffffffffffffffffffffffff1681565b34801561018b57600080fd5b5061019f61019a36600461093b565b61025a565b005b6101b46101af366004610988565b61036c565b6040516100e89190610a52565b3480156101cd57600080fd5b5061019f6101dc366004610aa3565b610541565b3480156101ed57600080fd5b506001546100c79073ffffffffffffffffffffffffffffffffffffffff1681565b34801561021a57600080fd5b5061024a610229366004610aa3565b60005473ffffffffffffffffffffffffffffffffffffffff90811691161490565b60405190151581526020016100e8565b60025415610294576040517f7735869100000000000000000000000000000000000000000000000000000000815260040160405180910390fd5b826000036102ce576040517fc84885d400000000000000000000000000000000000000000000000000000000815260040160405180910390fd5b6000805473ffffffffffffffffffffffffffffffffffffffff8381167fffffffffffffffffffffffff0000000000000000000000000000000000000000928316811790935560018054888316908416179055600286905560038054918616919092161790556040519081527f5c5fe92c97ab09c6ef83ea517667eb827971df557c1777693a90c37c15039e6b9060200160405180910390a150505050565b60606103766105c2565b341561042957600154604051600091829173ffffffffffffffffffffffffffffffffffffffff9091169034908381818185875af1925050503d80600081146103da576040519150601f19603f3d011682016040523d82523d6000602084013e6103df565b606091505b50915091508161042657806040517fbb6d59cd00000000000000000000000000000000000000000000000000000000815260040161041d9190610a52565b60405180910390fd5b50505b6001546040517f5229073f000000000000000000000000000000000000000000000000000000008152600091829173ffffffffffffffffffffffffffffffffffffffff90911690635229073f9061048c908b908b908b908b908b90600401610b49565b6000604051808303816000875af11580156104ab573d6000803e3d6000fd5b505050506040513d6000823e601f3d9081017fffffffffffffffffffffffffffffffffffffffffffffffffffffffffffffffe01682016040526104f19190810190610bc7565b915091507f6554ac2614365205b1687b5382ea150204e1897626fa9396c93712070d2ab2b488888888888760405161052e96959493929190610cad565b60405180910390a1979650505050505050565b6105496105c2565b600080547fffffffffffffffffffffffff00000000000000000000000000000000000000001673ffffffffffffffffffffffffffffffffffffffff83169081179091556040519081527f5c5fe92c97ab09c6ef83ea517667eb827971df557c1777693a90c37c15039e6b9060200160405180910390a150565b3360006105cd6107e5565b6002546003549192509073ffffffffffffffffffffffffffffffffffffffff16468303610656576040517f08c379a000000000000000000000000000000000000000000000000000000000815260206004820152600c60248201527f2166726f6d436861696e49640000000000000000000000000000000000000000604482015260640161041d565b60005473ffffffffffffffffffffffffffffffffffffffff8086169116146106da576040517f08c379a000000000000000000000000000000000000000000000000000000000815260206004820152600860248201527f2174727573746564000000000000000000000000000000000000000000000000604482015260640161041d565b818314610743576040517f08c379a000000000000000000000000000000000000000000000000000000000815260206004820152600f60248201527f21784f776e65722e636861696e49640000000000000000000000000000000000604482015260640161041d565b8073ffffffffffffffffffffffffffffffffffffffff1661076261087a565b73ffffffffffffffffffffffffffffffffffffffff16146107df576040517f08c379a000000000000000000000000000000000000000000000000000000000815260206004820152600d60248201527f21784f776e65722e6f776e657200000000000000000000000000000000000000604482015260640161041d565b50505050565b60006034361015610852576040517f08c379a000000000000000000000000000000000000000000000000000000000815260206004820152600c60248201527f2166726f6d436861696e49640000000000000000000000000000000000000000604482015260640161041d565b507fffffffffffffffffffffffffffffffffffffffffffffffffffffffffffffffcc36013590565b600060143610156108e7576040517f08c379a000000000000000000000000000000000000000000000000000000000815260206004820152600960248201527f2166726f6d446170700000000000000000000000000000000000000000000000604482015260640161041d565b507fffffffffffffffffffffffffffffffffffffffffffffffffffffffffffffffec36013560601c90565b803573ffffffffffffffffffffffffffffffffffffffff8116811461093657600080fd5b919050565b6000806000806080858703121561095157600080fd5b61095a85610912565b93506020850135925061096f60408601610912565b915061097d60608601610912565b905092959194509250565b6000806000806000608086880312156109a057600080fd5b6109a986610912565b945060208601359350604086013567ffffffffffffffff808211156109cd57600080fd5b818801915088601f8301126109e157600080fd5b8135818111156109f057600080fd5b896020828501011115610a0257600080fd5b602083019550809450505050606086013560028110610a2057600080fd5b809150509295509295909350565b60005b83811015610a49578181015183820152602001610a31565b50506000910152565b6020815260008251806020840152610a71816040850160208701610a2e565b601f017fffffffffffffffffffffffffffffffffffffffffffffffffffffffffffffffe0169190910160400192915050565b600060208284031215610ab557600080fd5b610abe82610912565b9392505050565b8183528181602085013750600060208284010152600060207fffffffffffffffffffffffffffffffffffffffffffffffffffffffffffffffe0601f840116840101905092915050565b60028110610b45577f4e487b7100000000000000000000000000000000000000000000000000000000600052602160045260246000fd5b9052565b73ffffffffffffffffffffffffffffffffffffffff86168152846020820152608060408201526000610b7f608083018587610ac5565b9050610b8e6060830184610b0e565b9695505050505050565b7f4e487b7100000000000000000000000000000000000000000000000000000000600052604160045260246000fd5b60008060408385031215610bda57600080fd5b82518015158114610bea57600080fd5b602084015190925067ffffffffffffffff80821115610c0857600080fd5b818501915085601f830112610c1c57600080fd5b815181811115610c2e57610c2e610b98565b604051601f82017fffffffffffffffffffffffffffffffffffffffffffffffffffffffffffffffe0908116603f01168101908382118183101715610c7457610c74610b98565b81604052828152886020848701011115610c8d57600080fd5b610c9e836020830160208801610a2e565b80955050505050509250929050565b73ffffffffffffffffffffffffffffffffffffffff8716815285602082015260a060408201526000610ce360a083018688610ac5565b9050610cf26060830185610b0e565b821515608083015297965050505050505056fea2646970667358221220739f6026479fb147ab630072d3407698482f1e4189673d1e86517b4ed73479d664736f6c63430008110033",
			"deployedBytecode": "0x6080604052600436106100955760003560e01c80633bc4d8d21161006957806386859c101161004e57806386859c10146101c1578063f05b59f9146101e1578063fa33525a1461020e57600080fd5b80633bc4d8d21461017f5780635fa9b403146101a157600080fd5b8062ee220c1461009a5780631c7011a4146100f1578063269f55f11461012e57806326b3c68b14610152575b600080fd5b3480156100a657600080fd5b506003546100c79073ffffffffffffffffffffffffffffffffffffffff1681565b60405173ffffffffffffffffffffffffffffffffffffffff90911681526020015b60405180910390f35b3480156100fd57600080fd5b506002546003546040805192835273ffffffffffffffffffffffffffffffffffffffff9091166020830152016100e8565b34801561013a57600080fd5b5061014460025481565b6040519081526020016100e8565b34801561015e57600080fd5b506000546100c79073ffffffffffffffffffffffffffffffffffffffff1681565b34801561018b57600080fd5b5061019f61019a36600461093b565b61025a565b005b6101b46101af366004610988565b61036c565b6040516100e89190610a52565b3480156101cd57600080fd5b5061019f6101dc366004610aa3565b610541565b3480156101ed57600080fd5b506001546100c79073ffffffffffffffffffffffffffffffffffffffff1681565b34801561021a57600080fd5b5061024a610229366004610aa3565b60005473ffffffffffffffffffffffffffffffffffffffff90811691161490565b60405190151581526020016100e8565b60025415610294576040517f7735869100000000000000000000000000000000000000000000000000000000815260040160405180910390fd5b826000036102ce576040517fc84885d400000000000000000000000000000000000000000000000000000000815260040160405180910390fd5b6000805473ffffffffffffffffffffffffffffffffffffffff8381167fffffffffffffffffffffffff0000000000000000000000000000000000000000928316811790935560018054888316908416179055600286905560038054918616919092161790556040519081527f5c5fe92c97ab09c6ef83ea517667eb827971df557c1777693a90c37c15039e6b9060200160405180910390a150505050565b60606103766105c2565b341561042957600154604051600091829173ffffffffffffffffffffffffffffffffffffffff9091169034908381818185875af1925050503d80600081146103da576040519150601f19603f3d011682016040523d82523d6000602084013e6103df565b606091505b50915091508161042657806040517fbb6d59cd00000000000000000000000000000000000000000000000000000000815260040161041d9190610a52565b60405180910390fd5b50505b6001546040517f5229073f000000000000000000000000000000000000000000000000000000008152600091829173ffffffffffffffffffffffffffffffffffffffff90911690635229073f9061048c908b908b908b908b908b90600401610b49565b6000604051808303816000875af11580156104ab573d6000803e3d6000fd5b505050506040513d6000823e601f3d9081017fffffffffffffffffffffffffffffffffffffffffffffffffffffffffffffffe01682016040526104f19190810190610bc7565b915091507f6554ac2614365205b1687b5382ea150204e1897626fa9396c93712070d2ab2b488888888888760405161052e96959493929190610cad565b60405180910390a1979650505050505050565b6105496105c2565b600080547fffffffffffffffffffffffff00000000000000000000000000000000000000001673ffffffffffffffffffffffffffffffffffffffff83169081179091556040519081527f5c5fe92c97ab09c6ef83ea517667eb827971df557c1777693a90c37c15039e6b9060200160405180910390a150565b3360006105cd6107e5565b6002546003549192509073ffffffffffffffffffffffffffffffffffffffff16468303610656576040517f08c379a000000000000000000000000000000000000000000000000000000000815260206004820152600c60248201527f2166726f6d436861696e49640000000000000000000000000000000000000000604482015260640161041d565b60005473ffffffffffffffffffffffffffffffffffffffff8086169116146106da576040517f08c379a000000000000000000000000000000000000000000000000000000000815260206004820152600860248201527f2174727573746564000000000000000000000000000000000000000000000000604482015260640161041d565b818314610743576040517f08c379a000000000000000000000000000000000000000000000000000000000815260206004820152600f60248201527f21784f776e65722e636861696e49640000000000000000000000000000000000604482015260640161041d565b8073ffffffffffffffffffffffffffffffffffffffff1661076261087a565b73ffffffffffffffffffffffffffffffffffffffff16146107df576040517f08c379a000000000000000000000000000000000000000000000000000000000815260206004820152600d60248201527f21784f776e65722e6f776e657200000000000000000000000000000000000000604482015260640161041d565b50505050565b60006034361015610852576040517f08c379a000000000000000000000000000000000000000000000000000000000815260206004820152600c60248201527f2166726f6d436861696e49640000000000000000000000000000000000000000604482015260640161041d565b507fffffffffffffffffffffffffffffffffffffffffffffffffffffffffffffffcc36013590565b600060143610156108e7576040517f08c379a000000000000000000000000000000000000000000000000000000000815260206004820152600960248201527f2166726f6d446170700000000000000000000000000000000000000000000000604482015260640161041d565b507fffffffffffffffffffffffffffffffffffffffffffffffffffffffffffffffec36013560601c90565b803573ffffffffffffffffffffffffffffffffffffffff8116811461093657600080fd5b919050565b6000806000806080858703121561095157600080fd5b61095a85610912565b93506020850135925061096f60408601610912565b915061097d60608601610912565b905092959194509250565b6000806000806000608086880312156109a057600080fd5b6109a986610912565b945060208601359350604086013567ffffffffffffffff808211156109cd57600080fd5b818801915088601f8301126109e157600080fd5b8135818111156109f057600080fd5b896020828501011115610a0257600080fd5b602083019550809450505050606086013560028110610a2057600080fd5b809150509295509295909350565b60005b83811015610a49578181015183820152602001610a31565b50506000910152565b6020815260008251806020840152610a71816040850160208701610a2e565b601f017fffffffffffffffffffffffffffffffffffffffffffffffffffffffffffffffe0169190910160400192915050565b600060208284031215610ab557600080fd5b610abe82610912565b9392505050565b8183528181602085013750600060208284010152600060207fffffffffffffffffffffffffffffffffffffffffffffffffffffffffffffffe0601f840116840101905092915050565b60028110610b45577f4e487b7100000000000000000000000000000000000000000000000000000000600052602160045260246000fd5b9052565b73ffffffffffffffffffffffffffffffffffffffff86168152846020820152608060408201526000610b7f608083018587610ac5565b9050610b8e6060830184610b0e565b9695505050505050565b7f4e487b7100000000000000000000000000000000000000000000000000000000600052604160045260246000fd5b60008060408385031215610bda57600080fd5b82518015158114610bea57600080fd5b602084015190925067ffffffffffffffff80821115610c0857600080fd5b818501915085601f830112610c1c57600080fd5b815181811115610c2e57610c2e610b98565b604051601f82017fffffffffffffffffffffffffffffffffffffffffffffffffffffffffffffffe0908116603f01168101908382118183101715610c7457610c74610b98565b81604052828152886020848701011115610c8d57600080fd5b610c9e836020830160208801610a2e565b80955050505050509250929050565b73ffffffffffffffffffffffffffffffffffffffff8716815285602082015260a060408201526000610ce360a083018688610ac5565b9050610cf26060830185610b0e565b821515608083015297965050505050505056fea2646970667358221220739f6026479fb147ab630072d3407698482f1e4189673d1e86517b4ed73479d664736f6c63430008110033",
			"devdoc": {
				"kind": "dev",
				"methods": {
					"checkPort(address)": {
						"details": "Check that the xCall originates from the port.",
						"returns": {
							"_0": "Check result."
						}
					},
					"setPort(address)": {
						"details": "Set port.",
						"params": {
							"port_": "New port."
						}
					},
					"xExecute(address,uint256,bytes,uint8)": {
						"details": "Receive xCall from root chain xOwner.",
						"params": {
							"data": "Data of the transaction that should be executed",
							"operation": "Operation (Call or Delegatecall) of the transaction that should be executed",
							"target": "Target of the transaction that should be executed",
							"value": "Wei value of the transaction that should be executed"
						},
						"returns": {
							"_0": "xExecute return data Return data after xCall."
						}
					},
					"xOwner()": {
						"details": "Fetch the xAccount xOwner.",
						"returns": {
							"_0": "(chainId, owner)   - chainId Chain id that xAccount belongs in.   - owner Owner that xAccount belongs to."
						}
					}
				},
				"version": 1
			},
			"userdoc": {
				"kind": "user",
				"methods": {},
				"version": 1
			},
			"gitCommit": "f0193126eda4e034175619438fc55d4e32448dd8",
			"sourceName": "lib/darwinia-msgport/src/xAccount/SafeMsgportModule.sol",
			"chainId": "11155111",
			"linkReferences": {},
			"deployedLinkReferences": {}
		}
	]
}