{
	"_format": "sphinx-sol-ct-artifact-1",
	"merkleRoot": "0x9bec40e16cc71207a555bc2b3a83072c7d5772466ae47cc9d4bccdef1d075001",
	"contractName": "XAccountUIFactory",
	"address": "0x36379F9645676E11017022518845E6b131377230",
	"abi": [
		{
			"type": "constructor",
			"inputs": [
				{
					"name": "factory",
					"type": "address",
					"internalType": "address"
				}
			],
			"stateMutability": "nonpayable"
		},
		{
			"type": "function",
			"name": "FACTORY",
			"inputs": [],
			"outputs": [
				{
					"name": "",
					"type": "address",
					"internalType": "contract IXAccountFactory"
				}
			],
			"stateMutability": "view"
		},
		{
			"type": "function",
			"name": "create",
			"inputs": [
				{
					"name": "fromChainId",
					"type": "uint256",
					"internalType": "uint256"
				},
				{
					"name": "owner",
					"type": "address",
					"internalType": "address"
				},
				{
					"name": "port",
					"type": "address",
					"internalType": "address"
				},
				{
					"name": "recovery",
					"type": "address",
					"internalType": "address"
				}
			],
			"outputs": [
				{
					"name": "xAccount",
					"type": "address",
					"internalType": "address"
				},
				{
					"name": "module",
					"type": "address",
					"internalType": "address"
				}
			],
			"stateMutability": "nonpayable"
		},
		{
			"type": "function",
			"name": "deployers",
			"inputs": [
				{
					"name": "",
					"type": "uint256",
					"internalType": "uint256"
				},
				{
					"name": "",
					"type": "address",
					"internalType": "address"
				},
				{
					"name": "",
					"type": "address",
					"internalType": "address"
				}
			],
			"outputs": [
				{
					"name": "",
					"type": "address",
					"internalType": "address"
				}
			],
			"stateMutability": "view"
		},
		{
			"type": "function",
			"name": "getDeployed",
			"inputs": [
				{
					"name": "fromChainId",
					"type": "uint256",
					"internalType": "uint256"
				},
				{
					"name": "owner",
					"type": "address",
					"internalType": "address"
				}
			],
			"outputs": [
				{
					"name": "",
					"type": "address[]",
					"internalType": "address[]"
				},
				{
					"name": "",
					"type": "address[]",
					"internalType": "address[]"
				}
			],
			"stateMutability": "view"
		},
		{
			"type": "function",
			"name": "xAccountOf",
			"inputs": [
				{
					"name": "deployer",
					"type": "address",
					"internalType": "address"
				},
				{
					"name": "fromChainId",
					"type": "uint256",
					"internalType": "uint256"
				},
				{
					"name": "owner",
					"type": "address",
					"internalType": "address"
				}
			],
			"outputs": [
				{
					"name": "",
					"type": "address",
					"internalType": "address"
				},
				{
					"name": "",
					"type": "address",
					"internalType": "address"
				}
			],
			"stateMutability": "view"
		}
	],
	"solcInputHash": "96b21b741b6b3a3c7593b87f841db985",
	"args": [
		"0x52CC674e99387B8E0D2525F8a93198726063051E"
	],
	"bytecode": "0x60a060405234801561001057600080fd5b506040516109b73803806109b783398101604081905261002f91610040565b6001600160a01b0316608052610070565b60006020828403121561005257600080fd5b81516001600160a01b038116811461006957600080fd5b9392505050565b60805161091e6100996000396000818161012201528181610241015261040b015261091e6000f3fe608060405234801561001057600080fd5b50600436106100675760003560e01c80632dd31000116100505780632dd310001461011d578063517cf08614610144578063c125bdd71461016557600080fd5b806304a338b71461006c578063103732c9146100dd575b600080fd5b6100b361007a36600461073e565b600260209081526000938452604080852082529284528284209052825290205473ffffffffffffffffffffffffffffffffffffffff1681565b60405173ffffffffffffffffffffffffffffffffffffffff90911681526020015b60405180910390f35b6100f06100eb366004610780565b610178565b6040805173ffffffffffffffffffffffffffffffffffffffff9384168152929091166020830152016100d4565b6100b37f000000000000000000000000000000000000000000000000000000000000000081565b6101576101523660046107b7565b6102b8565b6040516100d4929190610838565b6100f0610173366004610866565b610336565b6040517fffffffffffffffffffffffffffffffffffffffff000000000000000000000000606085901b16602082015260009081908190603401604080518083037fffffffffffffffffffffffffffffffffffffffffffffffffffffffffffffffe00181529082905280516020909101207f3a0f253a000000000000000000000000000000000000000000000000000000008252306004830152602482018190526044820187905273ffffffffffffffffffffffffffffffffffffffff86811660648401529092507f00000000000000000000000000000000000000000000000000000000000000001690633a0f253a906084016040805180830381865afa158015610287573d6000803e3d6000fd5b505050506040513d601f19601f820116820180604052508101906102ab91906108b9565b9250925050935093915050565b60008281526020818152604080832073ffffffffffffffffffffffffffffffffffffffff85168452909152902060609081906102f39061062f565b600085815260016020908152604080832073ffffffffffffffffffffffffffffffffffffffff88168452909152902061032b9061062f565b915091509250929050565b60405133606081901b7fffffffffffffffffffffffffffffffffffffffff0000000000000000000000001660208301526000918291908290603401604080518083037fffffffffffffffffffffffffffffffffffffffffffffffffffffffffffffffe00181529082905280516020909101207fbeccf5db00000000000000000000000000000000000000000000000000000000825260048201819052602482018a905273ffffffffffffffffffffffffffffffffffffffff8981166044840152888116606484015287811660848401529092507f0000000000000000000000000000000000000000000000000000000000000000169063beccf5db9060a40160408051808303816000875af1158015610453573d6000803e3d6000fd5b505050506040513d601f19601f8201168201806040525081019061047791906108b9565b60008a81526020818152604080832073ffffffffffffffffffffffffffffffffffffffff8d168452909152902091955093506104b39085610643565b61051e576040517f08c379a000000000000000000000000000000000000000000000000000000000815260206004820152600b60248201527f2161646458416363756e7400000000000000000000000000000000000000000060448201526064015b60405180910390fd5b600088815260016020908152604080832073ffffffffffffffffffffffffffffffffffffffff8b16845290915290206105579084610643565b6105bd576040517f08c379a000000000000000000000000000000000000000000000000000000000815260206004820152600a60248201527f216164644d6f64756c65000000000000000000000000000000000000000000006044820152606401610515565b50600096875260026020908152604080892073ffffffffffffffffffffffffffffffffffffffff9889168a5282528089208589168a5290915290962080547fffffffffffffffffffffffff00000000000000000000000000000000000000001696909516959095179093555090929050565b6060600061063c8361066e565b9392505050565b60006106658373ffffffffffffffffffffffffffffffffffffffff84166106ca565b90505b92915050565b6060816000018054806020026020016040519081016040528092919081815260200182805480156106be57602002820191906000526020600020905b8154815260200190600101908083116106aa575b50505050509050919050565b600081815260018301602052604081205461071157508154600181810184556000848152602080822090930184905584548482528286019093526040902091909155610668565b506000610668565b73ffffffffffffffffffffffffffffffffffffffff8116811461073b57600080fd5b50565b60008060006060848603121561075357600080fd5b83359250602084013561076581610719565b9150604084013561077581610719565b809150509250925092565b60008060006060848603121561079557600080fd5b83356107a081610719565b925060208401359150604084013561077581610719565b600080604083850312156107ca57600080fd5b8235915060208301356107dc81610719565b809150509250929050565b600081518084526020808501945080840160005b8381101561082d57815173ffffffffffffffffffffffffffffffffffffffff16875295820195908201906001016107fb565b509495945050505050565b60408152600061084b60408301856107e7565b828103602084015261085d81856107e7565b95945050505050565b6000806000806080858703121561087c57600080fd5b84359350602085013561088e81610719565b9250604085013561089e81610719565b915060608501356108ae81610719565b939692955090935050565b600080604083850312156108cc57600080fd5b82516108d781610719565b60208401519092506107dc8161071956fea2646970667358221220ebcbd679dca65640758af360252ba6759d53cbe9edd5a8cdd8bcd1b7e25a6da664736f6c63430008110033",
	"deployedBytecode": "0x608060405234801561001057600080fd5b50600436106100675760003560e01c80632dd31000116100505780632dd310001461011d578063517cf08614610144578063c125bdd71461016557600080fd5b806304a338b71461006c578063103732c9146100dd575b600080fd5b6100b361007a36600461073e565b600260209081526000938452604080852082529284528284209052825290205473ffffffffffffffffffffffffffffffffffffffff1681565b60405173ffffffffffffffffffffffffffffffffffffffff90911681526020015b60405180910390f35b6100f06100eb366004610780565b610178565b6040805173ffffffffffffffffffffffffffffffffffffffff9384168152929091166020830152016100d4565b6100b37f00000000000000000000000052cc674e99387b8e0d2525f8a93198726063051e81565b6101576101523660046107b7565b6102b8565b6040516100d4929190610838565b6100f0610173366004610866565b610336565b6040517fffffffffffffffffffffffffffffffffffffffff000000000000000000000000606085901b16602082015260009081908190603401604080518083037fffffffffffffffffffffffffffffffffffffffffffffffffffffffffffffffe00181529082905280516020909101207f3a0f253a000000000000000000000000000000000000000000000000000000008252306004830152602482018190526044820187905273ffffffffffffffffffffffffffffffffffffffff86811660648401529092507f00000000000000000000000052cc674e99387b8e0d2525f8a93198726063051e1690633a0f253a906084016040805180830381865afa158015610287573d6000803e3d6000fd5b505050506040513d601f19601f820116820180604052508101906102ab91906108b9565b9250925050935093915050565b60008281526020818152604080832073ffffffffffffffffffffffffffffffffffffffff85168452909152902060609081906102f39061062f565b600085815260016020908152604080832073ffffffffffffffffffffffffffffffffffffffff88168452909152902061032b9061062f565b915091509250929050565b60405133606081901b7fffffffffffffffffffffffffffffffffffffffff0000000000000000000000001660208301526000918291908290603401604080518083037fffffffffffffffffffffffffffffffffffffffffffffffffffffffffffffffe00181529082905280516020909101207fbeccf5db00000000000000000000000000000000000000000000000000000000825260048201819052602482018a905273ffffffffffffffffffffffffffffffffffffffff8981166044840152888116606484015287811660848401529092507f00000000000000000000000052cc674e99387b8e0d2525f8a93198726063051e169063beccf5db9060a40160408051808303816000875af1158015610453573d6000803e3d6000fd5b505050506040513d601f19601f8201168201806040525081019061047791906108b9565b60008a81526020818152604080832073ffffffffffffffffffffffffffffffffffffffff8d168452909152902091955093506104b39085610643565b61051e576040517f08c379a000000000000000000000000000000000000000000000000000000000815260206004820152600b60248201527f2161646458416363756e7400000000000000000000000000000000000000000060448201526064015b60405180910390fd5b600088815260016020908152604080832073ffffffffffffffffffffffffffffffffffffffff8b16845290915290206105579084610643565b6105bd576040517f08c379a000000000000000000000000000000000000000000000000000000000815260206004820152600a60248201527f216164644d6f64756c65000000000000000000000000000000000000000000006044820152606401610515565b50600096875260026020908152604080892073ffffffffffffffffffffffffffffffffffffffff9889168a5282528089208589168a5290915290962080547fffffffffffffffffffffffff00000000000000000000000000000000000000001696909516959095179093555090929050565b6060600061063c8361066e565b9392505050565b60006106658373ffffffffffffffffffffffffffffffffffffffff84166106ca565b90505b92915050565b6060816000018054806020026020016040519081016040528092919081815260200182805480156106be57602002820191906000526020600020905b8154815260200190600101908083116106aa575b50505050509050919050565b600081815260018301602052604081205461071157508154600181810184556000848152602080822090930184905584548482528286019093526040902091909155610668565b506000610668565b73ffffffffffffffffffffffffffffffffffffffff8116811461073b57600080fd5b50565b60008060006060848603121561075357600080fd5b83359250602084013561076581610719565b9150604084013561077581610719565b809150509250925092565b60008060006060848603121561079557600080fd5b83356107a081610719565b925060208401359150604084013561077581610719565b600080604083850312156107ca57600080fd5b8235915060208301356107dc81610719565b809150509250929050565b600081518084526020808501945080840160005b8381101561082d57815173ffffffffffffffffffffffffffffffffffffffff16875295820195908201906001016107fb565b509495945050505050565b60408152600061084b60408301856107e7565b828103602084015261085d81856107e7565b95945050505050565b6000806000806080858703121561087c57600080fd5b84359350602085013561088e81610719565b9250604085013561089e81610719565b915060608501356108ae81610719565b939692955090935050565b600080604083850312156108cc57600080fd5b82516108d781610719565b60208401519092506107dc8161071956fea2646970667358221220ebcbd679dca65640758af360252ba6759d53cbe9edd5a8cdd8bcd1b7e25a6da664736f6c63430008110033",
	"devdoc": {
		"kind": "dev",
		"methods": {},
		"version": 1
	},
	"userdoc": {
		"kind": "user",
		"methods": {
			"create(uint256,address,address,address)": {
				"notice": "Create xAccount using deployer(msg.sender) as salt."
			},
			"getDeployed(uint256,address)": {
				"notice": "Get all deployed xAccount by xOwner(fromChainId, owner)."
			},
			"xAccountOf(address,uint256,address)": {
				"notice": "Caculate xAccount address."
			}
		},
		"version": 1
	},
	"gitCommit": "c42186360b7a5036e2fff4f8c761770aab0c6631",
	"sourceName": "lib/XAccount/src/XAccountUIFactory.sol",
	"chainId": "11155111",
	"linkReferences": {},
	"deployedLinkReferences": {},
	"history": [
		{
			"_format": "sphinx-sol-ct-artifact-1",
			"merkleRoot": "0xeb6a35e4fddc8b21c92d80652c675c9f4e46c7f86af831d3e59ad380dc47e9ba",
			"contractName": "XAccountUIFactory",
			"address": "0x1e0DBFEBD134378aaBc70a29003a9BD25B9e9E41",
			"abi": [
				{
					"type": "constructor",
					"inputs": [
						{
							"name": "factory",
							"type": "address",
							"internalType": "address"
						}
					],
					"stateMutability": "nonpayable"
				},
				{
					"type": "function",
					"name": "FACTORY",
					"inputs": [],
					"outputs": [
						{
							"name": "",
							"type": "address",
							"internalType": "contract IXAccountFactory"
						}
					],
					"stateMutability": "view"
				},
				{
					"type": "function",
					"name": "create",
					"inputs": [
						{
							"name": "fromChainId",
							"type": "uint256",
							"internalType": "uint256"
						},
						{
							"name": "owner",
							"type": "address",
							"internalType": "address"
						},
						{
							"name": "port",
							"type": "address",
							"internalType": "address"
						},
						{
							"name": "recovery",
							"type": "address",
							"internalType": "address"
						}
					],
					"outputs": [
						{
							"name": "xAccount",
							"type": "address",
							"internalType": "address"
						},
						{
							"name": "module",
							"type": "address",
							"internalType": "address"
						}
					],
					"stateMutability": "nonpayable"
				},
				{
					"type": "function",
					"name": "deployers",
					"inputs": [
						{
							"name": "",
							"type": "uint256",
							"internalType": "uint256"
						},
						{
							"name": "",
							"type": "address",
							"internalType": "address"
						},
						{
							"name": "",
							"type": "address",
							"internalType": "address"
						}
					],
					"outputs": [
						{
							"name": "",
							"type": "address",
							"internalType": "address"
						}
					],
					"stateMutability": "view"
				},
				{
					"type": "function",
					"name": "getDeployed",
					"inputs": [
						{
							"name": "fromChainId",
							"type": "uint256",
							"internalType": "uint256"
						},
						{
							"name": "owner",
							"type": "address",
							"internalType": "address"
						}
					],
					"outputs": [
						{
							"name": "",
							"type": "address[]",
							"internalType": "address[]"
						},
						{
							"name": "",
							"type": "address[]",
							"internalType": "address[]"
						}
					],
					"stateMutability": "view"
				},
				{
					"type": "function",
					"name": "xAccountOf",
					"inputs": [
						{
							"name": "deployer",
							"type": "address",
							"internalType": "address"
						},
						{
							"name": "fromChainId",
							"type": "uint256",
							"internalType": "uint256"
						},
						{
							"name": "owner",
							"type": "address",
							"internalType": "address"
						}
					],
					"outputs": [
						{
							"name": "",
							"type": "address",
							"internalType": "address"
						},
						{
							"name": "",
							"type": "address",
							"internalType": "address"
						}
					],
					"stateMutability": "view"
				}
			],
			"solcInputHash": "496eb34cb62ad8f36c9d6cdfa69cdef4",
			"receipt": {
				"blockHash": "0x9c0a3ecbe18d0a31bd7593bb78ad44e25c7ad8305b951acb367e4de757220fce",
				"blockNumber": 7249406,
				"contractAddress": null,
				"cumulativeGasUsed": "17585148",
				"from": "0xD70A2e6eACbdeDA77a5d4bBAE3bC70239A0e088f",
				"gasPrice": "20202219664",
				"gasUsed": "2528224",
				"hash": "0x467c6d8754018ba7de8864bea08f1d4b3740821d30774bc7c169fb4c65819736",
				"index": 112,
				"logs": [
					{
						"address": "0x7e16116661CA8d66C73612382833153911Fa03B1",
						"blockHash": "0x9c0a3ecbe18d0a31bd7593bb78ad44e25c7ad8305b951acb367e4de757220fce",
						"blockNumber": 7249406,
						"data": "0x0000000000000000000000000000000000000000000000000000000000000000",
						"index": 222,
						"topics": [
							"0x572f161235911da04685a68c06adf558fc7e4a36909dca394650e0adc19cc93d",
							"0x000000000000000000000000d70a2e6eacbdeda77a5d4bbae3bc70239a0e088f",
							"0x0000000000000000000000003d75d338b4711f8a33d293a2008f07a712513402",
							"0x1f7d2c2ec11633f5888221428c39723286c9a6fc549583ee45e29ae6a137231c"
						],
						"transactionHash": "0x467c6d8754018ba7de8864bea08f1d4b3740821d30774bc7c169fb4c65819736",
						"transactionIndex": 112
					},
					{
						"address": "0x040f331774Ed6BB161412B4cEDb1358B382aF3A5",
						"blockHash": "0x9c0a3ecbe18d0a31bd7593bb78ad44e25c7ad8305b951acb367e4de757220fce",
						"blockNumber": 7249406,
						"data": "0x",
						"index": 223,
						"topics": [
							"0x6895c13664aa4f67288b25d7a21d7aaa34916e355fb9b6fae0a139a9085becb8",
							"0x0000000000000000000000003d75d338b4711f8a33d293a2008f07a712513402"
						],
						"transactionHash": "0x467c6d8754018ba7de8864bea08f1d4b3740821d30774bc7c169fb4c65819736",
						"transactionIndex": 112
					},
					{
						"address": "0x3D75d338B4711F8a33d293a2008f07a712513402",
						"blockHash": "0x9c0a3ecbe18d0a31bd7593bb78ad44e25c7ad8305b951acb367e4de757220fce",
						"blockNumber": 7249406,
						"data": "0x0000000000000000000000000000000000000000000000000000000000000001",
						"index": 224,
						"topics": [
							"0xa65fb05c5808f5f389d72edeaf719ce38f4cc55c1f69ca3cbfb31c21501caa07",
							"0xeb6a35e4fddc8b21c92d80652c675c9f4e46c7f86af831d3e59ad380dc47e9ba"
						],
						"transactionHash": "0x467c6d8754018ba7de8864bea08f1d4b3740821d30774bc7c169fb4c65819736",
						"transactionIndex": 112
					},
					{
						"address": "0x040f331774Ed6BB161412B4cEDb1358B382aF3A5",
						"blockHash": "0x9c0a3ecbe18d0a31bd7593bb78ad44e25c7ad8305b951acb367e4de757220fce",
						"blockNumber": 7249406,
						"data": "0x",
						"index": 225,
						"topics": [
							"0x6895c13664aa4f67288b25d7a21d7aaa34916e355fb9b6fae0a139a9085becb8",
							"0x0000000000000000000000003d75d338b4711f8a33d293a2008f07a712513402"
						],
						"transactionHash": "0x467c6d8754018ba7de8864bea08f1d4b3740821d30774bc7c169fb4c65819736",
						"transactionIndex": 112
					},
					{
						"address": "0x3D75d338B4711F8a33d293a2008f07a712513402",
						"blockHash": "0x9c0a3ecbe18d0a31bd7593bb78ad44e25c7ad8305b951acb367e4de757220fce",
						"blockNumber": 7249406,
						"data": "0x0000000000000000000000000000000000000000000000000000000000000002",
						"index": 226,
						"topics": [
							"0xa65fb05c5808f5f389d72edeaf719ce38f4cc55c1f69ca3cbfb31c21501caa07",
							"0xeb6a35e4fddc8b21c92d80652c675c9f4e46c7f86af831d3e59ad380dc47e9ba"
						],
						"transactionHash": "0x467c6d8754018ba7de8864bea08f1d4b3740821d30774bc7c169fb4c65819736",
						"transactionIndex": 112
					},
					{
						"address": "0x040f331774Ed6BB161412B4cEDb1358B382aF3A5",
						"blockHash": "0x9c0a3ecbe18d0a31bd7593bb78ad44e25c7ad8305b951acb367e4de757220fce",
						"blockNumber": 7249406,
						"data": "0x",
						"index": 227,
						"topics": [
							"0x6895c13664aa4f67288b25d7a21d7aaa34916e355fb9b6fae0a139a9085becb8",
							"0x0000000000000000000000003d75d338b4711f8a33d293a2008f07a712513402"
						],
						"transactionHash": "0x467c6d8754018ba7de8864bea08f1d4b3740821d30774bc7c169fb4c65819736",
						"transactionIndex": 112
					},
					{
						"address": "0x3D75d338B4711F8a33d293a2008f07a712513402",
						"blockHash": "0x9c0a3ecbe18d0a31bd7593bb78ad44e25c7ad8305b951acb367e4de757220fce",
						"blockNumber": 7249406,
						"data": "0x0000000000000000000000000000000000000000000000000000000000000003",
						"index": 228,
						"topics": [
							"0xa65fb05c5808f5f389d72edeaf719ce38f4cc55c1f69ca3cbfb31c21501caa07",
							"0xeb6a35e4fddc8b21c92d80652c675c9f4e46c7f86af831d3e59ad380dc47e9ba"
						],
						"transactionHash": "0x467c6d8754018ba7de8864bea08f1d4b3740821d30774bc7c169fb4c65819736",
						"transactionIndex": 112
					},
					{
						"address": "0x3D75d338B4711F8a33d293a2008f07a712513402",
						"blockHash": "0x9c0a3ecbe18d0a31bd7593bb78ad44e25c7ad8305b951acb367e4de757220fce",
						"blockNumber": 7249406,
						"data": "0x",
						"index": 229,
						"topics": [
							"0x4383d976757d67ca920616be0b6430a681ea9d3dcce8d6d61d4603ca4a9bff63",
							"0xeb6a35e4fddc8b21c92d80652c675c9f4e46c7f86af831d3e59ad380dc47e9ba"
						],
						"transactionHash": "0x467c6d8754018ba7de8864bea08f1d4b3740821d30774bc7c169fb4c65819736",
						"transactionIndex": 112
					}
				],
				"logsBloom": "0x00000000000010000080000000080000000000000120000000000000000000000000000000000000000000000040000000100000000000200000000000000000000000000000200000000000000000000000000000000000000000000000000000004000000000002000000000000004000000000000000000000000000000000000000100000000000100000000000000000000000000000001000000000004004100800000000000000000000002000200000000000000000000001004000000000001000000000030000000010000000000000000000800000000000000000100000000000008000000000000000200000000000000000000000008100000",
				"status": 1,
				"to": "0x7e16116661CA8d66C73612382833153911Fa03B1"
			},
			"metadata": "{\"compiler\":{\"version\":\"0.8.17+commit.8df45f5f\"},\"language\":\"Solidity\",\"output\":{\"abi\":[{\"inputs\":[{\"internalType\":\"address\",\"name\":\"factory\",\"type\":\"address\"}],\"stateMutability\":\"nonpayable\",\"type\":\"constructor\"},{\"inputs\":[],\"stateMutability\":\"view\",\"type\":\"function\",\"name\":\"FACTORY\",\"outputs\":[{\"internalType\":\"contract IXAccountFactory\",\"name\":\"\",\"type\":\"address\"}]},{\"inputs\":[{\"internalType\":\"uint256\",\"name\":\"fromChainId\",\"type\":\"uint256\"},{\"internalType\":\"address\",\"name\":\"owner\",\"type\":\"address\"},{\"internalType\":\"address\",\"name\":\"port\",\"type\":\"address\"},{\"internalType\":\"address\",\"name\":\"recovery\",\"type\":\"address\"}],\"stateMutability\":\"nonpayable\",\"type\":\"function\",\"name\":\"create\",\"outputs\":[{\"internalType\":\"address\",\"name\":\"xAccount\",\"type\":\"address\"},{\"internalType\":\"address\",\"name\":\"module\",\"type\":\"address\"}]},{\"inputs\":[{\"internalType\":\"uint256\",\"name\":\"\",\"type\":\"uint256\"},{\"internalType\":\"address\",\"name\":\"\",\"type\":\"address\"},{\"internalType\":\"address\",\"name\":\"\",\"type\":\"address\"}],\"stateMutability\":\"view\",\"type\":\"function\",\"name\":\"deployers\",\"outputs\":[{\"internalType\":\"address\",\"name\":\"\",\"type\":\"address\"}]},{\"inputs\":[{\"internalType\":\"uint256\",\"name\":\"fromChainId\",\"type\":\"uint256\"},{\"internalType\":\"address\",\"name\":\"owner\",\"type\":\"address\"}],\"stateMutability\":\"view\",\"type\":\"function\",\"name\":\"getDeployed\",\"outputs\":[{\"internalType\":\"address[]\",\"name\":\"\",\"type\":\"address[]\"},{\"internalType\":\"address[]\",\"name\":\"\",\"type\":\"address[]\"}]},{\"inputs\":[{\"internalType\":\"address\",\"name\":\"deployer\",\"type\":\"address\"},{\"internalType\":\"uint256\",\"name\":\"fromChainId\",\"type\":\"uint256\"},{\"internalType\":\"address\",\"name\":\"owner\",\"type\":\"address\"}],\"stateMutability\":\"view\",\"type\":\"function\",\"name\":\"xAccountOf\",\"outputs\":[{\"internalType\":\"address\",\"name\":\"\",\"type\":\"address\"},{\"internalType\":\"address\",\"name\":\"\",\"type\":\"address\"}]}],\"devdoc\":{\"kind\":\"dev\",\"methods\":{},\"version\":1},\"userdoc\":{\"kind\":\"user\",\"methods\":{\"create(uint256,address,address,address)\":{\"notice\":\"Create xAccount using deployer(msg.sender) as salt.\"},\"getDeployed(uint256,address)\":{\"notice\":\"Get all deployed xAccount by xOwner(fromChainId, owner).\"},\"xAccountOf(address,uint256,address)\":{\"notice\":\"Caculate xAccount address.\"}},\"version\":1}},\"settings\":{\"remappings\":[\"@darwinia-msgport/=lib/darwinia-msgport/\",\"@msgport/=lib/darwinia-msgport/src/\",\"@openzeppelin/contracts/=lib/openzeppelin-contracts/contracts/\",\"@openzeppelin/contracts@4.9.2/=lib/openzeppelin-contracts/contracts/\",\"@safe-smart-account/=lib/subapi/lib/safe-smart-account/contracts/\",\"@sphinx-labs/contracts/=lib/sphinx/packages/contracts/contracts/foundry/\",\"@x-account/=lib/XAccount/src/\",\"ORMP/=lib/ORMP/\",\"create3-deploy/=lib/create3-deploy/\",\"forge-std/=lib/forge-std/src/\",\"solmate/=lib/darwinia-msgport/lib/solmate/src/\",\"subapi/=lib/subapi/\"],\"optimizer\":{\"enabled\":true,\"runs\":999999},\"metadata\":{\"bytecodeHash\":\"ipfs\"},\"compilationTarget\":{\"lib/XAccount/src/XAccountUIFactory.sol\":\"XAccountUIFactory\"},\"evmVersion\":\"london\",\"libraries\":{}},\"sources\":{\"lib/XAccount/src/XAccountUIFactory.sol\":{\"keccak256\":\"0xca735e3bdbdb66fa39eae858d37ebfbe09dc88b467f574fed1fe995e87ade624\",\"urls\":[\"bzz-raw://02ced687071f130f21c7f93e77d29761e301608f835d7cd81152fc49826f13eb\",\"dweb:/ipfs/QmbAnDNpyifZLdjnwZWydm2x2hxEQroWzNghuG9xy9o8Wb\"],\"license\":\"MIT\"},\"lib/XAccount/src/interfaces/IXAccountFactory.sol\":{\"keccak256\":\"0x43cae053ea2a80cfcd203c904b2ce443ac2bfb52133fa83029e20f563800bb15\",\"urls\":[\"bzz-raw://fea152899299ad068e5f3aff170822eea29a908fc17fe52ddc0c256234559d15\",\"dweb:/ipfs/QmVQgWcrrrQhs8MDirQtAoHGpQT7Mdf5LVJMvWLWfaNV6A\"],\"license\":\"MIT\"},\"lib/openzeppelin-contracts/contracts/utils/structs/EnumerableSet.sol\":{\"keccak256\":\"0x9f4357008a8f7d8c8bf5d48902e789637538d8c016be5766610901b4bba81514\",\"urls\":[\"bzz-raw://20bf19b2b851f58a4c24543de80ae70b3e08621f9230eb335dc75e2d4f43f5df\",\"dweb:/ipfs/QmSYuH1AhvJkPK8hNvoPqtExBcgTB42pPRHgTHkS5c5zYW\"],\"license\":\"MIT\"}},\"version\":1}",
			"args": [
				"0x8c85e3b3094199b16Fa6B5A24155F580E3Fd9C91"
			],
			"bytecode": "0x60a060405234801561001057600080fd5b506040516109b73803806109b783398101604081905261002f91610040565b6001600160a01b0316608052610070565b60006020828403121561005257600080fd5b81516001600160a01b038116811461006957600080fd5b9392505050565b60805161091e6100996000396000818161012201528181610241015261040b015261091e6000f3fe608060405234801561001057600080fd5b50600436106100675760003560e01c80632dd31000116100505780632dd310001461011d578063517cf08614610144578063c125bdd71461016557600080fd5b806304a338b71461006c578063103732c9146100dd575b600080fd5b6100b361007a36600461073e565b600260209081526000938452604080852082529284528284209052825290205473ffffffffffffffffffffffffffffffffffffffff1681565b60405173ffffffffffffffffffffffffffffffffffffffff90911681526020015b60405180910390f35b6100f06100eb366004610780565b610178565b6040805173ffffffffffffffffffffffffffffffffffffffff9384168152929091166020830152016100d4565b6100b37f000000000000000000000000000000000000000000000000000000000000000081565b6101576101523660046107b7565b6102b8565b6040516100d4929190610838565b6100f0610173366004610866565b610336565b6040517fffffffffffffffffffffffffffffffffffffffff000000000000000000000000606085901b16602082015260009081908190603401604080518083037fffffffffffffffffffffffffffffffffffffffffffffffffffffffffffffffe00181529082905280516020909101207f3a0f253a000000000000000000000000000000000000000000000000000000008252306004830152602482018190526044820187905273ffffffffffffffffffffffffffffffffffffffff86811660648401529092507f00000000000000000000000000000000000000000000000000000000000000001690633a0f253a906084016040805180830381865afa158015610287573d6000803e3d6000fd5b505050506040513d601f19601f820116820180604052508101906102ab91906108b9565b9250925050935093915050565b60008281526020818152604080832073ffffffffffffffffffffffffffffffffffffffff85168452909152902060609081906102f39061062f565b600085815260016020908152604080832073ffffffffffffffffffffffffffffffffffffffff88168452909152902061032b9061062f565b915091509250929050565b60405133606081901b7fffffffffffffffffffffffffffffffffffffffff0000000000000000000000001660208301526000918291908290603401604080518083037fffffffffffffffffffffffffffffffffffffffffffffffffffffffffffffffe00181529082905280516020909101207fbeccf5db00000000000000000000000000000000000000000000000000000000825260048201819052602482018a905273ffffffffffffffffffffffffffffffffffffffff8981166044840152888116606484015287811660848401529092507f0000000000000000000000000000000000000000000000000000000000000000169063beccf5db9060a40160408051808303816000875af1158015610453573d6000803e3d6000fd5b505050506040513d601f19601f8201168201806040525081019061047791906108b9565b60008a81526020818152604080832073ffffffffffffffffffffffffffffffffffffffff8d168452909152902091955093506104b39085610643565b61051e576040517f08c379a000000000000000000000000000000000000000000000000000000000815260206004820152600b60248201527f2161646458416363756e7400000000000000000000000000000000000000000060448201526064015b60405180910390fd5b600088815260016020908152604080832073ffffffffffffffffffffffffffffffffffffffff8b16845290915290206105579084610643565b6105bd576040517f08c379a000000000000000000000000000000000000000000000000000000000815260206004820152600a60248201527f216164644d6f64756c65000000000000000000000000000000000000000000006044820152606401610515565b50600096875260026020908152604080892073ffffffffffffffffffffffffffffffffffffffff9889168a5282528089208589168a5290915290962080547fffffffffffffffffffffffff00000000000000000000000000000000000000001696909516959095179093555090929050565b6060600061063c8361066e565b9392505050565b60006106658373ffffffffffffffffffffffffffffffffffffffff84166106ca565b90505b92915050565b6060816000018054806020026020016040519081016040528092919081815260200182805480156106be57602002820191906000526020600020905b8154815260200190600101908083116106aa575b50505050509050919050565b600081815260018301602052604081205461071157508154600181810184556000848152602080822090930184905584548482528286019093526040902091909155610668565b506000610668565b73ffffffffffffffffffffffffffffffffffffffff8116811461073b57600080fd5b50565b60008060006060848603121561075357600080fd5b83359250602084013561076581610719565b9150604084013561077581610719565b809150509250925092565b60008060006060848603121561079557600080fd5b83356107a081610719565b925060208401359150604084013561077581610719565b600080604083850312156107ca57600080fd5b8235915060208301356107dc81610719565b809150509250929050565b600081518084526020808501945080840160005b8381101561082d57815173ffffffffffffffffffffffffffffffffffffffff16875295820195908201906001016107fb565b509495945050505050565b60408152600061084b60408301856107e7565b828103602084015261085d81856107e7565b95945050505050565b6000806000806080858703121561087c57600080fd5b84359350602085013561088e81610719565b9250604085013561089e81610719565b915060608501356108ae81610719565b939692955090935050565b600080604083850312156108cc57600080fd5b82516108d781610719565b60208401519092506107dc8161071956fea2646970667358221220ebcbd679dca65640758af360252ba6759d53cbe9edd5a8cdd8bcd1b7e25a6da664736f6c63430008110033",
			"deployedBytecode": "0x608060405234801561001057600080fd5b50600436106100675760003560e01c80632dd31000116100505780632dd310001461011d578063517cf08614610144578063c125bdd71461016557600080fd5b806304a338b71461006c578063103732c9146100dd575b600080fd5b6100b361007a36600461073e565b600260209081526000938452604080852082529284528284209052825290205473ffffffffffffffffffffffffffffffffffffffff1681565b60405173ffffffffffffffffffffffffffffffffffffffff90911681526020015b60405180910390f35b6100f06100eb366004610780565b610178565b6040805173ffffffffffffffffffffffffffffffffffffffff9384168152929091166020830152016100d4565b6100b37f0000000000000000000000008c85e3b3094199b16fa6b5a24155f580e3fd9c9181565b6101576101523660046107b7565b6102b8565b6040516100d4929190610838565b6100f0610173366004610866565b610336565b6040517fffffffffffffffffffffffffffffffffffffffff000000000000000000000000606085901b16602082015260009081908190603401604080518083037fffffffffffffffffffffffffffffffffffffffffffffffffffffffffffffffe00181529082905280516020909101207f3a0f253a000000000000000000000000000000000000000000000000000000008252306004830152602482018190526044820187905273ffffffffffffffffffffffffffffffffffffffff86811660648401529092507f0000000000000000000000008c85e3b3094199b16fa6b5a24155f580e3fd9c911690633a0f253a906084016040805180830381865afa158015610287573d6000803e3d6000fd5b505050506040513d601f19601f820116820180604052508101906102ab91906108b9565b9250925050935093915050565b60008281526020818152604080832073ffffffffffffffffffffffffffffffffffffffff85168452909152902060609081906102f39061062f565b600085815260016020908152604080832073ffffffffffffffffffffffffffffffffffffffff88168452909152902061032b9061062f565b915091509250929050565b60405133606081901b7fffffffffffffffffffffffffffffffffffffffff0000000000000000000000001660208301526000918291908290603401604080518083037fffffffffffffffffffffffffffffffffffffffffffffffffffffffffffffffe00181529082905280516020909101207fbeccf5db00000000000000000000000000000000000000000000000000000000825260048201819052602482018a905273ffffffffffffffffffffffffffffffffffffffff8981166044840152888116606484015287811660848401529092507f0000000000000000000000008c85e3b3094199b16fa6b5a24155f580e3fd9c91169063beccf5db9060a40160408051808303816000875af1158015610453573d6000803e3d6000fd5b505050506040513d601f19601f8201168201806040525081019061047791906108b9565b60008a81526020818152604080832073ffffffffffffffffffffffffffffffffffffffff8d168452909152902091955093506104b39085610643565b61051e576040517f08c379a000000000000000000000000000000000000000000000000000000000815260206004820152600b60248201527f2161646458416363756e7400000000000000000000000000000000000000000060448201526064015b60405180910390fd5b600088815260016020908152604080832073ffffffffffffffffffffffffffffffffffffffff8b16845290915290206105579084610643565b6105bd576040517f08c379a000000000000000000000000000000000000000000000000000000000815260206004820152600a60248201527f216164644d6f64756c65000000000000000000000000000000000000000000006044820152606401610515565b50600096875260026020908152604080892073ffffffffffffffffffffffffffffffffffffffff9889168a5282528089208589168a5290915290962080547fffffffffffffffffffffffff00000000000000000000000000000000000000001696909516959095179093555090929050565b6060600061063c8361066e565b9392505050565b60006106658373ffffffffffffffffffffffffffffffffffffffff84166106ca565b90505b92915050565b6060816000018054806020026020016040519081016040528092919081815260200182805480156106be57602002820191906000526020600020905b8154815260200190600101908083116106aa575b50505050509050919050565b600081815260018301602052604081205461071157508154600181810184556000848152602080822090930184905584548482528286019093526040902091909155610668565b506000610668565b73ffffffffffffffffffffffffffffffffffffffff8116811461073b57600080fd5b50565b60008060006060848603121561075357600080fd5b83359250602084013561076581610719565b9150604084013561077581610719565b809150509250925092565b60008060006060848603121561079557600080fd5b83356107a081610719565b925060208401359150604084013561077581610719565b600080604083850312156107ca57600080fd5b8235915060208301356107dc81610719565b809150509250929050565b600081518084526020808501945080840160005b8381101561082d57815173ffffffffffffffffffffffffffffffffffffffff16875295820195908201906001016107fb565b509495945050505050565b60408152600061084b60408301856107e7565b828103602084015261085d81856107e7565b95945050505050565b6000806000806080858703121561087c57600080fd5b84359350602085013561088e81610719565b9250604085013561089e81610719565b915060608501356108ae81610719565b939692955090935050565b600080604083850312156108cc57600080fd5b82516108d781610719565b60208401519092506107dc8161071956fea2646970667358221220ebcbd679dca65640758af360252ba6759d53cbe9edd5a8cdd8bcd1b7e25a6da664736f6c63430008110033",
			"devdoc": {
				"kind": "dev",
				"methods": {},
				"version": 1
			},
			"userdoc": {
				"kind": "user",
				"methods": {
					"create(uint256,address,address,address)": {
						"notice": "Create xAccount using deployer(msg.sender) as salt."
					},
					"getDeployed(uint256,address)": {
						"notice": "Get all deployed xAccount by xOwner(fromChainId, owner)."
					},
					"xAccountOf(address,uint256,address)": {
						"notice": "Caculate xAccount address."
					}
				},
				"version": 1
			},
			"gitCommit": "aceebb65974b57c60a2332563da04f0e4ccd2cf1",
			"sourceName": "lib/XAccount/src/XAccountUIFactory.sol",
			"chainId": "11155111",
			"linkReferences": {},
			"deployedLinkReferences": {}
		}
	]
}