{
	"_format": "sphinx-sol-ct-artifact-1",
	"merkleRoot": "0x56657e50ef8879c896a9869b7bf07a9da8d809fbbbe38ce4fe91227328768871",
	"contractName": "MultiPort",
	"address": "0xab3172FB251B2047813Ea1940F2cFaA287B1a665",
	"abi": [
		{
			"type": "constructor",
			"inputs": [
				{
					"name": "dao",
					"type": "address",
					"internalType": "address"
				},
				{
					"name": "threshold_",
					"type": "uint256",
					"internalType": "uint256"
				},
				{
					"name": "name",
					"type": "string",
					"internalType": "string"
				}
			],
			"stateMutability": "nonpayable"
		},
		{
			"type": "function",
			"name": "LOCAL_CHAINID",
			"inputs": [],
			"outputs": [
				{
					"name": "",
					"type": "uint256",
					"internalType": "uint256"
				}
			],
			"stateMutability": "view"
		},
		{
			"type": "function",
			"name": "MAX_MESSAGE_EXPIRATION",
			"inputs": [],
			"outputs": [
				{
					"name": "",
					"type": "uint256",
					"internalType": "uint256"
				}
			],
			"stateMutability": "view"
		},
		{
			"type": "function",
			"name": "acceptOwnership",
			"inputs": [],
			"outputs": [],
			"stateMutability": "nonpayable"
		},
		{
			"type": "function",
			"name": "addTrustedPort",
			"inputs": [
				{
					"name": "port",
					"type": "address",
					"internalType": "address"
				}
			],
			"outputs": [],
			"stateMutability": "nonpayable"
		},
		{
			"type": "function",
			"name": "countOf",
			"inputs": [
				{
					"name": "",
					"type": "bytes32",
					"internalType": "bytes32"
				}
			],
			"outputs": [
				{
					"name": "",
					"type": "uint256",
					"internalType": "uint256"
				}
			],
			"stateMutability": "view"
		},
		{
			"type": "function",
			"name": "deliverifyOf",
			"inputs": [
				{
					"name": "",
					"type": "bytes32",
					"internalType": "bytes32"
				},
				{
					"name": "",
					"type": "address",
					"internalType": "address"
				}
			],
			"outputs": [
				{
					"name": "",
					"type": "bool",
					"internalType": "bool"
				}
			],
			"stateMutability": "view"
		},
		{
			"type": "function",
			"name": "doneOf",
			"inputs": [
				{
					"name": "",
					"type": "bytes32",
					"internalType": "bytes32"
				}
			],
			"outputs": [
				{
					"name": "",
					"type": "bool",
					"internalType": "bool"
				}
			],
			"stateMutability": "view"
		},
		{
			"type": "function",
			"name": "fee",
			"inputs": [
				{
					"name": "",
					"type": "uint256",
					"internalType": "uint256"
				},
				{
					"name": "",
					"type": "address",
					"internalType": "address"
				},
				{
					"name": "",
					"type": "address",
					"internalType": "address"
				},
				{
					"name": "",
					"type": "bytes",
					"internalType": "bytes"
				},
				{
					"name": "",
					"type": "bytes",
					"internalType": "bytes"
				}
			],
			"outputs": [
				{
					"name": "",
					"type": "uint256",
					"internalType": "uint256"
				}
			],
			"stateMutability": "view"
		},
		{
			"type": "function",
			"name": "hash",
			"inputs": [
				{
					"name": "portMsg",
					"type": "tuple",
					"internalType": "struct MultiPort.PortMsg",
					"components": [
						{
							"name": "fromChainId",
							"type": "uint256",
							"internalType": "uint256"
						},
						{
							"name": "toChainId",
							"type": "uint256",
							"internalType": "uint256"
						},
						{
							"name": "fromDapp",
							"type": "address",
							"internalType": "address"
						},
						{
							"name": "toDapp",
							"type": "address",
							"internalType": "address"
						},
						{
							"name": "nonce",
							"type": "uint256",
							"internalType": "uint256"
						},
						{
							"name": "expiration",
							"type": "uint256",
							"internalType": "uint256"
						},
						{
							"name": "message",
							"type": "bytes",
							"internalType": "bytes"
						}
					]
				}
			],
			"outputs": [
				{
					"name": "",
					"type": "bytes32",
					"internalType": "bytes32"
				}
			],
			"stateMutability": "pure"
		},
		{
			"type": "function",
			"name": "isTrustedPort",
			"inputs": [
				{
					"name": "port",
					"type": "address",
					"internalType": "address"
				}
			],
			"outputs": [
				{
					"name": "",
					"type": "bool",
					"internalType": "bool"
				}
			],
			"stateMutability": "view"
		},
		{
			"type": "function",
			"name": "multiRecv",
			"inputs": [
				{
					"name": "portMsg",
					"type": "tuple",
					"internalType": "struct MultiPort.PortMsg",
					"components": [
						{
							"name": "fromChainId",
							"type": "uint256",
							"internalType": "uint256"
						},
						{
							"name": "toChainId",
							"type": "uint256",
							"internalType": "uint256"
						},
						{
							"name": "fromDapp",
							"type": "address",
							"internalType": "address"
						},
						{
							"name": "toDapp",
							"type": "address",
							"internalType": "address"
						},
						{
							"name": "nonce",
							"type": "uint256",
							"internalType": "uint256"
						},
						{
							"name": "expiration",
							"type": "uint256",
							"internalType": "uint256"
						},
						{
							"name": "message",
							"type": "bytes",
							"internalType": "bytes"
						}
					]
				}
			],
			"outputs": [],
			"stateMutability": "payable"
		},
		{
			"type": "function",
			"name": "name",
			"inputs": [],
			"outputs": [
				{
					"name": "",
					"type": "string",
					"internalType": "string"
				}
			],
			"stateMutability": "view"
		},
		{
			"type": "function",
			"name": "owner",
			"inputs": [],
			"outputs": [
				{
					"name": "",
					"type": "address",
					"internalType": "address"
				}
			],
			"stateMutability": "view"
		},
		{
			"type": "function",
			"name": "peerOf",
			"inputs": [
				{
					"name": "chainId",
					"type": "uint256",
					"internalType": "uint256"
				}
			],
			"outputs": [
				{
					"name": "",
					"type": "address",
					"internalType": "address"
				}
			],
			"stateMutability": "view"
		},
		{
			"type": "function",
			"name": "pendingOwner",
			"inputs": [],
			"outputs": [
				{
					"name": "",
					"type": "address",
					"internalType": "address"
				}
			],
			"stateMutability": "view"
		},
		{
			"type": "function",
			"name": "renounceOwnership",
			"inputs": [],
			"outputs": [],
			"stateMutability": "nonpayable"
		},
		{
			"type": "function",
			"name": "rmTrustedPort",
			"inputs": [
				{
					"name": "port",
					"type": "address",
					"internalType": "address"
				}
			],
			"outputs": [],
			"stateMutability": "nonpayable"
		},
		{
			"type": "function",
			"name": "send",
			"inputs": [
				{
					"name": "toChainId",
					"type": "uint256",
					"internalType": "uint256"
				},
				{
					"name": "toDapp",
					"type": "address",
					"internalType": "address"
				},
				{
					"name": "message",
					"type": "bytes",
					"internalType": "bytes"
				},
				{
					"name": "params",
					"type": "bytes",
					"internalType": "bytes"
				}
			],
			"outputs": [
				{
					"name": "msgId",
					"type": "bytes32",
					"internalType": "bytes32"
				}
			],
			"stateMutability": "payable"
		},
		{
			"type": "function",
			"name": "setPeer",
			"inputs": [
				{
					"name": "chainId",
					"type": "uint256",
					"internalType": "uint256"
				},
				{
					"name": "peer",
					"type": "address",
					"internalType": "address"
				}
			],
			"outputs": [],
			"stateMutability": "nonpayable"
		},
		{
			"type": "function",
			"name": "setThreshold",
			"inputs": [
				{
					"name": "threshold_",
					"type": "uint256",
					"internalType": "uint256"
				}
			],
			"outputs": [],
			"stateMutability": "nonpayable"
		},
		{
			"type": "function",
			"name": "setURI",
			"inputs": [
				{
					"name": "uri",
					"type": "string",
					"internalType": "string"
				}
			],
			"outputs": [],
			"stateMutability": "nonpayable"
		},
		{
			"type": "function",
			"name": "threshold",
			"inputs": [],
			"outputs": [
				{
					"name": "",
					"type": "uint256",
					"internalType": "uint256"
				}
			],
			"stateMutability": "view"
		},
		{
			"type": "function",
			"name": "transferOwnership",
			"inputs": [
				{
					"name": "newOwner",
					"type": "address",
					"internalType": "address"
				}
			],
			"outputs": [],
			"stateMutability": "nonpayable"
		},
		{
			"type": "function",
			"name": "trustedPortCount",
			"inputs": [],
			"outputs": [
				{
					"name": "",
					"type": "uint256",
					"internalType": "uint256"
				}
			],
			"stateMutability": "view"
		},
		{
			"type": "function",
			"name": "trustedPorts",
			"inputs": [],
			"outputs": [
				{
					"name": "",
					"type": "address[]",
					"internalType": "address[]"
				}
			],
			"stateMutability": "view"
		},
		{
			"type": "function",
			"name": "uri",
			"inputs": [],
			"outputs": [
				{
					"name": "",
					"type": "string",
					"internalType": "string"
				}
			],
			"stateMutability": "view"
		},
		{
			"type": "event",
			"name": "MessageRecv",
			"inputs": [
				{
					"name": "msgId",
					"type": "bytes32",
					"indexed": true,
					"internalType": "bytes32"
				},
				{
					"name": "result",
					"type": "bool",
					"indexed": false,
					"internalType": "bool"
				},
				{
					"name": "returnData",
					"type": "bytes",
					"indexed": false,
					"internalType": "bytes"
				}
			],
			"anonymous": false
		},
		{
			"type": "event",
			"name": "MessageSent",
			"inputs": [
				{
					"name": "msgId",
					"type": "bytes32",
					"indexed": true,
					"internalType": "bytes32"
				},
				{
					"name": "fromDapp",
					"type": "address",
					"indexed": false,
					"internalType": "address"
				},
				{
					"name": "toChainId",
					"type": "uint256",
					"indexed": false,
					"internalType": "uint256"
				},
				{
					"name": "toDapp",
					"type": "address",
					"indexed": false,
					"internalType": "address"
				},
				{
					"name": "message",
					"type": "bytes",
					"indexed": false,
					"internalType": "bytes"
				},
				{
					"name": "params",
					"type": "bytes",
					"indexed": false,
					"internalType": "bytes"
				}
			],
			"anonymous": false
		},
		{
			"type": "event",
			"name": "OwnershipTransferStarted",
			"inputs": [
				{
					"name": "previousOwner",
					"type": "address",
					"indexed": true,
					"internalType": "address"
				},
				{
					"name": "newOwner",
					"type": "address",
					"indexed": true,
					"internalType": "address"
				}
			],
			"anonymous": false
		},
		{
			"type": "event",
			"name": "OwnershipTransferred",
			"inputs": [
				{
					"name": "previousOwner",
					"type": "address",
					"indexed": true,
					"internalType": "address"
				},
				{
					"name": "newOwner",
					"type": "address",
					"indexed": true,
					"internalType": "address"
				}
			],
			"anonymous": false
		},
		{
			"type": "event",
			"name": "PeerSet",
			"inputs": [
				{
					"name": "chainId",
					"type": "uint256",
					"indexed": false,
					"internalType": "uint256"
				},
				{
					"name": "peer",
					"type": "address",
					"indexed": false,
					"internalType": "address"
				}
			],
			"anonymous": false
		},
		{
			"type": "event",
			"name": "PortMessageConfirmation",
			"inputs": [
				{
					"name": "portMsgId",
					"type": "bytes32",
					"indexed": true,
					"internalType": "bytes32"
				},
				{
					"name": "port",
					"type": "address",
					"indexed": false,
					"internalType": "address"
				}
			],
			"anonymous": false
		},
		{
			"type": "event",
			"name": "PortMessageExecution",
			"inputs": [
				{
					"name": "portMsgId",
					"type": "bytes32",
					"indexed": true,
					"internalType": "bytes32"
				}
			],
			"anonymous": false
		},
		{
			"type": "event",
			"name": "PortMessageExpired",
			"inputs": [
				{
					"name": "portMsgId",
					"type": "bytes32",
					"indexed": true,
					"internalType": "bytes32"
				}
			],
			"anonymous": false
		},
		{
			"type": "event",
			"name": "PortMessageSent",
			"inputs": [
				{
					"name": "portMsgId",
					"type": "bytes32",
					"indexed": true,
					"internalType": "bytes32"
				},
				{
					"name": "portMsg",
					"type": "tuple",
					"indexed": false,
					"internalType": "struct MultiPort.PortMsg",
					"components": [
						{
							"name": "fromChainId",
							"type": "uint256",
							"internalType": "uint256"
						},
						{
							"name": "toChainId",
							"type": "uint256",
							"internalType": "uint256"
						},
						{
							"name": "fromDapp",
							"type": "address",
							"internalType": "address"
						},
						{
							"name": "toDapp",
							"type": "address",
							"internalType": "address"
						},
						{
							"name": "nonce",
							"type": "uint256",
							"internalType": "uint256"
						},
						{
							"name": "expiration",
							"type": "uint256",
							"internalType": "uint256"
						},
						{
							"name": "message",
							"type": "bytes",
							"internalType": "bytes"
						}
					]
				}
			],
			"anonymous": false
		},
		{
			"type": "event",
			"name": "SetThreshold",
			"inputs": [
				{
					"name": "threshold",
					"type": "uint256",
					"indexed": false,
					"internalType": "uint256"
				}
			],
			"anonymous": false
		},
		{
			"type": "event",
			"name": "URI",
			"inputs": [
				{
					"name": "uri",
					"type": "string",
					"indexed": false,
					"internalType": "string"
				}
			],
			"anonymous": false
		}
	],
	"solcInputHash": "ecb9a2d5bf63b21013524697f08bc7f6",
	"args": [
		"0x040f331774Ed6BB161412B4cEDb1358B382aF3A5",
		"1",
		"Multi"
	],
	"bytecode": "0x60806040523480156200001157600080fd5b5060405162002df838038062002df8833981016040819052620000349162000184565b8080620000413362000077565b60026200004f828262000312565b50505062000063836200007760201b60201c565b6200006e82620000a1565b505050620003de565b600180546001600160a01b03191690556200009e816200011e602090811b62000f7317901c565b50565b60008111620000e35760405162461bcd60e51b815260206004820152600a602482015269085d1a1c995cda1bdb1960b21b604482015260640160405180910390fd5b60058190556040518181527f46e8115bf463f9c29a9424fe152addef1bfaf2b43180d19bb7c2c78cc0ff1ebf9060200160405180910390a150565b600080546001600160a01b038381166001600160a01b0319831681178455604051919092169283917f8be0079c531659141344cd1fd0a4f28419497f9722a3daafe3b4186f6b6457e09190a35050565b634e487b7160e01b600052604160045260246000fd5b6000806000606084860312156200019a57600080fd5b83516001600160a01b0381168114620001b257600080fd5b60208581015160408701519295509350906001600160401b0380821115620001d957600080fd5b818701915087601f830112620001ee57600080fd5b8151818111156200020357620002036200016e565b604051601f8201601f19908116603f011681019083821181831017156200022e576200022e6200016e565b816040528281528a868487010111156200024757600080fd5b600093505b828410156200026b57848401860151818501870152928501926200024c565b60008684830101528096505050505050509250925092565b600181811c908216806200029857607f821691505b602082108103620002b957634e487b7160e01b600052602260045260246000fd5b50919050565b601f8211156200030d57600081815260208120601f850160051c81016020861015620002e85750805b601f850160051c820191505b818110156200030957828155600101620002f4565b5050505b505050565b81516001600160401b038111156200032e576200032e6200016e565b62000346816200033f845462000283565b84620002bf565b602080601f8311600181146200037e5760008415620003655750858301515b600019600386901b1c1916600185901b17855562000309565b600085815260208120601f198616915b82811015620003af578886015182559484019460019091019084016200038e565b5085821015620003ce5787850151600019600388901b60f8161c191681555b5050505050600190811b01905550565b612a0a80620003ee6000396000f3fe6080604052600436106101a05760003560e01c80638069c497116100e1578063b0ff5e721161008a578063eac989f811610064578063eac989f8146104a2578063f2fde38b146104b7578063fd937499146104d7578063ff020222146104f757600080fd5b8063b0ff5e7214610444578063dbd9d8ed14610457578063e30c39781461047757600080fd5b8063960bfe04116100bb578063960bfe04146103d75780639f70ed81146103f7578063a56d68ba1461042457600080fd5b80638069c4971461033b5780638da5cb5b1461035b578063935f9ade146103a757600080fd5b80633e44b7181161014e57806360a30a7c1161012857806360a30a7c146102da578063642319e8146102fc578063715018a61461031157806379ba50971461032657600080fd5b80633e44b7181461026657806342cde4e814610279578063539e299d1461028f57600080fd5b806309be0db51161017f57806309be0db51461021357806316fe55ae1461023357806337543ddc1461024657600080fd5b80627a8100146101a557806302fe5305146101cf57806306fdde03146101f1575b600080fd5b3480156101b157600080fd5b506101bc62278d0081565b6040519081526020015b60405180910390f35b3480156101db57600080fd5b506101ef6101ea366004611d46565b61053a565b005b3480156101fd57600080fd5b50610206610585565b6040516101c69190611df6565b34801561021f57600080fd5b506101bc61022e366004612017565b610617565b6101bc610241366004612054565b610647565b34801561025257600080fd5b506101ef6102613660046120de565b6106a8565b6101ef6102743660046120f9565b61072f565b34801561028557600080fd5b506101bc60055481565b34801561029b57600080fd5b506102ca6102aa366004612134565b600a60209081526000928352604080842090915290825290205460ff1681565b60405190151581526020016101c6565b3480156102e657600080fd5b506102ef610cbd565b6040516101c69190612160565b34801561030857600080fd5b506101bc610cce565b34801561031d57600080fd5b506101ef610cda565b34801561033257600080fd5b506101ef610cee565b34801561034757600080fd5b506101ef610356366004612134565b610da0565b34801561036757600080fd5b5060005473ffffffffffffffffffffffffffffffffffffffff165b60405173ffffffffffffffffffffffffffffffffffffffff90911681526020016101c6565b3480156103b357600080fd5b506102ca6103c23660046121ba565b60086020526000908152604090205460ff1681565b3480156103e357600080fd5b506101ef6103f23660046121ba565b610db2565b34801561040357600080fd5b506101bc6104123660046121ba565b60096020526000908152604090205481565b34801561043057600080fd5b506102ca61043f3660046120de565b610dc3565b34801561045057600080fd5b50466101bc565b34801561046357600080fd5b506101ef6104723660046120de565b610dd6565b34801561048357600080fd5b5060015473ffffffffffffffffffffffffffffffffffffffff16610382565b3480156104ae57600080fd5b50610206610e4f565b3480156104c357600080fd5b506101ef6104d23660046120de565b610e5e565b3480156104e357600080fd5b506101bc6104f23660046121d3565b610f0e565b34801561050357600080fd5b506103826105123660046121ba565b60009081526004602052604090205473ffffffffffffffffffffffffffffffffffffffff1690565b610542610fe8565b61058182828080601f01602080910402602001604051908101604052809392919081815260200183838082843760009201919091525061106992505050565b5050565b6060600280546105949061226e565b80601f01602080910402602001604051908101604052809291908181526020018280546105c09061226e565b801561060d5780601f106105e25761010080835404028352916020019161060d565b820191906000526020600020905b8154815290600101906020018083116105f057829003601f168201915b5050505050905090565b60008160405160200161062a91906122c1565b604051602081830303815290604052805190602001209050919050565b6000610658338888888888886110b0565b9050807f40195d26d027672e04e23e34282d68c3d43ea138415b24c54fcdb9c2573e597533898989898989604051610696979695949392919061237e565b60405180910390a29695505050505050565b6106b0610fe8565b6106bb600682611450565b61072c576040517f08c379a00000000000000000000000000000000000000000000000000000000081526004016107239060208082526004908201527f2161646400000000000000000000000000000000000000000000000000000000604082015260600190565b60405180910390fd5b50565b3361073981610dc3565b61079f576040517f08c379a000000000000000000000000000000000000000000000000000000000815260206004820152600860248201527f21747275737465640000000000000000000000000000000000000000000000006044820152606401610723565b60006107a9611479565b905060208301354614610818576040517f08c379a000000000000000000000000000000000000000000000000000000000815260206004820152600a60248201527f21746f436861696e4964000000000000000000000000000000000000000000006044820152606401610723565b82358114610882576040517f08c379a000000000000000000000000000000000000000000000000000000000815260206004820152600c60248201527f2166726f6d436861696e496400000000000000000000000000000000000000006044820152606401610723565b4681036108eb576040517f08c379a000000000000000000000000000000000000000000000000000000000815260206004820152600c60248201527f2166726f6d436861696e496400000000000000000000000000000000000000006044820152606401610723565b6108f48161150e565b73ffffffffffffffffffffffffffffffffffffffff1661091261159f565b73ffffffffffffffffffffffffffffffffffffffff161461098f576040517f08c379a000000000000000000000000000000000000000000000000000000000815260206004820152600b60248201527f21786d736753656e6465720000000000000000000000000000000000000000006044820152606401610723565b600061099d61022e856123df565b6000818152600a6020908152604080832073ffffffffffffffffffffffffffffffffffffffff8816845290915290205490915060ff1615610a3a576040517f08c379a000000000000000000000000000000000000000000000000000000000815260206004820152600a60248201527f64656c69766572696564000000000000000000000000000000000000000000006044820152606401610723565b6000818152600a6020908152604080832073ffffffffffffffffffffffffffffffffffffffff87168452825280832080547fffffffffffffffffffffffffffffffffffffffffffffffffffffffffffffff00166001179055838352600990915281208054909190610aaa9061241a565b9091555060405173ffffffffffffffffffffffffffffffffffffffff8416815281907ff641cfd4df48e9ac42818d1356b1534b4cbff5e3af74df3b0d3324106c32be6a9060200160405180910390a28360a00135421180610b1a575060a0840135610b1862278d0042612452565b105b15610b505760405181907fe5d523abd1622a22108bd89775d5e1d63b059136b93567fcab23093e3b70275e90600090a250505050565b60008181526008602052604090205460ff1615610bcb576040517f08c379a00000000000000000000000000000000000000000000000000000000081526004016107239060208082526004908201527f646f6e6500000000000000000000000000000000000000000000000000000000604082015260600190565b60055460008281526009602052604090205410610cb7576000818152600860205260409081902080547fffffffffffffffffffffffffffffffffffffffffffffffffffffffffffffff00166001179055610c8b908290863590610c3490606089019089016120de565b610c446080890160608a016120de565b610c5160c08a018a612465565b8080601f01602080910402602001604051908101604052809392919081815260200183838082843760009201919091525061163792505050565b60405181907ff2bb60047b972f58a599102daf732826d8ff09134d9ca0f62008a72b3fff08c190600090a25b50505050565b6060610cc9600661179f565b905090565b6000610cc960066117ac565b610ce2610fe8565b610cec60006117b6565b565b600154339073ffffffffffffffffffffffffffffffffffffffff168114610d97576040517f08c379a000000000000000000000000000000000000000000000000000000000815260206004820152602960248201527f4f776e61626c6532537465703a2063616c6c6572206973206e6f74207468652060448201527f6e6577206f776e657200000000000000000000000000000000000000000000006064820152608401610723565b61072c816117b6565b610da8610fe8565b61058182826117e7565b610dba610fe8565b61072c81611872565b6000610dd0600683611911565b92915050565b610dde610fe8565b610de9600682611940565b61072c576040517f08c379a000000000000000000000000000000000000000000000000000000000815260206004820152600360248201527f21726d00000000000000000000000000000000000000000000000000000000006044820152606401610723565b6060600380546105949061226e565b610e66610fe8565b6001805473ffffffffffffffffffffffffffffffffffffffff83167fffffffffffffffffffffffff00000000000000000000000000000000000000009091168117909155610ec960005473ffffffffffffffffffffffffffffffffffffffff1690565b73ffffffffffffffffffffffffffffffffffffffff167f38d16b8cac22d99fc7c124b9cd0de2d3fa1faef420bfe791d8c362d765e2270060405160405180910390a350565b6040517f08c379a000000000000000000000000000000000000000000000000000000000815260206004820152600e60248201527f556e696d706c656d656e746564210000000000000000000000000000000000006044820152600090606401610723565b6000805473ffffffffffffffffffffffffffffffffffffffff8381167fffffffffffffffffffffffff0000000000000000000000000000000000000000831681178455604051919092169283917f8be0079c531659141344cd1fd0a4f28419497f9722a3daafe3b4186f6b6457e09190a35050565b60005473ffffffffffffffffffffffffffffffffffffffff163314610cec576040517f08c379a000000000000000000000000000000000000000000000000000000000815260206004820181905260248201527f4f776e61626c653a2063616c6c6572206973206e6f7420746865206f776e65726044820152606401610723565b60036110758282612519565b507f3d7a9962f6da134f6896430d6867bd08e3546dbf9570df877e7cec39ba4305f0816040516110a59190611df6565b60405180910390a150565b6000806110bf838501856127a4565b80515190915046890361112e576040517f08c379a000000000000000000000000000000000000000000000000000000000815260206004820152600a60248201527f21746f436861696e4964000000000000000000000000000000000000000000006044820152606401610723565b816060015151811461119e576040517f08c379a00000000000000000000000000000000000000000000000000000000081526004016107239060208082526004908201527f216c656e00000000000000000000000000000000000000000000000000000000604082015260600190565b816080015151811461120e576040517f08c379a00000000000000000000000000000000000000000000000000000000081526004016107239060208082526004908201527f216c656e00000000000000000000000000000000000000000000000000000000604082015260600190565b816040015142118061122f5750604082015161122d62278d0042612452565b105b15611296576040517f08c379a000000000000000000000000000000000000000000000000000000000815260206004820152600b60248201527f2165787069726174696f6e0000000000000000000000000000000000000000006044820152606401610723565b60006040518060e001604052806112aa4690565b81526020018b81526020018c73ffffffffffffffffffffffffffffffffffffffff1681526020018a73ffffffffffffffffffffffffffffffffffffffff168152602001846020015181526020018460400151815260200189898080601f0160208091040260200160405190810160405280939291908181526020018383808284376000920182905250939094525050604051929350917f3e44b7180000000000000000000000000000000000000000000000000000000091506113719084906024016122c1565b604080517fffffffffffffffffffffffffffffffffffffffffffffffffffffffffffffffe08184030181529190526020810180517bffffffffffffffffffffffffffffffffffffffffffffffffffffffff167fffffffff0000000000000000000000000000000000000000000000000000000090931692909217909152905060006113fb83610617565b9050611408858d84611962565b807f65e07acd2d207f6e440b2207021e48d61e02573a224c7c5006aaf3d28abec1338460405161143891906122c1565b60405180910390a29c9b505050505050505050505050565b60006114728373ffffffffffffffffffffffffffffffffffffffff8416611b5f565b9392505050565b600060343610156114e6576040517f08c379a000000000000000000000000000000000000000000000000000000000815260206004820152600c60248201527f2166726f6d436861696e496400000000000000000000000000000000000000006044820152606401610723565b507fffffffffffffffffffffffffffffffffffffffffffffffffffffffffffffffcc36013590565b60008181526004602052604090205473ffffffffffffffffffffffffffffffffffffffff168061159a576040517f08c379a000000000000000000000000000000000000000000000000000000000815260206004820152600560248201527f21706565720000000000000000000000000000000000000000000000000000006044820152606401610723565b919050565b6000601436101561160c576040517f08c379a000000000000000000000000000000000000000000000000000000000815260206004820152600960248201527f2166726f6d4461707000000000000000000000000000000000000000000000006044820152606401610723565b507fffffffffffffffffffffffffffffffffffffffffffffffffffffffffffffffec36013560601c90565b81611643600682611911565b156116aa576040517f08c379a000000000000000000000000000000000000000000000000000000000815260206004820152600760248201527f21746f44617070000000000000000000000000000000000000000000000000006044820152606401610723565b6000808473ffffffffffffffffffffffffffffffffffffffff1634858a8a8a6040516020016116dc949392919061286d565b604080517fffffffffffffffffffffffffffffffffffffffffffffffffffffffffffffffe081840301815290829052611714916128c1565b60006040518083038185875af1925050503d8060008114611751576040519150601f19603f3d011682016040523d82523d6000602084013e611756565b606091505b5091509150877fea087580bb17f433441f3b6c0c0b80cae92ee74a8d7f50050388646d9ffd1431838360405161178d9291906128dd565b60405180910390a25050505050505050565b6060600061147283611bae565b6000610dd0825490565b600180547fffffffffffffffffffffffff000000000000000000000000000000000000000016905561072c81610f73565b60008281526004602090815260409182902080547fffffffffffffffffffffffff00000000000000000000000000000000000000001673ffffffffffffffffffffffffffffffffffffffff85169081179091558251858152918201527fcd44d3edde5f7e508840db73b2e39b71d725825fca31c7b3b5f154fe805554db910160405180910390a15050565b600081116118dc576040517f08c379a000000000000000000000000000000000000000000000000000000000815260206004820152600a60248201527f217468726573686f6c64000000000000000000000000000000000000000000006044820152606401610723565b60058190556040518181527f46e8115bf463f9c29a9424fe152addef1bfaf2b43180d19bb7c2c78cc0ff1ebf906020016110a5565b73ffffffffffffffffffffffffffffffffffffffff811660009081526001830160205260408120541515611472565b60006114728373ffffffffffffffffffffffffffffffffffffffff8416611c0a565b8251516000805b82811015611aee57600086608001518281518110611989576119896128f8565b602002602001015190506000876000015183815181106119ab576119ab6128f8565b602002602001015190506119be81610dc3565b611a24576040517f08c379a000000000000000000000000000000000000000000000000000000000815260206004820152600860248201527f21747275737465640000000000000000000000000000000000000000000000006044820152606401610723565b8073ffffffffffffffffffffffffffffffffffffffff166316fe55ae8389611a4b8b61150e565b8a8d606001518981518110611a6257611a626128f8565b60200260200101516040518663ffffffff1660e01b8152600401611a899493929190612927565b60206040518083038185885af1158015611aa7573d6000803e3d6000fd5b50505050506040513d601f19601f82011682018060405250810190611acc9190612979565b50611ad78285612452565b935050508080611ae69061241a565b915050611969565b50348114611b58576040517f08c379a000000000000000000000000000000000000000000000000000000000815260206004820152600560248201527f21666565730000000000000000000000000000000000000000000000000000006044820152606401610723565b5050505050565b6000818152600183016020526040812054611ba657508154600181810184556000848152602080822090930184905584548482528286019093526040902091909155610dd0565b506000610dd0565b606081600001805480602002602001604051908101604052809291908181526020018280548015611bfe57602002820191906000526020600020905b815481526020019060010190808311611bea575b50505050509050919050565b60008181526001830160205260408120548015611cf3576000611c2e600183612992565b8554909150600090611c4290600190612992565b9050818114611ca7576000866000018281548110611c6257611c626128f8565b9060005260206000200154905080876000018481548110611c8557611c856128f8565b6000918252602080832090910192909255918252600188019052604090208390555b8554869080611cb857611cb86129a5565b600190038181906000526020600020016000905590558560010160008681526020019081526020016000206000905560019350505050610dd0565b6000915050610dd0565b60008083601f840112611d0f57600080fd5b50813567ffffffffffffffff811115611d2757600080fd5b602083019150836020828501011115611d3f57600080fd5b9250929050565b60008060208385031215611d5957600080fd5b823567ffffffffffffffff811115611d7057600080fd5b611d7c85828601611cfd565b90969095509350505050565b60005b83811015611da3578181015183820152602001611d8b565b50506000910152565b60008151808452611dc4816020860160208601611d88565b601f017fffffffffffffffffffffffffffffffffffffffffffffffffffffffffffffffe0169290920160200192915050565b6020815260006114726020830184611dac565b7f4e487b7100000000000000000000000000000000000000000000000000000000600052604160045260246000fd5b60405160e0810167ffffffffffffffff81118282101715611e5b57611e5b611e09565b60405290565b60405160a0810167ffffffffffffffff81118282101715611e5b57611e5b611e09565b604051601f82017fffffffffffffffffffffffffffffffffffffffffffffffffffffffffffffffe016810167ffffffffffffffff81118282101715611ecb57611ecb611e09565b604052919050565b803573ffffffffffffffffffffffffffffffffffffffff8116811461159a57600080fd5b600082601f830112611f0857600080fd5b813567ffffffffffffffff811115611f2257611f22611e09565b611f5360207fffffffffffffffffffffffffffffffffffffffffffffffffffffffffffffffe0601f84011601611e84565b818152846020838601011115611f6857600080fd5b816020850160208301376000918101602001919091529392505050565b600060e08284031215611f9757600080fd5b611f9f611e38565b90508135815260208201356020820152611fbb60408301611ed3565b6040820152611fcc60608301611ed3565b60608201526080820135608082015260a082013560a082015260c082013567ffffffffffffffff811115611fff57600080fd5b61200b84828501611ef7565b60c08301525092915050565b60006020828403121561202957600080fd5b813567ffffffffffffffff81111561204057600080fd5b61204c84828501611f85565b949350505050565b6000806000806000806080878903121561206d57600080fd5b8635955061207d60208801611ed3565b9450604087013567ffffffffffffffff8082111561209a57600080fd5b6120a68a838b01611cfd565b909650945060608901359150808211156120bf57600080fd5b506120cc89828a01611cfd565b979a9699509497509295939492505050565b6000602082840312156120f057600080fd5b61147282611ed3565b60006020828403121561210b57600080fd5b813567ffffffffffffffff81111561212257600080fd5b820160e0818503121561147257600080fd5b6000806040838503121561214757600080fd5b8235915061215760208401611ed3565b90509250929050565b6020808252825182820181905260009190848201906040850190845b818110156121ae57835173ffffffffffffffffffffffffffffffffffffffff168352928401929184019160010161217c565b50909695505050505050565b6000602082840312156121cc57600080fd5b5035919050565b600080600080600080600060a0888a0312156121ee57600080fd5b873596506121fe60208901611ed3565b955061220c60408901611ed3565b9450606088013567ffffffffffffffff8082111561222957600080fd5b6122358b838c01611cfd565b909650945060808a013591508082111561224e57600080fd5b5061225b8a828b01611cfd565b989b979a50959850939692959293505050565b600181811c9082168061228257607f821691505b6020821081036122bb577f4e487b7100000000000000000000000000000000000000000000000000000000600052602260045260246000fd5b50919050565b6020815281516020820152602082015160408201526000604083015173ffffffffffffffffffffffffffffffffffffffff80821660608501528060608601511660808501525050608083015160a083015260a083015160c083015260c083015160e08084015261204c610100840182611dac565b8183528181602085013750600060208284010152600060207fffffffffffffffffffffffffffffffffffffffffffffffffffffffffffffffe0601f840116840101905092915050565b600073ffffffffffffffffffffffffffffffffffffffff808a16835288602084015280881660408401525060a060608301526123be60a083018688612335565b82810360808401526123d1818587612335565b9a9950505050505050505050565b6000610dd03683611f85565b7f4e487b7100000000000000000000000000000000000000000000000000000000600052601160045260246000fd5b60007fffffffffffffffffffffffffffffffffffffffffffffffffffffffffffffffff820361244b5761244b6123eb565b5060010190565b80820180821115610dd057610dd06123eb565b60008083357fffffffffffffffffffffffffffffffffffffffffffffffffffffffffffffffe184360301811261249a57600080fd5b83018035915067ffffffffffffffff8211156124b557600080fd5b602001915036819003821315611d3f57600080fd5b601f82111561251457600081815260208120601f850160051c810160208610156124f15750805b601f850160051c820191505b81811015612510578281556001016124fd565b5050505b505050565b815167ffffffffffffffff81111561253357612533611e09565b61254781612541845461226e565b846124ca565b602080601f83116001811461259a57600084156125645750858301515b7fffffffffffffffffffffffffffffffffffffffffffffffffffffffffffffffff600386901b1c1916600185901b178555612510565b6000858152602081207fffffffffffffffffffffffffffffffffffffffffffffffffffffffffffffffe08616915b828110156125e7578886015182559484019460019091019084016125c8565b508582101561262357878501517fffffffffffffffffffffffffffffffffffffffffffffffffffffffffffffffff600388901b60f8161c191681555b5050505050600190811b01905550565b600067ffffffffffffffff82111561264d5761264d611e09565b5060051b60200190565b600082601f83011261266857600080fd5b8135602061267d61267883612633565b611e84565b82815260059290921b8401810191818101908684111561269c57600080fd5b8286015b848110156126be576126b181611ed3565b83529183019183016126a0565b509695505050505050565b600082601f8301126126da57600080fd5b813560206126ea61267883612633565b82815260059290921b8401810191818101908684111561270957600080fd5b8286015b848110156126be57803567ffffffffffffffff81111561272d5760008081fd5b61273b8986838b0101611ef7565b84525091830191830161270d565b600082601f83011261275a57600080fd5b8135602061276a61267883612633565b82815260059290921b8401810191818101908684111561278957600080fd5b8286015b848110156126be578035835291830191830161278d565b6000602082840312156127b657600080fd5b813567ffffffffffffffff808211156127ce57600080fd5b9083019060a082860312156127e257600080fd5b6127ea611e61565b8235828111156127f957600080fd5b61280587828601612657565b825250602083013560208201526040830135604082015260608301358281111561282e57600080fd5b61283a878286016126c9565b60608301525060808301358281111561285257600080fd5b61285e87828601612749565b60808301525095945050505050565b6000855161287f818460208a01611d88565b9190910193845250602083019190915260601b7fffffffffffffffffffffffffffffffffffffffff000000000000000000000000166040820152605401919050565b600082516128d3818460208701611d88565b9190910192915050565b821515815260406020820152600061204c6040830184611dac565b7f4e487b7100000000000000000000000000000000000000000000000000000000600052603260045260246000fd5b84815273ffffffffffffffffffffffffffffffffffffffff8416602082015260806040820152600061295c6080830185611dac565b828103606084015261296e8185611dac565b979650505050505050565b60006020828403121561298b57600080fd5b5051919050565b81810381811115610dd057610dd06123eb565b7f4e487b7100000000000000000000000000000000000000000000000000000000600052603160045260246000fdfea2646970667358221220397c59df253f0291f1b8bd58012c9556aded80c9c8c02a2c2cedd865444c3cca64736f6c63430008110033",
	"devdoc": {
		"kind": "dev",
		"methods": {
			"acceptOwnership()": {
				"details": "The new owner accepts the ownership transfer."
			},
			"name()": {
				"returns": {
					"_0": "The MessagePort name."
				}
			},
			"owner()": {
				"details": "Returns the address of the current owner."
			},
			"pendingOwner()": {
				"details": "Returns the address of the pending owner."
			},
			"renounceOwnership()": {
				"details": "Leaves the contract without owner. It will not be possible to call `onlyOwner` functions. Can only be called by the current owner. NOTE: Renouncing ownership will leave the contract without an owner, thereby disabling any functionality that is only available to the owner."
			},
			"send(uint256,address,bytes,bytes)": {
				"details": "Send a cross-chain message over the MessagePort.",
				"params": {
					"message": "The calldata which encoded by ABI Encoding.",
					"params": "Extend parameters to adapt to different message protocols.",
					"toChainId": "The message destination chain id. <https://eips.ethereum.org/EIPS/eip-155>",
					"toDapp": "The user application contract address which receive the message."
				},
				"returns": {
					"msgId": "Return the ID of message."
				}
			},
			"transferOwnership(address)": {
				"details": "Starts the ownership transfer of the contract to a new account. Replaces the pending transfer if there is one. Can only be called by the current owner."
			},
			"uri()": {
				"returns": {
					"_0": "The port metadata uri."
				}
			}
		},
		"version": 1
	},
	"userdoc": {
		"kind": "user",
		"methods": {
			"deliverifyOf(bytes32,address)": {
				"notice": "protect msg repeat by msgport"
			},
			"name()": {
				"notice": "Get the port name, it's globally unique and immutable."
			},
			"send(uint256,address,bytes,bytes)": {
				"notice": "Send a cross-chain message over the MessagePort."
			}
		},
		"version": 1
	},
	"gitCommit": "f0193126eda4e034175619438fc55d4e32448dd8",
	"sourceName": "lib/darwinia-msgport/src/ports/MultiPort.sol",
	"chainId": "421614",
	"linkReferences": {},
	"deployedLinkReferences": {},
	"history": []
}