{
	"_format": "sphinx-sol-ct-artifact-1",
	"merkleRoot": "0xeb6a35e4fddc8b21c92d80652c675c9f4e46c7f86af831d3e59ad380dc47e9ba",
	"contractName": "XAccountFactory",
	"address": "0x8c85e3b3094199b16Fa6B5A24155F580E3Fd9C91",
	"abi": [
		{
			"type": "constructor",
			"inputs": [
				{
					"name": "safeMsgportModule",
					"type": "address",
					"internalType": "address"
				}
			],
			"stateMutability": "nonpayable"
		},
		{
			"type": "function",
			"name": "SAFE_MSGPORT_MODULE",
			"inputs": [],
			"outputs": [
				{
					"name": "",
					"type": "address",
					"internalType": "address"
				}
			],
			"stateMutability": "view"
		},
		{
			"type": "function",
			"name": "create",
			"inputs": [
				{
					"name": "salt",
					"type": "bytes32",
					"internalType": "bytes32"
				},
				{
					"name": "fromChainId",
					"type": "uint256",
					"internalType": "uint256"
				},
				{
					"name": "owner",
					"type": "address",
					"internalType": "address"
				},
				{
					"name": "port",
					"type": "address",
					"internalType": "address"
				},
				{
					"name": "recovery",
					"type": "address",
					"internalType": "address"
				}
			],
			"outputs": [
				{
					"name": "",
					"type": "address",
					"internalType": "address"
				},
				{
					"name": "",
					"type": "address",
					"internalType": "address"
				}
			],
			"stateMutability": "nonpayable"
		},
		{
			"type": "function",
			"name": "safeFactory",
			"inputs": [],
			"outputs": [
				{
					"name": "",
					"type": "address",
					"internalType": "contract ISafeProxyFactory"
				}
			],
			"stateMutability": "view"
		},
		{
			"type": "function",
			"name": "safeFallbackHandler",
			"inputs": [],
			"outputs": [
				{
					"name": "",
					"type": "address",
					"internalType": "address"
				}
			],
			"stateMutability": "view"
		},
		{
			"type": "function",
			"name": "safeSingletonL2",
			"inputs": [],
			"outputs": [
				{
					"name": "",
					"type": "address",
					"internalType": "address"
				}
			],
			"stateMutability": "view"
		},
		{
			"type": "function",
			"name": "setupModules",
			"inputs": [
				{
					"name": "module",
					"type": "address",
					"internalType": "address"
				},
				{
					"name": "recovery",
					"type": "address",
					"internalType": "address"
				}
			],
			"outputs": [],
			"stateMutability": "nonpayable"
		},
		{
			"type": "function",
			"name": "xAccountOf",
			"inputs": [
				{
					"name": "deployer",
					"type": "address",
					"internalType": "address"
				},
				{
					"name": "salt",
					"type": "bytes32",
					"internalType": "bytes32"
				},
				{
					"name": "fromChainId",
					"type": "uint256",
					"internalType": "uint256"
				},
				{
					"name": "owner",
					"type": "address",
					"internalType": "address"
				}
			],
			"outputs": [
				{
					"name": "",
					"type": "address",
					"internalType": "address"
				},
				{
					"name": "",
					"type": "address",
					"internalType": "address"
				}
			],
			"stateMutability": "view"
		},
		{
			"type": "event",
			"name": "XAccountCreated",
			"inputs": [
				{
					"name": "deployer",
					"type": "address",
					"indexed": false,
					"internalType": "address"
				},
				{
					"name": "salt",
					"type": "bytes32",
					"indexed": false,
					"internalType": "bytes32"
				},
				{
					"name": "fromChainId",
					"type": "uint256",
					"indexed": false,
					"internalType": "uint256"
				},
				{
					"name": "owner",
					"type": "address",
					"indexed": false,
					"internalType": "address"
				},
				{
					"name": "xAccount",
					"type": "address",
					"indexed": false,
					"internalType": "address"
				},
				{
					"name": "module",
					"type": "address",
					"indexed": false,
					"internalType": "address"
				},
				{
					"name": "port",
					"type": "address",
					"indexed": false,
					"internalType": "address"
				},
				{
					"name": "recovery",
					"type": "address",
					"indexed": false,
					"internalType": "address"
				}
			],
			"anonymous": false
		}
	],
	"solcInputHash": "496eb34cb62ad8f36c9d6cdfa69cdef4",
	"args": [
		"0x002dD94114497E86b5493E2D048C731e4BeBdDD0"
	],
	"bytecode": "0x60a060405234801561001057600080fd5b506040516111d53803806111d583398101604081905261002f91610040565b6001600160a01b0316608052610070565b60006020828403121561005257600080fd5b81516001600160a01b038116811461006957600080fd5b9392505050565b6080516111446100916000396000818160cc015261078301526111446000f3fe608060405234801561001057600080fd5b506004361061007d5760003560e01c80633a0f253a1161005b5780633a0f253a14610103578063a03bad5a14610143578063af76fad81461015e578063beccf5db1461017957600080fd5b8063131e7e1c14610082578063263b93f8146100c7578063382f28b8146100ee575b600080fd5b61009d73a6b71e26c5e0845f74c812102ca7114b6a896ab281565b60405173ffffffffffffffffffffffffffffffffffffffff90911681526020015b60405180910390f35b61009d7f000000000000000000000000000000000000000000000000000000000000000081565b6101016100fc366004610d6c565b61018c565b005b610116610111366004610d9f565b6102b0565b6040805173ffffffffffffffffffffffffffffffffffffffff9384168152929091166020830152016100be565b61009d73f48f2b2d2a534e402487b3ee7c18c33aec0fe5e481565b61009d733e5c63644e683549055b9be8653de26e0b4cd36e81565b610116610187366004610de5565b61032e565b6040517f610b592500000000000000000000000000000000000000000000000000000000815273ffffffffffffffffffffffffffffffffffffffff831660048201523090819063610b592590602401600060405180830381600087803b1580156101f557600080fd5b505af1158015610209573d6000803e3d6000fd5b5050505073ffffffffffffffffffffffffffffffffffffffff8216156102ab576040517f610b592500000000000000000000000000000000000000000000000000000000815273ffffffffffffffffffffffffffffffffffffffff838116600483015282169063610b592590602401600060405180830381600087803b15801561029257600080fd5b505af11580156102a6573d6000803e3d6000fd5b505050505b505050565b6040517fffffffffffffffffffffffffffffffffffffffff000000000000000000000000606086811b82166020840152603483018690526054830185905283901b1660748201526000908190608801604051602081830303815290604052805190602001209450610321853061034c565b9150915094509492505050565b60008061033e8787878787610553565b915091509550959350505050565b604080518082018252601081527f67363d3d37363d34f03d5260086018f30000000000000000000000000000000060209182015290517fff00000000000000000000000000000000000000000000000000000000000000918101919091527fffffffffffffffffffffffffffffffffffffffff000000000000000000000000606083901b166021820152603581018390527f21c35dbe1b344a2488cf3321d6ce542f8e9f305544ff09e4993a62319a497c1f60558201526000908190819061042b906075015b6040516020818303038152906040528051906020012090565b6040517fd69400000000000000000000000000000000000000000000000000000000000060208201527fffffffffffffffffffffffffffffffffffffffff000000000000000000000000606083901b1660228201527f010000000000000000000000000000000000000000000000000000000000000060368201529091506000906104b890603701610412565b6040517fd69400000000000000000000000000000000000000000000000000000000000060208201527fffffffffffffffffffffffffffffffffffffffff000000000000000000000000606085901b1660228201527f0200000000000000000000000000000000000000000000000000000000000000603682015290915060009061054590603701610412565b919791965090945050505050565b6040517fffffffffffffffffffffffffffffffffffffffff00000000000000000000000033606081811b83166020850152603484018990526054840188905286901b90911660748301526000918291906088016040516020818303038152906040528051906020012097506105c78861066e565b90935091506105d78383866107b3565b6105e48284898489610942565b6040805173ffffffffffffffffffffffffffffffffffffffff8381168252602082018b90528183018a90528881166060830152858116608083015284811660a083015287811660c0830152861660e082015290517f2822b60b934d114049a5a3823238adb4078da16f025aa289d535189c47fc31a3918190036101000190a1509550959350505050565b60008061067b833061034c565b8092508193505050600073a6b71e26c5e0845f74c812102ca7114b6a896ab273ffffffffffffffffffffffffffffffffffffffff166353e5d9356040518163ffffffff1660e01b8152600401600060405180830381865afa1580156106e4573d6000803e3d6000fd5b505050506040513d6000823e601f3d9081017fffffffffffffffffffffffffffffffffffffffffffffffffffffffffffffffe016820160405261072a9190810190610e8f565b9050600081733e5c63644e683549055b9be8653de26e0b4cd36e73ffffffffffffffffffffffffffffffffffffffff1660405160200161076b929190610f5a565b60405160208183030381529060405290506107a785827f00000000000000000000000000000000000000000000000000000000000000006109e1565b90969095509350505050565b6040805173ffffffffffffffffffffffffffffffffffffffff848116602483015283166044808301919091528251808303909101815260649091018252602080820180517bffffffffffffffffffffffffffffffffffffffffffffffffffffffff167f382f28b800000000000000000000000000000000000000000000000000000000179052825160018082528185019094529192916000918390828101908036833701905050905073dddddddddddddddddddddddddddddddddddddddd8160008151811061088457610884610f7c565b73ffffffffffffffffffffffffffffffffffffffff92831660209182029290920101526040517fb63e800d0000000000000000000000000000000000000000000000000000000081529087169063b63e800d9061090890849086903090899073f48f2b2d2a534e402487b3ee7c18c33aec0fe5e49060009081908190600401610ff5565b600060405180830381600087803b15801561092257600080fd5b505af1158015610936573d6000803e3d6000fd5b50505050505050505050565b6040517f3bc4d8d200000000000000000000000000000000000000000000000000000000815273ffffffffffffffffffffffffffffffffffffffff85811660048301526024820185905283811660448301528281166064830152861690633bc4d8d290608401600060405180830381600087803b1580156109c257600080fd5b505af11580156109d6573d6000803e3d6000fd5b505050505050505050565b60008060006040518060400160405280601081526020017f67363d3d37363d34f03d5260086018f30000000000000000000000000000000081525090506000868251602084016000f5905073ffffffffffffffffffffffffffffffffffffffff8116610aae576040517f08c379a000000000000000000000000000000000000000000000000000000000815260206004820152601160248201527f4445504c4f594d454e545f4641494c454400000000000000000000000000000060448201526064015b60405180910390fd5b610ab8873061034c565b604051919550935060009073ffffffffffffffffffffffffffffffffffffffff831690610ae69089906110f2565b6000604051808303816000865af19150503d8060008114610b23576040519150601f19603f3d011682016040523d82523d6000602084013e610b28565b606091505b50509050808015610b4f575073ffffffffffffffffffffffffffffffffffffffff85163b15155b610bb5576040517f08c379a000000000000000000000000000000000000000000000000000000000815260206004820152601660248201527f494e495449414c495a4154494f4e5f4641494c454431000000000000000000006044820152606401610aa5565b6000610bc087610cc4565b90508273ffffffffffffffffffffffffffffffffffffffff1681604051610be791906110f2565b6000604051808303816000865af19150503d8060008114610c24576040519150601f19603f3d011682016040523d82523d6000602084013e610c29565b606091505b505080925050818015610c52575073ffffffffffffffffffffffffffffffffffffffff85163b15155b610cb8576040517f08c379a000000000000000000000000000000000000000000000000000000000815260206004820152601660248201527f494e495449414c495a4154494f4e5f4641494c454432000000000000000000006044820152606401610aa5565b50505050935093915050565b604080516037808252606082810190935283831b9160009160208201818036833750507f3d602d80600a3d3981f3363d3d373d3d3d363d730000000000000000000000006020830152506034810192909252507f5af43d82803e903d91602b57fd5bf30000000000000000000000000000000000604882015292915050565b803573ffffffffffffffffffffffffffffffffffffffff81168114610d6757600080fd5b919050565b60008060408385031215610d7f57600080fd5b610d8883610d43565b9150610d9660208401610d43565b90509250929050565b60008060008060808587031215610db557600080fd5b610dbe85610d43565b93506020850135925060408501359150610dda60608601610d43565b905092959194509250565b600080600080600060a08688031215610dfd57600080fd5b8535945060208601359350610e1460408701610d43565b9250610e2260608701610d43565b9150610e3060808701610d43565b90509295509295909350565b7f4e487b7100000000000000000000000000000000000000000000000000000000600052604160045260246000fd5b60005b83811015610e86578181015183820152602001610e6e565b50506000910152565b600060208284031215610ea157600080fd5b815167ffffffffffffffff80821115610eb957600080fd5b818401915084601f830112610ecd57600080fd5b815181811115610edf57610edf610e3c565b604051601f82017fffffffffffffffffffffffffffffffffffffffffffffffffffffffffffffffe0908116603f01168101908382118183101715610f2557610f25610e3c565b81604052828152876020848701011115610f3e57600080fd5b610f4f836020830160208801610e6b565b979650505050505050565b60008351610f6c818460208801610e6b565b9190910191825250602001919050565b7f4e487b7100000000000000000000000000000000000000000000000000000000600052603260045260246000fd5b60008151808452610fc3816020860160208601610e6b565b601f017fffffffffffffffffffffffffffffffffffffffffffffffffffffffffffffffe0169290920160200192915050565b6101008082528951908201819052600090610120830190602090818d01845b8281101561104657815173ffffffffffffffffffffffffffffffffffffffff1685529383019390830190600101611014565b50505083018a905273ffffffffffffffffffffffffffffffffffffffff89166040840152828103606084015261107c8189610fab565b9150506110a1608083018773ffffffffffffffffffffffffffffffffffffffff169052565b73ffffffffffffffffffffffffffffffffffffffff851660a08301528360c08301526110e560e083018473ffffffffffffffffffffffffffffffffffffffff169052565b9998505050505050505050565b60008251611104818460208701610e6b565b919091019291505056fea264697066735822122043a9c93d0525e66a28cf1e3e6b04b2c965de53cb46e25991afa47e41a071295364736f6c63430008110033",
	"deployedBytecode": "0x608060405234801561001057600080fd5b506004361061007d5760003560e01c80633a0f253a1161005b5780633a0f253a14610103578063a03bad5a14610143578063af76fad81461015e578063beccf5db1461017957600080fd5b8063131e7e1c14610082578063263b93f8146100c7578063382f28b8146100ee575b600080fd5b61009d73a6b71e26c5e0845f74c812102ca7114b6a896ab281565b60405173ffffffffffffffffffffffffffffffffffffffff90911681526020015b60405180910390f35b61009d7f000000000000000000000000002dd94114497e86b5493e2d048c731e4bebddd081565b6101016100fc366004610d6c565b61018c565b005b610116610111366004610d9f565b6102b0565b6040805173ffffffffffffffffffffffffffffffffffffffff9384168152929091166020830152016100be565b61009d73f48f2b2d2a534e402487b3ee7c18c33aec0fe5e481565b61009d733e5c63644e683549055b9be8653de26e0b4cd36e81565b610116610187366004610de5565b61032e565b6040517f610b592500000000000000000000000000000000000000000000000000000000815273ffffffffffffffffffffffffffffffffffffffff831660048201523090819063610b592590602401600060405180830381600087803b1580156101f557600080fd5b505af1158015610209573d6000803e3d6000fd5b5050505073ffffffffffffffffffffffffffffffffffffffff8216156102ab576040517f610b592500000000000000000000000000000000000000000000000000000000815273ffffffffffffffffffffffffffffffffffffffff838116600483015282169063610b592590602401600060405180830381600087803b15801561029257600080fd5b505af11580156102a6573d6000803e3d6000fd5b505050505b505050565b6040517fffffffffffffffffffffffffffffffffffffffff000000000000000000000000606086811b82166020840152603483018690526054830185905283901b1660748201526000908190608801604051602081830303815290604052805190602001209450610321853061034c565b9150915094509492505050565b60008061033e8787878787610553565b915091509550959350505050565b604080518082018252601081527f67363d3d37363d34f03d5260086018f30000000000000000000000000000000060209182015290517fff00000000000000000000000000000000000000000000000000000000000000918101919091527fffffffffffffffffffffffffffffffffffffffff000000000000000000000000606083901b166021820152603581018390527f21c35dbe1b344a2488cf3321d6ce542f8e9f305544ff09e4993a62319a497c1f60558201526000908190819061042b906075015b6040516020818303038152906040528051906020012090565b6040517fd69400000000000000000000000000000000000000000000000000000000000060208201527fffffffffffffffffffffffffffffffffffffffff000000000000000000000000606083901b1660228201527f010000000000000000000000000000000000000000000000000000000000000060368201529091506000906104b890603701610412565b6040517fd69400000000000000000000000000000000000000000000000000000000000060208201527fffffffffffffffffffffffffffffffffffffffff000000000000000000000000606085901b1660228201527f0200000000000000000000000000000000000000000000000000000000000000603682015290915060009061054590603701610412565b919791965090945050505050565b6040517fffffffffffffffffffffffffffffffffffffffff00000000000000000000000033606081811b83166020850152603484018990526054840188905286901b90911660748301526000918291906088016040516020818303038152906040528051906020012097506105c78861066e565b90935091506105d78383866107b3565b6105e48284898489610942565b6040805173ffffffffffffffffffffffffffffffffffffffff8381168252602082018b90528183018a90528881166060830152858116608083015284811660a083015287811660c0830152861660e082015290517f2822b60b934d114049a5a3823238adb4078da16f025aa289d535189c47fc31a3918190036101000190a1509550959350505050565b60008061067b833061034c565b8092508193505050600073a6b71e26c5e0845f74c812102ca7114b6a896ab273ffffffffffffffffffffffffffffffffffffffff166353e5d9356040518163ffffffff1660e01b8152600401600060405180830381865afa1580156106e4573d6000803e3d6000fd5b505050506040513d6000823e601f3d9081017fffffffffffffffffffffffffffffffffffffffffffffffffffffffffffffffe016820160405261072a9190810190610e8f565b9050600081733e5c63644e683549055b9be8653de26e0b4cd36e73ffffffffffffffffffffffffffffffffffffffff1660405160200161076b929190610f5a565b60405160208183030381529060405290506107a785827f000000000000000000000000002dd94114497e86b5493e2d048c731e4bebddd06109e1565b90969095509350505050565b6040805173ffffffffffffffffffffffffffffffffffffffff848116602483015283166044808301919091528251808303909101815260649091018252602080820180517bffffffffffffffffffffffffffffffffffffffffffffffffffffffff167f382f28b800000000000000000000000000000000000000000000000000000000179052825160018082528185019094529192916000918390828101908036833701905050905073dddddddddddddddddddddddddddddddddddddddd8160008151811061088457610884610f7c565b73ffffffffffffffffffffffffffffffffffffffff92831660209182029290920101526040517fb63e800d0000000000000000000000000000000000000000000000000000000081529087169063b63e800d9061090890849086903090899073f48f2b2d2a534e402487b3ee7c18c33aec0fe5e49060009081908190600401610ff5565b600060405180830381600087803b15801561092257600080fd5b505af1158015610936573d6000803e3d6000fd5b50505050505050505050565b6040517f3bc4d8d200000000000000000000000000000000000000000000000000000000815273ffffffffffffffffffffffffffffffffffffffff85811660048301526024820185905283811660448301528281166064830152861690633bc4d8d290608401600060405180830381600087803b1580156109c257600080fd5b505af11580156109d6573d6000803e3d6000fd5b505050505050505050565b60008060006040518060400160405280601081526020017f67363d3d37363d34f03d5260086018f30000000000000000000000000000000081525090506000868251602084016000f5905073ffffffffffffffffffffffffffffffffffffffff8116610aae576040517f08c379a000000000000000000000000000000000000000000000000000000000815260206004820152601160248201527f4445504c4f594d454e545f4641494c454400000000000000000000000000000060448201526064015b60405180910390fd5b610ab8873061034c565b604051919550935060009073ffffffffffffffffffffffffffffffffffffffff831690610ae69089906110f2565b6000604051808303816000865af19150503d8060008114610b23576040519150601f19603f3d011682016040523d82523d6000602084013e610b28565b606091505b50509050808015610b4f575073ffffffffffffffffffffffffffffffffffffffff85163b15155b610bb5576040517f08c379a000000000000000000000000000000000000000000000000000000000815260206004820152601660248201527f494e495449414c495a4154494f4e5f4641494c454431000000000000000000006044820152606401610aa5565b6000610bc087610cc4565b90508273ffffffffffffffffffffffffffffffffffffffff1681604051610be791906110f2565b6000604051808303816000865af19150503d8060008114610c24576040519150601f19603f3d011682016040523d82523d6000602084013e610c29565b606091505b505080925050818015610c52575073ffffffffffffffffffffffffffffffffffffffff85163b15155b610cb8576040517f08c379a000000000000000000000000000000000000000000000000000000000815260206004820152601660248201527f494e495449414c495a4154494f4e5f4641494c454432000000000000000000006044820152606401610aa5565b50505050935093915050565b604080516037808252606082810190935283831b9160009160208201818036833750507f3d602d80600a3d3981f3363d3d373d3d3d363d730000000000000000000000006020830152506034810192909252507f5af43d82803e903d91602b57fd5bf30000000000000000000000000000000000604882015292915050565b803573ffffffffffffffffffffffffffffffffffffffff81168114610d6757600080fd5b919050565b60008060408385031215610d7f57600080fd5b610d8883610d43565b9150610d9660208401610d43565b90509250929050565b60008060008060808587031215610db557600080fd5b610dbe85610d43565b93506020850135925060408501359150610dda60608601610d43565b905092959194509250565b600080600080600060a08688031215610dfd57600080fd5b8535945060208601359350610e1460408701610d43565b9250610e2260608701610d43565b9150610e3060808701610d43565b90509295509295909350565b7f4e487b7100000000000000000000000000000000000000000000000000000000600052604160045260246000fd5b60005b83811015610e86578181015183820152602001610e6e565b50506000910152565b600060208284031215610ea157600080fd5b815167ffffffffffffffff80821115610eb957600080fd5b818401915084601f830112610ecd57600080fd5b815181811115610edf57610edf610e3c565b604051601f82017fffffffffffffffffffffffffffffffffffffffffffffffffffffffffffffffe0908116603f01168101908382118183101715610f2557610f25610e3c565b81604052828152876020848701011115610f3e57600080fd5b610f4f836020830160208801610e6b565b979650505050505050565b60008351610f6c818460208801610e6b565b9190910191825250602001919050565b7f4e487b7100000000000000000000000000000000000000000000000000000000600052603260045260246000fd5b60008151808452610fc3816020860160208601610e6b565b601f017fffffffffffffffffffffffffffffffffffffffffffffffffffffffffffffffe0169290920160200192915050565b6101008082528951908201819052600090610120830190602090818d01845b8281101561104657815173ffffffffffffffffffffffffffffffffffffffff1685529383019390830190600101611014565b50505083018a905273ffffffffffffffffffffffffffffffffffffffff89166040840152828103606084015261107c8189610fab565b9150506110a1608083018773ffffffffffffffffffffffffffffffffffffffff169052565b73ffffffffffffffffffffffffffffffffffffffff851660a08301528360c08301526110e560e083018473ffffffffffffffffffffffffffffffffffffffff169052565b9998505050505050505050565b60008251611104818460208701610e6b565b919091019291505056fea264697066735822122043a9c93d0525e66a28cf1e3e6b04b2c965de53cb46e25991afa47e41a071295364736f6c63430008110033",
	"devdoc": {
		"kind": "dev",
		"methods": {
			"create(bytes32,uint256,address,address,address)": {
				"details": "Create xAccount on target chain.",
				"params": {
					"fromChainId": "Source chain id.",
					"owner": "owner on source chain.",
					"port": "Msgport address for send msgport.",
					"recovery": "The default safe recovery module address for xAccount.",
					"salt": "Pseudo random number."
				},
				"returns": {
					"_0": "Deployed xAccount address."
				}
			},
			"xAccountOf(address,bytes32,uint256,address)": {
				"details": "Calculate xAccount address.",
				"params": {
					"deployer": "who deployed the xAccount.",
					"fromChainId": "Chain id that xAccount belongs in.",
					"owner": "Owner that xAccount belongs to.",
					"salt": "Pseudo random number of deplyed xAccount."
				},
				"returns": {
					"_0": "(xAccount address, module address)."
				}
			}
		},
		"version": 1
	},
	"userdoc": {
		"kind": "user",
		"methods": {
			"create(bytes32,uint256,address,address,address)": {
				"notice": "Only could be called by source chain."
			},
			"safeFallbackHandler()": {
				"notice": "Safe Deployment: https://github.com/safe-global/safe-deployments/tree/main/src/assets/v1.3.0"
			},
			"xAccountOf(address,bytes32,uint256,address)": {
				"notice": "The module address is only effective during its creation and may be replaced by the xAccount in the future."
			}
		},
		"version": 1
	},
	"gitCommit": "aceebb65974b57c60a2332563da04f0e4ccd2cf1",
	"sourceName": "lib/XAccount/src/XAccountFactory.sol",
	"chainId": "421614",
	"linkReferences": {},
	"deployedLinkReferences": {},
	"history": [
		{
			"_format": "sphinx-sol-ct-artifact-1",
			"merkleRoot": "0x56657e50ef8879c896a9869b7bf07a9da8d809fbbbe38ce4fe91227328768871",
			"contractName": "XAccountFactory",
			"address": "0xC5687DcC8B3bB11067Ee3FC8C2a749ebDd95F8e6",
			"abi": [
				{
					"type": "constructor",
					"inputs": [
						{
							"name": "dao",
							"type": "address",
							"internalType": "address"
						},
						{
							"name": "module",
							"type": "address",
							"internalType": "address"
						},
						{
							"name": "sfactory",
							"type": "address",
							"internalType": "address"
						},
						{
							"name": "singleton",
							"type": "address",
							"internalType": "address"
						},
						{
							"name": "fallbackHandler",
							"type": "address",
							"internalType": "address"
						},
						{
							"name": "registry",
							"type": "address",
							"internalType": "address"
						},
						{
							"name": "name",
							"type": "string",
							"internalType": "string"
						}
					],
					"stateMutability": "nonpayable"
				},
				{
					"type": "function",
					"name": "LOCAL_CHAINID",
					"inputs": [],
					"outputs": [
						{
							"name": "",
							"type": "uint256",
							"internalType": "uint256"
						}
					],
					"stateMutability": "view"
				},
				{
					"type": "function",
					"name": "REGISTRY",
					"inputs": [],
					"outputs": [
						{
							"name": "",
							"type": "address",
							"internalType": "contract IPortRegistry"
						}
					],
					"stateMutability": "view"
				},
				{
					"type": "function",
					"name": "acceptOwnership",
					"inputs": [],
					"outputs": [],
					"stateMutability": "nonpayable"
				},
				{
					"type": "function",
					"name": "isRegistred",
					"inputs": [
						{
							"name": "port",
							"type": "address",
							"internalType": "address"
						}
					],
					"outputs": [
						{
							"name": "",
							"type": "bool",
							"internalType": "bool"
						}
					],
					"stateMutability": "view"
				},
				{
					"type": "function",
					"name": "name",
					"inputs": [],
					"outputs": [
						{
							"name": "",
							"type": "string",
							"internalType": "string"
						}
					],
					"stateMutability": "view"
				},
				{
					"type": "function",
					"name": "owner",
					"inputs": [],
					"outputs": [
						{
							"name": "",
							"type": "address",
							"internalType": "address"
						}
					],
					"stateMutability": "view"
				},
				{
					"type": "function",
					"name": "pendingOwner",
					"inputs": [],
					"outputs": [
						{
							"name": "",
							"type": "address",
							"internalType": "address"
						}
					],
					"stateMutability": "view"
				},
				{
					"type": "function",
					"name": "renounceOwnership",
					"inputs": [],
					"outputs": [],
					"stateMutability": "nonpayable"
				},
				{
					"type": "function",
					"name": "safeFactory",
					"inputs": [],
					"outputs": [
						{
							"name": "",
							"type": "address",
							"internalType": "contract ISafeProxyFactory"
						}
					],
					"stateMutability": "view"
				},
				{
					"type": "function",
					"name": "safeFallbackHandler",
					"inputs": [],
					"outputs": [
						{
							"name": "",
							"type": "address",
							"internalType": "address"
						}
					],
					"stateMutability": "view"
				},
				{
					"type": "function",
					"name": "safeMsgportModule",
					"inputs": [],
					"outputs": [
						{
							"name": "",
							"type": "address",
							"internalType": "address"
						}
					],
					"stateMutability": "view"
				},
				{
					"type": "function",
					"name": "safeSingleton",
					"inputs": [],
					"outputs": [
						{
							"name": "",
							"type": "address",
							"internalType": "address"
						}
					],
					"stateMutability": "view"
				},
				{
					"type": "function",
					"name": "setSafeFactory",
					"inputs": [
						{
							"name": "factory",
							"type": "address",
							"internalType": "address"
						}
					],
					"outputs": [],
					"stateMutability": "nonpayable"
				},
				{
					"type": "function",
					"name": "setSafeFallbackHandler",
					"inputs": [
						{
							"name": "fallbackHandler",
							"type": "address",
							"internalType": "address"
						}
					],
					"outputs": [],
					"stateMutability": "nonpayable"
				},
				{
					"type": "function",
					"name": "setSafeMsgportModule",
					"inputs": [
						{
							"name": "module",
							"type": "address",
							"internalType": "address"
						}
					],
					"outputs": [],
					"stateMutability": "nonpayable"
				},
				{
					"type": "function",
					"name": "setSafeSingleton",
					"inputs": [
						{
							"name": "singleton",
							"type": "address",
							"internalType": "address"
						}
					],
					"outputs": [],
					"stateMutability": "nonpayable"
				},
				{
					"type": "function",
					"name": "setURI",
					"inputs": [
						{
							"name": "uri",
							"type": "string",
							"internalType": "string"
						}
					],
					"outputs": [],
					"stateMutability": "nonpayable"
				},
				{
					"type": "function",
					"name": "setupModules",
					"inputs": [
						{
							"name": "module",
							"type": "address",
							"internalType": "address"
						},
						{
							"name": "recovery",
							"type": "address",
							"internalType": "address"
						}
					],
					"outputs": [],
					"stateMutability": "nonpayable"
				},
				{
					"type": "function",
					"name": "transferOwnership",
					"inputs": [
						{
							"name": "newOwner",
							"type": "address",
							"internalType": "address"
						}
					],
					"outputs": [],
					"stateMutability": "nonpayable"
				},
				{
					"type": "function",
					"name": "uri",
					"inputs": [],
					"outputs": [
						{
							"name": "",
							"type": "string",
							"internalType": "string"
						}
					],
					"stateMutability": "view"
				},
				{
					"type": "function",
					"name": "xAccountOf",
					"inputs": [
						{
							"name": "fromChainId",
							"type": "uint256",
							"internalType": "uint256"
						},
						{
							"name": "toChainId",
							"type": "uint256",
							"internalType": "uint256"
						},
						{
							"name": "deployer",
							"type": "address",
							"internalType": "address"
						}
					],
					"outputs": [
						{
							"name": "",
							"type": "address",
							"internalType": "address"
						},
						{
							"name": "",
							"type": "address",
							"internalType": "address"
						}
					],
					"stateMutability": "view"
				},
				{
					"type": "function",
					"name": "xAccountOf",
					"inputs": [
						{
							"name": "fromChainId",
							"type": "uint256",
							"internalType": "uint256"
						},
						{
							"name": "deployer",
							"type": "address",
							"internalType": "address"
						},
						{
							"name": "factory",
							"type": "address",
							"internalType": "address"
						}
					],
					"outputs": [
						{
							"name": "",
							"type": "address",
							"internalType": "address"
						},
						{
							"name": "",
							"type": "address",
							"internalType": "address"
						}
					],
					"stateMutability": "pure"
				},
				{
					"type": "function",
					"name": "xCreate",
					"inputs": [
						{
							"name": "name",
							"type": "string",
							"internalType": "string"
						},
						{
							"name": "toChainId",
							"type": "uint256",
							"internalType": "uint256"
						},
						{
							"name": "params",
							"type": "bytes",
							"internalType": "bytes"
						},
						{
							"name": "recovery",
							"type": "address",
							"internalType": "address"
						}
					],
					"outputs": [],
					"stateMutability": "payable"
				},
				{
					"type": "function",
					"name": "xDeploy",
					"inputs": [
						{
							"name": "deployer",
							"type": "address",
							"internalType": "address"
						},
						{
							"name": "recovery",
							"type": "address",
							"internalType": "address"
						}
					],
					"outputs": [
						{
							"name": "",
							"type": "address",
							"internalType": "address"
						},
						{
							"name": "",
							"type": "address",
							"internalType": "address"
						}
					],
					"stateMutability": "nonpayable"
				},
				{
					"type": "event",
					"name": "OwnershipTransferStarted",
					"inputs": [
						{
							"name": "previousOwner",
							"type": "address",
							"indexed": true,
							"internalType": "address"
						},
						{
							"name": "newOwner",
							"type": "address",
							"indexed": true,
							"internalType": "address"
						}
					],
					"anonymous": false
				},
				{
					"type": "event",
					"name": "OwnershipTransferred",
					"inputs": [
						{
							"name": "previousOwner",
							"type": "address",
							"indexed": true,
							"internalType": "address"
						},
						{
							"name": "newOwner",
							"type": "address",
							"indexed": true,
							"internalType": "address"
						}
					],
					"anonymous": false
				},
				{
					"type": "event",
					"name": "URI",
					"inputs": [
						{
							"name": "uri",
							"type": "string",
							"indexed": false,
							"internalType": "string"
						}
					],
					"anonymous": false
				},
				{
					"type": "event",
					"name": "XAccountCreated",
					"inputs": [
						{
							"name": "fromChainId",
							"type": "uint256",
							"indexed": false,
							"internalType": "uint256"
						},
						{
							"name": "deployer",
							"type": "address",
							"indexed": false,
							"internalType": "address"
						},
						{
							"name": "xAccount",
							"type": "address",
							"indexed": false,
							"internalType": "address"
						},
						{
							"name": "module",
							"type": "address",
							"indexed": false,
							"internalType": "address"
						},
						{
							"name": "port",
							"type": "address",
							"indexed": false,
							"internalType": "address"
						}
					],
					"anonymous": false
				}
			],
			"solcInputHash": "ecb9a2d5bf63b21013524697f08bc7f6",
			"receipt": {
				"blockHash": "0xb44f97d456554ba212ce9ffbb62c08ba1336fcfd8598258b6aecc93906cc3867",
				"blockNumber": 54223264,
				"contractAddress": null,
				"cumulativeGasUsed": "28214456",
				"from": "0xD70A2e6eACbdeDA77a5d4bBAE3bC70239A0e088f",
				"gasPrice": "100000000",
				"gasUsed": "26045161",
				"hash": "0xa54453939f7cc8437344969792af6b013327df899e69fe0483a1ccb53d43353d",
				"index": 2,
				"logs": [
					{
						"address": "0x7e16116661CA8d66C73612382833153911Fa03B1",
						"blockHash": "0xb44f97d456554ba212ce9ffbb62c08ba1336fcfd8598258b6aecc93906cc3867",
						"blockNumber": 54223264,
						"data": "0x0000000000000000000000000000000000000000000000000000000000000000",
						"index": 3,
						"topics": [
							"0x572f161235911da04685a68c06adf558fc7e4a36909dca394650e0adc19cc93d",
							"0x000000000000000000000000d70a2e6eacbdeda77a5d4bbae3bc70239a0e088f",
							"0x0000000000000000000000003d75d338b4711f8a33d293a2008f07a712513402",
							"0xd680e6b2ec8a22743cd04c564e5f9fd13c7182e301bd6938d849b7ec0459efd5"
						],
						"transactionHash": "0xa54453939f7cc8437344969792af6b013327df899e69fe0483a1ccb53d43353d",
						"transactionIndex": 2
					},
					{
						"address": "0xC5687DcC8B3bB11067Ee3FC8C2a749ebDd95F8e6",
						"blockHash": "0xb44f97d456554ba212ce9ffbb62c08ba1336fcfd8598258b6aecc93906cc3867",
						"blockNumber": 54223264,
						"data": "0x",
						"index": 4,
						"topics": [
							"0x8be0079c531659141344cd1fd0a4f28419497f9722a3daafe3b4186f6b6457e0",
							"0x0000000000000000000000000000000000000000000000000000000000000000",
							"0x0000000000000000000000006096a4141f30100e03e9117753a3adf6b0d4bed5"
						],
						"transactionHash": "0xa54453939f7cc8437344969792af6b013327df899e69fe0483a1ccb53d43353d",
						"transactionIndex": 2
					},
					{
						"address": "0xC5687DcC8B3bB11067Ee3FC8C2a749ebDd95F8e6",
						"blockHash": "0xb44f97d456554ba212ce9ffbb62c08ba1336fcfd8598258b6aecc93906cc3867",
						"blockNumber": 54223264,
						"data": "0x",
						"index": 5,
						"topics": [
							"0x8be0079c531659141344cd1fd0a4f28419497f9722a3daafe3b4186f6b6457e0",
							"0x0000000000000000000000006096a4141f30100e03e9117753a3adf6b0d4bed5",
							"0x000000000000000000000000040f331774ed6bb161412b4cedb1358b382af3a5"
						],
						"transactionHash": "0xa54453939f7cc8437344969792af6b013327df899e69fe0483a1ccb53d43353d",
						"transactionIndex": 2
					},
					{
						"address": "0x040f331774Ed6BB161412B4cEDb1358B382aF3A5",
						"blockHash": "0xb44f97d456554ba212ce9ffbb62c08ba1336fcfd8598258b6aecc93906cc3867",
						"blockNumber": 54223264,
						"data": "0x",
						"index": 6,
						"topics": [
							"0x6895c13664aa4f67288b25d7a21d7aaa34916e355fb9b6fae0a139a9085becb8",
							"0x0000000000000000000000003d75d338b4711f8a33d293a2008f07a712513402"
						],
						"transactionHash": "0xa54453939f7cc8437344969792af6b013327df899e69fe0483a1ccb53d43353d",
						"transactionIndex": 2
					},
					{
						"address": "0x3D75d338B4711F8a33d293a2008f07a712513402",
						"blockHash": "0xb44f97d456554ba212ce9ffbb62c08ba1336fcfd8598258b6aecc93906cc3867",
						"blockNumber": 54223264,
						"data": "0x0000000000000000000000000000000000000000000000000000000000000005",
						"index": 7,
						"topics": [
							"0xa65fb05c5808f5f389d72edeaf719ce38f4cc55c1f69ca3cbfb31c21501caa07",
							"0x56657e50ef8879c896a9869b7bf07a9da8d809fbbbe38ce4fe91227328768871"
						],
						"transactionHash": "0xa54453939f7cc8437344969792af6b013327df899e69fe0483a1ccb53d43353d",
						"transactionIndex": 2
					}
				],
				"logsBloom": "0x00000100000010000000000000080000000000000120000000800000200000000000000000000000000000000042000000100000000000200000000000000000000000000000200004000000000000000001000000000000000000000008000000004000420000002000000000000804000000000000000000000000000000400000000100000000000100000000000000000000000000000000000000000004004110000000000002000000000000000200000000000000000000001004000000000001000000008000200000100000000000000000000800800100000020000100000000000000000000000800000200000000000002000000000000100000",
				"status": 1,
				"to": "0x7e16116661CA8d66C73612382833153911Fa03B1"
			},
			"metadata": "{\"compiler\":{\"version\":\"0.8.17+commit.8df45f5f\"},\"language\":\"Solidity\",\"output\":{\"abi\":[{\"inputs\":[{\"internalType\":\"address\",\"name\":\"dao\",\"type\":\"address\"},{\"internalType\":\"address\",\"name\":\"module\",\"type\":\"address\"},{\"internalType\":\"address\",\"name\":\"sfactory\",\"type\":\"address\"},{\"internalType\":\"address\",\"name\":\"singleton\",\"type\":\"address\"},{\"internalType\":\"address\",\"name\":\"fallbackHandler\",\"type\":\"address\"},{\"internalType\":\"address\",\"name\":\"registry\",\"type\":\"address\"},{\"internalType\":\"string\",\"name\":\"name\",\"type\":\"string\"}],\"stateMutability\":\"nonpayable\",\"type\":\"constructor\"},{\"inputs\":[{\"internalType\":\"address\",\"name\":\"previousOwner\",\"type\":\"address\",\"indexed\":true},{\"internalType\":\"address\",\"name\":\"newOwner\",\"type\":\"address\",\"indexed\":true}],\"type\":\"event\",\"name\":\"OwnershipTransferStarted\",\"anonymous\":false},{\"inputs\":[{\"internalType\":\"address\",\"name\":\"previousOwner\",\"type\":\"address\",\"indexed\":true},{\"internalType\":\"address\",\"name\":\"newOwner\",\"type\":\"address\",\"indexed\":true}],\"type\":\"event\",\"name\":\"OwnershipTransferred\",\"anonymous\":false},{\"inputs\":[{\"internalType\":\"string\",\"name\":\"uri\",\"type\":\"string\",\"indexed\":false}],\"type\":\"event\",\"name\":\"URI\",\"anonymous\":false},{\"inputs\":[{\"internalType\":\"uint256\",\"name\":\"fromChainId\",\"type\":\"uint256\",\"indexed\":false},{\"internalType\":\"address\",\"name\":\"deployer\",\"type\":\"address\",\"indexed\":false},{\"internalType\":\"address\",\"name\":\"xAccount\",\"type\":\"address\",\"indexed\":false},{\"internalType\":\"address\",\"name\":\"module\",\"type\":\"address\",\"indexed\":false},{\"internalType\":\"address\",\"name\":\"port\",\"type\":\"address\",\"indexed\":false}],\"type\":\"event\",\"name\":\"XAccountCreated\",\"anonymous\":false},{\"inputs\":[],\"stateMutability\":\"view\",\"type\":\"function\",\"name\":\"LOCAL_CHAINID\",\"outputs\":[{\"internalType\":\"uint256\",\"name\":\"\",\"type\":\"uint256\"}]},{\"inputs\":[],\"stateMutability\":\"view\",\"type\":\"function\",\"name\":\"REGISTRY\",\"outputs\":[{\"internalType\":\"contract IPortRegistry\",\"name\":\"\",\"type\":\"address\"}]},{\"inputs\":[],\"stateMutability\":\"nonpayable\",\"type\":\"function\",\"name\":\"acceptOwnership\"},{\"inputs\":[{\"internalType\":\"address\",\"name\":\"port\",\"type\":\"address\"}],\"stateMutability\":\"view\",\"type\":\"function\",\"name\":\"isRegistred\",\"outputs\":[{\"internalType\":\"bool\",\"name\":\"\",\"type\":\"bool\"}]},{\"inputs\":[],\"stateMutability\":\"view\",\"type\":\"function\",\"name\":\"name\",\"outputs\":[{\"internalType\":\"string\",\"name\":\"\",\"type\":\"string\"}]},{\"inputs\":[],\"stateMutability\":\"view\",\"type\":\"function\",\"name\":\"owner\",\"outputs\":[{\"internalType\":\"address\",\"name\":\"\",\"type\":\"address\"}]},{\"inputs\":[],\"stateMutability\":\"view\",\"type\":\"function\",\"name\":\"pendingOwner\",\"outputs\":[{\"internalType\":\"address\",\"name\":\"\",\"type\":\"address\"}]},{\"inputs\":[],\"stateMutability\":\"nonpayable\",\"type\":\"function\",\"name\":\"renounceOwnership\"},{\"inputs\":[],\"stateMutability\":\"view\",\"type\":\"function\",\"name\":\"safeFactory\",\"outputs\":[{\"internalType\":\"contract ISafeProxyFactory\",\"name\":\"\",\"type\":\"address\"}]},{\"inputs\":[],\"stateMutability\":\"view\",\"type\":\"function\",\"name\":\"safeFallbackHandler\",\"outputs\":[{\"internalType\":\"address\",\"name\":\"\",\"type\":\"address\"}]},{\"inputs\":[],\"stateMutability\":\"view\",\"type\":\"function\",\"name\":\"safeMsgportModule\",\"outputs\":[{\"internalType\":\"address\",\"name\":\"\",\"type\":\"address\"}]},{\"inputs\":[],\"stateMutability\":\"view\",\"type\":\"function\",\"name\":\"safeSingleton\",\"outputs\":[{\"internalType\":\"address\",\"name\":\"\",\"type\":\"address\"}]},{\"inputs\":[{\"internalType\":\"address\",\"name\":\"factory\",\"type\":\"address\"}],\"stateMutability\":\"nonpayable\",\"type\":\"function\",\"name\":\"setSafeFactory\"},{\"inputs\":[{\"internalType\":\"address\",\"name\":\"fallbackHandler\",\"type\":\"address\"}],\"stateMutability\":\"nonpayable\",\"type\":\"function\",\"name\":\"setSafeFallbackHandler\"},{\"inputs\":[{\"internalType\":\"address\",\"name\":\"module\",\"type\":\"address\"}],\"stateMutability\":\"nonpayable\",\"type\":\"function\",\"name\":\"setSafeMsgportModule\"},{\"inputs\":[{\"internalType\":\"address\",\"name\":\"singleton\",\"type\":\"address\"}],\"stateMutability\":\"nonpayable\",\"type\":\"function\",\"name\":\"setSafeSingleton\"},{\"inputs\":[{\"internalType\":\"string\",\"name\":\"uri\",\"type\":\"string\"}],\"stateMutability\":\"nonpayable\",\"type\":\"function\",\"name\":\"setURI\"},{\"inputs\":[{\"internalType\":\"address\",\"name\":\"module\",\"type\":\"address\"},{\"internalType\":\"address\",\"name\":\"recovery\",\"type\":\"address\"}],\"stateMutability\":\"nonpayable\",\"type\":\"function\",\"name\":\"setupModules\"},{\"inputs\":[{\"internalType\":\"address\",\"name\":\"newOwner\",\"type\":\"address\"}],\"stateMutability\":\"nonpayable\",\"type\":\"function\",\"name\":\"transferOwnership\"},{\"inputs\":[],\"stateMutability\":\"view\",\"type\":\"function\",\"name\":\"uri\",\"outputs\":[{\"internalType\":\"string\",\"name\":\"\",\"type\":\"string\"}]},{\"inputs\":[{\"internalType\":\"uint256\",\"name\":\"fromChainId\",\"type\":\"uint256\"},{\"internalType\":\"uint256\",\"name\":\"toChainId\",\"type\":\"uint256\"},{\"internalType\":\"address\",\"name\":\"deployer\",\"type\":\"address\"}],\"stateMutability\":\"view\",\"type\":\"function\",\"name\":\"xAccountOf\",\"outputs\":[{\"internalType\":\"address\",\"name\":\"\",\"type\":\"address\"},{\"internalType\":\"address\",\"name\":\"\",\"type\":\"address\"}]},{\"inputs\":[{\"internalType\":\"uint256\",\"name\":\"fromChainId\",\"type\":\"uint256\"},{\"internalType\":\"address\",\"name\":\"deployer\",\"type\":\"address\"},{\"internalType\":\"address\",\"name\":\"factory\",\"type\":\"address\"}],\"stateMutability\":\"pure\",\"type\":\"function\",\"name\":\"xAccountOf\",\"outputs\":[{\"internalType\":\"address\",\"name\":\"\",\"type\":\"address\"},{\"internalType\":\"address\",\"name\":\"\",\"type\":\"address\"}]},{\"inputs\":[{\"internalType\":\"string\",\"name\":\"name\",\"type\":\"string\"},{\"internalType\":\"uint256\",\"name\":\"toChainId\",\"type\":\"uint256\"},{\"internalType\":\"bytes\",\"name\":\"params\",\"type\":\"bytes\"},{\"internalType\":\"address\",\"name\":\"recovery\",\"type\":\"address\"}],\"stateMutability\":\"payable\",\"type\":\"function\",\"name\":\"xCreate\"},{\"inputs\":[{\"internalType\":\"address\",\"name\":\"deployer\",\"type\":\"address\"},{\"internalType\":\"address\",\"name\":\"recovery\",\"type\":\"address\"}],\"stateMutability\":\"nonpayable\",\"type\":\"function\",\"name\":\"xDeploy\",\"outputs\":[{\"internalType\":\"address\",\"name\":\"\",\"type\":\"address\"},{\"internalType\":\"address\",\"name\":\"\",\"type\":\"address\"}]}],\"devdoc\":{\"kind\":\"dev\",\"methods\":{\"acceptOwnership()\":{\"details\":\"The new owner accepts the ownership transfer.\"},\"name()\":{\"returns\":{\"_0\":\"The MessagePort name.\"}},\"owner()\":{\"details\":\"Returns the address of the current owner.\"},\"pendingOwner()\":{\"details\":\"Returns the address of the pending owner.\"},\"renounceOwnership()\":{\"details\":\"Leaves the contract without owner. It will not be possible to call `onlyOwner` functions. Can only be called by the current owner. NOTE: Renouncing ownership will leave the contract without an owner, thereby disabling any functionality that is only available to the owner.\"},\"transferOwnership(address)\":{\"details\":\"Starts the ownership transfer of the contract to a new account. Replaces the pending transfer if there is one. Can only be called by the current owner.\"},\"uri()\":{\"returns\":{\"_0\":\"The port metadata uri.\"}},\"xAccountOf(uint256,address,address)\":{\"details\":\"Calculate xAccount address.\",\"params\":{\"deployer\":\"Owner that xAccount belongs to.\",\"factory\":\"Factory that create xAccount.\",\"fromChainId\":\"Chain id that xAccount belongs in.\"},\"returns\":{\"_0\":\"(xAccount address, module address).\"}},\"xAccountOf(uint256,uint256,address)\":{\"details\":\"Calculate xAccount address on target chain.\",\"params\":{\"deployer\":\"Owner that xAccount belongs to.\",\"fromChainId\":\"Chain id that xAccount belongs in.\",\"toChainId\":\"Chain id that xAccount lives in.\"},\"returns\":{\"_0\":\"(xAccount address, module address).\"}},\"xCreate(string,uint256,bytes,address)\":{\"details\":\"Cross chian function for create xAccount on target chain.\",\"params\":{\"name\":\"Port name that used for create xAccount.\",\"params\":\"Port params correspond with the port.\",\"recovery\":\"The default safe recovery module address on target chain for xAccount.\",\"toChainId\":\"Target chain id.\"}},\"xDeploy(address,address)\":{\"details\":\"Create xAccount on target chain.\",\"params\":{\"deployer\":\"Deployer on source chain.\",\"recovery\":\"The default safe recovery module address for xAccount.\"},\"returns\":{\"_0\":\"Deployed xAccount address.\"}}},\"version\":1},\"userdoc\":{\"kind\":\"user\",\"methods\":{\"name()\":{\"notice\":\"Get the port name, it's globally unique and immutable.\"},\"xAccountOf(uint256,address,address)\":{\"notice\":\"The module address is only effective during its creation and may be replaced by the xAccount in the future.\"},\"xAccountOf(uint256,uint256,address)\":{\"notice\":\"The module address is only effective during its creation and may be replaced by the xAccount in the future.\"},\"xCreate(string,uint256,bytes,address)\":{\"notice\":\"If recovery address is `address(0)`, do not enabale recovery module.\"},\"xDeploy(address,address)\":{\"notice\":\"Only could be called by source chain.\"}},\"version\":1}},\"settings\":{\"remappings\":[\"@darwinia-msgport/=lib/darwinia-msgport/\",\"@openzeppelin/contracts/=lib/openzeppelin-contracts/contracts/\",\"@openzeppelin/contracts@4.9.2/=lib/openzeppelin-contracts/contracts/\",\"@safe-smart-account/=lib/subapi/lib/safe-smart-account/contracts/\",\"@sphinx-labs/contracts/=lib/sphinx/packages/contracts/contracts/foundry/\",\"ORMP/=lib/ORMP/\",\"create3-deploy/=lib/create3-deploy/\",\"forge-std/=lib/forge-std/src/\",\"solmate/=lib/darwinia-msgport/lib/solmate/src/\",\"subapi/=lib/subapi/\"],\"optimizer\":{\"enabled\":true,\"runs\":999999},\"metadata\":{\"bytecodeHash\":\"ipfs\"},\"compilationTarget\":{\"lib/darwinia-msgport/src/xAccount/XAccountFactory.sol\":\"XAccountFactory\"},\"evmVersion\":\"london\",\"libraries\":{}},\"sources\":{\"lib/darwinia-msgport/lib/solmate/src/utils/Bytes32AddressLib.sol\":{\"keccak256\":\"0x2afc1acba8a77555e061420cab585a5bd4f030c3ad0ac3e0066dbb55e3a8adff\",\"urls\":[\"bzz-raw://50badae1fcbd0f3c4eefbb855768b684144baa17aca541df820372773e94102f\",\"dweb:/ipfs/QmVj4CHfACW1R2xvrZE1FVvYkdAyQN2rFh8WM2xpWGVFVT\"],\"license\":\"AGPL-3.0-only\"},\"lib/darwinia-msgport/src/interfaces/IMessagePort.sol\":{\"keccak256\":\"0x0c73885f9e037bab0438c3285deb62282887880e9556abbc106043515ffdf4d4\",\"urls\":[\"bzz-raw://87198b8adef783a5a80dc80ef40183a86dc73335a4d56408ebb591445c1cd846\",\"dweb:/ipfs/Qmc5ibd47cQeoB37zzZ6t273YkXy4nHVMAngw1zQuZSehA\"],\"license\":\"MIT\"},\"lib/darwinia-msgport/src/interfaces/IPortMetadata.sol\":{\"keccak256\":\"0xec742110f6035a76dbc246bfdb0968aeabd86a17dafb8e755c8c00dcec3b445c\",\"urls\":[\"bzz-raw://f459d98402c3e3513b21b7432391c47fc052d31a3f9bfb1fa37257e996108a65\",\"dweb:/ipfs/QmeWM5Kz8hGX33AiMDicJyeT3xZd2HNrA9yB6jRH4HU3Cp\"],\"license\":\"MIT\"},\"lib/darwinia-msgport/src/interfaces/IPortRegistry.sol\":{\"keccak256\":\"0x622199d781cc0c7c60d92380df5b6044b4a80f5d1f05d820827f427360ea2632\",\"urls\":[\"bzz-raw://0734abfeaa3a957b459f6cdfd7bfa60832cee79d5900ef6005710a8ebfe16ae1\",\"dweb:/ipfs/QmfQDM3JMi1fVgUZxqvg43RrYNqSvTfJjGiu8uuPXeg8wq\"],\"license\":\"MIT\"},\"lib/darwinia-msgport/src/interfaces/ISafe.sol\":{\"keccak256\":\"0x8d5f03aa51e983d7761e8c71968616680a9c74b63ff72735f50fff3747003875\",\"urls\":[\"bzz-raw://50b0d7ae7f43a3b4f667b84a8fa5636d2871f64260359dc5247345e7afc09fa0\",\"dweb:/ipfs/QmZd6nVjScfz1Sph2FBm3iu3CAdzkP3dcPK3tgUYYHWqh3\"],\"license\":\"MIT\"},\"lib/darwinia-msgport/src/interfaces/ISafeMsgportModule.sol\":{\"keccak256\":\"0xdfa5303c50adf035c5502ce3710ab207761c282cce672fe2e095a8ba35da128e\",\"urls\":[\"bzz-raw://0ef27d1880e790a546292800e9435a2e9b90be105b0e75ea3d7ce62bb56a205e\",\"dweb:/ipfs/QmRdjnarzB515AMvcRMzz2wZWcCKT7HfcTSAeiiB8SBGDo\"],\"license\":\"MIT\"},\"lib/darwinia-msgport/src/interfaces/ISafeProxyFactory.sol\":{\"keccak256\":\"0x52f650225ebf92bdc666752182da7f2a0e777635a2b66d073d29043f06e908ff\",\"urls\":[\"bzz-raw://bc663d8486d659da7acc23a6af043eab88bf087fbc450156f457d75446531ed5\",\"dweb:/ipfs/QmYz2a6uGBK1iU2awKqSneaMVHHAugrb7ouzccjoc1vuyG\"],\"license\":\"MIT\"},\"lib/darwinia-msgport/src/ports/base/PortMetadata.sol\":{\"keccak256\":\"0x6ebb7a05a526ef9503e0a7897d4c183324bf346a18ab282f21e22d216c786d67\",\"urls\":[\"bzz-raw://96e281ddf5c8d7b474a8ab29bba5dd4c3f25460a603fc55548ffbbbf58e66fd3\",\"dweb:/ipfs/QmXDsMPv2CJnRRmoF7rBZ169noofYqnFGk7XJDWVTTHuvJ\"],\"license\":\"MIT\"},\"lib/darwinia-msgport/src/user/Application.sol\":{\"keccak256\":\"0xd32f4beb2d2af7fdc1646c099dbe6f705a36788611ef789a4afc76c688f5b3e3\",\"urls\":[\"bzz-raw://04d94e7593e70a74bc15b6d7bc31560b85411c4c21b4589f4d67933a1596c67f\",\"dweb:/ipfs/QmSE5VgjQxdHKZEiCK77pruGjcxvSPjw62CNvQkXWV37bc\"],\"license\":\"MIT\"},\"lib/darwinia-msgport/src/utils/CREATE3.sol\":{\"keccak256\":\"0x2d4b684abe7063b5c769f9dbdbf2be1a69ea1931615c7268e78860b8501c73c5\",\"urls\":[\"bzz-raw://c69c22d05b08e348ed88d29b44ebfd4f671606a4144a108d7b10b0b6c4d205d2\",\"dweb:/ipfs/QmbT9KLc59Lr3Zy9ZyzJa3V91xs2Yh1uYKA5AropRRg52F\"],\"license\":\"AGPL-3.0-only\"},\"lib/darwinia-msgport/src/xAccount/XAccountFactory.sol\":{\"keccak256\":\"0xb5cae60050a07b9a579b31f5499b32a8df3c3b91ce81d1f922da1c4d3b96ef61\",\"urls\":[\"bzz-raw://eab9dc6ea178888ff57b306a587a19d34014fb608fe708704c4b42bb34302b9f\",\"dweb:/ipfs/QmaEQzxuPipiYhetoiiCXcoSJM84CnEQCPEGkfGoSKduEs\"],\"license\":\"MIT\"},\"lib/openzeppelin-contracts/contracts/access/Ownable.sol\":{\"keccak256\":\"0xba43b97fba0d32eb4254f6a5a297b39a19a247082a02d6e69349e071e2946218\",\"urls\":[\"bzz-raw://fc980984badf3984b6303b377711220e067722bbd6a135b24669ff5069ef9f32\",\"dweb:/ipfs/QmPHXMSXj99XjSVM21YsY6aNtLLjLVXDbyN76J5HQYvvrz\"],\"license\":\"MIT\"},\"lib/openzeppelin-contracts/contracts/access/Ownable2Step.sol\":{\"keccak256\":\"0xde231558366826d7cb61725af8147965a61c53b77a352cc8c9af38fc5a92ac3c\",\"urls\":[\"bzz-raw://1fd55624076bf61d44af5ff351919e32dda748567acfbdd6ba3d6c7be61c758e\",\"dweb:/ipfs/QmSki4dTrf4GPm7MTpG3fk8mC7rnjwd2zMomLp6jLuF63Q\"],\"license\":\"MIT\"},\"lib/openzeppelin-contracts/contracts/utils/Context.sol\":{\"keccak256\":\"0xe2e337e6dde9ef6b680e07338c493ebea1b5fd09b43424112868e9cc1706bca7\",\"urls\":[\"bzz-raw://6df0ddf21ce9f58271bdfaa85cde98b200ef242a05a3f85c2bc10a8294800a92\",\"dweb:/ipfs/QmRK2Y5Yc6BK7tGKkgsgn3aJEQGi5aakeSPZvS65PV8Xp3\"],\"license\":\"MIT\"}},\"version\":1}",
			"args": [
				"0x040f331774Ed6BB161412B4cEDb1358B382aF3A5",
				"0x1899e901F53534489CEA580b6Ec688DddCcd0b91",
				"0xa6B71E26C5e0845f74c812102Ca7114b6a896AB2",
				"0x3E5c63644E683549055b9Be8653de26E0B4CD36E",
				"0xf48f2B2d2a534e402487b3ee7C18c33Aec0Fe5e4",
				"0x99503F8A95dD259547900131E3d98F394B6BA88A",
				"xAccountFactory"
			],
			"bytecode": "0x60a06040523480156200001157600080fd5b50604051620029b2380380620029b2833981016040819052620000349162000164565b806200004033620000b7565b60026200004e828262000338565b506200005c905087620000b7565b50600480546001600160a01b03199081166001600160a01b0397881617909155600680548216948716949094179093556005805484169286169290921790915560078054909216928416929092179055166080525062000404565b600180546001600160a01b0319169055620000de81620000e1602090811b62000ed617901c565b50565b600080546001600160a01b038381166001600160a01b0319831681178455604051919092169283917f8be0079c531659141344cd1fd0a4f28419497f9722a3daafe3b4186f6b6457e09190a35050565b80516001600160a01b03811681146200014957600080fd5b919050565b634e487b7160e01b600052604160045260246000fd5b600080600080600080600060e0888a0312156200018057600080fd5b6200018b8862000131565b965060206200019c818a0162000131565b9650620001ac60408a0162000131565b9550620001bc60608a0162000131565b9450620001cc60808a0162000131565b9350620001dc60a08a0162000131565b60c08a01519093506001600160401b0380821115620001fa57600080fd5b818b0191508b601f8301126200020f57600080fd5b8151818111156200022457620002246200014e565b604051601f8201601f19908116603f011681019083821181831017156200024f576200024f6200014e565b816040528281528e868487010111156200026857600080fd5b600093505b828410156200028c57848401860151818501870152928501926200026d565b600086848301015280965050505050505092959891949750929550565b600181811c90821680620002be57607f821691505b602082108103620002df57634e487b7160e01b600052602260045260246000fd5b50919050565b601f8211156200033357600081815260208120601f850160051c810160208610156200030e5750805b601f850160051c820191505b818110156200032f578281556001016200031a565b5050505b505050565b81516001600160401b038111156200035457620003546200014e565b6200036c81620003658454620002a9565b84620002e5565b602080601f831160018114620003a457600084156200038b5750858301515b600019600386901b1c1916600185901b1785556200032f565b600085815260208120601f198616915b82811015620003d557888601518255948401946001909101908401620003b4565b5085821015620003f45787850151600019600388901b60f8161c191681555b5050505050600190811b01905550565b6080516125766200043c600039600081816101c401528181610a1a01528181610ba60152818161101701526111d501526125766000f3fe60806040526004361061018b5760003560e01c8063715018a6116100d6578063b0ff5e721161007f578063e30c397811610059578063e30c3978146104c6578063eac989f8146104f1578063f2fde38b1461050657600080fd5b8063b0ff5e721461046b578063c00c8d8f14610486578063df6c5bba146104a657600080fd5b8063a03bad5a116100b0578063a03bad5a146103e4578063ac7d146b14610411578063ac8d00c11461043e57600080fd5b8063715018a61461038f57806379ba5097146103a45780638da5cb5b146103b957600080fd5b8063382f28b8116101385780636084943d116101125780636084943d1461032c57806361d5d3a21461033f57806368db49ed1461035f57600080fd5b8063382f28b8146102cc5780634544f055146102ec5780635e5b52a91461030c57600080fd5b8063123c098011610169578063123c098014610232578063131e7e1c1461027f578063322eac78146102ac57600080fd5b806302fe53051461019057806306433b1b146101b257806306fdde0314610210575b600080fd5b34801561019c57600080fd5b506101b06101ab366004611dc8565b610526565b005b3480156101be57600080fd5b506101e67f000000000000000000000000000000000000000000000000000000000000000081565b60405173ffffffffffffffffffffffffffffffffffffffff90911681526020015b60405180910390f35b34801561021c57600080fd5b50610225610571565b6040516102079190611e6c565b34801561023e57600080fd5b5061025261024d366004611ea8565b610603565b6040805173ffffffffffffffffffffffffffffffffffffffff938416815292909116602083015201610207565b34801561028b57600080fd5b506007546101e69073ffffffffffffffffffffffffffffffffffffffff1681565b3480156102b857600080fd5b506102526102c7366004611ee1565b610620565b3480156102d857600080fd5b506101b06102e7366004611ee1565b610761565b3480156102f857600080fd5b506101b0610307366004611f1a565b610885565b34801561031857600080fd5b506101b0610327366004611f1a565b6108d4565b6101b061033a366004611f37565b610923565b34801561034b57600080fd5b506101b061035a366004611f1a565b610b3d565b34801561036b57600080fd5b5061037f61037a366004611f1a565b610b8c565b6040519015158152602001610207565b34801561039b57600080fd5b506101b0610c8a565b3480156103b057600080fd5b506101b0610c9e565b3480156103c557600080fd5b5060005473ffffffffffffffffffffffffffffffffffffffff166101e6565b3480156103f057600080fd5b506005546101e69073ffffffffffffffffffffffffffffffffffffffff1681565b34801561041d57600080fd5b506006546101e69073ffffffffffffffffffffffffffffffffffffffff1681565b34801561044a57600080fd5b506004546101e69073ffffffffffffffffffffffffffffffffffffffff1681565b34801561047757600080fd5b50604051468152602001610207565b34801561049257600080fd5b506101b06104a1366004611f1a565b610d53565b3480156104b257600080fd5b506102526104c1366004611fc3565b610da2565b3480156104d257600080fd5b5060015473ffffffffffffffffffffffffffffffffffffffff166101e6565b3480156104fd57600080fd5b50610225610e17565b34801561051257600080fd5b506101b0610521366004611f1a565b610e26565b61052e610f4b565b61056d82828080601f016020809104026020016040519081016040528093929190818152602001838380828437600092019190915250610fcc92505050565b5050565b60606002805461058090611ffa565b80601f01602080910402602001604051908101604052809291908181526020018280546105ac90611ffa565b80156105f95780601f106105ce576101008083540402835291602001916105f9565b820191906000526020600020905b8154815290600101906020018083116105dc57829003601f168201915b5050505050905090565b60008061061485846104c187611013565b91509150935093915050565b600080338161062d61113c565b905061063882610b8c565b6106a3576040517f08c379a000000000000000000000000000000000000000000000000000000000815260206004820152600560248201527f21706f727400000000000000000000000000000000000000000000000000000060448201526064015b60405180910390fd5b6106ac816111d1565b73ffffffffffffffffffffffffffffffffffffffff166106ca61127c565b73ffffffffffffffffffffffffffffffffffffffff1614610747576040517f08c379a000000000000000000000000000000000000000000000000000000000815260206004820152600b60248201527f21786d736753656e646572000000000000000000000000000000000000000000604482015260640161069a565b61075381878488611314565b9350935050505b9250929050565b6040517f610b592500000000000000000000000000000000000000000000000000000000815273ffffffffffffffffffffffffffffffffffffffff831660048201523090819063610b592590602401600060405180830381600087803b1580156107ca57600080fd5b505af11580156107de573d6000803e3d6000fd5b5050505073ffffffffffffffffffffffffffffffffffffffff821615610880576040517f610b592500000000000000000000000000000000000000000000000000000000815273ffffffffffffffffffffffffffffffffffffffff838116600483015282169063610b592590602401600060405180830381600087803b15801561086757600080fd5b505af115801561087b573d6000803e3d6000fd5b505050505b505050565b61088d610f4b565b600780547fffffffffffffffffffffffff00000000000000000000000000000000000000001673ffffffffffffffffffffffffffffffffffffffff92909216919091179055565b6108dc610f4b565b600480547fffffffffffffffffffffffff00000000000000000000000000000000000000001673ffffffffffffffffffffffffffffffffffffffff92909216919091179055565b3446850361098d576040517f08c379a000000000000000000000000000000000000000000000000000000000815260206004820152600a60248201527f21746f436861696e496400000000000000000000000000000000000000000000604482015260640161069a565b60408051336024820181905273ffffffffffffffffffffffffffffffffffffffff8581166044808501919091528451808503909101815260649093019093526020820180517bffffffffffffffffffffffffffffffffffffffffffffffffffffffff167f322eac7800000000000000000000000000000000000000000000000000000000179052916000907f00000000000000000000000000000000000000000000000000000000000000001663805da4ad468c8c6040518463ffffffff1660e01b8152600401610a6093929190612096565b602060405180830381865afa158015610a7d573d6000803e3d6000fd5b505050506040513d601f19601f82011682018060405250810190610aa191906120b9565b90508073ffffffffffffffffffffffffffffffffffffffff166316fe55ae858a610aca8c611013565b868c8c6040518763ffffffff1660e01b8152600401610aed9594939291906120d6565b60206040518083038185885af1158015610b0b573d6000803e3d6000fd5b50505050506040513d601f19601f82011682018060405250810190610b30919061212a565b5050505050505050505050565b610b45610f4b565b600580547fffffffffffffffffffffffff00000000000000000000000000000000000000001673ffffffffffffffffffffffffffffffffffffffff92909216919091179055565b60008073ffffffffffffffffffffffffffffffffffffffff7f000000000000000000000000000000000000000000000000000000000000000016637db6e675466040517fffffffff0000000000000000000000000000000000000000000000000000000060e084901b168152600481019190915273ffffffffffffffffffffffffffffffffffffffff86166024820152604401600060405180830381865afa158015610c3c573d6000803e3d6000fd5b505050506040513d6000823e601f3d9081017fffffffffffffffffffffffffffffffffffffffffffffffffffffffffffffffe0168201604052610c829190810190612204565b511192915050565b610c92610f4b565b610c9c6000611471565b565b600154339073ffffffffffffffffffffffffffffffffffffffff168114610d47576040517f08c379a000000000000000000000000000000000000000000000000000000000815260206004820152602960248201527f4f776e61626c6532537465703a2063616c6c6572206973206e6f74207468652060448201527f6e6577206f776e65720000000000000000000000000000000000000000000000606482015260840161069a565b610d5081611471565b50565b610d5b610f4b565b600680547fffffffffffffffffffffffff00000000000000000000000000000000000000001673ffffffffffffffffffffffffffffffffffffffff92909216919091179055565b60008060008585604051602001610de892919091825260601b7fffffffffffffffffffffffffffffffffffffffff00000000000000000000000016602082015260340190565b604051602081830303815290604052805190602001209050610e0a81856114a2565b9250925050935093915050565b60606003805461058090611ffa565b610e2e610f4b565b6001805473ffffffffffffffffffffffffffffffffffffffff83167fffffffffffffffffffffffff00000000000000000000000000000000000000009091168117909155610e9160005473ffffffffffffffffffffffffffffffffffffffff1690565b73ffffffffffffffffffffffffffffffffffffffff167f38d16b8cac22d99fc7c124b9cd0de2d3fa1faef420bfe791d8c362d765e2270060405160405180910390a350565b6000805473ffffffffffffffffffffffffffffffffffffffff8381167fffffffffffffffffffffffff0000000000000000000000000000000000000000831681178455604051919092169283917f8be0079c531659141344cd1fd0a4f28419497f9722a3daafe3b4186f6b6457e09190a35050565b60005473ffffffffffffffffffffffffffffffffffffffff163314610c9c576040517f08c379a000000000000000000000000000000000000000000000000000000000815260206004820181905260248201527f4f776e61626c653a2063616c6c6572206973206e6f7420746865206f776e6572604482015260640161069a565b6003610fd882826122a3565b507f3d7a9962f6da134f6896430d6867bd08e3546dbf9570df877e7cec39ba4305f0816040516110089190611e6c565b60405180910390a150565b60007f000000000000000000000000000000000000000000000000000000000000000073ffffffffffffffffffffffffffffffffffffffff1663805da4ad8361105a610571565b6040518363ffffffff1660e01b81526004016110779291906123bd565b602060405180830381865afa158015611094573d6000803e3d6000fd5b505050506040513d601f19601f820116820180604052508101906110b891906120b9565b905073ffffffffffffffffffffffffffffffffffffffff8116611137576040517f08c379a000000000000000000000000000000000000000000000000000000000815260206004820152600360248201527f21746f0000000000000000000000000000000000000000000000000000000000604482015260640161069a565b919050565b600060343610156111a9576040517f08c379a000000000000000000000000000000000000000000000000000000000815260206004820152600c60248201527f2166726f6d436861696e49640000000000000000000000000000000000000000604482015260640161069a565b507fffffffffffffffffffffffffffffffffffffffffffffffffffffffffffffffcc36013590565b60007f000000000000000000000000000000000000000000000000000000000000000073ffffffffffffffffffffffffffffffffffffffff1663805da4ad83611218610571565b6040518363ffffffff1660e01b81526004016112359291906123bd565b602060405180830381865afa158015611252573d6000803e3d6000fd5b505050506040513d601f19601f8201168201806040525081019061127691906120b9565b92915050565b600060143610156112e9576040517f08c379a000000000000000000000000000000000000000000000000000000000815260206004820152600960248201527f2166726f6d446170700000000000000000000000000000000000000000000000604482015260640161069a565b507fffffffffffffffffffffffffffffffffffffffffffffffffffffffffffffffec36013560601c90565b600080468603611380576040517f08c379a000000000000000000000000000000000000000000000000000000000815260206004820152600860248201527f21636861696e4964000000000000000000000000000000000000000000000000604482015260640161069a565b600086866040516020016113c392919091825260601b7fffffffffffffffffffffffffffffffffffffffff00000000000000000000000016602082015260340190565b6040516020818303038152906040528051906020012090506113e4816116a9565b90935091506113f4838386611809565b611401828489898961198a565b6040805188815273ffffffffffffffffffffffffffffffffffffffff88811660208301528581168284015284811660608301528716608082015290517f46f168c9840da3df377c311ae8fde0281428d6ee68dd767c768dc545b307367b9181900360a00190a15094509492505050565b600180547fffffffffffffffffffffffff0000000000000000000000000000000000000000169055610d5081610ed6565b604080518082018252601081527f67363d3d37363d34f03d5260086018f30000000000000000000000000000000060209182015290517fff00000000000000000000000000000000000000000000000000000000000000918101919091527fffffffffffffffffffffffffffffffffffffffff000000000000000000000000606083901b166021820152603581018390527f21c35dbe1b344a2488cf3321d6ce542f8e9f305544ff09e4993a62319a497c1f605582015260009081908190611581906075015b6040516020818303038152906040528051906020012090565b6040517fd69400000000000000000000000000000000000000000000000000000000000060208201527fffffffffffffffffffffffffffffffffffffffff000000000000000000000000606083901b1660228201527f0100000000000000000000000000000000000000000000000000000000000000603682015290915060009061160e90603701611568565b6040517fd69400000000000000000000000000000000000000000000000000000000000060208201527fffffffffffffffffffffffffffffffffffffffff000000000000000000000000606085901b1660228201527f0200000000000000000000000000000000000000000000000000000000000000603682015290915060009061169b90603701611568565b919791965090945050505050565b6000806116b683306114a2565b600754604080517f53e5d935000000000000000000000000000000000000000000000000000000008152905193955091935060009273ffffffffffffffffffffffffffffffffffffffff909116916353e5d93591600480830192869291908290030181865afa15801561172d573d6000803e3d6000fd5b505050506040513d6000823e601f3d9081017fffffffffffffffffffffffffffffffffffffffffffffffffffffffffffffffe01682016040526117739190810190612204565b6006546040519192506000916117a691849173ffffffffffffffffffffffffffffffffffffffff909116906020016123d6565b604080517fffffffffffffffffffffffffffffffffffffffffffffffffffffffffffffffe08184030181529190526004549091506117fd908690839073ffffffffffffffffffffffffffffffffffffffff16611a29565b90969095509350505050565b6040805173ffffffffffffffffffffffffffffffffffffffff848116602483015283166044808301919091528251808303909101815260649091018252602080820180517bffffffffffffffffffffffffffffffffffffffffffffffffffffffff167f382f28b800000000000000000000000000000000000000000000000000000000179052825160018082528185019094529192916000918390828101908036833701905050905073dddddddddddddddddddddddddddddddddddddddd816000815181106118da576118da6123f8565b73ffffffffffffffffffffffffffffffffffffffff92831660209182029290920101526005546040517fb63e800d0000000000000000000000000000000000000000000000000000000081528883169263b63e800d92611950928692889230928b92919091169060009081908190600401612427565b600060405180830381600087803b15801561196a57600080fd5b505af115801561197e573d6000803e3d6000fd5b50505050505050505050565b6040517f3bc4d8d200000000000000000000000000000000000000000000000000000000815273ffffffffffffffffffffffffffffffffffffffff85811660048301526024820185905283811660448301528281166064830152861690633bc4d8d290608401600060405180830381600087803b158015611a0a57600080fd5b505af1158015611a1e573d6000803e3d6000fd5b505050505050505050565b60008060006040518060400160405280601081526020017f67363d3d37363d34f03d5260086018f30000000000000000000000000000000081525090506000868251602084016000f5905073ffffffffffffffffffffffffffffffffffffffff8116611af1576040517f08c379a000000000000000000000000000000000000000000000000000000000815260206004820152601160248201527f4445504c4f594d454e545f4641494c4544000000000000000000000000000000604482015260640161069a565b611afb87306114a2565b604051919550935060009073ffffffffffffffffffffffffffffffffffffffff831690611b29908990612524565b6000604051808303816000865af19150503d8060008114611b66576040519150601f19603f3d011682016040523d82523d6000602084013e611b6b565b606091505b50509050808015611b92575073ffffffffffffffffffffffffffffffffffffffff85163b15155b611bf8576040517f08c379a000000000000000000000000000000000000000000000000000000000815260206004820152601660248201527f494e495449414c495a4154494f4e5f4641494c45443100000000000000000000604482015260640161069a565b6000611c0387611d07565b90508273ffffffffffffffffffffffffffffffffffffffff1681604051611c2a9190612524565b6000604051808303816000865af19150503d8060008114611c67576040519150601f19603f3d011682016040523d82523d6000602084013e611c6c565b606091505b505080925050818015611c95575073ffffffffffffffffffffffffffffffffffffffff85163b15155b611cfb576040517f08c379a000000000000000000000000000000000000000000000000000000000815260206004820152601660248201527f494e495449414c495a4154494f4e5f4641494c45443200000000000000000000604482015260640161069a565b50505050935093915050565b604080516037808252606082810190935283831b9160009160208201818036833750507f3d602d80600a3d3981f3363d3d373d3d3d363d730000000000000000000000006020830152506034810192909252507f5af43d82803e903d91602b57fd5bf30000000000000000000000000000000000604882015292915050565b60008083601f840112611d9857600080fd5b50813567ffffffffffffffff811115611db057600080fd5b60208301915083602082850101111561075a57600080fd5b60008060208385031215611ddb57600080fd5b823567ffffffffffffffff811115611df257600080fd5b6117fd85828601611d86565b60005b83811015611e19578181015183820152602001611e01565b50506000910152565b60008151808452611e3a816020860160208601611dfe565b601f017fffffffffffffffffffffffffffffffffffffffffffffffffffffffffffffffe0169290920160200192915050565b602081526000611e7f6020830184611e22565b9392505050565b73ffffffffffffffffffffffffffffffffffffffff81168114610d5057600080fd5b600080600060608486031215611ebd57600080fd5b83359250602084013591506040840135611ed681611e86565b809150509250925092565b60008060408385031215611ef457600080fd5b8235611eff81611e86565b91506020830135611f0f81611e86565b809150509250929050565b600060208284031215611f2c57600080fd5b8135611e7f81611e86565b60008060008060008060808789031215611f5057600080fd5b863567ffffffffffffffff80821115611f6857600080fd5b611f748a838b01611d86565b9098509650602089013595506040890135915080821115611f9457600080fd5b50611fa189828a01611d86565b9094509250506060870135611fb581611e86565b809150509295509295509295565b600080600060608486031215611fd857600080fd5b833592506020840135611fea81611e86565b91506040840135611ed681611e86565b600181811c9082168061200e57607f821691505b602082108103612047577f4e487b7100000000000000000000000000000000000000000000000000000000600052602260045260246000fd5b50919050565b8183528181602085013750600060208284010152600060207fffffffffffffffffffffffffffffffffffffffffffffffffffffffffffffffe0601f840116840101905092915050565b8381526040602082015260006120b060408301848661204d565b95945050505050565b6000602082840312156120cb57600080fd5b8151611e7f81611e86565b85815273ffffffffffffffffffffffffffffffffffffffff8516602082015260806040820152600061210b6080830186611e22565b828103606084015261211e81858761204d565b98975050505050505050565b60006020828403121561213c57600080fd5b5051919050565b7f4e487b7100000000000000000000000000000000000000000000000000000000600052604160045260246000fd5b600067ffffffffffffffff8084111561218d5761218d612143565b604051601f85017fffffffffffffffffffffffffffffffffffffffffffffffffffffffffffffffe0908116603f011681019082821181831017156121d3576121d3612143565b816040528093508581528686860111156121ec57600080fd5b6121fa866020830187611dfe565b5050509392505050565b60006020828403121561221657600080fd5b815167ffffffffffffffff81111561222d57600080fd5b8201601f8101841361223e57600080fd5b61224d84825160208401612172565b949350505050565b601f82111561088057600081815260208120601f850160051c8101602086101561227c5750805b601f850160051c820191505b8181101561229b57828155600101612288565b505050505050565b815167ffffffffffffffff8111156122bd576122bd612143565b6122d1816122cb8454611ffa565b84612255565b602080601f83116001811461232457600084156122ee5750858301515b7fffffffffffffffffffffffffffffffffffffffffffffffffffffffffffffffff600386901b1c1916600185901b17855561229b565b6000858152602081207fffffffffffffffffffffffffffffffffffffffffffffffffffffffffffffffe08616915b8281101561237157888601518255948401946001909101908401612352565b50858210156123ad57878501517fffffffffffffffffffffffffffffffffffffffffffffffffffffffffffffffff600388901b60f8161c191681555b5050505050600190811b01905550565b82815260406020820152600061224d6040830184611e22565b600083516123e8818460208801611dfe565b9190910191825250602001919050565b7f4e487b7100000000000000000000000000000000000000000000000000000000600052603260045260246000fd5b6101008082528951908201819052600090610120830190602090818d01845b8281101561247857815173ffffffffffffffffffffffffffffffffffffffff1685529383019390830190600101612446565b50505083018a905273ffffffffffffffffffffffffffffffffffffffff8916604084015282810360608401526124ae8189611e22565b9150506124d3608083018773ffffffffffffffffffffffffffffffffffffffff169052565b73ffffffffffffffffffffffffffffffffffffffff851660a08301528360c083015261251760e083018473ffffffffffffffffffffffffffffffffffffffff169052565b9998505050505050505050565b60008251612536818460208701611dfe565b919091019291505056fea264697066735822122031e10a341b8b1c261fbdd388f5c8f4ad47398148ef2ec63eb748b5b2db0f41a564736f6c63430008110033",
			"deployedBytecode": "0x60806040526004361061018b5760003560e01c8063715018a6116100d6578063b0ff5e721161007f578063e30c397811610059578063e30c3978146104c6578063eac989f8146104f1578063f2fde38b1461050657600080fd5b8063b0ff5e721461046b578063c00c8d8f14610486578063df6c5bba146104a657600080fd5b8063a03bad5a116100b0578063a03bad5a146103e4578063ac7d146b14610411578063ac8d00c11461043e57600080fd5b8063715018a61461038f57806379ba5097146103a45780638da5cb5b146103b957600080fd5b8063382f28b8116101385780636084943d116101125780636084943d1461032c57806361d5d3a21461033f57806368db49ed1461035f57600080fd5b8063382f28b8146102cc5780634544f055146102ec5780635e5b52a91461030c57600080fd5b8063123c098011610169578063123c098014610232578063131e7e1c1461027f578063322eac78146102ac57600080fd5b806302fe53051461019057806306433b1b146101b257806306fdde0314610210575b600080fd5b34801561019c57600080fd5b506101b06101ab366004611dc8565b610526565b005b3480156101be57600080fd5b506101e67f00000000000000000000000099503f8a95dd259547900131e3d98f394b6ba88a81565b60405173ffffffffffffffffffffffffffffffffffffffff90911681526020015b60405180910390f35b34801561021c57600080fd5b50610225610571565b6040516102079190611e6c565b34801561023e57600080fd5b5061025261024d366004611ea8565b610603565b6040805173ffffffffffffffffffffffffffffffffffffffff938416815292909116602083015201610207565b34801561028b57600080fd5b506007546101e69073ffffffffffffffffffffffffffffffffffffffff1681565b3480156102b857600080fd5b506102526102c7366004611ee1565b610620565b3480156102d857600080fd5b506101b06102e7366004611ee1565b610761565b3480156102f857600080fd5b506101b0610307366004611f1a565b610885565b34801561031857600080fd5b506101b0610327366004611f1a565b6108d4565b6101b061033a366004611f37565b610923565b34801561034b57600080fd5b506101b061035a366004611f1a565b610b3d565b34801561036b57600080fd5b5061037f61037a366004611f1a565b610b8c565b6040519015158152602001610207565b34801561039b57600080fd5b506101b0610c8a565b3480156103b057600080fd5b506101b0610c9e565b3480156103c557600080fd5b5060005473ffffffffffffffffffffffffffffffffffffffff166101e6565b3480156103f057600080fd5b506005546101e69073ffffffffffffffffffffffffffffffffffffffff1681565b34801561041d57600080fd5b506006546101e69073ffffffffffffffffffffffffffffffffffffffff1681565b34801561044a57600080fd5b506004546101e69073ffffffffffffffffffffffffffffffffffffffff1681565b34801561047757600080fd5b50604051468152602001610207565b34801561049257600080fd5b506101b06104a1366004611f1a565b610d53565b3480156104b257600080fd5b506102526104c1366004611fc3565b610da2565b3480156104d257600080fd5b5060015473ffffffffffffffffffffffffffffffffffffffff166101e6565b3480156104fd57600080fd5b50610225610e17565b34801561051257600080fd5b506101b0610521366004611f1a565b610e26565b61052e610f4b565b61056d82828080601f016020809104026020016040519081016040528093929190818152602001838380828437600092019190915250610fcc92505050565b5050565b60606002805461058090611ffa565b80601f01602080910402602001604051908101604052809291908181526020018280546105ac90611ffa565b80156105f95780601f106105ce576101008083540402835291602001916105f9565b820191906000526020600020905b8154815290600101906020018083116105dc57829003601f168201915b5050505050905090565b60008061061485846104c187611013565b91509150935093915050565b600080338161062d61113c565b905061063882610b8c565b6106a3576040517f08c379a000000000000000000000000000000000000000000000000000000000815260206004820152600560248201527f21706f727400000000000000000000000000000000000000000000000000000060448201526064015b60405180910390fd5b6106ac816111d1565b73ffffffffffffffffffffffffffffffffffffffff166106ca61127c565b73ffffffffffffffffffffffffffffffffffffffff1614610747576040517f08c379a000000000000000000000000000000000000000000000000000000000815260206004820152600b60248201527f21786d736753656e646572000000000000000000000000000000000000000000604482015260640161069a565b61075381878488611314565b9350935050505b9250929050565b6040517f610b592500000000000000000000000000000000000000000000000000000000815273ffffffffffffffffffffffffffffffffffffffff831660048201523090819063610b592590602401600060405180830381600087803b1580156107ca57600080fd5b505af11580156107de573d6000803e3d6000fd5b5050505073ffffffffffffffffffffffffffffffffffffffff821615610880576040517f610b592500000000000000000000000000000000000000000000000000000000815273ffffffffffffffffffffffffffffffffffffffff838116600483015282169063610b592590602401600060405180830381600087803b15801561086757600080fd5b505af115801561087b573d6000803e3d6000fd5b505050505b505050565b61088d610f4b565b600780547fffffffffffffffffffffffff00000000000000000000000000000000000000001673ffffffffffffffffffffffffffffffffffffffff92909216919091179055565b6108dc610f4b565b600480547fffffffffffffffffffffffff00000000000000000000000000000000000000001673ffffffffffffffffffffffffffffffffffffffff92909216919091179055565b3446850361098d576040517f08c379a000000000000000000000000000000000000000000000000000000000815260206004820152600a60248201527f21746f436861696e496400000000000000000000000000000000000000000000604482015260640161069a565b60408051336024820181905273ffffffffffffffffffffffffffffffffffffffff8581166044808501919091528451808503909101815260649093019093526020820180517bffffffffffffffffffffffffffffffffffffffffffffffffffffffff167f322eac7800000000000000000000000000000000000000000000000000000000179052916000907f00000000000000000000000099503f8a95dd259547900131e3d98f394b6ba88a1663805da4ad468c8c6040518463ffffffff1660e01b8152600401610a6093929190612096565b602060405180830381865afa158015610a7d573d6000803e3d6000fd5b505050506040513d601f19601f82011682018060405250810190610aa191906120b9565b90508073ffffffffffffffffffffffffffffffffffffffff166316fe55ae858a610aca8c611013565b868c8c6040518763ffffffff1660e01b8152600401610aed9594939291906120d6565b60206040518083038185885af1158015610b0b573d6000803e3d6000fd5b50505050506040513d601f19601f82011682018060405250810190610b30919061212a565b5050505050505050505050565b610b45610f4b565b600580547fffffffffffffffffffffffff00000000000000000000000000000000000000001673ffffffffffffffffffffffffffffffffffffffff92909216919091179055565b60008073ffffffffffffffffffffffffffffffffffffffff7f00000000000000000000000099503f8a95dd259547900131e3d98f394b6ba88a16637db6e675466040517fffffffff0000000000000000000000000000000000000000000000000000000060e084901b168152600481019190915273ffffffffffffffffffffffffffffffffffffffff86166024820152604401600060405180830381865afa158015610c3c573d6000803e3d6000fd5b505050506040513d6000823e601f3d9081017fffffffffffffffffffffffffffffffffffffffffffffffffffffffffffffffe0168201604052610c829190810190612204565b511192915050565b610c92610f4b565b610c9c6000611471565b565b600154339073ffffffffffffffffffffffffffffffffffffffff168114610d47576040517f08c379a000000000000000000000000000000000000000000000000000000000815260206004820152602960248201527f4f776e61626c6532537465703a2063616c6c6572206973206e6f74207468652060448201527f6e6577206f776e65720000000000000000000000000000000000000000000000606482015260840161069a565b610d5081611471565b50565b610d5b610f4b565b600680547fffffffffffffffffffffffff00000000000000000000000000000000000000001673ffffffffffffffffffffffffffffffffffffffff92909216919091179055565b60008060008585604051602001610de892919091825260601b7fffffffffffffffffffffffffffffffffffffffff00000000000000000000000016602082015260340190565b604051602081830303815290604052805190602001209050610e0a81856114a2565b9250925050935093915050565b60606003805461058090611ffa565b610e2e610f4b565b6001805473ffffffffffffffffffffffffffffffffffffffff83167fffffffffffffffffffffffff00000000000000000000000000000000000000009091168117909155610e9160005473ffffffffffffffffffffffffffffffffffffffff1690565b73ffffffffffffffffffffffffffffffffffffffff167f38d16b8cac22d99fc7c124b9cd0de2d3fa1faef420bfe791d8c362d765e2270060405160405180910390a350565b6000805473ffffffffffffffffffffffffffffffffffffffff8381167fffffffffffffffffffffffff0000000000000000000000000000000000000000831681178455604051919092169283917f8be0079c531659141344cd1fd0a4f28419497f9722a3daafe3b4186f6b6457e09190a35050565b60005473ffffffffffffffffffffffffffffffffffffffff163314610c9c576040517f08c379a000000000000000000000000000000000000000000000000000000000815260206004820181905260248201527f4f776e61626c653a2063616c6c6572206973206e6f7420746865206f776e6572604482015260640161069a565b6003610fd882826122a3565b507f3d7a9962f6da134f6896430d6867bd08e3546dbf9570df877e7cec39ba4305f0816040516110089190611e6c565b60405180910390a150565b60007f00000000000000000000000099503f8a95dd259547900131e3d98f394b6ba88a73ffffffffffffffffffffffffffffffffffffffff1663805da4ad8361105a610571565b6040518363ffffffff1660e01b81526004016110779291906123bd565b602060405180830381865afa158015611094573d6000803e3d6000fd5b505050506040513d601f19601f820116820180604052508101906110b891906120b9565b905073ffffffffffffffffffffffffffffffffffffffff8116611137576040517f08c379a000000000000000000000000000000000000000000000000000000000815260206004820152600360248201527f21746f0000000000000000000000000000000000000000000000000000000000604482015260640161069a565b919050565b600060343610156111a9576040517f08c379a000000000000000000000000000000000000000000000000000000000815260206004820152600c60248201527f2166726f6d436861696e49640000000000000000000000000000000000000000604482015260640161069a565b507fffffffffffffffffffffffffffffffffffffffffffffffffffffffffffffffcc36013590565b60007f00000000000000000000000099503f8a95dd259547900131e3d98f394b6ba88a73ffffffffffffffffffffffffffffffffffffffff1663805da4ad83611218610571565b6040518363ffffffff1660e01b81526004016112359291906123bd565b602060405180830381865afa158015611252573d6000803e3d6000fd5b505050506040513d601f19601f8201168201806040525081019061127691906120b9565b92915050565b600060143610156112e9576040517f08c379a000000000000000000000000000000000000000000000000000000000815260206004820152600960248201527f2166726f6d446170700000000000000000000000000000000000000000000000604482015260640161069a565b507fffffffffffffffffffffffffffffffffffffffffffffffffffffffffffffffec36013560601c90565b600080468603611380576040517f08c379a000000000000000000000000000000000000000000000000000000000815260206004820152600860248201527f21636861696e4964000000000000000000000000000000000000000000000000604482015260640161069a565b600086866040516020016113c392919091825260601b7fffffffffffffffffffffffffffffffffffffffff00000000000000000000000016602082015260340190565b6040516020818303038152906040528051906020012090506113e4816116a9565b90935091506113f4838386611809565b611401828489898961198a565b6040805188815273ffffffffffffffffffffffffffffffffffffffff88811660208301528581168284015284811660608301528716608082015290517f46f168c9840da3df377c311ae8fde0281428d6ee68dd767c768dc545b307367b9181900360a00190a15094509492505050565b600180547fffffffffffffffffffffffff0000000000000000000000000000000000000000169055610d5081610ed6565b604080518082018252601081527f67363d3d37363d34f03d5260086018f30000000000000000000000000000000060209182015290517fff00000000000000000000000000000000000000000000000000000000000000918101919091527fffffffffffffffffffffffffffffffffffffffff000000000000000000000000606083901b166021820152603581018390527f21c35dbe1b344a2488cf3321d6ce542f8e9f305544ff09e4993a62319a497c1f605582015260009081908190611581906075015b6040516020818303038152906040528051906020012090565b6040517fd69400000000000000000000000000000000000000000000000000000000000060208201527fffffffffffffffffffffffffffffffffffffffff000000000000000000000000606083901b1660228201527f0100000000000000000000000000000000000000000000000000000000000000603682015290915060009061160e90603701611568565b6040517fd69400000000000000000000000000000000000000000000000000000000000060208201527fffffffffffffffffffffffffffffffffffffffff000000000000000000000000606085901b1660228201527f0200000000000000000000000000000000000000000000000000000000000000603682015290915060009061169b90603701611568565b919791965090945050505050565b6000806116b683306114a2565b600754604080517f53e5d935000000000000000000000000000000000000000000000000000000008152905193955091935060009273ffffffffffffffffffffffffffffffffffffffff909116916353e5d93591600480830192869291908290030181865afa15801561172d573d6000803e3d6000fd5b505050506040513d6000823e601f3d9081017fffffffffffffffffffffffffffffffffffffffffffffffffffffffffffffffe01682016040526117739190810190612204565b6006546040519192506000916117a691849173ffffffffffffffffffffffffffffffffffffffff909116906020016123d6565b604080517fffffffffffffffffffffffffffffffffffffffffffffffffffffffffffffffe08184030181529190526004549091506117fd908690839073ffffffffffffffffffffffffffffffffffffffff16611a29565b90969095509350505050565b6040805173ffffffffffffffffffffffffffffffffffffffff848116602483015283166044808301919091528251808303909101815260649091018252602080820180517bffffffffffffffffffffffffffffffffffffffffffffffffffffffff167f382f28b800000000000000000000000000000000000000000000000000000000179052825160018082528185019094529192916000918390828101908036833701905050905073dddddddddddddddddddddddddddddddddddddddd816000815181106118da576118da6123f8565b73ffffffffffffffffffffffffffffffffffffffff92831660209182029290920101526005546040517fb63e800d0000000000000000000000000000000000000000000000000000000081528883169263b63e800d92611950928692889230928b92919091169060009081908190600401612427565b600060405180830381600087803b15801561196a57600080fd5b505af115801561197e573d6000803e3d6000fd5b50505050505050505050565b6040517f3bc4d8d200000000000000000000000000000000000000000000000000000000815273ffffffffffffffffffffffffffffffffffffffff85811660048301526024820185905283811660448301528281166064830152861690633bc4d8d290608401600060405180830381600087803b158015611a0a57600080fd5b505af1158015611a1e573d6000803e3d6000fd5b505050505050505050565b60008060006040518060400160405280601081526020017f67363d3d37363d34f03d5260086018f30000000000000000000000000000000081525090506000868251602084016000f5905073ffffffffffffffffffffffffffffffffffffffff8116611af1576040517f08c379a000000000000000000000000000000000000000000000000000000000815260206004820152601160248201527f4445504c4f594d454e545f4641494c4544000000000000000000000000000000604482015260640161069a565b611afb87306114a2565b604051919550935060009073ffffffffffffffffffffffffffffffffffffffff831690611b29908990612524565b6000604051808303816000865af19150503d8060008114611b66576040519150601f19603f3d011682016040523d82523d6000602084013e611b6b565b606091505b50509050808015611b92575073ffffffffffffffffffffffffffffffffffffffff85163b15155b611bf8576040517f08c379a000000000000000000000000000000000000000000000000000000000815260206004820152601660248201527f494e495449414c495a4154494f4e5f4641494c45443100000000000000000000604482015260640161069a565b6000611c0387611d07565b90508273ffffffffffffffffffffffffffffffffffffffff1681604051611c2a9190612524565b6000604051808303816000865af19150503d8060008114611c67576040519150601f19603f3d011682016040523d82523d6000602084013e611c6c565b606091505b505080925050818015611c95575073ffffffffffffffffffffffffffffffffffffffff85163b15155b611cfb576040517f08c379a000000000000000000000000000000000000000000000000000000000815260206004820152601660248201527f494e495449414c495a4154494f4e5f4641494c45443200000000000000000000604482015260640161069a565b50505050935093915050565b604080516037808252606082810190935283831b9160009160208201818036833750507f3d602d80600a3d3981f3363d3d373d3d3d363d730000000000000000000000006020830152506034810192909252507f5af43d82803e903d91602b57fd5bf30000000000000000000000000000000000604882015292915050565b60008083601f840112611d9857600080fd5b50813567ffffffffffffffff811115611db057600080fd5b60208301915083602082850101111561075a57600080fd5b60008060208385031215611ddb57600080fd5b823567ffffffffffffffff811115611df257600080fd5b6117fd85828601611d86565b60005b83811015611e19578181015183820152602001611e01565b50506000910152565b60008151808452611e3a816020860160208601611dfe565b601f017fffffffffffffffffffffffffffffffffffffffffffffffffffffffffffffffe0169290920160200192915050565b602081526000611e7f6020830184611e22565b9392505050565b73ffffffffffffffffffffffffffffffffffffffff81168114610d5057600080fd5b600080600060608486031215611ebd57600080fd5b83359250602084013591506040840135611ed681611e86565b809150509250925092565b60008060408385031215611ef457600080fd5b8235611eff81611e86565b91506020830135611f0f81611e86565b809150509250929050565b600060208284031215611f2c57600080fd5b8135611e7f81611e86565b60008060008060008060808789031215611f5057600080fd5b863567ffffffffffffffff80821115611f6857600080fd5b611f748a838b01611d86565b9098509650602089013595506040890135915080821115611f9457600080fd5b50611fa189828a01611d86565b9094509250506060870135611fb581611e86565b809150509295509295509295565b600080600060608486031215611fd857600080fd5b833592506020840135611fea81611e86565b91506040840135611ed681611e86565b600181811c9082168061200e57607f821691505b602082108103612047577f4e487b7100000000000000000000000000000000000000000000000000000000600052602260045260246000fd5b50919050565b8183528181602085013750600060208284010152600060207fffffffffffffffffffffffffffffffffffffffffffffffffffffffffffffffe0601f840116840101905092915050565b8381526040602082015260006120b060408301848661204d565b95945050505050565b6000602082840312156120cb57600080fd5b8151611e7f81611e86565b85815273ffffffffffffffffffffffffffffffffffffffff8516602082015260806040820152600061210b6080830186611e22565b828103606084015261211e81858761204d565b98975050505050505050565b60006020828403121561213c57600080fd5b5051919050565b7f4e487b7100000000000000000000000000000000000000000000000000000000600052604160045260246000fd5b600067ffffffffffffffff8084111561218d5761218d612143565b604051601f85017fffffffffffffffffffffffffffffffffffffffffffffffffffffffffffffffe0908116603f011681019082821181831017156121d3576121d3612143565b816040528093508581528686860111156121ec57600080fd5b6121fa866020830187611dfe565b5050509392505050565b60006020828403121561221657600080fd5b815167ffffffffffffffff81111561222d57600080fd5b8201601f8101841361223e57600080fd5b61224d84825160208401612172565b949350505050565b601f82111561088057600081815260208120601f850160051c8101602086101561227c5750805b601f850160051c820191505b8181101561229b57828155600101612288565b505050505050565b815167ffffffffffffffff8111156122bd576122bd612143565b6122d1816122cb8454611ffa565b84612255565b602080601f83116001811461232457600084156122ee5750858301515b7fffffffffffffffffffffffffffffffffffffffffffffffffffffffffffffffff600386901b1c1916600185901b17855561229b565b6000858152602081207fffffffffffffffffffffffffffffffffffffffffffffffffffffffffffffffe08616915b8281101561237157888601518255948401946001909101908401612352565b50858210156123ad57878501517fffffffffffffffffffffffffffffffffffffffffffffffffffffffffffffffff600388901b60f8161c191681555b5050505050600190811b01905550565b82815260406020820152600061224d6040830184611e22565b600083516123e8818460208801611dfe565b9190910191825250602001919050565b7f4e487b7100000000000000000000000000000000000000000000000000000000600052603260045260246000fd5b6101008082528951908201819052600090610120830190602090818d01845b8281101561247857815173ffffffffffffffffffffffffffffffffffffffff1685529383019390830190600101612446565b50505083018a905273ffffffffffffffffffffffffffffffffffffffff8916604084015282810360608401526124ae8189611e22565b9150506124d3608083018773ffffffffffffffffffffffffffffffffffffffff169052565b73ffffffffffffffffffffffffffffffffffffffff851660a08301528360c083015261251760e083018473ffffffffffffffffffffffffffffffffffffffff169052565b9998505050505050505050565b60008251612536818460208701611dfe565b919091019291505056fea264697066735822122031e10a341b8b1c261fbdd388f5c8f4ad47398148ef2ec63eb748b5b2db0f41a564736f6c63430008110033",
			"devdoc": {
				"kind": "dev",
				"methods": {
					"acceptOwnership()": {
						"details": "The new owner accepts the ownership transfer."
					},
					"name()": {
						"returns": {
							"_0": "The MessagePort name."
						}
					},
					"owner()": {
						"details": "Returns the address of the current owner."
					},
					"pendingOwner()": {
						"details": "Returns the address of the pending owner."
					},
					"renounceOwnership()": {
						"details": "Leaves the contract without owner. It will not be possible to call `onlyOwner` functions. Can only be called by the current owner. NOTE: Renouncing ownership will leave the contract without an owner, thereby disabling any functionality that is only available to the owner."
					},
					"transferOwnership(address)": {
						"details": "Starts the ownership transfer of the contract to a new account. Replaces the pending transfer if there is one. Can only be called by the current owner."
					},
					"uri()": {
						"returns": {
							"_0": "The port metadata uri."
						}
					},
					"xAccountOf(uint256,address,address)": {
						"details": "Calculate xAccount address.",
						"params": {
							"deployer": "Owner that xAccount belongs to.",
							"factory": "Factory that create xAccount.",
							"fromChainId": "Chain id that xAccount belongs in."
						},
						"returns": {
							"_0": "(xAccount address, module address)."
						}
					},
					"xAccountOf(uint256,uint256,address)": {
						"details": "Calculate xAccount address on target chain.",
						"params": {
							"deployer": "Owner that xAccount belongs to.",
							"fromChainId": "Chain id that xAccount belongs in.",
							"toChainId": "Chain id that xAccount lives in."
						},
						"returns": {
							"_0": "(xAccount address, module address)."
						}
					},
					"xCreate(string,uint256,bytes,address)": {
						"details": "Cross chian function for create xAccount on target chain.",
						"params": {
							"name": "Port name that used for create xAccount.",
							"params": "Port params correspond with the port.",
							"recovery": "The default safe recovery module address on target chain for xAccount.",
							"toChainId": "Target chain id."
						}
					},
					"xDeploy(address,address)": {
						"details": "Create xAccount on target chain.",
						"params": {
							"deployer": "Deployer on source chain.",
							"recovery": "The default safe recovery module address for xAccount."
						},
						"returns": {
							"_0": "Deployed xAccount address."
						}
					}
				},
				"version": 1
			},
			"userdoc": {
				"kind": "user",
				"methods": {
					"name()": {
						"notice": "Get the port name, it's globally unique and immutable."
					},
					"xAccountOf(uint256,address,address)": {
						"notice": "The module address is only effective during its creation and may be replaced by the xAccount in the future."
					},
					"xAccountOf(uint256,uint256,address)": {
						"notice": "The module address is only effective during its creation and may be replaced by the xAccount in the future."
					},
					"xCreate(string,uint256,bytes,address)": {
						"notice": "If recovery address is `address(0)`, do not enabale recovery module."
					},
					"xDeploy(address,address)": {
						"notice": "Only could be called by source chain."
					}
				},
				"version": 1
			},
			"gitCommit": "f0193126eda4e034175619438fc55d4e32448dd8",
			"sourceName": "lib/darwinia-msgport/src/xAccount/XAccountFactory.sol",
			"chainId": "421614",
			"linkReferences": {},
			"deployedLinkReferences": {}
		}
	]
}