{
	"_format": "sphinx-sol-ct-artifact-1",
	"merkleRoot": "0x8ed8ae243a4823b490402b72a5a66bd6367651f42c7ca9d53351953dddb0461a",
	"contractName": "ORMPUpgradeablePort",
	"address": "0x2cd1867Fb8016f93710B6386f7f9F1D540A60812",
	"abi": [
		{
			"type": "constructor",
			"inputs": [
				{
					"name": "dao",
					"type": "address",
					"internalType": "address"
				},
				{
					"name": "ormp_",
					"type": "address",
					"internalType": "address"
				},
				{
					"name": "name",
					"type": "string",
					"internalType": "string"
				}
			],
			"stateMutability": "nonpayable"
		},
		{
			"type": "function",
			"name": "LOCAL_CHAINID",
			"inputs": [],
			"outputs": [
				{
					"name": "",
					"type": "uint256",
					"internalType": "uint256"
				}
			],
			"stateMutability": "view"
		},
		{
			"type": "function",
			"name": "acceptOwnership",
			"inputs": [],
			"outputs": [],
			"stateMutability": "nonpayable"
		},
		{
			"type": "function",
			"name": "delORMP",
			"inputs": [
				{
					"name": "ormp_",
					"type": "address",
					"internalType": "address"
				}
			],
			"outputs": [],
			"stateMutability": "nonpayable"
		},
		{
			"type": "function",
			"name": "fee",
			"inputs": [
				{
					"name": "toChainId",
					"type": "uint256",
					"internalType": "uint256"
				},
				{
					"name": "fromDapp",
					"type": "address",
					"internalType": "address"
				},
				{
					"name": "toDapp",
					"type": "address",
					"internalType": "address"
				},
				{
					"name": "message",
					"type": "bytes",
					"internalType": "bytes"
				},
				{
					"name": "params",
					"type": "bytes",
					"internalType": "bytes"
				}
			],
			"outputs": [
				{
					"name": "",
					"type": "uint256",
					"internalType": "uint256"
				}
			],
			"stateMutability": "view"
		},
		{
			"type": "function",
			"name": "historyORMPAt",
			"inputs": [
				{
					"name": "index",
					"type": "uint256",
					"internalType": "uint256"
				}
			],
			"outputs": [
				{
					"name": "",
					"type": "address",
					"internalType": "address"
				}
			],
			"stateMutability": "view"
		},
		{
			"type": "function",
			"name": "historyORMPContains",
			"inputs": [
				{
					"name": "ormp_",
					"type": "address",
					"internalType": "address"
				}
			],
			"outputs": [
				{
					"name": "",
					"type": "bool",
					"internalType": "bool"
				}
			],
			"stateMutability": "view"
		},
		{
			"type": "function",
			"name": "historyORMPLength",
			"inputs": [],
			"outputs": [
				{
					"name": "",
					"type": "uint256",
					"internalType": "uint256"
				}
			],
			"stateMutability": "view"
		},
		{
			"type": "function",
			"name": "historyORMPs",
			"inputs": [],
			"outputs": [
				{
					"name": "",
					"type": "address[]",
					"internalType": "address[]"
				}
			],
			"stateMutability": "view"
		},
		{
			"type": "function",
			"name": "name",
			"inputs": [],
			"outputs": [
				{
					"name": "",
					"type": "string",
					"internalType": "string"
				}
			],
			"stateMutability": "view"
		},
		{
			"type": "function",
			"name": "ormp",
			"inputs": [],
			"outputs": [
				{
					"name": "",
					"type": "address",
					"internalType": "address"
				}
			],
			"stateMutability": "view"
		},
		{
			"type": "function",
			"name": "owner",
			"inputs": [],
			"outputs": [
				{
					"name": "",
					"type": "address",
					"internalType": "address"
				}
			],
			"stateMutability": "view"
		},
		{
			"type": "function",
			"name": "peerOf",
			"inputs": [
				{
					"name": "chainId",
					"type": "uint256",
					"internalType": "uint256"
				}
			],
			"outputs": [
				{
					"name": "",
					"type": "address",
					"internalType": "address"
				}
			],
			"stateMutability": "view"
		},
		{
			"type": "function",
			"name": "pendingOwner",
			"inputs": [],
			"outputs": [
				{
					"name": "",
					"type": "address",
					"internalType": "address"
				}
			],
			"stateMutability": "view"
		},
		{
			"type": "function",
			"name": "recv",
			"inputs": [
				{
					"name": "fromDapp",
					"type": "address",
					"internalType": "address"
				},
				{
					"name": "toDapp",
					"type": "address",
					"internalType": "address"
				},
				{
					"name": "message",
					"type": "bytes",
					"internalType": "bytes"
				}
			],
			"outputs": [],
			"stateMutability": "payable"
		},
		{
			"type": "function",
			"name": "renounceOwnership",
			"inputs": [],
			"outputs": [],
			"stateMutability": "nonpayable"
		},
		{
			"type": "function",
			"name": "send",
			"inputs": [
				{
					"name": "toChainId",
					"type": "uint256",
					"internalType": "uint256"
				},
				{
					"name": "toDapp",
					"type": "address",
					"internalType": "address"
				},
				{
					"name": "message",
					"type": "bytes",
					"internalType": "bytes"
				},
				{
					"name": "params",
					"type": "bytes",
					"internalType": "bytes"
				}
			],
			"outputs": [
				{
					"name": "msgId",
					"type": "bytes32",
					"internalType": "bytes32"
				}
			],
			"stateMutability": "payable"
		},
		{
			"type": "function",
			"name": "setAppConfig",
			"inputs": [
				{
					"name": "ormp_",
					"type": "address",
					"internalType": "address"
				},
				{
					"name": "oracle",
					"type": "address",
					"internalType": "address"
				},
				{
					"name": "relayer",
					"type": "address",
					"internalType": "address"
				}
			],
			"outputs": [],
			"stateMutability": "nonpayable"
		},
		{
			"type": "function",
			"name": "setORMP",
			"inputs": [
				{
					"name": "ormp_",
					"type": "address",
					"internalType": "address"
				}
			],
			"outputs": [],
			"stateMutability": "nonpayable"
		},
		{
			"type": "function",
			"name": "setPeer",
			"inputs": [
				{
					"name": "chainId",
					"type": "uint256",
					"internalType": "uint256"
				},
				{
					"name": "peer",
					"type": "address",
					"internalType": "address"
				}
			],
			"outputs": [],
			"stateMutability": "nonpayable"
		},
		{
			"type": "function",
			"name": "setURI",
			"inputs": [
				{
					"name": "uri",
					"type": "string",
					"internalType": "string"
				}
			],
			"outputs": [],
			"stateMutability": "nonpayable"
		},
		{
			"type": "function",
			"name": "transferOwnership",
			"inputs": [
				{
					"name": "newOwner",
					"type": "address",
					"internalType": "address"
				}
			],
			"outputs": [],
			"stateMutability": "nonpayable"
		},
		{
			"type": "function",
			"name": "uri",
			"inputs": [],
			"outputs": [
				{
					"name": "",
					"type": "string",
					"internalType": "string"
				}
			],
			"stateMutability": "view"
		},
		{
			"type": "event",
			"name": "HistoryORMPAdded",
			"inputs": [
				{
					"name": "ormp",
					"type": "address",
					"indexed": false,
					"internalType": "address"
				}
			],
			"anonymous": false
		},
		{
			"type": "event",
			"name": "HistoryORMPDeleted",
			"inputs": [
				{
					"name": "ormp",
					"type": "address",
					"indexed": false,
					"internalType": "address"
				}
			],
			"anonymous": false
		},
		{
			"type": "event",
			"name": "MessageRecv",
			"inputs": [
				{
					"name": "msgId",
					"type": "bytes32",
					"indexed": true,
					"internalType": "bytes32"
				},
				{
					"name": "result",
					"type": "bool",
					"indexed": false,
					"internalType": "bool"
				},
				{
					"name": "returnData",
					"type": "bytes",
					"indexed": false,
					"internalType": "bytes"
				}
			],
			"anonymous": false
		},
		{
			"type": "event",
			"name": "MessageSent",
			"inputs": [
				{
					"name": "msgId",
					"type": "bytes32",
					"indexed": true,
					"internalType": "bytes32"
				},
				{
					"name": "fromDapp",
					"type": "address",
					"indexed": false,
					"internalType": "address"
				},
				{
					"name": "toChainId",
					"type": "uint256",
					"indexed": false,
					"internalType": "uint256"
				},
				{
					"name": "toDapp",
					"type": "address",
					"indexed": false,
					"internalType": "address"
				},
				{
					"name": "message",
					"type": "bytes",
					"indexed": false,
					"internalType": "bytes"
				},
				{
					"name": "params",
					"type": "bytes",
					"indexed": false,
					"internalType": "bytes"
				}
			],
			"anonymous": false
		},
		{
			"type": "event",
			"name": "OwnershipTransferStarted",
			"inputs": [
				{
					"name": "previousOwner",
					"type": "address",
					"indexed": true,
					"internalType": "address"
				},
				{
					"name": "newOwner",
					"type": "address",
					"indexed": true,
					"internalType": "address"
				}
			],
			"anonymous": false
		},
		{
			"type": "event",
			"name": "OwnershipTransferred",
			"inputs": [
				{
					"name": "previousOwner",
					"type": "address",
					"indexed": true,
					"internalType": "address"
				},
				{
					"name": "newOwner",
					"type": "address",
					"indexed": true,
					"internalType": "address"
				}
			],
			"anonymous": false
		},
		{
			"type": "event",
			"name": "PeerSet",
			"inputs": [
				{
					"name": "chainId",
					"type": "uint256",
					"indexed": false,
					"internalType": "uint256"
				},
				{
					"name": "peer",
					"type": "address",
					"indexed": false,
					"internalType": "address"
				}
			],
			"anonymous": false
		},
		{
			"type": "event",
			"name": "SetORMP",
			"inputs": [
				{
					"name": "previousORMP",
					"type": "address",
					"indexed": false,
					"internalType": "address"
				},
				{
					"name": "currentORMP",
					"type": "address",
					"indexed": false,
					"internalType": "address"
				}
			],
			"anonymous": false
		},
		{
			"type": "event",
			"name": "URI",
			"inputs": [
				{
					"name": "uri",
					"type": "string",
					"indexed": false,
					"internalType": "string"
				}
			],
			"anonymous": false
		}
	],
	"solcInputHash": "bd281d871188d23306cfa03337a3378b",
	"args": [
		"0x040f331774Ed6BB161412B4cEDb1358B382aF3A5",
		"0x13b2211a7cA45Db2808F6dB05557ce5347e3634e",
		"ORMP-U"
	],
	"bytecode": "0x60806040523480156200001157600080fd5b5060405162002559380380620025598339810160408190526200003491620001c0565b80806200004133620000a1565b60026200004f828262000349565b5050506200006383620000a160201b60201c565b600580546001600160a01b0319166001600160a01b03841617905562000097600683620000cb602090811b62000e1e17901c565b5050505062000415565b600180546001600160a01b0319169055620000c881620000eb602090811b62000e4717901c565b50565b6000620000e2836001600160a01b0384166200013b565b90505b92915050565b600080546001600160a01b038381166001600160a01b0319831681178455604051919092169283917f8be0079c531659141344cd1fd0a4f28419497f9722a3daafe3b4186f6b6457e09190a35050565b60008181526001830160205260408120546200018457508154600181810184556000848152602080822090930184905584548482528286019093526040902091909155620000e5565b506000620000e5565b80516001600160a01b0381168114620001a557600080fd5b919050565b634e487b7160e01b600052604160045260246000fd5b600080600060608486031215620001d657600080fd5b620001e1846200018d565b92506020620001f28186016200018d565b60408601519093506001600160401b03808211156200021057600080fd5b818701915087601f8301126200022557600080fd5b8151818111156200023a576200023a620001aa565b604051601f8201601f19908116603f01168101908382118183101715620002655762000265620001aa565b816040528281528a868487010111156200027e57600080fd5b600093505b82841015620002a2578484018601518185018701529285019262000283565b60008684830101528096505050505050509250925092565b600181811c90821680620002cf57607f821691505b602082108103620002f057634e487b7160e01b600052602260045260246000fd5b50919050565b601f8211156200034457600081815260208120601f850160051c810160208610156200031f5750805b601f850160051c820191505b8181101562000340578281556001016200032b565b5050505b505050565b81516001600160401b03811115620003655762000365620001aa565b6200037d81620003768454620002ba565b84620002f6565b602080601f831160018114620003b557600084156200039c5750858301515b600019600386901b1c1916600185901b17855562000340565b600085815260208120601f198616915b82811015620003e657888601518255948401946001909101908401620003c5565b5085821015620004055787850151600019600388901b60f8161c191681555b5050505050600190811b01905550565b61213480620004256000396000f3fe6080604052600436106101755760003560e01c80638069c497116100cb578063ea3de3d31161007f578063fd0d5a1911610059578063fd0d5a19146103fa578063fd9374991461041c578063ff0202221461043c57600080fd5b8063ea3de3d3146103a5578063eac989f8146103c5578063f2fde38b146103da57600080fd5b8063968c4441116100b0578063968c444114610337578063b0ff5e7214610367578063e30c39781461037a57600080fd5b80638069c497146102ec5780638da5cb5b1461030c57600080fd5b80634d16220d1161012d578063715018a611610107578063715018a6146102a257806379ba5097146102b75780637e136c64146102cc57600080fd5b80634d16220d1461024d5780634d8464a61461026d57806366c16c901461028d57600080fd5b806316fe55ae1161015e57806316fe55ae146101c757806337645118146101e8578063394d1bca1461023a57600080fd5b806302fe53051461017a57806306fdde031461019c575b600080fd5b34801561018657600080fd5b5061019a6101953660046117c7565b61047f565b005b3480156101a857600080fd5b506101b16104ca565b6040516101be9190611877565b60405180910390f35b6101da6101d53660046118ac565b61055c565b6040519081526020016101be565b3480156101f457600080fd5b506005546102159073ffffffffffffffffffffffffffffffffffffffff1681565b60405173ffffffffffffffffffffffffffffffffffffffff90911681526020016101be565b61019a610248366004611938565b6105bd565b34801561025957600080fd5b5061021561026836600461199d565b610734565b34801561027957600080fd5b5061019a6102883660046119b6565b610747565b34801561029957600080fd5b506101da6108a4565b3480156102ae57600080fd5b5061019a6108b5565b3480156102c357600080fd5b5061019a6108c9565b3480156102d857600080fd5b5061019a6102e73660046119d3565b61097e565b3480156102f857600080fd5b5061019a610307366004611a1e565b610a85565b34801561031857600080fd5b5060005473ffffffffffffffffffffffffffffffffffffffff16610215565b34801561034357600080fd5b506103576103523660046119b6565b610a97565b60405190151581526020016101be565b34801561037357600080fd5b50466101da565b34801561038657600080fd5b5060015473ffffffffffffffffffffffffffffffffffffffff16610215565b3480156103b157600080fd5b5061019a6103c03660046119b6565b610aa4565b3480156103d157600080fd5b506101b1610bf0565b3480156103e657600080fd5b5061019a6103f53660046119b6565b610bff565b34801561040657600080fd5b5061040f610caf565b6040516101be9190611a4e565b34801561042857600080fd5b506101da610437366004611aa8565b610cbb565b34801561044857600080fd5b5061021561045736600461199d565b60009081526004602052604090205473ffffffffffffffffffffffffffffffffffffffff1690565b610487610ebc565b6104c682828080601f016020809104026020016040519081016040528093929190818152602001838380828437600092019190915250610f3d92505050565b5050565b6060600280546104d990611b47565b80601f016020809104026020016040519081016040528092919081815260200182805461050590611b47565b80156105525780601f1061052757610100808354040283529160200191610552565b820191906000526020600020905b81548152906001019060200180831161053557829003601f168201915b5050505050905090565b600061056d33888888888888610f79565b9050807f40195d26d027672e04e23e34282d68c3d43ea138415b24c54fcdb9c2573e5975338989898989896040516105ab9796959493929190611be3565b60405180910390a29695505050505050565b6105c86006336110d2565b610633576040517f08c379a000000000000000000000000000000000000000000000000000000000815260206004820152600660248201527f216f726d7073000000000000000000000000000000000000000000000000000060448201526064015b60405180910390fd5b600061063d611101565b905061064881611196565b73ffffffffffffffffffffffffffffffffffffffff16610666611227565b73ffffffffffffffffffffffffffffffffffffffff16146106e3576040517f08c379a000000000000000000000000000000000000000000000000000000000815260206004820152600560248201527f2161757468000000000000000000000000000000000000000000000000000000604482015260640161062a565b61072d6106ee6112bf565b82878787878080601f01602080910402602001604051908101604052809392919081815260200183838082843760009201919091525061135492505050565b5050505050565b60006107416006836114bc565b92915050565b61074f610ebc565b6005805473ffffffffffffffffffffffffffffffffffffffff8381167fffffffffffffffffffffffff00000000000000000000000000000000000000008316179092551661079e600683610e1e565b610806576040517f08c379a000000000000000000000000000000000000000000000000000000000815260040161062a9060208082526004908201527f2161646400000000000000000000000000000000000000000000000000000000604082015260600190565b6040805173ffffffffffffffffffffffffffffffffffffffff8084168252841660208201527f2546b320a5e5d5577ddc36cd3d83b9f37f6c4d73a7d940d473cd72e52c1fd894910160405180910390a160405173ffffffffffffffffffffffffffffffffffffffff831681527f8af9a700c7743999640a0e8ccf8c7a29e0c3100288901cccd7a9a6b371edbab3906020015b60405180910390a15050565b60006108b060066114c8565b905090565b6108bd610ebc565b6108c760006114d2565b565b600154339073ffffffffffffffffffffffffffffffffffffffff168114610972576040517f08c379a000000000000000000000000000000000000000000000000000000000815260206004820152602960248201527f4f776e61626c6532537465703a2063616c6c6572206973206e6f74207468652060448201527f6e6577206f776e65720000000000000000000000000000000000000000000000606482015260840161062a565b61097b816114d2565b50565b610986610ebc565b6109916006846110d2565b6109f7576040517f08c379a000000000000000000000000000000000000000000000000000000000815260206004820152600660248201527f2165786973740000000000000000000000000000000000000000000000000000604482015260640161062a565b6040517f8b22909100000000000000000000000000000000000000000000000000000000815273ffffffffffffffffffffffffffffffffffffffff83811660048301528281166024830152841690638b22909190604401600060405180830381600087803b158015610a6857600080fd5b505af1158015610a7c573d6000803e3d6000fd5b50505050505050565b610a8d610ebc565b6104c68282611503565b60006107416006836110d2565b610aac610ebc565b60055473ffffffffffffffffffffffffffffffffffffffff808316911603610b30576040517f08c379a000000000000000000000000000000000000000000000000000000000815260206004820152600660248201527f73656e6465720000000000000000000000000000000000000000000000000000604482015260640161062a565b610b3b600682611587565b610ba3576040517f08c379a000000000000000000000000000000000000000000000000000000000815260040161062a9060208082526004908201527f2164656c00000000000000000000000000000000000000000000000000000000604082015260600190565b60405173ffffffffffffffffffffffffffffffffffffffff821681527f933e5878af9aa566b0832891947f17052b71c97fff8a7c8a1553af62bcc2239d906020015b60405180910390a150565b6060600380546104d990611b47565b610c07610ebc565b6001805473ffffffffffffffffffffffffffffffffffffffff83167fffffffffffffffffffffffff00000000000000000000000000000000000000009091168117909155610c6a60005473ffffffffffffffffffffffffffffffffffffffff1690565b73ffffffffffffffffffffffffffffffffffffffff167f38d16b8cac22d99fc7c124b9cd0de2d3fa1faef420bfe791d8c362d765e2270060405160405180910390a350565b60606108b060066115a9565b60008080610ccb84860186611c73565b9250509150600063394d1bca60e01b8a8a8a8a604051602401610cf19493929190611d5e565b604080517fffffffffffffffffffffffffffffffffffffffffffffffffffffffffffffffe08184030181529181526020820180517bffffffffffffffffffffffffffffffffffffffffffffffffffffffff167fffffffff000000000000000000000000000000000000000000000000000000009094169390931790925260055491517f1c2b2da600000000000000000000000000000000000000000000000000000000815290925073ffffffffffffffffffffffffffffffffffffffff90911690631c2b2da690610dce908e903090889087908990600401611da2565b602060405180830381865afa158015610deb573d6000803e3d6000fd5b505050506040513d601f19601f82011682018060405250810190610e0f9190611dfb565b9b9a5050505050505050505050565b6000610e408373ffffffffffffffffffffffffffffffffffffffff84166115b6565b9392505050565b6000805473ffffffffffffffffffffffffffffffffffffffff8381167fffffffffffffffffffffffff0000000000000000000000000000000000000000831681178455604051919092169283917f8be0079c531659141344cd1fd0a4f28419497f9722a3daafe3b4186f6b6457e09190a35050565b60005473ffffffffffffffffffffffffffffffffffffffff1633146108c7576040517f08c379a000000000000000000000000000000000000000000000000000000000815260206004820181905260248201527f4f776e61626c653a2063616c6c6572206973206e6f7420746865206f776e6572604482015260640161062a565b6003610f498282611e63565b507f3d7a9962f6da134f6896430d6867bd08e3546dbf9570df877e7cec39ba4305f081604051610be59190611877565b6000808080610f8a85870187611c73565b925092509250600063394d1bca60e01b8c8b8b8b604051602401610fb19493929190611d5e565b604080517fffffffffffffffffffffffffffffffffffffffffffffffffffffffffffffffe08184030181529190526020810180517bffffffffffffffffffffffffffffffffffffffffffffffffffffffff167fffffffff000000000000000000000000000000000000000000000000000000009093169290921790915260055490915073ffffffffffffffffffffffffffffffffffffffff16635e26462c348d61105a81611196565b888689896040518863ffffffff1660e01b815260040161107f96959493929190611f7d565b60206040518083038185885af115801561109d573d6000803e3d6000fd5b50505050506040513d601f19601f820116820180604052508101906110c29190611dfb565b9c9b505050505050505050505050565b73ffffffffffffffffffffffffffffffffffffffff811660009081526001830160205260408120541515610e40565b6000603436101561116e576040517f08c379a000000000000000000000000000000000000000000000000000000000815260206004820152600c60248201527f2166726f6d436861696e49640000000000000000000000000000000000000000604482015260640161062a565b507fffffffffffffffffffffffffffffffffffffffffffffffffffffffffffffffcc36013590565b60008181526004602052604090205473ffffffffffffffffffffffffffffffffffffffff1680611222576040517f08c379a000000000000000000000000000000000000000000000000000000000815260206004820152600560248201527f2170656572000000000000000000000000000000000000000000000000000000604482015260640161062a565b919050565b60006014361015611294576040517f08c379a000000000000000000000000000000000000000000000000000000000815260206004820152600b60248201527f21786d736753656e646572000000000000000000000000000000000000000000604482015260640161062a565b507fffffffffffffffffffffffffffffffffffffffffffffffffffffffffffffffec36013560601c90565b6000605436101561132c576040517f08c379a000000000000000000000000000000000000000000000000000000000815260206004820152600a60248201527f216d657373616765496400000000000000000000000000000000000000000000604482015260640161062a565b507fffffffffffffffffffffffffffffffffffffffffffffffffffffffffffffffac36013590565b816113606006826110d2565b156113c7576040517f08c379a000000000000000000000000000000000000000000000000000000000815260206004820152600760248201527f21746f4461707000000000000000000000000000000000000000000000000000604482015260640161062a565b6000808473ffffffffffffffffffffffffffffffffffffffff1634858a8a8a6040516020016113f99493929190611fd3565b604080517fffffffffffffffffffffffffffffffffffffffffffffffffffffffffffffffe08184030181529082905261143191612027565b60006040518083038185875af1925050503d806000811461146e576040519150601f19603f3d011682016040523d82523d6000602084013e611473565b606091505b5091509150877fea087580bb17f433441f3b6c0c0b80cae92ee74a8d7f50050388646d9ffd143183836040516114aa929190612043565b60405180910390a25050505050505050565b6000610e408383611605565b6000610741825490565b600180547fffffffffffffffffffffffff000000000000000000000000000000000000000016905561097b81610e47565b60008281526004602090815260409182902080547fffffffffffffffffffffffff00000000000000000000000000000000000000001673ffffffffffffffffffffffffffffffffffffffff85169081179091558251858152918201527fcd44d3edde5f7e508840db73b2e39b71d725825fca31c7b3b5f154fe805554db9101610898565b6000610e408373ffffffffffffffffffffffffffffffffffffffff841661162f565b60606000610e4083611722565b60008181526001830160205260408120546115fd57508154600181810184556000848152602080822090930184905584548482528286019093526040902091909155610741565b506000610741565b600082600001828154811061161c5761161c612066565b9060005260206000200154905092915050565b60008181526001830160205260408120548015611718576000611653600183612095565b855490915060009061166790600190612095565b90508181146116cc57600086600001828154811061168757611687612066565b90600052602060002001549050808760000184815481106116aa576116aa612066565b6000918252602080832090910192909255918252600188019052604090208390555b85548690806116dd576116dd6120cf565b600190038181906000526020600020016000905590558560010160008681526020019081526020016000206000905560019350505050610741565b6000915050610741565b60608160000180548060200260200160405190810160405280929190818152602001828054801561177257602002820191906000526020600020905b81548152602001906001019080831161175e575b50505050509050919050565b60008083601f84011261179057600080fd5b50813567ffffffffffffffff8111156117a857600080fd5b6020830191508360208285010111156117c057600080fd5b9250929050565b600080602083850312156117da57600080fd5b823567ffffffffffffffff8111156117f157600080fd5b6117fd8582860161177e565b90969095509350505050565b60005b8381101561182457818101518382015260200161180c565b50506000910152565b60008151808452611845816020860160208601611809565b601f017fffffffffffffffffffffffffffffffffffffffffffffffffffffffffffffffe0169290920160200192915050565b602081526000610e40602083018461182d565b73ffffffffffffffffffffffffffffffffffffffff8116811461097b57600080fd5b600080600080600080608087890312156118c557600080fd5b8635955060208701356118d78161188a565b9450604087013567ffffffffffffffff808211156118f457600080fd5b6119008a838b0161177e565b9096509450606089013591508082111561191957600080fd5b5061192689828a0161177e565b979a9699509497509295939492505050565b6000806000806060858703121561194e57600080fd5b84356119598161188a565b935060208501356119698161188a565b9250604085013567ffffffffffffffff81111561198557600080fd5b6119918782880161177e565b95989497509550505050565b6000602082840312156119af57600080fd5b5035919050565b6000602082840312156119c857600080fd5b8135610e408161188a565b6000806000606084860312156119e857600080fd5b83356119f38161188a565b92506020840135611a038161188a565b91506040840135611a138161188a565b809150509250925092565b60008060408385031215611a3157600080fd5b823591506020830135611a438161188a565b809150509250929050565b6020808252825182820181905260009190848201906040850190845b81811015611a9c57835173ffffffffffffffffffffffffffffffffffffffff1683529284019291840191600101611a6a565b50909695505050505050565b600080600080600080600060a0888a031215611ac357600080fd5b873596506020880135611ad58161188a565b95506040880135611ae58161188a565b9450606088013567ffffffffffffffff80821115611b0257600080fd5b611b0e8b838c0161177e565b909650945060808a0135915080821115611b2757600080fd5b50611b348a828b0161177e565b989b979a50959850939692959293505050565b600181811c90821680611b5b57607f821691505b602082108103611b94577f4e487b7100000000000000000000000000000000000000000000000000000000600052602260045260246000fd5b50919050565b8183528181602085013750600060208284010152600060207fffffffffffffffffffffffffffffffffffffffffffffffffffffffffffffffe0601f840116840101905092915050565b600073ffffffffffffffffffffffffffffffffffffffff808a16835288602084015280881660408401525060a06060830152611c2360a083018688611b9a565b8281036080840152611c36818587611b9a565b9a9950505050505050505050565b7f4e487b7100000000000000000000000000000000000000000000000000000000600052604160045260246000fd5b600080600060608486031215611c8857600080fd5b833592506020840135611c9a8161188a565b9150604084013567ffffffffffffffff80821115611cb757600080fd5b818601915086601f830112611ccb57600080fd5b813581811115611cdd57611cdd611c44565b604051601f82017fffffffffffffffffffffffffffffffffffffffffffffffffffffffffffffffe0908116603f01168101908382118183101715611d2357611d23611c44565b81604052828152896020848701011115611d3c57600080fd5b8260208601602083013760006020848301015280955050505050509250925092565b600073ffffffffffffffffffffffffffffffffffffffff808716835280861660208401525060606040830152611d98606083018486611b9a565b9695505050505050565b85815273ffffffffffffffffffffffffffffffffffffffff8516602082015283604082015260a060608201526000611ddd60a083018561182d565b8281036080840152611def818561182d565b98975050505050505050565b600060208284031215611e0d57600080fd5b5051919050565b601f821115611e5e57600081815260208120601f850160051c81016020861015611e3b5750805b601f850160051c820191505b81811015611e5a57828155600101611e47565b5050505b505050565b815167ffffffffffffffff811115611e7d57611e7d611c44565b611e9181611e8b8454611b47565b84611e14565b602080601f831160018114611ee45760008415611eae5750858301515b7fffffffffffffffffffffffffffffffffffffffffffffffffffffffffffffffff600386901b1c1916600185901b178555611e5a565b6000858152602081207fffffffffffffffffffffffffffffffffffffffffffffffffffffffffffffffe08616915b82811015611f3157888601518255948401946001909101908401611f12565b5085821015611f6d57878501517fffffffffffffffffffffffffffffffffffffffffffffffffffffffffffffffff600388901b60f8161c191681555b5050505050600190811b01905550565b868152600073ffffffffffffffffffffffffffffffffffffffff808816602084015286604084015260c06060840152611fb960c084018761182d565b818616608085015283810360a0850152611c36818661182d565b60008551611fe5818460208a01611809565b9190910193845250602083019190915260601b7fffffffffffffffffffffffffffffffffffffffff000000000000000000000000166040820152605401919050565b60008251612039818460208701611809565b9190910192915050565b821515815260406020820152600061205e604083018461182d565b949350505050565b7f4e487b7100000000000000000000000000000000000000000000000000000000600052603260045260246000fd5b81810381811115610741577f4e487b7100000000000000000000000000000000000000000000000000000000600052601160045260246000fd5b7f4e487b7100000000000000000000000000000000000000000000000000000000600052603160045260246000fdfea2646970667358221220d342c8b26c9b004f291a58bf1444f485d5a3779d2f43620664ccc030e028ce6864736f6c63430008110033",
	"devdoc": {
		"kind": "dev",
		"methods": {
			"acceptOwnership()": {
				"details": "The new owner accepts the ownership transfer."
			},
			"name()": {
				"returns": {
					"_0": "The MessagePort name."
				}
			},
			"owner()": {
				"details": "Returns the address of the current owner."
			},
			"pendingOwner()": {
				"details": "Returns the address of the pending owner."
			},
			"renounceOwnership()": {
				"details": "Leaves the contract without owner. It will not be possible to call `onlyOwner` functions. Can only be called by the current owner. NOTE: Renouncing ownership will leave the contract without an owner, thereby disabling any functionality that is only available to the owner."
			},
			"send(uint256,address,bytes,bytes)": {
				"details": "Send a cross-chain message over the MessagePort.",
				"params": {
					"message": "The calldata which encoded by ABI Encoding.",
					"params": "Extend parameters to adapt to different message protocols.",
					"toChainId": "The message destination chain id. <https://eips.ethereum.org/EIPS/eip-155>",
					"toDapp": "The user application contract address which receive the message."
				},
				"returns": {
					"msgId": "Return the ID of message."
				}
			},
			"transferOwnership(address)": {
				"details": "Starts the ownership transfer of the contract to a new account. Replaces the pending transfer if there is one. Can only be called by the current owner."
			},
			"uri()": {
				"returns": {
					"_0": "The port metadata uri."
				}
			}
		},
		"version": 1
	},
	"userdoc": {
		"kind": "user",
		"methods": {
			"name()": {
				"notice": "Get the port name, it's globally unique and immutable."
			},
			"send(uint256,address,bytes,bytes)": {
				"notice": "Send a cross-chain message over the MessagePort."
			},
			"setORMP(address)": {
				"notice": "How to migrate to new ORMP contract. 1. setORMP to new ORMP contract. 2. delete previousORMP after relay on-flight message."
			}
		},
		"version": 1
	},
	"gitCommit": "b8c8b8bfc2f87ee2728eea8c3781e155c1988299",
	"sourceName": "lib/darwinia-msgport/src/ports/ORMPUpgradeablePort.sol",
	"chainId": "46",
	"linkReferences": {},
	"deployedLinkReferences": {},
	"history": [
		{
			"_format": "sphinx-sol-ct-artifact-1",
			"merkleRoot": "0x8ed8ae243a4823b490402b72a5a66bd6367651f42c7ca9d53351953dddb0461a",
			"contractName": "ORMPUpgradeablePort",
			"address": "0x2cd1867Fb8016f93710B6386f7f9F1D540A60812",
			"abi": [
				{
					"type": "constructor",
					"inputs": [
						{
							"name": "dao",
							"type": "address",
							"internalType": "address"
						},
						{
							"name": "ormp_",
							"type": "address",
							"internalType": "address"
						},
						{
							"name": "name",
							"type": "string",
							"internalType": "string"
						}
					],
					"stateMutability": "nonpayable"
				},
				{
					"type": "function",
					"name": "LOCAL_CHAINID",
					"inputs": [],
					"outputs": [
						{
							"name": "",
							"type": "uint256",
							"internalType": "uint256"
						}
					],
					"stateMutability": "view"
				},
				{
					"type": "function",
					"name": "acceptOwnership",
					"inputs": [],
					"outputs": [],
					"stateMutability": "nonpayable"
				},
				{
					"type": "function",
					"name": "delORMP",
					"inputs": [
						{
							"name": "ormp_",
							"type": "address",
							"internalType": "address"
						}
					],
					"outputs": [],
					"stateMutability": "nonpayable"
				},
				{
					"type": "function",
					"name": "fee",
					"inputs": [
						{
							"name": "toChainId",
							"type": "uint256",
							"internalType": "uint256"
						},
						{
							"name": "fromDapp",
							"type": "address",
							"internalType": "address"
						},
						{
							"name": "toDapp",
							"type": "address",
							"internalType": "address"
						},
						{
							"name": "message",
							"type": "bytes",
							"internalType": "bytes"
						},
						{
							"name": "params",
							"type": "bytes",
							"internalType": "bytes"
						}
					],
					"outputs": [
						{
							"name": "",
							"type": "uint256",
							"internalType": "uint256"
						}
					],
					"stateMutability": "view"
				},
				{
					"type": "function",
					"name": "historyORMPAt",
					"inputs": [
						{
							"name": "index",
							"type": "uint256",
							"internalType": "uint256"
						}
					],
					"outputs": [
						{
							"name": "",
							"type": "address",
							"internalType": "address"
						}
					],
					"stateMutability": "view"
				},
				{
					"type": "function",
					"name": "historyORMPContains",
					"inputs": [
						{
							"name": "ormp_",
							"type": "address",
							"internalType": "address"
						}
					],
					"outputs": [
						{
							"name": "",
							"type": "bool",
							"internalType": "bool"
						}
					],
					"stateMutability": "view"
				},
				{
					"type": "function",
					"name": "historyORMPLength",
					"inputs": [],
					"outputs": [
						{
							"name": "",
							"type": "uint256",
							"internalType": "uint256"
						}
					],
					"stateMutability": "view"
				},
				{
					"type": "function",
					"name": "historyORMPs",
					"inputs": [],
					"outputs": [
						{
							"name": "",
							"type": "address[]",
							"internalType": "address[]"
						}
					],
					"stateMutability": "view"
				},
				{
					"type": "function",
					"name": "name",
					"inputs": [],
					"outputs": [
						{
							"name": "",
							"type": "string",
							"internalType": "string"
						}
					],
					"stateMutability": "view"
				},
				{
					"type": "function",
					"name": "ormp",
					"inputs": [],
					"outputs": [
						{
							"name": "",
							"type": "address",
							"internalType": "address"
						}
					],
					"stateMutability": "view"
				},
				{
					"type": "function",
					"name": "owner",
					"inputs": [],
					"outputs": [
						{
							"name": "",
							"type": "address",
							"internalType": "address"
						}
					],
					"stateMutability": "view"
				},
				{
					"type": "function",
					"name": "peerOf",
					"inputs": [
						{
							"name": "chainId",
							"type": "uint256",
							"internalType": "uint256"
						}
					],
					"outputs": [
						{
							"name": "",
							"type": "address",
							"internalType": "address"
						}
					],
					"stateMutability": "view"
				},
				{
					"type": "function",
					"name": "pendingOwner",
					"inputs": [],
					"outputs": [
						{
							"name": "",
							"type": "address",
							"internalType": "address"
						}
					],
					"stateMutability": "view"
				},
				{
					"type": "function",
					"name": "recv",
					"inputs": [
						{
							"name": "fromDapp",
							"type": "address",
							"internalType": "address"
						},
						{
							"name": "toDapp",
							"type": "address",
							"internalType": "address"
						},
						{
							"name": "message",
							"type": "bytes",
							"internalType": "bytes"
						}
					],
					"outputs": [],
					"stateMutability": "payable"
				},
				{
					"type": "function",
					"name": "renounceOwnership",
					"inputs": [],
					"outputs": [],
					"stateMutability": "nonpayable"
				},
				{
					"type": "function",
					"name": "send",
					"inputs": [
						{
							"name": "toChainId",
							"type": "uint256",
							"internalType": "uint256"
						},
						{
							"name": "toDapp",
							"type": "address",
							"internalType": "address"
						},
						{
							"name": "message",
							"type": "bytes",
							"internalType": "bytes"
						},
						{
							"name": "params",
							"type": "bytes",
							"internalType": "bytes"
						}
					],
					"outputs": [
						{
							"name": "msgId",
							"type": "bytes32",
							"internalType": "bytes32"
						}
					],
					"stateMutability": "payable"
				},
				{
					"type": "function",
					"name": "setAppConfig",
					"inputs": [
						{
							"name": "ormp_",
							"type": "address",
							"internalType": "address"
						},
						{
							"name": "oracle",
							"type": "address",
							"internalType": "address"
						},
						{
							"name": "relayer",
							"type": "address",
							"internalType": "address"
						}
					],
					"outputs": [],
					"stateMutability": "nonpayable"
				},
				{
					"type": "function",
					"name": "setORMP",
					"inputs": [
						{
							"name": "ormp_",
							"type": "address",
							"internalType": "address"
						}
					],
					"outputs": [],
					"stateMutability": "nonpayable"
				},
				{
					"type": "function",
					"name": "setPeer",
					"inputs": [
						{
							"name": "chainId",
							"type": "uint256",
							"internalType": "uint256"
						},
						{
							"name": "peer",
							"type": "address",
							"internalType": "address"
						}
					],
					"outputs": [],
					"stateMutability": "nonpayable"
				},
				{
					"type": "function",
					"name": "setURI",
					"inputs": [
						{
							"name": "uri",
							"type": "string",
							"internalType": "string"
						}
					],
					"outputs": [],
					"stateMutability": "nonpayable"
				},
				{
					"type": "function",
					"name": "transferOwnership",
					"inputs": [
						{
							"name": "newOwner",
							"type": "address",
							"internalType": "address"
						}
					],
					"outputs": [],
					"stateMutability": "nonpayable"
				},
				{
					"type": "function",
					"name": "uri",
					"inputs": [],
					"outputs": [
						{
							"name": "",
							"type": "string",
							"internalType": "string"
						}
					],
					"stateMutability": "view"
				},
				{
					"type": "event",
					"name": "HistoryORMPAdded",
					"inputs": [
						{
							"name": "ormp",
							"type": "address",
							"indexed": false,
							"internalType": "address"
						}
					],
					"anonymous": false
				},
				{
					"type": "event",
					"name": "HistoryORMPDeleted",
					"inputs": [
						{
							"name": "ormp",
							"type": "address",
							"indexed": false,
							"internalType": "address"
						}
					],
					"anonymous": false
				},
				{
					"type": "event",
					"name": "MessageRecv",
					"inputs": [
						{
							"name": "msgId",
							"type": "bytes32",
							"indexed": true,
							"internalType": "bytes32"
						},
						{
							"name": "result",
							"type": "bool",
							"indexed": false,
							"internalType": "bool"
						},
						{
							"name": "returnData",
							"type": "bytes",
							"indexed": false,
							"internalType": "bytes"
						}
					],
					"anonymous": false
				},
				{
					"type": "event",
					"name": "MessageSent",
					"inputs": [
						{
							"name": "msgId",
							"type": "bytes32",
							"indexed": true,
							"internalType": "bytes32"
						},
						{
							"name": "fromDapp",
							"type": "address",
							"indexed": false,
							"internalType": "address"
						},
						{
							"name": "toChainId",
							"type": "uint256",
							"indexed": false,
							"internalType": "uint256"
						},
						{
							"name": "toDapp",
							"type": "address",
							"indexed": false,
							"internalType": "address"
						},
						{
							"name": "message",
							"type": "bytes",
							"indexed": false,
							"internalType": "bytes"
						},
						{
							"name": "params",
							"type": "bytes",
							"indexed": false,
							"internalType": "bytes"
						}
					],
					"anonymous": false
				},
				{
					"type": "event",
					"name": "OwnershipTransferStarted",
					"inputs": [
						{
							"name": "previousOwner",
							"type": "address",
							"indexed": true,
							"internalType": "address"
						},
						{
							"name": "newOwner",
							"type": "address",
							"indexed": true,
							"internalType": "address"
						}
					],
					"anonymous": false
				},
				{
					"type": "event",
					"name": "OwnershipTransferred",
					"inputs": [
						{
							"name": "previousOwner",
							"type": "address",
							"indexed": true,
							"internalType": "address"
						},
						{
							"name": "newOwner",
							"type": "address",
							"indexed": true,
							"internalType": "address"
						}
					],
					"anonymous": false
				},
				{
					"type": "event",
					"name": "PeerSet",
					"inputs": [
						{
							"name": "chainId",
							"type": "uint256",
							"indexed": false,
							"internalType": "uint256"
						},
						{
							"name": "peer",
							"type": "address",
							"indexed": false,
							"internalType": "address"
						}
					],
					"anonymous": false
				},
				{
					"type": "event",
					"name": "SetORMP",
					"inputs": [
						{
							"name": "previousORMP",
							"type": "address",
							"indexed": false,
							"internalType": "address"
						},
						{
							"name": "currentORMP",
							"type": "address",
							"indexed": false,
							"internalType": "address"
						}
					],
					"anonymous": false
				},
				{
					"type": "event",
					"name": "URI",
					"inputs": [
						{
							"name": "uri",
							"type": "string",
							"indexed": false,
							"internalType": "string"
						}
					],
					"anonymous": false
				}
			],
			"solcInputHash": "bd281d871188d23306cfa03337a3378b",
			"receipt": {
				"blockHash": "0xbafbba15c39da60cbfd6a5aee7dc1c4bfec1653370dc85327cf066cf72a3c419",
				"blockNumber": 2830148,
				"contractAddress": null,
				"cumulativeGasUsed": "2260966",
				"from": "0xD70A2e6eACbdeDA77a5d4bBAE3bC70239A0e088f",
				"gasPrice": "75353256064",
				"gasUsed": "2197724",
				"hash": "0x049671276ca3a5850395c8db24eaedc51295abb55bba8ac427cbc305fd66ea00",
				"index": 2,
				"logs": [
					{
						"address": "0x7e16116661CA8d66C73612382833153911Fa03B1",
						"blockHash": "0xbafbba15c39da60cbfd6a5aee7dc1c4bfec1653370dc85327cf066cf72a3c419",
						"blockNumber": 2830148,
						"data": "0x0000000000000000000000000000000000000000000000000000000000000000",
						"index": 2,
						"topics": [
							"0x572f161235911da04685a68c06adf558fc7e4a36909dca394650e0adc19cc93d",
							"0x000000000000000000000000d70a2e6eacbdeda77a5d4bbae3bc70239a0e088f",
							"0x0000000000000000000000003d75d338b4711f8a33d293a2008f07a712513402",
							"0xf6273797e060126aef2b73ce449cb822cbf816cf07c5d3c3f7aa3da05a2d2674"
						],
						"transactionHash": "0x049671276ca3a5850395c8db24eaedc51295abb55bba8ac427cbc305fd66ea00",
						"transactionIndex": 2
					},
					{
						"address": "0x2cd1867Fb8016f93710B6386f7f9F1D540A60812",
						"blockHash": "0xbafbba15c39da60cbfd6a5aee7dc1c4bfec1653370dc85327cf066cf72a3c419",
						"blockNumber": 2830148,
						"data": "0x",
						"index": 3,
						"topics": [
							"0x8be0079c531659141344cd1fd0a4f28419497f9722a3daafe3b4186f6b6457e0",
							"0x0000000000000000000000000000000000000000000000000000000000000000",
							"0x0000000000000000000000004e59b44847b379578588920ca78fbf26c0b4956c"
						],
						"transactionHash": "0x049671276ca3a5850395c8db24eaedc51295abb55bba8ac427cbc305fd66ea00",
						"transactionIndex": 2
					},
					{
						"address": "0x2cd1867Fb8016f93710B6386f7f9F1D540A60812",
						"blockHash": "0xbafbba15c39da60cbfd6a5aee7dc1c4bfec1653370dc85327cf066cf72a3c419",
						"blockNumber": 2830148,
						"data": "0x",
						"index": 4,
						"topics": [
							"0x8be0079c531659141344cd1fd0a4f28419497f9722a3daafe3b4186f6b6457e0",
							"0x0000000000000000000000004e59b44847b379578588920ca78fbf26c0b4956c",
							"0x000000000000000000000000040f331774ed6bb161412b4cedb1358b382af3a5"
						],
						"transactionHash": "0x049671276ca3a5850395c8db24eaedc51295abb55bba8ac427cbc305fd66ea00",
						"transactionIndex": 2
					},
					{
						"address": "0x040f331774Ed6BB161412B4cEDb1358B382aF3A5",
						"blockHash": "0xbafbba15c39da60cbfd6a5aee7dc1c4bfec1653370dc85327cf066cf72a3c419",
						"blockNumber": 2830148,
						"data": "0x",
						"index": 5,
						"topics": [
							"0x6895c13664aa4f67288b25d7a21d7aaa34916e355fb9b6fae0a139a9085becb8",
							"0x0000000000000000000000003d75d338b4711f8a33d293a2008f07a712513402"
						],
						"transactionHash": "0x049671276ca3a5850395c8db24eaedc51295abb55bba8ac427cbc305fd66ea00",
						"transactionIndex": 2
					},
					{
						"address": "0x3D75d338B4711F8a33d293a2008f07a712513402",
						"blockHash": "0xbafbba15c39da60cbfd6a5aee7dc1c4bfec1653370dc85327cf066cf72a3c419",
						"blockNumber": 2830148,
						"data": "0x0000000000000000000000000000000000000000000000000000000000000004",
						"index": 6,
						"topics": [
							"0xa65fb05c5808f5f389d72edeaf719ce38f4cc55c1f69ca3cbfb31c21501caa07",
							"0x8ed8ae243a4823b490402b72a5a66bd6367651f42c7ca9d53351953dddb0461a"
						],
						"transactionHash": "0x049671276ca3a5850395c8db24eaedc51295abb55bba8ac427cbc305fd66ea00",
						"transactionIndex": 2
					}
				],
				"logsBloom": "0x00000000000010000000000000080000000000000120000000800000000000000000000000000004000000000042000000100000000000200000000000000000000000000000200200040000000000000001000000000000000000000008000080004000020000002000000000000804000000000000000000000000000000400000006100000000000100000000000000001000001000000000000000000004004100000001000000000000000000000200000000000000000000001004000000000001000000000000000000000400000000000000000800000000000020000100000000000000000000000800000280000000000000000000000000100080",
				"status": 1,
				"to": "0x7e16116661CA8d66C73612382833153911Fa03B1"
			},
			"metadata": "{\"compiler\":{\"version\":\"0.8.17+commit.8df45f5f\"},\"language\":\"Solidity\",\"output\":{\"abi\":[{\"inputs\":[{\"internalType\":\"address\",\"name\":\"dao\",\"type\":\"address\"},{\"internalType\":\"address\",\"name\":\"ormp_\",\"type\":\"address\"},{\"internalType\":\"string\",\"name\":\"name\",\"type\":\"string\"}],\"stateMutability\":\"nonpayable\",\"type\":\"constructor\"},{\"inputs\":[{\"internalType\":\"address\",\"name\":\"ormp\",\"type\":\"address\",\"indexed\":false}],\"type\":\"event\",\"name\":\"HistoryORMPAdded\",\"anonymous\":false},{\"inputs\":[{\"internalType\":\"address\",\"name\":\"ormp\",\"type\":\"address\",\"indexed\":false}],\"type\":\"event\",\"name\":\"HistoryORMPDeleted\",\"anonymous\":false},{\"inputs\":[{\"internalType\":\"bytes32\",\"name\":\"msgId\",\"type\":\"bytes32\",\"indexed\":true},{\"internalType\":\"bool\",\"name\":\"result\",\"type\":\"bool\",\"indexed\":false},{\"internalType\":\"bytes\",\"name\":\"returnData\",\"type\":\"bytes\",\"indexed\":false}],\"type\":\"event\",\"name\":\"MessageRecv\",\"anonymous\":false},{\"inputs\":[{\"internalType\":\"bytes32\",\"name\":\"msgId\",\"type\":\"bytes32\",\"indexed\":true},{\"internalType\":\"address\",\"name\":\"fromDapp\",\"type\":\"address\",\"indexed\":false},{\"internalType\":\"uint256\",\"name\":\"toChainId\",\"type\":\"uint256\",\"indexed\":false},{\"internalType\":\"address\",\"name\":\"toDapp\",\"type\":\"address\",\"indexed\":false},{\"internalType\":\"bytes\",\"name\":\"message\",\"type\":\"bytes\",\"indexed\":false},{\"internalType\":\"bytes\",\"name\":\"params\",\"type\":\"bytes\",\"indexed\":false}],\"type\":\"event\",\"name\":\"MessageSent\",\"anonymous\":false},{\"inputs\":[{\"internalType\":\"address\",\"name\":\"previousOwner\",\"type\":\"address\",\"indexed\":true},{\"internalType\":\"address\",\"name\":\"newOwner\",\"type\":\"address\",\"indexed\":true}],\"type\":\"event\",\"name\":\"OwnershipTransferStarted\",\"anonymous\":false},{\"inputs\":[{\"internalType\":\"address\",\"name\":\"previousOwner\",\"type\":\"address\",\"indexed\":true},{\"internalType\":\"address\",\"name\":\"newOwner\",\"type\":\"address\",\"indexed\":true}],\"type\":\"event\",\"name\":\"OwnershipTransferred\",\"anonymous\":false},{\"inputs\":[{\"internalType\":\"uint256\",\"name\":\"chainId\",\"type\":\"uint256\",\"indexed\":false},{\"internalType\":\"address\",\"name\":\"peer\",\"type\":\"address\",\"indexed\":false}],\"type\":\"event\",\"name\":\"PeerSet\",\"anonymous\":false},{\"inputs\":[{\"internalType\":\"address\",\"name\":\"previousORMP\",\"type\":\"address\",\"indexed\":false},{\"internalType\":\"address\",\"name\":\"currentORMP\",\"type\":\"address\",\"indexed\":false}],\"type\":\"event\",\"name\":\"SetORMP\",\"anonymous\":false},{\"inputs\":[{\"internalType\":\"string\",\"name\":\"uri\",\"type\":\"string\",\"indexed\":false}],\"type\":\"event\",\"name\":\"URI\",\"anonymous\":false},{\"inputs\":[],\"stateMutability\":\"view\",\"type\":\"function\",\"name\":\"LOCAL_CHAINID\",\"outputs\":[{\"internalType\":\"uint256\",\"name\":\"\",\"type\":\"uint256\"}]},{\"inputs\":[],\"stateMutability\":\"nonpayable\",\"type\":\"function\",\"name\":\"acceptOwnership\"},{\"inputs\":[{\"internalType\":\"address\",\"name\":\"ormp_\",\"type\":\"address\"}],\"stateMutability\":\"nonpayable\",\"type\":\"function\",\"name\":\"delORMP\"},{\"inputs\":[{\"internalType\":\"uint256\",\"name\":\"toChainId\",\"type\":\"uint256\"},{\"internalType\":\"address\",\"name\":\"fromDapp\",\"type\":\"address\"},{\"internalType\":\"address\",\"name\":\"toDapp\",\"type\":\"address\"},{\"internalType\":\"bytes\",\"name\":\"message\",\"type\":\"bytes\"},{\"internalType\":\"bytes\",\"name\":\"params\",\"type\":\"bytes\"}],\"stateMutability\":\"view\",\"type\":\"function\",\"name\":\"fee\",\"outputs\":[{\"internalType\":\"uint256\",\"name\":\"\",\"type\":\"uint256\"}]},{\"inputs\":[{\"internalType\":\"uint256\",\"name\":\"index\",\"type\":\"uint256\"}],\"stateMutability\":\"view\",\"type\":\"function\",\"name\":\"historyORMPAt\",\"outputs\":[{\"internalType\":\"address\",\"name\":\"\",\"type\":\"address\"}]},{\"inputs\":[{\"internalType\":\"address\",\"name\":\"ormp_\",\"type\":\"address\"}],\"stateMutability\":\"view\",\"type\":\"function\",\"name\":\"historyORMPContains\",\"outputs\":[{\"internalType\":\"bool\",\"name\":\"\",\"type\":\"bool\"}]},{\"inputs\":[],\"stateMutability\":\"view\",\"type\":\"function\",\"name\":\"historyORMPLength\",\"outputs\":[{\"internalType\":\"uint256\",\"name\":\"\",\"type\":\"uint256\"}]},{\"inputs\":[],\"stateMutability\":\"view\",\"type\":\"function\",\"name\":\"historyORMPs\",\"outputs\":[{\"internalType\":\"address[]\",\"name\":\"\",\"type\":\"address[]\"}]},{\"inputs\":[],\"stateMutability\":\"view\",\"type\":\"function\",\"name\":\"name\",\"outputs\":[{\"internalType\":\"string\",\"name\":\"\",\"type\":\"string\"}]},{\"inputs\":[],\"stateMutability\":\"view\",\"type\":\"function\",\"name\":\"ormp\",\"outputs\":[{\"internalType\":\"address\",\"name\":\"\",\"type\":\"address\"}]},{\"inputs\":[],\"stateMutability\":\"view\",\"type\":\"function\",\"name\":\"owner\",\"outputs\":[{\"internalType\":\"address\",\"name\":\"\",\"type\":\"address\"}]},{\"inputs\":[{\"internalType\":\"uint256\",\"name\":\"chainId\",\"type\":\"uint256\"}],\"stateMutability\":\"view\",\"type\":\"function\",\"name\":\"peerOf\",\"outputs\":[{\"internalType\":\"address\",\"name\":\"\",\"type\":\"address\"}]},{\"inputs\":[],\"stateMutability\":\"view\",\"type\":\"function\",\"name\":\"pendingOwner\",\"outputs\":[{\"internalType\":\"address\",\"name\":\"\",\"type\":\"address\"}]},{\"inputs\":[{\"internalType\":\"address\",\"name\":\"fromDapp\",\"type\":\"address\"},{\"internalType\":\"address\",\"name\":\"toDapp\",\"type\":\"address\"},{\"internalType\":\"bytes\",\"name\":\"message\",\"type\":\"bytes\"}],\"stateMutability\":\"payable\",\"type\":\"function\",\"name\":\"recv\"},{\"inputs\":[],\"stateMutability\":\"nonpayable\",\"type\":\"function\",\"name\":\"renounceOwnership\"},{\"inputs\":[{\"internalType\":\"uint256\",\"name\":\"toChainId\",\"type\":\"uint256\"},{\"internalType\":\"address\",\"name\":\"toDapp\",\"type\":\"address\"},{\"internalType\":\"bytes\",\"name\":\"message\",\"type\":\"bytes\"},{\"internalType\":\"bytes\",\"name\":\"params\",\"type\":\"bytes\"}],\"stateMutability\":\"payable\",\"type\":\"function\",\"name\":\"send\",\"outputs\":[{\"internalType\":\"bytes32\",\"name\":\"msgId\",\"type\":\"bytes32\"}]},{\"inputs\":[{\"internalType\":\"address\",\"name\":\"ormp_\",\"type\":\"address\"},{\"internalType\":\"address\",\"name\":\"oracle\",\"type\":\"address\"},{\"internalType\":\"address\",\"name\":\"relayer\",\"type\":\"address\"}],\"stateMutability\":\"nonpayable\",\"type\":\"function\",\"name\":\"setAppConfig\"},{\"inputs\":[{\"internalType\":\"address\",\"name\":\"ormp_\",\"type\":\"address\"}],\"stateMutability\":\"nonpayable\",\"type\":\"function\",\"name\":\"setORMP\"},{\"inputs\":[{\"internalType\":\"uint256\",\"name\":\"chainId\",\"type\":\"uint256\"},{\"internalType\":\"address\",\"name\":\"peer\",\"type\":\"address\"}],\"stateMutability\":\"nonpayable\",\"type\":\"function\",\"name\":\"setPeer\"},{\"inputs\":[{\"internalType\":\"string\",\"name\":\"uri\",\"type\":\"string\"}],\"stateMutability\":\"nonpayable\",\"type\":\"function\",\"name\":\"setURI\"},{\"inputs\":[{\"internalType\":\"address\",\"name\":\"newOwner\",\"type\":\"address\"}],\"stateMutability\":\"nonpayable\",\"type\":\"function\",\"name\":\"transferOwnership\"},{\"inputs\":[],\"stateMutability\":\"view\",\"type\":\"function\",\"name\":\"uri\",\"outputs\":[{\"internalType\":\"string\",\"name\":\"\",\"type\":\"string\"}]}],\"devdoc\":{\"kind\":\"dev\",\"methods\":{\"acceptOwnership()\":{\"details\":\"The new owner accepts the ownership transfer.\"},\"name()\":{\"returns\":{\"_0\":\"The MessagePort name.\"}},\"owner()\":{\"details\":\"Returns the address of the current owner.\"},\"pendingOwner()\":{\"details\":\"Returns the address of the pending owner.\"},\"renounceOwnership()\":{\"details\":\"Leaves the contract without owner. It will not be possible to call `onlyOwner` functions. Can only be called by the current owner. NOTE: Renouncing ownership will leave the contract without an owner, thereby disabling any functionality that is only available to the owner.\"},\"send(uint256,address,bytes,bytes)\":{\"details\":\"Send a cross-chain message over the MessagePort.\",\"params\":{\"message\":\"The calldata which encoded by ABI Encoding.\",\"params\":\"Extend parameters to adapt to different message protocols.\",\"toChainId\":\"The message destination chain id. <https://eips.ethereum.org/EIPS/eip-155>\",\"toDapp\":\"The user application contract address which receive the message.\"},\"returns\":{\"msgId\":\"Return the ID of message.\"}},\"transferOwnership(address)\":{\"details\":\"Starts the ownership transfer of the contract to a new account. Replaces the pending transfer if there is one. Can only be called by the current owner.\"},\"uri()\":{\"returns\":{\"_0\":\"The port metadata uri.\"}}},\"version\":1},\"userdoc\":{\"kind\":\"user\",\"methods\":{\"name()\":{\"notice\":\"Get the port name, it's globally unique and immutable.\"},\"send(uint256,address,bytes,bytes)\":{\"notice\":\"Send a cross-chain message over the MessagePort.\"},\"setORMP(address)\":{\"notice\":\"How to migrate to new ORMP contract. 1. setORMP to new ORMP contract. 2. delete previousORMP after relay on-flight message.\"}},\"version\":1}},\"settings\":{\"remappings\":[\"@darwinia-msgport/=lib/darwinia-msgport/\",\"@openzeppelin/contracts/=lib/openzeppelin-contracts/contracts/\",\"@openzeppelin/contracts@4.9.2/=lib/openzeppelin-contracts/contracts/\",\"@safe-smart-account/=lib/subapi/lib/safe-smart-account/contracts/\",\"@sphinx-labs/contracts/=lib/sphinx/packages/contracts/contracts/foundry/\",\"ORMP/=lib/ORMP/\",\"create3-deploy/=lib/create3-deploy/\",\"forge-std/=lib/forge-std/src/\",\"solmate/=lib/darwinia-msgport/lib/solmate/src/\",\"subapi/=lib/subapi/\"],\"optimizer\":{\"enabled\":true,\"runs\":999999},\"metadata\":{\"bytecodeHash\":\"ipfs\"},\"compilationTarget\":{\"lib/darwinia-msgport/src/ports/ORMPUpgradeablePort.sol\":\"ORMPUpgradeablePort\"},\"evmVersion\":\"london\",\"libraries\":{}},\"sources\":{\"lib/ORMP/src/Common.sol\":{\"keccak256\":\"0x9ac4f4aaea488dcf254d006b290d5e76ca27ddc3d8f8542c916e4f6f713f108b\",\"urls\":[\"bzz-raw://e752ee67412386fc6527e4bce526093797b932bbadab4520130e803a68806d3e\",\"dweb:/ipfs/QmbLNLEAm7MSveSUcRhyuS9LnSSj1CQtn9tmatE1YsLySX\"],\"license\":\"MIT\"},\"lib/ORMP/src/interfaces/IORMP.sol\":{\"keccak256\":\"0x687f39c965fd8cdc30047820c0f491d926ae3e9cea4d82dbf832b0646d0ed268\",\"urls\":[\"bzz-raw://8a22e640c9c1a4b24833607a840be9bf779f500e38d84f18b35efe9fb5e53c7a\",\"dweb:/ipfs/QmV17CvqrG7dkNVS1rLJpxzUPK2KFcVkXNjvx9rNwUdUGh\"],\"license\":\"MIT\"},\"lib/ORMP/src/user/AppBase.sol\":{\"keccak256\":\"0xda8504864c9381cb07aa9c6213b16f585015ee80c3f843598b10c91c2309680f\",\"urls\":[\"bzz-raw://2c27ad51a2cc0829f576d70215b8a3e22d9ab4de749e30f4c6544c1e3f486de4\",\"dweb:/ipfs/QmPNcnyFm2CTGDnvxVZSoasauTaK6Rcc7HLAevEApshuno\"],\"license\":\"MIT\"},\"lib/darwinia-msgport/src/interfaces/IMessagePort.sol\":{\"keccak256\":\"0x0c73885f9e037bab0438c3285deb62282887880e9556abbc106043515ffdf4d4\",\"urls\":[\"bzz-raw://87198b8adef783a5a80dc80ef40183a86dc73335a4d56408ebb591445c1cd846\",\"dweb:/ipfs/Qmc5ibd47cQeoB37zzZ6t273YkXy4nHVMAngw1zQuZSehA\"],\"license\":\"MIT\"},\"lib/darwinia-msgport/src/interfaces/IPortMetadata.sol\":{\"keccak256\":\"0xec742110f6035a76dbc246bfdb0968aeabd86a17dafb8e755c8c00dcec3b445c\",\"urls\":[\"bzz-raw://f459d98402c3e3513b21b7432391c47fc052d31a3f9bfb1fa37257e996108a65\",\"dweb:/ipfs/QmeWM5Kz8hGX33AiMDicJyeT3xZd2HNrA9yB6jRH4HU3Cp\"],\"license\":\"MIT\"},\"lib/darwinia-msgport/src/ports/ORMPUpgradeablePort.sol\":{\"keccak256\":\"0x9dd0a21ec72f499a83f4d4e4ab117fbaaf32ad83a2719c11c3b6f8c86bf35f4e\",\"urls\":[\"bzz-raw://36f5a8e73f1adc00e50454d593cbaa394a0ac7a6619459a0715ed78cc3a10d03\",\"dweb:/ipfs/QmYZhhofsZYH4WCQSVGWVDbRxFK15vA38ArLHm1JqxhQtc\"],\"license\":\"MIT\"},\"lib/darwinia-msgport/src/ports/base/BaseMessagePort.sol\":{\"keccak256\":\"0xc1622f8edb5aa4b346d9729ce1ccfd85889db3490e12dcb77449a745c6342c43\",\"urls\":[\"bzz-raw://b224cf1ca2f856699af2b38b7d959ad7b03d8df3e3f2308ea2b8f9816bd50c04\",\"dweb:/ipfs/QmVsyqnMSZ961wyCnVoujEXiHFtbi4NbdFbz9Po8xySfWL\"],\"license\":\"MIT\"},\"lib/darwinia-msgport/src/ports/base/PeerLookup.sol\":{\"keccak256\":\"0x2e53e599801027d70dc068471b2ae0c3f6c347dc31e8c2954da14a93880e1baf\",\"urls\":[\"bzz-raw://ef2cc757993477fb81ed10d4812a8b5f56e1510a25662189943ec9d11dca01ab\",\"dweb:/ipfs/QmepFersWbiryA4N37ntnz83Z5gZSHrFbmz7ppNeSUBfig\"],\"license\":\"MIT\"},\"lib/darwinia-msgport/src/ports/base/PortMetadata.sol\":{\"keccak256\":\"0x6ebb7a05a526ef9503e0a7897d4c183324bf346a18ab282f21e22d216c786d67\",\"urls\":[\"bzz-raw://96e281ddf5c8d7b474a8ab29bba5dd4c3f25460a603fc55548ffbbbf58e66fd3\",\"dweb:/ipfs/QmXDsMPv2CJnRRmoF7rBZ169noofYqnFGk7XJDWVTTHuvJ\"],\"license\":\"MIT\"},\"lib/openzeppelin-contracts/contracts/access/Ownable.sol\":{\"keccak256\":\"0xba43b97fba0d32eb4254f6a5a297b39a19a247082a02d6e69349e071e2946218\",\"urls\":[\"bzz-raw://fc980984badf3984b6303b377711220e067722bbd6a135b24669ff5069ef9f32\",\"dweb:/ipfs/QmPHXMSXj99XjSVM21YsY6aNtLLjLVXDbyN76J5HQYvvrz\"],\"license\":\"MIT\"},\"lib/openzeppelin-contracts/contracts/access/Ownable2Step.sol\":{\"keccak256\":\"0xde231558366826d7cb61725af8147965a61c53b77a352cc8c9af38fc5a92ac3c\",\"urls\":[\"bzz-raw://1fd55624076bf61d44af5ff351919e32dda748567acfbdd6ba3d6c7be61c758e\",\"dweb:/ipfs/QmSki4dTrf4GPm7MTpG3fk8mC7rnjwd2zMomLp6jLuF63Q\"],\"license\":\"MIT\"},\"lib/openzeppelin-contracts/contracts/utils/Context.sol\":{\"keccak256\":\"0xe2e337e6dde9ef6b680e07338c493ebea1b5fd09b43424112868e9cc1706bca7\",\"urls\":[\"bzz-raw://6df0ddf21ce9f58271bdfaa85cde98b200ef242a05a3f85c2bc10a8294800a92\",\"dweb:/ipfs/QmRK2Y5Yc6BK7tGKkgsgn3aJEQGi5aakeSPZvS65PV8Xp3\"],\"license\":\"MIT\"},\"lib/openzeppelin-contracts/contracts/utils/structs/EnumerableSet.sol\":{\"keccak256\":\"0x9f4357008a8f7d8c8bf5d48902e789637538d8c016be5766610901b4bba81514\",\"urls\":[\"bzz-raw://20bf19b2b851f58a4c24543de80ae70b3e08621f9230eb335dc75e2d4f43f5df\",\"dweb:/ipfs/QmSYuH1AhvJkPK8hNvoPqtExBcgTB42pPRHgTHkS5c5zYW\"],\"license\":\"MIT\"}},\"version\":1}",
			"args": [
				"0x040f331774Ed6BB161412B4cEDb1358B382aF3A5",
				"0x13b2211a7cA45Db2808F6dB05557ce5347e3634e",
				"ORMP-U"
			],
			"bytecode": "0x60806040523480156200001157600080fd5b5060405162002559380380620025598339810160408190526200003491620001c0565b80806200004133620000a1565b60026200004f828262000349565b5050506200006383620000a160201b60201c565b600580546001600160a01b0319166001600160a01b03841617905562000097600683620000cb602090811b62000e1e17901c565b5050505062000415565b600180546001600160a01b0319169055620000c881620000eb602090811b62000e4717901c565b50565b6000620000e2836001600160a01b0384166200013b565b90505b92915050565b600080546001600160a01b038381166001600160a01b0319831681178455604051919092169283917f8be0079c531659141344cd1fd0a4f28419497f9722a3daafe3b4186f6b6457e09190a35050565b60008181526001830160205260408120546200018457508154600181810184556000848152602080822090930184905584548482528286019093526040902091909155620000e5565b506000620000e5565b80516001600160a01b0381168114620001a557600080fd5b919050565b634e487b7160e01b600052604160045260246000fd5b600080600060608486031215620001d657600080fd5b620001e1846200018d565b92506020620001f28186016200018d565b60408601519093506001600160401b03808211156200021057600080fd5b818701915087601f8301126200022557600080fd5b8151818111156200023a576200023a620001aa565b604051601f8201601f19908116603f01168101908382118183101715620002655762000265620001aa565b816040528281528a868487010111156200027e57600080fd5b600093505b82841015620002a2578484018601518185018701529285019262000283565b60008684830101528096505050505050509250925092565b600181811c90821680620002cf57607f821691505b602082108103620002f057634e487b7160e01b600052602260045260246000fd5b50919050565b601f8211156200034457600081815260208120601f850160051c810160208610156200031f5750805b601f850160051c820191505b8181101562000340578281556001016200032b565b5050505b505050565b81516001600160401b03811115620003655762000365620001aa565b6200037d81620003768454620002ba565b84620002f6565b602080601f831160018114620003b557600084156200039c5750858301515b600019600386901b1c1916600185901b17855562000340565b600085815260208120601f198616915b82811015620003e657888601518255948401946001909101908401620003c5565b5085821015620004055787850151600019600388901b60f8161c191681555b5050505050600190811b01905550565b61213480620004256000396000f3fe6080604052600436106101755760003560e01c80638069c497116100cb578063ea3de3d31161007f578063fd0d5a1911610059578063fd0d5a19146103fa578063fd9374991461041c578063ff0202221461043c57600080fd5b8063ea3de3d3146103a5578063eac989f8146103c5578063f2fde38b146103da57600080fd5b8063968c4441116100b0578063968c444114610337578063b0ff5e7214610367578063e30c39781461037a57600080fd5b80638069c497146102ec5780638da5cb5b1461030c57600080fd5b80634d16220d1161012d578063715018a611610107578063715018a6146102a257806379ba5097146102b75780637e136c64146102cc57600080fd5b80634d16220d1461024d5780634d8464a61461026d57806366c16c901461028d57600080fd5b806316fe55ae1161015e57806316fe55ae146101c757806337645118146101e8578063394d1bca1461023a57600080fd5b806302fe53051461017a57806306fdde031461019c575b600080fd5b34801561018657600080fd5b5061019a6101953660046117c7565b61047f565b005b3480156101a857600080fd5b506101b16104ca565b6040516101be9190611877565b60405180910390f35b6101da6101d53660046118ac565b61055c565b6040519081526020016101be565b3480156101f457600080fd5b506005546102159073ffffffffffffffffffffffffffffffffffffffff1681565b60405173ffffffffffffffffffffffffffffffffffffffff90911681526020016101be565b61019a610248366004611938565b6105bd565b34801561025957600080fd5b5061021561026836600461199d565b610734565b34801561027957600080fd5b5061019a6102883660046119b6565b610747565b34801561029957600080fd5b506101da6108a4565b3480156102ae57600080fd5b5061019a6108b5565b3480156102c357600080fd5b5061019a6108c9565b3480156102d857600080fd5b5061019a6102e73660046119d3565b61097e565b3480156102f857600080fd5b5061019a610307366004611a1e565b610a85565b34801561031857600080fd5b5060005473ffffffffffffffffffffffffffffffffffffffff16610215565b34801561034357600080fd5b506103576103523660046119b6565b610a97565b60405190151581526020016101be565b34801561037357600080fd5b50466101da565b34801561038657600080fd5b5060015473ffffffffffffffffffffffffffffffffffffffff16610215565b3480156103b157600080fd5b5061019a6103c03660046119b6565b610aa4565b3480156103d157600080fd5b506101b1610bf0565b3480156103e657600080fd5b5061019a6103f53660046119b6565b610bff565b34801561040657600080fd5b5061040f610caf565b6040516101be9190611a4e565b34801561042857600080fd5b506101da610437366004611aa8565b610cbb565b34801561044857600080fd5b5061021561045736600461199d565b60009081526004602052604090205473ffffffffffffffffffffffffffffffffffffffff1690565b610487610ebc565b6104c682828080601f016020809104026020016040519081016040528093929190818152602001838380828437600092019190915250610f3d92505050565b5050565b6060600280546104d990611b47565b80601f016020809104026020016040519081016040528092919081815260200182805461050590611b47565b80156105525780601f1061052757610100808354040283529160200191610552565b820191906000526020600020905b81548152906001019060200180831161053557829003601f168201915b5050505050905090565b600061056d33888888888888610f79565b9050807f40195d26d027672e04e23e34282d68c3d43ea138415b24c54fcdb9c2573e5975338989898989896040516105ab9796959493929190611be3565b60405180910390a29695505050505050565b6105c86006336110d2565b610633576040517f08c379a000000000000000000000000000000000000000000000000000000000815260206004820152600660248201527f216f726d7073000000000000000000000000000000000000000000000000000060448201526064015b60405180910390fd5b600061063d611101565b905061064881611196565b73ffffffffffffffffffffffffffffffffffffffff16610666611227565b73ffffffffffffffffffffffffffffffffffffffff16146106e3576040517f08c379a000000000000000000000000000000000000000000000000000000000815260206004820152600560248201527f2161757468000000000000000000000000000000000000000000000000000000604482015260640161062a565b61072d6106ee6112bf565b82878787878080601f01602080910402602001604051908101604052809392919081815260200183838082843760009201919091525061135492505050565b5050505050565b60006107416006836114bc565b92915050565b61074f610ebc565b6005805473ffffffffffffffffffffffffffffffffffffffff8381167fffffffffffffffffffffffff00000000000000000000000000000000000000008316179092551661079e600683610e1e565b610806576040517f08c379a000000000000000000000000000000000000000000000000000000000815260040161062a9060208082526004908201527f2161646400000000000000000000000000000000000000000000000000000000604082015260600190565b6040805173ffffffffffffffffffffffffffffffffffffffff8084168252841660208201527f2546b320a5e5d5577ddc36cd3d83b9f37f6c4d73a7d940d473cd72e52c1fd894910160405180910390a160405173ffffffffffffffffffffffffffffffffffffffff831681527f8af9a700c7743999640a0e8ccf8c7a29e0c3100288901cccd7a9a6b371edbab3906020015b60405180910390a15050565b60006108b060066114c8565b905090565b6108bd610ebc565b6108c760006114d2565b565b600154339073ffffffffffffffffffffffffffffffffffffffff168114610972576040517f08c379a000000000000000000000000000000000000000000000000000000000815260206004820152602960248201527f4f776e61626c6532537465703a2063616c6c6572206973206e6f74207468652060448201527f6e6577206f776e65720000000000000000000000000000000000000000000000606482015260840161062a565b61097b816114d2565b50565b610986610ebc565b6109916006846110d2565b6109f7576040517f08c379a000000000000000000000000000000000000000000000000000000000815260206004820152600660248201527f2165786973740000000000000000000000000000000000000000000000000000604482015260640161062a565b6040517f8b22909100000000000000000000000000000000000000000000000000000000815273ffffffffffffffffffffffffffffffffffffffff83811660048301528281166024830152841690638b22909190604401600060405180830381600087803b158015610a6857600080fd5b505af1158015610a7c573d6000803e3d6000fd5b50505050505050565b610a8d610ebc565b6104c68282611503565b60006107416006836110d2565b610aac610ebc565b60055473ffffffffffffffffffffffffffffffffffffffff808316911603610b30576040517f08c379a000000000000000000000000000000000000000000000000000000000815260206004820152600660248201527f73656e6465720000000000000000000000000000000000000000000000000000604482015260640161062a565b610b3b600682611587565b610ba3576040517f08c379a000000000000000000000000000000000000000000000000000000000815260040161062a9060208082526004908201527f2164656c00000000000000000000000000000000000000000000000000000000604082015260600190565b60405173ffffffffffffffffffffffffffffffffffffffff821681527f933e5878af9aa566b0832891947f17052b71c97fff8a7c8a1553af62bcc2239d906020015b60405180910390a150565b6060600380546104d990611b47565b610c07610ebc565b6001805473ffffffffffffffffffffffffffffffffffffffff83167fffffffffffffffffffffffff00000000000000000000000000000000000000009091168117909155610c6a60005473ffffffffffffffffffffffffffffffffffffffff1690565b73ffffffffffffffffffffffffffffffffffffffff167f38d16b8cac22d99fc7c124b9cd0de2d3fa1faef420bfe791d8c362d765e2270060405160405180910390a350565b60606108b060066115a9565b60008080610ccb84860186611c73565b9250509150600063394d1bca60e01b8a8a8a8a604051602401610cf19493929190611d5e565b604080517fffffffffffffffffffffffffffffffffffffffffffffffffffffffffffffffe08184030181529181526020820180517bffffffffffffffffffffffffffffffffffffffffffffffffffffffff167fffffffff000000000000000000000000000000000000000000000000000000009094169390931790925260055491517f1c2b2da600000000000000000000000000000000000000000000000000000000815290925073ffffffffffffffffffffffffffffffffffffffff90911690631c2b2da690610dce908e903090889087908990600401611da2565b602060405180830381865afa158015610deb573d6000803e3d6000fd5b505050506040513d601f19601f82011682018060405250810190610e0f9190611dfb565b9b9a5050505050505050505050565b6000610e408373ffffffffffffffffffffffffffffffffffffffff84166115b6565b9392505050565b6000805473ffffffffffffffffffffffffffffffffffffffff8381167fffffffffffffffffffffffff0000000000000000000000000000000000000000831681178455604051919092169283917f8be0079c531659141344cd1fd0a4f28419497f9722a3daafe3b4186f6b6457e09190a35050565b60005473ffffffffffffffffffffffffffffffffffffffff1633146108c7576040517f08c379a000000000000000000000000000000000000000000000000000000000815260206004820181905260248201527f4f776e61626c653a2063616c6c6572206973206e6f7420746865206f776e6572604482015260640161062a565b6003610f498282611e63565b507f3d7a9962f6da134f6896430d6867bd08e3546dbf9570df877e7cec39ba4305f081604051610be59190611877565b6000808080610f8a85870187611c73565b925092509250600063394d1bca60e01b8c8b8b8b604051602401610fb19493929190611d5e565b604080517fffffffffffffffffffffffffffffffffffffffffffffffffffffffffffffffe08184030181529190526020810180517bffffffffffffffffffffffffffffffffffffffffffffffffffffffff167fffffffff000000000000000000000000000000000000000000000000000000009093169290921790915260055490915073ffffffffffffffffffffffffffffffffffffffff16635e26462c348d61105a81611196565b888689896040518863ffffffff1660e01b815260040161107f96959493929190611f7d565b60206040518083038185885af115801561109d573d6000803e3d6000fd5b50505050506040513d601f19601f820116820180604052508101906110c29190611dfb565b9c9b505050505050505050505050565b73ffffffffffffffffffffffffffffffffffffffff811660009081526001830160205260408120541515610e40565b6000603436101561116e576040517f08c379a000000000000000000000000000000000000000000000000000000000815260206004820152600c60248201527f2166726f6d436861696e49640000000000000000000000000000000000000000604482015260640161062a565b507fffffffffffffffffffffffffffffffffffffffffffffffffffffffffffffffcc36013590565b60008181526004602052604090205473ffffffffffffffffffffffffffffffffffffffff1680611222576040517f08c379a000000000000000000000000000000000000000000000000000000000815260206004820152600560248201527f2170656572000000000000000000000000000000000000000000000000000000604482015260640161062a565b919050565b60006014361015611294576040517f08c379a000000000000000000000000000000000000000000000000000000000815260206004820152600b60248201527f21786d736753656e646572000000000000000000000000000000000000000000604482015260640161062a565b507fffffffffffffffffffffffffffffffffffffffffffffffffffffffffffffffec36013560601c90565b6000605436101561132c576040517f08c379a000000000000000000000000000000000000000000000000000000000815260206004820152600a60248201527f216d657373616765496400000000000000000000000000000000000000000000604482015260640161062a565b507fffffffffffffffffffffffffffffffffffffffffffffffffffffffffffffffac36013590565b816113606006826110d2565b156113c7576040517f08c379a000000000000000000000000000000000000000000000000000000000815260206004820152600760248201527f21746f4461707000000000000000000000000000000000000000000000000000604482015260640161062a565b6000808473ffffffffffffffffffffffffffffffffffffffff1634858a8a8a6040516020016113f99493929190611fd3565b604080517fffffffffffffffffffffffffffffffffffffffffffffffffffffffffffffffe08184030181529082905261143191612027565b60006040518083038185875af1925050503d806000811461146e576040519150601f19603f3d011682016040523d82523d6000602084013e611473565b606091505b5091509150877fea087580bb17f433441f3b6c0c0b80cae92ee74a8d7f50050388646d9ffd143183836040516114aa929190612043565b60405180910390a25050505050505050565b6000610e408383611605565b6000610741825490565b600180547fffffffffffffffffffffffff000000000000000000000000000000000000000016905561097b81610e47565b60008281526004602090815260409182902080547fffffffffffffffffffffffff00000000000000000000000000000000000000001673ffffffffffffffffffffffffffffffffffffffff85169081179091558251858152918201527fcd44d3edde5f7e508840db73b2e39b71d725825fca31c7b3b5f154fe805554db9101610898565b6000610e408373ffffffffffffffffffffffffffffffffffffffff841661162f565b60606000610e4083611722565b60008181526001830160205260408120546115fd57508154600181810184556000848152602080822090930184905584548482528286019093526040902091909155610741565b506000610741565b600082600001828154811061161c5761161c612066565b9060005260206000200154905092915050565b60008181526001830160205260408120548015611718576000611653600183612095565b855490915060009061166790600190612095565b90508181146116cc57600086600001828154811061168757611687612066565b90600052602060002001549050808760000184815481106116aa576116aa612066565b6000918252602080832090910192909255918252600188019052604090208390555b85548690806116dd576116dd6120cf565b600190038181906000526020600020016000905590558560010160008681526020019081526020016000206000905560019350505050610741565b6000915050610741565b60608160000180548060200260200160405190810160405280929190818152602001828054801561177257602002820191906000526020600020905b81548152602001906001019080831161175e575b50505050509050919050565b60008083601f84011261179057600080fd5b50813567ffffffffffffffff8111156117a857600080fd5b6020830191508360208285010111156117c057600080fd5b9250929050565b600080602083850312156117da57600080fd5b823567ffffffffffffffff8111156117f157600080fd5b6117fd8582860161177e565b90969095509350505050565b60005b8381101561182457818101518382015260200161180c565b50506000910152565b60008151808452611845816020860160208601611809565b601f017fffffffffffffffffffffffffffffffffffffffffffffffffffffffffffffffe0169290920160200192915050565b602081526000610e40602083018461182d565b73ffffffffffffffffffffffffffffffffffffffff8116811461097b57600080fd5b600080600080600080608087890312156118c557600080fd5b8635955060208701356118d78161188a565b9450604087013567ffffffffffffffff808211156118f457600080fd5b6119008a838b0161177e565b9096509450606089013591508082111561191957600080fd5b5061192689828a0161177e565b979a9699509497509295939492505050565b6000806000806060858703121561194e57600080fd5b84356119598161188a565b935060208501356119698161188a565b9250604085013567ffffffffffffffff81111561198557600080fd5b6119918782880161177e565b95989497509550505050565b6000602082840312156119af57600080fd5b5035919050565b6000602082840312156119c857600080fd5b8135610e408161188a565b6000806000606084860312156119e857600080fd5b83356119f38161188a565b92506020840135611a038161188a565b91506040840135611a138161188a565b809150509250925092565b60008060408385031215611a3157600080fd5b823591506020830135611a438161188a565b809150509250929050565b6020808252825182820181905260009190848201906040850190845b81811015611a9c57835173ffffffffffffffffffffffffffffffffffffffff1683529284019291840191600101611a6a565b50909695505050505050565b600080600080600080600060a0888a031215611ac357600080fd5b873596506020880135611ad58161188a565b95506040880135611ae58161188a565b9450606088013567ffffffffffffffff80821115611b0257600080fd5b611b0e8b838c0161177e565b909650945060808a0135915080821115611b2757600080fd5b50611b348a828b0161177e565b989b979a50959850939692959293505050565b600181811c90821680611b5b57607f821691505b602082108103611b94577f4e487b7100000000000000000000000000000000000000000000000000000000600052602260045260246000fd5b50919050565b8183528181602085013750600060208284010152600060207fffffffffffffffffffffffffffffffffffffffffffffffffffffffffffffffe0601f840116840101905092915050565b600073ffffffffffffffffffffffffffffffffffffffff808a16835288602084015280881660408401525060a06060830152611c2360a083018688611b9a565b8281036080840152611c36818587611b9a565b9a9950505050505050505050565b7f4e487b7100000000000000000000000000000000000000000000000000000000600052604160045260246000fd5b600080600060608486031215611c8857600080fd5b833592506020840135611c9a8161188a565b9150604084013567ffffffffffffffff80821115611cb757600080fd5b818601915086601f830112611ccb57600080fd5b813581811115611cdd57611cdd611c44565b604051601f82017fffffffffffffffffffffffffffffffffffffffffffffffffffffffffffffffe0908116603f01168101908382118183101715611d2357611d23611c44565b81604052828152896020848701011115611d3c57600080fd5b8260208601602083013760006020848301015280955050505050509250925092565b600073ffffffffffffffffffffffffffffffffffffffff808716835280861660208401525060606040830152611d98606083018486611b9a565b9695505050505050565b85815273ffffffffffffffffffffffffffffffffffffffff8516602082015283604082015260a060608201526000611ddd60a083018561182d565b8281036080840152611def818561182d565b98975050505050505050565b600060208284031215611e0d57600080fd5b5051919050565b601f821115611e5e57600081815260208120601f850160051c81016020861015611e3b5750805b601f850160051c820191505b81811015611e5a57828155600101611e47565b5050505b505050565b815167ffffffffffffffff811115611e7d57611e7d611c44565b611e9181611e8b8454611b47565b84611e14565b602080601f831160018114611ee45760008415611eae5750858301515b7fffffffffffffffffffffffffffffffffffffffffffffffffffffffffffffffff600386901b1c1916600185901b178555611e5a565b6000858152602081207fffffffffffffffffffffffffffffffffffffffffffffffffffffffffffffffe08616915b82811015611f3157888601518255948401946001909101908401611f12565b5085821015611f6d57878501517fffffffffffffffffffffffffffffffffffffffffffffffffffffffffffffffff600388901b60f8161c191681555b5050505050600190811b01905550565b868152600073ffffffffffffffffffffffffffffffffffffffff808816602084015286604084015260c06060840152611fb960c084018761182d565b818616608085015283810360a0850152611c36818661182d565b60008551611fe5818460208a01611809565b9190910193845250602083019190915260601b7fffffffffffffffffffffffffffffffffffffffff000000000000000000000000166040820152605401919050565b60008251612039818460208701611809565b9190910192915050565b821515815260406020820152600061205e604083018461182d565b949350505050565b7f4e487b7100000000000000000000000000000000000000000000000000000000600052603260045260246000fd5b81810381811115610741577f4e487b7100000000000000000000000000000000000000000000000000000000600052601160045260246000fd5b7f4e487b7100000000000000000000000000000000000000000000000000000000600052603160045260246000fdfea2646970667358221220d342c8b26c9b004f291a58bf1444f485d5a3779d2f43620664ccc030e028ce6864736f6c63430008110033",
			"deployedBytecode": "0x6080604052600436106101755760003560e01c80638069c497116100cb578063ea3de3d31161007f578063fd0d5a1911610059578063fd0d5a19146103fa578063fd9374991461041c578063ff0202221461043c57600080fd5b8063ea3de3d3146103a5578063eac989f8146103c5578063f2fde38b146103da57600080fd5b8063968c4441116100b0578063968c444114610337578063b0ff5e7214610367578063e30c39781461037a57600080fd5b80638069c497146102ec5780638da5cb5b1461030c57600080fd5b80634d16220d1161012d578063715018a611610107578063715018a6146102a257806379ba5097146102b75780637e136c64146102cc57600080fd5b80634d16220d1461024d5780634d8464a61461026d57806366c16c901461028d57600080fd5b806316fe55ae1161015e57806316fe55ae146101c757806337645118146101e8578063394d1bca1461023a57600080fd5b806302fe53051461017a57806306fdde031461019c575b600080fd5b34801561018657600080fd5b5061019a6101953660046117c7565b61047f565b005b3480156101a857600080fd5b506101b16104ca565b6040516101be9190611877565b60405180910390f35b6101da6101d53660046118ac565b61055c565b6040519081526020016101be565b3480156101f457600080fd5b506005546102159073ffffffffffffffffffffffffffffffffffffffff1681565b60405173ffffffffffffffffffffffffffffffffffffffff90911681526020016101be565b61019a610248366004611938565b6105bd565b34801561025957600080fd5b5061021561026836600461199d565b610734565b34801561027957600080fd5b5061019a6102883660046119b6565b610747565b34801561029957600080fd5b506101da6108a4565b3480156102ae57600080fd5b5061019a6108b5565b3480156102c357600080fd5b5061019a6108c9565b3480156102d857600080fd5b5061019a6102e73660046119d3565b61097e565b3480156102f857600080fd5b5061019a610307366004611a1e565b610a85565b34801561031857600080fd5b5060005473ffffffffffffffffffffffffffffffffffffffff16610215565b34801561034357600080fd5b506103576103523660046119b6565b610a97565b60405190151581526020016101be565b34801561037357600080fd5b50466101da565b34801561038657600080fd5b5060015473ffffffffffffffffffffffffffffffffffffffff16610215565b3480156103b157600080fd5b5061019a6103c03660046119b6565b610aa4565b3480156103d157600080fd5b506101b1610bf0565b3480156103e657600080fd5b5061019a6103f53660046119b6565b610bff565b34801561040657600080fd5b5061040f610caf565b6040516101be9190611a4e565b34801561042857600080fd5b506101da610437366004611aa8565b610cbb565b34801561044857600080fd5b5061021561045736600461199d565b60009081526004602052604090205473ffffffffffffffffffffffffffffffffffffffff1690565b610487610ebc565b6104c682828080601f016020809104026020016040519081016040528093929190818152602001838380828437600092019190915250610f3d92505050565b5050565b6060600280546104d990611b47565b80601f016020809104026020016040519081016040528092919081815260200182805461050590611b47565b80156105525780601f1061052757610100808354040283529160200191610552565b820191906000526020600020905b81548152906001019060200180831161053557829003601f168201915b5050505050905090565b600061056d33888888888888610f79565b9050807f40195d26d027672e04e23e34282d68c3d43ea138415b24c54fcdb9c2573e5975338989898989896040516105ab9796959493929190611be3565b60405180910390a29695505050505050565b6105c86006336110d2565b610633576040517f08c379a000000000000000000000000000000000000000000000000000000000815260206004820152600660248201527f216f726d7073000000000000000000000000000000000000000000000000000060448201526064015b60405180910390fd5b600061063d611101565b905061064881611196565b73ffffffffffffffffffffffffffffffffffffffff16610666611227565b73ffffffffffffffffffffffffffffffffffffffff16146106e3576040517f08c379a000000000000000000000000000000000000000000000000000000000815260206004820152600560248201527f2161757468000000000000000000000000000000000000000000000000000000604482015260640161062a565b61072d6106ee6112bf565b82878787878080601f01602080910402602001604051908101604052809392919081815260200183838082843760009201919091525061135492505050565b5050505050565b60006107416006836114bc565b92915050565b61074f610ebc565b6005805473ffffffffffffffffffffffffffffffffffffffff8381167fffffffffffffffffffffffff00000000000000000000000000000000000000008316179092551661079e600683610e1e565b610806576040517f08c379a000000000000000000000000000000000000000000000000000000000815260040161062a9060208082526004908201527f2161646400000000000000000000000000000000000000000000000000000000604082015260600190565b6040805173ffffffffffffffffffffffffffffffffffffffff8084168252841660208201527f2546b320a5e5d5577ddc36cd3d83b9f37f6c4d73a7d940d473cd72e52c1fd894910160405180910390a160405173ffffffffffffffffffffffffffffffffffffffff831681527f8af9a700c7743999640a0e8ccf8c7a29e0c3100288901cccd7a9a6b371edbab3906020015b60405180910390a15050565b60006108b060066114c8565b905090565b6108bd610ebc565b6108c760006114d2565b565b600154339073ffffffffffffffffffffffffffffffffffffffff168114610972576040517f08c379a000000000000000000000000000000000000000000000000000000000815260206004820152602960248201527f4f776e61626c6532537465703a2063616c6c6572206973206e6f74207468652060448201527f6e6577206f776e65720000000000000000000000000000000000000000000000606482015260840161062a565b61097b816114d2565b50565b610986610ebc565b6109916006846110d2565b6109f7576040517f08c379a000000000000000000000000000000000000000000000000000000000815260206004820152600660248201527f2165786973740000000000000000000000000000000000000000000000000000604482015260640161062a565b6040517f8b22909100000000000000000000000000000000000000000000000000000000815273ffffffffffffffffffffffffffffffffffffffff83811660048301528281166024830152841690638b22909190604401600060405180830381600087803b158015610a6857600080fd5b505af1158015610a7c573d6000803e3d6000fd5b50505050505050565b610a8d610ebc565b6104c68282611503565b60006107416006836110d2565b610aac610ebc565b60055473ffffffffffffffffffffffffffffffffffffffff808316911603610b30576040517f08c379a000000000000000000000000000000000000000000000000000000000815260206004820152600660248201527f73656e6465720000000000000000000000000000000000000000000000000000604482015260640161062a565b610b3b600682611587565b610ba3576040517f08c379a000000000000000000000000000000000000000000000000000000000815260040161062a9060208082526004908201527f2164656c00000000000000000000000000000000000000000000000000000000604082015260600190565b60405173ffffffffffffffffffffffffffffffffffffffff821681527f933e5878af9aa566b0832891947f17052b71c97fff8a7c8a1553af62bcc2239d906020015b60405180910390a150565b6060600380546104d990611b47565b610c07610ebc565b6001805473ffffffffffffffffffffffffffffffffffffffff83167fffffffffffffffffffffffff00000000000000000000000000000000000000009091168117909155610c6a60005473ffffffffffffffffffffffffffffffffffffffff1690565b73ffffffffffffffffffffffffffffffffffffffff167f38d16b8cac22d99fc7c124b9cd0de2d3fa1faef420bfe791d8c362d765e2270060405160405180910390a350565b60606108b060066115a9565b60008080610ccb84860186611c73565b9250509150600063394d1bca60e01b8a8a8a8a604051602401610cf19493929190611d5e565b604080517fffffffffffffffffffffffffffffffffffffffffffffffffffffffffffffffe08184030181529181526020820180517bffffffffffffffffffffffffffffffffffffffffffffffffffffffff167fffffffff000000000000000000000000000000000000000000000000000000009094169390931790925260055491517f1c2b2da600000000000000000000000000000000000000000000000000000000815290925073ffffffffffffffffffffffffffffffffffffffff90911690631c2b2da690610dce908e903090889087908990600401611da2565b602060405180830381865afa158015610deb573d6000803e3d6000fd5b505050506040513d601f19601f82011682018060405250810190610e0f9190611dfb565b9b9a5050505050505050505050565b6000610e408373ffffffffffffffffffffffffffffffffffffffff84166115b6565b9392505050565b6000805473ffffffffffffffffffffffffffffffffffffffff8381167fffffffffffffffffffffffff0000000000000000000000000000000000000000831681178455604051919092169283917f8be0079c531659141344cd1fd0a4f28419497f9722a3daafe3b4186f6b6457e09190a35050565b60005473ffffffffffffffffffffffffffffffffffffffff1633146108c7576040517f08c379a000000000000000000000000000000000000000000000000000000000815260206004820181905260248201527f4f776e61626c653a2063616c6c6572206973206e6f7420746865206f776e6572604482015260640161062a565b6003610f498282611e63565b507f3d7a9962f6da134f6896430d6867bd08e3546dbf9570df877e7cec39ba4305f081604051610be59190611877565b6000808080610f8a85870187611c73565b925092509250600063394d1bca60e01b8c8b8b8b604051602401610fb19493929190611d5e565b604080517fffffffffffffffffffffffffffffffffffffffffffffffffffffffffffffffe08184030181529190526020810180517bffffffffffffffffffffffffffffffffffffffffffffffffffffffff167fffffffff000000000000000000000000000000000000000000000000000000009093169290921790915260055490915073ffffffffffffffffffffffffffffffffffffffff16635e26462c348d61105a81611196565b888689896040518863ffffffff1660e01b815260040161107f96959493929190611f7d565b60206040518083038185885af115801561109d573d6000803e3d6000fd5b50505050506040513d601f19601f820116820180604052508101906110c29190611dfb565b9c9b505050505050505050505050565b73ffffffffffffffffffffffffffffffffffffffff811660009081526001830160205260408120541515610e40565b6000603436101561116e576040517f08c379a000000000000000000000000000000000000000000000000000000000815260206004820152600c60248201527f2166726f6d436861696e49640000000000000000000000000000000000000000604482015260640161062a565b507fffffffffffffffffffffffffffffffffffffffffffffffffffffffffffffffcc36013590565b60008181526004602052604090205473ffffffffffffffffffffffffffffffffffffffff1680611222576040517f08c379a000000000000000000000000000000000000000000000000000000000815260206004820152600560248201527f2170656572000000000000000000000000000000000000000000000000000000604482015260640161062a565b919050565b60006014361015611294576040517f08c379a000000000000000000000000000000000000000000000000000000000815260206004820152600b60248201527f21786d736753656e646572000000000000000000000000000000000000000000604482015260640161062a565b507fffffffffffffffffffffffffffffffffffffffffffffffffffffffffffffffec36013560601c90565b6000605436101561132c576040517f08c379a000000000000000000000000000000000000000000000000000000000815260206004820152600a60248201527f216d657373616765496400000000000000000000000000000000000000000000604482015260640161062a565b507fffffffffffffffffffffffffffffffffffffffffffffffffffffffffffffffac36013590565b816113606006826110d2565b156113c7576040517f08c379a000000000000000000000000000000000000000000000000000000000815260206004820152600760248201527f21746f4461707000000000000000000000000000000000000000000000000000604482015260640161062a565b6000808473ffffffffffffffffffffffffffffffffffffffff1634858a8a8a6040516020016113f99493929190611fd3565b604080517fffffffffffffffffffffffffffffffffffffffffffffffffffffffffffffffe08184030181529082905261143191612027565b60006040518083038185875af1925050503d806000811461146e576040519150601f19603f3d011682016040523d82523d6000602084013e611473565b606091505b5091509150877fea087580bb17f433441f3b6c0c0b80cae92ee74a8d7f50050388646d9ffd143183836040516114aa929190612043565b60405180910390a25050505050505050565b6000610e408383611605565b6000610741825490565b600180547fffffffffffffffffffffffff000000000000000000000000000000000000000016905561097b81610e47565b60008281526004602090815260409182902080547fffffffffffffffffffffffff00000000000000000000000000000000000000001673ffffffffffffffffffffffffffffffffffffffff85169081179091558251858152918201527fcd44d3edde5f7e508840db73b2e39b71d725825fca31c7b3b5f154fe805554db9101610898565b6000610e408373ffffffffffffffffffffffffffffffffffffffff841661162f565b60606000610e4083611722565b60008181526001830160205260408120546115fd57508154600181810184556000848152602080822090930184905584548482528286019093526040902091909155610741565b506000610741565b600082600001828154811061161c5761161c612066565b9060005260206000200154905092915050565b60008181526001830160205260408120548015611718576000611653600183612095565b855490915060009061166790600190612095565b90508181146116cc57600086600001828154811061168757611687612066565b90600052602060002001549050808760000184815481106116aa576116aa612066565b6000918252602080832090910192909255918252600188019052604090208390555b85548690806116dd576116dd6120cf565b600190038181906000526020600020016000905590558560010160008681526020019081526020016000206000905560019350505050610741565b6000915050610741565b60608160000180548060200260200160405190810160405280929190818152602001828054801561177257602002820191906000526020600020905b81548152602001906001019080831161175e575b50505050509050919050565b60008083601f84011261179057600080fd5b50813567ffffffffffffffff8111156117a857600080fd5b6020830191508360208285010111156117c057600080fd5b9250929050565b600080602083850312156117da57600080fd5b823567ffffffffffffffff8111156117f157600080fd5b6117fd8582860161177e565b90969095509350505050565b60005b8381101561182457818101518382015260200161180c565b50506000910152565b60008151808452611845816020860160208601611809565b601f017fffffffffffffffffffffffffffffffffffffffffffffffffffffffffffffffe0169290920160200192915050565b602081526000610e40602083018461182d565b73ffffffffffffffffffffffffffffffffffffffff8116811461097b57600080fd5b600080600080600080608087890312156118c557600080fd5b8635955060208701356118d78161188a565b9450604087013567ffffffffffffffff808211156118f457600080fd5b6119008a838b0161177e565b9096509450606089013591508082111561191957600080fd5b5061192689828a0161177e565b979a9699509497509295939492505050565b6000806000806060858703121561194e57600080fd5b84356119598161188a565b935060208501356119698161188a565b9250604085013567ffffffffffffffff81111561198557600080fd5b6119918782880161177e565b95989497509550505050565b6000602082840312156119af57600080fd5b5035919050565b6000602082840312156119c857600080fd5b8135610e408161188a565b6000806000606084860312156119e857600080fd5b83356119f38161188a565b92506020840135611a038161188a565b91506040840135611a138161188a565b809150509250925092565b60008060408385031215611a3157600080fd5b823591506020830135611a438161188a565b809150509250929050565b6020808252825182820181905260009190848201906040850190845b81811015611a9c57835173ffffffffffffffffffffffffffffffffffffffff1683529284019291840191600101611a6a565b50909695505050505050565b600080600080600080600060a0888a031215611ac357600080fd5b873596506020880135611ad58161188a565b95506040880135611ae58161188a565b9450606088013567ffffffffffffffff80821115611b0257600080fd5b611b0e8b838c0161177e565b909650945060808a0135915080821115611b2757600080fd5b50611b348a828b0161177e565b989b979a50959850939692959293505050565b600181811c90821680611b5b57607f821691505b602082108103611b94577f4e487b7100000000000000000000000000000000000000000000000000000000600052602260045260246000fd5b50919050565b8183528181602085013750600060208284010152600060207fffffffffffffffffffffffffffffffffffffffffffffffffffffffffffffffe0601f840116840101905092915050565b600073ffffffffffffffffffffffffffffffffffffffff808a16835288602084015280881660408401525060a06060830152611c2360a083018688611b9a565b8281036080840152611c36818587611b9a565b9a9950505050505050505050565b7f4e487b7100000000000000000000000000000000000000000000000000000000600052604160045260246000fd5b600080600060608486031215611c8857600080fd5b833592506020840135611c9a8161188a565b9150604084013567ffffffffffffffff80821115611cb757600080fd5b818601915086601f830112611ccb57600080fd5b813581811115611cdd57611cdd611c44565b604051601f82017fffffffffffffffffffffffffffffffffffffffffffffffffffffffffffffffe0908116603f01168101908382118183101715611d2357611d23611c44565b81604052828152896020848701011115611d3c57600080fd5b8260208601602083013760006020848301015280955050505050509250925092565b600073ffffffffffffffffffffffffffffffffffffffff808716835280861660208401525060606040830152611d98606083018486611b9a565b9695505050505050565b85815273ffffffffffffffffffffffffffffffffffffffff8516602082015283604082015260a060608201526000611ddd60a083018561182d565b8281036080840152611def818561182d565b98975050505050505050565b600060208284031215611e0d57600080fd5b5051919050565b601f821115611e5e57600081815260208120601f850160051c81016020861015611e3b5750805b601f850160051c820191505b81811015611e5a57828155600101611e47565b5050505b505050565b815167ffffffffffffffff811115611e7d57611e7d611c44565b611e9181611e8b8454611b47565b84611e14565b602080601f831160018114611ee45760008415611eae5750858301515b7fffffffffffffffffffffffffffffffffffffffffffffffffffffffffffffffff600386901b1c1916600185901b178555611e5a565b6000858152602081207fffffffffffffffffffffffffffffffffffffffffffffffffffffffffffffffe08616915b82811015611f3157888601518255948401946001909101908401611f12565b5085821015611f6d57878501517fffffffffffffffffffffffffffffffffffffffffffffffffffffffffffffffff600388901b60f8161c191681555b5050505050600190811b01905550565b868152600073ffffffffffffffffffffffffffffffffffffffff808816602084015286604084015260c06060840152611fb960c084018761182d565b818616608085015283810360a0850152611c36818661182d565b60008551611fe5818460208a01611809565b9190910193845250602083019190915260601b7fffffffffffffffffffffffffffffffffffffffff000000000000000000000000166040820152605401919050565b60008251612039818460208701611809565b9190910192915050565b821515815260406020820152600061205e604083018461182d565b949350505050565b7f4e487b7100000000000000000000000000000000000000000000000000000000600052603260045260246000fd5b81810381811115610741577f4e487b7100000000000000000000000000000000000000000000000000000000600052601160045260246000fd5b7f4e487b7100000000000000000000000000000000000000000000000000000000600052603160045260246000fdfea2646970667358221220d342c8b26c9b004f291a58bf1444f485d5a3779d2f43620664ccc030e028ce6864736f6c63430008110033",
			"devdoc": {
				"kind": "dev",
				"methods": {
					"acceptOwnership()": {
						"details": "The new owner accepts the ownership transfer."
					},
					"name()": {
						"returns": {
							"_0": "The MessagePort name."
						}
					},
					"owner()": {
						"details": "Returns the address of the current owner."
					},
					"pendingOwner()": {
						"details": "Returns the address of the pending owner."
					},
					"renounceOwnership()": {
						"details": "Leaves the contract without owner. It will not be possible to call `onlyOwner` functions. Can only be called by the current owner. NOTE: Renouncing ownership will leave the contract without an owner, thereby disabling any functionality that is only available to the owner."
					},
					"send(uint256,address,bytes,bytes)": {
						"details": "Send a cross-chain message over the MessagePort.",
						"params": {
							"message": "The calldata which encoded by ABI Encoding.",
							"params": "Extend parameters to adapt to different message protocols.",
							"toChainId": "The message destination chain id. <https://eips.ethereum.org/EIPS/eip-155>",
							"toDapp": "The user application contract address which receive the message."
						},
						"returns": {
							"msgId": "Return the ID of message."
						}
					},
					"transferOwnership(address)": {
						"details": "Starts the ownership transfer of the contract to a new account. Replaces the pending transfer if there is one. Can only be called by the current owner."
					},
					"uri()": {
						"returns": {
							"_0": "The port metadata uri."
						}
					}
				},
				"version": 1
			},
			"userdoc": {
				"kind": "user",
				"methods": {
					"name()": {
						"notice": "Get the port name, it's globally unique and immutable."
					},
					"send(uint256,address,bytes,bytes)": {
						"notice": "Send a cross-chain message over the MessagePort."
					},
					"setORMP(address)": {
						"notice": "How to migrate to new ORMP contract. 1. setORMP to new ORMP contract. 2. delete previousORMP after relay on-flight message."
					}
				},
				"version": 1
			},
			"gitCommit": "b8c8b8bfc2f87ee2728eea8c3781e155c1988299",
			"sourceName": "lib/darwinia-msgport/src/ports/ORMPUpgradeablePort.sol",
			"chainId": "46",
			"linkReferences": {},
			"deployedLinkReferences": {}
		}
	]
}