{
	"_format": "sphinx-sol-ct-artifact-1",
	"merkleRoot": "0x0b6ea44f8dd7a9e4934b24a4b13bfcac3ed1e6e995ca23c6a280571c8a917513",
	"contractName": "XAccountFactory",
	"address": "0x52CC674e99387B8E0D2525F8a93198726063051E",
	"abi": [
		{
			"type": "constructor",
			"inputs": [
				{
					"name": "safeMsgportModule",
					"type": "address",
					"internalType": "address"
				}
			],
			"stateMutability": "nonpayable"
		},
		{
			"type": "function",
			"name": "SAFE_MSGPORT_MODULE",
			"inputs": [],
			"outputs": [
				{
					"name": "",
					"type": "address",
					"internalType": "address"
				}
			],
			"stateMutability": "view"
		},
		{
			"type": "function",
			"name": "create",
			"inputs": [
				{
					"name": "salt",
					"type": "bytes32",
					"internalType": "bytes32"
				},
				{
					"name": "fromChainId",
					"type": "uint256",
					"internalType": "uint256"
				},
				{
					"name": "owner",
					"type": "address",
					"internalType": "address"
				},
				{
					"name": "port",
					"type": "address",
					"internalType": "address"
				},
				{
					"name": "recovery",
					"type": "address",
					"internalType": "address"
				}
			],
			"outputs": [
				{
					"name": "",
					"type": "address",
					"internalType": "address"
				},
				{
					"name": "",
					"type": "address",
					"internalType": "address"
				}
			],
			"stateMutability": "nonpayable"
		},
		{
			"type": "function",
			"name": "safeFactory",
			"inputs": [],
			"outputs": [
				{
					"name": "",
					"type": "address",
					"internalType": "contract ISafeProxyFactory"
				}
			],
			"stateMutability": "view"
		},
		{
			"type": "function",
			"name": "safeFallbackHandler",
			"inputs": [],
			"outputs": [
				{
					"name": "",
					"type": "address",
					"internalType": "address"
				}
			],
			"stateMutability": "view"
		},
		{
			"type": "function",
			"name": "safeSingletonL2",
			"inputs": [],
			"outputs": [
				{
					"name": "",
					"type": "address",
					"internalType": "address"
				}
			],
			"stateMutability": "view"
		},
		{
			"type": "function",
			"name": "setupModules",
			"inputs": [
				{
					"name": "module",
					"type": "address",
					"internalType": "address"
				},
				{
					"name": "recovery",
					"type": "address",
					"internalType": "address"
				}
			],
			"outputs": [],
			"stateMutability": "nonpayable"
		},
		{
			"type": "function",
			"name": "xAccountOf",
			"inputs": [
				{
					"name": "deployer",
					"type": "address",
					"internalType": "address"
				},
				{
					"name": "salt",
					"type": "bytes32",
					"internalType": "bytes32"
				},
				{
					"name": "fromChainId",
					"type": "uint256",
					"internalType": "uint256"
				},
				{
					"name": "owner",
					"type": "address",
					"internalType": "address"
				}
			],
			"outputs": [
				{
					"name": "",
					"type": "address",
					"internalType": "address"
				},
				{
					"name": "",
					"type": "address",
					"internalType": "address"
				}
			],
			"stateMutability": "view"
		},
		{
			"type": "event",
			"name": "XAccountCreated",
			"inputs": [
				{
					"name": "deployer",
					"type": "address",
					"indexed": false,
					"internalType": "address"
				},
				{
					"name": "salt",
					"type": "bytes32",
					"indexed": false,
					"internalType": "bytes32"
				},
				{
					"name": "fromChainId",
					"type": "uint256",
					"indexed": false,
					"internalType": "uint256"
				},
				{
					"name": "owner",
					"type": "address",
					"indexed": false,
					"internalType": "address"
				},
				{
					"name": "xAccount",
					"type": "address",
					"indexed": false,
					"internalType": "address"
				},
				{
					"name": "module",
					"type": "address",
					"indexed": false,
					"internalType": "address"
				},
				{
					"name": "port",
					"type": "address",
					"indexed": false,
					"internalType": "address"
				},
				{
					"name": "recovery",
					"type": "address",
					"indexed": false,
					"internalType": "address"
				}
			],
			"anonymous": false
		}
	],
	"solcInputHash": "8f21daf1538857cd5481b26261a8db40",
	"args": [
		"0x002dD94114497E86b5493E2D048C731e4BeBdDD0"
	],
	"bytecode": "0x60a060405234801561001057600080fd5b506040516111d53803806111d583398101604081905261002f91610040565b6001600160a01b0316608052610070565b60006020828403121561005257600080fd5b81516001600160a01b038116811461006957600080fd5b9392505050565b6080516111446100916000396000818160cc015261078301526111446000f3fe608060405234801561001057600080fd5b506004361061007d5760003560e01c80633a0f253a1161005b5780633a0f253a14610103578063a03bad5a14610143578063af76fad81461015e578063beccf5db1461017957600080fd5b8063131e7e1c14610082578063263b93f8146100c7578063382f28b8146100ee575b600080fd5b61009d73a6b71e26c5e0845f74c812102ca7114b6a896ab281565b60405173ffffffffffffffffffffffffffffffffffffffff90911681526020015b60405180910390f35b61009d7f000000000000000000000000000000000000000000000000000000000000000081565b6101016100fc366004610d6c565b61018c565b005b610116610111366004610d9f565b6102b0565b6040805173ffffffffffffffffffffffffffffffffffffffff9384168152929091166020830152016100be565b61009d73f48f2b2d2a534e402487b3ee7c18c33aec0fe5e481565b61009d733e5c63644e683549055b9be8653de26e0b4cd36e81565b610116610187366004610de5565b61032e565b6040517f610b592500000000000000000000000000000000000000000000000000000000815273ffffffffffffffffffffffffffffffffffffffff831660048201523090819063610b592590602401600060405180830381600087803b1580156101f557600080fd5b505af1158015610209573d6000803e3d6000fd5b5050505073ffffffffffffffffffffffffffffffffffffffff8216156102ab576040517f610b592500000000000000000000000000000000000000000000000000000000815273ffffffffffffffffffffffffffffffffffffffff838116600483015282169063610b592590602401600060405180830381600087803b15801561029257600080fd5b505af11580156102a6573d6000803e3d6000fd5b505050505b505050565b6040517fffffffffffffffffffffffffffffffffffffffff000000000000000000000000606086811b82166020840152603483018690526054830185905283901b1660748201526000908190608801604051602081830303815290604052805190602001209450610321853061034c565b9150915094509492505050565b60008061033e8787878787610553565b915091509550959350505050565b604080518082018252601081527f67363d3d37363d34f03d5260086018f30000000000000000000000000000000060209182015290517fff00000000000000000000000000000000000000000000000000000000000000918101919091527fffffffffffffffffffffffffffffffffffffffff000000000000000000000000606083901b166021820152603581018390527f21c35dbe1b344a2488cf3321d6ce542f8e9f305544ff09e4993a62319a497c1f60558201526000908190819061042b906075015b6040516020818303038152906040528051906020012090565b6040517fd69400000000000000000000000000000000000000000000000000000000000060208201527fffffffffffffffffffffffffffffffffffffffff000000000000000000000000606083901b1660228201527f010000000000000000000000000000000000000000000000000000000000000060368201529091506000906104b890603701610412565b6040517fd69400000000000000000000000000000000000000000000000000000000000060208201527fffffffffffffffffffffffffffffffffffffffff000000000000000000000000606085901b1660228201527f0200000000000000000000000000000000000000000000000000000000000000603682015290915060009061054590603701610412565b919791965090945050505050565b6040517fffffffffffffffffffffffffffffffffffffffff00000000000000000000000033606081811b83166020850152603484018990526054840188905286901b90911660748301526000918291906088016040516020818303038152906040528051906020012097506105c78861066e565b90935091506105d78383866107b3565b6105e48284898989610942565b6040805173ffffffffffffffffffffffffffffffffffffffff8381168252602082018b90528183018a90528881166060830152858116608083015284811660a083015287811660c0830152861660e082015290517f2822b60b934d114049a5a3823238adb4078da16f025aa289d535189c47fc31a3918190036101000190a1509550959350505050565b60008061067b833061034c565b8092508193505050600073a6b71e26c5e0845f74c812102ca7114b6a896ab273ffffffffffffffffffffffffffffffffffffffff166353e5d9356040518163ffffffff1660e01b8152600401600060405180830381865afa1580156106e4573d6000803e3d6000fd5b505050506040513d6000823e601f3d9081017fffffffffffffffffffffffffffffffffffffffffffffffffffffffffffffffe016820160405261072a9190810190610e8f565b9050600081733e5c63644e683549055b9be8653de26e0b4cd36e73ffffffffffffffffffffffffffffffffffffffff1660405160200161076b929190610f5a565b60405160208183030381529060405290506107a785827f00000000000000000000000000000000000000000000000000000000000000006109e1565b90969095509350505050565b6040805173ffffffffffffffffffffffffffffffffffffffff848116602483015283166044808301919091528251808303909101815260649091018252602080820180517bffffffffffffffffffffffffffffffffffffffffffffffffffffffff167f382f28b800000000000000000000000000000000000000000000000000000000179052825160018082528185019094529192916000918390828101908036833701905050905073dddddddddddddddddddddddddddddddddddddddd8160008151811061088457610884610f7c565b73ffffffffffffffffffffffffffffffffffffffff92831660209182029290920101526040517fb63e800d0000000000000000000000000000000000000000000000000000000081529087169063b63e800d9061090890849086903090899073f48f2b2d2a534e402487b3ee7c18c33aec0fe5e49060009081908190600401610ff5565b600060405180830381600087803b15801561092257600080fd5b505af1158015610936573d6000803e3d6000fd5b50505050505050505050565b6040517f3bc4d8d200000000000000000000000000000000000000000000000000000000815273ffffffffffffffffffffffffffffffffffffffff85811660048301526024820185905283811660448301528281166064830152861690633bc4d8d290608401600060405180830381600087803b1580156109c257600080fd5b505af11580156109d6573d6000803e3d6000fd5b505050505050505050565b60008060006040518060400160405280601081526020017f67363d3d37363d34f03d5260086018f30000000000000000000000000000000081525090506000868251602084016000f5905073ffffffffffffffffffffffffffffffffffffffff8116610aae576040517f08c379a000000000000000000000000000000000000000000000000000000000815260206004820152601160248201527f4445504c4f594d454e545f4641494c454400000000000000000000000000000060448201526064015b60405180910390fd5b610ab8873061034c565b604051919550935060009073ffffffffffffffffffffffffffffffffffffffff831690610ae69089906110f2565b6000604051808303816000865af19150503d8060008114610b23576040519150601f19603f3d011682016040523d82523d6000602084013e610b28565b606091505b50509050808015610b4f575073ffffffffffffffffffffffffffffffffffffffff85163b15155b610bb5576040517f08c379a000000000000000000000000000000000000000000000000000000000815260206004820152601660248201527f494e495449414c495a4154494f4e5f4641494c454431000000000000000000006044820152606401610aa5565b6000610bc087610cc4565b90508273ffffffffffffffffffffffffffffffffffffffff1681604051610be791906110f2565b6000604051808303816000865af19150503d8060008114610c24576040519150601f19603f3d011682016040523d82523d6000602084013e610c29565b606091505b505080925050818015610c52575073ffffffffffffffffffffffffffffffffffffffff85163b15155b610cb8576040517f08c379a000000000000000000000000000000000000000000000000000000000815260206004820152601660248201527f494e495449414c495a4154494f4e5f4641494c454432000000000000000000006044820152606401610aa5565b50505050935093915050565b604080516037808252606082810190935283831b9160009160208201818036833750507f3d602d80600a3d3981f3363d3d373d3d3d363d730000000000000000000000006020830152506034810192909252507f5af43d82803e903d91602b57fd5bf30000000000000000000000000000000000604882015292915050565b803573ffffffffffffffffffffffffffffffffffffffff81168114610d6757600080fd5b919050565b60008060408385031215610d7f57600080fd5b610d8883610d43565b9150610d9660208401610d43565b90509250929050565b60008060008060808587031215610db557600080fd5b610dbe85610d43565b93506020850135925060408501359150610dda60608601610d43565b905092959194509250565b600080600080600060a08688031215610dfd57600080fd5b8535945060208601359350610e1460408701610d43565b9250610e2260608701610d43565b9150610e3060808701610d43565b90509295509295909350565b7f4e487b7100000000000000000000000000000000000000000000000000000000600052604160045260246000fd5b60005b83811015610e86578181015183820152602001610e6e565b50506000910152565b600060208284031215610ea157600080fd5b815167ffffffffffffffff80821115610eb957600080fd5b818401915084601f830112610ecd57600080fd5b815181811115610edf57610edf610e3c565b604051601f82017fffffffffffffffffffffffffffffffffffffffffffffffffffffffffffffffe0908116603f01168101908382118183101715610f2557610f25610e3c565b81604052828152876020848701011115610f3e57600080fd5b610f4f836020830160208801610e6b565b979650505050505050565b60008351610f6c818460208801610e6b565b9190910191825250602001919050565b7f4e487b7100000000000000000000000000000000000000000000000000000000600052603260045260246000fd5b60008151808452610fc3816020860160208601610e6b565b601f017fffffffffffffffffffffffffffffffffffffffffffffffffffffffffffffffe0169290920160200192915050565b6101008082528951908201819052600090610120830190602090818d01845b8281101561104657815173ffffffffffffffffffffffffffffffffffffffff1685529383019390830190600101611014565b50505083018a905273ffffffffffffffffffffffffffffffffffffffff89166040840152828103606084015261107c8189610fab565b9150506110a1608083018773ffffffffffffffffffffffffffffffffffffffff169052565b73ffffffffffffffffffffffffffffffffffffffff851660a08301528360c08301526110e560e083018473ffffffffffffffffffffffffffffffffffffffff169052565b9998505050505050505050565b60008251611104818460208701610e6b565b919091019291505056fea2646970667358221220b546cb690573e5c40af757917f260d76703fc8a8f5ddc39b59d18287e7ce768364736f6c63430008110033",
	"deployedBytecode": "0x608060405234801561001057600080fd5b506004361061007d5760003560e01c80633a0f253a1161005b5780633a0f253a14610103578063a03bad5a14610143578063af76fad81461015e578063beccf5db1461017957600080fd5b8063131e7e1c14610082578063263b93f8146100c7578063382f28b8146100ee575b600080fd5b61009d73a6b71e26c5e0845f74c812102ca7114b6a896ab281565b60405173ffffffffffffffffffffffffffffffffffffffff90911681526020015b60405180910390f35b61009d7f000000000000000000000000002dd94114497e86b5493e2d048c731e4bebddd081565b6101016100fc366004610d6c565b61018c565b005b610116610111366004610d9f565b6102b0565b6040805173ffffffffffffffffffffffffffffffffffffffff9384168152929091166020830152016100be565b61009d73f48f2b2d2a534e402487b3ee7c18c33aec0fe5e481565b61009d733e5c63644e683549055b9be8653de26e0b4cd36e81565b610116610187366004610de5565b61032e565b6040517f610b592500000000000000000000000000000000000000000000000000000000815273ffffffffffffffffffffffffffffffffffffffff831660048201523090819063610b592590602401600060405180830381600087803b1580156101f557600080fd5b505af1158015610209573d6000803e3d6000fd5b5050505073ffffffffffffffffffffffffffffffffffffffff8216156102ab576040517f610b592500000000000000000000000000000000000000000000000000000000815273ffffffffffffffffffffffffffffffffffffffff838116600483015282169063610b592590602401600060405180830381600087803b15801561029257600080fd5b505af11580156102a6573d6000803e3d6000fd5b505050505b505050565b6040517fffffffffffffffffffffffffffffffffffffffff000000000000000000000000606086811b82166020840152603483018690526054830185905283901b1660748201526000908190608801604051602081830303815290604052805190602001209450610321853061034c565b9150915094509492505050565b60008061033e8787878787610553565b915091509550959350505050565b604080518082018252601081527f67363d3d37363d34f03d5260086018f30000000000000000000000000000000060209182015290517fff00000000000000000000000000000000000000000000000000000000000000918101919091527fffffffffffffffffffffffffffffffffffffffff000000000000000000000000606083901b166021820152603581018390527f21c35dbe1b344a2488cf3321d6ce542f8e9f305544ff09e4993a62319a497c1f60558201526000908190819061042b906075015b6040516020818303038152906040528051906020012090565b6040517fd69400000000000000000000000000000000000000000000000000000000000060208201527fffffffffffffffffffffffffffffffffffffffff000000000000000000000000606083901b1660228201527f010000000000000000000000000000000000000000000000000000000000000060368201529091506000906104b890603701610412565b6040517fd69400000000000000000000000000000000000000000000000000000000000060208201527fffffffffffffffffffffffffffffffffffffffff000000000000000000000000606085901b1660228201527f0200000000000000000000000000000000000000000000000000000000000000603682015290915060009061054590603701610412565b919791965090945050505050565b6040517fffffffffffffffffffffffffffffffffffffffff00000000000000000000000033606081811b83166020850152603484018990526054840188905286901b90911660748301526000918291906088016040516020818303038152906040528051906020012097506105c78861066e565b90935091506105d78383866107b3565b6105e48284898989610942565b6040805173ffffffffffffffffffffffffffffffffffffffff8381168252602082018b90528183018a90528881166060830152858116608083015284811660a083015287811660c0830152861660e082015290517f2822b60b934d114049a5a3823238adb4078da16f025aa289d535189c47fc31a3918190036101000190a1509550959350505050565b60008061067b833061034c565b8092508193505050600073a6b71e26c5e0845f74c812102ca7114b6a896ab273ffffffffffffffffffffffffffffffffffffffff166353e5d9356040518163ffffffff1660e01b8152600401600060405180830381865afa1580156106e4573d6000803e3d6000fd5b505050506040513d6000823e601f3d9081017fffffffffffffffffffffffffffffffffffffffffffffffffffffffffffffffe016820160405261072a9190810190610e8f565b9050600081733e5c63644e683549055b9be8653de26e0b4cd36e73ffffffffffffffffffffffffffffffffffffffff1660405160200161076b929190610f5a565b60405160208183030381529060405290506107a785827f000000000000000000000000002dd94114497e86b5493e2d048c731e4bebddd06109e1565b90969095509350505050565b6040805173ffffffffffffffffffffffffffffffffffffffff848116602483015283166044808301919091528251808303909101815260649091018252602080820180517bffffffffffffffffffffffffffffffffffffffffffffffffffffffff167f382f28b800000000000000000000000000000000000000000000000000000000179052825160018082528185019094529192916000918390828101908036833701905050905073dddddddddddddddddddddddddddddddddddddddd8160008151811061088457610884610f7c565b73ffffffffffffffffffffffffffffffffffffffff92831660209182029290920101526040517fb63e800d0000000000000000000000000000000000000000000000000000000081529087169063b63e800d9061090890849086903090899073f48f2b2d2a534e402487b3ee7c18c33aec0fe5e49060009081908190600401610ff5565b600060405180830381600087803b15801561092257600080fd5b505af1158015610936573d6000803e3d6000fd5b50505050505050505050565b6040517f3bc4d8d200000000000000000000000000000000000000000000000000000000815273ffffffffffffffffffffffffffffffffffffffff85811660048301526024820185905283811660448301528281166064830152861690633bc4d8d290608401600060405180830381600087803b1580156109c257600080fd5b505af11580156109d6573d6000803e3d6000fd5b505050505050505050565b60008060006040518060400160405280601081526020017f67363d3d37363d34f03d5260086018f30000000000000000000000000000000081525090506000868251602084016000f5905073ffffffffffffffffffffffffffffffffffffffff8116610aae576040517f08c379a000000000000000000000000000000000000000000000000000000000815260206004820152601160248201527f4445504c4f594d454e545f4641494c454400000000000000000000000000000060448201526064015b60405180910390fd5b610ab8873061034c565b604051919550935060009073ffffffffffffffffffffffffffffffffffffffff831690610ae69089906110f2565b6000604051808303816000865af19150503d8060008114610b23576040519150601f19603f3d011682016040523d82523d6000602084013e610b28565b606091505b50509050808015610b4f575073ffffffffffffffffffffffffffffffffffffffff85163b15155b610bb5576040517f08c379a000000000000000000000000000000000000000000000000000000000815260206004820152601660248201527f494e495449414c495a4154494f4e5f4641494c454431000000000000000000006044820152606401610aa5565b6000610bc087610cc4565b90508273ffffffffffffffffffffffffffffffffffffffff1681604051610be791906110f2565b6000604051808303816000865af19150503d8060008114610c24576040519150601f19603f3d011682016040523d82523d6000602084013e610c29565b606091505b505080925050818015610c52575073ffffffffffffffffffffffffffffffffffffffff85163b15155b610cb8576040517f08c379a000000000000000000000000000000000000000000000000000000000815260206004820152601660248201527f494e495449414c495a4154494f4e5f4641494c454432000000000000000000006044820152606401610aa5565b50505050935093915050565b604080516037808252606082810190935283831b9160009160208201818036833750507f3d602d80600a3d3981f3363d3d373d3d3d363d730000000000000000000000006020830152506034810192909252507f5af43d82803e903d91602b57fd5bf30000000000000000000000000000000000604882015292915050565b803573ffffffffffffffffffffffffffffffffffffffff81168114610d6757600080fd5b919050565b60008060408385031215610d7f57600080fd5b610d8883610d43565b9150610d9660208401610d43565b90509250929050565b60008060008060808587031215610db557600080fd5b610dbe85610d43565b93506020850135925060408501359150610dda60608601610d43565b905092959194509250565b600080600080600060a08688031215610dfd57600080fd5b8535945060208601359350610e1460408701610d43565b9250610e2260608701610d43565b9150610e3060808701610d43565b90509295509295909350565b7f4e487b7100000000000000000000000000000000000000000000000000000000600052604160045260246000fd5b60005b83811015610e86578181015183820152602001610e6e565b50506000910152565b600060208284031215610ea157600080fd5b815167ffffffffffffffff80821115610eb957600080fd5b818401915084601f830112610ecd57600080fd5b815181811115610edf57610edf610e3c565b604051601f82017fffffffffffffffffffffffffffffffffffffffffffffffffffffffffffffffe0908116603f01168101908382118183101715610f2557610f25610e3c565b81604052828152876020848701011115610f3e57600080fd5b610f4f836020830160208801610e6b565b979650505050505050565b60008351610f6c818460208801610e6b565b9190910191825250602001919050565b7f4e487b7100000000000000000000000000000000000000000000000000000000600052603260045260246000fd5b60008151808452610fc3816020860160208601610e6b565b601f017fffffffffffffffffffffffffffffffffffffffffffffffffffffffffffffffe0169290920160200192915050565b6101008082528951908201819052600090610120830190602090818d01845b8281101561104657815173ffffffffffffffffffffffffffffffffffffffff1685529383019390830190600101611014565b50505083018a905273ffffffffffffffffffffffffffffffffffffffff89166040840152828103606084015261107c8189610fab565b9150506110a1608083018773ffffffffffffffffffffffffffffffffffffffff169052565b73ffffffffffffffffffffffffffffffffffffffff851660a08301528360c08301526110e560e083018473ffffffffffffffffffffffffffffffffffffffff169052565b9998505050505050505050565b60008251611104818460208701610e6b565b919091019291505056fea2646970667358221220b546cb690573e5c40af757917f260d76703fc8a8f5ddc39b59d18287e7ce768364736f6c63430008110033",
	"devdoc": {
		"kind": "dev",
		"methods": {
			"create(bytes32,uint256,address,address,address)": {
				"details": "Create xAccount on target chain.",
				"params": {
					"fromChainId": "Source chain id.",
					"owner": "Owner on source chain.",
					"port": "Msgport address for send msgport.",
					"recovery": "The default safe recovery module address for xAccount.",
					"salt": "Pseudo random number."
				},
				"returns": {
					"_0": "Deployed xAccount address."
				}
			},
			"xAccountOf(address,bytes32,uint256,address)": {
				"details": "Calculate xAccount address.",
				"params": {
					"deployer": "who deployed the xAccount.",
					"fromChainId": "Chain id that xAccount belongs in.",
					"owner": "Owner that xAccount belongs to.",
					"salt": "Pseudo random number of deplyed xAccount."
				},
				"returns": {
					"_0": "(xAccount address, module address)."
				}
			}
		},
		"version": 1
	},
	"userdoc": {
		"kind": "user",
		"methods": {
			"safeFallbackHandler()": {
				"notice": "Safe Deployment: https://github.com/safe-global/safe-deployments/tree/main/src/assets/v1.3.0"
			},
			"xAccountOf(address,bytes32,uint256,address)": {
				"notice": "The module address is only effective during its creation and may be replaced by the xAccount in the future."
			}
		},
		"version": 1
	},
	"gitCommit": "a816c23ab8d50b6523923a397798e97b2ca08829",
	"sourceName": "lib/XAccount/src/XAccountFactory.sol",
	"chainId": "42161",
	"linkReferences": {},
	"deployedLinkReferences": {},
	"history": []
}